:020000040000FA
:10000000900A0020D9120000293C0000F9100000DD
:10001000F9100000F9100000F9100000F9100000BC
:10002000F9100000F9100000F9100000C1100000E4
:10003000F9100000F91000006D1000002B3B0000CB
:1000400025110000251100002511000025110000D8
:1000500025110000251100002511000025110000C8
:1000600025110000251100002511000025110000B8
:1000700025110000251100002511000025110000A8
:100080002511000025110000251100002511000098
:100090002511000025110000251100002511000088
:1000A0002511000025110000251100002511000078
:1000B0002511000025110000251100002511000068
:1000C0002511000025110000251100002511000058
:1000D0002511000025110000251100002511000048
:1000E0002511000025110000251100002511000038
:1000F0002511000025110000251100002511000028
:100100002511000025110000251100002511000017
:100110002511000025110000251100002511000007
:1001200025110000251100002511000025110000F7
:1001300025110000251100002511000025110000E7
:100140002511000000000000000000000000000079
:10015000000000000000000000000000000000009F
:10016000000000000000000000000000000000008F
:10017000000000000000000000000000000000007F
:10018000000000000000000000000000000000006F
:10019000000000000000000000000000000000005F
:1001A000000000000000000000000000000000004F
:1001B000000000000000000000000000000000003F
:1001C000000000000000000000000000000000002F
:1001D000000000000000000000000000000000001F
:1001E000000000000000000000000000000000000F
:1001F00000000000000000000000000000000000FF
:10020000DEE61E284CBBCE8F015B000000800000A4
:100210000100000000000000D01300203D1A000083
:100220007BB972B90029BEBF00204FF0004106E043
:1002300008BF00281CBF6FF000414FF0FF3000F0F6
:10024000AFB9ADF1080C6DE904CE002909DB002B34
:100250001ADB00F035F8DDF804E0DDE9022304B034
:100260007047404261EB4101002B1BDB00F028F896
:10027000DDF804E0DDE9022304B0404261EB410116
:10028000524263EB43037047524263EB430300F077
:1002900017F8DDF804E0DDE9022304B0404261EB29
:1002A00041017047524263EB430300F009F8DDF867
:1002B00004E0DDE9022304B0524263EB43037047DC
:1002C0002DE9F0478C46089D04468A46002B4AD10A
:1002D0008A42174662D9B2FA82F64EB1C6F1200EB2
:1002E00001FA06F3B740B44020FA0EFE4EEA030AC4
:1002F0004FEA1748230C1FFA87F9BAFBF8FE08FBF0
:100300001EAA0EFB09F243EA0A439A420BD9FB18D4
:100310000EF1FF312CBF012000209A4202D90028A3
:1003200000F02A818E469A1AA3B2B2FBF8F008FBBD
:10033000102200FB09F943EA0244A14507D93C1900
:1003400000F1FF3302D2A14500F210811846A4EB60
:10035000090440EA0E4000211DB1F4400023C5E924
:100360000043BDE8F0878B4208D9002D00F0F280F1
:100370000021C5E9000C0846BDE8F087B3FA83F117
:1003800000294ED16345C0F0E880824240F2E5800A
:100390000846002DE5D0C5E9004AE2E702B9FFDED4
:1003A000B2FA82F6002E40F099808B1A4FEA124E74
:1003B0001FFA82F801214FEA144CB3FBFEF20EFB48
:1003C000123008FB02F94CEA004CE14508D917EB62
:1003D0000C0C02F1FF3302D2E14500F2CA801A464A
:1003E000ACEB090CA3B2BCFBFEF00EFB10CC08FB7F
:1003F00000F843EA0C44A0450ED93C1900F1FF3344
:100400002CBF4FF0010C4FF0000CA04503D9BCF1FC
:10041000000F00F0A8801846A4EB080440EA024050
:100420009AE7C1F120048B4002FA01FE0CFA01F6B2
:10043000E24020FA04F72CFA04FC00FA01F8134316
:100440003E431F0C320C1FFA83F9BCFBF7F007FB8D
:1004500010CC00FB09FA42EA0C4CE24508D913EB38
:100460000C0C00F1FF3202D2E24500F28980104606
:10047000ACEB0A0CB6B2BCFBF7FA07FB1ACC0AFBD2
:1004800009F946EA0C42914506D99A180AF1FF3655
:1004900001D291457AD8B2464AEA0040A2EB09025D
:1004A000A0FB0E67BA42B446B94602D307D1B045A5
:1004B00005D2B6EB0E0C67EB030301389946002D0D
:1004C0006BD0B8EB0C0362EB090202FA04F4CB40E8
:1004D000CA4000211C43C5E9004242E7B740C6F1CB
:1004E000200201FA06F3B44021FA02FC4FEA174E4B
:1004F00020FA02F21FFA87F8BCFBFEF11A430EFB4A
:1005000011CC01FB08F0130C43EA0C4C604507D9F1
:1005100017EB0C0C01F1FF3301D2604533D81946BB
:10052000ACEB000C92B2BCFBFEF00EFB10CC00FB5F
:1005300008F342EA0C4C634507D917EB0C0C00F1A9
:10054000FF3201D2634525D81046ACEB030340EAE5
:10055000014130E72946284603E7841A6CEB030380
:1005600001209A4615E702383C4455E702383C44DE
:10057000EDE6023ABC4433E7AEF1020E3B44D2E66C
:1005800002389C4474E70239BC44C9E7AAF1020A64
:100590001A4481E70238BC44D7E72946E1E600BFA8
:1005A000704700BF2DE9E04F2746A046A146A2466E
:1005B000A346A4462DED108B4FF0000545EC185BCB
:1005C00045EC195A45EC1A5A45EC1B5A45EC1C5A95
:1005D00045EC1D5A45EC1E5A45EC1F5AF1EE105AD7
:1005E0004FF66076C0F6FF763540E1EE105A84F3A0
:1005F000008825462646A447BDEC108BBDE8E08F59
:1006000082680C4B9A60036883F38888436883F39D
:100610008988027B02F00101EFF3948323F0030346
:10062000920748BF43F0020309B143F0010383F38B
:100630009488704700ED02E0084AD36848B123F47B
:1006400000531B041B0C43F0BF6343F40033D3601F
:1006500070479BB243F40053F5E700BF00ED00E0A4
:10066000084AD36840B19BB243F4804343F0BF6370
:1006700043F40033D360704723F480431B041B0C06
:10068000F4E700BF00ED00E0084AD36840B19BB238
:1006900043F0080343F0BF6343F40033D360704773
:1006A00023F008031B041B0CF4E700BF00ED00E07F
:1006B000034AD2F88C3043F44063C2F88C30704760
:1006C00000ED00E0084B1A6818B142F001021A6010
:1006D000704722F001021A601A6811B142F002025A
:1006E000F5E722F00202F2E7D0ED00E00B680133FB
:1006F0000B60014B1B681847D41300202DE9F04F05
:1007000085B00E9C9B46012CB8BF0124012B0CBF69
:100710003023202316468246884601250A270022D8
:10072000DFF86C900293B6FBF9F301930AB9B14577
:100730001CD8019B414603F13000D047012201350E
:10074000019B013F09FB13660A23012FB9FBF3F953
:10075000E9D1414606F13000D047BBF1030F02D189
:10076000641B002C0EDC05B0BDE8F08FBC42E7DB5B
:10077000BBF1020FE4D84146029803920135D047FD
:10078000039ADDE741462020D047013CE9E700BF5E
:1007900000CA9A3B014B1860704700BFD413002079
:1007A000002313B502AC44F8043D02460B4603484F
:1007B000214602F073FF02B010BD00BFED0600003D
:1007C0004FF02002EFF3118382F31188BFF36F8F94
:1007D0000121044AC2F8401583F31188BFF36F8FDB
:1007E00000207047009003500A2838B50446074D92
:1007F00004D1286843680D215B68984728684368DE
:10080000E1B25B689847204638BD00BF0800002071
:1008100010B5044C204601F019F82046BDE8104000
:10082000FFF7B8BFE907000008B5044801F0FEF97A
:10083000034B1860FFF7ECFF002008BDC346000023
:100840000800002008B5114B1A686AB14FF0502219
:10085000D2F80823D10707D500220D481A60836813
:100860005B7A0BB903F044F90A4B1A6862B14FF096
:100870005022D2F80823920706D5002206481A60B3
:10088000BDE8084003F034B908BD00BF0051005076
:1008900084140020045100509014002000220D4BBD
:1008A000C3F840214FF02002EFF3118182F3118849
:1008B000BFF36F8F084AD3F804051368C01A20F0FD
:1008C0007F400344136081F31188BFF36F8F01F001
:1008D0002DBF00BF005001502400002070B5184803
:1008E00001F0A4F948B3436800211B68984701262A
:1008F00000244FF480334FF40012124D3146C5F8F6
:100900000845C5F84065C5F804330F4B15201C6039
:100910000E4BC3F88021224600F04EFC152000F05B
:100920003BFC20460A4B1E602E60D5F8043533444C
:1009300023F07F43C5F8403570BD4FF0FF30FBE733
:10094000CA460000005001504051015000E100E053
:100950000850015070B5214EB0F1FF3F08BF30463E
:100960004FF02003EFF3118483F31188BFF36F8FEF
:100970001B491C4BD1F804251D680138531B23F07B
:100980007F4301352B4420EAE070B042D4BF1818F1
:100990009819821A22F07F4220F07F43022AC1F880
:1009A000403504D984F31188BFF36F8F70BDD1F83F
:1009B00004350D4AC31A23F07F435D1E954205D9C5
:1009C0004FF40012094BC3F80021EBE7012B02BFE3
:1009D000023020F07F40C1F84005E3E7FEFFFF0052
:1009E0000050015024000020FEFF7F0000E100E0E5
:1009F0004FF02002EFF3118382F31188BFF36F8F62
:100A0000064AD2F80405064A1268801A20F07F4090
:100A100083F31188BFF36F8F704700BF0050015000
:100A20002400002008B543B2002B0CDB012200F0AB
:100A30001F018A405B091049203341F82320BFF38E
:100A40004F8FBFF36F8F830003F1A04303F5405333
:100A50003128D3F8002806D0002A07DA02F0030272
:100A6000023A012A02D8054AC3F80028002103F0FF
:100A7000ACF8002008BD00BF00E100E000010080EC
:100A800030B54FF440444CF2040585B04FF440417A
:100A90002C4802F079FF21682B4802F075FF296885
:100AA0002A4802F071FF10220021684603F03EF947
:100AB0002368684600930294FFF7A2FD0120FFF728
:100AC000CFFD0020FFF7B8FD0020FFF7DDFD01217D
:100AD0000020FFF7F7FDFFF7EBFD2C681C4802F044
:100AE00053FF0820FFF79EFF24F00104BFF34F8F50
:100AF000BFF36F8F640864002046214622462346D8
:100B00009FED140ADFED130A9FED121ADFED111AA3
:100B10009FED102ADFED0F2A9FED0E3ADFED0D3A23
:100B20009FED0C4ADFED0B4A9FED0A5ADFED095AA3
:100B30009FED086ADFED076A9FED067ADFED057A23
:100B4000FFF730FD2C4800004348000058480000E3
:100B500076480000000000002DE9F8436F4802F0DD
:100B600013FF0021DFF800826D4F6E4D58F82140D1
:100B7000CA0301F5C07347F823406B4802F50043F0
:100B80004E1C02F001FF694B14F0100F68496948D0
:100B900008BF194602F0F8FE14F0040F14BF7221CA
:100BA0002D21284602F0F0FE14F0020F14BF772129
:100BB0002D21284602F0E8FE14F0010F14BF782121
:100BC0002D21284602F0E0FE14F4807F14BF6C2132
:100BD0002D21284602F0D8FE574802F0D5FE202EDF
:100BE0003146C3D1554B4E4AC3F3C431C3F30E0350
:100BF000C3F50043C3F34313C2F80015C2F804352C
:100C0000D2F80015D2F804254D48520102F0BCFE7E
:100C1000494802F0B9FE02F08AFF014610B1494886
:100C200002F0B2FE444802F0AFFE474802F0ACFECC
:100C30000021DFF838813A4F3A4D58F821404A03F5
:100C400001F5E07347F82340404802F500534E1C7D
:100C500002F09AFE354B14F0100F3549354808BFA5
:100C6000194602F091FE14F0040F14BF72212D21D9
:100C7000284602F089FE14F0020F14BF77212D21BF
:100C8000284602F081FE14F0010F14BF78212D21B7
:100C9000284602F079FE14F4807F14BF6C212D21C8
:100CA000284602F071FE244802F06EFE202E3146E6
:100CB000C3D1214802F068FE4FF6FF730024184D9F
:100CC0002348C5F8803402F05FFEDFF8A480C5F841
:100CD000C044DFF8A0901F4D05EBC406777955F8A6
:100CE0003420002F14BF43464B4621461A4802F0D9
:100CF0004BFE57B91948013402F046FE192CEBD1CE
:100D00000D48BDE8F84302F03FBE3079FFF78AFE98
:100D100008B11348EFE71348EDE700BF08470000AC
:100D200000300050404700002B470000F146000013
:100D3000E846000015480000374A0000E07F000048
:100D40004347000089470000B9470000DB47000027
:100D5000EF470000104400000B4800001848000056
:100D60001F4800002748000090430000D8440000BE
:100D7000FD460000F546000010B500284BD0002AC3
:100D800049D0264B99423CD9541803F61D239C4266
:100D90003AD802F09EFF0020BDE81040714672462E
:100DA0007346B7EE000AF7EE000AB7EE001AF7EE48
:100DB000001AB7EE002AF7EE002AB7EE003AF7EE77
:100DC000003AB7EE004AF7EE004AB7EE005AF7EEE7
:100DD000005AB7EE006AF7EE006AB7EE007AF7EE57
:100DE000007A8EF3008C10B4F1EE10CA4FF66074E6
:100DF000C0F6FF740CEA040CE1EE10CA10BCF44615
:100E00007447074B994203D9064B54189C42C0D9EA
:100E10004FF0FF30C0E76FF01500BDE70302FF00A1
:100E20002F01FF003801FF002DE9F04F844685B007
:100E30000F4600296AD0002445F6013ADFF8D8E0D1
:100E4000344EDFF8D880DFF8D89001AD5EF824B0DA
:100E500096E807000CEB0B0385E807009A0744D1DE
:100E60005CF80B20424505D15A684A4502D19A6880
:100E7000524544D00134032CE8D16FF00D0005B089
:100E8000B7EE000AF7EE000AB7EE001AF7EE001A06
:100E9000B7EE002AF7EE002AB7EE003AF7EE003A76
:100EA000B7EE004AF7EE004AB7EE005AF7EE005AE6
:100EB000B7EE006AF7EE006AB7EE007ABDE8F04FD1
:100EC000714672467346F7EE007A8EF3008C10B4CA
:100ED000F1EE10CA4FF66074C0F6FF740CEA040C11
:100EE000E1EE10CA10BCF44674470022985CA95C7D
:100EF0008842BFD101320C2AF8D1002BBAD020226F
:100F00001946384602F0E5FE0020B8E76FF01500FC
:100F1000B5E700BF3043000058450000DEE61E285C
:100F20004CBBCE8F014801F061BE00BF644500009C
:100F300008B530B143683BB1006801F065F80020A6
:100F400008BD6FF4E040FBE70048F9E7EA8FFFFFD8
:100F500008B558B1436863B100684FF0FF3100F045
:100F6000E1FF0028044808BF002008BD6FF4E040FE
:100F7000FBE70248F9E700BFE98FFFFFEA8FFFFFB9
:100F800038B5044618B90B4B0B485B689847656841
:100F900055B115F00205206807D10146074800F059
:100FA00093FF25600023636038BD1422002102F006
:100FB000BDFEF7E728140020944900002800002017
:100FC00010B5044618B9134B13485B68984763681B
:100FD000BBB92368ABB94FF0FF3221460F4800F090
:100FE00045FF08B923681BB90A4B0D485B68984751
:100FF00014220021206802F099FE636843F0020386
:101000006360206802F02AFF636843F001036360B5
:1010100010BD00BF281400209449000028000020C3
:10102000BA49000008B5064940230648142202F0D8
:1010300003FFBDE808400449044801F00FBE00BFAB
:1010400044000020280000207C4500006C45000082
:1010500004488168406A884203D003494FF08052B7
:101060000A6070473006002004ED00E012498A68EB
:101070004FF028001044EFF3098C80E8F01F202087
:1010800080F31188BFF36F8F0C4F4FF000664A6AF0
:101090008A603E60506E0023536680F3118804B569
:1010A000104602F0C8FDBDE8044002F1280090E8B7
:1010B000F01F8CF3098870473006002004ED00E033
:1010C0001EF0040F0CBFEFF30880EFF30980816975
:1010D00011F8021C0229FFD001B502F0A1FD01BDEB
:1010E000014910220A60704710ED00E0404080F393
:1010F000118830BF704700BF404080F311884FF027
:1011000004007146014202D0EFF3098001D1EFF3F0
:101110000880714601B500F061F901BD30BFFFF7ED
:10112000FDBF00BF01B572B60B4A106A00281EBF92
:101130000021116202F07EFE62B6EFF30580A0F19D
:1011400010004FEAC0000549014409C99847BDE8AD
:10115000014003490847000030060020B04000006D
:1011600051100000094A0A4993680968586699664F
:1011700008494B6843F080534B60002383F3118888
:10118000BFF36F8F9368986E704700BF30060020E2
:10119000C045000000ED00E043B2002B08DB012257
:1011A00000F01F0002FA00F0024A5B0942F8230037
:1011B000704700BF00E100E043B2002B01F10101E4
:1011C000A8BF03F160434FEA4111B8BF054BC9B254
:1011D000ABBF03F5614300F00F0083F8001319540F
:1011E000704700BF14ED00E02DE9F0418C188846EF
:1011F00017461E4604220A9B0999054602F00BFF7A
:1012000000220D49A4F1200323F0070321F001017E
:10121000C5E91322C5E91687996106991E605960D0
:10122000079999600899D9604FF08071D961AB64D2
:101230006A66BDE8F08100BF69360000F8B51E4659
:1012400005460C4617460023E1EE103A00F06EF911
:101250000B4B3C4428469D6024F0070402F0EBFC55
:10126000304684F3098863B64FF0000181F311889A
:10127000BFF36F8F00210022002302F0F5F900BFB9
:1012800030060020114A08B5114B22F07F029A6007
:10129000BFF34F8FBFF36F8FD3F8882042F4A002C3
:1012A000C3F888200B4A536823F040435360BFF3D0
:1012B0004F8FBFF36F8F0023E1EE103A00F0F6FC82
:1012C00000F0FEFC00F000F900F02CFD0000000032
:1012D00000ED00E030EF00E002F064FB202080F33E
:1012E000118808484FF40061401880F30988EFF333
:1012F00014800221084380F31488BFF36F8FFFF737
:10130000C1FF0000D00B00200C4B9A6A9A6A9A6ABF
:10131000920708D55A6B9A6A120604D518B19A6AD0
:1013200022F080029A6200209A6A9A6A9A6A9A6AFD
:1013300042F0FF029A620870704700BF00ED00E0C3
:101340000D4B9A6A9A6A9A6A920508D59A6B9A6ABC
:10135000120404D518B19A6A22F400429A6200205D
:101360009A6A9A6AD205044A58BF9B6A936A43F400
:101370007F4393620870704700ED00E0074B002048
:101380009A6A9A6A9A6A9A6A9A6A9A6A9A6A9A6A3D
:101390006FEA02426FEA12429A62704700ED00E083
:1013A0000D4B9A695A695A69D0070FD45A69910747
:1013B0000CD45A69520709D45A69100706D45A69DD
:1013C000D10603D45A69920658BF5A695A6942F045
:1013D000FF025A61704700BFD0ED00E037B5044608
:1013E000314A01F07F40B0F17F4F536859D111F07D
:1013F00001000AD0480611D411F0080009D0EFF31B
:101400008984506810F4006008D1214602F006FC7F
:1014100025E0EFF3888452681105F6D40022C3F367
:101420000803033B8DF80720042B30D8DFE803F0D6
:10143000033135262D001C4BDA6A920727D4D86A6F
:1014400010F0804007D028331B7853B101200DF1F4
:101450000701FFF759FF9DF80730002BD5D003B0E7
:1014600030BD124B1B782BB101200DF10701FFF7A6
:1014700067FFF0E70E4B188885B215B1FFF77EFFC6
:10148000E9E70C4B58690028E5D0FFF789FF0020F9
:10149000E1E70DF107010020DBE70DF10701002076
:1014A000E5E70020B1E700BF00ED00E029ED00E036
:1014B0002AED00E0D0ED00E0024A536943F010034A
:1014C0005361704700ED00E0002320210348C2185B
:1014D0000133412B82F80013F9D1704700E100E09D
:1014E00038B505464FF02003EFF3118483F31188DC
:1014F000BFF36F8F02F070FD0A4B9B68AB420BD1BC
:10150000094B5A68C2F3080212B92046FFF72AFEB7
:101510005A6842F080525A602046BDE8384002F0D6
:10152000D4BC00BF3006002000ED00E010B50E4B2B
:1015300088B002930D4B0E4C03930E4B08A80493F6
:1015400002AB40F81C3D0C4A2346012100F002F991
:1015500000230793094B0121E41A05A8059306947B
:1015600000F002F908B010BD0000002000000000EB
:101570000000012006000100000000200000002003
:1015800010B50B680C7A23F01F0304F01F021A43F6
:10159000CB68640923F01F03044943F0010343EAC5
:1015A00044038860CA600B6110BD00BF90ED00E08D
:1015B0002DE9F04F8046894614460027484D85B0F6
:1015C0004F4507DA58F827305E68C6B31F2E05D896
:1015D0006FF01504204605B0BDE8F08FF206F7D194
:1015E000D3F800A01AF01F0FF2D1504601F0E7FF28
:1015F000834606EB0A00013801F0E1FF8345E7D19D
:101600001BF1160FE4D0631E5B45E1DBC5F808B0A3
:10161000E86858F82710C5F808B02E6920F01F00B8
:10162000D1E900321A44984246F01F0602F1FF3A0F
:1016300018D1564505D15FFA8BF002F004FB013753
:10164000BEE7C5F808B0EB6822F01F0203F01F03E5
:101650001A43EA60E0B202F0F6FA10F1160FB7D0C2
:10166000441CECE7C5F808B02A69013B23F01F03CE
:1016700002F01F0213435645E0B22B61EBD002F09B
:10168000E2FA10F1160FA3D0C5F808B0EA689DF889
:101690000830013E62F304038DF808302B699DF891
:1016A00008205B0863F347128DF8082058F82720BC
:1016B0000130D2E900321344009323F01F031E448B
:1016C000A6EB0A06C4B226F01F060F2C03963FF6BF
:1016D0007FAF20466946FFF753FF0134AFE700BFF5
:1016E00090ED00E00522034B5A60BFF34F8FBFF32C
:1016F0006F8F704790ED00E0BFF35F8F0022014BCA
:101700005A60704790ED00E070B50E4D2E68102EB7
:1017100015D80024FFF7F0FF0B4B0C4A1A63A642C2
:1017200005D10B4B1E70FFF7DDFF002070BD69680F
:10173000204601EB0411FFF723FF0134EFE74FF0E0
:10174000FF30F3E73C43000090ED00E0AAFF4400C7
:101750008C06002010B5034C2278FFF729FF20707B
:1017600010BD00BF8C0600202DE9F74F89460746C3
:101770000026DFF89080DFF890A0214C4E4519DA62
:10178000D7F804B0BBF1000F36D03B681846019380
:1017900001F015FF019B05460BEB0300013801F03A
:1017A0000EFF1423854203FB06F306D06FF01502EB
:1017B00048F8032003B0BDE8F08F15F1160F48F884
:1017C0000350F7D09AF80020AA42F3DDA560434405
:1017D000A560E068197B60F3040119732169187B27
:1017E000490861F347101873E26822F01F025A603B
:1017F000226922F01F021A6101360C37BEE700BFD2
:1018000090ED00E0440500208C06002070B50C4BE4
:101810000E461C780546234600210A4A0F2B0BDD95
:10182000094B191D1868FFF7ABFE224631462846C2
:10183000BDE87040FFF7BCBE936011610133EDE776
:101840008C06002090ED00E044050020014B18605C
:10185000704700BFF8130020F0B54B79012B29D059
:10186000032B24D101268B79032B20D1CD792DB1E7
:10187000012D1CD103689B681B79C3B10A7912B191
:10188000022A14D10E2247F6122703689B681C68AF
:101890000B68BB4274D029D8B3F5965F6AD014D8D0
:1018A000B3F5167F4FD007D8B3F5967F7DD06FF094
:1018B00022005BE00026D6E7B3F5966F57D0B3F56C
:1018C000166FF4D14FF41D233FE0B3F5615F53D0A1
:1018D00004D8B3F5165FEAD1354B36E0B3F5964F31
:1018E0004CD0B3F5E14FE2D1324B2EE0B3F5E13FFE
:1018F0004FD012D84DF6C027BB4244D005D8B3F51F
:10190000164FD4D14FF41D031FE0B3F5614F3DD006
:10191000B3F5963FCBD1284B17E0B3F5E12F3ED07E
:1019200008D8B3F5613F37D0244FBB42BFD14FF049
:1019300080630AE0B3F5612F34D0214FBB42B6D1AA
:101940004FF0805301E04FF41C332A43C4F8243590
:10195000C4F86C252EB1D4F86C3543F01003C4F8EC
:101960006C35836803C983E803000020F0BD4FF4A1
:101970009E23EAE7134BE8E7134BE6E7134BE4E754
:101980004FF40003E1E74FF46503DEE74FF46B0328
:10199000DBE74FF0EB73D8E74FF06C73D5E74FF010
:1019A000E863D2E74FF07063CFE74FF4A033CCE7A2
:1019B0000050270000C0750000903A0190D003004D
:1019C00040420F0000B0130000F03A0000A04E00AB
:1019D000026870B59268184B14684FF00052856821
:1019E00003219A601D260022C3F87412C3F87022E6
:1019F000C4F80C651C26C4F814654FF000669E60A0
:101A0000C3F86C12C3F868221B23C4F808351A23E4
:101A10002946C4F81035FFF71FFF58B90823C4F84A
:101A200000351D440123C4F81001C4F83455C4F82E
:101A30003835236070BD00BF00258450F0B5DAB1A1
:101A400000231C460E4E0F4FB34206D3002C14BF8A
:101A50006FF008006FF0010009E057F82350D5F847
:101A60000CC0604506D14C1E11B908461560F0BD8A
:101A7000214601240133E7E76FF00D00F7E700BFCF
:101A800000000000444A0000524A136843F0020379
:101A900013600022D30003F57F03D3F80013013154
:101AA00008D0D3F800130132D3F80433B2F5807FA5
:101AB0000B60EFD1484AD36913F001033BD0474B89
:101AC0001946D3F80024012AFBD1C3F80425D1F824
:101AD0000034012BFBD1404BDA69D20708D5DA6913
:101AE0003E4922F00102DA61D1F80024012AFBD13B
:101AF0001A6A01320AD11A6A22F0FF0242F0200269
:101B00001A62364AD2F80034012BFBD10022334B43
:101B1000C3F80425D3F80024012AFBD1BFF34F8F6B
:101B20002F49304BCA6802F4E0621343CB60BFF325
:101B30004F8F00BFFDE7126A0132C0D02A4A1168F8
:101B400009290AD129490968013901299EBF4FF0A5
:101B50005021C1F81431C1F818311368092B09D18B
:101B6000224B1B68012B01BF214A1360A2F63822C9
:101B7000C2F878351C4B1A68092A0BD11B4A126827
:101B8000022A07D100211A4A11600121A2F6382247
:101B9000C2F878151B68092B06D1144B1B68022B61
:101BA00002BF0C22134B1A600D4BD3F88C2042F469
:101BB0004062C3F88C20D3F8882042F47002C3F846
:101BC0008820BFF34F8FBFF36F8F0B4B0B4A1A6008
:101BD000704700BFD0ED00E00080FF000090035090
:101BE00000ED00E00400FA053001FF003401FF00C1
:101BF000384A0050E4AE0350081400200090D0038F
:101C000070B50026084B53F82040013053F820509F
:101C1000A54200D870BD236820465B68984700B194
:101C200066600C34F4E700BFAC450000104B70B5A3
:101C300005461E460F4C9C4204D10E4CB44209D1BD
:101C4000002412E062681AB122681268AA420CD01D
:101C50000C34F0E763680BB90C34EFE723682846CF
:101C6000196802F012F80028F6D1204670BD00BFB6
:101C7000CC1400205414002008B50B4D4FF0200266
:101C8000EFF3118382F31188BFF36F8F02F0E1F954
:101C9000012104460228D8BF084602F0EAF92C6266
:101CA000FFF724FAEAE700BF300600200248034AA3
:101CB0000021121A02F03AB800000020900600201D
:101CC00008B50648064A0749121A02F002F8BDE8AC
:101CD0000840054A0549064801F0FBBFD41300201F
:101CE00030150020444A000000000000444A000073
:101CF0000000002008B50220FFF782FF074801F02E
:101D000043FE0320FFF77CFF00F036FC01F050FC9F
:101D1000034A137B23F00103137308BDF24900004B
:101D2000C405002080B5374BA2B083F30888002596
:101D3000E023354C012784F82230E5772576657657
:101D4000A576E576636A314E43F4E0236362636A05
:101D500043F400236362A563FFF7AEFBFFF7C0F90E
:101D60004FF0FF33A362E36207AB6C2229461846AB
:101D700001F0DCFF264C8DF82970A0602846FFF7A3
:101D80003FFF3846FFF73CFF00F0A6FB214B6662A1
:101D90004FF48062CDE90473CDE902551E4BCDE9C5
:101DA00000551E49304600F0CDFB737B23F0040242
:101DB00013F01B0F727304D1B36913B9304600F0EE
:101DC0001BFA174B012205930F23CDE903320023A1
:101DD000144DCDE9013300934FF4A072124B134917
:101DE000284600F0AFFB6B7BE56023F004036B73C8
:101DF0000F4B4FF48062C4E906330849064B034891
:101E0000FFF71CFAD013002000ED00E0C40500200D
:101E100030060020394A0000F51C00009006002022
:101E20003E4A000058050020791C0000900A00205E
:101E30004806002070B500240A4B0B48834201D3AA
:101E4000002070BD00211A699D685C61A94201D122
:101E50001C33F3E75E6901311660DE685A61324473
:101E6000F4E700BFCC140020CC14002010B51346BA
:101E70000C464FF02002EFF3118182F31188BFF37B
:101E80006F8F426962B1226043691B684361836955
:101E900001338361002081F31188BFF36F8F0DE060
:101EA0001BB923606FF00B00F5E70246044800F011
:101EB000BDFA18B9034B9B685B69236010BD00BF76
:101EC0008D0600203006002070B504460D464FF008
:101ED0002003EFF3118683F31188BFF36F8F02F0B5
:101EE00045F880B100212A6881664261427BD206B2
:101EF00003D183690BB900F07FF93146BDE870402A
:101F0000074801F0D3BF2B6862691A602B686361D0
:101F1000A369013BA36186F31188BFF36F8F70BD86
:101F20008D060020F8B504460F464FF02003EFF36E
:101F3000118583F31188BFF36F8FC26830495AB19E
:101F400080688E68B04215D0B7B985F31188BFF3A9
:101F50006F8F6FF00F000CE08B6893F90E302361E8
:101F60008B680132E260A36085F31188BFF36F8F45
:101F70000020F8BD2369F2E790F90E3096F90E10B3
:101F80009942A8BF194621EAE17199422BDA00F083
:101F900061FA06463B46224629461A4800F046FAB0
:101FA0000028E6D04FF02003EFF3118583F311886A
:101FB000BFF36F8F236821699C4207D033B193F937
:101FC0000E309942A8BF194621EAE171A06890F944
:101FD0000E30994209D16EB129460A4801F066FFD8
:101FE0006FF00A00C5E70026D4E700F033FA0028B6
:101FF000F2D1F0E785F31188BFF36F8FF0E700BFF0
:10200000300600208D0600201E4B70B59A680446ED
:10201000D37B013BD373C368012B05D0013BC36065
:10202000BDE8704000F0CCB84FF02003EFF311860C
:1020300083F31188BFF36F8F0169806890F90E30C8
:10204000994201D000F006FA204601F08FFF0546C4
:10205000A06080B1437BDB0603D183690BB900F03C
:10206000CBF886F31188BFF36F8F0023AB6695F929
:102070000E302361D4E7E06086F31188BFF36F8FE1
:10208000CEE700BF30060020EFF305800D2809D809
:1020900028B1054B586880F40060C0F3C02080F080
:1020A000010070470120FAE700ED00E010B5084C90
:1020B00023685BB1FEF79CFC2368064A1844106154
:1020C0000021BDE81040184601F0D3BF10BD00BF8D
:1020D0006806002030060020F8B50D464FF02003BA
:1020E000EFF3118483F31188BFF36F8F4FF4004136
:1020F00040F2E73600270022C1FB0067094B30465B
:102100001A6139464FF47A720023FEF789F8064BBC
:102110001860064B1D60FFF7C9FF84F31188BFF3F9
:102120006F8FF8BD3006002068060020640600208E
:102130004FF02003EFF3118183F31188BFF36F8F0A
:10214000044B9A68D37B013BD37381F31188BFF3AF
:102150006F8F704730060020094B03F1280282423E
:1021600005D19B688B4202D14B7BDB0607D1D1E9BD
:1021700000231A600A6853600023C1E900337047E6
:102180003006002038B50D4C024604F1280001F05D
:10219000B6FE054600B9E568A3684AB95A7BD2067F
:1021A00006D1AA6922B9DA897F2A01D9636238BDCA
:1021B0009D4201D0FFF77AFF6562F8E73006002004
:1021C00010B54FF02003EFF3118483F31188BFF3B0
:1021D0006F8F084B00209A68D37B0133D373FFF7CE
:1021E000D1FF84F31188BFF36F8FBDE8104001F079
:1021F0007CBE00BF30060020F8B54FF02003EFF39F
:10220000118483F31188BFF36F8F164A114651F87A
:10221000283F8B420CD05BB1D66A90F90E5093F9EF
:102220000E70AF420BDCB34202D01B68002BF6D11C
:10223000D36A01604360D36A1860D06205E05A68CF
:10224000C0E900325A6810605860437B43F0400395
:1022500043730020FFF796FF84F31188BFF36F8F5D
:10226000F8BD00BF30060020F8B504464FF020034B
:10227000EFF3118583F31188BFF36F8F437B5A0609
:1022800003D501461848FFF767FF184A02F12801F5
:10229000D2E90A308B420BD053B194F90E6093F916
:1022A0000E70B7420ADC834202D01B68002BF6D1C5
:1022B000C4E90010D36A1C60D46205E05968C4E91F
:1022C000003159680C605C60637B906843F04003A8
:1022D0006373031B58425841FFF754FF85F311887D
:1022E000BFF36F8FF8BD00BF5806002030060020F6
:1022F000154A164938B50C689368A342144603D1B1
:10230000BDE83840FFF7D2BE00250D6010490968CE
:10231000B9B1D9897F2914D80E4993F90E500968AB
:102320008D420EDB0C498B420BD0996949B911697A
:10233000814203DC1846FFF797FFE1E7091A1161B4
:1023400038BD00232361FBE7300600206006002033
:1023500068060020640600205805002038B50446B1
:102360004FF02003EFF3118583F31188BFF36F8FD4
:10237000437B5A0607D501460948FFF7EDFE637B0C
:1023800023F040036373074B9868031B584258417E
:10239000FFF7F8FE85F31188BFF36F8F38BD00BFDC
:1023A000580600203006002070B504460D4616463B
:1023B000FFF7D4FF637B43F002036373EDB12B6837
:1023C000A5609D420CD05BB194F90E2093F90E10DC
:1023D00091420CDC69688B4202D01B68002BF5D15E
:1023E0006B68256063606B681C606C6005E05A6810
:1023F000C4E900325A6814605C60731C13D04FF457
:10240000004540F2E73000214FF47A72C5FB060127
:102410000023FDF705FF0449421C04F11800BDE844
:10242000704000F03FB970BD0B3F000010B50C4686
:102430001146064A9068064A10601A46FFF7B4FF34
:102440002046BDE81040FEF78DBE00BF30060020DC
:10245000600600202DE9F84304464FF02003EFF317
:10246000118983F31188BFF36F8F01F0FDFC4EB229
:10247000804668B3174D214605F128073846FFF717
:102480006BFEAB6AA673BB422A460AD04BB1E96A1F
:1024900093F90E00B0420BDC994202D01B68002B6E
:1024A000F6D1D36A27606360D36A1C60D46205E00A
:1024B0005A68C4E900325A6814605C600120FFF772
:1024C00061FE89F31188BFF36F8F4046BDE8F88342
:1024D000A673F6E7300600200021044B084603F1FE
:1024E0002802C3E90A22FFF7F7BD00BF300600202B
:1024F000014B9868704700BF3006002010B50246B7
:102500004FF02003EFF3118483F31188BFF36F8F33
:10251000437B590704D484F31188BFF36F8F10BD38
:1025200023F00403437301F04EFD10B11046FFF792
:1025300063FE2146BDE81040014801F0B7BC00BF72
:102540008D06002030B587B00E9D044604950D9D84
:1025500003950C9D02950B9D01950A9D0095FEF734
:1025600043FE044B9B6813B9236607B030BD1B6E56
:10257000FAE700BF300600202DE9F04F284E294D24
:10258000B04687B0B54205F1300410D3FFF7D0FD57
:102590004FF4004940F2E7360027224CDFF888A0CC
:1025A000444521D307B0BDE8F04FFFF709BE54F80A
:1025B000043C059354F8103C049354F8143C0393E2
:1025C00054F8183C029354F81C3C019354F8203CF6
:1025D000009354E90A2354E90C01FFF7B3FF54F8C0
:1025E000303CDD642546CDE7616A4B1C04D025688C
:1025F00021B92846FFF782FF3034D1E7B346BC4605
:10260000C9FB01BC4FF47A72002358466146FDF7BE
:1026100007FE5146421C05F1180000F043F8EBE7B5
:10262000CC140020CC1400200B3F0000034B1B688F
:102630000BB9FEF7DDB90020704700BF6C06002023
:10264000036840B1084A5268904204D01BB19A68AE
:1026500081680A449A604268136003685A600023E4
:10266000C0E90033704700BF0C1400200B4B10B5BD
:102670001C689C4208BF0024FFF7D8FF54B1A36830
:10268000181A20EAE070064B1B6913B19842A8BFE4
:10269000184610BD6FF00040F5E700BF0C14002095
:1026A0003006002070B504461646C1604FF0200386
:1026B000EFF3118583F31188BFF36F8FFFF7B6FF38
:1026C000012EACBF80190130174BA0601A689A42E6
:1026D00001D05E6832B95A68236062605A6814603B
:1026E0005C600BE09068A168884216DD411A916039
:1026F0005168C4E9002151680C6054601A689A421C
:1027000006D0944204D1FFF7B1FF0021FEF722F971
:1027100085F31188BFF36F8F70BD091A9642A160CF
:10272000D9D01268D6E700BF0C1400202DE9F04B79
:102730000446FFF7DDFD4FF02003EFF3118583F32F
:102740001188BFF36F8F214F214EB846DFF8849078
:102750003460D9F8004032684C45D7E900BC05D058
:1027600024B1A368934214DD9B1AA36000241BEBE1
:1027700002004CEBE271C8E900013460FFF776FF1C
:102780002146FEF7E7F885F31188BFF36F8FBDE8A8
:10279000F08B1BEB03004CEBE371D31A3360002387
:1027A000C7E90001A3602046FFF74AFF85F31188BF
:1027B000BFF36F8FE36898474FF02003EFF3118565
:1027C00083F31188BFF36F8FC3E700BF00000020C1
:1027D0006C0600200C14002038B5074C074DAC42A5
:1027E00001D3002038BD04F114032046C4E90533A9
:1027F00000F0EEFE1C34F2E7CC140020CC140020D4
:1028000001F050BA0A46002101F090BA10B5114803
:1028100000F048F800B110BD0F4800F043F8002860
:10282000F9D10E4C204600F03DF80028F3D10C4BB6
:102830000C481C6000F036F801460028EBD100F08F
:102840002DF8044608B1204610BD00F051F820468E
:10285000FAE700BF20140020141400201C140020EC
:10286000241400201814002008B5084800F024F8AB
:10287000074800F021F8074800F01EF8064800F06D
:102880001BF8BDE8084000F00BB800BF2014002082
:10289000141400201C14002018140020002070477D
:1028A000704700BF08B5034B02681B681068984763
:1028B000002008BD3014002008B5034B02685B6897
:1028C00010689847002008BD301400200268024BB1
:1028D00010689B68184700BF3014002008B5034BF0
:1028E0000268DB6810689847002008BD301400209B
:1028F00070B5094C094D2069AB68984718B1084B71
:1029000008485B6898470021074AEB681160206916
:10291000BDE87040184700BF40140020301400206C
:1029200028140020C44500007006002070B5144C27
:10293000144D0646AB6820699847F0B9124A1368EF
:102940005EB91BB901201149C1F8000501331360BC
:10295000EB6820699847002070BD002BF8D0012B50
:1029600008BF0A4903F1FF3308BFC1F80005206919
:102970001360EB6898470020EEE7054870BD00BF84
:102980004014002030140020700600200000845005
:10299000E98FFFFF0020704700207047430503D5F3
:1029A0004FF0FF32024B1A60024B1860704700BFB5
:1029B00008118450081A8450014B1860704700BFFA
:1029C000041A845008B100F003B84FF47500704742
:1029D0000246074803681342FCD021B1054B064864
:1029E0001B680B600360054B00201A60704700BF36
:1029F000001A84500411845008118450081A84501D
:102A000000F0A0B830B129B10023014403700130B7
:102A10008142FBD1704700BF2DE9F041ADF51A7D31
:102A20000F4605920021144612A84FF408721E4664
:102A300001F07CF9002308A819462822069301F02A
:102A400075F9002F3CD0002E3AD0002C38D004214C
:102A500006A8FFF7D7FE08A82821FFF7D3FE08A88D
:102A600000F032F878B14FF0FF3512A84FF408713A
:102A7000FFF7C8FF06A80421FFF7C4FF28460DF59D
:102A80001A7DBDE8F08112AB0DF11C080390CDE971
:102A90000163024605AB08A9CDF8008006A800F046
:102AA000E9FC0028DFD13368A342DCD3D8F800105A
:102AB0000546083138462246FFF7A2FE3460D4E7C7
:102AC0004FF0FF35DAE700BF1C2330B583B002A911
:102AD00041F8043D044600F0B1F90546D8B9019B20
:102AE0001C2B1BD1D4E9003201210033E16118BF56
:102AF00001230AB143F00203A26832B9E268AAB91D
:102B0000C4E908323BB90D4D09E0E26843F0040323
:102B100062B9C4E90832284603B030BD084D2046EA
:102B20001C21FFF76FFE284603B030BD0022284667
:102B300043F00803C4E9083203B030BD0E0CF000C6
:102B4000370CF00010B50C4C236813B10B4B1B680D
:102B50006BB900F031F938B10138062896BF084B3F
:102B6000084853F8200010BD0122044B1A600123CD
:102B70000020236010BD00BF7406002078060020EE
:102B8000E4450000FE8FFFFF10B5094C23681BB120
:102B900001230020236010BD00F07CF80028F7D04E
:102BA0000138062896BF034B034853F8200010BD98
:102BB00074060020E4450000FE8FFFFFBFF34F8F37
:102BC0000549064BCA6802F4E0621343CB60BFF3C9
:102BD0004F8F00BFFDE700BF00ED00E00400FA05E5
:102BE000014B5B68184700BF28140020024BD0E956
:102BF0000012C3E90012704728140020704700BF7C
:102C000010B5044620B1BFF35F8F0020206010BDD7
:102C10000348FFF7E5FFBFF35F8F0020206010BD82
:102C20002446000010B5044610B10023236010BDF7
:102C30000248FFF7D5FF0023236010BD00460000C7
:102C400050B10122D0E8EF3FC0E8E12F0029F9D1CF
:102C5000012BF7D0BFF35F8F0020704770B40B4B90
:102C60000668C268D0E90154C3E90242C3E90065BD
:102C7000D1E903020E68064BD1E90154C3E90065AE
:102C8000C3E902401A6170BC704700BF30140020D5
:102C90004014002010B5FFF77DFE70B9FFF7B6FDB8
:102CA00080B9FFF743FE80B9114B1B681B0EF02B58
:102CB0000DD00624FFF770FE00E00324FFF7D4FDDB
:102CC000204610BD0424204610BD0024F2E7094A26
:102CD000094B12689A4201D00724EBE70120FFF765
:102CE00025FE0028F1D1054B04461860E8E700BF37
:102CF00028198450241A84500000E0200C1A8450B3
:102D000030B5ADF5157D4FF4087200210CA801F027
:102D10000DF8002302A819462822019301F006F8B5
:102D200002A8FFF7D1FE18B105200DF5157D30BDC5
:102D30001C4D4FF0FF312868FFF7C8FD0446F0B97D
:102D40000020FFF7F3FDB0B90CAA02A901A800F01A
:102D5000D5FB04460120FFF7E9FDF0B92868FFF72D
:102D6000BDFD10B11048FFF73BFF2046002CDBD122
:102D70000DF5157D30BD0D48FFF732FFE4E70C4837
:102D8000FFF72EFF012CDBD12868FFF7A7FD0028F5
:102D9000CAD00548FFF724FFC6E70648FFF720FF23
:102DA000DCE700BF241400205C46000074460000ED
:102DB000444600009446000008B5FFF7EBFD18B14B
:102DC000FFF752FD032008BDFFF720FD68B9FFF7AC
:102DD000ADFD60B9154B1B681B0EF02B12D0FFF731
:102DE000DBFDFFF741FD062008BD042008BDFFF70D
:102DF000D3FDFFF739FDFFF783FF00280CBF00204C
:102E0000052008BD0A4A0B4B12689A4205D0FFF70D
:102E1000C3FDFFF729FD072008BD0120FFF786FD50
:102E20000028E4D1044B1860E5E700BF281984505E
:102E3000241A84500000E0200C1A845018B111B1FB
:102E40000B681C2B01D0012070474FF47F033A4AD6
:102E5000D3F8101C91425AD0D3F8102C013256D01E
:102E6000D3F8102C4FF47F030260D3F8141C334ABC
:102E700091425ED0D3F8142C01325AD0D3F8142CDE
:102E80004FF47F034260D3F8182C12F5947F4DD095
:102E9000D3F8182C013249D0D3F8182C4FF47F0303
:102EA0008260D3F81C1C264A91423CD0D3F81C2CDB
:102EB000013238D0D3F81C2C4FF47F03C260D3F812
:102EC000002C70322DD0D3F8002C013229D0D3F849
:102ED000002C4FF47F030261D3F8042CAF321ED0D4
:102EE000D3F8042C01321AD0D3F8042C4FF47F030A
:102EF0004261D3F8081C134A91420BD0D3F8082C36
:102F0000013207D0D3F8083C83610020704740F6B7
:102F1000FC02A7E740F2373383610020704751225B
:102F2000E4E79022D5E742F60412C5E740F6D862FE
:102F3000B4E742F2D002A3E7FCF8FFFFD020FFFF86
:102F40000429FFFF37F3FFFFA8B32DE9F0414C1E22
:102F5000B4F5047F2CD25BB352B34FF0000CC90020
:102F6000E646654664464F1E03F1FF380CE0AB426F
:102F700016D08E4501D10CF1010CA84516D00134B4
:102F8000BC4205F1010518D8610950F8211004F080
:102F90001F06F1401F2E18BF01F00101002CE6D1E1
:102FA0000025A8458E464FF0010CE8D16245E6D2D7
:102FB0000348BDE8F081024870470020BDE8F08179
:102FC000370CF1002DE9F04F8FB00D46DDE91941C6
:102FD0008346002957D12969039100211C60189B61
:102FE0001960002A00F02281814A824B11686A6AC6
:102FF0001B689A4257D10A2955D19BF80330069392
:103000000399042308467C4A0293A2FB000292081B
:10301000CB0002EB420204F10800A1EB4202013BAB
:10302000DFF8D091DFF800A2049000920593189B7E
:10303000039C1C60002C00F0CC800026049F00F054
:10304000A9FA00230793069BBBF1000F3AD0002D8D
:1030500034D053BB5B000693BBF1000F36D0002D7C
:1030600034D0E3B106A9284600F084FA002800F025
:103070007D81624B984212D0009000F08BFA00984C
:103080000FB0BDE8F08F4FF47F01D1F80C0C013088
:103090000CBF4FF40471D1F80C1C03919DE72B6A0F
:1030A00073B95648E8E75648E6E706A9284600F00F
:1030B00061FA68B1534B9842DED0069B082BC9D108
:1030C0005148D9E7082BFBD05B0006934F48D3E764
:1030D0002946069800F030FA0028EBD1069B082B11
:1030E00000F00E81042B00F03181A3F10203B3FA4A
:1030F00083F35B09019301231946454A136042F8A3
:10310000843C434B19606B6AC9F80030D9F8002041
:103110006B6A9A42F5D14FF000084FF0FF30CAF8C1
:103120000080FFF73BFC3B4A3B4B40461A60FFF7F1
:1031300043FC0A22019839492D4B08601A602A691C
:10314000A8F15538A8FB02126B6A120903EB43037E
:10315000DB0303FB02F3324A9B0913600123CAF825
:1031600000300699DBF800200B0243EA016322F0ED
:103170007F421343CBF8003007A800F0CDF90028B8
:1031800098D1284BA8FB04281A681433089253F8E6
:10319000102CB6EB980F099253F80C2C0A9253F8A6
:1031A000082C0B9253F8042C0C921B680D9301D140
:1031B000009B9BB93846182208A9FFF721FB183C51
:1031C00018370136002C7FF43AAF049B002B40F0F7
:1031D0009A800023189A1360069B6FE71A463846B8
:1031E00008A9E41AFFF70CFB009B1F44E9E700BFA6
:1031F0003811845030118450ABAAAAAA310CF100C6
:10320000300CF100020CF100320CF100350CF10031
:10321000C4118450FEFFFF0F001184500C11845024
:10322000D8118450141184502C118450BBF1000F1C
:103230003FF44CAF002D3FF449AF01230EA941F8F4
:10324000203DCBF80020284600F094F900287FF4B8
:1032500013AF2946069800F06FF900287FF40CAFF1
:10326000069F082F00F0EB80042F00F0EA80A7F102
:103270000207B7FA87F77F0901221646734B744994
:103280001A6018460A60943B06606A6A1A601968F8
:103290006A6A9142F8D14FF000086E4B4FF0FF3050
:1032A000C3F80080FFF77AFB6B4B6C4A40461A600C
:1032B000FFF782FB0A226A496A4B0F601A601A996B
:1032C0002B6901296A6A00F0B1806749A1FB0313E9
:1032D0001B09012102EB4202D20303FB02F3634A02
:1032E0009B0913605B4B19600699DBF800200B0209
:1032F00043EA016322F07F421343CBF800307FE6BC
:1033000003230193F7E6039BB3F5047F3FF661AF18
:10331000DDE9047C204623466E6904E00120013388
:103320006345144615D85A0957F8222003F01F01A7
:10333000CA401F2918BF02F00102002BEED0A242A2
:10334000ECD101308642EAD149480BE002230193D7
:10335000D1E64FF48063DDE90310AA69FFF7F4FDBD
:1033600000285DD00023189A1360A3E6294606982A
:1033700000F0E2F800287FF47CAE069C082C51D0C7
:10338000042C51D0A4F10204B4FA84F4640901239A
:103390001E4619462D4A136042F8843C2B4B196097
:1033A0006B6AC9F80030D9F800206B6A9A42F5D1EF
:1033B00000274FF0FF30CAF80070FFF7EFFA264BF6
:1033C000264A38461A60FFF7F7FA0A222449254BA5
:1033D0000C601A602A6924496B6AA1FB021203EB94
:1033E00043031209DB0303FB02F3204A9B0913602A
:1033F000CAF80060069BDBF800101A0242EA036379
:1034000021F07F421A43130A03F47F03134323F08E
:103410007F43CBF80030029B013B02937FF407AE61
:10342000002029E60324B2E70224B0E74FF47F032B
:10343000D3F80C1C013106D0D3F80C3C45E7032728
:103440001AE7022718E7162343E700BFC411845088
:10345000401184502C11845000118450FEFFFF0F46
:103460000C11845038118450ABAAAAAAD8118450E8
:10347000360CF1002DE9F0431B4C85B00746DDE921
:103480000D56884620684FF0FF319146FFF71EFA2F
:1034900028BB0020FFF74AFAE8B90023CDE900561F
:1034A00002934A46414638460C9BFFF78BFD054682
:1034B0000120FFF73BFA50B92068FFF70FFA10B16F
:1034C0000A48FFF78DFB284605B0BDE8F0830848A1
:1034D000FFF786FBF0E70748FFF782FBDDE70648CA
:1034E000FFF77EFBD5E700BF241400205C460000F8
:1034F00094460000744600004446000010B50124C4
:1035000086B005ABCDE901240093002204ABFFF7A0
:1035100059FD06B010BD00BF08B501464FF48060EC
:10352000FFF750FA00230249024A0B60136008BDFE
:10353000C81184502C1184500138072815D8DFE8B1
:1035400000F0100C140814141404CB6800204B6213
:1035500070478B6800204B6270474B6800204B62BD
:1035600070470B6800204B6270470148704700BFEE
:10357000310CF1000B6802E0082B0B6006D8026AE0
:1035800013424FEA4303F7D00020704700487047CA
:10359000310CF10000230449044A0B604FF48060B1
:1035A0001360FFF7FBB900BF2C118450C411845085
:1035B00008B5FDF7D1FABDE80840FDF761BA40E86B
:1035C00000F313F4803FD8B208BF6FF015007047C6
:1035D000FF232DE9F74F4568002229464FF00C0ADA
:1035E0004FF0200B0789046805FB07FCC372837A40
:1035F00064440193019B934208DC002319468F42E7
:1036000005EB030C21DC03B0BDE8F08FBCFBF1F34C
:10361000202B84BF1F3393FBFBF30AFB02FED0F881
:103620000C804FEA910108EB0E0606F10409C6E989
:10363000019921F0030194BFC27248F80E4002F1D3
:10364000010288BF04EB8304D4E7C268066802F174
:10365000040EF41846F803E0936801316360936840
:103660001C6094606346CAE7044608B508461146E4
:103670001A46A047FEF73CFFFDF732FF00207047D7
:1036800070B50D4604464520A04729465220A04764
:1036900029462346BDE87040522018472DE9F04FD7
:1036A000002705460E4692461C464FF0FF39B846A5
:1036B000BB4689B09AF8000010B909B0BDE8F08F98
:1036C000BBF1000F07D1252800F04E813146A847F5
:1036D0000AF1010AEEE7642868D01AD839280BD815
:1036E00031285AD22D2800F04681302846D025288E
:1036F00008D13146A8477AE0582800F0B480632802
:1037000000F02C8131462520A84731469AF8000068
:10371000F0E7702800F09D800DD8692846D06C280D
:1037200003D16C2F26D14C27D2E76828EAD1682F25
:1037300020D14827CCE7752870D017D87328E1D15D
:10374000226804F1040B11460C4614F8010B002802
:1037500040F0F980B8F1030F40F013818C1AA9EB07
:103760000404002C00F3F5805C4640E078287AD011
:103770007A28C7D1002FC5D10746A9E7B9F1000FB4
:103780000EDAB8F1000F00F0F980A0F13009B8F1BD
:10379000000F08BF4FF002089AE7B9F1000FF4DB01
:1037A0000A2202FB0909A9F13009F0E77A2F03D1B7
:1037B000D4F800B004341EE06C2FF9D04C2FF7D1B0
:1037C0004FF0000C4FF0FF3B073424F0070303F1E8
:1037D0000804D3E9002312F1004043F100018C45B5
:1037E00008BF834506D231462846FFF749FF4FF010
:1037F000000B6DE79346BBF1000F06DA31462D2032
:10380000A847CBF1000B09F1FF3943465A46CDF8E2
:10381000009031462846FCF771FFE8E77A2F02D185
:103820002268043411E06C2FFAD04C2FF8D100211B
:103830004FF0FF30073424F0070303F10804D3E905
:103840000023994208BF9042CDD3CDF80090434663
:10385000DFE731463020A84731467820A8474FF0AF
:1038600008094FF001089AF80020702A05D1236852
:1038700004340493002302930CE06C2FF7D04C2FF8
:10388000F5D1073424F00702136802F10804049309
:103890005368029300221023039205924022043AB7
:1038A00002990498C2F1200CA2F1200ED04001FA36
:1038B0000CFC40EA0C0021FA0EFE40EA0E0010F06B
:1038C0000F0008D1059901B942BB4FF0300C08E058
:1038D000CDF814B0E3E709288CBF4FF0570C4FF038
:1038E000300C31466044CDE90523A847039B0133E2
:1038F0000393DDE90523002AEAD1B8F1030F7FF431
:1039000076AF039BC3EB490BBBF1000F7FF76FAFA3
:1039100031462020A8470BF1FF3BF5E7591E99459A
:10392000069107DBB8F1010F06D13146302007922E
:10393000A847079A069BB2E7B8F1020FFAD107929F
:1039400031462020F4E731460292A8472146029AE8
:10395000FAE631462020A847013C02E731462068BC
:1039600004F1040BA847FFE65F46D8464FF0FF3945
:103970004FF0010BACE64FF00308A9E64FF0010849
:10398000A6E65C468346A3E60FB407B504A951F842
:10399000040B0191FCF704FF03B05DF804EB04B0E5
:1039A00070477047FEF770B883685A7A32B993F956
:1039B00008000028CCBF002001207047022070477B
:1039C000026870B5956884684FF02003EFF31186A4
:1039D00083F31188BFF36F8F237A013B5BB2002B17
:1039E000237218D1C4E900336B6883B90122EB7AE2
:1039F00003F150231A6000222B8903F150231A602F
:103A00000020607286F31188BFF36F8F70BD9847F6
:103A10000028EBD1F4E74FF00000BCBF20726FF03C
:103A20004400EFE7F8B50368064614469F688568CA
:103A30004FF02003EFF3118283F31188BFF36F8FF0
:103A40002B7A01335BB22B7282F31188BFF36F8F35
:103A50006A7A32B10CB90020F8BDD4E90131984737
:103A6000F9E7012B06D13B6833B90122BB7A03F198
:103A700050231A604CB9EEE798470028F5D1002C86
:103A8000E9D0D4E90131304698472B689C420DD0EB
:103A900013B11B68002BF9D1002020606B6813B9AB
:103AA000C5E90044D7E71C606C60D5E76FF04400BF
:103AB000D2E70022FFF7B6BF83680020C3E9000009
:103AC000704710B50022044601210520FDF774FB64
:103AD0000520FDF761FB4FF050230222C3F81825A3
:103AE00003220020C3F80423A368C3E9000010BD2B
:103AF00038B58468054623682BB161681A688B4223
:103B0000226008BF62600122627203B938BDD3E946
:103B10000121284690472368002BF7D061681A6876
:103B20008B42226008BF6260EFE770477047002356
:103B300007B502A800F8043DFEF762FF03B05DF888
:103B400004FB902908B5134639D10A4601460020E6
:103B5000FEF762FFBDE80840714672467346B7EE55
:103B6000000AF7EE000AB7EE001AF7EE001AB7EEF9
:103B7000002AF7EE002AB7EE003AF7EE003AB7EE69
:103B8000004AF7EE004AB7EE005AF7EE005AB7EED9
:103B9000006AF7EE006AB7EE007AF7EE007A8EF36D
:103BA000008C10B4F1EE10CA4FF66074C0F6FF74CA
:103BB0000CEA040CE1EE10CA10BCF44674476FF036
:103BC0001500C7E7FEE7FDF797BA43B2A9B1002B8E
:103BD00012DB01215B099B0003F1604303F56143A4
:103BE000D3F8802200F01F0001FA00F022EA000062
:103BF000C3F88002D3F880327047002BFCDB01222F
:103C00005B099B0003F1604303F56143D3F8801225
:103C100000F01F0002FA00F00843E9E700F0FBB8EB
:103C20000146006800F0F7B808B5FDF777FABDE87F
:103C30000840FDF70DBA07B5002101A8FDF7E6FD24
:103C400003B05DF804FB30B585B09DF808200D8900
:103C50000B684C68498965F3040261F347120093CD
:103C60008DF8082023F01F03621E134423F01F0366
:103C70000F280393044605D86946FDF781FC2046CA
:103C800005B030BD6FF01504F9E70138013910F8BF
:103C9000013F11F8012F934202D1002BF7D11A46B0
:103CA000981A7047431A934210B500EB020308D3E9
:103CB000024601399A420BD011F8014F02F8014B2C
:103CC000F8E70A4412F8014D8A4203F8014DF9D190
:103CD00010BDF0B581EA0004A50703460BD0013BF7
:103CE0000A4491421DD1F0BD002AFCD011F8014BCD
:103CF000013A03F8014B9C07F6D10C461D1F8F18A3
:103D00003E1B032E08D86FF00305940805FB042220
:103D1000A40023442144E2E754F8046B45F8046FFF
:103D2000EEE711F8014B03F8014FDAE70346F0B56F
:103D3000C9B29C070FD11D4641EA012444EA04445C
:103D40009F187E1B032E0CD8940803EB84041344A5
:103D50009C4209D1F0BD002AFCD003F8011B013AB6
:103D6000E7E745F8044BECE704F8011BF0E74FF0F8
:103D7000FF3070470B46826892E8030083E8030037
:103D80000020704703689B681B68D3F8240118B1B2
:103D9000D3F88004C3F880047047036882689B6886
:103DA0001B68D3F8100138B1127A00200A70012282
:103DB000C3F810011A6070474FF0FF30704782B0AF
:103DC00002AA02F8011D002103689B681B68C3F862
:103DD0002011C3F844250122C3F848259A60D3F87E
:103DE00020110029FBD0DA6002B0704708B5FDF75A
:103DF00099F8FDF717F9BDE80840FEF7C5BE4FF08A
:103E00002002EFF3118382F31188BFF36F8FFEE777
:103E100008B5FFF7F4FF70B505460E46FEF768FBE0
:103E2000314604462846FFF7F3FF2046BDE87040C0
:103E3000FDF756BBFFF77ABE30B50024C0E9023269
:103E4000C0E905440161A34202D1C0E9000030BDD0
:103E5000456901340D6041611144F4E70023C0E974
:103E60000000C0E902337047437BDB0603BF806973
:103E7000B0FA80F040090020704738B504464FF092
:103E80002003EFF3118583F31188BFF36F8F014691
:103E90008068FEF761F9637B23F00203637385F3A7
:103EA0001188BFF36F8F0023A36038BD08B539B9FF
:103EB000FEF7EAF820B1BDE808400846FDF752B920
:103EC00081F31188BFF36F8F08BD08B5024638B97A
:103ED000FEF7DAF820B1BDE808401046FDF742B918
:103EE00082F31188BFF36F8F08BD4FF02003EFF30B
:103EF000118083F31188BFF36F8FFFF7E6BF03686C
:103F0000984214BF18460020704750F8103C70B516
:103F10000446A0F11805CBB14FF02003EFF3118652
:103F200083F31188BFF36F8F294650F8100CFEF70A
:103F300013F914F80B3C23F0020304F80B3C86F34E
:103F40001188BFF36F8F002344F8103C14F80B3C2A
:103F5000284623F0140304F80B3CFFF785FF20B13B
:103F60002846BDE87040FEF747B970BD38B54FF040
:103F70002003EFF3118283F31188BFF36F8FFFF7F4
:103F8000BEFF044682F31188BFF36F8FC8B14FF0B4
:103F90002003EFF3118583F31188BFF36F8F014680
:103FA0008068FEF7D9F8637B23F00203637385F31F
:103FB0001188BFF36F8F002304F11800A36000F095
:103FC00032F8204638BD437BDB0603BF8069B0FA78
:103FD00080F0400900207047036D10B5044603B11E
:103FE00098472046FFF7EFFF38B12046FEF7B6F9B5
:103FF000637B43F00803637310BD637B9B0702D5AB
:104000002046FFF73AFFA369002BF1D004F1180016
:1040100000F009F8ECE70373002342738173C37364
:10402000C0E90633704710B54FF02002EFF311845A
:1040300082F31188BFF36F8F03683BB1FEF700FB7B
:10404000002084F31188BFF36F8F10BD6FF015004F
:10405000F7E710B54FF02003EFF3118483F31188D5
:10406000BFF36F8FFEF702FB84F31188BFF36F8FEE
:1040700010BD70B504460E464FF02003EFF31185D6
:1040800083F31188BFF36F8FFEF7F0FA012805DD87
:10409000A04203DD31462046FCF75CFC85F3118825
:1040A000BFF36F8F70BD704718C2FF7F0100000023
:1040B00000000000C73B000000000000C73B0000FC
:1040C00000000000C73B000000000000C73B0000EC
:1040D00000000000C73B0000000000004508000091
:1040E00000000000C73B000000000000C73B0000CC
:1040F00000000000C73B000000000000C73B0000BC
:1041000000000000C73B000000000000C73B0000AB
:1041100000000000C73B000000000000C73B00009B
:1041200000000000C73B000000000000C73B00008B
:1041300000000000C73B000000000000C73B00007B
:1041400000000000C73B000000000000C73B00006B
:1041500000000000C73B0000000000009D080000B8
:1041600000000000C73B000000000000C73B00004B
:1041700000000000C73B000000000000C73B00003B
:1041800000000000C73B000000000000C73B00002B
:1041900000000000C73B000000000000C73B00001B
:1041A00000000000C73B000000000000C73B00000B
:1041B00000000000C73B000000000000C73B0000FB
:1041C00000000000C73B000000000000C73B0000EB
:1041D00000000000C73B000000000000C73B0000DB
:1041E00000000000C73B000000000000C73B0000CB
:1041F00000000000C73B000000000000C73B0000BB
:1042000000000000C73B000000000000C73B0000AA
:1042100000000000C73B000000000000C73B00009A
:1042200000000000C73B000000000000C73B00008A
:1042300000000000C73B000000000000C73B00007A
:1042400000000000C73B000000000000C73B00006A
:1042500000000000C73B000000000000C73B00005A
:1042600000000000C73B000000000000C73B00004A
:1042700000000000C73B000000000000C73B00003A
:1042800000000000C73B000000000000C73B00002A
:1042900000000000C73B000000000000C73B00001A
:1042A00000000000C73B000000000000C73B00000A
:1042B00000000000C73B0000F0460000C1070000FE
:1042C00000000000F0460000290800000000000087
:1042D000CA460000B93A000084430000D4460000FA
:1042E000C33A000078430000DE460000DD0800000D
:1042F00000000000F0460000091700000000000068
:10430000C3460000D1190000A4450000E7490000A1
:10431000ED3D000000000000F0460000351E0000EA
:1043200000000000F0460000D92700000000000057
:10433000DEE61E284CBBCE8F015B000002000000B1
:104340004443000000000000B446000006000000E6
:10435000E0FF0F0000000020BC460000210000002C
:10436000E0FF0020B33A0000C1390000253A000008
:1043700000000000A939000000000000000000005B
:104380000001000400000000000000000401080C0F
:1043900017010000070100000701000007010000ED
:1043A00007010000070100000701000007010000ED
:1043B00007010000070100000701000007010000DD
:1043C00007010000070100000701000007010000CD
:1043D00007010000070100000701000007010000BD
:1043E00007010000070100000701000007010000AD
:1043F000070100000701000007010000070100009D
:10440000070100000701000007010000070100008C
:10441000A148000042010000A8480000050100007A
:10442000B248000015010000BB480000390100003F
:10443000C448000009010000CF4800000A00000045
:10444000DA4800000A010000E44800000B01000007
:10445000EE4800000F010000F948000010010000C4
:1044600004490000110100000F4900000E01000086
:10447000194900002101000022490000220100002A
:104480002B490000230100003449000024010000F2
:104490003D49000018000000454900002A010000C5
:1044A0004D4900003A010000554900002C01000070
:1044B0005D4900001C010000664900001D0100006C
:1044C0006F49000017010000794900003101000028
:1044D00085490000040000001701000017010000DA
:1044E000170100001701000017010000170100006C
:1044F000170100001701000007010000070100007C
:10450000070100000701000007010000070100008B
:10451000070100000701000007010000070100007B
:10452000070100000701000007010000070100006B
:10453000070100000701000007010000070100005B
:10454000070100000701000007010000070100004B
:104550000701000007010000000200000004000045
:104560000008000000000000C53B0000C10F000073
:10457000810F0000510F0000310F0000F0130020E8
:10458000D8130020E813002000000000E0130020F2
:104590009B3D0000BF3D0000853D00005918000014
:1045A000753D000000800050010000005414002000
:1045B000B4140020C0140020CC140020CC1400201F
:1045C000F5FFFFFF436F756C64206E6F74206C6F96
:1045D000636B20706F7765722073617665206D75EF
:1045E00074657800FF8FFFFFFF8FFFFFFE8FFFFFD7
:1045F000FE8FFFFFFD8FFFFFFC8FFFFFFC8FFFFF94
:1046000043616E277420696E697469616C697A65AB
:10461000206D757465782C20776173204E554C4C55
:104620000D0A000043616E277420756E6C6F636B1A
:10463000206D757465782C20776173204E554C4C35
:104640000D0A00004661696C20746F20616371750A
:10465000697265206D757465780A00004661696C41
:1046600020746F2072656C65617365206D7574656B
:10467000780A00004661696C20746F20696E63726D
:104680006561736520504D20636F756E7465720AA5
:10469000000000004661696C20746F2064656372DD
:1046A0006561736520504D20636F756E7465720A85
:1046B00000000000464C4153485F30005352414DCA
:1046C0005F3000554152545F3000434C4F434B5FC5
:1046D00033324B00434C4F434B5F31364D007379BF
:1046E000735F636C6F636B00536563757265090973
:1046F000004E6F6E2D53656375726509004E6F6EC7
:104700002D53656375726500466C61736820726530
:1047100067696F6E0909446F6D61696E09095065BB
:10472000726D697373696F6E730A0025303275207C
:1047300030782530357820307825303578200900DC
:104740002563004E6F6E2D7365637572652063611E
:104750006C6C61626C6520726567696F6E203020D9
:10476000706C6163656420696E20666C617368209B
:10477000726567696F6E202564207769746820739D
:10478000697A652025642E0A00436F756C64206E7B
:104790006F7420696E697469616C697A65207365EC
:1047A0006375726520736572766963657320286529
:1047B0007272202564292E0A005352414D207265E1
:1047C00067696F6E0909446F6D61696E090950650B
:1047D000726D697373696F6E730A002530327520CC
:1047E00030782530357820307825303578090050FC
:1047F00065726970686572616C0909446F6D616901
:104800006E09095374617475730A0025303275207E
:10481000252D32317325730009534B49500A000985
:104820004552524F520A00094F4B0A0053504D3A1D
:10483000204E5320696D61676520617420307825B2
:10484000780A0053504D3A204E53204D535020616A
:104850007420307825780A0053504D3A204E53206A
:10486000726573657420766563746F72206174205D
:10487000307825780A0053504D3A20707265706187
:10488000726520746F206A756D7020746F204E6F92
:104890006E2D53656375726520696D6167652E0ABB
:1048A000004E52465F5030004E52465F434C4F43DD
:1048B0004B004E52465F52544331004E52465F4EBB
:1048C000564D43004E52465F554152544531004EBD
:1048D00052465F554152544532004E52465F54573E
:1048E000494D32004E52465F5350494D33004E52AF
:1048F000465F54494D455230004E52465F54494D33
:10490000455231004E52465F54494D455232004E99
:1049100052465F5341414443004E52465F50574D0B
:1049200030004E52465F50574D31004E52465F5058
:10493000574D32004E52465F50574D33004E52464F
:104940005F574454004E52465F495043004E524612
:104950005F564D43004E52465F465055004E5246FC
:104960005F45475531004E52465F45475532004E30
:1049700052465F4450504943004E52465F475049AB
:104980004F544531004E52465F524547554C4154B5
:104990004F5253006D757465785F696E697420635A
:1049A000616C6C65642077697468204E554C4C20AE
:1049B000706172616D6574657200436F756C64201F
:1049C0006E6F7420616C6C6F63617465206D7574BB
:1049D0006578206265666F726520696E69746961C9
:1049E0006C697A696E670048575F43433331305FC3
:1049F00030002A2A2A2A2A20426F6F74696E6720A3
:104A00005A6570687972204F53206275696C642012
:104A100076322E302E39392D6E6373312D7263311B
:104A20002D31312D67396265393763363333363886
:104A300061202A2A2A2A2A0A006D61696E006964A7
:104A40006C6500007D360000E014002001000000CD
:104A5000F4140020010000000815002001000000EF
:104A60001C150020010000006F3D000000C2010085
:104A700000010300000000000090D0030C1400208F
:104A80000C1400204414002050140020481400206E
:104A9000401400201C14002000000000BD2B00006A
:104AA000252C0000FD2B0000412C0000012C0000F3
:104AB000880600207C0600208406002000000000FC
:104AC00080060020B8420000000000000000000046
:104AD0001843000000000000000000002443000014
:104AE0000000000000000000F44200000000000090
:104AF00000000000DC420000644300000C000020C5
:104B0000D042000064430000180000200043000071
:104B100090450000FC130020C4420000000000008B
:104B200000000000E842000000000000000000005B
:104B30000C4300000000000000000000CC14002026
:104B4000CC14002000000000000000000F00000056
:104B5000E0140020E014002000000000000000002D
:104B60000F000000F4140020F414002000000000E6
:104B7000000000000F0000000815002008150020AC
:104B800000000000000000000F0000001C150020C5
:104B90001C15002000000000000000000F000000B5
:104BA0000000000000000000000000000000000005
:104BB00000000000000000000000000000000000F5
:104BC00000000000000000000000000000000000E5
:104BD00000000000000000000000000000000000D5
:107FE0007FE97FE9F8F7C8BE7FE97FE9F8F71CBFB2
:107FF0007FE97FE9FBF7A5BD00000000000000005D
:10C00000384A0220A1DC0000351A010045DA0000A0
:10C0100045DA000045DA000045DA000045DA0000A4
:10C0200045DA000045DA000045DA00000DDA0000CC
:10C0300045DA000045DA0000B9D90000251A0100F0
:10C0400071DA000071DA000071DA000071DA0000C4
:10C0500071DA000071DA000071DA000071DA0000B4
:10C0600071DA000071DA000071DA000071DA0000A4
:10C0700071DA000071DA000071DA000071DA000094
:10C0800071DA000071DA000071DA000071DA000084
:10C0900071DA000071DA000071DA000071DA000074
:10C0A00071DA000071DA000071DA000071DA000064
:10C0B00071DA000071DA000071DA000071DA000054
:10C0C00071DA000071DA000071DA000071DA000044
:10C0D00071DA000071DA000071DA000071DA000034
:10C0E00071DA000071DA000071DA000071DA000024
:10C0F00071DA000071DA000071DA000071DA000014
:10C1000071DA000071DA000071DA000071DA000003
:10C1100071DA000071DA000071DA000071DA0000F3
:10C1200071DA000071DA000071DA000071DA0000E3
:10C1300071DA000071DA000071DA000071DA0000D3
:10C1400071DA0000000000000000000000000000A4
:10C1500000000000000000000000000000000000DF
:10C1600000000000000000000000000000000000CF
:10C1700000000000000000000000000000000000BF
:10C1800000000000000000000000000000000000AF
:10C19000000000000000000000000000000000009F
:10C1A000000000000000000000000000000000008F
:10C1B000000000000000000000000000000000007F
:10C1C000000000000000000000000000000000006F
:10C1D000000000000000000000000000000000005F
:10C1E000000000000000000000000000000000004F
:10C1F000000000000000000000000000000000003F
:10C20000DEE61E284CBBCE8F015B000038720000BA
:10C210000100000000C000001858022071FA000060
:10C220007BB972B90029BEBF00204FF0004106E083
:10C2300008BF00281CBF6FF000414FF0FF3000F036
:10C24000AFB9ADF1080C6DE904CE002909DB002B74
:10C250001ADB00F035F8DDF804E0DDE9022304B074
:10C260007047404261EB4101002B1BDB00F028F8D6
:10C27000DDF804E0DDE9022304B0404261EB410156
:10C28000524263EB43037047524263EB430300F0B7
:10C2900017F8DDF804E0DDE9022304B0404261EB69
:10C2A00041017047524263EB430300F009F8DDF8A7
:10C2B00004E0DDE9022304B0524263EB430370471C
:10C2C0002DE9F0478C46089D04468A46002B4AD14A
:10C2D0008A42174662D9B2FA82F64EB1C6F1200EF2
:10C2E00001FA06F3B740B44020FA0EFE4EEA030A04
:10C2F0004FEA1748230C1FFA87F9BAFBF8FE08FB30
:10C300001EAA0EFB09F243EA0A439A420BD9FB1814
:10C310000EF1FF312CBF012000209A4202D90028E3
:10C3200000F02A818E469A1AA3B2B2FBF8F008FBFD
:10C33000102200FB09F943EA0244A14507D93C1940
:10C3400000F1FF3302D2A14500F210811846A4EBA0
:10C35000090440EA0E4000211DB1F4400023C5E964
:10C360000043BDE8F0878B4208D9002D00F0F28031
:10C370000021C5E9000C0846BDE8F087B3FA83F157
:10C3800000294ED16345C0F0E880824240F2E5804A
:10C390000846002DE5D0C5E9004AE2E702B9FFDE14
:10C3A000B2FA82F6002E40F099808B1A4FEA124EB4
:10C3B0001FFA82F801214FEA144CB3FBFEF20EFB88
:10C3C000123008FB02F94CEA004CE14508D917EBA2
:10C3D0000C0C02F1FF3302D2E14500F2CA801A468A
:10C3E000ACEB090CA3B2BCFBFEF00EFB10CC08FBBF
:10C3F00000F843EA0C44A0450ED93C1900F1FF3384
:10C400002CBF4FF0010C4FF0000CA04503D9BCF13C
:10C41000000F00F0A8801846A4EB080440EA024090
:10C420009AE7C1F120048B4002FA01FE0CFA01F6F2
:10C43000E24020FA04F72CFA04FC00FA01F8134356
:10C440003E431F0C320C1FFA83F9BCFBF7F007FBCD
:10C4500010CC00FB09FA42EA0C4CE24508D913EB78
:10C460000C0C00F1FF3202D2E24500F28980104646
:10C47000ACEB0A0CB6B2BCFBF7FA07FB1ACC0AFB12
:10C4800009F946EA0C42914506D99A180AF1FF3695
:10C4900001D291457AD8B2464AEA0040A2EB09029D
:10C4A000A0FB0E67BA42B446B94602D307D1B045E5
:10C4B00005D2B6EB0E0C67EB030301389946002D4D
:10C4C0006BD0B8EB0C0362EB090202FA04F4CB4028
:10C4D000CA4000211C43C5E9004242E7B740C6F10B
:10C4E000200201FA06F3B44021FA02FC4FEA174E8B
:10C4F00020FA02F21FFA87F8BCFBFEF11A430EFB8A
:10C5000011CC01FB08F0130C43EA0C4C604507D931
:10C5100017EB0C0C01F1FF3301D2604533D81946FB
:10C52000ACEB000C92B2BCFBFEF00EFB10CC00FB9F
:10C5300008F342EA0C4C634507D917EB0C0C00F1E9
:10C54000FF3201D2634525D81046ACEB030340EA25
:10C55000014130E72946284603E7841A6CEB0303C0
:10C5600001209A4615E702383C4455E702383C441E
:10C57000EDE6023ABC4433E7AEF1020E3B44D2E6AC
:10C5800002389C4474E70239BC44C9E7AAF1020AA4
:10C590001A4481E70238BC44D7E72946E1E600BFE8
:10C5A000704700BF03234FF000012DE9F04363F310
:10C5B00002015C4E5C4B6FF3C501F61AC6F3C90667
:10C5C0008BB066F38F11594804F026FE584803F0EB
:10C5D000E7FB044670B94FF00001012363F3020149
:10C5E00060F3C501534866F38F1104F015FE0BB0DC
:10C5F000BDE8F083436806A9DB6998474FF4C8603B
:10C60000BDF81880BDF81A9003F014FE054650B925
:10C610004FF00001012363F3020160F3C50166F3EB
:10C620008F114548E1E74FF448774FF4C862002185
:10C6300005F08DFABDF818304FF4C862B7FBF3F778
:10C6400000260392ADF81430ADF81030ADF812703A
:10C65000BDF81A309E422EDB0026636820465B68D8
:10C660009847364B374604932823ADF8143016F01C
:10C67000030245D0012A4BD0022A4ED007F01F01F9
:10C680008B0143EAC1230B43013700214FEA132CEE
:10C6900005F801C068180231B1F5C86F4370F7D1D1
:10C6A000022A1FD0032A25D0012A0DD0002200958E
:10C6B00003AB00210EE0B2B2009503AB002120468F
:10C6C00004F0AEFA3E44C3E70022A8F12801009529
:10C6D00003AB89B2204604F0A3FA0136642005F0CA
:10C6E00004FDC4E7A9F11402A8F12801009503ABE9
:10C6F00092B2EEE7A9F11402009503AB92B2D8E72B
:10C700004FF478431046114601440B449BB2BCE7FA
:10C7100000234FF4FC601946F6E700231F2118465A
:10C72000F2E700BF50250100502501001427010049
:10C730002B27010031270100522701002800140097
:10C740000B6801330B60014B1B6818471C58022013
:10C750002DE9F04F85B00E9C9B46012CB8BF0124FB
:10C76000012B0CBF30232023164682468846012524
:10C770000A270022DFF86C900293B6FBF9F30193CD
:10C780000AB9B1451CD8019B414603F13000D0479E
:10C7900001220135019B013F09FB13660A23012F8A
:10C7A000B9FBF3F9E9D1414606F13000D047BBF1BE
:10C7B000030F02D1641B002C0EDC05B0BDE8F08F26
:10C7C000BC42E7DBBBF1020FE4D84146029803927A
:10C7D0000135D047039ADDE741462020D047013C90
:10C7E000E9E700BF00CA9A3B014B1860704700BFE1
:10C7F0001C580220002313B502AC44F8043D024645
:10C800000B460348214604F05EFB02B010BD00BF9A
:10C8100041C700004FF02002EFF3118382F311882B
:10C82000BFF36F8F0121044AC2F8401583F31188CA
:10C83000BFF36F8F002070470090034020B1034B7F
:10C84000800143F001031847704700BFB025010085
:10C85000014803F08DBF00BF4859022030B50022C7
:10C8600087B00D490D4805F0E8FC00240E230C4D5F
:10C87000CDE90243CDE90444CDE90044094B4FF42E
:10C8800040720949284603F0FBFF0849284605F095
:10C8900056FC204607B030BD51C800001C000220E5
:10C8A000640002202DCC00003843022093270100B1
:10C8B00008B500F04BFA094804F08BFC0423282249
:10C8C0000748084905F02CFB074B084A4FF4004085
:10C8D0001A60BDE8084000F06FBC00BF14000220E1
:10C8E0004800022078530220205802201112010033
:10C8F000F8B500250C4BD3E8EF7FC3E8E25F002AD0
:10C90000F9D10A4C0A4E361B3611B54200DBF8BD90
:10C9100063685B792BB12368DB6813B13946204625
:10C92000984701351034F0E70C000220A0250100E3
:10C93000B0250100044BD3E8EF2F0132C3E8E12F0B
:10C940000029F8D1704700BF0C000220044A054BB3
:10C950009B1AB1EBD30F34BF52F83100002070475F
:10C9600050250100A0250100094B4268C31A1B1184
:10C97000013310B5137101224368064C5A712278B5
:10C98000196012B9044803F0F3FE0123237010BDAF
:10C99000A02501002C43022048590220F8B50F4B76
:10C9A000D3E8EF4F621CC3E8E12F0029F8D12CB97E
:10C9B0000B4D0C4E761B3611B44200DBF8BD27013F
:10C9C000EB191B7B43B1EB595B6903B19847042218
:10C9D0000021E819FFF7C8FF0134EDE7100002203D
:10C9E000A0250100B0250100144B37B5984204463C
:10C9F00002D3134B98421BD3002201A9114803F024
:10CA00005DFB0546B8B90122019BD3E8EF1FC3E8DF
:10CA1000E02F0028F9D1019821461F22043005F0AB
:10CA20003BF87E23019C84F8233084F8245004349E
:10CA3000204603B030BD044CFAE700BFAC22010031
:10CA4000E8300100480002209B27010048B1054B57
:10CA5000984205D3A03398422CBF00200120704794
:10CA600000207047785302202DE9F84F504B0446C0
:10CA70001B7803B940B34FF02003EFF3118683F323
:10CA80001188BFF36F8F4B4804F0B3FB054686F364
:10CA90001188BFF36F8F58B1474BD3E8EF2F013A9E
:10CAA000C3E8E12F0029F8D18CB1284604F08EFCB0
:10CAB00024B9424B1B680BB1FFF71AFF3D4804F045
:10CAC00096FB041C18BF01242046BDE8F88F3C4BA0
:10CAD0001B78DBB92B7ADB0718D404F086FC81467F
:10CAE000284604F053FC26462246CC4623464FF007
:10CAF000010E1CF8011B09B198420ED8314B324A85
:10CB0000DFF8DCB09B1AC3F3C90AD6B92F4E304FF9
:10CB10004FF00008BF1B3F1147E0252902D182F0EA
:10CB20000102E6E7002AE4D041F02007613F192F17
:10CB3000DFD8732904BF0EFA03F216430133002233
:10CB4000D7E7B6FA86F7C7F11F073946284604F03B
:10CB500020FC204B0246984202D31F4B984213D32D
:10CB60001046FFF773FF78B91C4B9A420CD0012393
:10CB700063F3020860F3C5086AF38F1843464A4618
:10CB80003946584604F069FB012303FA07F726EA01
:10CB90000706BAE773685B7923B1336829461B68D7
:10CBA0003046984708F101081036B845F2DB7CE7BB
:10CBB0002C43022014000220080002200C00022056
:10CBC0002D4302206825010050250100A025010009
:10CBD000B0250100AC220100E83001009B270100D4
:10CBE000B9270100F8B50E4F3D7875B9FFF7D6FEAD
:10CBF0000C4C0D4E361B3611B54207DB0020FFF7FB
:10CC000033FF0028FAD101233B70F8BD63685B79DC
:10CC10001BB1236820461B69984701351034EBE7A8
:10CC20002D430220A0250100B025010008B5FFF723
:10CC3000B5FE03F097FD0B4B186030B10A4B1B6833
:10CC4000092B02DD094803F093FD084C0020FFF793
:10CC50000BFF0028FAD14FF0FF31204603F0AEFD64
:10CC6000F4E700BFD000022008000220485902204B
:10CC7000244B70B51B68418105469847224CE860FB
:10CC8000D4E8EF3F0133C4E8E23F002AF8D14FF087
:10CC90002003EFF3118683F31188BFF36F8F1B48D6
:10CCA000294604F09AFA86F31188BFF36F8F184B68
:10CCB0001A787AB14FF02003EFF3118483F31188CF
:10CCC000BFF36F8F0020FFF7CFFE84F31188BFF30F
:10CCD0006F8F70BD0F49236809680029F9D0012BB7
:10CCE00006D1BDE870404FF47A710B4803F06ABF7B
:10CCF0000A2BEED1084805F0ACFABDE870400748B1
:10CD000003F036BD20580220080002201400022043
:10CD10002D430220D00002201C000220485902208E
:10CD200007B504380190D0E8EF3F5A1EC0E8E12F64
:10CD30000029F8D1012B03D101A9034803F0ECF934
:10CD400003B05DF804FB00BF480002202023024925
:10CD50001A46024805F0E4B818540220D400022014
:10CD6000002373B50A4E02AC44F8043D0120FFF7DE
:10CD70007BFE0546FFF7DEFD00222146304603F02C
:10CD80009DF908B1002DF1D1019802B070BD00BF2E
:10CD9000D400022007B5002202A941F8042D05485D
:10CDA00003F08CF910B1FFF7DBFF0190019803B09D
:10CDB0005DF804FBD40002207FB5047A457A14F0B4
:10CDC000010401904FEA151510D0019B1A7A9207C1
:10CDD00006D55B6904AC114D44F8043D039BB3B91F
:10CDE00001A90E4803F098F904B070BD002DECD0F5
:10CDF000AC420198E9D2214604F0CBFA0646FFF78F
:10CE000025FE10B13046FFF78BFF0134F0E71E68B6
:10CE10002146284603F080F90396DFE7D40002207C
:10CE20000EB403B503AB53F8042B01460448019339
:10CE300004F049F8002002B05DF804EB03B070473D
:10CE40009F1701002DE9F04F11F0020485B006464E
:10CE500090469DF8387001F0010901F0080507D0EF
:10CE600011F0440F37D11A463249FFF7D9FF044673
:10CE7000B9F1000F0AD0304B304953F82720304B1E
:10CE80003046002A08BF1A46FFF7CAFF3DB12D4BB6
:10CE90002D4953F827203046FFF7C2FF0546B8F169
:10CEA000000F44D0012303FA07F7284B17F0100FA7
:10CEB000274F18BF1F46BDF840109DF83C00FFF7F4
:10CEC00045FD394602463046FFF7AAFF2844204474
:10CED00005B0BDE8F08F1F4A116831B31E4A4FF408
