:10C00000384A0220A1DC0000351A010045DA0000A0
:10C0100045DA000045DA000045DA000045DA0000A4
:10C0200045DA000045DA000045DA00000DDA0000CC
:10C0300045DA000045DA0000B9D90000251A0100F0
:10C0400071DA000071DA000071DA000071DA0000C4
:10C0500071DA000071DA000071DA000071DA0000B4
:10C0600071DA000071DA000071DA000071DA0000A4
:10C0700071DA000071DA000071DA000071DA000094
:10C0800071DA000071DA000071DA000071DA000084
:10C0900071DA000071DA000071DA000071DA000074
:10C0A00071DA000071DA000071DA000071DA000064
:10C0B00071DA000071DA000071DA000071DA000054
:10C0C00071DA000071DA000071DA000071DA000044
:10C0D00071DA000071DA000071DA000071DA000034
:10C0E00071DA000071DA000071DA000071DA000024
:10C0F00071DA000071DA000071DA000071DA000014
:10C1000071DA000071DA000071DA000071DA000003
:10C1100071DA000071DA000071DA000071DA0000F3
:10C1200071DA000071DA000071DA000071DA0000E3
:10C1300071DA000071DA000071DA000071DA0000D3
:10C1400071DA0000000000000000000000000000A4
:10C1500000000000000000000000000000000000DF
:10C1600000000000000000000000000000000000CF
:10C1700000000000000000000000000000000000BF
:10C1800000000000000000000000000000000000AF
:10C19000000000000000000000000000000000009F
:10C1A000000000000000000000000000000000008F
:10C1B000000000000000000000000000000000007F
:10C1C000000000000000000000000000000000006F
:10C1D000000000000000000000000000000000005F
:10C1E000000000000000000000000000000000004F
:10C1F000000000000000000000000000000000003F
:10C20000DEE61E284CBBCE8F015B000038720000BA
:10C210000100000000C000001858022071FA000060
:10C220007BB972B90029BEBF00204FF0004106E083
:10C2300008BF00281CBF6FF000414FF0FF3000F036
:10C24000AFB9ADF1080C6DE904CE002909DB002B74
:10C250001ADB00F035F8DDF804E0DDE9022304B074
:10C260007047404261EB4101002B1BDB00F028F8D6
:10C27000DDF804E0DDE9022304B0404261EB410156
:10C28000524263EB43037047524263EB430300F0B7
:10C2900017F8DDF804E0DDE9022304B0404261EB69
:10C2A00041017047524263EB430300F009F8DDF8A7
:10C2B00004E0DDE9022304B0524263EB430370471C
:10C2C0002DE9F0478C46089D04468A46002B4AD14A
:10C2D0008A42174662D9B2FA82F64EB1C6F1200EF2
:10C2E00001FA06F3B740B44020FA0EFE4EEA030A04
:10C2F0004FEA1748230C1FFA87F9BAFBF8FE08FB30
:10C300001EAA0EFB09F243EA0A439A420BD9FB1814
:10C310000EF1FF312CBF012000209A4202D90028E3
:10C3200000F02A818E469A1AA3B2B2FBF8F008FBFD
:10C33000102200FB09F943EA0244A14507D93C1940
:10C3400000F1FF3302D2A14500F210811846A4EBA0
:10C35000090440EA0E4000211DB1F4400023C5E964
:10C360000043BDE8F0878B4208D9002D00F0F28031
:10C370000021C5E9000C0846BDE8F087B3FA83F157
:10C3800000294ED16345C0F0E880824240F2E5804A
:10C390000846002DE5D0C5E9004AE2E702B9FFDE14
:10C3A000B2FA82F6002E40F099808B1A4FEA124EB4
:10C3B0001FFA82F801214FEA144CB3FBFEF20EFB88
:10C3C000123008FB02F94CEA004CE14508D917EBA2
:10C3D0000C0C02F1FF3302D2E14500F2CA801A468A
:10C3E000ACEB090CA3B2BCFBFEF00EFB10CC08FBBF
:10C3F00000F843EA0C44A0450ED93C1900F1FF3384
:10C400002CBF4FF0010C4FF0000CA04503D9BCF13C
:10C41000000F00F0A8801846A4EB080440EA024090
:10C420009AE7C1F120048B4002FA01FE0CFA01F6F2
:10C43000E24020FA04F72CFA04FC00FA01F8134356
:10C440003E431F0C320C1FFA83F9BCFBF7F007FBCD
:10C4500010CC00FB09FA42EA0C4CE24508D913EB78
:10C460000C0C00F1FF3202D2E24500F28980104646
:10C47000ACEB0A0CB6B2BCFBF7FA07FB1ACC0AFB12
:10C4800009F946EA0C42914506D99A180AF1FF3695
:10C4900001D291457AD8B2464AEA0040A2EB09029D
:10C4A000A0FB0E67BA42B446B94602D307D1B045E5
:10C4B00005D2B6EB0E0C67EB030301389946002D4D
:10C4C0006BD0B8EB0C0362EB090202FA04F4CB4028
:10C4D000CA4000211C43C5E9004242E7B740C6F10B
:10C4E000200201FA06F3B44021FA02FC4FEA174E8B
:10C4F00020FA02F21FFA87F8BCFBFEF11A430EFB8A
:10C5000011CC01FB08F0130C43EA0C4C604507D931
:10C5100017EB0C0C01F1FF3301D2604533D81946FB
:10C52000ACEB000C92B2BCFBFEF00EFB10CC00FB9F
:10C5300008F342EA0C4C634507D917EB0C0C00F1E9
:10C54000FF3201D2634525D81046ACEB030340EA25
:10C55000014130E72946284603E7841A6CEB0303C0
:10C5600001209A4615E702383C4455E702383C441E
:10C57000EDE6023ABC4433E7AEF1020E3B44D2E6AC
:10C5800002389C4474E70239BC44C9E7AAF1020AA4
:10C590001A4481E70238BC44D7E72946E1E600BFE8
:10C5A000704700BF03234FF000012DE9F04363F310
:10C5B00002015C4E5C4B6FF3C501F61AC6F3C90667
:10C5C0008BB066F38F11594804F026FE584803F0EB
:10C5D000E7FB044670B94FF00001012363F3020149
:10C5E00060F3C501534866F38F1104F015FE0BB0DC
:10C5F000BDE8F083436806A9DB6998474FF4C8603B
:10C60000BDF81880BDF81A9003F014FE054650B925
:10C610004FF00001012363F3020160F3C50166F3EB
:10C620008F114548E1E74FF448774FF4C862002185
:10C6300005F08DFABDF818304FF4C862B7FBF3F778
:10C6400000260392ADF81430ADF81030ADF812703A
:10C65000BDF81A309E422EDB0026636820465B68D8
:10C660009847364B374604932823ADF8143016F01C
:10C67000030245D0012A4BD0022A4ED007F01F01F9
:10C680008B0143EAC1230B43013700214FEA132CEE
:10C6900005F801C068180231B1F5C86F4370F7D1D1
:10C6A000022A1FD0032A25D0012A0DD0002200958E
:10C6B00003AB00210EE0B2B2009503AB002120468F
:10C6C00004F0AEFA3E44C3E70022A8F12801009529
:10C6D00003AB89B2204604F0A3FA0136642005F0CA
:10C6E00004FDC4E7A9F11402A8F12801009503ABE9
:10C6F00092B2EEE7A9F11402009503AB92B2D8E72B
:10C700004FF478431046114601440B449BB2BCE7FA
:10C7100000234FF4FC601946F6E700231F2118465A
:10C72000F2E700BF50250100502501001427010049
:10C730002B27010031270100522701002800140097
:10C740000B6801330B60014B1B6818471C58022013
:10C750002DE9F04F85B00E9C9B46012CB8BF0124FB
:10C76000012B0CBF30232023164682468846012524
:10C770000A270022DFF86C900293B6FBF9F30193CD
:10C780000AB9B1451CD8019B414603F13000D0479E
:10C7900001220135019B013F09FB13660A23012F8A
:10C7A000B9FBF3F9E9D1414606F13000D047BBF1BE
:10C7B000030F02D1641B002C0EDC05B0BDE8F08F26
:10C7C000BC42E7DBBBF1020FE4D84146029803927A
:10C7D0000135D047039ADDE741462020D047013C90
:10C7E000E9E700BF00CA9A3B014B1860704700BFE1
:10C7F0001C580220002313B502AC44F8043D024645
:10C800000B460348214604F05EFB02B010BD00BF9A
:10C8100041C700004FF02002EFF3118382F311882B
:10C82000BFF36F8F0121044AC2F8401583F31188CA
:10C83000BFF36F8F002070470090034020B1034B7F
:10C84000800143F001031847704700BFB025010085
:10C85000014803F08DBF00BF4859022030B50022C7
:10C8600087B00D490D4805F0E8FC00240E230C4D5F
:10C87000CDE90243CDE90444CDE90044094B4FF42E
:10C8800040720949284603F0FBFF0849284605F095
:10C8900056FC204607B030BD51C800001C000220E5
:10C8A000640002202DCC00003843022093270100B1
:10C8B00008B500F04BFA094804F08BFC0423282249
:10C8C0000748084905F02CFB074B084A4FF4004085
:10C8D0001A60BDE8084000F06FBC00BF14000220E1
:10C8E0004800022078530220205802201112010033
:10C8F000F8B500250C4BD3E8EF7FC3E8E25F002AD0
:10C90000F9D10A4C0A4E361B3611B54200DBF8BD90
:10C9100063685B792BB12368DB6813B13946204625
:10C92000984701351034F0E70C000220A0250100E3
:10C93000B0250100044BD3E8EF2F0132C3E8E12F0B
:10C940000029F8D1704700BF0C000220044A054BB3
:10C950009B1AB1EBD30F34BF52F83100002070475F
:10C9600050250100A0250100094B4268C31A1B1184
:10C97000013310B5137101224368064C5A712278B5
:10C98000196012B9044803F0F3FE0123237010BDAF
:10C99000A02501002C43022048590220F8B50F4B76
:10C9A000D3E8EF4F621CC3E8E12F0029F8D12CB97E
:10C9B0000B4D0C4E761B3611B44200DBF8BD27013F
:10C9C000EB191B7B43B1EB595B6903B19847042218
:10C9D0000021E819FFF7C8FF0134EDE7100002203D
:10C9E000A0250100B0250100144B37B5984204463C
:10C9F00002D3134B98421BD3002201A9114803F024
:10CA00005DFB0546B8B90122019BD3E8EF1FC3E8DF
:10CA1000E02F0028F9D1019821461F22043005F0AB
:10CA20003BF87E23019C84F8233084F8245004349E
:10CA3000204603B030BD044CFAE700BFAC22010031
:10CA4000E8300100480002209B27010048B1054B57
:10CA5000984205D3A03398422CBF00200120704794
:10CA600000207047785302202DE9F84F504B0446C0
:10CA70001B7803B940B34FF02003EFF3118683F323
:10CA80001188BFF36F8F4B4804F0B3FB054686F364
:10CA90001188BFF36F8F58B1474BD3E8EF2F013A9E
:10CAA000C3E8E12F0029F8D18CB1284604F08EFCB0
:10CAB00024B9424B1B680BB1FFF71AFF3D4804F045
:10CAC00096FB041C18BF01242046BDE8F88F3C4BA0
:10CAD0001B78DBB92B7ADB0718D404F086FC81467F
:10CAE000284604F053FC26462246CC4623464FF007
:10CAF000010E1CF8011B09B198420ED8314B324A85
:10CB0000DFF8DCB09B1AC3F3C90AD6B92F4E304FF9
:10CB10004FF00008BF1B3F1147E0252902D182F0EA
:10CB20000102E6E7002AE4D041F02007613F192F17
:10CB3000DFD8732904BF0EFA03F216430133002233
:10CB4000D7E7B6FA86F7C7F11F073946284604F03B
:10CB500020FC204B0246984202D31F4B984213D32D
:10CB60001046FFF773FF78B91C4B9A420CD0012393
:10CB700063F3020860F3C5086AF38F1843464A4618
:10CB80003946584604F069FB012303FA07F726EA01
:10CB90000706BAE773685B7923B1336829461B68D7
:10CBA0003046984708F101081036B845F2DB7CE7BB
:10CBB0002C43022014000220080002200C00022056
:10CBC0002D4302206825010050250100A025010009
:10CBD000B0250100AC220100E83001009B270100D4
:10CBE000B9270100F8B50E4F3D7875B9FFF7D6FEAD
:10CBF0000C4C0D4E361B3611B54207DB0020FFF7FB
:10CC000033FF0028FAD101233B70F8BD63685B79DC
:10CC10001BB1236820461B69984701351034EBE7A8
:10CC20002D430220A0250100B025010008B5FFF723
:10CC3000B5FE03F097FD0B4B186030B10A4B1B6833
:10CC4000092B02DD094803F093FD084C0020FFF793
:10CC50000BFF0028FAD14FF0FF31204603F0AEFD64
:10CC6000F4E700BFD000022008000220485902204B
:10CC7000244B70B51B68418105469847224CE860FB
:10CC8000D4E8EF3F0133C4E8E23F002AF8D14FF087
:10CC90002003EFF3118683F31188BFF36F8F1B48D6
:10CCA000294604F09AFA86F31188BFF36F8F184B68
:10CCB0001A787AB14FF02003EFF3118483F31188CF
:10CCC000BFF36F8F0020FFF7CFFE84F31188BFF30F
:10CCD0006F8F70BD0F49236809680029F9D0012BB7
:10CCE00006D1BDE870404FF47A710B4803F06ABF7B
:10CCF0000A2BEED1084805F0ACFABDE870400748B1
:10CD000003F036BD20580220080002201400022043
:10CD10002D430220D00002201C000220485902208E
:10CD200007B504380190D0E8EF3F5A1EC0E8E12F64
:10CD30000029F8D1012B03D101A9034803F0ECF934
:10CD400003B05DF804FB00BF480002202023024925
:10CD50001A46024805F0E4B818540220D400022014
:10CD6000002373B50A4E02AC44F8043D0120FFF7DE
:10CD70007BFE0546FFF7DEFD00222146304603F02C
:10CD80009DF908B1002DF1D1019802B070BD00BF2E
:10CD9000D400022007B5002202A941F8042D05485D
:10CDA00003F08CF910B1FFF7DBFF0190019803B09D
:10CDB0005DF804FBD40002207FB5047A457A14F0B4
:10CDC000010401904FEA151510D0019B1A7A9207C1
:10CDD00006D55B6904AC114D44F8043D039BB3B91F
:10CDE00001A90E4803F098F904B070BD002DECD0F5
:10CDF000AC420198E9D2214604F0CBFA0646FFF78F
:10CE000025FE10B13046FFF78BFF0134F0E71E68B6
:10CE10002146284603F080F90396DFE7D40002207C
:10CE20000EB403B503AB53F8042B01460448019339
:10CE300004F049F8002002B05DF804EB03B070473D
:10CE40009F1701002DE9F04F11F0020485B006464E
:10CE500090469DF8387001F0010901F0080507D0EF
:10CE600011F0440F37D11A463249FFF7D9FF044673
:10CE7000B9F1000F0AD0304B304953F82720304B1E
:10CE80003046002A08BF1A46FFF7CAFF3DB12D4BB6
:10CE90002D4953F827203046FFF7C2FF0546B8F169
:10CEA000000F44D0012303FA07F7284B17F0100FA7
:10CEB000274F18BF1F46BDF840109DF83C00FFF7F4
:10CEC00045FD394602463046FFF7AAFF2844204474
:10CED00005B0BDE8F08F1F4A116831B31E4A4FF408
:10CEE000616E14684FF47A7CB3FBF4F3B3FBF1F496
:10CEF000B4FBFEF20EFB124E01FB14340CFB04F4E7
:10CF0000B4FBF1FB4FF03C0A01FB1B440CFB04F4A7
:10CF1000BEFBFAF3B4FBF1F1CDE901B10AFB13E179
:10CF200000910E49FFF77CFFA1E708469FE7084FF5
:10CF3000C1E700BF3C280100E02501007830010076
:10CF40002E280100F425010061280100332801008A
:10CF500037280100F0000220F400022045280100DB
:10CF600038B50C46E107054603D5084A0849FFF7DE
:10CF700057FFE20608D4A3062846BDE838404CBF58
:10CF800004490549FFF74CBF38BD00BF2E280100FA
:10CF900078300100202801001F2801002DE9F0470A
:10CFA0009846089B0446DD060E46174605D49906AA
:10CFB0004CBF29492949FFF733FF0025DFF8A4902A
:10CFC00045452ADB0025DFF8A080DFF8A090DFF8D8
:10CFD00094A0AF422ED9725D49462046FFF720FF4C
:10CFE0000135102D1FD11E492046FFF719FF0025DE
:10CFF000DFF87080DFF87890AF4227D9725D49463C
:10D00000A2F120035F2B28BF2E222046FFF708FF46
:10D010000135102D13D1BDE8F08749462046FFF7B2
:10D02000FFFE0135CCE76A07D3D151462046FFF712
:10D03000F7FECEE741462046FFF7F2FED0E76B074A
:10D04000DAD141462046FFF7EBFED5E741462046C0
:10D05000FFF7E6FEDCE700BF202801001F280100E3
:10D06000F9270100F7270100F5270100EF2701004C
:10D07000FB2701002DE9F04717460A7A8B7AD24345
:10D0800013F007048AB005460E46D2B21BD0498978
:10D09000C3F3C20389090291CDE9004302F0010202
:10D0A000F3683946FFF7CEFE8146337ADA070CD4AF
:10D0B0002946304604F009FA4CB322463946284640
:10D0C000FFF74EFF23E0A146EFE734BB2746EB68AE
:10D0D00006AA0693A9683B46304604F0E2F9069A90
:10D0E0006B681A603AB1AB68134413F8014CA4F1B1
:10D0F0000A035C425C41284604F044FB069B1F4443
:10D10000002BE4D11CB115492846FFF789FE2846BB
:10D1100004F038FB0AB0BDE8F087304604F065F94A
:10D120000F4902462846FFF77BFE4FF000084FF0FC
:10D13000100A05AA434606A93046CDF814A004F00B
:10D14000B0F9059A002AB8D04B46009706A92846A0
:10D15000FFF724FF059B9844EBE700BF012801007F
:10D160007830010073B5D0E900435D6842F20F7377
:10D170008B4228BF0B460D4A0521684601F04CFF43
:10D1800006462B4620460B22094904F091F92B460E
:10D1900032466946204604F08BF92B461B2205498E
:10D1A000204604F085F902B070BD00BFFE270100E3
:10D1B000222801000328010001230021074A10B59D
:10D1C000074C1360A04204D801B11360054B1860EE
:10D1D00010BD40085B000121F4E700BFF40002200D
:10D1E00040420F00F000022008B5034802F0D8FDCD
:10D1F000024B586008BD00BF8728010000010220D3
:10D20000014804F0BFBA00BF202601000148FFF723
:10D21000A9BF00BF2026010010B50C46084604F047
:10D22000ACF8214604480F22FFF724FF2046BDE852
:10D23000104004F0CBB800BF202601000A2838B502
:10D240000446074D04D1286843680D215B68984760
:10D2500028684368E1B25B689847204638BD00BF44
:10D260000C01022010B5044C204601F0CFFE2046F0
:10D27000BDE81040FFF7B8BA3DD2000008B5044839
:10D2800002F08EFD034B1860FFF7ECFF002008BD95
:10D29000872801000C01022010B50022044601215C
:10D2A000052000F02FFC052000F01CFC0222054B9D
:10D2B0000020C3F818250322C3F80423A368C3E998
:10D2C000000010BD0050004008B5104B1A6862B154
:10D2D0000F4AD2F80823D10707D500220D481A605B
:10D2E00083685B7A0BB904F00EFB0B4B1A685AB1DA
:10D2F000074AD2F80823920706D5002207481A6089
:10D30000BDE8084004F0FFBA08BD00BF005100406E
:10D3100000500040C058022004510040CC58022068
:10D32000102908B512D001234FF00001084A63F319
:10D330000201084B6FF3C5019B1ADB08064863F333
:10D340008F1103F069FF6FF0220008BD0020FCE799
:10D350005025010060250100E729010008B591B1C1
:10D3600001234FF00001094A63F30201084B6FF3F8
:10D37000C5019B1ADB08074863F38F1103F04CFFCC
:10D380006FF0220008BD0846FCE700BF50250100F1
:10D3900060250100BA2901002DE9F041804684682A
:10D3A000554802F0FDFC554E554B2060F61AC6F369
:10D3B000C90680B94FF00001012363F3020160F355
:10D3C000C501504866F38F1103F026FF4FF0FF357B
:10D3D0002846BDE8F0814C4A4C4BC4E901234C4837
:10D3E00002F0DEFC00250D23C4E9053504F110032D
:10D3F0002061E360464802F0D3FCE06150B94FF091
:10D400000001012262F3020160F3C50166F38F118E
:10D410004048D9E743680C221F6829460123B847D2
:10D42000074670B14FF00001012363F3020165F379
:10D43000C501394866F38F1103F0EEFE6FF0040565
:10D44000C6E7334802F0ACFC206250B94FF000014F
:10D45000012262F3020160F3C50166F38F112F48C8
:10D46000B2E743680A221D6839460123A8470546EA
:10D4700050B14FF00001012363F3020167F3C501CE
:10D4800066F38F112648D7E7264B4FF00002C4E918
:10D490000930042363F3020260F3C50266F38F12BE
:10D4A0002149224803F0C5FE01220C21E06904F065
:10D4B00061FA012004F019FE2A460C21E06904F00B
:10D4C00059FA062004F011FE01220C21E06904F053
:10D4D00051FA142004F009FE404604F091FA204667
:10D4E00000F0B2F82B462A461121204604F05BFAE0
:10D4F000782004F0FAFD6BE72B270100602501007E
:10D5000050250100EB280100001BB70000010100BD
:10D510000C290100132901003D2901005A290100AD
:10D52000842901004001F000C7280100A42901005E
:10D530002DE9F04F1E464FF004084FF000030D4652
:10D5400014463D493D4A68F30203521AD2086FF36C
:10D55000C50362F38F133A4A89B00392B288876891
:10D560000492F28803A9CDE9052536480522DDF8A5
:10D570004890079403F0A4FE3A8DB38815447A8D41
:10D58000ADB214446ABA1D44B6F806A0013D434644
:10D59000A4B2ADF80C206DBA03AA2A213846ADF822
:10D5A0000E5004F000FA63BA5444013CADF80C305C
:10D5B00064BA434603AA2B213846ADF80E4004F066
:10D5C000F2F9B3883289F5889A4284BFAA460125C8
:10D5D0004FEA430305FB03F34A464FF02C0138465C
:10D5E00098BF4FF0010A04F0DEF90DEB0803039336
:10D5F00001234FF000083489049309EB440407F138
:10D60000040908F101081FFA88F39A4503D800209D
:10D6100009B0BDE8F08FB38801945B006B433868B4
:10D620000293436803AAD3F800B049460023D847C1
:10D63000338904EB4304E4E7502501006025010031
:10D64000DD2801000B2A01002DE9FF4123220021E2
:10D65000044604F0A5F95C4B0026009333236A4688
:10D660008DF8043020460523B22104F09CF9574B75
:10D670006A46009320460423DF2104F094F96A46A9
:10D6800020460123BA218DF8006004F08CF935237F
:10D690006A468DF8003020460123B72104F083F953
:10D6A0002B2301254FF00F0820278DF800306A4604
:10D6B00020460123BB2104F076F92B466A4620461A
:10D6C000C2218DF8005004F06EF92B466A462046C0
:10D6D000C3218DF8008004F066F92B466A46204687
:10D6E000C4218DF8007004F05EF92B466A4620468E
:10D6F000C6218DF8008004F056F94AF252136A46AA
:10D70000ADF8003020460223D02104F04CF92B461E
:10D710006A46204636218DF8007004F044F95523FE
:10D720006A468DF8003020462B463A2104F03BF93A
:10D73000334632462046212104F035F92B466A460D
:10D74000204626218DF8005004F02DF9204D214B64
:10D750006A46CDE90053204B2046029341F21273F2
:10D76000E021ADF80C300E2304F01DF91B4B6A4686
:10D77000019303F1514303F56B0303F23F730293EB
:10D7800041F61C532046ADF80C30E1210E230095E4
:10D7900004F009F94FF470436A46ADF800302046B2
:10D7A0000223B02104F0FFF840F6CD03ADF80030BD
:10D7B00014236A468DF80230B1210323204604F079
:10D7C000F2F804B0BDE8F0810C0C00335A69020194
:10D7D000D00002070B1A31544029121205152D44AE
:10D7E00000220D4BC3F840214FF02002EFF31181CE
:10D7F00082F31188BFF36F8F084AD3F804051368CA
:10D80000C01A20F07F400344136081F31188BFF3F6
:10D810006F8F03F03FB900BF005001405401022058
:10D8200070B5184802F0BCFA48B3436800211B6881
:10D830009847012600244FF480334FF40012124D14
:10D840003146C5F80845C5F84065C5F804330F4BA7
:10D8500015201C600E4BC3F88021224600F052F9BF
:10D86000152000F03FF920460A4B1E602E60D5F8C7
:10D870000435334423F07F43C5F8403570BD4FF085
:10D88000FF30FBE7A5280100005001404051014056
:10D8900000E100E00850014070B5214EB0F1FF3FBB
:10D8A00008BF30464FF02003EFF3118483F3118853
:10D8B000BFF36F8F1B491C4BD1F804251D6801383D
:10D8C000531B23F07F4301352B4420EAE070B04224
:10D8D000D4BF18189819821A22F07F4220F07F4393
:10D8E000022AC1F8403504D984F31188BFF36F8F41
:10D8F00070BDD1F804350D4AC31A23F07F435D1E75
:10D90000954205D94FF40012094BC3F80021EBE70B
:10D91000012B02BF023020F07F40C1F84005E3E751
:10D92000FEFFFF000050014054010220FEFF7F0077
:10D9300000E100E04FF02002EFF3118382F3118841
:10D94000BFF36F8F064AD2F80405064A1268801AA0
:10D9500020F07F4083F31188BFF36F8F704700BFC3
:10D9600000500140540102204FF02003EFF31182D8
:10D9700083F31188BFF36F8F0649074B0868D3F80C
:10D98000043582F31188BFF36F8F1B1A23F07F4396
:10D990001844704754010220005001400448816837
:10D9A000406A884203D003494FF080520A607047B2
:10D9B000EC42022004ED00E012498A684FF0280092
:10D9C0001044EFF3098C80E8F01F202080F31188C9
:10D9D000BFF36F8F0C4F4FF000664A6A8A603E605B
:10D9E000506E0023536680F3118804B5104604F08E
:10D9F00028F8BDE8044002F1280090E8F01F8CF3FD
:10DA000009887047EC42022004ED00E01EF0040F8C
:10DA10000CBFEFF30880EFF30980816911F8021C55
:10DA20000229FFD001B504F001F801BD014910221F
:10DA30000A60704710ED00E0404080F3118830BF6D
:10DA4000704700BF404080F311884FF004007146DA
:10DA5000014202D0EFF3098001D1EFF30880714653
:10DA600001B500F00DFB01BD30BFFFF7FDBF00BFEA
:10DA700001B572B60B4A106A00281EBF0021116260
:10DA800004F04CFA62B6EFF30580A0F110004FEA03
:10DA9000C0000549014409C99847BDE80140034950
:10DAA00008470000EC420220AC2201009DD9000092
:10DAB000094A0A49936809685866996608494B6893
:10DAC00043F080534B60002383F31188BFF36F8FC3
:10DAD0009368986E704700BFEC420220FC2601005C
:10DAE00000ED00E043B2002B08DB012200F01F0034
:10DAF00002FA00F0024A5B0942F82300704700BFB7
:10DB000000E100E043B2002B01F10101A8BF03F1E5
:10DB100060434FEA4111B8BF054BC9B2ABBF03F533
:10DB2000614300F00F0083F800131954704700BFE1
:10DB300014ED00E02DE9F0418C18884617461E468A
:10DB400004220A9B0999054604F01DFB00220D4999
:10DB5000A4F1200323F0070321F00101C5E91322FA
:10DB6000C5E91687996106991E6059600799996001
:10DB70000899D9604FF08071D961AB646A66BDE8DD
:10DB8000F08100BF930E0100F8B505460C4617461C
:10DB90001E4600F081FB0B4B3C4428469D6024F060
:10DBA000070403F04EFF304684F3098863B64FF054
:10DBB000000181F31188BFF36F8F00210022002341
:10DBC00003F067F9EC420220F7B507460C4600293E
:10DBD0003DD001264FF00003204A214D66F3020399
:10DBE000AD1AC5F3C9056FF3C50365F38F13ADF81F
:10DBF0000030D1E901231B48096803F046FB4FF0D0
:10DC0000000366F302036FF3C50365F38F13ADF8EA
:10DC10000030D4E90423E168134803F036FB4FF0E9
:10DC2000000266F302026FF3C50265F38F12E16929
:10DC30000E4803F0FEFA4FF0000266F302026FF3A3
:10DC4000C50265F38F12A169094803F0F2FA214673
:10DC5000384603B0BDE8F04002F0E6B850250100B8
:10DC6000782501004B2A01007A2A0100A92A010027
:10DC7000B82A010008B5084B084A23F07F039360D7
:10DC8000BFF34F8FBFF36F8F02F03CF902F044F9FE
:10DC900000F0D0FA02F072F900C0000000ED00E0E0
:10DCA00003F095FA202080F3118808484FF40061B2
:10DCB000401880F30988EFF314800221084380F3B1
:10DCC0001488BFF36F8FFFF7D5FF0000784B022059
:10DCD00070B54FF000010126404B414C66F3020144
:10DCE000E41A6FF3C501C4F3C9043E4D64F38F1108
:10DCF0003D4803F091FAAA6A92010AD54FF000015B
:10DD000066F302016FF3C50164F38F11374803F026
:10DD100083FAAB6ADB010BD54FF00001012363F3FB
:10DD200002016FF3C50164F38F11314803F074FAF7
:10DD30002C4DAA6AD6020BD54FF00001012363F3E4
:10DD400002016FF3C50164F38F112A4803F064FAEE
:10DD5000AB6A18030BD54FF00001012363F30201F6
:10DD60006FF3C50164F38F11234803F055FA1D4D7D
:10DD7000AA6A51030BD54FF00001012363F302019E
:10DD80006FF3C50164F38F111C4803F045FAAB6AC9
:10DD90009A030BD54FF00001012363F302016FF3E7
:10DDA000C50164F38F11164803F036FA0D4DAB6AC6
:10DDB000DB030BD54FF00001012363F302016FF386
:10DDC000C50164F38F110F4803F026FAAB6A0020F7
:10DDD0006FEA03436FEA1343AB6270BD5025010045
:10DDE0007825010000ED00E0462C01005E2C0100CA
:10DDF000712C01008B2C0100B52C0100D32C0100EB
:10DE0000F82C0100122D01002DE9F0410E464FF0D3
:10DE100001084FF000013D4B3D4C68F30201E41A4C
:10DE20006FF3C501C4F3C9043A4D64F38F1107467B
:10DE3000394803F0F1F9AA6AD1060AD54FF000017A
:10DE400068F302016FF3C50164F38F11334803F0E7
:10DE5000E3F9AB6A1A070BD54FF00001012363F316
:10DE600002016FF3C50164F38F112D4803F0D4F95B
:10DE7000284DAB6A9B0720D54FF001084FF00001F9
:10DE800068F302016FF3C50164F38F11254803F0B5
:10DE9000C3F9696BAB6A18060FD54FF0000268F33F
:10DEA00002026FF3C50264F38F121F4803F0C1F939
:10DEB0001FB1AB6A23F08003AB62164DAA6AD2078A
:10DEC0000BD54FF00001012363F302016FF3C5018D
:10DED00064F38F11154803F09FF9AB6A9B060BD5CD
:10DEE0004FF00001012363F302016FF3C50164F3F6
:10DEF0008F110F4803F090F90020064B9A6A9A6A36
:10DF000042F0FF029A623070BDE8F08150250100B6
:10DF10007825010000ED00E06E2B0100842B01004C
:10DF2000B72B0100CA2B0100E22B0100F82B0100E6
:10DF3000172C01002DE9F0410E464FF001084FF07B
:10DF40000001444B444C68F30201E41A6FF3C5012D
:10DF5000C4F3C904414D64F38F110746404803F0F0
:10DF60005BF9AA6AD1040AD54FF0000168F30201F7
:10DF70006FF3C50164F38F113A4803F04DF9AB6AB2
:10DF80001A050BD54FF00001012363F302016FF373
:10DF9000C50164F38F11344803F03EF92F4DAB6A8D
:10DFA0009B0520D54FF001084FF0000168F30201F6
:10DFB0006FF3C50164F38F112C4803F02DF9A96BA1
:10DFC000AB6A18040FD54FF0000268F302026FF33A
:10DFD000C50264F38F12264803F02BF91FB1AB6A18
:10DFE00023F40043AB621D4DAB6A59050BD54FF0CE
:10DFF0000001012363F302016FF3C50164F38F1184
:10E000001C4803F009F9AB6A13F4807314D04FF085
:10E010000001012363F302016FF3C501164864F3A5
:10E020008F1103F0F9F800200C4A936A43F47F4300
:10E0300093623070BDE8F081AA6A9204F3D54FF084
:10E040000001012262F3020163F3C50164F38F1141
:10E050000A48E6E7502501007825010000ED00E0C0
:10E06000E62A0100FC2A0100B72B01000D2B01005C
:10E07000262B01003B2B0100562B0100172C010021
:10E080005A4BF7B55C6801F07F43B3F17F4F06460A
:10E0900040F0AA8011F0010340F0A6804A060FD597
:10E0A00001224FF0000162F3020163F3C501504AFF
:10E0B000504B51489B1ADB0863F38F1103F0ACF807
:10E0C0000023C4F308008DF80730C31E092B73D852
:10E0D000DFE803F0055B5F587272727272630127AA
:10E0E0004FF000010024424B424D67F30201ED1A4C
:10E0F0006FF3C501C5F3C90565F38F113F4803F000
:10E100008BF83A4A8DF80740D36A13F002030CD01B
:10E110004FF0000167F3020164F3C501384865F36D
:10E120008F1103F079F8002016E0D06A10F08040DB
:10E1300015D04FF0000167F3020163F3C50165F3E9
:10E140008F11304803F068F82F4B1B7863B13846C5
:10E150000DF10701FFF758FE9DF8073013B931465E
:10E16000FFF732FD03B0F0BD284B1B782BB13846CA
:10E170000DF10701FFF7DEFEEEE7254B188880B2B0
:10E180000028E9D0FFF7A4FDE6E70DF10701002024
:10E19000E0E70DF107010020ECE701234FF000015B
:10E1A000134A63F30201134B6FF3C5019B1ADB089B
:10E1B00063F38F111748B4E701224FF000030C49B5
:10E1C00062F302030B4A144C521A1449D2086FF33B
:10E1D000C50362F38F130F28C8BF2146A0F11002B8
:10E1E0000F4803F03AF89EE70020B8E700ED00E0A2
:10E1F00050250100782501003D2D0100602D010012
:10E20000772D0100982D010028ED00E029ED00E0B8
:10E210002AED00E0B72D0100022E0100ED2D0100D6
:10E220001B2E0100024A536943F0100353617047EB
:10E2300000ED00E0002320210348C2180133412BE8
:10E2400082F80013F9D1704700E100E038B50546C7
:10E250004FF02003EFF3118483F31188BFF36F8F26
:10E2600003F072FF0A4B9B68AB420BD1094B5A6813
:10E27000C2F3080212B92046FFF71AFC5A6842F0AE
:10E2800080525A602046BDE8384003F0B0BE00BF5F
:10E29000EC42022000ED00E010B50E4B88B0029376
:10E2A0000D4B0E4C03930E4B08A8049302AB40F8A1
:10E2B0001C3D0C4A2346012100F056F90023079328
:10E2C000094B0121E41A05A80593069400F056F9BC
:10E2D00008B010BD00000220000000000000042073
:10E2E00006000100000002200000022010B50B68AB
:10E2F0000C7A23F01F0304F01F021A43CB68640951
:10E3000023F01F03044943F0010343EA44038860F8
:10E31000CA600B6110BD00BF90ED00E008B54FF082
:10E3200000020123084963F30202084B6FF3C502A0
:10E330005B1ADB08014663F38F12054802F079FF90
:10E340006FF0150008BD00BF5025010070250100C9
:10E35000782E01002DE9F04F074688461446002626
:10E36000604D85B0464541DA57F82630D3F8049021
:10E37000B9F1000F5DD0B9F11F0F24D919F01F0FAB
:10E3800021D1D3F800A01AF01F0F1CD1504602F083
:10E390004DFC834609EB0A00013802F047FC834537
:10E3A00028D06FF0150B01234FF000024E4963F3A4
:10E3B00002024E4B6FF3C5025B1ADB0863F38F1248
:10E3C00059464B480EE001234FF00002464963F3E3
:10E3D0000202464B6FF3C5025B1A3146DB08454823
:10E3E00063F38F1202F025FF6FF01504204605B08D
:10E3F000BDE8F08F1BF1160FD5D0631E5B45D2DB55
:10E40000C5F808B0E868C5F808B02B6957F82610B9
:10E4100020F01F0043F01F0AD1E900321A4498424D
:10E4200002F1FF3918D1CA4505D15FFA8BF003F02C
:10E4300010FB013696E7C5F808B0EB6822F01F0222
:10E4400003F01F031A43EA60E0B203F002FB10F18D
:10E45000160FC9D0441CECE7C5F808B02A69013B87
:10E4600023F01F0302F01F021343CA45E0B22B61E1
:10E47000EBD003F0EEFA10F1160FB5D0C5F808B0E6
:10E48000EA689DF808300AF1FF3A62F304038DF858
:10E4900008302B699DF808205B0863F3471257F892
:10E4A00026308DF80820D3E900130B44009323F0A5
:10E4B0001F03441C5344A3EB0903E4B223F01F03DE
:10E4C0000F2C039308D92046FFF728FF10F1160FF1
:10E4D000044689D00134ACE769462046FFF706FFC1
:10E4E000F8E700BF90ED00E0502501007025010025
:10E4F000552E0100322E01000522034B5A60BFF356
:10E500004F8FBFF36F8F704790ED00E0BFF35F8FC9
:10E510000022014B5A60704790ED00E070B50E4D3F
:10E520002E68102E15D80024FFF7F0FF0B4B0C4A75
:10E530001A63A64205D10B4B1E70FFF7DDFF0020CA
:10E5400070BD6968204601EB0411FFF7CFFE01346E
:10E55000EFE74FF0FF30F3E7B825010090ED00E062
:10E56000AAFF44002F43022010B5034C2278FFF786
:10E57000F1FE207010BD00BF2F4302202DE9F74FA0
:10E58000894607460026DFF89080DFF890A0214CEE
:10E590004E4519DAD7F804B0BBF1000F36D03B680E
:10E5A0001846019302F042FB019B05460BEB03006A
:10E5B000013802F03BFB1423854203FB06F306D02F
:10E5C0006FF0150248F8032003B0BDE8F08F15F195
:10E5D000160F48F80350F7D09AF80020AA42F3DD4E
:10E5E000A5604344A560E068197B60F304011973DA
:10E5F0002169187B490861F347101873E26822F01B
:10E600001F025A60226922F01F021A6101360C377C
:10E61000BEE700BF90ED00E0580102202F4302202A
:10E6200070B50C4B0E461C780546234600210A4A5D
:10E630000F2B0BDD094B191D1868FFF757FE2246FB
:10E6400031462846BDE87040FFF784BE93601161F3
:10E650000133EDE72F43022090ED00E05801022046
:10E660002DE9F04F1E4600239DB0CDE90201019334
:10E670001078531C069358B1252800F0898003991F
:10E68000029B9847013040F00B844FF0FF33019319
:10E6900001981DB0BDE8F08F232C70D065D8002CF8
:10E6A000F6D0202C0C9B08BF01230C93CDF81880CA
:10E6B000DDF81880BB4818F8014B214603F0FFF93C
:10E6C0000028E9D12A2C6AD13268331D002A07922A
:10E6D000BEBF5242079201221E46B8BF0D92069A53
:10E6E000547802F102082E2C7ED198F800302A2BA3
:10E6F00077D1356808F10108043698F8004008F130
:10E7000001082146A848274603F0D9F900286ED011
:10E7100008F10103682F069398F8004007D1682C90
:10E7200005D1482708F1020398F801400693672CA9
:10E730007CD8652C80F03A81472C5CD8452C80F041
:10E740003581002CA4D0252C00F0A6830399252028
:10E75000029B9847013098D003992046029B984726
:10E76000013092D0019B02339CE32D2C0DD0302C34
:10E7700008D02B2C099B08BF0123099396E701239E
:10E78000059393E70123089390E701230D938DE709
:10E79000002308930C9309930D93059388E7A4F144
:10E7A0003003092B07909ED80A22DDF8188018F84C
:10E7B000014BA4F13003092B95D8079B02FB0344BE
:10E7C000A4F13003CDE90683EFE7904601FB053560
:10E7D000303D424612F8013BA3F130000928F4D93C
:10E7E0008BE700250A21F4E74FF0FF3589E7CDF8E4
:10E7F000188007469BE7632C59D021D8582CA5D107
:10E80000331D6F2C0493316815AF40F01B83059BBB
:10E81000002B00F00B8330238DF85430002940F09A
:10E820000E838DF855108B46012726E0702C00F0E2
:10E83000E88227D86E2C00F0CF82E1D8692C85D1F0
:10E840003468331D002C049380F29E802D23614296
:10E850008DF854300DF1550738460A2203F098F927
:10E86000099B074415A83F1A002B40F01E830C9B00
:10E87000002B40F01A834FEAD47B002DC0F21A839C
:10E8800015AE1EE0752CBBD0782CB9D0732C7FF45C
:10E890005DAF002DB8BF6FF000450027331D36680F
:10E8A0000493BD4240F0BD820025AB4609E04FF025
:10E8B000000B01275D46331D049333681CAE06F838
:10E8C0001C3DA5EB070A0025A846A946DA442AEA1A
:10E8D000EA7A079B0AEB07041C1B0D9B13B9002C5B
:10E8E00000F3078306EB0B039E4240F0048353467C
:10E8F00013F1FF3380F00B83A7EB0B07B9F1000F87
:10E9000000F02A833078F219A0F130010929A2EB36
:10E91000060340F207834A46002A40F00E83A3EB29
:10E920000909B8F1000F18D006EB090316F8012BFE
:10E93000079303991046029B0592984701303FF4D4
:10E94000A4AE059A079B2E2AA3EB0609EED14346F7
:10E95000002B00F30383A9EB08099DB1307806EB87
:10E960000908A0F13003092BA8EB060940F2038344
:10E970002E2800F00083A846B8F1000F00F30483AE
:10E98000A9EB0509B14412E3099B23B12B238DF8B0
:10E99000543021465EE70C9B0BB12023F7E721465C
:10E9A00015AF59E79E2E0100A42E0100073626F070
:10E9B0000706D6E90001C202904606F10803049357
:10E9C000CB0243EA5053002823F0004971F10003C1
:10E9D000C1F30A56CDE9108942DA2D218DF8541081
:10E9E0000DF1550740F2FF718E4254D158EA0903E8
:10E9F000A4F1410407F1030042D1192C3AD849236C
:10EA00003B704E237B7046230025A846A946BB7069
:10EA1000FD7015AFC01B099B002B40F0DA810C9BE9
:10EA2000002B40F0D6819DF854B0ABF12D03D3F10B
:10EA3000000B4BEB030B1CAB5B4413F81C3C08EBCB
:10EA40000907303B2F44092B074400F23782089B0B
:10EA5000002B00F03982079B15AEA3EB070A36E7BF
:10EA6000099B0BB12B21B9E70C9B0BB12021B5E71A
:10EA700015AFB7E769233B706E237B706623C3E74E
:10EA8000192C99BF4E2341226E23612294BF3B7003
:10EA90003B707A70B8E7462C48EA060049EAE6710E
:10EAA00008BF662450EA010300F0DA80002E7AD015
:10EAB000DDE910231046A6F2FE38002643F000419F
:10EAC0000DF1700969E90C0118F1020F7ADB6FF0A2
:10EAD000004A4FF0000BB8F1000F00F3A48010A81B
:10EAE00008F1010803F074F8B8F1040FF7D1002D14
:10EAF00004F0DF03B8BF0625472B40F0B980F21CB5
:10EB000002DBB54280F2AF80023CE4B2002D00F09F
:10EB10007382059B013D002B40F06E82002DD4BF17
:10EB20004FF0000A4FF0010A662C40F0678215EBA7
:10EB3000060840F1A380102366244FF000080F93CD
:10EB400000224FF000630DF1700969E90A2318F102
:10EB5000FF3880F09580DDE91023DDE9120112EB2A
:10EB6000000843EB0109CDE9108909F070484FF026
:10EB7000000958EA090306D010A803F03CF810A8D1
:10EB800003F026F80136662C40F0C480002E7DDCB0
:10EB900030233B70059B07F1010B002B40F08D806B
:10EBA000994685E0013E18EB080849EB0909B8F1E0
:10EBB000000F79F10003F5DACDE9108978E74846CE
:10EBC00003F006F8DDE910A000230B9300230A9060
:10EBD000BC4ADDE90ABC634508BF5A4508F1010893
:10EBE000EDD305224FF0000CAAFB02AB02FB00BBE9
:10EBF000CDE910AB013E002300216FF000409942A7
:10EC000008BF584506D2BCF1000F3FF45DAFCDE917
:10EC100010AB59E71AEB0A0A4BEB0B0B08F1FF3864
:10EC20004FF0010CE7E710A802F0E5FFDDE9100165
:10EC30004FF0000C08F1FF38013600239B4508BF58
:10EC40008A4506D2BCF1000F3FF445AFCDE9100173
:10EC500041E70018494108F1FF384FF0010CECE79B
:10EC60000026B0463BE7059BAD1B23B9662455E75C
:10EC70004FF0000A58E74FF0000A58E76624BFE15A
:10EC8000484602F0B8FF02F0A3FF60E7BB460F9BC7
:10EC9000002B07DD0FA910A802F0DDFF013E0BF8E5
:10ECA000010BF4D1059B002B40F09D81B1461E461F
:10ECB000002D04DC4FF0000820E04FF000092E2268
:10ECC0000BF101038BF80020002E00F09381002D42
:10ECD0001EDDC6F10008A845A8BFA846A5EB08059B
:10ECE0009B4606E00FA910A802F0B5FF013D0BF806
:10ECF000010B002D02DD0F9B002BF3DCBAF1000F9E
:10ED00001ED1002315AF8BF80030ABEB070082E675
:10ED10009B46CFE70FA910A802F09DFF059B302866
:10ED2000387018BF06F1FF36002B3CD1002D3ADCBD
:10ED300007F1010BBAF1000F48D04FF00009C846A7
:10ED40001BF8012C0BF1FF33302A3DD02E2A08BFCF
:10ED50009B46002504F0DF03452BD2D1002EB4BF23
:10ED60002D232B235A46B8BF7642632E02F8024B5E
:10ED70008BF801300ADD642196FBF1F301FB136689
:10ED800003F130000BF103028BF802000A2196FB1D
:10ED9000F1F3934601FB136603F1300030360BF8B4
:10EDA000020B5670ADE72E2307F1020B7B70002D8E
:10EDB000C0DD0F9B002BBDDD0FA910A802F04BFF9B
:10EDC000013D0BF8010BF2E79B46B9E7D146D0466F
:10EDD000C0E74FF0010B2EE6324652F8043B682F95
:10EDE000049206D06C2F09D0482F07D1019A1A70CF
:10EDF00001E0019A1A80049E069A39E4019A1A6089
:10EE0000F9E7331D049347F63003316810220DF102
:10EE10005600ADF8543002F0BBFE4FF0020B871CD9
:10EE20002BE5F35D002B43D001373AE53846082245
:10EE3000C71B02F0ADFE07444FF0000B1DE50DF1BE
:10EE40005500F4E7752C05D138460A2202F0A0FEE1
:10EE50000746F1E7059BEBB147F630030DF1560687
:10EE6000ADF854301022304602F092FE582C0BD1EF
:10EE70003B461A78A2F1610119299CBF203A1A7009
:10EE800013F8012B002AF4D1059BF71B07444FEA26
:10EE9000430BF2E43E46E5E703992046FFF7F0BB5B
:10EEA000019B013301930496A5E74FF0010BE4E4C5
:10EEB0001D46FAE40025A846A946C8E515AE4FF060
:10EEC000000A06E53233333315AEDDF820A000E545
:10EED00005930399029B202098470130059B3FF43E
:10EEE000D4AB13F1FF33F3D2019A224401921C46B2
:10EEF000F8E42346F5E705930399029B16F8010B06
:10EF000098470130059B7FF4EFACFFF7BEBB05933C
:10EF10000399029B302098470130059B7FF4E8ACB1
:10EF2000FFF7B3BBDDE902310592984701303FF4AA
:10EF3000ACAB16F8010F059AE6E405930399029B22
:10EF4000302007929847079A013002F1FF32059B63
:10EF50007FF4E2ACFFF799BBB946E2E4059303996D
:10EF6000029B30209847059B013003F1FF337FF46B
:10EF7000EFACFFF78ABBDDE90231984701303FF47F
:10EF800084AB16F8010FECE403993020029B9847FC
:10EF9000013008F1FF387FF4EFACFFF776BB03993F
:10EFA00016F8010B029B984701303FF46EABA9EBBA
:10EFB0000603002BF3DC019B002C5B449B46D344EF
:10EFC00007EB0B0301937FF716AF2344019314F172
:10EFD000FF34FFF410AF03992020029B98470130C3
:10EFE000F5D1FFF752BB2E22B14600260BF10103EB
:10EFF0008BF80020B04673E64FF0000A05F10108D7
:10F00000102398450F93A8BF984699E5014B1860C7
:10F01000704700BF245802200CB41FB509B90DF188
:10F020000300CDE9020107AB069A02A90548019346
:10F03000FFF716FB0022029B1A7005B05DF804EB87
:10F0400002B07047931C0100074B03EB8000D0F81F
:10F05000003223F44033C0F80032D0F8003243EAE3
:10F060000141C0F80012704700258440F8B50368DC
:10F0700001F01F029B68494D1B790C4642EA43127E
:10F080000023D5F804138668C9B203F5A27055F8B9
:10F090002000C0F30420824265D121FA03F0C007AA
:10F0A00061D5990001F1804101F54431D1F8100595
:10F0B00020F00100C1F81005012101FA03F3C5F8A1
:10F0C000083310460021FFF7BFFFB068E04010F0A2
:10F0D000010047D0F068E04010F0010042D07069B4
:10F0E000E04010F001074AD0B369E340DB073ED4AB
:10F0F0003369F169E34021FA04F403F0010304F0F9
:10F100000104A3420CBF02240124002101F5A273D3
:10F1100055F8230010F003002BD18B0003F180433E
:10F1200003F54433D3F81065120226F4473626F46B
:10F130004076C3F81065D3F8106502F4F85242EA3D
:10F140000444174A3443C3F8104542F82100D3F869
:10F15000102542F00102C3F81025012303FA01F142
:10F16000C5F80413F8BD0133082B8ED1A9E7032499
:10F17000CBE701310829C9D16FF01200F2E7F1693C
:10F18000336910464B4023FA04F414F0010F0CBF0E
:10F1900003210221FFF758FF3846E3E70010034040
:10F1A0000011034008B5094B1A786AB901213120D2
:10F1B00019700521FEF7A6FC3120FEF793FC4FF0F5
:10F1C0000042034BC3F80423002008BD3043022053
:10F1D000001003402DE9F74F8046856803F4704026
:10F1E000B0F5804F1E4649D02CDCB0F5805F3DD095
:10F1F000B0F5405F3ED060BB06F44077B7F5807F46
:10F200003ED0A7F5007463426341012919BFD4B20F
:10F21000A1464FF01F0900244FF0010B06F0010C2E
:10F220004FEA4C0747EA0C0747EA0020DFF8C8A07E
:10F2300040EA830706F00203A14523D2002003B071
:10F24000BDE8F08FB0F5E04F16D005DCB0F5A04F6B
:10F250000ED06FF01500F2E7B0F5404F04D0B0F5D6
:10F26000504FF6D10720C7E70620C5E70120C3E7C6
:10F270000320C1E70420BFE70520BDE70220BBE76C
:10F280000323C2E7D8F800209268117904F01F0226
:10F2900042EA411280324AF82270A9680BFA04F25D
:10F2A000002B25D01143A9606969B0064CBF1143FA
:10F2B00091436961A96970064CBF11439143A961EB
:10F2C000296970074CBF114391432961E9693006F0
:10F2D0004CBF0A4321EA0202EA61214640460193FB
:10F2E000FFF7C4FE0028AAD10134E4B2019BA3E7D2
:10F2F00021EA0201D7E700BF002584402DE9F84349
:10F30000484E3568012D61D12F464FF00009464A1D
:10F3100093681268DC69D2F80880D3E902120A40C7
:10F32000D3E90510014322EA0102D8F800101B6955
:10F3300009695C404C4022EA0404002A35D132605D
:10F34000002301279E46394EDFF8E4C0D6F8042397
:10F3500007FA03F111420FD003EB0C02920011687F
:10F36000012909D103F5A27056F82000C2F800E087
:10F37000C0F3042081400C430133082BE6D13CB399
:10F38000294FD7F80880D8F8001009B30E68D8F8CC
:10F390000C308A682340134203D04B68224638461B
:10F3A0009847AEB131463668F1E73A420AD098F84C
:10F3B000043009F01F00002140EA4310FFF744FE2B
:10F3C00022EA070209F101097F00B6E70024B7E746
:10F3D000012D0DD10026144B9C681B689F68D4E951
:10F3E00002321A40D4E905310B4322EA03020AB97A
:10F3F000BDE8F883154212D0E169236997F804C08B
:10F400004B40F34013F0010F06F01F000CBF032127
:10F41000022140EA4C10FFF717FE22EA05020136EE
:10F420006D00E4E77C1103400859022000100340FE
:10F4300040C4001010B50446002201210B20FEF745
:10F4400061FB2368114A9868234600F10C0100F023
:10F450003DFB0F4B984214D001234FF000020D49A1
:10F4600063F302020C4B6FF3C5025B1ADB0863F314
:10F470008F1223680948196801F0DBFE6FF00F0056
:10F4800010BDA06802F0E4FC0020F9E72DF50000B3
:10F490000000AD0B5025010090250100C62E010093
:10F4A0007FB58568EA6B6B6C8AB9002B33D11C463B
:10F4B00000222846114602F0A1FC6C6205F11400FE
:10F4C00001F056F9002385F84C3004B070BD23B329
:10F4D0009342194628BF11460068AC6B80680094BF
:10F4E0008668B14228BF3146A964C4B1002A18BF5A
:10F4F0000A4601922A6C02929AB1002B18BF0B4661
:10F5000000226946039300F083FB074B9842DCD04E
:10F510006FF00404CCE71946DEE71146DCE722462B
:10F52000E7E71346ECE700BF0000AD0B007838B505
:10F530000D4600285BD18C68E36B93B1A26C9A42B4
:10F5400029D901234FF00001294A63F30201294B15
:10F5500060F3C5019B1ADB0863F38F11264801F0A5
:10F560005BFE636C93B1A26C9A422AD901234FF0DF
:10F5700000011F4A63F302011E4B6FF3C5019B1A82
:10F58000DB0863F38F111C4801F046FE2846BDE8F6
:10F590003840FFF785BF9B1AE36363B9E36A013B19
:10F5A000E36263B1A36A03F10802A2629A68DB68AE
:10F5B000A263E363D5E7A36B002BD2D01344A3630C
:10F5C000CFE79B1A636463B9636B013B636363B109
:10F5D000236B03F1080222639A68DB682264636488
:10F5E000D4E7236C002BD1D013442364CEE738BD7D
:10F5F0005025010090250100A82E01002DE9F047BB
:10F6000007468068884616461D4604304FF0FF3195
:10F6100001F0D4F8BC682368984500F0BE80B8F8C3
:10F620000430386813F0010C18D001234FF00002A9
:10F63000884963F30202884B6FF3C5025B1ADB084B
:10F64000016863F38F12854801F0F3FD6FF0150533
:10F65000201D01F08DF82846BDE8F08713F0080260
:10F6600010D001234FF000017A4A63F302017A4B74
:10F670006CF3C5019B1ADB08794863F38F1101F025
:10F68000CBFDE3E713F4C0510ED001234FF000018E
:10F6900063F3020162F3C5016F4B6E4A71489B1A16
:10F6A000DB0863F38F11EAE7C3F34513082B0FD090
:10F6B00001234FF0000263F3020261F3C502664BBF
:10F6C000644969485B1ADB0863F38F121146D6E779
:10F6D000D8F80020654B9A420FD801234FF0000262
:10F6E00063F3020261F3C5025B4B5A4960485B1A3F
:10F6F000DB0863F38F121146C1E7D8F80830D0F861
:10F700000890C4F80080002B6FD0186800286CD0D7
:10F710005A684368D3F800A00123D0472268936851
:10F72000B2F90420D3E90001D243D20F02F05DFB0D
:10F73000B8F80430D9F80010980703F0040265D532
:10F74000002A0CBF02220322022AC3F3001361D055
:10F75000032A62D0012A01D143F00203C1F85435D3
:10F76000444AD8F8003093425AD9434A93425AD96E
:10F77000424A93425AD9424A93425AD9414A934201
:10F780005AD902F5741202F5106293428CBF4FF001
:10F7900000434FF08043C1F82435012384F84C30F6
:10F7A000002E4CD033687268A362E2621A685B680C
:10F7B000A263E363002D47D02B686A68236362630A
:10F7C0001A685B6822646364002201216262204639
:10F7D00002F014FB3846FFF763FE4FF0FF3104F1EF
:10F7E000140000F0EBFF656A32E703234FF00001DD
:10F7F000184A63F30201184B6FF3C5019B1ADB082B
:10F8000063F38F11204801F007FD91E7003218BF24
:10F81000012299E743F00403A0E743F006039DE7C4
:10F820004FF00073B7E74FF08063B4E74FF0006329
:10F83000B1E74FF08053AEE74FF00053ABE7C4E9B8
:10F840000A66C4E90E66B5E7C4E90C55C4E910556B
:10F85000BAE700BF5025010090250100E62E010007
:10F86000082F0100272F01004A2F010047E801005F
:10F87000792F01008FD003001FA107003F420F0026
:10F880007F841E00FF083D00AA2F0100F0B54B79D0
:10F89000012B29D0032B24D101268B79032B20D1D6
:10F8A000CD792DB1012D1CD103689B681B79C3B1A3
:10F8B0000A7912B1022A14D10E2247F612270368E0
:10F8C0009B681C680B68BB4274D029D8B3F5965F5F
:10F8D0006AD014D8B3F5167F4FD007D8B3F5967F0A
:10F8E0007DD06FF022005BE00026D6E7B3F5966F7F
:10F8F00057D0B3F5166FF4D14FF41D233FE0B3F5A5
:10F90000615F53D004D8B3F5165FEAD1354B36E0CA
:10F91000B3F5964F4CD0B3F5E14FE2D1324B2EE028
:10F92000B3F5E13F4FD012D84DF6C027BB4244D0CB
:10F9300005D8B3F5164FD4D14FF41D031FE0B3F52E
:10F94000614F3DD0B3F5963FCBD1284B17E0B3F5CF
:10F95000E12F3ED008D8B3F5613F37D0244FBB42EA
:10F96000BFD14FF080630AE0B3F5612F34D0214F4F
:10F97000BB42B6D14FF0805301E04FF41C332A4311
:10F98000C4F82435C4F86C252EB1D4F86C3543F096
:10F990001003C4F86C35836803C983E803000020B2
:10F9A000F0BD4FF49E23EAE7134BE8E7134BE6E77D
:10F9B000134BE4E74FF40003E1E74FF46503DEE7A0
:10F9C0004FF46B03DBE74FF0EB73D8E74FF06C734A
:10F9D000D5E74FF0E863D2E74FF07063CFE74FF41D
:10F9E000A033CCE70050270000C0750000903A011A
:10F9F00090D0030040420F0000B0130000F03A0026
:10FA000000A04E00026870B59268184B14684FF061
:10FA10000052856803219A601D260022C3F87412E3
:10FA2000C3F87022C4F80C651C26C4F814654FF0A6
:10FA300000669E60C3F86C12C3F868221B23C4F8EA
:10FA400008351A232946C4F81035FFF71FFF58B9A7
:10FA50000823C4F800351D440123C4F81001C4F87C
:10FA60003455C4F83835236070BD00BF002584408C
:10FA7000F0B5DAB100231C460E4E0F4FB34206D349
:10FA8000002C14BF6FF008006FF0010009E057F878
:10FA90002350D5F80CC0604506D14C1E11B908465C
:10FAA0001560F0BD214601240133E7E76FF00D003A
:10FAB000F7E700BF00000000E8300100014B024AF8
:10FAC0001A607047845802200090D0032DE9F04757
:10FAD0009646242204794A4D6243AE18377F002FA0
:10FAE00040F08C80006845F802E00122736091F8D4
:10FAF000008091F80CC0434B02FA08F2BCF1010FF0
:10FB000094BFDA609A60012208F1800643F826204B
:10FB10004E78FF2E1FBF0327B240DA6006F1800245
:10FB200018BF43F822708F7808BF4FF0FF36FF2FC1
:10FB30001EBF4FF0040A07F1800243F822A04FF0E5
:10FB4000240202FB045282F8207018BFB946CF7815
:10FB500008BF4FF0FF39FF2FD77710D0012291F85F
:10FB600004A0BA40BAF1000F40D0DA600322803717
:10FB700043F82720242303FB045383F81EA08B683B
:10FB8000C0F80885C0F80C65C0F81095C0F8243599
:10FB90004B7B003318BF0123BCF1020F28D0BCF10E
:10FBA000030F28D0BCF1010F01D143F00203C0F8CC
:10FBB00054358B79C0F8C035BEF1000F02D0402318
:10FBC000C0F804330723C0F80035BEF1000F03D09E
:10FBD00040F30730FDF786FF242303FB0454002382
:10FBE0006377012308482377BDE8F0879A60BDE773
:10FBF00043F00403DBE743F00603D8E70348F3E7E9
:10FC00008C010220002584400000AD0B0500AD0BE7
:10FC100024232DE9F04104793F4D63431746EA1848
:10FC20000E46517F8046002973D1EB5823B117F05F
:10FC3000140F04BF012353774FF0240C96E80F00F4
:10FC40000CFB045C0CF10C0E8EE80F009CF81F20DE
:10FC5000FF2A06D001239CF81E1093402F4AB1B111
:10FC60009360316821B101F06043B3F1005F06D1C8
:10FC7000B26872B102F06043B3F1005F09D024238F
:10FC800003FB0454002326486377BDE8F081D3606A
:10FC9000E7E7D8F800307068C3F84415C3F84805A2
:10FCA000F168C3F834250022C3F83815C3F81821C9
:10FCB00017F0010218BF0122C3F8502517F0020205
:10FCC00018BF0122C3F840253A075CBF01221A6120
:10FCD00024226243AA589AB9D3F81821002AFBD0EB
:10FCE000242303FB0454E27FFF2A05D00123A17FD4
:10FCF00093400A4A11B1D3600A48C6E79360FBE714
:10FD0000402217F0040F14BFC3F80823C3F80423DC
:10FD1000F2E70548B9E700BF8C01022000258440C6
:10FD20000A00AD0B0000AD0B0B00AD0B0D4BD3F873
:10FD30001821AAB10022C3F818210B4BD97FFF2943
:10FD400005D00122987F8A40084938B1CA60002254
:10FD500007485A771A72D3E9002110478A60F6E7FC
:10FD6000704700BF00B000408C0102200025844095
:10FD70009401022070B50026084B53F82040013052
:10FD800053F82050A54200D870BD236820465B6818
:10FD9000984700B166600C34F4E700BFE826010024
:10FDA000104B70B505461E460F4C9C4204D10E4CBC
:10FDB000B44209D1002412E062681AB122681268C4
:10FDC000AA420CD00C34F0E763680BB90C34EFE7AF
:10FDD00023682846196801F080FE0028F6D12046E5
:10FDE00070BD00BF2C5902209058022010B5044667
:10FDF000FCF7F8FE01234FF00001084A63F302010B
:10FE0000074B6FF3C5019B1ADB08064863F38F119C
:10FE100001F002FA204602F078F800BF50250100F8
:10FE200078250100EE2F01002DE9F04106468846B5
:10FE300000F098FC01224FF000031E4C62F3020315
:10FE40001D4A042EA4EB020498BF1C4AC4F3C90443
:10FE50006FF3C503074664F38F1394BF52F826204F
:10FE6000174A1848314601F0F8F94FF00005012310
:10FE700063F302056FF3C505384664F38F1502F08E
:10FE800061F9A8B10278104B002A08BF1846FCF7A8
:10FE9000ABFD2B46024639460C4801F0DEF94146DF
:10FEA0003046FFF7A3FF3846BDE8F041FEF7CEB974
:10FEB0000548ECE7782501005025010000270100E6
:10FEC000473001005D300100553001007B300100FA
:10FED00008B50B4D4FF02002EFF3118382F3118828
:10FEE000BFF36F8F02F06DF9012104460228D8BFDD
:10FEF000084602F076F92C62FDF79EFDEAE700BFA6
:10FF0000EC4202200248034A0021121A01F01FBEEF
:10FF1000000002203443022008B50648064A07497B
:10FF2000121A01F0E7FDBDE80840054A05490648F8
:10FF300001F0E0BD1C5802206C590220E83001009D
:10FF400000000000E83001000000022008B5022097
:10FF5000FFF710FF074801F02CF90320FFF70AFF15
:10FF600000F0BEFCFCF71EFB034A137B23F00103E9
:10FF7000137308BD933001001C02022080B5A2B0AB
:10FF8000FCF796FC334B83F308880024E023324DC2
:10FF9000012785F82230EC772C766C76AC766B6A8C
:10FFA0002E4E43F4E0236B62FEF73CF9FDF73EFD75
:10FFB0004FF0FF33AB62EB6207AB6C222146184671
:10FFC00001F0C5FDB06020468DF82970FFF7D2FE24
:10FFD0003846FFF7CFFE224D00F06AFB214B4FF46D
:10FFE0008062CDE90473CDE902441F4BCDE90044A2
:10FFF0001E492846756200F029FC6B7B23F0040241
:020000021000EC
:1000000013F01B0F6A7304D1AB6913B9284600F0D3
:10001000CFF9174B012205930F23CDE903320023BB
:10002000144DCDE9013300934FF4A072124B1349E4
:10003000284600F00BFC6B7B4FF4806223F0040336
:100040006B730F4B0949C6E906330548064BF5604B
:10005000FDF79AFD7853022000ED00E0EC4202200B
:100060001C020220DD3001004DFF00003846022056
:10007000E2300100B0010220D1FE0000384A022027
:100080000443022070B500240A4B0B48834201D37D
:10009000002070BD00211A699D685C61A94201D1F0
:1000A0001C33F3E75E6901311660DE685A61324441
:1000B000F4E700BF2C5902202C59022010B513463A
:1000C0000C464FF02002EFF3118182F31188BFF349
:1000D0006F8F426962B1226043691B684361836923
:1000E00001338361002081F31188BFF36F8F0DE02E
:1000F0001BB923606FF00B00F5E70246044800F0DF
:1001000095FA18B9034B9B685B69236010BD00BF6B
:1001100031430220EC42022070B504460D464FF0F8
:100120002003EFF3118683F31188BFF36F8F01F083
:10013000AFFF80B100212A6881664261427BD2060E
:1001400003D183690BB900F033F93146BDE8704043
:10015000074801F03DBF2B6862691A602B68636134
:10016000A369013BA36186F31188BFF36F8F70BD54
:100170003143022038B5074C074DAC4201D3002073
:1001800038BD04F114032046C4E9053300F07DFDB9
:100190001C34F2E72C590220485902202DE9F04F77
:1001A0001C1E85B007460D4692463BDD02F037F82F
:1001B00010EB04081D4B1E4EFB1A9B105E4307F10B
:1001C000140BF6B203AB02AA00955146384600F074
:1001D000A8FD6B79029A2E7162F303036B716B6851
:1001E000039A62F31F336B60C8B1C4B110F10C0FF6
:1001F00015D14FF02003EFF3118083F31188BFF383
:100200006F8F2246594600F0EDF9631CDAD002F0F8
:1002100006F8A8EB0004002CD4DC6FF00A0005B04F
:10022000BDE8F08F4FF00008C4E700BF2C59022052
:10023000B76DDBB60146014801F084BE2C5902209F
:10024000EFF305800D2809D828B1054B586880F4D4
:100250000060C0F3C02080F0010070470120FAE781
:1002600000ED00E010B5084C23685BB1FDF762FBC0
:100270002368064A184410610021BDE81040184662
:1002800001F0AFBF10BD00BF24430220EC420220AA
:10029000F8B50D464FF02003EFF3118483F3118876
:1002A000BFF36F8F4FF4004140F2E7360027002282
:1002B000C1FB0067094B30461A6139464FF47A7228
:1002C0000023FBF7ADFF064B1860064B1D60FFF7E0
:1002D000C9FF84F31188BFF36F8FF8BDEC42022091
:1002E00024430220204302204FF02003EFF311812A
:1002F00083F31188BFF36F8F044B9A68D37B013B64
:10030000D37381F31188BFF36F8F7047EC420220E3
:10031000094B03F12802824205D19B688B4202D12E
:100320004B7BDB0607D1D1E900231A600A685360D2
:100330000023C1E900337047EC42022038B50D4C70
:10034000024604F1280001F06CFE054600B9E5689C
:10035000A3684AB95A7BD20606D1AA6922B9DA89BA
:100360007F2A01D9636238BD9D4201D0FFF77AFF31
:100370006562F8E7EC42022010B54FF02003EFF37E
:10038000118483F31188BFF36F8F084B00209A68A4
:10039000D37B0133D373FFF7D1FF84F31188BFF30D
:1003A0006F8FBDE8104001F032BE00BFEC4202206A
:1003B000F8B54FF02003EFF3118483F31188BFF3F6
:1003C0006F8F164A114651F8283F8B420CD05BB113
:1003D000D66A90F90E5093F90E70AF420BDCB3421F
:1003E00002D01B68002BF6D1D36A01604360D36A48
:1003F0001860D06205E05A68C0E900325A6810609F
:100400005860437B43F0400343730020FFF796FF9F
:1004100084F31188BFF36F8FF8BD00BFEC42022058
:10042000F8B504464FF02003EFF3118583F31188EC
:10043000BFF36F8F437B5A0603D501461848FFF779
:1004400067FF184A02F12801D2E90A308B420BD02B
:1004500053B194F90E6093F90E70B7420ADC8342EF
:1004600002D01B68002BF6D1C4E90010D36A1C60CF
:10047000D46205E05968C4E9003159680C605C60D9
:10048000637B906843F040036373031B58425841F9
:10049000FFF754FF85F31188BFF36F8FF8BD00BFDE
:1004A00014430220EC420220154A164938B50C6864
:1004B0009368A342144603D1BDE83840FFF7D2BE8B
:1004C00000250D6010490968B9B1D9897F2914D870
:1004D0000E4993F90E5009688D420EDB0C498B4290
:1004E0000BD0996949B91169814203DC1846FFF7BD
:1004F00097FFE1E7091A116138BD00232361FBE78B
:10050000EC4202201C43022024430220204302200C
:10051000B001022038B504464FF02003EFF31185F7
:1005200083F31188BFF36F8F437B5A0607D50146CB
:100530000948FFF7EDFE637B23F040036373074B2D
:100540009868031B58425841FFF7F8FE85F311885D
:10055000BFF36F8F38BD00BF14430220EC4202206E
:1005600070B504460D461646FFF7D4FF637B43F093
:1005700002036373EDB12B68A5609D420CD05BB1A3
:1005800094F90E2093F90E1091420CDC69688B42AD
:1005900002D01B68002BF5D16B68256063606B6827
:1005A0001C606C6005E05A68C4E900325A68146047
:1005B0005C60731C13D04FF4004540F2E73000211B
:1005C0004FF47A72C5FB06010023FBF729FE0449AC
:1005D000421C04F11800BDE8704000F017BA70BD6D
:1005E0002F20010070B506460E4D0F4CA868FFF78E
:1005F000B7FFAB6830462360FDF75AFA4FF0200290
:10060000EFF3118382F31188BFF36F8F2268A9681B
:10061000914204BF0022226083F31188BFF36F8FE1
:1006200070BD00BFEC4202201C43022010B50C46F6
:100630001146064A9068064A10601A46FFF790FF76
:100640002046BDE81040FDF733BA00BFEC4202205F
:100650001C430220F8B5461C01F0DDFD34184FF0B4
:100660002003EFF3118783F31188BFF36F8F0D4DD4
:100670000D4BA8681860FFF74DFFA8680B4932467C
:10068000183000F0C3F9AA683846537B43F01003D2
:100690005373FDF70DFA01F0BEFD201A20EAE07059
:1006A000F8BD00BFEC4202201C4302202F200100B5
:1006B0000021044B084603F12802C3E90A22FFF790
:1006C000E7BD00BFEC420220F8B5244C244BA268E1
:1006D0009A4236D04FF02003EFF3118683F311884E
:1006E000BFF36F8F04F12805A1682846FFF710FEBD
:1006F000A26AA368AA420CD05AB1E06A93F90E101C
:1007000092F90E708F420BDC824202D01268002AEE
:10071000F6D1E26A1D605A60E26A1360E36205E0A6
:100720005168C3E9002151680B6053605A7B012076
:1007300042F040025A73FFF701FE86F31188BFF3BF
:100740006F8F4FF02003EFF3118083F31188BFF315
:100750006F8FBDE8F840FDF7ABB900BFEC42022057
:10076000B0010220014B9868704700BFEC420220A4
:1007700070B504464FF02003EFF3118683F3118820
:10078000BFF36F8F01F084FC054670B1437BDB063D
:1007900003D183690BB9FFF70BFE0023AB6631462B
:1007A000BDE87040044801F013BCD4E902329A421B
:1007B00018BF0133A360F2E73143022010B40246B0
:1007C0000B464FF02000EFF3118180F31188BFF347
:1007D0006F8F946844B1013C946081F31188BFF33A
:1007E0006F8F002010BC704733B981F31188BFF3BD
:1007F0006F8F6FF00F00F5E7014810BCFFF716BFD1
:100800003143022010B502464FF02003EFF311846C
:1008100083F31188BFF36F8F437B590704D484F3AC
:100820001188BFF36F8F10BD23F00403437301F0F1
:100830007BFC10B11046FFF7BBFD2146BDE8104020
:10084000014801F0C5BB00BF3143022030B587B07D
:100850000E9D044604950D9D03950C9D02950B9DE0
:1008600001950A9D0095FDF765F9044B9B6813B946
:10087000236607B030BD1B6EFAE700BFEC420220D2
:1008800070B5002686B005960E9E0F9D04960D9EAF
:10089000044603960C9E02960B9E01960A9E0096B5
:1008A000FFF7D4FF6B1C03D02DB92046FFF7AAFF3A
:1008B000204606B070BD4FF4004640F2E7300021FC
:1008C0004FF47A720023C6FB0501FBF7A9FC03492C
:1008D000421C04F1180000F099F8E9E72F2001000C
:1008E0002DE9F04F284E294DB04687B0B54205F1AD
:1008F000300410D3FFF7F8FC4FF4004940F2E7361C
:100900000027224CDFF888A0444521D307B0BDE87A
:10091000F04FFFF731BD54F8043C059354F8103CF8
:10092000049354F8143C039354F8183C029354F87D
:100930001C3C019354F8203C009354E90A2354E9E9
:100940000C01FFF783FF54F8303CDD642546CDE70A
:10095000616A4B1C04D0256821B92846FFF752FF75
:100960003034D1E7B346BC46C9FB01BC4FF47A72C0
:10097000002358466146FBF753FC5146421C05F1E3
:10098000180000F043F8EBE72C5902202C59022004
:100990002F200100034B1B680BB9FCF7CBBF0020D5
:1009A000704700BF28430220036840B1084A5268DC
:1009B000904204D01BB19A6881680A449A604268E8
:1009C000136003685A600023C0E90033704700BF1A
:1009D000885802200B4B10B51C689C4208BF0024AD
:1009E000FFF7D8FF54B1A368181A20EAE070064B4D
:1009F0001B6913B19842A8BF184610BD6FF00040A4
:100A0000F5E700BF88580220EC42022070B504468A
:100A10001646C1604FF02003EFF3118583F3118870
:100A2000BFF36F8FFFF7B6FF012EACBF8019013007
:100A3000174BA0601A689A4201D05E6832B95A68B2
:100A4000236062605A6814605C600BE09068A16883
:100A5000884216DD411A91605168C4E9002151684D
:100A60000C6054601A689A4206D0944204D1FFF791
:100A7000B1FF0021FCF710FF85F31188BFF36F8FE2
:100A800070BD091A9642A160D9D01268D6E700BF9E
:100A9000885802202DE9F04B0446FFF705FD4FF082
:100AA0002003EFF3118583F31188BFF36F8F214F7C
:100AB000214EB846DFF884903460D9F8004032689F
:100AC0004C45D7E900BC05D024B1A368934214DD9E
:100AD0009B1AA36000241BEB02004CEBE271C8E9F7
:100AE00000013460FFF776FF2146FCF7D5FE85F361
:100AF0001188BFF36F8FBDE8F08B1BEB03004CEB4D
:100B0000E371D31A33600023C7E90001A3602046D4
:100B1000FFF74AFF85F31188BFF36F8FE3689847AB
:100B20004FF02003EFF3118583F31188BFF36F8F2C
:100B3000C3E700BF0000022028430220885802209B
:100B40002DE918484FF02003EFF3118483F3118847
:100B5000BFF36F8FFCF7EEFE074BD3E9002312EBD8
:100B6000000B43F1000C5846614684F31188BFF333
:100B70006F8FBDE8188800BF00000220026A38B5F8
:100B8000002A044602DD0E49FFF740FF636A013385
:100B90006362A3690BB12046984754F8105FA542E1
:100BA0000DD065B1284601F0FAF96B7BDB0604D164
:100BB000AB6913B92846FFF7FBFB0023AB6638BDD2
:100BC0007D0B01002DE9F34140F2E7360027044692
:100BD00088464FF40045304639460023C5FB0201E4
:100BE0004FF47A72FBF71CFB3946009030464FF405
:100BF0007A720023C5FB0801FBF712FB0190204627
:100C000001F0C9FA009B204623620023019A0349A0
:100C1000636202B0BDE8F041FFF7F8BE7D0B010052
:100C200010B44468A468A44610BC604740E800F3D0
:100C300013F4803FD8B208BF6FF01500704770B54D
:100C40000C254D43C66890F90B0074198842A8BF63
:100C500021464FF0200492FBF4F4B8BF715902F022
:100C60001F0001EB8401196070BD4FF02003EFF30A
:100C7000118083F31188BFF36F8F7047C30703D5CB
:100C800081F31188BFF36F8F7047FF232DE9F74F72
:100C90004568002229464FF00C0A4FF0200B0789C7
:100CA000046805FB07FCC372837A64440193019BCB
:100CB000934208DC002319468F4205EB030C21DC2C
:100CC00003B0BDE8F08FBCFBF1F3202B84BF1F33D2
:100CD00093FBFBF30AFB02FED0F80C804FEA910174
:100CE00008EB0E0606F10409C6E9019921F003019B
:100CF00094BFC27248F80E4002F1010288BF04EBB3
:100D00008304D4E7C268066802F1040EF41846F8BA
:100D100003E093680131636093681C6094606346EC
:100D2000CAE72DE9F04F89B0847A00AFC7E90232F3
:100D3000A3000A3303F4FF63ADEB030DEA46534609
:100D40004268054643F804290022944202F1FF3923
:100D500009DD22B11868800820F00300586053F8BC
:100D6000040F884208D2B9F1FF3F07D10023BA6CC3
:100D700013606FF00B0047E00132E6E7287C10F0CB
:100D8000010001D0FFF771FF0C23C84603FB09F3F4
:100D90001A1DEB68786113441C68A34270D0D4E933
:100DA00000231A6022685AF8281053600023C4E90F
:100DB00000332B6807F11C0BE21A92FBF1F25B4641
:100DC00041462846FFF73BFF0122F96902FA00F08D
:100DD0000B680AEB880603430B607A60C84517DB93
:100DE0007969287CFFF74AFFBB6C1C60002CC0D0DF
:100DF000FB680020C3F800902B68E41A5AF82930E9
:100E000094FBF3F4BB681C602437BD46BDE8F08F4B
:100E10002B683268E31A93FBF2F208F101085B4693
:100E2000920041462846FFF70AFFFA697B68E968A5
:100E300003FA00F01368034313600C23032203FB3F
:100E4000081156F8040F01F1040E23183A618A685C
:100E5000C3F800E05A608A6813603A698B60013A0F
:100E600003443A61F3D17969287CFFF707FF2B7CB3
:100E7000DB0703D5FFF7F9FE7861AFE73869FBE7D9
:100E800008F1FF38B8F1FF3FA4F10C0384D100242E
:100E9000A6E7044608B5084611461A46A047FFF7DC
:100EA00061FCFDF7D3F90020704770B50D4604468C
:100EB0004520A04729465220A04729462346BDE8A1
:100EC0007040522018472DE9F04F002705460E4686
:100ED00092461C464FF0FF39B846BB4689B09AF897
:100EE000000010B909B0BDE8F08FBBF1000F07D1C9
:100EF000252800F04E813146A8470AF1010AEEE7A5
:100F0000642868D01AD839280BD831285AD22D280D
:100F100000F04681302846D0252808D13146A84720
:100F20007AE0582800F0B480632800F02C81314624
:100F30002520A84731469AF80000F0E7702800F015
:100F40009D800DD8692846D06C2803D16C2F26D1FE
:100F50004C27D2E76828EAD1682F20D14827CCE770
:100F6000752870D017D87328E1D1226804F1040BDA
:100F700011460C4614F8010B002840F0F980B8F136
:100F8000030F40F013818C1AA9EB0404002C00F32A
:100F9000F5805C4640E078287AD07A28C7D1002FC7
:100FA000C5D10746A9E7B9F1000F0EDAB8F1000F75
:100FB00000F0F980A0F13009B8F1000F08BF4FF040
:100FC00002089AE7B9F1000FF4DB0A2202FB0909D3
:100FD000A9F13009F0E77A2F03D1D4F800B0043436
:100FE0001EE06C2FF9D04C2FF7D14FF0000C4FF0D2
:100FF000FF3B073424F0070303F10804D3E900237F
:1010000012F1004043F100018C4508BF834506D230
:1010100031462846FFF749FF4FF0000B6DE7934636
:10102000BBF1000F06DA31462D20A847CBF1000BAB
:1010300009F1FF3943465A46CDF80090314628461B
:10104000FBF786FBE8E77A2F02D12268043411E02F
:101050006C2FFAD04C2FF8D100214FF0FF3007341D
:1010600024F0070303F10804D3E90023994208BFE1
:101070009042CDD3CDF800904346DFE73146302093
:10108000A84731467820A8474FF008094FF00108DB
:101090009AF80020702A05D12368043404930023B1
:1010A00002930CE06C2FF7D04C2FF5D1073424F0CD
:1010B0000702136802F108040493536802930022A4
:1010C0001023039205924022043A02990498C2F137
:1010D000200CA2F1200ED04001FA0CFC40EA0C00DA
:1010E00021FA0EFE40EA0E0010F00F0008D105991B
:1010F00001B942BB4FF0300C08E0CDF814B0E3E783
:1011000009288CBF4FF0570C4FF0300C314660442B
:10111000CDE90523A847039B01330393DDE90523AC
:10112000002AEAD1B8F1030F7FF476AF039BC3EB3B
:10113000490BBBF1000F7FF76FAF31462020A84766
:101140000BF1FF3BF5E7591E9945069107DBB8F116
:10115000010F06D1314630200792A847079A069B17
:10116000B2E7B8F1020FFAD1079231462020F4E736
:1011700031460292A8472146029AFAE631462020DB
:10118000A847013C02E73146206804F1040BA84758
:10119000FFE65F46D8464FF0FF394FF0010BACE653
:1011A0004FF00308A9E64FF00108A6E65C46834627
:1011B000A3E60FB407B504A951F8040B0191FBF79E
:1011C00019FB03B05DF804EB04B070477047FEF7FD
:1011D00075BC0023C0E900337047036823B9016080
:1011E000002341600B60704743681960F8E70068AE
:1011F000704703680BB11A6802601846704708B55B
:10120000FBF7C8FD18B1012343600023038108BD2B
:10121000FCF7AABB0020704738B505460C46FFF71F
:10122000EEFF28B105612146BDE83840FBF720BD3F
:1012300038BD70B504460E461546FFF7E0FF58B1BD
:1012400001220461447A466162F30714447229461C
:10125000BDE87040FBF70CBD70BD2DE9F0410546BF
:10126000884617461E46FFF7CAFF60B10223056194
:10127000457AC0E9058763F3071545723146BDE835
:10128000F041FBF7F5BCBDE8F0812DE9F8430546D8
:10129000894690461F46BDF82060FFF7B0FF68B151
:1012A00003230561457AC0E9059863F30715457284
:1012B000C7613146BDE8F843FBF7DABCBDE8F88307
:1012C00010B51C4600F093F820B12146BDE810404F
:1012D000FBF7CEBC10BD2DE9F8431C4603890E4632
:1012E0009B08A3429DF8207003D800231360BDE83B
:1012F000F88311682144994284BF191B11600C2B9B
:10130000D2F8009028D9072CD0F814802BD80823C5
:1013100018304B4528BF4B4620441D461A46FFB1A6
:10132000314600F0E7FBA9EB05092E44B9F1000FA7
:10133000DDD0C4F11C054D4528BF4D46201D40445D
:101340002A46BFB1314600F0D5FBA9EB0509D8F814
:1013500000802E440024E9E714304FF00008D8E75D
:1013600001463046DDE7083C1B2CDFD9D8F8008069
:101370001C3CF9E701463046E5E70430D0E8EF3F92
:101380000133C0E8E23F002AF8D17047407A0009F3
:101390007047437A1B098B4216D9032B03D800EB05
:1013A000810148697047012903D800EB81018869F0
:1013B000704743690239062903D803EB8101486865
:1013C000704707391B68F6E7002070470346021D87
:1013D000D2E8EF1F0139C2E8EC1FBCF1000FF7D1D2
:1013E0005B680BB9FBF7E8BC7047006970472DE9F3
:1013F000F84F824688461546FBF7CCFC044660B39E
:1014000001230026032D436006810FD9427AA5F1FE
:10141000020966F307124272027A00F1140B42F0DD
:10142000020202724661B9F1000F0EDC637A032DED
:1014300065F30713C4F810A0637218D8AA004146D8
:1014400004F1140000F056FB07E0FBF7A3FC07468D
:1014500030B92046FBF7B0FC3C462046BDE8F88F8B
:10146000CBF80000A9F1070906608346DBE7414697
:10147000082204F11800676900F03CFB023D08F106
:101480000808072D2E4628BF07264FEA8609414641
:10149000381D4A4600F02EFBAD1BC8443F68F0D112
:1014A000DBE713B500240094FFF715FF02B010BD71
:1014B000F8B506460D4614461F46214628463A46CC
:1014C000B047241A0544F8D1F8BD2DE9F0478EB095
:1014D0000EAF81460D46FFF788FF06464846FFF7E8
:1014E00055FF4FF00008824683000E3323F00703B8
:1014F000ADEB030D0EACD04516D14846FFF746FFC5
:101500000F281ED8DFE810F01900200026002D005B
:10151000360041004E005D006E0081009600AD0077
:10152000C600E100FE001D0141464846FFF731FFBD
:1015300044F8280008F10108DDE731462846FBF7AA
:101540006FFCBD46BDE8F087226831462846FBF7B0
:1015500067FCF6E7D4E9002331462846FBF760FC38
:10156000EFE7A36831460093D4E900232846FBF750
:1015700057FCE6E7E36831460193A36828460093E9
:10158000D4E90023FBF74CFCDBE7236931460293E7
:10159000E36828460193A3680093D4E90023FBF78E
:1015A0003FFCCEE7636931460393236928460293E3
:1015B000E3680193A3680093D4E90023FBF730FCB0
:1015C000BFE7A369314604936369284603932369FF
:1015D0000293E3680193A3680093D4E90023FBF727
:1015E0001FFCAEE7E36931460593A36928460493DF
:1015F0006369039323690293E3680193A3680093EB
:10160000D4E90023FBF70CFC9BE7236A31460693E1
:10161000E36928460593A3690493636903932369E7
:101620000293E3680193A3680093D4E90023FBF7D6
:10163000F7FB86E7636A31460793236A28460693D9
:10164000E3690593A3690493636903932369029390
:10165000E3680193A3680093D4E90023FBF7E0FB60
:101660006FE7A36A31460893636A28460793236AA3
:101670000693E3690593A36904936369039323695C
:101680000293E3680193A3680093D4E90023FBF776
:10169000C7FB56E7E36A31460993A36A28460893D5
:1016A000636A0793236A0693E3690593A369049326
:1016B0006369039323690293E3680193A36800932A
:1016C000D4E90023FBF7ACFB3BE7236B31460A93DD
:1016D000E36A28460993A36A0893636A0793236A17
:1016E0000693E3690593A3690493636903932369EC
:1016F0000293E3680193A3680093D4E90023FBF706
:101700008FFB1EE7636B31460B93236B28460A93CE
:10171000E36A0993A36A0893636A0793236A0693AB
:10172000E3690593A36904936369039323690293AF
:10173000E3680193A3680093D4E90023FBF770FBEF
:10174000FFE6A36B31460C93636B28460B93236B28
:101750000A93E36A0993A36A0893636A0793236A67
:101760000693E3690593A36904936369039323696B
:101770000293E3680193A3680093D4E90023FBF785
:101780004FFBDEE6426810B5D2E9002304468168CB
:101790000068FFF78DFE002263681A6010BD08B56F
:1017A000D1E901321B68D0544A68136801331360D1
:1017B000CA68934202D10846FFF7E4FF002008BD43
:1017C000F8B50D46164604464718BC4201D12846D6
:1017D000F8BD14F8011B736830465B689847F4E75E
:1017E00083685A7A32B993F908000028CCBF0020E8
:1017F0000120704702207047026870B596688468BF
:101800004FF02003EFF3118583F31188BFF36F8F3F
:10181000237A013B5BB2002B23721CD1C4E9003355
:101820007368A3B90122F37A03F1804303F5A0435F
:101830001A600022338903F1804303F5A0431A6044
:101840000020607285F31188BFF36F8F70BD9847D9
:101850000028E7D1F4E74FF00000BCBF20726FF022
:101860004400EFE7F8B50368064614469F688568AC
:101870004FF02003EFF3118283F31188BFF36F8FD2
:101880002B7A01335BB22B7282F31188BFF36F8F17
:101890006A7A32B10CB90020F8BDD4E90131984719
:1018A000F9E7012B08D13B6843B90122BB7A03F168
:1018B000804303F5A0431A604CB9ECE79847002831
:1018C000F3D1002CE7D0D4E90131304698472B689A
:1018D0009C420DD013B11B68002BF9D10020206071
:1018E0006B6813B9C5E90044D5E71C606C60D3E7A9
:1018F0006FF04400D0E70022FFF7B4BF83680020F8
:10190000C3E90000704738B58468054623682BB1E9
:1019100061681A688B42226008BF626001226272AD
:1019200003B938BDD3E90121284690472368002B2D
:10193000F7D061681A688B42226008BF6260EFE7E7
:101940006FF022007047002070476FF02200704750
:1019500038B50C46856810220021204600F0F7F8C3
:10196000EB8C2380AB8C6380102363602373002394
:10197000637338BD10B41346426854680A46A446DF
:10198000002110BC60476FF02200704710B443681C
:101990000A225C6881F00103A446002110BC604764
:1019A0000185428570472DE9F041054686B01F4606
:1019B00006AB03F8111D2C4601210293006A02AB0D
:1019C00016460391CDE90431FFF7E0FF54F8040B0C
:1019D000436804AAD3F8008021460023C04766B1BB
:1019E000286A0021CDE90267FFF7D0FF2868436825
:1019F00004AA1D6821460023A84706B0BDE8F0816F
:101A000008B5002328211A468068FFF7CCFF002084
:101A100008BD08B5002329211A468068FFF7C3FFD7
:101A2000002008BD70477047FCF70CB801460068FD
:101A3000FCF7CAB808B5FCF717F8BDE80840FBF793
:101A4000ADBF07B5002101A8FCF7EAFD03B05DF8C2
:101A500004FB30B54B6885B00C689DF808200D89F3
:101A60000094498924F01F04013B234465F30402D8
:101A700061F3471223F01F030F288DF8082003930A
:101A8000044605D9FCF74AFC0446204605B030BDA3
:101A90006946FCF72BFCF8E770B5054601392C4682
:101AA00042B111F8013F561E2BB92A4404F8013BFC
:101AB000A242FBD170BD05F8013B3246EFE7C9B247
:101AC000027803468A4200F1010004D0002AF7D1CF
:101AD000002918BF0023184670470138013910F853
