:10C00000487F02207DDE00003D2E0200EDDB0000B7
:10C01000EDDB0000EDDB0000EDDB0000EDDB000000
:10C02000EDDB0000EDDB0000EDDB0000B5DB000028
:10C03000EDDB0000EDDB000005DB0000F9D70000C0
:10C0400019DC000019DC000019DC000019DC00001C
:10C0500019DC000019DC000019DC000019DC00000C
:10C0600019DC000019DC000019DC000019DC0000FC
:10C0700019DC000019DC000019DC000019DC0000EC
:10C0800019DC000019DC000019DC000019DC0000DC
:10C0900019DC000019DC000019DC000019DC0000CC
:10C0A00019DC000019DC000019DC000019DC0000BC
:10C0B00001F80000FB34020019DC000019DC00006C
:10C0C00019DC000019DC000019DC000019DC00009C
:10C0D00019DC000019DC000019DC000019DC00008C
:10C0E00019DC000019DC00001D35020019DC00001D
:10C0F00019DC000019DC000019DC000019DC00006C
:10C1000019DC000019DC000019DC000019DC00005B
:10C1100019DC000019DC000019DC000019DC00004B
:10C1200019DC000019DC000019DC000019DC00003B
:10C1300019DC000019DC000019DC000019DC00002B
:10C1400019DC0000000000000000000000000000FA
:10C1500000000000000000000000000000000000DF
:10C1600000000000000000000000000000000000CF
:10C1700000000000000000000000000000000000BF
:10C1800000000000000000000000000000000000AF
:10C19000000000000000000000000000000000009F
:10C1A000000000000000000000000000000000008F
:10C1B000000000000000000000000000000000007F
:10C1C000000000000000000000000000000000006F
:10C1D000000000000000000000000000000000005F
:10C1E000000000000000000000000000000000004F
:10C1F000000000000000000000000000000000003F
:10C20000DEE61E284CBBCE8F015B000018A80100A3
:10C210000100000000C00000888C0220ADFF00007B
:10C220007BB972B90029BEBF00204FF0004106E083
:10C2300008BF00281CBF6FF000414FF0FF3000F036
:10C24000BBB9ADF1080C6DE904CE002909DB002B68
:10C250001ADB00F04DF8DDF804E0DDE9022304B05C
:10C260007047404261EB4101002B1BDB00F040F8BE
:10C27000DDF804E0DDE9022304B0404261EB410156
:10C28000524263EB43037047524263EB430300F0B7
:10C290002FF8DDF804E0DDE9022304B0404261EB51
:10C2A00041017047524263EB430300F021F8DDF88F
:10C2B00004E0DDE9022304B0524263EB430370471C
:10C2C00053B94AB9002908BF00281CBF4FF0FF31FD
:10C2D0004FF0FF3000F070B9ADF1080C6DE904CEFD
:10C2E00000F006F8DDF804E0DDE9022304B0704751
:10C2F0002DE9F04F099E04468946002B40F08380CB
:10C300008A42154645D9B2FA82F24AB1C2F12007F3
:10C3100001FA02F39540944020FA07F747EA03092F
:10C320004FEA154E230C1FFA85F8B9FBFEFC0EFBF5
:10C330001C990CFB08F143EA094399420AD9EB180E
:10C340002CBF01200020994202D9002800F01D8155
:10C350000CF1FF3C591AA3B2B1FBFEF00EFB101119
:10C3600000FB08F843EA0144A04505D92C1902D284
:10C37000A04500F20E810138A4EB080440EA0C400D
:10C3800000271EB1D4400023C6E900433946BDE86A
:10C39000F08F002A51D0B2FA82F2002A40F0AF802A
:10C3A000491B4FEA154E1FFA85F80127230CB1FBF4
:10C3B000FEFC0EFB1C1108FB0CF043EA0143984203
:10C3C0000AD9EB182CBF01210021984202D900297B
:10C3D00000F0D7800CF1FF3C191AA3B2B1FBFEF0BC
:10C3E0000EFB101108FB00F843EA0144A04505D9F3
:10C3F0002C1902D2A04500F2C1800138A4EB080438
:10C4000040EA0C40BDE78B4208D9002E74D00027CB
:10C41000C6E9000138463946BDE8F08FB3FA83F724
:10C4200067B98B42C0F0A480824240F2A1803846B6
:10C43000002EABD0C6E90049A8E7FFDEC7F1200512
:10C44000BB4002FA07FC01FA07F4EA4020FA05F8BB
:10C45000E94000FA07FE1A4348EA04044FEA12488A
:10C46000200C1FFA82F9B1FBF8FA08FB1A110AFB3B
:10C4700009FB40EA01418B450AD951182CBF012321
:10C4800000238B4502D9002B00F088800AF1FF3A87
:10C49000A1EB0B01A4B2B1FBF8F008FB101100FBFB
:10C4A00009F944EA0141894504D9511801D2894565
:10C4B0007BD8013840EA0A40A1EB0901A0FB0C89B6
:10C4C000494544464B4602D306D1C64504D20138FD
:10C4D000B8EB0C0469EB0203002E5DD0BEEB040246
:10C4E00061EB030101FA05F522FA07F3F940002791
:10C4F0001D43C6E9005149E73746304646E7C2F1D9
:10C500002000954001FA02F721FA00F34FEA154E98
:10C5100024FA00F11FFA85F894403943B3FBFEF08A
:10C520000F0C0EFB103300FB08FC47EA03439C454D
:10C5300007D9EB182CBF012700279C4500D98FB3E2
:10C540000138A3EB0C0389B2B3FBFEF70EFB1733E4
:10C5500007FB08FC41EA03418C4504D9691801D264
:10C560008C4525D8013FA1EB0C0147EA00471DE7A8
:10C57000841A61EB03030120994659E702382C44E1
:10C580003CE7ACF1020C2B4426E7ACF1020C2B4447
:10C59000E0E602382C44EFE63746F7E6AAF1020A55
:10C5A000114475E702382B44CBE70238114481E788
:10C5B000023F2944D7E700BF704700BF70B491E83D
:10C5C0007800B2E802105B1854EB0C04B2E80210D9
:10C5D0004D4156EB0C0680E878008041013070BC7C
:10C5E000704770B491E87800B2E802105B1A74EBFF
:10C5F0000C04B2E802108D4176EB0C0680E878005E
:10C600008041404270BC70472DE9F00791E8F8077F
:10C61000B2E802105B1854EB0C04B2E802104D4172
:10C6200056EB0C06B2E802104F4158EB0C08B2E88A
:10C63000021059EB01095AEB0C0A80E8F807804117
:10C640000130BDE8F00770472DE9F00791E8F807E1
:10C65000B2E802105B1A74EB0C04B2E802108D41D0
:10C6600076EB0C06B2E802108F4178EB0C08B2E8CA
:10C67000021079EB01097AEB0C0A80E8F807804197
:10C680004042BDE8F00770472DE9F007524290E8BC
:10C690007800B1E880071740DB1918EA020854EB6C
:10C6A000080419EA020955EB09051AEA020A56EBD1
:10C6B0000A0678C090E87800B1E8800717407B410F
:10C6C00018EA020854EB080419EA020955EB0905B7
:10C6D0001AEA020A56EB0A0678C080410130BDE82A
:10C6E000F00770472DE9F007524290E87800B1E872
:10C6F00080071740DB1B18EA020874EB080419EAEC
:10C70000020975EB09051AEA020A76EB0A0678C0F7
:10C7100090E87800B1E880071740BB4118EA0208AA
:10C7200074EB080419EA020975EB09051AEA020A12
:10C7300076EB0A0678C080414042BDE8F0077047BA
:10C7400090E8300091E8C000A31B1340E41AF618EB
:10C75000EB1B1340ED1AFF1830C0C0C17047F0B595
:10C760005242FFF7EDFFFFF7EBFFFFF7E9FFFFF79F
:10C77000E7FFF0BD2DE9F0073AC91668A1FB069A5C
:10C780004FF0000CE3FB06AC4FF00007E4FB06C7DC
:10C790004FF00008E5FB067840F8049B56684FF020
:10C7A0000009E1FB06A91CEB090C4FF0000949EB5D
:10C7B0000909E3FB06C917EB09074FF0000949EB2C
:10C7C0000909E4FB067918EB09084FF0000949EB69
:10C7D0000909E5FB068940F804AB96684FF0000AAA
:10C7E000E1FB06CA17EB0A074FF0000A4AEB0A0AF8
:10C7F000E3FB067A18EB0A084FF0000A4AEB0A0A34
:10C80000E4FB068A19EB0A094FF0000A4AEB0A0A10
:10C81000E5FB069A40F804CBD6684FF0000CE1FB2C
:10C82000067C18EB0C084FF0000C4CEB0C0CE3FBF7
:10C83000068C19EB0C094FF0000C4CEB0C0CE4FBD4
:10C84000069C1AEB0C0A4FF0000C4CEB0C0CE5FBB1
:10C8500006AC80E88017BDE8F00770470A462DE96E
:10C86000F04F41EC140A92EC080A1EC910EE100AAF
:10C87000A1FB00784FF00009E2FB00894FF0000AAD
:10C88000E3FB009A4FF0000BE4FB00AB12EE100A42
:10C890004FF0000CE1FB00BC4FF0000EE2FB00CEBD
:10C8A0004FF00005E3FB00E54FF00006E4FB005607
:10C8B00005EE107A10EE900A4FF00007E1FB0087BA
:10C8C00019EB07094FF0000747EB0707E2FB00975A
:10C8D0001AEB070A4FF0000747EB0707E3FB00A737
:10C8E0001BEB070B4FF0000747EB0707E4FB00B714
:10C8F00012EE900A1CEB070C4FF0000747EB0707FE
:10C90000E1FB00C71EEB070E4FF0000747EB0707E0
:10C91000E2FB00E7ED194FF0000747EB0707E3FBE9
:10C920000057F6194FF0000747EB0707E4FB0067D5
:10C9300005EE908A11EE100A4FF00008E1FB009816
:10C940001AEB080A4FF0000848EB0808E2FB00A8C1
:10C950001BEB080B4FF0000848EB0808E3FB00B89E
:10C960001CEB080C4FF0000848EB0808E4FB00C87B
:10C9700013EE100A1EEB080E4FF0000848EB0808F3
:10C98000E1FB00E815EB08054FF0000848EB08084C
:10C99000E2FB005816EB08064FF0000848EB0808C9
:10C9A000E3FB006817EB08074FF0000848EB0808A6
:10C9B000E4FB007806EE109A11EE900A4FF00009A1
:10C9C000E1FB00A91BEB090B4FF0000949EB09093A
:10C9D000E2FB00B91CEB090C4FF0000949EB090917
:10C9E000E3FB00C91EEB090E4FF0000949EB0909F2
:10C9F000E4FB00E913EE900A15EB09054FF000097E
:10CA000049EB0909E1FB005916EB09064FF0000953
:10CA100049EB0909E2FB006917EB09074FF0000930
:10CA200049EB0909E3FB007918EB09084FF000090D
:10CA300049EB0909E4FB008906EE90AA14EE901A6E
:10CA400001F110011EC910EE100A4FF0000AE1FBBF
:10CA500000BA1CEB0A0C4FF0000A4AEB0A0AE2FB90
:10CA600000CA1EEB0A0E4FF0000A4AEB0A0AE3FB6B
:10CA700000EA15EB0A054FF0000A4AEB0A0AE4FB4C
:10CA8000005A12EE100A16EB0A064FF0000A4AEBA3
:10CA90000A0AE1FB006A17EB0A074FF0000A4AEBAB
:10CAA0000A0AE2FB007A18EB0A084FF0000A4AEB88
:10CAB0000A0AE3FB008A19EB0A094FF0000A4AEB65
:10CAC0000A0AE4FB009A07EE10BA10EE900A4FF043
:10CAD000000BE1FB00CB1EEB0B0E4FF0000B4BEB02
:10CAE0000B0BE2FB00EB15EB0B054FF0000B4BEBD8
:10CAF0000B0BE3FB005B16EB0B064FF0000B4BEB55
:10CB00000B0BE4FB006B12EE900A17EB0B074FF0D8
:10CB1000000B4BEB0B0BE1FB007B18EB0B084FF012
:10CB2000000B4BEB0B0BE2FB008B19EB0B094FF0EF
:10CB3000000B4BEB0B0BE3FB009B1AEB0B0A4FF0CC
:10CB4000000B4BEB0B0BE4FB00AB07EE90CA11EEB6
:10CB5000100A4FF0000CE1FB00EC15EB0C054FF058
:10CB6000000C4CEB0C0CE2FB005C16EB0C064FF0DF
:10CB7000000C4CEB0C0CE3FB006C17EB0C074FF0BC
:10CB8000000C4CEB0C0CE4FB007C13EE100A18EBD1
:10CB90000C084FF0000C4CEB0C0CE1FB008C19EB7B
:10CBA0000C094FF0000C4CEB0C0CE2FB009C1AEB58
:10CBB0000C0A4FF0000C4CEB0C0CE3FB00AC1BEB35
:10CBC0000C0B4FF0000C4CEB0C0CE4FB00BC08EE23
:10CBD00010EA11EE900A4FF0000EE1FB005E16EB3A
:10CBE0000E064FF0000E4EEB0E0EE2FB006E17EB42
:10CBF0000E074FF0000E4EEB0E0EE3FB007E18EB1F
:10CC00000E084FF0000E4EEB0E0EE4FB008E13EEFE
:10CC1000900A19EB0E094FF0000E4EEB0E0EE1FBE1
:10CC2000009E1AEB0E0A4FF0000E4EEB0E0EE2FBCA
:10CC300000AE1BEB0E0B4FF0000E4EEB0E0EE3FBA7
:10CC400000BE1CEB0E0C4FF0000E4EEB0E0EE4FB84
:10CC500000CE14EE100AA0EC075A80E8E05FBDE8B1
:10CC6000F08F00BF30B44FF0000310F8014B11F803
:10CC7000015B013A84EA050443EA0403F5D1A3F118
:10CC800001034FEAD37030BC70474FF0000310F837
:10CC9000012B013943EA0203F9D1A3F101034FEA61
:10CCA000D370704711F8013B00F8013B013AF9D10C
:10CCB0007047002200F8012B0139FBD1704700BFFB
:10CCC0002DE9F00791E8F807B2E802105B1854EB81
:10CCD0000C04B2E802104D4156EB0C06B2E802100B
:10CCE0004F4158EB0C08B2E8021059EB01095AEB1E
:10CCF0000C0A8941B3F1FF3374F1FF3475F1FF354C
:10CD000076F1000677F1000778F1000879F1010962
:10CD10007AF1FF3A51F100014A425B184C414D4112
:10CD200056F1000657F1000758F1000859EB0209C7
:10CD30005AEB010A80E8F807BDE8F00770472DE9D3
:10CD4000F00791E8F807B2E802105B1A74EB0C04E4
:10CD5000B2E802108D4176EB0C06B2E802108F416A
:10CD600078EB0C08B2E8021079EB01097AEB0C0AB7
:10CD700089414A425B184C414D4156F1000657F13A
:10CD8000000758F1000859EB02095AEB010A80E844
:10CD9000F807BDE8F00770470A462DE9F04F41EC6F
:10CDA000140A92EC080A1EC910EE100AA1FB0078C2
:10CDB0004FF00009E2FB00894FF0000AE3FB009A04
:10CDC0004FF0000BE4FB00AB12EE100A4FF0000C2A
:10CDD000E1FB00BC4FF0000EE2FB00CE4FF000057F
:10CDE000E3FB00E54FF00006E4FB005605EE107A89
:10CDF00010EE900A4FF00007E1FB008719EB0709DE
:10CE00004FF0000747EB0707E2FB00971AEB070A12
:10CE10004FF0000747EB0707E3FB00A71BEB070BEF
:10CE20004FF0000747EB0707E4FB00B712EE900A4C
:10CE30001CEB070C4FF0000747EB0707E1FB00C7AF
:10CE40001EEB070E4FF0000747EB0707E2FB00E77A
:10CE5000ED194FF0000747EB0707E3FB0057F61902
:10CE60004FF0000747EB0707E4FB006705EE908AE9
:10CE700011EE100A4FF00008E1FB00981AEB080AC7
:10CE80004FF0000848EB0808E2FB00A81BEB080B7A
:10CE90004FF0000848EB0808E3FB00B81CEB080C57
:10CEA0004FF0000848EB0808E4FB00C813EE100A36
:10CEB0001EEB080E4FF0000848EB0808E1FB00E805
:10CEC00015EB08054FF0000848EB0808E2FB005896
:10CED00016EB08064FF0000848EB0808E3FB006873
:10CEE00017EB08074FF0000848EB0808E4FB007850
:10CEF00006EE109A11EE900A4FF00009E1FB00A92E
:10CF00001BEB090B4FF0000949EB0909E2FB00B9E3
:10CF10001CEB090C4FF0000949EB0909E3FB00C9C0
:10CF20001EEB090E4FF0000949EB0909E4FB00E98B
:10CF300013EE900A15EB09054FF0000949EB0909BA
:10CF4000E1FB005916EB09064FF0000949EB09090E
:10CF5000E2FB006917EB09074FF0000949EB0909EB
:10CF6000E3FB007918EB09084FF0000949EB0909C8
:10CF7000E4FB008906EE90AA14EE901A01F110016C
:10CF80001EC910EE100A4FF0000AE1FB00BA1CEBBC
:10CF90000A0C4FF0000A4AEB0A0AE2FB00CA1EEB39
:10CFA0000A0E4FF0000A4AEB0A0AE3FB00EA15EB0F
:10CFB0000A054FF0000A4AEB0A0AE4FB005A12EE97
:10CFC000100A16EB0A064FF0000A4AEB0A0AE1FBC8
:10CFD000006A17EB0A074FF0000A4AEB0A0AE2FB65
:10CFE000007A18EB0A084FF0000A4AEB0A0AE3FB42
:10CFF000008A19EB0A094FF0000A4AEB0A0AE4FB1F
:10D00000009A07EE10BA10EE900A4FF0000BE1FB09
:10D0100000CB1EEB0B0E4FF0000B4BEB0B0BE2FBB0
:10D0200000EB15EB0B054FF0000B4BEB0B0BE3FB91
:10D03000005B16EB0B064FF0000B4BEB0B0BE4FB0E
:10D04000006B12EE900A17EB0B074FF0000B4BEB47
:10D050000B0BE1FB007B18EB0B084FF0000B4BEBCD
:10D060000B0BE2FB008B19EB0B094FF0000B4BEBAA
:10D070000B0BE3FB009B1AEB0B0A4FF0000B4BEB87
:10D080000B0BE4FB00AB07EE90CA11EE100A4FF059
:10D09000000CE1FB00EC15EB0C054FF0000C4CEB29
:10D0A0000C0CE2FB005C16EB0C064FF0000C4CEB9A
:10D0B0000C0CE3FB006C17EB0C074FF0000C4CEB77
:10D0C0000C0CE4FB007C13EE100A18EB0C084FF07C
:10D0D000000C4CEB0C0CE1FB008C19EB0C094FF035
:10D0E000000C4CEB0C0CE2FB009C1AEB0C0A4FF012
:10D0F000000C4CEB0C0CE3FB00AC1BEB0C0B4FF0EF
:10D10000000C4CEB0C0CE4FB00BC08EE10EA11EE3A
:10D11000900A4FF0000EE1FB005E16EB0E064FF09A
:10D12000000E4EEB0E0EE2FB006E17EB0E074FF0FB
:10D13000000E4EEB0E0EE3FB007E18EB0E084FF0D8
:10D14000000E4EEB0E0EE4FB008E13EE900A19EB70
:10D150000E094FF0000E4EEB0E0EE1FB009E1AEB97
:10D160000E0A4FF0000E4EEB0E0EE2FB00AE1BEB74
:10D170000E0B4FF0000E4EEB0E0EE3FB00BE1CEB51
:10D180000E0C4FF0000E4EEB0E0EE4FB00CE53ECF7
:10D19000172A18EE104A12EB0A0253EB0B0354EB5A
:10D1A0000C0455EB0E05002040F1000012EB0B02C1
:10D1B00053EB0C0354EB0E0455EB0E0546410020D7
:10D1C000474158EB000859EB0A0940F10000B2EB67
:10D1D0000E0273F1000374F1000475EB0A0576EB9F
:10D1E0000B0677EB0C0778EB0A0879EB0C0960F17A
:10D1F0000000B5EB0B0576EB0C0677EB0E0778EB32
:10D200000B0879EB0E0960F100005FEAE07C7FEA31
:10D210000C0CDCF1000EB2EB0C0273EB0C0374EBA4
:10D220000C0475F1000576F1000677F1000778EB44
:10D230000E0879EB0C0960F100005FEAE07CDCF19C
:10D24000000E12EB0C0253EB0C0354EB0C0455F1E3
:10D25000000556F1000657F1000758EB0E0859EB90
:10D260000C0940F100005FEAE07CDCF1000E12EBFB
:10D270000C0253EB0C0354EB0C0455F1000556F172
:10D28000000657F1000758EB0E0859EB0C095BEC50
:10D2900015AA51EC160A1AEB060A5BEB070B50EBCA
:10D2A000080051EB09015FF0000C4CF1000C1AEB87
:10D2B000070A5BEB080B50EB090051EB090152EB3D
:10D2C0000C025FF0000C53EB0C0354EB0C047541A3
:10D2D0004CF1000CBAEB090A7BF1000B70F1000075
:10D2E000B141BA4173EB0803B44175EB08056CF129
:10D2F000000CC91B72EB080273EB0903BC4175EB10
:10D3000009056CF1000C5FEAEC787FEA0808D8F1B7
:10D310000009BAEB080A7BEB080B70EB080071F10F
:10D32000000172F1000273F1000374EB090475EB64
:10D3300008056CF1000C5FEAEC78D8F100091AEBF3
:10D34000080A5BEB080B50EB080051F1000152F1A9
:10D35000000253F1000354EB090455EB08054CF1AE
:10D36000000C5FEAEC78D8F100091AEB080A5BEBD5
:10D37000080B50EB080051F1000152F1000253F18B
:10D38000000354EB090455EB080514EE107AA7E8E6
:10D39000000C87E83F00BDE8F08F00BF0146014860
:10D3A00015F0C5BC9C550200014815F0C0BC00BF7B
:10D3B000BA5502002DE9F04F85B0837A00AF9B008B
:10D3C000073303F4FF63ADEB030DEB4643680646FA
:10D3D0005C460120CBF80030814222D2307C884666
:10D3E00010F00100154601D015F0F4F90446B8F12B
:10D3F000000F1EDAB023434A4349444815F097FC16
:10D40000434815F094FCB0213E4815F09DFC4FF0C8
:10D41000FF342146307C15F0E6F91437BD46BDE8EF
:10D42000F08F236801309B0823F0030344F8043F86
:10D43000D2E75BF828302A4603FB05FA7B603368A5
:10D44000414603EB0A093B60304607F10C0315F037
:10D45000AAF90123FA6803FA00F01368396823EA8D
:10D46000000313600C22F36802FB08331A1D41F815
:10D470000A209A682146C9F804209A68C2F80090E8
:10D48000C3F80890307C15F0AEF9307C10F0010044
:10D4900001D015F09FF90446B8F1000FB9D007F19B
:10D4A0000C032A464146304615F07DF9FB680028FA
:10D4B000B8BF03301B6820F0030023FA00F010F01F
:10D4C0000F00A6D1844625F0030A7A680AEB000310
:10D4D000534332680130D118D1F8049052F803E078
:10D4E0000428C9F800E0CEF8049042F803C0C1F85F
:10D4F00004C0EAD1002DB8BF033508F1FF38AD10E4
:10D5000075E700BFD6550200CB610200F35502005B
:10D51000105602000B6801330B60014B1B68184763
:10D52000CCA102202DE9F04F85B00E9C9B46012C2A
:10D53000B8BF0124012B0CBF30232023164682469E
:10D54000884601250A270022DFF86C900293B6FB7B
:10D55000F9F301930AB9B1451CD8019B414603F187
:10D560003000D04701220135019B013F09FB1366C2
:10D570000A23012FB9FBF3F9E9D1414606F1300046
:10D58000D047BBF1030F02D1641B002C0EDC05B0A9
:10D59000BDE8F08FBC42E7DBBBF1020FE4D84146A7
:10D5A000029803920135D047039ADDE741462020D7
:10D5B000D047013CE9E700BF00CA9A3B014B186025
:10D5C000704700BFCCA10220002307B5024601939B
:10D5D00003480B4601A915F03AFA03B05DF804FBC5
:10D5E00015D500004FF02002EFF3118382F311886C
:10D5F000BFF36F8F0121044AC2F8401583F31188ED
:10D60000BFF36F8F002070470090034038B5054688
:10D6100048B90C490C4811230C4A15F088FB11211C
:10D620000A4815F091FB0A4C22684AB1094906489C
:10D630001223064A15F07BFB1221044815F084FBE7
:10D64000256038BD0D5E0200F35502002F56020022
:10D6500008000220635602000A2838B50446074D28
:10D6600004D1286843680D215B689847286843689F
:10D67000E1B25B689847204638BD00BF0C0002202D
:10D6800010B5044C204601F0EFFB2046BDE81040E9
:10D69000FFF794BF59D6000008B5044811F0B2FC5A
:10D6A000034B1860FFF7ECFF002008BD7D56020019
:10D6B0000C00022010B5002204460121052000F0D4
:10D6C000F5FA052000F0E2FA0222054B0020C3F82B
:10D6D00018250322C3F80423A368C3E9000010BD82
:10D6E00000500040F8B5036806469F6885681446F8
:10D6F0005AB153684BB9274927489223274A15F056
:10D7000016FB9221254815F01FFB4FF02003EFF385
:10D71000118283F31188BFF36F8F2B7A01335BB2D1
:10D720002B7282F31188BFF36F8F6A7A3AB10CB90A
:10D730000020F8BDD4E9013130469847F8E7012BC5
:10D7400008D13B6843B90122BB7A03F1804303F55A
:10D75000A0431A6054B9EBE7304698470028F2D14D
:10D76000002CE5D0D4E90131304698472B689C4223
:10D770000DD013B11B68002BF9D1002020606B681D
:10D7800013B9C5E90044D3E71C606C60D1E76FF0C2
:10D790004400CEE7B8560200F3550200845602005A
:10D7A00008B5104B1A6862B10F4AD2F80823D107A6
:10D7B00007D500220D481A6083685B7A0BB915F013
:10D7C00016FB0B4B1A685AB1074AD2F80823920786
:10D7D00006D5002207481A60BDE8084015F007BBCF
:10D7E00008BD00BF005100400050004058A2022078
:10D7F0000451004064A2022010B5064C064922469E
:10D800000648172315F093FA2046BDE8104017216B
:10D8100015F09ABA24570200CB610200F3550200BA
:10D82000002238B5214BC3F840214FF02003EFF31D
:10D83000118583F31188BFF36F8F1D4813F030FDFE
:10D8400060B91C495F231C4A1C4815F070FA1C483B
:10D8500015F06DFA5F21184815F076FA144813F0A8
:10D860003DFD124B174AD3F8044513681048E41ADB
:10D8700024F07F442344136013F020FD60B9124963
:10D8800072230D4A0D4815F052FA104815F04FFA60
:10D890007221094815F058FA85F31188BFF36F8F8C
:10D8A0002046BDE8384014F03FB800BF00500140AA
:10D8B0002C0002206E5702004F570200F355020061
:10D8C000835702002800022098570200AF57020039
:10D8D00070B5184811F096FB48B3436800211B68E7
:10D8E0009847012600244FF480334FF40012124D64
:10D8F0003146C5F80845C5F84065C5F804330F4BF7
:10D9000015201C600E4BC3F88021224600F0CEF992
:10D91000152000F0BBF920460A4B1E602E60D5F89A
:10D920000435334423F07F43C5F8403570BD4FF0D4
:10D93000FF30FBE706570200005001404051014014
:10D9400000E100E00850014038B5344BB0F1FF3F32
:10D9500008BF1846441E24EAE4749C42A8BF1C4633
:10D960004FF02003EFF3118583F31188BFF36F8F1E
:10D970002B4813F095FC60B92A495F232A4A2B48AB
:10D9800015F0D5F92A4815F0D2F95F21264815F08F
:10D99000DBF9234813F0A2FC264A2749D2F80435C4
:10D9A0000968581A20F07F40013108442044C31A06
:10D9B00023F07F4320F07F41022BC2F8401515D998
:10D9C000174813F07BFC60B91C497223164A1748AC
:10D9D00015F0ADF91A4815F0AAF97221124815F0A0
:10D9E000B3F985F31188BFF36F8F38BDD2F80435D2
:10D9F0001449C31A23F07F435C1E8C4205D94FF4AF
:10DA00000012114BC3F80021DAE7012B02BF0230EC
:10DA100020F07F40C2F84005D2E700BFFEFFFF00C4
:10DA20002C0002206E5702004F570200F3550200EF
:10DA3000835702000050014028000220985702003E
:10DA4000AF570200FEFF7F0000E100E038B54FF065
:10DA50002003EFF3118583F31188BFF36F8F19480B
:10DA600013F01EFC60B918495F23184A184815F0D6
:10DA70005EF9184815F05BF95F21144815F064F958
:10DA8000104813F02BFC144B0E48D3F80445134BED
:10DA90001B68E41A24F07F4413F010FC60B91049AD
:10DAA00072230A4A0A4815F042F90E4815F03FF968
:10DAB0007221064815F048F985F31188BFF36F8F7E
:10DAC000204638BD2C0002206E5702004F5702003E
:10DAD000F355020083570200005001402800022045
:10DAE00098570200AF57020004488168406A884294
:10DAF00003D003494FF080520A607047B45A0220A5
:10DB000004ED00E029498A684FF028001044EFF343
:10DB1000098C80E8F01F4FF010001EEA000F04D0BF
:10DB2000D2F8AC0020F0040007E002F16C0080ECB9
:10DB3000108AD2F8AC0050F00400C2F8AC002020EB
:10DB400080F31188BFF36F8F194F4FF000664A6A58
:10DB50008A603E60506E0023536680F31188D2F8CD
:10DB6000AC0010F0040F05D10023E1EE103A5EF096
:10DB7000100E05E02EF0100E02F16C0090EC108AF1
:10DB8000EFF3148323F0040383F31488BFF36F8F40
:10DB900004B5104615F059F9BDE8044002F128001B
:10DBA00090E8F01F8CF3098870470000B45A0220F7
:10DBB00004ED00E01EF0040F0CBFEFF30880EFF35C
:10DBC0000980816911F8021C0229FFD001B515F006
:10DBD00031F901BD014910220A60704710ED00E0E3
:10DBE000404080F3118830BF704700BF404080F351
:10DBF00011884FF004007146014202D0EFF3098012
:10DC000001D1EFF30880714601B500F0B7F901BD0D
:10DC100030BFFFF7FDBF00BF01B572B60B4A106AF7
:10DC200000281EBF0021116216F085F862B6EFF3DE
:10DC30000580A0F110004FEAC0000549014409C960
:10DC40009847BDE80140034908470000B45A022044
:10DC5000A43F0200E9DA0000094A0A49936809680A
:10DC60005866996608494B6843F080534B6000231F
:10DC700083F31188BFF36F8F9368986E704700BF6E
:10DC8000B45A02209854020000ED00E043B2002B89
:10DC900008DB012200F01F0002FA00F0024A5B09D3
:10DCA00042F82300704700BF00E100E070B54C1C53
:10DCB000072C05460E460ED96023104A104911481C
:10DCC00015F035F831461048072215F030F860217C
:10DCD0000A4815F039F86BB2002BA8BF03F1604376
:10DCE0004FEA4414B8BF094BE4B2ABBF03F561433C
:10DCF00005F00F0583F800435C5570BDC257020064
:10DD0000E9570200F35502000458020014ED00E048
:10DD100008B572B6044B186A18B100221A6216F0E0
:10DD20000AF862B608BD00BFB45A02202DE9F843D4
:10DD30000B9E05460F2E894690461F4627D11F4B46
:10DD40009F4228D10C9B04223146284616F0B4F895
:10DD5000002209EB08041A49A4F1200323F0070369
:10DD600021F00101C5E91322C5E9169899610899C6
:10DD70001F605960099999600A99D9604FF08071C4
:10DD8000D961AB646A66C5F8AC20BDE8F88306F1DA
:10DD900010031E2BD6D92E230A4A0B490B4814F028
:10DDA000C6FF31466FF00F030E22094814F0BFFF83
:10DDB0002E21044814F0C8FFC4E700BFD1F00100D1
:10DDC000E5290200395802005C580200F3550200B0
:10DDD000E95802002DE9F0411F4606460C469046E0
:10DDE0000023E1EE103AEFF3148525F0040585F3E6
:10DDF0001488BFF36F8F00F065F90B4B4444304635
:10DE00009E6024F0070415F020F8384684F3098852
:10DE100063B64FF0000181F31188BFF36F8F0021CB
:10DE20000022002314F0DEFDB45A0220114A08B586
:10DE3000114B22F07F029A60BFF34F8FBFF36F8FB9
:10DE4000D3F8882042F4A002C3F888204FF0404263
:10DE5000C3F83422BFF34F8FBFF36F8F0023E1EE7F
:10DE6000103A11F04FF911F057F900F0E1F811F004
:10DE700085F900BF00C0000000ED00E014F06BFF6A
:10DE8000202080F3118808484FF40061401880F387
:10DE90000988EFF314800221084380F31488BFF34C
:10DEA0006F8FFFF7C3FF0000888002200D4B9A6A36
:10DEB0009A6A9A6A920508D59A6B9A6A120404D5EE
:10DEC00018B19A6A22F400429A620020054B9A6ABD
:10DED0009A6AD20558BF9A6A9A6A42F47F429A6255
:10DEE0000870704700ED00E0074B00209A6A9A6ABC
:10DEF0009A6A9A6A9A6A9A6A9A6A9A6A6FEA02426D
:10DF00006FEA12429A62704700ED00E0164B10B5BE
:10DF10009A6A9A6A9A6A0C46910708D55A6B9A6A65
:10DF2000120604D518B19A6A22F080029A620E4B4A
:10DF30009A6A9A6A9B6ADB060ED50C4940F23D1339
:10DF40000B4A0C4814F0F3FE0B4814F0F0FE40F2BC
:10DF50003D11074814F0F8FE0020034A936A43F08D
:10DF6000FF039362207010BD00ED00E0CB61020062
:10DF70001A590200F35502004559020013B5244A0C
:10DF8000044601F07F40B0F17F4F53683AD111F061
:10DF9000010037D1C3F30803033B8DF80700032BBF
:10DFA00012D8DFE803F002272B24D36A9B070BD497
:10DFB000D06A10F0804007D0164B1B784BB101207F
:10DFC0000DF10701FFF7A2FF9DF80730DBB102B0AA
:10DFD00010BD114B1B782BB101200DF10701FFF78C
:10DFE00065FFF1E70D4B188880B20028ECD0FFF7F1
:10DFF0007BFFE9E70DF107010020E3E70DF10701E1
:10E000000020ECE70020214614F012FFDFE700BFFC
:10E0100000ED00E028ED00E029ED00E02AED00E051
:10E02000024A536943F010035361704700ED00E06A
:10E03000002320210348C2180133412B82F800132A
:10E04000F9D1704700E100E038B504464FF02003F5
:10E05000EFF3118583F31188BFF36F8F037BDB0729
:10E060000CD512492523124A124814F060FE1248BA
:10E0700014F05DFE25210E4814F066FE204615F0D2
:10E08000FCFE0E4B9B68A3420BD10D4B5A68C2F3AA
:10E09000080212B92846FFF7DFFD5A6842F08052A5
:10E0A0005A602846BDE8384015F08CBEB1590200D0
:10E0B0007F590200F3550200DF590200B45A0220D2
:10E0C00000ED00E010B50E4B88B002930D4B0E4CE6
:10E0D00003930E4B0E4A049302AB019301A823460F
:10E0E000012100F035F9002307930A4B0121E41ABE
:10E0F00005A80593069400F04FF908B010BD00BFC5
:10E1000000000220000000000000042006000100C2
:10E11000000002200000022010B50B680C7A23F0EA
:10E120001F0204F01F031A43CB68640923F01F0386
:10E13000044943EA440343F001038860CA600B6169
:10E1400010BD00BF90ED00E02DE9F04F80468946FC
:10E1500014460027484D85B04F4507DA58F8273058
:10E160005E68C6B31F2E05D86FF01504204605B0B3
:10E17000BDE8F08FF206F7D1D3F800A01AF01F0F18
:10E18000F2D1504614F006FB834606EB0A00013834
:10E1900014F000FB8345E7D11BF1160FE4D0631E9A
:10E1A0005B45E1DBC5F808B0E86858F82710C5F80A
:10E1B00008B02E6920F01F00D1E900321A449842BD
:10E1C00046F01F0602F1FF3A18D1564505D15FFA15
:10E1D0008BF014F042FE0137BEE7C5F808B0EB68DB
:10E1E00022F01F0203F01F031A43EA60E0B214F0AA
:10E1F00034FE10F1160FB7D0441CECE7C5F808B098
:10E200002A69013B23F01F0302F01F021343564506
:10E21000E0B22B61EBD014F020FE10F1160FA3D06A
:10E22000C5F808B0EA689DF80830013E62F30403BF
:10E230008DF808302B699DF808205B0863F34712BE
:10E240008DF8082058F827200130D2E90032134415
:10E25000009323F01F031E44A6EB0A06C4B226F067
:10E260001F060F2C03963FF67FAF20466946FFF747
:10E2700053FF0134AFE700BF90ED00E00522034BF0
:10E280005A60BFF34F8FBFF36F8F704790ED00E080
:10E29000BFF35F8F0022014B5A60704790ED00E0A2
:10E2A000F8B5214F3E68102E13D940F207131F4ACC
:10E2B0001F49204814F03BFD102231461E4814F03F
:10E2C00036FD1A4840F2071114F03EFD4FF0FF30C2
:10E2D000F8BD0024FFF7DCFF184D194A2A63A64257
:10E2E00019D1184B1E70FFF7C9FF2B68C3F3072322
:10E2F000102B0ED014494FF494730C4A0D4814F0AF
:10E3000016FD124814F013FD4FF49471074814F0F1
:10E310001BFD0020DCE77968204601EB0411FFF7C4
:10E32000FBFE0134DBE700BF84420200825A020098
:10E33000CB610200F3550200B35A020090ED00E0F9
:10E34000AAFF4400DA5B0220E75A0200385B0200B1
:10E3500038B50C4C0D462278FFF7F6FE20701630CB
:10E360000FD1CD23084A0949094814F0E0FC294699
:10E37000084814F0DCFCBDE83840CD21024814F018
:10E38000E3BC38BDDA5B0220825A0200CB61020096
:10E39000F3550200275A02002DE9F74F2D4C89460C
:10E3A00080460027A2464FF0140B2B4D4F4502DB51
:10E3B00003B0BDE8F08FD8F804300193002B44D0AF
:10E3C000D8F800100846009114F0E4F9DDE90013D4
:10E3D00006465818013814F0DDF986421F4A16D057
:10E3E00014235F436FF015034AF80730DD231C4AFE
:10E3F0001C491D4814F09BFC49461C4814F097FC2E
:10E40000DD21174803B0BDE8F04F14F09DBC16F1B4
:10E41000160F2660EAD01378B342E7DD0BFB07A3A3
:10E42000AE60AE60E868197B60F304011973296976
:10E43000187B490861F347101873EB6823F01F033A
:10E4400063602B6923F01F0323610137143408F143
:10E450000C08ABE73000022090ED00E0DA5B022010
:10E46000825A0200CB610200F3550200535A0200A7
:10E4700070B5154B0C461D7806462B460021134AF5
:10E480000F2B1BDD124951F8040BFFF745FE2A46FE
:10E4900021463046FFF758FE163013D1EC230D4AC3
:10E4A0000D490E4814F043FC21460D4814F03FFC82
:10E4B000BDE87040EC21074814F046BC9360116140
:10E4C0000133DDE770BD00BFDA5B022090ED00E0B4
:10E4D00030000220825A0200CB610200F355020094
:10E4E000FA5902002DE9F04F1E460023A3B0CDE9F2
:10E4F00002010193134613F8010B089358B1252824
:10E5000000F085800399029B9847013040F0178402
:10E510004FF0FF330193019823B0BDE8F08F232C17
:10E520006CD061D8002CF6D0202C0E9B08BF0123A4
:10E530000E93CDF82080DDF82080B74818F8014B05
:10E54000214614F065FD0028E9D12A2C66D156F841
:10E55000043B98F80040002B0993BFBF5B4209932E
:10E5600001230F93089B03F102082E2C7BD198F80E
:10E5700000302A2B74D156F8045B08F1010818F812
:10E58000014B2146A548274614F042FD00286DD0D6
:10E59000434613F8014B682F089307D1682C05D127
:10E5A000482708F1020398F801400893672C7BD8AC
:10E5B000652C80F03581472C5CD8452C80F030816B
:10E5C000002CA8D0252C00F0B68303992520029BAF
:10E5D000984701309CD003992046029B9847013010
:10E5E00096D0019B0233ACE32D2C0AD0302C0BD0FB
:10E5F0002B2C0B9B08BF01230B939AE74FF0010BC9
:10E6000097E701230F9394E701230A9391E70023EF
:10E610000A930E930B930F939B468CE7A4F1300360
:10E62000092B0990A1D80A22DDF8208018F8014BA7
:10E63000A4F13003092B98D8099B02FB0344A4F1F1
:10E640003003CDE90883EFE7904601FB0535303D07
:10E65000424612F8013BA3F130000928F4D98EE7B5
:10E6600000250A21F4E74FF0FF358AE7CDF8208036
:10E6700007469BE7632C59D020D8582CA5D16F2C86
:10E6800006F10409316840F02883BBF1000F00F067
:10E69000178330238DF86C30002940F01B838DF8F0
:10E6A0006D100F46012625E0702C00F0F58227D86A
:10E6B0006E2C00F0DE82E2D8692C86D1376806F134
:10E6C0000409002F80F29A802D2379428DF86C3056
:10E6D0000DF16D0630460A2214F016FD0B9B064420
:10E6E0001BA8361A002B40F02F830E9B002B40F006
:10E6F0002B83FF0F002D21DA0025AB46A846E1E071
:10E70000752CBCD0782CBAD0732C7FF45EAFB14698
:10E71000002DB8BF6FF00045002659F8043BB54204
:10E7200040F0C9822E4600252F4608E00027B1465A
:10E730003D46012659F8043B8DF86C301BABEA19B5
:10E740000025AB46A846921B22EAE2729119069177
:10E75000099990190C1A0F9911B9002C00F3118323
:10E7600003EB070A534540F0118312F1FF3280F0AA
:10E770001B83F61BB8F1000F11D09AF800000AEBCA
:10E780000607A0F13003092BA7EB0A0640F2178316
:10E79000474617F1FF3780F01B83A6EB0806BBF155
:10E7A000000F15D00AEB06071AF8018B03994046B3
:10E7B000029B984701303FF4ABAEB8F12E0FA7EBA8
:10E7C0000A06F1D15F46002F00F30B83A6EB0B0680
:10E7D00095B19AF800000AEB0607A0F13003092B67
:10E7E000A7EB0A0640F208832E2800F005832F4687
:10E7F000002F00F30A83761B564419E30B9B23B1C9
:10E800002B238DF86C30394662E70E9B0BB1202329
:10E81000F7E739461BAE5DE7595B02005F5B02001C
:10E8200006F1070929F00709F9E80223D80240EAAE
:10E830005250D60220F00040002AC3F30A51049639
:10E84000059073F10003DDE90467CDE9166741DA4D
:10E850002D238DF86C300DF16D0740F2FF73994256
:10E8600053D1DDE904120A43A4F1410407F1030383
:10E8700040D1192C38D849223A704E227A7046225B
:10E880000025AB46A8461BAEBA70FD709B1B0B9AC9
:10E89000002A40F0EC810E9A002A40F0E8819DF8B1
:10E8A0006C70A7F12D025742574105EB080633441F
:10E8B00003EB0B0622AB3B4413F81C3C303B092B0B
:10E8C00000F246820A9B002B00F04582099B9A1BAE
:10E8D0001BAB39E70B9B0BB12B23BAE70E9B0BB19C
:10E8E0002023B6E71BAFB8E769223A706E227A7030
:10E8F0006622C5E7192C99BF4E2241216E22612163
:10E9000094BF3A703A707970BAE7049B05980B434C
:10E910001093CB170343462C119308BF6624DDE9FF
:10E920001023134300F01181002900F09B80002682
:10E93000179BA1F2FE3843F00043179318F1020F22
:10E94000C0F2A480B8F1000F00F3DD8016A808F132
:10E95000010814F0FBFBB8F1040FF7D1002D04F00F
:10E96000DF03B8BF0625472B40F0F880F11C02DB1F
:10E97000B54280F2ED80023CE4B2002D00F0F4805C
:10E98000013DBBF1000F40F0EF80002DD4BF4FF0F0
:10E99000000A4FF0010A662C40F0E88015EB0608EB
:10E9A00040F1EC80102366244FF0000815930022FC
:10E9B0004FF00063CDE9182318F1FF3880F0E080B4
:10E9C000169B189A19999B18179A41EB0202CDE9E8
:10E9D000163202F07043129300231393DDE91223E1
:10E9E000134306D016A814F0C2FB16A814F0AEFB11
:10E9F0000136662C40F0E180002E40F3C880159B64
:10EA0000002B07DD15A916A814F0DCFB013E07F862
:10EA1000010BF4D1B0463B460026BBF1000F01D1FB
:10EA2000002D15DD2E2203F8012B002E00F0C080F2
:10EA3000002D40F3BF80C6F1000BAB45A8BFAB462D
:10EA4000A5EB0B05002D03DD159A002A00F3A68027
:10EA5000BAF1000F40F0C68000221BAE1A709B1B5B
:10EA600015E70139049BDB180493059B5B41059373
:10EA7000DDE90423002A73F10003F2DADDE904235F
:10EA8000CDE9162353E716A814F060FBDDE916EC78
:10EA900000230021CDF830C00D93BB48DDE90C23E5
:10EAA000994208BF904208F10108ECD30520AEFB63
:10EAB0000023CDE90623079B013E00FB0C334FF0FA
:10EAC000000C0793DDE90623CDE91623002100237E
:10EAD0006FF0004207988B4208BF824208D2BCF117
:10EAE000000F3FF42BAFDDE90623CDE9162325E720
:10EAF000069B08F1FF38DB180693079B4FF0010CCB
:10EB00005B410793E2E716A814F031FBDDE916AE8E
:10EB10004FF0000C08F1FF380136002300216FF0A0
:10EB20000040994208BF704506D2BCF1000F3FF487
:10EB300009AFCDE916AE05E71AEB0A0A4EEB0E0E49
:10EB400008F1FF384FF0010CE7E70026B046FDE67C
:10EB5000AD1BBBF1000F04D1662416E74FF0000A8D
:10EB600019E74FF0000A19E74FF0000A05F1010814
:10EB7000102398451593A8BF984618E76624F7E731
:10EB800018A814F0F4FA18A814F0E0FA14E73B46B9
:10EB900030224FF0000803F8012B3EE715A916A814
:10EBA000069314F00FFB069B013D03F8010B49E7A8
:10EBB000B34647E74FF0000B4AE715A916A814F033
:10EBC00001FB3028387018BF06F1FF36BBF1000F8B
:10EBD00038D1002D36DC7B1CBAF1000F44D04FF049
:10EBE000000BD8461A4613F8011D3029FAD02E29F9
:10EBF00018BF1346002504F0DF02452A7FF42CAF2E
:10EC0000002EB4BF2D222B221946B8BF7642632EA8
:10EC100001F8024B5A7008DD642096FBF0F200FB0D
:10EC2000126602F13004D91C9C700A2096FBF0F2A7
:10EC30000B4600FB126602F13004303603F8024B3B
:10EC40004E7009E72E22BB1C7A70002DC4DD159A88
:10EC5000002AC1DD15A916A8069314F0B3FA069B85
:10EC6000013D03F8010BF0E7D346D046C3E7012787
:10EC70001BE6B146682F59F8043B05D001DC482F4C
:10EC800007D0019A1A6001E0019A1A804E46089A4C
:10EC900030E4019A1A70F9E7B14647F630031022C2
:10ECA00059F8041B0DF16E00ADF86C3014F02CFA1D
:10ECB0000227861C1EE59A5D002A47D001362EE504
:10ECC0001BAC0822204614F01FFA1BAEA61B0644FC
:10ECD00000270FE50DF16D04F3E7752C05D10A222D
:10ECE0001BA814F011FA0646F2E7BBF1000F12D090
:10ECF00047F630030DF16E08ADF86C301022404637
:10ED000014F002FA582C09D01BAEA8EB06060644F4
:10ED10004FEA4B07EEE40DF16C08EFE71BAA1378FE
:10ED2000A3F1610119299CBF203B137012F8013B2C
:10ED3000002BF4D1E8E703992046FFF7E4BB019BE1
:10ED400001330193B146A1E70127D3E41546EBE473
:10ED50001BAB0022FAE41BAB0A9AF7E4CDE90932B7
:10ED60000399029B20209847DDE9093201303FF4E6
:10ED7000CFAB1AF1FF3AF1D20199214401915446E7
:10ED8000EEE4A246F5E700BF3233333313F8010B4C
:10ED900003990993029B0A929847DDE909320130F1
:10EDA0007FF4E0ACFFF7B4BB03993020029B0992DB
:10EDB00098470130099A7FF4D8ACFFF7A9BBDDE989
:10EDC0000231984701303FF4A3AB1AF8010FD8E4A1
:10EDD00003993020029B984701307FF4DAACFFF7AB
:10EDE00097BB03993020029B9847013007F1FF370A
:10EDF0007FF4E9ACFFF78CBBDDE9023198470130C5
:10EE00003FF486AB1AF8010FE7E403993020029B28
:10EE10009847013007F1FF377FF4EAACFFF778BB82
:10EE200003991AF8010B029B984701303FF470AB2D
:10EE3000A6EB0A03002BF3DC019B069A002C13447B
:10EE400001937FF723AF254606E003992020029B1C
:10EE5000984701303FF45CAB15F1FF35F5D2019BCB
:10EE60002344019312E700BF014B1860704700BFB5
:10EE7000D0A102200CB41FB509B90DF10300CDE9F2
:10EE8000020107AB069A02A905480193FFF72AFB86
:10EE90000022029B1A7005B05DF804EB02B07047C7
:10EEA000F93102000EB40FB56FF0004105AB53F815
:10EEB000042B02900391064802A90193FFF712FB6D
:10EEC0000022029B1A7004B05DF804EB03B0704797
:10EED000F931020038B50D46044658B909490A48C7
:10EEE00040F21123094A13F022FF40F21121074892
:10EEF00013F02AFF23680C33D3E8AF0F284100F04A
:10EF0000010038BD845B0200F3550200635B020020
:10EF100010B5044658B90B490B4840F2E3130B4AAD
:10EF200013F005FF40F2E311084813F00DFF2368CA
:10EF30000C33D3E8EF2F42F00102C3E8E12F0029A0
:10EF4000F7D110BD845B0200F3550200635B020041
:10EF500038B500210546FFF7BDFF28B92B689A7E1A
:10EF600022B12846FFF7D4FF00201FE05B68ABB951
:10EF70002B681B695BB90E490E4840F689530E4A4F
:10EF800013F0D5FE40F689510B4813F0DDFE2846FC
:10EF9000FFF7BEFF284614F043F9E5E79B68002B16
:10EFA000E6D00121284698470028E1DA38BD00BFA5
:10EFB0008A5B0200F3550200BB5B020038B5074CC8
:10EFC000074DAC4200D138BD23681B685B681BB19C
:10EFD0001B680BB1204698472034F2E7C0A30220FB
:10EFE000E0A3022038B5074C074DAC4200D138BD34
:10EFF00003212046FFF76EFF10B92046FFF7A8FF58
:10F000002034F2E7C0A30220E0A3022070B5164628
:10F0100084680D4661B922491C23224A224813F014
:10F0200086FE224813F083FE1C211E4813F08CFE3E
:10F030006B6863B91E491D231A4A1B4813F077FEFB
:10F040001C4813F074FE1D21164813F07DFE236842
:10F050005BB100229D4213D12B685AB962682360CC
:10F06000954200D1636000232B6076B9002070BD0B
:10F070000B46EFE7136063689D4208BF6260F2E7EA
:10F0800019681A460029F3D13EB123682B606068E5
:10F0900025600028EAD16560E9E76FF01500E6E732
:10F0A000045C0200DE5B0200F35502000D5C02000E
:10F0B0001C5C02002E5C020010B5074C074922467A
:10F0C00007484FF4E27313F032FE2046BDE81040CB
:10F0D0004FF4E27113F038BE765C0200B55C0200BA
:10F0E000F35502001F2838B504460D4601D9FFF735
:10F0F000E3FF084800EB8400D0F8002222F44032FD
:10F10000C0F80022D0F8003243EA0543C0F80032CC
:10F1100038BD00BF002584402DE9F041036801F0AF
:10F120001F049B680D461B794B4E44EA4314002391
:10F13000D6F804238768D2B203F5A27156F82110DD
:10F14000C1F304218C426CD122FA03F1C90768D5BE
:10F150009A0002F1804202F54432D2F8101521F0F3
:10F160000101C2F81015012202FA03F3C6F80833B0
:10F1700020460021FFF7B6FFB868E84010F0010014
:10F180004DD0F868E84010F0010048D07869E840B8
:10F1900010F0010851D0BB69EB40DB0745D43B6957
:10F1A000FA69EB4022FA05F503F0010305F00105C9
:10F1B000AB4214BF01250225002101F5A27356F8C8
:10F1C000230010F0030032D18B0003F1804303F5DC
:10F1D0004433D3F81025240222F4473222F440723B
:10F1E000C3F81025D3F8102504F4F85444EA054573
:10F1F000154301F14002920092B202F1804202F501
:10F200004432C3F810551060D3F8102542F00102C3
:10F21000C3F81025012303FA01F1C6F80413BDE871
:10F22000F0810133082B87D1A2E70325C4E7013120
:10F230000829C2D16FF01200F1E73B69FA69204654
:10F24000534023FA05F515F0010F0CBF03210221ED
:10F25000FFF748FF4046E2E70010034008B5094BBE
:10F260001A786AB90121312019700521FEF71EFDB7
:10F270003120FEF70BFD4FF00042034BC3F804238F
:10F28000002008BDDB5B0220001003402DE9F74F92
:10F290000746846803F47040B0F5804F1D4641D0A6
:10F2A00009DCB0F5805F3FD0B0F5405F3ED090B153
:10F2B0006FF0150033E0B0F5E04F39D004DCB0F565
:10F2C000A04FF5D1032006E0B0F5404F32D0B0F5A5
:10F2D000504FEDD1072005F44076B6F5807F2BD056
:10F2E000A6F5007673427341012919BF5FFA82F9CE
:10F2F000C8464FF01F084FF000094FF0010A05F013
:10F30000010C4FEA4C0646EA0C0646EA002040EAA9
:10F31000830605F002030193C8450FD2002003B015
:10F32000BDE8F08F0220D6E70120D4E70420D2E721
:10F330000520D0E70620CEE70323D5E73B689B688E
:10F34000197909F01F0343EA411BBBF11F0F01DDCF
:10F35000FFF7B2FE194A0BF1800342F82360019ACD
:10F360000AFA09F3A1682AB31943A1606169A806E2
:10F370004CBF194399436161A1696A064CBF1943A7
:10F380009943A161216968074CBF194399432161E1
:10F39000E1692A064CBF0B4321EA0303E3614946B6
:10F3A0003846FFF7B9FE0028B9D109F101025FFA2A
:10F3B00082F9B1E721EA0301D7E700BF00258440C5
:10F3C0002DE9F84F564B1E689846012E5DD1374601
:10F3D0004FF0000A534A93681268DC69D2F808902B
:10F3E000D3E902251540D3E905210A4325EA0205A0
:10F3F000D9F800201B6912695C40544025EA0404D6
:10F4000095BBC8F80050002301279C464648474D4D
:10F41000D0F8042307FA03F111420DD055F8232048
:10F42000012A09D103F5A27150F8211045F823C033
:10F43000C1F304218A4014430133082BE8D134BBC3
:10F44000012E0FD14FF00008364B9D681B689F6856
:10F45000D5E902341C40D5E90532134324EA0304FC
:10F46000002C42D1BDE8F88F3D420AD099F8043013
:10F470000AF01F00002140EA4310FFF733FE25EA9F
:10F4800007050AF1010A7F00BAE70024BBE7254B14
:10F49000D3F80890D9F80050002DD1D098462F68A5
:10F4A000DFF894A0DFF894B0D9F80C30AA682340B4
:10F4B000134215D06B6873B959464FF4D173524655
:10F4C0001B4813F034FC1B4813F031FC4FF4D1718E
:10F4D000504613F039FC6B6822462946404698474F
:10F4E000002FADD03D463F68DEE7264213D02B69A2
:10F4F000EA6997F804C0534023FA08F313F0010FA8
:10F5000008F01F000CBF0321022140EA4C10FFF756
:10F51000E9FD24EA060408F101087600A0E700BF2F
:10F520007C110340ACA202200010034000110340F4
:10F53000F35502002E5C0200455C02006A5C02008A
:10F54000F0B54B79012B29D0032B24D101268B79DF
:10F55000032B20D1CD792DB1012D1CD103689B68DF
:10F560001B79C3B10A7912B1022A14D10E2247F6CF
:10F57000122704680B68A468BB42246868D029D8A5
:10F58000B3F5965F67D014D8B3F5167F65D007D86A
:10F59000B3F5967F64D06FF0220058E00026D6E7DE
:10F5A000B3F5966F5FD0B3F5166FF4D14FF41D230A
:10F5B0003CE0B3F5615F59D004D8B3F5165FEAD1EA
:10F5C000354B33E0B3F5964F52D0B3F5E14FE2D16E
:10F5D000324B2BE0B3F5E13F4CD012D84DF6C027AB
:10F5E000BB424AD005D8B3F5164FD4D14FF41D0312
:10F5F0001CE0B3F5614F43D0B3F5963FCBD1284B18
:10F6000014E0B3F5E12F3ED008D8B3F5613F3DD00B
:10F61000244FBB42BFD14FF0806307E0B3F5612FA9
:10F6200037D0214FBB42B6D14FF080532A43C4F8A4
:10F630002435C4F86C252EB1D4F86C3543F0100392
:10F64000C4F86C35836803C983E803000020F0BD6B
:10F650004FF40003EAE7154BE8E74FF41C33E5E706
:10F660004FF4A033E2E74FF49E23DFE7104BDDE7D2
:10F67000104BDBE74FF0EB73D8E74FF46503D5E7AA
:10F680004FF46B03D2E74FF0E863CFE74FF06C73B2
:10F69000CCE74FF07063C9E70050270000C0750049
:10F6A00000903A0190D0030040420F0000B01300D8
:10F6B00000F03A0000A04E0070B50646002201217D
:10F6C0000820FEF7F3FA0820FEF7E0FA4FF00052A8
:10F6D0003368B5689B6803211C681A4B1D209A602B
:10F6E0000022C3F87412C3F87022C4F80C051C2061
:10F6F000C4F814054FF000609860C3F86C12C3F8AA
:10F7000068221B23C4F808351A232946C4F810358B
:10F710003046FFF715FFA0B90823C4F8003505F1FE
:10F720000C03C4F81001C4F834350123AA68C4F8E6
:10F73000383592682360C4F84425C4F84805A360AE
:10F74000E36070BD0025844037B50D46144648B9C6
:10F75000104911481E23114A13F0E9FA1E210F48DF
:10F7600013F0F2FA4DB90E490B481F230B4A13F060
:10F77000DEFA1F21094813F0E7FA01AA21462846BC
:10F78000F8F736FC019B9C4218BF6FF0150003B0E0
:10F7900030BD00BF065D0200F3550200CA5C0200E6
:10F7A000195D0200002208B511462A20FEF77EFAF4
:10F7B00002F090F9014B1860002008BD640002209F
:10F7C00070B50D4B0D4C1A680A25002623461968A2
:10F7D00081420ED051B15968511AB142C4BF1C4682
:10F7E0000E46013D03F10803F1D12346013A1860AA
:10F7F0005A60184670BD00BF6800022074000220E5
:10F80000684620F007018D4619B513F010FB0D4B2B
:10F81000D3E8EF2F0132C3E8E12F0029F8D10CF033
:10F820004BF8094B1C683CB9FEF772FAFEF75CF91D
:10F83000BDE8194085467047201D11F021FC246861
:10F84000F1E700BF680002206C0002202DE9F04FB4
:10F85000884689B014F03CFBD8F800300646002BEF
:10F860000F4603D111F082FA3C206EE0BCBF4FF08E
:10F87000FF33C8F800300122002102A811F0CAFBB2
:10F880000DF1040A4FF02003EFF3118B83F311887D
:10F89000BFF36F8F11F0B8FBFFF792FF3349436856
:10F8A0000A68894693424FF0000308D10193304B18
:10F8B0005A68002A4CD1C3E900AA012300E0426043
:10F8C0008BF31188BFF36F8F002B3DD0D8F8001059
:10F8D00002A811F01DFC4FF02003EFF3118B83F30E
:10F8E0001188BFF36F8F0020214B1A6852B1524527
:10F8F00039D1019988BB58681960904200D159608C
:10F900000023019311F080FBFFF75AFFD9F8003074
:10F9100043608BF31188BFF36F8FD8F80090B9F173
:10F92000FF3F11D014F0D4FA16EB090247EBE9734C
:10F93000141A63EB0105002C75F10003B8BF002415
:10F94000C8F80040002C8FD0002009B0BDE8F08F2F
:10F95000C2F800A0C3F804A0AFE701605968914263
:10F9600008BF5860CCE710461268BFE76800022065
:10F970006C0002202D2810B504460CD039DC0E286E
:10F9800009D011DC082806D009DC022803D005289C
:10F9900001D0012819D113F0AEFD046010BD0C2870
:10F9A000F9D058DC0928F5E7282800F0848005DC28
:10F9B0001828F0D0232853D01628EBE72A28EAD0BD
:10F9C00052DB2B28E7D02C2852D04FF4A2733C4AAC
:10F9D0003C493D4813F0ABF921463C4813F0A7F9E8
:10F9E0004FF4A271364813F0AFF913F084FD384B91
:10F9F00034E03C28CFD015DC3328CCD005DC3028CF
:10FA0000C9D0322838D02F28C4E73628C3D001DC2B
:10FA10003428BFE73828BED03928D6D113F06BFD83
:10FA200039231BE07D2833D009DC702828D07328C7
:10FA30002AD06928C9D113F05EFD37230EE07F2854
:10FA40002FD029DB802831D08128BED113F053FD7F
:10FA500040F2D47302E013F04EFD0D2303609DE7E6
:10FA600013F049FD0B23F9E713F045FD2923F5E7D2
:10FA700013F041FD2C23F1E713F03DFD3E23EDE7AC
:10FA800013F039FD4323E9E713F035FD4423E5E79F
:10FA900013F031FD4823E1E713F02DFD40F2D1735F
:10FAA000DCE713F028FD40F2D273D7E713F023FD13
:10FAB00040F2D373D2E713F01EFD2423CEE700BF3C
:10FAC000395D0200CB610200F3550200695D02005E
:10FAD000ADBAADBA4FF08052014BC3F80021704768
:10FAE00000E100E04FF08052014BC3F880217047E5
:10FAF00000E100E04FF00052014BC3F800217047D5
:10FB000000E100E04FF00052014BC3F88021704744
:10FB100000E100E008B50023074AC2E90033074AC4
:10FB2000D2E8EF1FC2E8E03F0028F9D113F012FD40
:10FB3000BDE8084013F003BD6C00022068000220FD
:10FB4000B0F58D7F3CD004DC012844D04FF0FF306D
:10FB5000704740F20223984252D040F20323984269
:10FB6000F4D101391329F1D801A353F821F000BFD2
:10FB70000DFC0000D1FB0000F1FB0000E3FB0000E6
:10FB8000F5FB0000F9FB0000FDFB00004DFB000051
:10FB90004DFB00004DFB00004DFB00004DFB000045
:10FBA0004DFB00004DFB00004DFB00004DFB000035
:10FBB0004DFB00004DFB00004DFB0000E7FB00008B
:10FBC00001390529C2D8DFE801F0031517190C2106
:10FBD000022313600AE0142905D0192905D004294D
:10FBE000B4D10423F5E71423F3E711600020704734
:10FBF0000323EEE70523ECE70623EAE70723E8E71C
:10FC00000229E5D00329F3D001299FD10123E0E7A0
:10FC10000122034B1860036802489A76FDF7F6BC90
:10FC2000C4000220584302000B4B70B51B6853B14F
:10FC300000251C461B6866688E4206D1A66896425F
:10FC400003D123460560184670BD002BFBD0254626
:10FC50001C461B68EFE700BFC800022010B5002457
:10FC6000034B0448C3E9004400F0E6FB204610BD06
:10FC7000C800022079FC000038B505464FF0FF317E
:10FC80000A480FF077FE0A4B1B6823B9BDE83840DD
:10FC900006480FF049BF1C689A6829465868904783
:10FCA000002CF3D023462468F6E700BF64A30220AB
:10FCB000C800022073B506460D4669B34FF0FF3108
:10FCC00017480FF057FE2A46314601A8FFF7ACFF50
:10FCD000044620B112480FF027FF002009E00C2055
:10FCE0000FF0E0FC019030B90D480FF01DFF6FF0F0
:10FCF000360002B070BD0C22214613F0E3F9019BDF
:10FD0000084A1C605168C3E9016511B9C2E90033B2
:10FD1000E0E70B605360DDE76FF01500E9E700BF37
:10FD200064A30220C800022038B5054D441E14F813
:10FD3000011F01B938BD286843685B689847F6E73A
:10FD4000A40102207FB51A494FF480520DF103033C
:10FD5000084600F04FFB021E04DA01238DF8033041
:10FD6000144813E09DF80330032B11D801A151F87A
:10FD700023F000BF85FD000061FD00009FFD000035
:10FD8000ABFD00000A48FFF7CFFF0B48FFF7CCFFA1
:10FD90000A4B186813F0BBFF07B05DF804FB084975
:10FDA00001A8FFF77FF801A8F0E70649F8E700BFD0
:10FDB000FC5B0220A25D02009D5D0200A401022006
:10FDC000AA5D0200BB5D0200F7B5054643685B6CA7
:10FDD00003B198476B685B6B93B12846984778B13D
:10FDE0003A4F3B4C3E46D7E8AF3FDB0708D46B6841
:10FDF0009B692BB101220DF107012846984708B9EC
:10FE000003B0F0BD9DF80730082B01D07F2B05D142
:10FE10002368002BE7D0013B2360E4E72D490A78F3
:10FE2000002A40D10A2B31D00D2B25D0002B38D100
:10FE3000294B1B78002BD6D100232068274A0B7052
:10FE400013542748236003701378002BCBD0254B25
:10FE500018684368DB6A03B19847D6E8EF3F43F080
:10FE60000102C6E8E12F0029F7D1DA07BBD41E4909
:10FE70001E4813F090FFB6E7174B1B78012BDBD021
:10FE8000032BB0D10122164B1A70ACE7124B1B7832
:10FE9000022BD1D0032BA6D1114B1B78002BCBD139
:10FEA000A1E70F480270D4F800C00CF10100B0F5D2
:10FEB000805F98D2DFF824E0222B0EF80C3020600F
:10FEC00091D182F001020A708DE700BFA0010220EB
:10FED000D0000220FD6B0220FE6B0220FC5B0220A2
:10FEE000FC6B0220A401022098010220D400022011
:10FEF0000122254B73B5254900201A70FFF7DAFE61
:10FF0000054620BB22480FF07DF8224C2060E0B16E
:10FF100013F0DEFF0646206843689B68D3B198471C
:10FF2000C0B113F0D5FF801BB0F5FA7F0DD8206863
:10FF300043689B692BB101220DF107019847002806
:10FF4000F5D10A2013F074FFE5E76FF00D052846A0
:10FF500002B070BD2268536823B19B6C13B10E4987
:10FF60001046984700220D4B0D491A60C3E9011253
:10FF70000C480A234FF400720B4911F0F3FA206881
:10FF800013F0C5FEE3E700BFFE6B0220193D02003F
:10FF90007D560200A4010220C9FD00009801022044
:10FFA00045FD0000D4000220486D0220F0B5DAB112
:10FFB00000231C460E4D0F4FBB4206D3002C14BF2E
:10FFC0006FF008006FF0010009E055F8046BD6F8F7
:10FFD0000CC0604506D14C1E11B908461660F0BD34
:10FFE000214601240133E7E76FF00D00F7E700BF7A
:10FFF000E86502000000000070B5104C054623685B
:020000021000EC
:100000004BB90F490F4821230F4A12F090FE2121CE
:100010000D4812F099FE23685B684BB90B490948FB
:100020002223094A12F083FE2221074812F08CFE97
:1000300023682846BDE870405B6818470800022026
:10004000065E0200F3550200DD5D0200115E020053
:1000500007B5019018B1D0F8983A0C30984701A92B
:1000600002480FF0C5F903B05DF804FB00A30220BD
:100070002DE9F34107460D4612F0D8FF1E4C1F4BE9
:1000800080461E6823684BB91D491E487E231E4AC0
:1000900012F04DFE7E211C4812F056FE2368DB6AEA
:1000A0004BB91A4917487F23174A12F040FE7F21A7
:1000B000154812F049FE23684246DC6A394600239F
:1000C0003046A04701300FD10EF0C2FF03685B42FB
:1000D000009301238DF8043015B19DF804302B7086
:1000E000009802B0BDE8F0814FF0FF326946084841
:1000F0000FF08EFBF0E700BF08000220A8010220ED
:10010000065E0200F3550200DD5D0200CC5D0200D8
:1001100078A3022010B5164C23684BB91549164830
:100120001923164A12F003FE1921144812F00CFE8E
:1001300023681B684BB912490F481A230F4A12F063
:10014000F6FD1A210D4812F0FFFD236840F201224E
:100150001B680021662098470A4B1860013004D1C3
:100160000EF076FF0068404210BD0020FCE700BFA3
:1001700008000220065E0200F3550200DD5D020069
:10018000235E0200A801022010B586B0FFF7C2FF6F
:10019000044668B90A23CDE90400CDE90203CDE99C
:1001A0000000054B4FF480620449054811F0F4F853
:1001B000204606B010BD00BFC5010100486F0220F7
:1001C000BC0102202DE9FF47774EDFF82482374635
:1001D0004FF0FF3201A940460FF0A8F80023019D1F
:1001E000724CC5F8983A02938DF80C302368D6F813
:1001F00000900C354BB96E496E4869236E4A12F077
:1002000096FD69216C4812F09FFD23685B6A4BB92B
:100210006A4968486A23684A12F089FD6A2166487B
:1002200012F092FD236840F68C225C6A2946002376
:100230004846A04700282EDA3868FFF7DDFE20BBCD
:10024000FFF768FF08BB01238DF80C300EF000FFAC
:1002500003685B4202930199D1F8983A002B7AD156
:1002600001A940460FF0C4F8554B9B68002BAFD155
:100270009DF80C20042AABD0524A13604FF0FF3295
:1002800002A951480FF01EFAA2E73868FFF7B4FE42
:1002900004B0BDE8F08740F68C23984207D0DDF823
:1002A0000490484490F80BA0BAF1000F02D06FF010
:1002B0003603CFE7042309F10C04444920468DF8A6
:1002C0000C3012F088FE0546E8B18DF80CA0CDF890
:1002D00008A000232A1B01322B709DF80C300199D5
:1002E000042B4ED03A4D2B68002B52D0394C20684D
:1002F00000284ED093422AD90C3112F0B9FE0023C7
:100300002B602360A7E73449204612F064FE0546BF
:1003100040B1022309F117008DF80C3012F0BFFD37
:100320000290D6E72D49204612F055FE054608B149
:100330000323EFE72A49204612F04DFE054668B335
:1003400001238DF80C306FF007030293C1E76FF0C3
:1003500023030293D3E7234B00224B600B460A6032
:1003600043F8082FD3E8EF2F42F00100C3E8E40F71
:10037000002CF7D1D3073FF577AF1B4813F00BFDE7
:1003800072E7002A3FF467AF184B1B68C1F8983A30
:1003900061E7002A3FF45FAF0A4BF6E7204612F010
:1003A00045FE421C99E700BFA80102200800022078
:1003B000065E0200F3550200DD5D0200365E0200BB
:1003C00038A30220AC01022078A30220475E02007D
:1003D000B8010220B40102204A5E0200565E02000B
:1003E000625E020051000100FC5A0220B0010220AE
:1003F00000A302202DE9F0410546884617461E4617
:100400000A4C4FF0FF31204610F082FE084B314677
:10041000C3F80080074B28461F60FFF729FE0546FA
:10042000204610F02DFE2846BDE8F08138A30220BA
:10043000B4010220B801022038B50546064C4FF041
:10044000FF31204610F064FE044B1D602046BDE8DD
:10045000384010F015BE00BF38A30220B0010220C2
:1004600050F8081B090C06F03DBB00BF01480BF01B
:100470009DBA00BF98430200002310B582B00193DB
:1004800058B1044601AA04200BF0C8FC18B9019B1E
:100490000BB10833236002B010BD072002B010BDBD
:1004A00001F47043B3F5E04F0BD160B1034630F86F
:1004B000082C042042EA014143F8081D19460BF0BC
:1004C00095BC0F2070470720704700BF20B1A0F1F6
:1004D000080104200BF0D4BC0720704718B1014676
:1004E00004200BF0DFBD0720704700BF30B4034687
:1004F0000068B2F5803FA0EB010114D2022951DD62
:10050000411E196000F8012C19688224481E1860E9
:100510000320120A01F8012C1A68511E196002F812
:10052000014C30BC7047B2F1807F1AD2032939DD0B
:100530008324411E196000F8012C1968100A4D1E11
:100540001D6001F8010C1968120C481E186001F8B2
:10055000012C1A680420511E196002F8014C30BCAD
:10056000704704291EDD8424411E196000F8012C07
:100570001968100A4D1E1D6001F8010C1968100C55
:100580004D1E1D6001F8010C1968120E481E1860FE
:1005900001F8012C1A680520511E196002F8014C5F
:1005A00030BC70476FF06B00BBE700BF30B404682D
:1005B0007F2A0346A4EB010108D800296CDD611EE7
:1005C0000160012004F8012C30BC7047FF2A0ED8CE
:1005D000012961DD8121601E186004F8012C1A6870
:1005E0000220541E1C6002F8011C30BC7047B2F59A
:1005F000803F1CD3B2F1807F2ED203294CDD8325AE
:10060000611E016004F8012C0168100A4C1E1C6078
:1006100001F8010C1968120C481E186001F8012C31
:100620001A680420511E196002F8015CCCE7022907
:1006300032DD8225611E016004F8012C0168120A76
:10064000481E186001F8012C1A680320511E196019
:1006500002F8015C30BC704704291DDD8425611E51
:10066000016004F8012C0168100A4C1E1C6001F89E
:10067000010C1968100C4C1E1C6001F8010C196863
:10068000120E481E186001F8012C1A680520511E30
:10069000196002F8015C97E76FF06B0094E700BF08
:1006A0000368591A002905DD591E0160012003F86D
:1006B000012C70476FF06B00704700BFF8B50568FC
:1006C000A9423FD80F46691A8B423BD806461C46C2
:1006D000E81A114630601A4612F0CAFC002C204677
:1006E00015DB7F2C14D83368DA1B002A2ADD0120A1
:1006F0005A1E326003F8014C33680134DF1B002FAF
:1007000020DD0622591E3160204403F8012CF8BD7B
:10071000FF2C0FD83368DA1B012A13DD8122591E02
:10072000316003F8014C33680220591E316003F830
:10073000012CE1E7224639463046FFF7D7FE002874
:10074000DADAF8BD6FF06B00F8BD00BF2DE9F041BB
:10075000DDF818800568B8F1000F13D16C1A002C71
:1007600040F387806C1E046005F8018C0468651AEC
:10077000002D7EDD05254FF00208661E066004F898
:10078000015C0568A94274D86C1AA34271D8064668
:100790001C46E81A0F46306011461A4612F068FCF3
:1007A000002C20462FDB7F2C41D83368DA1B002A2F
:1007B0005FDD01205A1E326003F8014C33680134BA
:1007C000DA1B002A55DD06220444591E002C316034
:1007D000204603F8012C16DB44447F2C15D83368DF
:1007E000DA1B002A45DD01205A1E326003F8014C55
:1007F00033680134DF1B002F3BDD3022591E31608E
:10080000204403F8012CBDE8F081FF2C21D8336887
:10081000DA1B012A2DDD8122591E316003F8014CBB
:1008200033680220591E316003F8012CE0E7FF2CE9
:1008300017D83368DA1B012A1BDD8122591E31606B
:1008400003F8014C33680220591E316003F8012C73
:10085000B4E7224639463046FFF748FE0028D2DB8F
:10086000C6E7224639463046FFF740FE0028A5DAA3
:10087000C9E76FF06B00C6E72DE9F04F0024D7B051
:100880000DF5AB7388469146CDE90643074601F066
:100890005DF9022859D1852378680BAE0193224671
:1008A00000F1880100960AAB0A9404F0C5FB2DAD57
:1008B000044668B90798A8427FD30A9A431B93421B
:1008C0007BD3831A18463146079312F0D1FB0A9C5A
:1008D000002C31DB079B5A1B002A6EDD00215A1EBB
:1008E00004F1010A079207A803F8011C52462946A1
:1008F000FFF75CFE041E1FDB0322294607A8FFF753
:10090000CFFEB0F1000B1BDB384601F01FF908AA3F
:1009100009A90BF0D7FC0346C8B1002B50DBC3F18B
:10092000A20206A9CDE90191CDF800802A4425490B
:10093000254804F0A1FF0446204657B0BDE8F08FDB
:100940005C46204657B0BDE8F08F204CF4E7059098
:10095000384601F0FBF80228059B1DD01846DDE95A
:1009600008320090294607A8FFF7F0FE002822DB96
:100970005444A34483445A46294607A8FFF716FE69
:10098000041ED9DB07A830222946FFF789FE031E83
:1009900016DBA3445B44C0E77B68324618780AA99B
:1009A0000BF0ACFC28B933680A9A294607A8FFF770
:1009B00085FE0028D3DA0446BEE76FF06B04BBE780
:1009C0001C46B9E7A8430200C443020080C6FFFFEB
:1009D000F0B53B4CC7B0266816BB012739482760E5
:1009E00012F024FB0546C0F5807331464FF4807247
:1009F00006A8029312F066FB2A46324906A812F0B6
:100A000037FB06AA009702AB2A4420212E480AF0A1
:100A1000D5FE064638B100232320236047B0F0BD41
:100A20000E2047B0F0BD2220029B27601D4406AF78
:100A300006AB78552B4440F20122022166205E70FD
:100A400000F0C0F9071EE6DB204812F0EFFA33464B
:100A500002461E49CDE90066384600F05DF90235D0
:100A600003A933460A22CDE90066384600F03CFA75
:100A7000CDE9006606A92A463346384600F04CF90F
:100A8000A84203D0384600F0E7F9C4E7CDE9006694
:100A900033460A2203A9384600F026FA0128F1DD80
:100AA00003A802220A4912F0D4FA05460028E9D127
:100AB00002233846236000F0CFF92846AEE700BF96
:100AC0006C020220E0430200086C0220F0430200A6
:100AD0000044020050F8081B090C06F0A5BD00BF39
:100AE00001480AF063BF00BF88440200002310B52C
:100AF00082B0019358B1044601AA07200BF08EF989
:100B000018B9019B0BB10833236002B010BD072058
:100B100002B010BD01F47043B3F5805F0BD160B13A
:100B2000034630F8082C072042EA014143F8081D2B
:100B300019460BF05BB90F2070470720704700BFC4
:100B400020B1A0F1080107200BF09AB907207047E7
:100B500018B1014607200BF0A5BA0720704700BF67
:100B6000023802288CBF002001207047806D70473A
:100B70000222034B883088600A704B60704700BFC8
:100B800098440200023801288CBF002001207047E1
:100B900010B5044603F048FC2046BDE810400BF0B9
:100BA000E9BF00BF10B5AC2101200BF0CFFF044618
:100BB00008B103F0D3FB204610BD00BF04F0ACBB6E
:100BC0002DE9F04FDDF824C0BCF1000F65D0424C98
:100BD000A4FB0C54640804EB4408C44518BF01345A
:100BE000B4F1804F71D2A40001348C4269D800283E
:100BF00067D0B8F1000F61D086460027374EDC1C65
:100C0000002514F8031C14F8023C14F801BC4FEA48
:100C1000A109090101F0300106EB131A16F8099039
:100C20009B001AF801A003F03C0106EB9B13595CF2
:100C300069F307050BF03F03F35C6AF30F2561F3DB
:100C40001745033763F31F650EF10401B845CEF86D
:100C5000005023468E4604F10304D1D8BC4514D974
:100C60001C781E4D0137A61067454FEA041404F0A6
:100C7000300415F806E015D33D262B5D81F800E021
:100C80004B703D238E70CB70043100239C46081AB4
:100C900010600B706046BDE8F08FC2F800C060467F
:100CA000BDE8F08F5B7881F800E005EB1316345D4A
:100CB0009B0003F03C034C70EE5CE2E747460146C4
:100CC000CCE714606FF0290CE4E74FF0FF336FF0CE
:100CD000290C1360DEE700BFABAAAAAA00450200F8
:100CE000006800F0EBB900BF10B50446006806F0DC
:100CF000A5F9A06818B1BDE810400BF03BBF10BDCE
:100D000010B504460068FFF723FFA06818B1BDE8DE
:100D100010400BF02FBF10BDF0B583B00F46154645
:100D2000064604F0F3FC002847D0036804469B0302
:100D300043D50368294623F400330360036801A800
:100D400043F40013236000F08FF9A0BB0422019B41
:100D50001A7258729872D872DE6085B918460121ED
:100D600000F096F9D0B94FF40032304611464FF0FA
:100D7000FF3304F05FFCA8B9284603B0F0BD394644
:100D800018682A4612F074F90121019800F080F9E0
:100D90000028E8D0019B186800F090F9019800F055
:100DA00085F92320236843F400332360FEF7E2FD36
:100DB0004FF0FF30E1E70C20F4E71620F6E700BF24
:100DC00000F04CB92DE9F041002582B002AB43F8A8
:100DD000085D80460F461846164602211D4A04F05B
:100DE00085FB009B04460BB3C3E903875E6129467C
:100DF00001A800F039F9E8B90422019B05215872D5
:100E00009872D8721A72DC60184600F041F9D8B9AD
:100E100002224FF0FF331146204604F00BFC05463A
:100E200048B9009A136843F400331360204602B0B7
:100E3000BDE8F0810C25204604F0AEFB2846FEF705
:100E400099FD4FF0FF34F1E7019800F02FF92325C9
:100E5000F1E700BFE10C0100F0B583B0064604F0F5
:100E600055FC00283DD00D23076803600368044645
:100E70009B031FD4002101A800F0F6F820BB042238
:100E8000019B062158729872D8721A72DE60184659
:100E900000F0FEF8D0B90E224FF0FF331146304675
:100EA00004F0C8FB0546A8B9304604F075FB284697
:100EB00003B0F0BD0368002123F40033036001A8F0
:100EC00000F0D2F80028DAD00C2503E0019800F0F9
:100ED000EDF8232527602846FEF74CFD4FF0FF353F
:100EE000E5E71625F7E700BF2DE9F04184B0884615
:100EF00015461E46074604F009FC002849D0002389
:100F0000CDE9008516F002050446CDE902330ED086
:100F10001EE0002D33D14FF48032236A1146002B9E
:100F200008BF4FF0FF33384604F084FB05462368C2
:100F3000E06923F480332360036832469B68694686
:100F40009847B0F10008E4DB404604B0BDE8F0810A
:100F50000368C06923F480332360036832469B68CA
:100F600069469847B0F10008EEDAB8F1FF3FEBD1DF
:100F70002320FEF7FFFC404604B0BDE8F081B8F145
:100F8000FF3FE1D12846FEF7F5FC404604B0BDE83E
:100F9000F0811620FEF7EEFC4FF0FF38D4E700BFDB
:100FA00004F012BC04F0DABB70B5064684B0C06829
:100FB0000D4604F0ABFB044648B303689BB2012B1B
:100FC0001FD003689BB20D2B29D003689BB2022B64
:100FD0002DD0033D012D17D8002573683268CDE967
:100FE0000255CDE90023E069694603685B689847CC
:100FF000013019D02846236843F48033236004B0BD
:1010000070BD022DE5D10560002004B070BD3068D0
:101010000028F9D000F052F8204604B070BD022D2F
:10102000D7D10E230360EFE7022004B070BD036840
:101030009B02CED5022DCCD1036823F400130360AC
:10104000036843F400330360DEE700BF20B150F8CB
:10105000081B090CFFF7A8BF704700BF01480AF042
:10106000A5BC00BF4045020080B1002310B582B08E
:1010700002AA044642F8043D03200AF0CFFE18B944
:10108000019B0BB10833236002B010BD0E207047E6
:1010900050B1034630F8082C032042EA014143F8DE
:1010A000081D19460AF0A2BE0E20704720B1A0F11B
:1010B000080103200AF0E4BE0E20704718B1014673
:1010C00003200AF0EFBF0E20704700BF30B53B4B46
:1010D00085B01D68002D4CD048F20203994253D0D0
:1010E0001CD948F2030399425AD049F201039942AC
:1010F00047D1002443680268CDE90244CDE90023CA
:10110000E869694603685B68984701304ED020461D
:101110002B6843F480332B6005B030BD48F20103E7
:1011200099422ED1C368002B35D1286810F4800075
:101130003ED02B689BB2012B05D12B681B0C1B04E6
:1011400043F002032B601E4B1A7802F0FF01002AC5
:1011500031D01C4A117809B9012111700020187092
:101160002B6823F480032B602B6843F400032B606F
:10117000D2E700680028CFD005F060FF284605B010
:1011800030BD002005B030BD2B6813F480030BD0B8
:10119000C0680028E4D00E2300206B6005B030BD8D
:1011A000C368012BA5D1F6E71846B5E70220B3E7DF
:1011B0000E236B60B0E7034A1170CFE77402022080
:1011C000FF6B0220006C0220002310B50749084A7B
:1011D000084C0948237003600B70136005F0F2FEA1
:1011E000003018BF0120404210BD00BFFF6B02203D
:1011F00070020220006C02207402022000232DE9FC
:10120000F047662882B0009372D1022989466FD1D7
:1012100040F205239A4292466AD1484F3D68002D1C
:101220007CD18046464A684604F060F9009B064639
:10123000002B7DD02946042242483B6011F042FF3A
:10124000009C2946C4E90389C4F814A001A805F04C
:10125000BFFE00283CD101220421019B3A4D587366
:101260009873D87358729872D87219722A701A7358
:101270002268184642F48002226047F2010105F01C
:10128000BFFE38BB4FF400024FF0FF33114630462B
:1012900004F0D0F9044610B3009A002E136843F40A
:1012A00000331360009A136823F480031360009ADC
:1012B000136823F40003136036DA002320463B60F2
:1012C0004FF0FF36FEF756FB304602B0BDE8F08720
:1012D0000C24E1E7019805F0A9FE0524DCE730467F
:1012E00004F014FA50B1446844B100234360D3E7DA
:1012F0001620FEF73FFB4FF0FF36E5E7009A136834
:1013000043F400331360009A136823F480031360DE
:10131000009A136823F400031360D5E70120FEF759
:1013200029FB4FF0FF36CFE7304604F035F9C4E72C
:101330001820FEF71FFB4FF0FF36C5E774020220AE
:10134000E90C010070020220FF6B02202DE9F0433E
:1013500085B000295ED0002A16465BDD1F46804618
:101360000D4604F0D3F90446002859D0C069BA07E5
:101370000368DB6824D5984701303BD02368E069D7
:1013800013F4803338D0002123683A4623F48033A5
:101390002360CDE90211CDE90056036869469B68D8
:1013A00098470546E0690368DB689847013003D039
:1013B000236843F480332360284605B0BDE8F083FA
:1013C000226812F08059D6D19847431CD6D14FF4E9
:1013D0008032236A1146002B08BF0346404604F0C2
:1013E00029F958B14FF0FF35FEF7C4FA284605B089
:1013F000BDE8F0832320F5E71D46D4E7404604F01E
:1014000085F903460028B9D040680028B6D0C3F853
:101410000490E7E71620FEF7ADFA4FF0FF35CBE773
:101420000920FEF7A7FA4FF0FF35C5E72DE9F04197
:1014300082B000295BD0042A59D11E4607460D46CA
:1014400004F064F90446002867D0B00726D5236865
:101450009B035ED500262368002123F4003323601C
:1014600001A8D5F8008005F0B3FDF8B90425019B6B
:1014700047F20301C3F80C8058729872D8721D723B
:10148000184605F0BDFD804640BBCEB9284623680E
:1014900043F40033236002B0BDE8F0812368D90033
:1014A000D5D423689A0336D50126D4E70C202368C7
:1014B00043F400332360FEF75DFA4FF0FF30EAE7B4
:1014C0004FF480324FF0FF331146384604F0B2F843
:1014D00098B1236843F400332360ECE7019805F0EA
:1014E000A5FD2368052043F400332360E3E71620BD
:1014F000FEF740FA4FF0FF30CDE7384604F006F92A
:1015000003460028C2D040680028BFD0C3F804803A
:10151000DFE77320CFE70920CDE70920FEF72AFA9D
:101520004FF0FF30B7E700BFF0B5012985B068D0B4
:101530001E4640F20523994240F095800746154625
:1015400004F0E4F80446002800F0B280012D19D020
:10155000022D10D02A25036823F48003236023681A
:10156000284623F400032360FEF704FA4FF0FF350A
:10157000284605B0F0BD16B10A9B012B49D023685F
:101580001625E9E7002EFAD00A9B042BF7D100219B
:1015900003A805F01DFD054600286AD1039808221E
:1015A00029460C3011F08EFD039831460A9A0C3012
:1015B00011F05EFD0823039847F2020103724572A1
:1015C0008572C572236843F48003236005F018FD1B
:1015D000002851D14FF400024FF0FF331146384636
:1015E00004F028F8054600283BD1384604F08EF870
:1015F00000284FD04368002B4CD000221D4642608B
:101600002FE00A9C009404F0A9F80546284605B08E
:10161000F0BD002103A8357805F0DAFC48BB012DA8
:1016200008BF264B4FF0040208BF1D70002303982B
:1016300047F201014372C5608372C372027223686C
:1016400043F48003236005F0DBFC0646A0B94FF4A9
:1016500000024FF0FF331146384603F0EBFF05461A
:1016600080B1236878E72A20FEF784F94FF0FF3530
:101670007EE723680C256FE7039805F0D7FC052566
:10168000236869E7384604F041F840B1456835B150
:101690004660E6E731460422094811F0E9FC236878
:1016A00023F480032360236823F4000323605FE7AF
:1016B0000920FEF75FF94FF0FF3559E7FF6B022075
:1016C00070020220F0B5012983B0089E30D01F4679
:1016D00040F20523994234D1154604F017F800284A
:1016E00037D0012D15D0022D0BD187B3336873B3DA
:1016F0000023012218461A4909783970326003B074
:10170000F0BD0920FEF736F94FF0FF33184603B05D
:10171000F0BDE7B13368032B19D9384604221149CB
:1017200011F0A6FC002304221846326003B0F0BD7D
:10173000009604F049F803460028E3D1184603B0A8
:10174000F0BD2A20FEF716F94FF0FF33DEE7162032
:10175000D8E70920FEF70EF94FF0FF33D6E700BFB8
:10176000006C02207002022010B5044603F0CEFF88
:1017700038B1204603F010FF0023054A18461360D5
:1017800010BD0920FEF7F6F84FF0FF3010BD00BF86
:1017900074020220002070470B4BD3E9002313444E
:1017A00098420DD282420BD810B5044605F0ECFEEB
:1017B00040B1064A84600260BDE8104005F02CBECE
:1017C0000BF0EEB910BD00BF78020220010002004C
:1017D00000282BD030B589B001AA6946044605F02F
:1017E00031FD034640B1134A04F1280003C882E8E2
:1017F0000300184609B030BDDDE90012204600F0B4
:10180000ABF903460028EED10B4B0C490C480D4AAE
:1018100003930D4D0D4B049105900D4902A80793BC
:10182000069502920AF03AFA0346DCE70E231846C0
:10183000704700BF7802022019750100E9750100A8
:101840007521010019740100991701009517010015
:101850008002022060B108B54368DBB2022B0ED0D3
:1018600003681B0C022B05D0042B0ED0002008BDF2
:101870000020704780680BF093F9002008BD0146F6
:10188000BDE8084003480AF0FBB802480AF066FACF
:10189000002008BD80020220704700BF00F016B98A
:1018A00070B504460D46164607F0BEF830B1036821
:1018B000324629462046BDE8704018474FF0FF30B9
:1018C00070BD00BF10B5044607F002F920B14368AF
:1018D0002046BDE8104018474FF0FF3010BD00BF54
:1018E0002DE9F0470D46DDE9088916461F460446F6
:1018F00007F0EEF858B1CDE90889D0F808E03B468A
:10190000324629462046F446BDE8F04760474FF08E
:10191000FF30BDE8F08700BF2DE9F04182B00E46F0
:1019200017469846054607F0D3F860B104460020F4
:10193000CDE9000043463A4631462846A468A04710
:1019400002B0BDE8F0814FF0FF30F9E72DE9F04734
:101950000D46DDE9088916461F46044607F0B8F82B
:1019600058B1CDE90889D0F80CE03B46324629460B
:101970002046F446BDE8F04760474FF0FF30BDE831
:10198000F08700BF2DE9F04182B00E461746984619
:10199000054607F09DF860B104460020CDE900003F
:1019A00043463A4631462846E468A04702B0BDE8BF
:1019B000F0814FF0FF30F9E770B50D46164604464A
:1019C00007F086F830B14369324629462046BDE823
:1019D000704018474FF0FF3070BD00BF70B50D4626
:1019E000044607F075F828B1836929462046BDE80A
:1019F000704018474FF0FF3070BD00BF2DE9F04137
:101A00000D461646044607F063F840B1C7693246F2
:101A100029462046BC46BDE8F041002360474FF010
:101A2000FF30BDE8F08100BF70B50D461646044694
:101A300007F04EF830B10369324629462046BDE82A
:101A4000704018474FF0FF3070BD00BF2DE9F041E6
:101A5000DDF818800D4616461F46044607F038F894
:101A600058B1CDF81880D0F820E03B4632462946E0
:101A70002046F446BDE8F04160474FF0FF30BDE836
:101A8000F08100BF2DE9F041DDF818800D461646C3
:101A90001F46044607F01CF858B1CDF81880D0F85E
:101AA00024E03B46324629462046F446BDE8F04154
:101AB00060474FF0FF30BDE8F08100BF0DF0F8B88F
:101AC0000DF0F8B80DF0F8B80DF050B908B5FBF707
:101AD00065FC08BD10B5064C23782BB906F038FF1D
