:10C000001857022079D100004B96010001CF0000A3
:10C0100001CF000001CF000001CF000001CF0000E0
:10C0200001CF000001CF000001CF0000C9CE000009
:10C0300001CF000001CF000019CE0000F9CA0000B6
:10C040001DCF00001DCF00001DCF00001DCF000040
:10C050001DCF00001DCF00001DCF00001DCF000030
:10C060001DCF00001DCF00001DCF00001DCF000020
:10C070001DCF00001DCF00001DCF00001DCF000010
:10C080001DCF00001DCF00001DCF00001DCF000000
:10C090001DCF00001DCF00001DCF00001DCF0000F0
:10C0A0001DCF00001DCF00001DCF00001DCF0000E0
:10C0B00081E900006F9B01001DCF00001DCF000033
:10C0C0001DCF00001DCF00001DCF00001DCF0000C0
:10C0D0001DCF00001DCF00001DCF00001DCF0000B0
:10C0E0001DCF00001DCF00008D9B01001DCF000063
:10C0F0001DCF00001DCF00001DCF00001DCF000090
:10C100001DCF00001DCF00001DCF00001DCF00007F
:10C110001DCF00001DCF00001DCF00001DCF00006F
:10C120001DCF00001DCF00001DCF00001DCF00005F
:10C130001DCF00001DCF00001DCF00001DCF00004F
:10C140001DCF000000000000000000000000000003
:10C1500000000000000000000000000000000000DF
:10C1600000000000000000000000000000000000CF
:10C1700000000000000000000000000000000000BF
:10C1800000000000000000000000000000000000AF
:10C19000000000000000000000000000000000009F
:10C1A000000000000000000000000000000000008F
:10C1B000000000000000000000000000000000007F
:10C1C000000000000000000000000000000000006F
:10C1D000000000000000000000000000000000005F
:10C1E000000000000000000000000000000000004F
:10C1F000000000000000000000000000000000003F
:10C20000DEE61E284CBBCE8F025B00003C00000027
:10C21000C4F900000100000000C0000000C00000E0
:10C22000FFFF02910000000000000000000000007D
:0CC2300000000000000000000000000002
:10C23C0053B94AB9002908BF00281CBF4FF0FF3181
:10C24C004FF0FF3000F070B9ADF1080C6DE904CE81
:10C25C0000F006F8DDF804E0DDE9022304B07047D5
:10C26C002DE9F04F099E04468946002B40F083804F
:10C27C008A42154645D9B2FA82F24AB1C2F1200778
:10C28C0001FA02F39540944020FA07F747EA0309B4
:10C29C004FEA154E230C1FFA85F8B9FBFEFC0EFB7A
:10C2AC001C990CFB08F143EA094399420AD9EB1893
:10C2BC002CBF01200020994202D9002800F01D81DA
:10C2CC000CF1FF3C591AA3B2B1FBFEF00EFB10119E
:10C2DC0000FB08F843EA0144A04505D92C1902D209
:10C2EC00A04500F20E810138A4EB080440EA0C4092
:10C2FC0000271EB1D4400023C6E900433946BDE8EF
:10C30C00F08F002A51D0B2FA82F2002A40F0AF80AE
:10C31C00491B4FEA154E1FFA85F80127230CB1FB78
:10C32C00FEFC0EFB1C1108FB0CF043EA0143984287
:10C33C000AD9EB182CBF01210021984202D90029FF
:10C34C0000F0D7800CF1FF3C191AA3B2B1FBFEF040
:10C35C000EFB101108FB00F843EA0144A04505D977
:10C36C002C1902D2A04500F2C1800138A4EB0804BC
:10C37C0040EA0C40BDE78B4208D9002E74D0002750
:10C38C00C6E9000138463946BDE8F08FB3FA83F7A9
:10C39C0067B98B42C0F0A480824240F2A18038463B
:10C3AC00002EABD0C6E90049A8E7FFDEC7F1200597
:10C3BC00BB4002FA07FC01FA07F4EA4020FA05F840
:10C3CC00E94000FA07FE1A4348EA04044FEA12480F
:10C3DC00200C1FFA82F9B1FBF8FA08FB1A110AFBC0
:10C3EC0009FB40EA01418B450AD951182CBF0123A6
:10C3FC0000238B4502D9002B00F088800AF1FF3A0C
:10C40C00A1EB0B01A4B2B1FBF8F008FB101100FB7F
:10C41C0009F944EA0141894504D9511801D28945E9
:10C42C007BD8013840EA0A40A1EB0901A0FB0C893A
:10C43C00494544464B4602D306D1C64504D2013881
:10C44C00B8EB0C0469EB0203002E5DD0BEEB0402CA
:10C45C0061EB030101FA05F522FA07F3F940002715
:10C46C001D43C6E9005149E73746304646E7C2F15D
:10C47C002000954001FA02F721FA00F34FEA154E1D
:10C48C0024FA00F11FFA85F894403943B3FBFEF00F
:10C49C000F0C0EFB103300FB08FC47EA03439C45D2
:10C4AC0007D9EB182CBF012700279C4500D98FB367
:10C4BC000138A3EB0C0389B2B3FBFEF70EFB173369
:10C4CC0007FB08FC41EA03418C4504D9691801D2E9
:10C4DC008C4525D8013FA1EB0C0147EA00471DE72D
:10C4EC00841A61EB03030120994659E702382C4466
:10C4FC003CE7ACF1020C2B4426E7ACF1020C2B44CC
:10C50C00E0E602382C44EFE63746F7E6AAF1020AD9
:10C51C00114475E702382B44CBE70238114481E70C
:10C52C00023F2944D7E700BF704700BF01460148CE
:10C53C000DF035B8C8AB010008B503480DF02FF865
:10C54C0000F0D2FCFCE700BFE6AB01002DE9F04F98
:10C55C0085B0837A00AF9B00073303F4FF63ADEB28
:10C56C00030DEB46436806465C460120CBF80030D1
:10C57C00814222D2307C884610F00100154601D051
:10C58C000CF085FD0446B8F1000F1EDABC23504AAE
:10C59C00504951480DF003F850480DF000F8BC21FB
:10C5AC004B480DF013F84FF0FF342146307C0CF063
:10C5BC0077FD1437BD46BDE8F08F236801309B082A
:10C5CC0023F0030344F8043FD2E75BF828302A46F3
:10C5DC0003FB05FA7B60336841463B6003EB0A09B9
:10C5EC00304607F10C030CF03BFDFB681B6823FA8B
:10C5FC0000F0C3070DD4A323354A394936480CF053
:10C60C00CEFF494637480CF0CAFFA32130480CF046
:10C61C00DDFF07F10C032A46414630460CF020FDA5
:10C62C000123FA6803FA00F01368396823EA00035F
:10C63C0013600C23F26803FB08231A1D41F80A202F
:10C64C009A682146C9F804209A68C2F80090C3F889
:10C65C000890307C0CF024FD307C10F0010001D0EF
:10C66C000CF015FD0446B8F1000F9ED007F10C0339
:10C67C002A46414630460CF0F3FCFB680028B8BF54
:10C68C0003301B6820F0030023FA00F010F00F00B9
:10C69C008BD1844625F0030A7A680AEB00035343D6
:10C6AC0032680130D118D1F8049052F803E0042814
:10C6BC00C9F800E0CEF8049042F803C0C1F804C0F9
:10C6CC00EAD1002DB8BF033508F1FF38AD105AE799
:10C6DC0002AC0100D7B6010045AC010087AC0100EB
:10C6EC0026AC010062AC01000B6801330B60014BFE
:10C6FC001B681847586002202DE9F04F85B00E9C3E
:10C70C009B46012CB8BF0124012B0CBF30232023E6
:10C71C0016468246884601250A270022DFF86C90CF
:10C72C000293B6FBF9F301930AB9B1451CD8019BEE
:10C73C00414603F13000D04701220135019B013FF6
:10C74C0009FB13660A23012FB9FBF3F9E9D1414622
:10C75C0006F13000D047BBF1030F02D1641B002C53
:10C76C000EDC05B0BDE8F08FBC42E7DBBBF1020F7D
:10C77C00E4D84146029803920135D047039ADDE78D
:10C78C0041462020D047013CE9E700BF00CA9A3B54
:10C79C00002307B50246019303480B4601A90CF090
:10C7AC008EFD03B05DF804FBF5C600004FF02002CF
:10C7BC00EFF3118382F31188BFF36F8F0121044AC9
:10C7CC00C2F8401583F31188BFF36F8F00207047B8
:10C7DC000090034038B5054648B90C490C48112364
:10C7EC000C4A0CF0DCFE11210A480CF0EFFE0A4C4E
:10C7FC0022684AB1094906481223064A0CF0CFFEBA
:10C80C00122104480CF0E2FE256038BDD2AC0100C8
:10C81C0045AC010097AC010008000220D6AC010029
:10C82C0010B5002204460121052000F0BBFB0520B9
:10C83C0000F0A8FB0222074B0020C3F818250322A6
:10C84C00C3F80423A368C3E90000A368C3E9030089
:10C85C0010BD00BF0050004038B5CCB2012C0546CD
:10C86C0009D90B490B4884230B4A0CF098FE842100
:10C87C0009480CF0ABFE0C21AB6804FB01314B7A80
:10C88C0023B9087AB0FA80F0400938BD0220FCE7E1
:10C89C008BAD010045AC010050AD01002DE9F04716
:10C8AC00CDB2012D0746144609D94A494A48FD2301
:10C8BC004A4A0CF074FEFD2148480CF087FE3B6898
:10C8CC00D7F80880D3F80890002C59D14FF02003EA
:10C8DC00EFF3118A83F31188BFF36F8F0C2303FBE3
:10C8EC0005831E7A0136F6B21E725EB93C493A488F
:10C8FC004FF48773394A0CF052FE4FF48771374866
:10C90C000CF064FE8AF31188BFF36F8F2CB30322F3
:10C91C00344BC3F808230C226A4308EB0203597A00
:10C92C0091B94FF02000EFF3118C80F31188BFF315
:10C93C006F8F2160586800283CD15C6048F8024039
:10C94C008CF31188BFF36F8F0322264BC3F804239B
:10C95C0019B1D4E9013138469847012E0ED10C2378
:10C96C006B4359F8033043BB0C23012203FB0595A1
:10C97C00AB7A03F1804303F5A0431A60002027E053
:10C98C0063685BB9184914484FF48173134A0CF06F
:10C99C0006FE4FF4817111480CF018FE0C236B430A
:10C9AC0058F803309C4211D0002B8FD01B68002B01
:10C9BC00F8D18BE704605C60C2E7384698470028E2
:10C9CC00D2D1294638460CF00BFED7E76FF00F009A
:10C9DC00BDE8F0878BAD010045AC010050AD010006
:10C9EC003EAD010000500040F0AC01002DE9F041DB
:10C9FC00CCB2012C054609D9244925489923254A4E
:10CA0C000CF0CDFD992123480CF0E0FD2B68AF68AC
:10CA1C00D3F808804FF02003EFF3118683F31188CD
:10CA2C00BFF36F8F0C226243B9180B7A4BB3013BE7
:10CA3C00DBB20B7243BBBB5042444B605368DBB957
:10CA4C000C22012104FB0282D37A03F1804303F50B
:10CA5C00A04319601389002203F1804303F5A0431E
:10CA6C001A600C23002004FB0374607286F3118897
:10CA7C00BFF36F8FBDE8F081284698470028DFD1BF
:10CA8C00EFE76FF04400F1E70020EFE78BAD01001A
:10CA9C0045AC010050AD010008B5104B1A6862B1ED
:10CAAC000F4AD2F80423D10707D500220D481A608B
:10CABC008368597A09B90CF093FD0B4B1A6862B173
:10CACC00074AD2F80423920707D5002201211A60E5
:10CADC000448BDE808400CF083BD08BD005100407F
:10CAEC0000500040946002200451004010B5064CE8
:10CAFC0006492246064817230CF051FD2046BDE896
:10CB0C00104017210CF062BDBFAD0100D7B601007B
:10CB1C0045AC0100002238B5224BC3F840214FF040
:10CB2C002003EFF3118583F31188BFF36F8F1E4839
:10CB3C000BF0C4FE68B94A231C4A1D491D480CF071
:10CB4C002EFD19491C480CF02AFD4A2117480CF0FF
:10CB5C003DFD15480BF0D0FE124B184AD3F8044596
:10CB6C0013681148E41A24F07F44234413600BF03B
:10CB7C00B3FE68B95D230D4A11490E480CF00FFD48
:10CB8C00094910480CF00BFD5D2108480CF01EFD06
:10CB9C0085F31188BFF36F8F2046BDE838400CF049
:10CBAC005BB900BF0050014028000220F1AD01002C
:10CBBC0017AE010045AC01002CAE01002400022090
:10CBCC0044AE01005BAE010070B515480AF028FCBC
:10CBDC0010B3436801211B689847002401264FF4C9
:10CBEC0080334FF400120F4D3146C5F80845C5F897
:10CBFC004065C5F804330C4B15201C600B4BC3F877
:10CC0C008021224600F0CEF9152000F0BBF9204619
:10CC1C00074B1E602E6070BD4FF0FF30FBE700BF6E
:10CC2C00AFAD0100005001404051014000E100E077
:10CC3C000850014070B53A4CB0F1FF3F18BF0446A4
:10CC4C004FF02003EFF3118583F31188BFF36F8F3F
:10CC5C0034480BF033FE68B94A23334A334934481D
:10CC6C000CF09DFC2F4933480CF099FC4A212E48BE
:10CC7C000CF0ACFC2B480BF03FFE2F4B284ED3F89E
:10CC8C0004252E4B1B68D01A10F4000F20F07F41A6
:10CC9C002CD1601E20EAE070B042A8BF30460131B2
:10CCAC000844B04294BF1B189B199A1A22F07F4279
:10CCBC00214923F07F40022AC1F8400518D91948B0
:10CCCC000BF00AFE68B95D23174A1D4918480CF091
:10CCDC0066FC14491B480CF062FC5D2112480CF0F8
:10CCEC0075FC85F31188BFF36F8F70BD0020D6E7FC
:10CCFC00D1F8042514489A1A22F07F42541E84421B
:10CD0C0005D94FF40012114BC3F80021D7E7012AC3
:10CD1C0002BF023323F07F43C1F84035CFE700BF99
:10CD2C00FEFFFF0028000220F1AD010017AE01004C
:10CD3C0045AC01002CAE0100005001402400022043
:10CD4C0044AE01005BAE0100FEFF7F0000E100E09D
:10CD5C0038B54FF02003EFF3118583F31188BFF33F
:10CD6C006F8F1A480BF0AAFD68B94A23184A194963
:10CD7C0019480CF014FC154918480CF010FC4A2109
:10CD8C0013480CF023FC11480BF0B6FD144B0F4864
:10CD9C00D3F80445134B1B68E41A24F07F440BF0C2
:10CDAC009BFD68B95D230A4A0F490B480CF0F7FB51
:10CDBC0006490E480CF0F3FB5D2105480CF006FC0F
:10CDCC0085F31188BFF36F8F204638BD28000220F1
:10CDDC00F1AD010017AE010045AC01002CAE010015
:10CDEC00005001402400022044AE01005BAE010063
:10CDFC0004488168406A884203D003494FF080524E
:10CE0C000A6070476C49022004ED00E029498A68E9
:10CE1C004FF028001044EFF3098C80E8F01F4FF01E
:10CE2C0010001EEA000F04D0D2F8AC0020F0040071
:10CE3C0007E002F16C0080EC108AD2F8AC0050F0E4
:10CE4C000400C2F8AC00202080F31188BFF36F8F70
:10CE5C00194F4FF000664A6A8A603E60506E00239C
:10CE6C00536680F31188D2F8AC0010F0040F05D192
:10CE7C000023E1EE103A5EF0100E05E02EF0100EDD
:10CE8C0002F16C0090EC108AEFF3148323F004038E
:10CE9C0083F31488BFF36F8F04B510460CF0D6FBE8
:10CEAC00BDE8044002F1280090E8F01F8CF30988DB
:10CEBC00704700006C49022004ED00E01EF0040FE6
:10CECC000CBFEFF30880EFF30980816911F8021CA5
:10CEDC000229FFD001B50CF0AEFB01BD01491022B7
:10CEEC000A60704710ED00E0404080F3118830BFBD
:10CEFC00704700BFEFF30880EFF30981724601B56C
:10CF0C0000F0B4F901BD00BF30BFFFF7FDBF00BF9B
:10CF1C0001B572B60B4A106A00281EBF00211162BF
:10CF2C000DF04DFA62B6EFF30580A0F110004FEA58
:10CF3C00C0000549014409C99847BDE801400349AF
:10CF4C00084700006C4902202CA50100FDCD000013
:10CF5C00094A0A49936809685866996608494B68F2
:10CF6C0043F080534B60002383F31188BFF36F8F22
:10CF7C009368986E704700BF6C490220C4AB0100E7
:10CF8C0000ED00E043B2002B08DB012200F01F0093
:10CF9C0002FA00F0024A5B0942F82300704700BF16
:10CFAC0000E100E070B54C1C072C05460E460ED96E
:10CFBC005F23104A104911480CF0F1FA3146104821
:10CFCC0007220CF0ECFA5F210A480CF0FFFA6BB266
:10CFDC00002BA8BF03F160434FEA4414B8BF094BC0
:10CFEC00E4B2ABBF03F5614305F00F0583F80043D2
:10CFFC005C5570BD70AE0100A6AE010045AC0100E1
:10D00C00C1AE010014ED00E008B572B6044B186A0D
:10D01C0018B100221A620DF0D2F962B608BD00BF39
:10D02C006C4902202DE9F7430D9E05460F2E8846CC
:10D03C0091461F4626D11E4B9F4227D10E9B4A4636
:10D04C0000934146334628460DF01FFA08EB0904BD
:10D05C00184AA4F1200323F0070322F001029A617D
:10D06C000A9A1F605A600B9A9A600C9ADA604FF019
:10D07C008072DA61AB6400236B66C5F8AC3003B028
:10D08C00BDE8F08306F110031E2BD7D92D230A4AD5
:10D09C000A490B480CF083FA31466FF00F030E224D
:10D0AC0008480CF07CFA2D2103480CF08FFAC5E7E8
:10D0BC00D1740100C5950100F6AE010028AF010046
:10D0CC0045AC0100B5AF01002DE9F0411F46064605
:10D0DC000C4690460023E1EE103AEFF3148525F050
:10D0EC00040585F31488BFF36F8F00F0B5F90A4B74
:10D0FC00444430469E6024F007040CF0A7FA3846EE
:10D10C0084F30988002163B681F31188BFF36F8F14
:10D11C00002200230CF050FA6C490220114A08B589
:10D12C00114B22F07F029A60BFF34F8FBFF36F8FCA
:10D13C00D3F8882042F4A002C3F888204FF0404274
:10D14C00C3F83422BFF34F8FBFF36F8F0023E1EE90
:10D15C00103A0AF0D1F90AF0D9F900F033F90AF0D3
:10D16C0007FA00BF00C0000000ED00E00CF036FA3A
:10D17C00202080F3118808484FF40061401880F398
:10D18C000988EFF314800221084380F31488BFF35D
:10D19C006F8FFFF7C3FF0000585802200D4B9A6A9F
:10D1AC009A6A9A6A920508D59A6B9A6A120404D5FF
:10D1BC0018B19A6A22F400429A620020054B9A6ACE
:10D1CC009A6AD20558BF9A6A9A6A42F47F429A6266
:10D1DC000870704700ED00E0074B00209A6A9A6ACD
:10D1EC009A6A9A6A9A6A9A6A9A6A9A6A6FEA02427E
:10D1FC006FEA12429A62704700ED00E0164B10B5D0
:10D20C009A6A9A6A9A6A0C46910708D55A6B9A6A76
:10D21C00120604D518B19A6A22F080029A620E4B5B
:10D22C009A6A9A6A9B6ADB060ED50C494FF49B737B
:10D23C000B4A0C480CF0B3F90B480CF0B0F94FF456
:10D24C009B7107480CF0C2F90020034A936A43F023
:10D25C00FF039362207010BD00ED00E0D7B6010013
:10D26C00E6AF010045AC010020B0010070B5414BA8
:10D27C009CB05C680025C4F3080485F31188BFF3E7
:10D28C006F8F02F07F43B3F17F4F0ED1D3070CD4D5
:10D29C00560604D4150705D40646012504E012F001
:10D2AC0004051CD00E4600257EB940F2B133324A3B
:10D2BC00324933480CF073F932480CF070F940F2F3
:10D2CC00B1312D480CF082F9002600238DF807307F
:10D2DC00E31E032B47D8DFE803F0043E423B06462F
:10D2EC00E2E7244BDA6A92073DD4DC6A14F08044FE
:10D2FC0008D028331B78EBB101200DF10701FFF7A3
:10D30C007DFF04469DF8073093B96822314602A888
:10D31C000CF0C8FA099B45B3C3F3080222B96FEAB3
:10D32C0053236FEA4323099302A920460CF081F999
:10D33C001CB070BD144B1B782BB101200DF10701F3
:10D34C00FFF72CFFDDE7114B1C88A4B2002CD9D0C1
:10D35C00FFF742FFD5E70DF107010020CFE70DF1F4
:10D36C0007010020ECE70024CCE723F4FF7323F043
:10D37C000103D8E700ED00E0E6AF01005AB0010070
:10D38C0045AC01006DB0010029ED00E02AED00E094
:10D39C00024A536943F010035361704700ED00E0FB
:10D3AC00BFF34F8F0549064BCA6802F4E062134382
:10D3BC00CB60BFF34F8F00BFFDE700BF00ED00E077
:10D3CC000400FA05002320210348C2180133412B25
:10D3DC0082F80013F9D1704700E100E038B504463B
:10D3EC004FF02003EFF3118583F31188BFF36F8F98
:10D3FC00037BDB070CD512492423124A12480CF08C
:10D40C00CEF812480CF0CBF824210E480CF0DEF8C4
:10D41C0020460AF04FFE0E4B9B68A3420BD10D4BDE
:10D42C005A68C2F3080212B92846FFF791FD5A68F0
:10D43C0042F080525A602846BDE838400CF0E3BFF9
:10D44C00ECB00100ABB0010045AC01001AB1010019
:10D45C006C49022000ED00E010B50E4B88B0029331
:10D46C000D4B0E4C03930E4B0E4A049302AB0193DF
:10D47C0001A82346012100F035F9002307930A4B3C
:10D48C000121E41A05A80593069400F04FF908B0A1
:10D49C0010BD00BF000002200000000000000420AE
:10D4AC0006000100000002200000022010B50B68ED
:10D4BC000C7A23F01F0204F01F031A43CB68640993
:10D4CC0023F01F03044943EA440343F0010388603B
:10D4DC00CA600B6110BD00BF90ED00E02DE9F04F6C
:10D4EC008046894614460027484D85B04F4507DADB
:10D4FC0058F827305E68C6B31F2E05D86FF0150498
:10D50C00204605B0BDE8F08FF206F7D1D3F800A0A5
:10D51C001AF01F0FF2D150460CF0C2F8834606EBFE
:10D52C000A0001380CF0BCF88345E7D11BF1160F4B
:10D53C00E4D0631E5B45E1DBC5F808B0E86858F839
:10D54C002710C5F808B02E6920F01F00D1E9003271
:10D55C001A44984246F01F0602F1FF3A18D156457C
:10D56C0005D15FFA8BF00CF079F80137BEE7C5F8FE
:10D57C0008B0EB6822F01F0203F01F031A43EA60A5
:10D58C00E0B20CF06BF810F1160FB7D0441CECE7BE
:10D59C00C5F808B02A69013B23F01F0302F01F02F3
:10D5AC0013435645E0B22B61EBD00CF057F810F159
:10D5BC00160FA3D0C5F808B0EA689DF80830013EF4
:10D5CC0062F304038DF808302B699DF808205B0882
:10D5DC0063F347128DF8082058F827200130D2E960
:10D5EC0000321344009323F01F031E44A6EB0A06DB
:10D5FC00C4B226F01F060F2C03963FF67FAF2046D1
:10D60C006946FFF753FF0134AFE700BF90ED00E030
:10D61C000522034B5A60BFF34F8FBFF36F8F7047D8
:10D62C0090ED00E0BFF35F8F0022014B5A60704712
:10D63C0090ED00E0F8B5214F3E68102E13D940F262
:10D64C002D131F4A1F4920480BF0A9FF1022314609
:10D65C001E480BF0A4FF1A4840F22D110BF0B6FF38
:10D66C004FF0FF30F8BD0024FFF7DCFF184D194ACE
:10D67C002A63A64219D1184B1E70FFF7C9FF2B68FD
:10D68C00C3F30723102B0ED014494FF4A7730C4A85
:10D69C000D480BF084FF12480BF081FF4FF4A7717B
:10D6AC0007480BF093FF0020DCE77968204601EB7C
:10D6BC000411FFF7FBFE0134DBE700BFFCA7010000
:10D6CC00BDB10100D7B6010045AC0100FDB10100B0
:10D6DC0090ED00E0AAFF4400CA49022031B20100DB
:10D6EC0082B2010038B50C4C0D462278FFF7F6FEDD
:10D6FC00207016300FD1F323084A094909480BF062
:10D70C004EFF294608480BF04AFFBDE83840F3218C
:10D71C0002480BF05BBF38BDCA490220BDB1010005
:10D72C00D7B6010045AC010062B101002DE9F74FFD
:10D73C002E4C894680460027A2464FF0140B2C4DE8
:10D74C004F4502DB03B0BDE8F08FD8F804300193ED
:10D75C00002B46D0D8F80010084600910BF0A0FF23
:10D76C00DDE900130646581801380BF099FF864284
:10D77C00204A18D014235F436FF015034AF8073082
:10D78C0040F203131C4A1D491D480BF008FF494683
:10D79C001C480BF004FF40F20311174803B0BDE81E
:10D7AC00F04F0BF013BF16F1160F2660E8D013786C
:10D7BC00B342E5DD0BFB07A3AE60AE60E868197BF6
:10D7CC0060F3040119732969187B490861F3471048
:10D7DC001873EB6823F01F0363602B6923F01F039E
:10D7EC0023610137143408F10C08A9E72C0002203E
:10D7FC0090ED00E0CA490220BDB10100D7B601008E
:10D80C0045AC01008EB1010070B5164B0C461D786D
:10D81C0006462B460021144A0F2B1DDD134951F8E7
:10D82C00040BFFF743FE2A4621463046FFF756FE0F
:10D83C00163015D14FF489730D4A0E490E480BF072
:10D84C00AEFE21460D480BF0AAFEBDE870404FF429
:10D85C00897107480BF0BABE936011610133DBE7A5
:10D86C0070BD00BFCA49022090ED00E02C000220E0
:10D87C00BDB10100D7B6010045AC010035B10100C6
:10D88C002DE9F04F1E460023A3B0CDE90201019310
:10D89C00134613F8010B089358B1252800F0858026
:10D8AC000399029B9847013040F017844FF0FF33E7
:10D8BC000193019823B0BDE8F08F232C6CD061D874
:10D8CC00002CF6D0202C0E9B08BF01230E93CDF814
:10D8DC002080DDF82080B74818F8014B21460BF06A
:10D8EC00A1FF0028E9D12A2C66D156F8043B98F800
:10D8FC000040002B0993BFBF5B42099301230F9398
:10D90C00089B03F102082E2C7BD198F800302A2BAF
:10D91C0074D156F8045B08F1010818F8014B214644
:10D92C00A54827460BF07EFF00286DD0434613F820
:10D93C00014B682F089307D1682C05D1482708F1B3
:10D94C00020398F801400893672C7BD8652C80F073
:10D95C003581472C5CD8452C80F03081002CA8D028
:10D96C00252C00F0B68303992520029B98470130A3
:10D97C009CD003992046029B9847013096D0019B7E
:10D98C000233ACE32D2C0AD0302C0BD02B2C0B9B60
:10D99C0008BF01230B939AE74FF0010B97E7012384
:10D9AC000F9394E701230A9391E700230A930E93B4
:10D9BC000B930F939B468CE7A4F13003092B099032
:10D9CC00A1D80A22DDF8208018F8014BA4F130030D
:10D9DC00092B98D8099B02FB0344A4F13003CDE931
:10D9EC000883EFE7904601FB0535303D424612F8BF
:10D9FC00013BA3F130000928F4D98EE700250A2158
:10DA0C00F4E74FF0FF358AE7CDF8208007469BE717
:10DA1C00632C59D020D8582CA5D16F2C06F10409B1
:10DA2C00316840F02883BBF1000F00F017833023DE
:10DA3C008DF86C30002940F01B838DF86D100F466B
:10DA4C00012625E0702C00F0F58227D86E2C00F012
:10DA5C00DE82E2D8692C86D1376806F10409002FE2
:10DA6C0080F29A802D2379428DF86C300DF16D0681
:10DA7C0030460A220BF062FF0B9B06441BA8361A99
:10DA8C00002B40F02F830E9B002B40F02B83FF0FBD
:10DA9C00002D21DA0025AB46A846E1E0752CBCD060
:10DAAC00782CBAD0732C7FF45EAFB146002DB8BF82
:10DABC006FF00045002659F8043BB54240F0C9828E
:10DACC002E4600252F4608E00027B1463D4601268C
:10DADC0059F8043B8DF86C301BABEA190025AB46AA
:10DAEC00A846921B22EAE2729119069109999019A3
:10DAFC000C1A0F9911B9002C00F3118303EB070AD0
:10DB0C00534540F0118312F1FF3280F01B83F61B5A
:10DB1C00B8F1000F11D09AF800000AEB0607A0F13B
:10DB2C003003092BA7EB0A0640F21783474617F17F
:10DB3C00FF3780F01B83A6EB0806BBF1000F15D056
:10DB4C000AEB06071AF8018B03994046029B98478B
:10DB5C0001303FF4ABAEB8F12E0FA7EB0A06F1D1B2
:10DB6C005F46002F00F30B83A6EB0B0695B19AF8DA
:10DB7C0000000AEB0607A0F13003092BA7EB0A06FD
:10DB8C0040F208832E2800F005832F46002F00F367
:10DB9C000A83761B564419E30B9B23B12B238DF878
:10DBAC006C30394662E70E9B0BB12023F7E7394600
:10DBBC001BAE5DE7A3B20100A9B2010006F1070993
:10DBCC0029F00709F9E80223D80240EA5250D6029C
:10DBDC0020F00040002AC3F30A510496059073F11B
:10DBEC000003DDE90467CDE9166741DA2D238DF8D2
:10DBFC006C300DF16D0740F2FF73994253D1DDE9A2
:10DC0C0004120A43A4F1410407F1030340D1192C77
:10DC1C0038D849223A704E227A7046220025AB46FB
:10DC2C00A8461BAEBA70FD709B1B0B9A002A40F0E5
:10DC3C00EC810E9A002A40F0E8819DF86C70A7F1F7
:10DC4C002D025742574105EB0806334403EB0B06F4
:10DC5C0022AB3B4413F81C3C303B092B00F24682B0
:10DC6C000A9B002B00F04582099B9A1B1BAB39E7E2
:10DC7C000B9B0BB12B23BAE70E9B0BB12023B6E702
:10DC8C001BAFB8E769223A706E227A706622C5E73C
:10DC9C00192C99BF4E2241216E22612194BF3A70FA
:10DCAC003A707970BAE7049B05980B431093CB1725
:10DCBC000343462C119308BF6624DDE9102313435C
:10DCCC0000F01181002900F09B800026179BA1F227
:10DCDC00FE3843F00043179318F1020FC0F2A480F2
:10DCEC00B8F1000F00F3DD8016A808F101080BF065
:10DCFC0047FEB8F1040FF7D1002D04F0DF03B8BFD5
:10DD0C000625472B40F0F880F11C02DBB54280F26F
:10DD1C00ED80023CE4B2002D00F0F480013DBBF13B
:10DD2C00000F40F0EF80002DD4BF4FF0000A4FF0F1
:10DD3C00010A662C40F0E88015EB060840F1EC80F7
:10DD4C00102366244FF00008159300224FF0006357
:10DD5C00CDE9182318F1FF3880F0E080169B189A53
:10DD6C0019999B18179A41EB0202CDE9163202F071
:10DD7C007043129300231393DDE91223134306D04F
:10DD8C0016A80BF00EFE16A80BF0FAFD0136662C49
:10DD9C0040F0E180002E40F3C880159B002B07DD7E
:10DDAC0015A916A80BF028FE013E07F8010BF4D1BB
:10DDBC00B0463B460026BBF1000F01D1002D15DD0E
:10DDCC002E2203F8012B002E00F0C080002D40F312
:10DDDC00BF80C6F1000BAB45A8BFAB46A5EB0B054E
:10DDEC00002D03DD159A002A00F3A680BAF1000F6E
:10DDFC0040F0C68000221BAE1A709B1B15E7013940
:10DE0C00049BDB180493059B5B410593DDE904231C
:10DE1C00002A73F10003F2DADDE90423CDE91623BD
:10DE2C0053E716A80BF0ACFDDDE916EC002300213E
:10DE3C00CDF830C00D93BB48DDE90C23994208BFE7
:10DE4C00904208F10108ECD30520AEFB0023CDE98C
:10DE5C000623079B013E00FB0C334FF0000C07938D
:10DE6C00DDE90623CDE91623002100236FF00042E3
:10DE7C0007988B4208BF824208D2BCF1000F3FF4D6
:10DE8C002BAFDDE90623CDE9162325E7069B08F128
:10DE9C00FF38DB180693079B4FF0010C5B4107938F
:10DEAC00E2E716A80BF07DFDDDE916AE4FF0000C95
:10DEBC0008F1FF380136002300216FF00040994231
:10DECC0008BF704506D2BCF1000F3FF409AFCDE995
:10DEDC0016AE05E71AEB0A0A4EEB0E0E08F1FF38E8
:10DEEC004FF0010CE7E70026B046FDE6AD1BBBF199
:10DEFC00000F04D1662416E74FF0000A19E74FF023
:10DF0C00000A19E74FF0000A05F1010810239845A3
:10DF1C001593A8BF984618E76624F7E718A80BF0E6
:10DF2C0040FD18A80BF02CFD14E73B4630224FF0B7
:10DF3C00000803F8012B3EE715A916A806930BF071
:10DF4C005BFD069B013D03F8010B49E7B34647E730
:10DF5C004FF0000B4AE715A916A80BF04DFD302821
:10DF6C00387018BF06F1FF36BBF1000F38D1002D09
:10DF7C0036DC7B1CBAF1000F44D04FF0000BD846B6
:10DF8C001A4613F8011D3029FAD02E2918BF134652
:10DF9C00002504F0DF02452A7FF42CAF002EB4BF1D
:10DFAC002D222B221946B8BF7642632E01F8024B64
:10DFBC005A7008DD642096FBF0F200FB126602F149
:10DFCC003004D91C9C700A2096FBF0F20B4600FB27
:10DFDC00126602F13004303603F8024B4E7009E73A
:10DFEC002E22BB1C7A70002DC4DD159A002AC1DDCF
:10DFFC0015A916A806930BF0FFFC069B013D03F830
:10E00C00010BF0E7D346D046C3E701271BE6B14628
:10E01C00682F59F8043B05D001DC482F07D0019A32
:10E02C001A6001E0019A1A804E46089A30E4019A6F
:10E03C001A70F9E7B14647F63003102259F8041B61
:10E04C000DF16E00ADF86C300BF078FC0227861CDD
:10E05C001EE59A5D002A47D001362EE51BAC08223E
:10E06C0020460BF06BFC1BAEA61B064400270FE5ED
:10E07C000DF16D04F3E7752C05D10A221BA80BF0EA
:10E08C005DFC0646F2E7BBF1000F12D047F63003F9
:10E09C000DF16E08ADF86C30102240460BF04EFCC2
:10E0AC00582C09D01BAEA8EB060606444FEA4B07CA
:10E0BC00EEE40DF16C08EFE71BAA1378A3F16101F4
:10E0CC0019299CBF203B137012F8013B002BF4D193
:10E0DC00E8E703992046FFF7E4BB019B013301936A
:10E0EC00B146A1E70127D3E41546EBE41BAB0022B4
:10E0FC00FAE41BAB0A9AF7E4CDE909320399029BC7
:10E10C0020209847DDE9093201303FF4CFAB1AF1FA
:10E11C00FF3AF1D20199214401915446EEE4A24612
:10E12C00F5E700BF3233333313F8010B039909932E
:10E13C00029B0A929847DDE9093201307FF4E0AC8A
:10E14C00FFF7B4BB03993020029B0992984701302A
:10E15C00099A7FF4D8ACFFF7A9BBDDE902319847E7
:10E16C0001303FF4A3AB1AF8010FD8E40399302027
:10E17C00029B984701307FF4DAACFFF797BB039909
:10E18C003020029B9847013007F1FF377FF4E9AC50
:10E19C00FFF78CBBDDE90231984701303FF486ABC9
:10E1AC001AF8010FE7E403993020029B98470130DD
:10E1BC0007F1FF377FF4EAACFFF778BB03991AF845
:10E1CC00010B029B984701303FF470ABA6EB0A039E
:10E1DC00002BF3DC019B069A002C134401937FF770
:10E1EC0023AF254606E003992020029B9847013077
:10E1FC003FF45CAB15F1FF35F5D2019B2344019341
:10E20C0012E700BF0CB41FB509B90DF10300CDE93D
:10E21C00020107AB069A02A905480193FFF730FBF0
:10E22C000022029B1A7005B05DF804EB02B0704737
:10E23C00339A010038B50D46044670B90B4940F2CB
:10E24C0011230B4A0B480BF0AAF90B480BF0A7F95A
:10E25C0040F2112106480BF0B9F923680C33D3E8CE
:10E26C00AF0F284100F0010038BD00BFE4B201003F
:10E27C00BCB2010045AC0100EAB2010010B5044685
:10E28C0070B90D4940F2E3130C4A0D480BF087F9B5
:10E29C000C480BF084F940F2E31108480BF096F9A6
:10E2AC0023680C33D3E8EF2F42F00102C3E8E12FCF
:10E2BC000029F7D110BD00BFE4B20100BCB20100CF
:10E2CC0045AC0100EAB2010038B500210546FFF764
:10E2DC00B1FF28B92B6828469B7E1BB1FFF7CEFFF8
:10E2EC00002023E00BF0B3FBC0B92B681B6973B99A
:10E2FC000F4940F68F530F4A0F480BF050F90F4857
:10E30C000BF04DF940F68F510A480BF05FF9284697
:10E31C00FFF7B4FF28460BF09FFBE1E78368002B67
:10E32C00E3D00121284698470028DEDA38BD00BF2B
:10E33C00EDB201001EB3010045AC0100EAB20100D0
:10E34C0038B5074C074DAC4200D138BD23681B686B
:10E35C005B681BB11B680BB1204698472034F2E771
:10E36C00406102206061022038B5074C074DAC4279
:10E37C0000D138BD03212046FFF75CFF10B92046C1
:10E38C00FFF7A2FF2034F2E7406102206061022017
:10E39C0070B5164684680D4661B922491C23224A81
:10E3AC0022480BF0FCF822480BF0F9F81C211E480F
:10E3BC000BF00CF96B6863B91E491D231A4A1B48F4
:10E3CC000BF0EDF81C480BF0EAF81D2116480BF089
:10E3DC00FDF823685BB100229D4213D12B685AB91A
:10E3EC0062682360954200D1636000232B6076B98C
:10E3FC00002070BD0B46EFE7136063689D4208BFB9
:10E40C006260F2E719681A460029F3D13EB123681D
:10E41C002B60606825600028EAD16560E9E76FF041
:10E42C001500E6E775B3010048B3010045AC0100E7
:10E43C007EB301008DB301009FB3010010B5074CF2
:10E44C0007492246074840F2FF130BF0A8F8204674
:10E45C00BDE8104040F2FF110BF0B8B8EEB301006C
:10E46C0021B4010045AC01001F2838B504460D4607
:10E47C0001D9FFF7E3FF064800EB8400D0F8003227
:10E48C0023F4403343EA0543C0F8003238BD00BFE3
:10E49C000025844008B5094B1A786AB9012131204E
:10E4AC0019700521FEF77EFD3120FEF76BFD4FF054
:10E4BC000042034BC3F80423002008BDCB490220C3
:10E4CC00001003402DE9F041036801F01F049B6824
:10E4DC000D461B794B4E44EA43140023D6F8042313
:10E4EC008768D2B203F5A27156F82110C1F304214A
:10E4FC008C426CD122FA03F1C90768D59A0002F15B
:10E50C00804202F54432D2F8101521F00101C2F814
:10E51C001015012202FA03F3C6F808332046002135
:10E52C00FFF7A2FFB868E84010F001004DD0F86882
:10E53C00E84010F0010048D07869E84010F001087C
:10E54C0051D0BB69EB40DB0745D43B69FA69EB4022
:10E55C0022FA05F503F0010305F00105AB4214BFE7
:10E56C0001250225002101F5A27356F8230010F0B5
:10E57C00030032D18B0003F1804303F54433D3F80D
:10E58C001025240222F4473222F44072C3F81025DD
:10E59C00D3F8102504F4F85444EA0545154301F169
:10E5AC004002920092B202F1804202F54432C3F86A
:10E5BC0010551060D3F8102542F00102C3F8102555
:10E5CC00012303FA01F1C6F80413BDE8F08101330D
:10E5DC00082B87D1A2E70325C4E701310829C2D152
:10E5EC006FF01200F1E73B69FA692046534023FAB9
:10E5FC0005F515F0010F0CBF03210221FFF734FFC5
:10E60C004046E2E7001003402DE9F74F07468468C7
:10E61C0003F47040B0F5804F1D4641D009DCB0F5D5
:10E62C00805F3FD0B0F5405F3ED090B16FF01500E9
:10E63C0033E0B0F5E04F39D004DCB0F5A04FF5D1A4
:10E64C00032006E0B0F5404F32D0B0F5504FEDD17D
:10E65C00072005F44076B6F5807F2BD0A6F5007622
:10E66C0073427341012919BF5FFA82F9C8464FF012
:10E67C001F084FF000094FF0010A05F0010C4FEA9A
:10E68C004C0646EA0C0646EA002040EA830605F0F2
:10E69C0002030193C8450FD2002003B0BDE8F08FF0
:10E6AC000220D6E70120D4E70420D2E70520D0E7EA
:10E6BC000620CEE70323D5E73B689B68197909F060
:10E6CC001F0343EA411BBBF11F0F01DDFFF7B6FE31
:10E6DC00194A0BF1800342F82360019A0AFA09F3F4
:10E6EC00A1682AB31943A1606169A8064CBF1943FC
:10E6FC0099436161A1696A064CBF19439943A161B1
:10E70C00216968074CBF194399432161E1692A06C5
:10E71C004CBF0B4321EA0303E36149463846FFF73C
:10E72C00D1FE0028B9D109F101025FFA82F9B1E7F3
:10E73C0021EA0301D7E700BF002584402DE9F84FFB
:10E74C00564B1E689846002E5ED001274FF0000AEB
:10E75C00534A93681268DC69D2F80890D3E9022511
:10E76C001540D3E905210A4325EA0205D9F8002012
:10E77C001B6912695C40544025EA04049DBBC8F82F
:10E78C000050002301201F464649474DD1F8042371
:10E79C0000FA03FC1CEA020F0DD055F8232052B1ED
:10E7AC0003F5A27251F8222045F82370C2F304221B
:10E7BC0000FA02F214430133082BE7D134BB86B1C3
:10E7CC0001274FF00008364B9D681B689E68D5E901
:10E7DC0002341C40D5E90532134324EA0304002C0F
:10E7EC0042D1BDE8F88F3D420AD099F804300AF0C6
:10E7FC001F00002140EA4310FFF736FE25EA07050B
:10E80C000AF1010A7F00B9E73446BAE7244BD3F882
:10E81C000890D9F80050002DD1D098462F68DFF819
:10E82C0094A0DFF894B0D9F80C30AA6823401342B6
:10E83C0015D06B6873B959464FF4D27352461B48C6
:10E84C000AF0ADFE1A480AF0AAFE4FF4D2715046F7
:10E85C000AF0BCFE6B682246294640469847002FBA
:10E86C00ADD03D463F68DEE7274213D02B69EA69FD
:10E87C0096F804C0534023FA08F313F0010F08F084
:10E88C001F000CBF0321022140EA4C10FFF7ECFDE6
:10E89C0024EA070408F101087F00A0E77C1103407B
:10E8AC00C4600220001003400011034045AC01007D
:10E8BC009FB30100B6B30100E2B3010037B50D46BA
:10E8CC00144648B9104911481E23114A0AF067FE34
:10E8DC001E210F480AF07AFE4DB90E490B481F2332
:10E8EC000B4A0AF05CFE1F2109480AF06FFE01AAD0
:10E8FC0021462846F9F776FB019B9C4218BF6FF026
:10E90C00150003B030BD00BF66B4010045AC01007A
:10E91C0036B4010079B40100002208B511462A2052
:10E92C00FEF740FB02F038FC014B1860002008BDDC
:10E93C006000022070B50D4B0D4C1A680A2500269C
:10E94C002346196881420ED051B15968511AB1420F
:10E95C00C4BF1C460E46013D03F10803F1D123460A
:10E96C00013A18605A60184670BD00BF640002205E
:10E97C0070000220684620F007018D4619B50D4B3A
:10E98C00D3E8EF2F0132C3E8E12F0029F8D106F0CC
:10E99C00BBFD094B1C683CB9FEF736FBFEF728FAA9
:10E9AC00BDE8194085467047201D09F0A1FE24687A
:10E9BC00F1E700BF64000220680002202DE9F04F4F
:10E9CC00884689B00BF070FDD8F800300646002B55
:10E9DC000F4603D109F0DAFD3C206EE0BCBF4FF0CE
:10E9EC00FF33C8F800300122002102A80BF03DFDD6
:10E9FC000DF1040A4FF02003EFF3118B83F3118810
:10EA0C00BFF36F8F09F06EFEFFF794FF3349436835
:10EA1C000A68894693424FF0000308D10193304BAA
:10EA2C005A68002A4CD1C3E900AA012300E04260D5
:10EA3C008BF31188BFF36F8F002B3DD0D8F80010EB
:10EA4C0002A809F09FFE4FF02003EFF3118B83F324
:10EA5C001188BFF36F8F0020214B1A6852B15245B9
:10EA6C0039D1019988BB58681960904200D159601E
:10EA7C000023019309F036FEFFF75CFFD9F8003054
:10EA8C0043608BF31188BFF36F8FD8F80090B9F106
:10EA9C00FF3F11D00BF008FD16EB090247EBE973B1
:10EAAC00141A63EB0105002C75F10003B8BF0024A8
:10EABC00C8F80040002C8FD0002009B0BDE8F08FC2
:10EACC00C2F800A0C3F804A0AFE7016059689142F6
:10EADC0008BF5860CCE710461268BFE764000220FC
:10EAEC00680002202D2810B504460CD040DC1628F6
:10EAFC0009D029DC082806D009DC022803D0052817
:10EB0C0001D001280CD10BF02AF8046010BD0C28A0
:10EB1C00F9D001DC0928F5E70D28F4D00E2860D0D7
:10EB2C004FF4A573474A484948480AF038FD214636
:10EB3C0047480AF034FD4FF4A57142480AF046FDEF
:10EB4C000BF00DF8434B4FE0282876D005DC23283A
:10EB5C004CD02528D7D01828D4E72A28D3D049DB85
:10EB6C002B28D0D02C28DBD10AF0F9FF2C233BE04A
:10EB7C003C28C8D015DC3328C5D005DC3028C2D0E1
:10EB8C0032283BD02F28BDE73628BCD001DC3428F6
:10EB9C00B8E73828B7D03928C2D10AF0E0FF3923BA
:10EBAC0022E07D2836D010DC70282BD005DC6928BB
:10EBBC00B6D10AF0D4FF372316E0722826D073287A
:10EBCC00AED10AF0CCFF44230EE07F282BD025DBFE
:10EBDC0080282DD08128A3D10AF0C1FF40F2D47334
:10EBEC0002E00AF0BCFF0E2303608FE70AF0B7FFC8
:10EBFC000B23F9E70AF0B3FF2923F5E70AF0AFFF7F
:10EC0C003E23F1E70AF0ABFF4323EDE70AF0A7FF41
:10EC1C004523E9E70AF0A3FF4823E5E70AF09FFF45
:10EC2C0040F2D173E0E70AF09AFF40F2D273DBE7CF
:10EC3C000AF095FF40F2D373D6E70AF090FF242335
:10EC4C00D2E700BF99B40100D7B6010045AC010072
:10EC5C00BDB40100ADBAADBA4FF08052014BC3F850
:10EC6C000021704700E100E04FF08052014BC3F8E7
:10EC7C008021704700E100E04FF00052014BC3F8D7
:10EC8C000021704700E100E04FF00052014BC3F847
:10EC9C008021704700E100E008B50023074AC2E973
:10ECAC000033074AD2E8EF1FC2E8E03F0028F9D151
:10ECBC000AF080FFBDE808400AF071BF680002202E
:10ECCC0064000220B0F58D7F3CD004DC012844D0D8
:10ECDC004FF0FF30704740F20223984252D040F27E
:10ECEC0003239842F4D101391329F1D801A353F825
:10ECFC0021F000BF9DED000061ED000081ED0000F2
:10ED0C0073ED000085ED000089ED00008DED000035
:10ED1C00DDEC0000DDEC0000DDEC0000DDEC0000C3
:10ED2C00DDEC0000DDEC0000DDEC0000DDEC0000B3
:10ED3C00DDEC0000DDEC0000DDEC0000DDEC0000A3
:10ED4C0077ED000001390529C2D8DFE801F0031581
:10ED5C0017190C21022313600AE0142905D0192974
:10ED6C0005D00429B4D10423F5E71423F3E711608B
:10ED7C00002070470323EEE70523ECE70623EAE7C0
:10ED8C000723E8E70229E5D00329F3D001299FD115
:10ED9C000123E0E70122034B1860036802489A76CE
:10EDAC00FDF718BDC000022050A801002DE9F0436A
:10EDBC000025214C214E54F8048CDFF8889085B046
:10EDCC00A84503D8002005B0BDE8F083636A96E837
:10EDDC0007001F6801AB83E807000C221946384670
:10EDEC000AF050FD90B98FB1636A21691B681A69EA
:10EDFC0091420BD19A69A169914207D8E16991427C
:10EE0C0004D962695B6932EA03030AD0276A67B1E5
:10EE1C000B480AF0C4FB404080F311884FF004000B
:10EE2C0002DFE36801351C44CAE748460AF0B7FB29
:10EE3C00636A1F60F5E700BF3CC20000B8A7010081
:10EE4C00F1B401001AB5010020B150F8081B090CEF
:10EE5C0000F052B8704700BF014806F0CFBB00BFAE
:10EE6C0090A80100002310B582B0019361B970B174
:10EE7C00044601AA092006F0F9FD18B9019B0BB153
:10EE8C000833236002B010BD0F2002B010BD0E205D
:10EE9C0002B010BD01F47043B3F5E04F0BD160B17B
:10EEAC00034630F8082C092042EA014143F8081DBA
:10EEBC00194606F0C3BD0F2070470E20704700BFE7
:10EECC0020B1A0F10801092006F002BE0E20704707
:10EEDC0018B10146092006F00DBF0E20704700BF87
:10EEEC0010B504460068FFF7F3FFA06818B1BDE841
:10EEFC00104001F035B910BD30B53B4B85B01D68E5
:10EF0C00002D4CD048F20203994253D01CD948F240
:10EF1C00030399425AD049F20103994247D1002484
:10EF2C0043680268CDE90244CDE90023E8696946EB
:10EF3C0003685B68984701304ED020462B6843F439
:10EF4C0080332B6005B030BD48F2010399422ED1BD
:10EF5C00C368002B35D1286810F480003ED02B6894
:10EF6C009BB2012B05D12B681B0C1B0443F0020335
:10EF7C002B601E4B1A7802F0FF01002A31D01C4A7C
:10EF8C00117809B901211170002018702B6823F435
:10EF9C0080032B602B6843F400032B60D2E70068DE
:10EFAC000028CFD0FFF794FF284605B030BD0020D5
:10EFBC0005B030BD2B6813F480030BD0C06800285B
:10EFCC00E4D00E2300206B6005B030BDC368012B6C
:10EFDC00A5D1F6E71846B5E70220B3E70E236B6020
:10EFEC00B0E7034A1170CFE7C8000220CC490220D9
:10EFFC00CD490220002310B50749084A084C09489E
:10F00C00237003600B701360FFF726FF003018BFEE
:10F01C000120404210BD00BFCC490220C400022098
:10F02C00CD490220C800022000232DE9F0476628B4
:10F03C0082B0009372D1022989466FD140F2052328
:10F04C009A4292466AD1484F3D68002D7CD1804649
:10F05C00464A684606F070F8009B0646002B7DD0A9
:10F06C002946042242483B600AF046FC009C294693
:10F07C00C4E90389C4F814A001A8FFF7F3FE002823
:10F08C003CD101220421019B3A4D58739873D873DB
:10F09C0058729872D87219722A701A7322681846AC
:10F0AC0042F48002226047F20101FFF7F3FE38BB05
:10F0BC004FF400024FF0FF331146304606F0EEF8E5
:10F0CC00044610B3009A002E136843F40033136007
:10F0DC00009A136823F480031360009A136823F4D6
:10F0EC000003136036DA002320463B604FF0FF36F6
:10F0FC00FFF7F8FC304602B0BDE8F0870C24E1E7DE
:10F10C000198FFF7DDFE0524DCE7304606F03AF9FE
:10F11C0050B1446844B100234360D3E71620FFF795
:10F12C00E1FC4FF0FF36E5E7009A136843F4003337
:10F13C001360009A136823F480031360009A136819
:10F14C0023F400031360D5E70120FFF7CBFC4FF04D
:10F15C00FF36CFE7304606F053F8C4E71820FFF728
:10F16C00C1FC4FF0FF36C5E7C8000220EDEE0000F1
:10F17C00C4000220CC4902202DE9F04385B00029BF
:10F18C0068D0002A174665DD1D4680460E4606F0FF
:10F19C00F9F80446002863D04DBBE069AA07036860
:10F1AC00DB682DD59847013044D02368E06913F40F
:10F1BC00803341D0002123682A4623F48033236016
:10F1CC00CDE90211CDE90067036869469B68984751
:10F1DC000546E0690368DB689847013003D0236873
:10F1EC0043F480332360284605B0BDE8F08315F066
:10F1FC000A0FD2D12D20FFF775FC4FF0FF35F2E747
:10F20C00226812F08059CDD19847431CCDD14FF4D0
:10F21C008032236A1146002B08BF0346404606F095
:10F22C003DF858B14FF0FF35FFF75CFC284605B0B0
:10F23C00BDE8F0832320F5E71D46CBE7404606F0FA
:10F24C00A1F803460028B0D040680028ADD0C3F820
:10F25C000490E7E71620FFF745FC4FF0FF35C2E7B7
:10F26C000920FFF73FFC4FF0FF35BCE72DE9F041DB
:10F27C0082B000295ED0042A5CD11E4607460D469A
:10F28C0006F080F80446002870D0E6B1B00767D5C8
:10F29C0023689B0360D500262368002123F40033E8
:10F2AC00236001A8D5F80080FFF7DCFD98B10C2095
:10F2BC00236843F400332360FFF714FC4FF0FF3056
:10F2CC0002B0BDE8F0810368D900E1D403689A0369
:10F2DC0044D50126E0E70425019B47F20301C3F85E
:10F2EC000C8058729872D8721D721846FFF7D2FDB6
:10F2FC008046B0B93EB92846236843F400332360F6
:10F30C0002B0BDE8F0814FF480324FF0FF3311466C
:10F31C00384605F0C3FF98B1236843F400332360EB
:10F32C00CAE70198FFF7CCFD2368052043F40033AE
:10F33C002360C1E71620FFF7D5FB4FF0FF30BFE786
:10F34C00384606F01FF803460028D4D04068002841
:10F35C00D1D0C3F80480DFE77320ADE70920ABE719
:10F36C002D20FFF7BFFB4FF0FF30A9E70920FFF777
:10F37C00B9FB4FF0FF30A3E7F0B5012985B068D099
:10F38C001E4640F20523994240F0958007461546EB
:10F39C0005F0F8FF0446002800F0B280012D19D0CA
:10F3AC00022D10D02A25036823F4800323602368E0
:10F3BC00284623F400032360FFF794FB4FF0FF353E
:10F3CC00284605B0F0BD16B10A9B012B49D0236825
:10F3DC001625E9E7002EFAD00A9B042BF7D1002161
:10F3EC0003A8FFF73FFD054600286AD103980822C1
:10F3FC0029460C300AF080FA039831460A9A0C30F0
:10F40C000AF050FA0823039847F20201037245727E
:10F41C008572C572236843F480032360FFF73AFDBD
:10F42C00002851D14FF400024FF0FF3311463846FB
:10F43C0005F034FF054600283BD1384605F0A2FF05
:10F44C0000284FD04368002B4CD000221D46426050
:10F45C002FE00A9C009405F0BDFF0546284605B038
:10F46C00F0BD002103A83578FFF7FCFC48BB012D4B
:10F47C0008BF264B4FF0040208BF1D7000230398F1
:10F48C0047F201014372C5608372C3720272236832
:10F49C0043F480032360FFF7FDFC0646A0B94FF44C
:10F4AC0000024FF0FF331146384605F0F7FE0546D3
:10F4BC0080B1236878E72A20FFF714FB4FF0FF3563
:10F4CC007EE723680C256FE70398FFF7F9FC052509
:10F4DC00236869E7384605F055FF40B1456835B1FA
:10F4EC004660E6E73146042209480AF0DBF9236856
:10F4FC0023F480032360236823F4000323605FE775
:10F50C000920FFF7EFFA4FF0FF3559E7CC490220FD
:10F51C00C4000220F0B5012983B0089E30D01F46EC
:10F52C0040F20523994234D1154605F02BFF0028F3
:10F53C0037D0012D15D0022D0BD187B3336873B39F
:10F54C000023012218461A4909783970326003B039
:10F55C00F0BD0920FFF7C6FA4FF0FF33184603B091
:10F56C00F0BDE7B13368032B19D938460422114991
:10F57C000AF098F9002304221846326003B0F0BD5B
:10F58C00009605F069FF03460028E3D1184603B046
:10F59C00F0BD2A20FFF7A6FA4FF0FF33DEE7162066
:10F5AC00D8E70920FFF79EFA4FF0FF33D6E700BFEC
:10F5BC00CD490220C400022010B5044605F0E2FE3D
:10F5CC0038B1204605F01CFE0023054A184613608E
:10F5DC0010BD0920FFF786FA4FF0FF3010BD00BFB9
:10F5EC00C8000220006804F0EFB900BF2DE9F0411B
:10F5FC0082B0089C002C5BD10F46154698460646F7
:10F60C0005F0C0FE0446B8F1000F2BD1002855D0F0
:10F61C0003689B0352D50368294623F40033036027
:10F62C00036801A843F40013236004F0A3F908BB9A
:10F63C000422019B1A7258729872D872DE60FDB95E
:10F64C001846012104F0AAF948BB4FF400323046A9
:10F65C0011464FF0FF3305F021FE60B9284602B089
:10F66C00BDE8F08160B303682D20FFF73BFA4FF043
:10F67C00FF30F4E70C20236843F400332360F4E7F5
:10F68C00394618682A460AF00DF90121019804F050
:10F69C0085F90028D9D0019B186804F095F90198D8
:10F6AC0004F08AF92368232043F400332360DCE759
:10F6BC003820FFF717FA4FF0FF30D0E71620D4E7C9
:10F6CC002D20D2E704F050B92DE9F041002682B08C
:10F6DC00022900963ED1804617466846204A0C46C1
:10F6EC0005F02AFD009B05460BB3C3E903845F615B
:10F6FC00314601A804F03EF950BB0422019B0521C0
:10F70C0058729872D8721A72DD60184604F046F975
:10F71C0088B9224621464FF0FF33284605F0BEFD3E
:10F72C00044660B9009A136843F40033136028460A
:10F73C0002B0BDE8F081019804F03EF9232428467C
:10F74C0005F05EFD2046FFF7CDF94FF0FF35EEE7F3
:10F75C000C24F4E72920FFF7C5F94FF0FF35E6E755
:10F76C00F1F50000F0B583B0064605F00BFE00285D
:10F77C003DD00D2307680360036804469B031FD428
:10F78C00002101A804F0F6F820BB0422019B0621FD
:10F79C0058729872D8721A72DE60184604F0FEF82D
:10F7AC00D0B90E224FF0FF331146304605F076FDEE
:10F7BC000546A8B9304605F023FD284603B0F0BD38
:10F7CC000368002123F40033036001A804F0D2F88D
:10F7DC000028DAD00C2503E0019804F0EDF823257D
:10F7EC0027602846FFF77EF94FF0FF35E5E7162531
:10F7FC00F7E700BF2DE9F04184B0884615461E4658
:10F80C00074605F0BFFD002843D000230446CDE990
:10F81C000085CDE902332EBB16F002050DD028E091
:10F82C00CDB94FF48032236A1146002B08BF4FF03C
:10F83C00FF33384605F032FD05462368E06923F4B2
:10F84C0080332360036832469B6869469847B0F161
:10F85C000008E5DB15B12846FFF744F9404604B033
:10F86C00BDE8F08116F00A0FD6D12D254FF0FF38E8
:10F87C00F1E72368E06923F48033236003683246A0
:10F88C009B6869469847B0F1FF3F8046E6D1232537
:10F89C00E1E716254FF0FF38DDE700BF05F0DCBDD2
:10F8AC0005F098BD70B5064684B0C0680D4605F0ED
:10F8BC0069FD044648B303689BB2012B1FD0036853
:10F8CC009BB20D2B29D003689BB2022B2DD0033D8C
:10F8DC00012D17D8002573683268CDE90255CDE9A2
:10F8EC000023E069694603685B689847013019D0CA
:10F8FC002846236843F48033236004B070BD022D86
:10F90C00E5D10560002004B070BD30680028F9D046
:10F91C0004F05AF8204604B070BD022DD7D10E2346
:10F92C000360EFE7022004B070BD03689B02CED5E4
:10F93C00022DCCD1036823F400130360036843F455
:10F94C0000330360DEE700BF50F8081B090C01F020
:10F95C0025B900BF014805F051BE00BFA0A80100A9
:10F96C00002310B582B0019358B1044601AA0620B9
:10F97C0006F07CF818B9019B0BB10833236002B078
:10F98C0010BD072002B010BD11F4704F0BD160B147
:10F99C00034630F8082C062042EA014143F8081DC2
:10F9AC00194606F04BB80F2070470720704700BF70
:10F9BC0020B1A0F10801062006F08AB80720704794
:10F9CC0018B10146062006F095B90720704700BF14
:10F9DC002DE9F04FDFF8CCC083B000900CF13C0B5C
:10F9EC00DCF808302BB1DCF80020009C1078A04229
:10F9FC0006D00CF10C0CE345F2D103B0BDE8F08F4E
:10FA0C00DCF804A003EB0A08C245F2D25368CDF827
:10FA1C0004C0D6469C46D2F810909789AEEB0A00EB
:10FA2C00DFB3B9F8022090421CD36546002409F1DB
:10FA3C00040303E05A880433824215D833F8046C6B
:10FA4C000134A74202FB0655A0EB02001E46F1D181
:10FA5C00002081420DD00EF1010EF045DED1DDF813
:10FA6C0004C0C6E765464E46338800FB035081420E
:10FA7C00F1D1BEF5007FDDF804C0BAD00123084AED
:10FA8C004FEA5E1152F821000EF01F0E03FA0EFE23
:10FA9C004EEA000042F82100AFE73846D9E700BF34
:10FAAC00CC00022010010220002850D06D4BD3F85E
:10FABC00882090424BD82DE9F04FD3F88CB083B00E
:10FACC00BBF1000F54D00BF1FF32914600264FF0E2
:10FADC001208654F01920BF1110E06EB090253F857
:10FAEC0038400132520804EB440C02F1120153F875
:10FAFC00315057F82CA053F83E4003EBC80CDCF8FF
:10FB0C0004C005EB450504EB4404DAF810A057F8E3
:10FB1C00255057F824403AF82CA003EBC10103EB15
:10FB2C00CE0C49682D692469DCF804C0504535F8C1
:10FB3C00215034F82C1015D9884211D2A84208D97A
:10FB4C00561CB145C0F0878002F11308C5E70020B0
:10FB5C00704702F1FF394E457DD802F1110EBCE71A
:10FB6C0009F10106B34507D0102E01D0B34508D8D2
:10FB7C00002003B0BDE8F08F019A102A18BF16467A
:10FB8C00F6D0DFF8E8C003EBC608D8E9242402EB72
:10FB9C00420257F8223007EB8202D2F804E01D69CA
:10FBAC00002C56D02A467046A40005EB0409518857
:10FBBC00043291450844FAD12919B1F802A08244C3
:10FBCC00824518D941095CF8212000F01F0422FA63
:10FBDC0004F919F0010F07D013E05CF8212022FA88
:10FBEC0004F919F0010F0CD1013082454FEA501184
:10FBFC0000F01F04F1D101365E4508F10808C4D3AA
:10FC0C00B6E7012606FA04F49E8922EA0402A0EB68
:10FC1C000E004CF821205C68002EA9D06A88824224
:10FC2C0011D800212B1D03E05A88043382420AD8D4
:10FC3C0033F8045C01318E4202FB0544A0EB020058
:10FC4C001D46F1D194E72B8800FB034003B0BDE8BF
:10FC5C00F08F7046B0E7BBF1100F08BF0F2690D0A5
:10FC6C0086E700BF4C01022010010220CC000220CC
:10FC7C0000284CD06B4B1A68904248D82DE9F04FB5
:10FC8C005F6883B00097002F51D07A1E96460021F2
:10FC9C004FF0010C644C019201EB0E02013253F84F
:10FCAC003C50520802F1010805EB450553F837901A
:10FCBC0054F825A053F8386009EB490503EBCC093F
:10FCCC00D9F8049006EB4606DAF810A054F8266032
:10FCDC0054F825503AF829A003EBC80B03EBC709DD
:10FCEC003669DBF804B02D69D9F80490504536F824
:10FCFC002B6035F8295013D9A84210D2B04208D93C
:10FD0C00C6454146C0F0878008F1010CC4E70020CD
:10FD1C00704702F1FF3E71457DD81746BCE7394666
:10FD2C00009A8A4207D0102901D08A4208D80020B4
:10FD3C0003B0BDE8F08F019A102A18BF1146F6D017
:10FD4C00DFF8E8C0DDF8009003EBC108D8E9022623
:10FD5C0002EB420254F8223004EB8202D2F804E0A7
:10FD6C001F69002E55D03A467046B60007EB060ABE
:10FD7C005588043292452844FAD1BD19B5F802B021
:10FD8C008344834518D945095CF8252000F01F06EB
:10FD9C0022FA06FA1AF0010F07D013E05CF82520BE
:10FDAC0022FA06FA1AF0010F0CD1013083454FEA02
:10FDBC00501500F01F06F1D10131494508F1080832
:10FDCC00C4D3B4E70121B1409E8922EA0102A0EB21
:10FDDC000E004CF825205C68002EA8D07A88824250
:10FDEC0011D800213B1D03E05A88043382420AD803
:10FDFC0033F8045C01318E42A0EB020002FB054497
:10FE0C001F46F1D193E73B8800FB034003B0BDE8EC
:10FE1C00F08F7046B1E7009A102A08BF0F218FD0DF
:10FE2C0085E700BF4C01022010010220CC0002200B
:10FE3C0070B5002201253348510950F8214002F0D9
:10FE4C001F0305FA03F301322343B2F5007F40F898
:10FE5C002130F1D100242C4B21463C222B481C6034
:10FE6C0009F04AFD10210522294B2A4EC3E9004412
:10FE7C00D9605961D9615962D9625963D96359649E
:10FE8C00D9645965D9655966D9665967D9679A6035
:10FE9C001A619A611A629A621A639A631A649A6472
:10FEAC001A659A651A669A661A679A67C3E92021D9
:10FEBC00C3E92244C3E92421C3E92621C3E928214B
:10FECC00C3E92A21C3E92C21C3E92E21C3E930213E
:10FEDC00C3E93221C3E93421C3E93621C3E938210E
:10FEEC00C3E93A21C3E93C21C3E93E21C3F804111B
:10FEFC00C3F80021C3F80C11C3F808212046357053
:10FF0C0070BD00BFCC0002200C01022010010220A9
:10FF1C004C010220CE4902202DE9F04F874B87B0CF
:10FF2C001B78002B00F08C8028B321B30B78DFF802
:10FF3C00188203EB031308EBC3035B68B1F80CC026
:10FF4C006344102B11D84FF0000A89467C4B7D4F2F
:10FF5C001B684FEA8C0E0093B96891B10AF1010A43
:10FF6C00BAF1050F07F10C07F6D148F2071B5846FA
:10FF7C0007B0BDE8F08F48F20E1B584607B0BDE83D
:10FF8C00F08FBCF1000F61D00D460C46D9F8103043
:10FF9C000EEB030B5A8833F8046B15449B4502FB9C
:10FFAC000644F7D1D9F80830A342D7D3009B2B4491
:10FFBC00B3F5007FD2D2634C0AEB4A029200C0F830
:10FFCC0000A0A01844F80290009A8B46C0E90125C5
:10FFDC0099F801205A48012A0360C8D0B9F80C30AE
:10FFEC00002BC4D00025CDF80490CDF80CA0CDF892
:04FFFC0014B0019BA1
:020000021000EC
:100000001F781A693B0103EB0709009308EBC9034A
:10001000596832F82540029139BB039ADD609A6035
:10002000009B3B441F4608EBC3014B6858F8372040
:10003000013394424B6012D9019B48F837409B89A9
:1000400001359D42DBD3DDF814B096E748F2081B7A
:10005000584607B0BDE8F08F009B6546AEE7019BB0
:1000600001359B89AB42CAD8EDE7002601F1FF3A82
:10007000049506EB0A0009EB06020132013058F83C
:1000800032C04008324D09EB000109EB0A0301318F
:1000900001330CEB4C0C58F831E055F82CB058F803
:1000A00033C008EBC2020EEB4E0E0CEB4C0CDBF82F
:1000B00010B0526855F82EE055F82CC008EBC1017D
:1000C00008EBC3033BF82220DEF810E04968DCF8B7
:1000D00010C05B6894423EF821103CF823302DD9C3
:1000E0009C422DD28C4224D9461CB245C1D2102646
:1000F000049D029AB24211D9009B3B441A443344F6
:1001000008EBC20A08EBC309082251460AEB0200B9
:10011000AAF1080A09F0CCFBD145F5D1009B03995F
:100120003B443344013308EBC30248F833105560B5
:1001300076E700F1FF3A56459BD9D8E7049DD8E70A
:10014000049D0AF10106D4E7CE4902200C010220E9
:10015000100102204C010220034B1B780BB1FFF76A
:100160008DBD1846704700BFCE490220044B1B7856
:1001700023B118B101460020FFF730BC704700BF23
:10018000CE490220034B1B780BB1FFF793BC1846F6
:10019000704700BFCE490220044B1B7823B118B131
:1001A00001460120FFF71ABC704700BFCE4902206C
:1001B00050F8081B090C04F033BD00BF014805F0DE
:1001C00023BA00BFB0A80100002310B582B001938C
:1001D00058B1044601AA042005F04EFC18B9019B51
:1001E0000BB10833236002B010BD072002B010BD70
:1001F00001F47043B3F5E04F0BD160B1034630F822
:10020000082C042042EA014143F8081D194605F074
:100210001BBC0F2070470720704700BF20B1A0F122
:100220000801042005F05ABC0720704718B10146A8
:10023000042005F065BD0720704700BF2DE9F04799
:100240000C460B68464F23F400330B600B68C60066
:1002500023F480130B6007EB060A82B0DAF804304F
:10026000896947F281020546D4F8008003F0D0FB8B
:1002700000286FD0DAF804208146002A5FD1394B7C
:10028000711903EB8101242209F1140009F010FB1C
:10029000D9F8083049462433C9F808302268434663
:1002A000120C120442F00A022260204647F2810238
:1002B00003F0CEFB034670B92368DB000FD44FF088
:1002C000FF334FF6FF720B21284603F0D5FB0346A0
:1002D00050B1C4F80080184602B0BDE8F08773231F
:1002E000184602B0BDE8F0874FF080624FF0FF3350
:1002F0001146284603F0C0FB034630BB57F83500D3
:1003000038B10193FFF732FF019B3E44736047F819
:1003100035301846226822F0806222602268120C72
:10032000120442F00C022260226842F40032226081
:10033000226842F48012226002B0BDE8F08757F8CC
:100340003510006809F0B4FA99E7732BC3D0C4F8EC
:100350000080C0E70C23184602B0BDE8F08700BF5C
:10036000A00302205C0202200020704738B54B1E1B
:10037000012B08D8144662B101292DD0B2F5877F30
:1003800008BF02220DD02920FEF7B2FB4FF0FF3547
:1003900020E001290BBF012202224FF482744FF4A6
:1003A000877403F095FB051E1BDB0F4B05EBC500A7
:1003B00003EB800024220D4909F07AFA284604F064
:1003C000E7FF0368446123F480130360036823F4A8
:1003D00000330360284638BDB2F5827FD3D10A4688
:1003E000DFE74FF0FF35F5E75C020220C0A801000F
:1003F00038B5044604F0CCFF80B10B4D55F83400FD
:1004000038B1FFF7B3FE002305EBC40245F83430E2
:1004100053602046BDE8384003F00CBC0920FEF7CD
:1004200067FB4FF0FF3038BDA00302202DE9F047F5
:100430000D46DDE9088916461F46044604F0A8FF6C
:1004400000283BD003689BB20C2B39D003689BB2C9
:100450000B2B11D1204B04EBC40413F82430022BD6
:1004600038D00369012B14BF39202A20FEF740FB46
:100470004FF0FF30BDE8F0870369012B0BD0022B52
:1004800001D03920F2E703689BB2022B07D0036842
:100490009BB2042B03D003689BB2052BF1D10E4B0A
:1004A00004EBC40213F82230022BEAD101462046A5
:1004B000FFF7C4FE002803D0D8DCD9E70920D5E730
:1004C000CDE908893B46324629462046BDE8F0473B
:1004D00003F020BC2320C9E75C0202202DE9F0478D
:1004E0000D46DDE9088916461F46044604F050FF14
:1004F000002838D003689BB20C2B0FD003689BB246
:100500000D2B0BD00369012B1AD0022B10D0232006
:10051000FEF7EEFA4FF0FF30BDE8F087CDE908892D
:100520003B46324629462046BDE8F04703F06ABD07
:1005300003689BB2022B07D003689BB2042B03D045
:1005400003689BB2052BE2D1084B04EBC40213F8FD
:100550002230022BDBD101462046FFF76FFE002838
:10056000DCD0D5DCD6E70920D2E700BF5C02022050
:100570002DE9F84F0C461746064604F009FF0028FF
:100580006DD0036805469BB2022B5AD121463A46EC
:10059000304603F025FF0446002848D1F700DFF875
:1005A000C480BB1918F82330012B02D02046BDE8C7
:1005B000F88FDFF8B4B047F281020BEB070ADAF8E4
:1005C0000430A969304603F023FA8146002844D05C
:1005D000DAF80420002A3AD1B91908EB8101242263
:1005E00009F1140009F064F9D9F8083049462433B8
:1005F000C9F808302A680423120C120442F00A02D7
:100600002A60284647F2810203F022FAE8B92B68F3
:10061000DB0018D430464FF0FF334FF6FF720B214A
:1006200003F02AFA0028C1D0042304462B60002CD2
:10063000BCDD20464FF0FF34FEF75AFA2046BDE8F5
:10064000F88F2D24F5E77324F3E70446EFE75BF812
:100650003610006809F02CF9BEE70C24E9E70924FC
:10066000E7E700BF5C020220A0030220F8B50E46B7
:100670001746044604F08CFEE8B1134B04EBC402A9
:1006800013F82230022B1CD1036805469BB2022BC3
:1006900003D003689BB2042B13D13A46314620465F
:1006A00003F0E4FD10B1002806DCF8BD2946204621
:1006B000FFF7C4FDF7E70920FEF71AFA4FF0FF3005
:1006C000F8BD2D20F8E700BF5C0202202DE9F04FB5
:1006D00083B00191054604F05BFE002879D00369E0
:1006E0000446012B73D103689BB2042B5FD02368AF
:1006F0009BB20B2B6BD1EE00374F731917F82330D9
:10070000012B64D10122DFF8D4907319EE0007F8B1
:10071000232009EB0608A169D8F8043047F28102CA
:100720002846D4F800A003F073F9834600284CD083
:10073000D8F80420002A42D1711907EB8101242244
:100740000BF1140009F0B4F8DBF808205946243204
:10075000CBF8082022685346120C120442F00A0219
:100760002260204647F2810203F072F968B92368DB
:10077000DB000FD44FF0FF334FF6FF720B212846FA
:1007800003F07AF970B1C4F800A0002803DC03B0CC
:10079000BDE8F08F7320FEF7ABF94FF0FF3003B0E8
:1007A000BDE8F08F0199284603F0BAFEEDE7EE00B0
:1007B000094F731917F82330022B98D1A2E759F883
:1007C0003510006809F074F8B6E70C20E3E72D2037
:1007D000E1E70920DFE700BF5C020220A00302205E
:1007E000F8B50C4616461F46054604F0D1FD002814
:1007F0003BD0006880B2062837D121463B463246BE
:10080000284603F003FF044618B1002C2EDC2046D6
:10081000F8BD284604F0BCFD0368184F23F40033EC
:100820000360036805EBC50523F4801306460360E7
:1008300007EB85012422384609F03AF802233B7081
:10084000336820461B0C1B0443F00B0333604FF648
:10085000FF724FF0FF330C2103F00EF9044600281D
:10086000D5D0002003F0E6F9CFE7092420464FF069
:10087000FF34FEF73DF92046F8BD00BF5C020220C0
:100880002DE9F041B1F58D7F069E1ED11F4605462C
:10089000002B00F08C80904604F07AFD00287BD07D
:1008A0000468A4B2022C07D003689BB2042B03D0C7
:1008B00003689BB2052B6FD108F1FF32042A7CD864
:1008C000DFE802F0244E32410700BDE8F04103F0BA
:1008D000D5BF3B4C54F8350038B1FFF747FC002238
:1008E00004EBC50344F835205A6030464EB3FFF799
:1008F00033FC44F83500002857D004EBC5043246D9
:100900003946666008F0D4FF00201AE0042E4AD170
:100910003868002839D0012845D12A4A05EBC5049A
:1009200002F8240000200CE0012E3CD13A7800208F
:10093000003218BF0122234B05EBC50403EB8404EE
:100940006270BDE8F081042E2DD13A68022A2AD8BF
:100950001C4B05EBC50403EB8404A2700020F0E7F8
:100960005FEA960C1FD016F003041CD105EBC505F9
:10097000AD00144B281D18442B443246394683F8E9
:1009800003C008F095FF2046DBE702210D4A05EB86
:10099000C50402F82410D4E70920FEF7A9F84FF0A7
:1009A000FF30BDE8F0811620F7E70C20F5E70E20B8
:1009B000FEF79EF84FF0FF30C3E72A20EDE700BFB7
:1009C000A00302205C0202202DE9F041B1F58D7FE9
:1009D000069F12D11D466BB167B10646144604F05E
:1009E000D7FC00284FD0013C032C52D8DFE804F09C
:1009F000392115090E20BDE8F081BDE8F04103F072
:100A0000F9BF3B68042B3CD1234B06EBC60603EB36
:100A10008606B37800202B60EDE73B68012B30D1D0
:100A20001D4B06EBC60603EB8606737800202B7081
:100A3000E1E706EBC60618493B68B6008A1913F0D1
:100A40000304D07821D19B08834228BF03469A0033
:100A5000DBB1043631443A60284608F029FF2046CD
:100A6000C9E73B68042B0CD10B4B06EBC60613F809
:100A700026300020A3F10103B3FA83F35B092B6056
:100A8000B9E71620B7E70920B5E70028F9D13860A3
:100A9000B1E72A20AFE700BF5C020220F8B548F2B8
:100AA0008105AB420C4662D049F282018B42064678
:100AB0002ED048F202018B4201D00120F8BD002C5B
:100AC000FBD06369B3F5827F02D0B3F5877FF4D1A1
:100AD000236823F0005323605569002D56D1236805
:100AE0001B0C1B0443F0050323602368DA000DD5BB
:100AF0002B4B06EBC60213F82230022B06D13046F0
:100B00002146FFF79BFB08B1732842D10020F8BDB6
:100B1000002CFBD023689BB20B2BF7D11569002D5D
:100B200034D1236843F0806323602368DB00EDD574
:100B30001C4F57F8300030B1FFF718FB07EBC60326
:100B400047F836505D602368002023F080632360FF
:100B500023681B0C1B0443F00C032360236843F43D
:100B600000332360236843F480132360F8BD002919
:100B7000CCD00B689BB20A2BC8D1506938B90B682E
:100B80001B0C1B0443F00B030B60F8BD284602F05E
:100B900035FF60602368002043F480232360F8BDA4
:100BA0005C020220A003022008B5084AC16812882E
:100BB0000346B2EB114F05D0006810B1FEF706FFF7
:100BC000002008BD024A0120136008BDC049022070
:100BD000EC030220002310B508480949094A0A4CD1
:100BE00003800B6013602360FEF7BAFE10B9012387
:100BF000236010BD4FF0FF3010BD00BFC049022080
:100C0000EC030220E8030220E003022008B5074BB2
:100C10001A68012A03D102221A60054808BD012082
:100C2000FDF766FF4FF0FF3008BD00BFE003022074
:100C300032547649F0B5324C83B023689A1E012AAB
:100C400057D8032B04D001230020236003B0F0BD4C
:100C500000216846FEF78AFE034600283DD10421A4
:100C6000284E009832880172013292B2110441F08C
:100C70000601254DC160037143718371C3714372D5
:100C80008372C372062132802B60FEF783FED8B9CF
:100C90004FF0FF3302AE274646F8043D04E03146EC
:100CA0003846FDF791FEF0B928680028F7D00569AD
:100CB000FEF784FE002DC6D0144B08201D60FDF702
:100CC00017FF4FF0FF30C1E7009803681BB11846CB
:100CD000FEF77CFE0098FEF771FE0C20FDF708FF82
:100CE0004FF0FF30B2E73C20FDF702FF4FF0FF303E
:100CF000ACE70120FDF7FCFE4FF0FF30A6E700BF98
:100D0000E0030220C0490220EC030220E403022099
:100D10002DE9F047644E0F46316815468A1E012AB8
:100D200082B000F2B480002F00F0A580002D00F00A
:100D3000A280002B40F0B1800A9B002B40F0A180E4
:100D400002294FD0E84640462946FEF70FFE0646E8
:100D500040B10C20FDF7CCFE4FF0FF35284602B025
:100D6000BDE8F087009B394618682A4608F0A0FDC8
:100D700004214E4C00982388456001339BB21A042D
:100D800023800A434A4CC26046728672C672017260
:100D90002660FEF7FFFD002863D14FF0FF3302AE5F
:100DA000414F46F8043D04E031463846FDF70CFE5D
:100DB00078B920680028F7D00469FEF7FFFD002C01
:100DC000CCD03C4B08201C604FF0FF35FDF790FE67
:100DD000C4E74FF0FF353C20FDF78AFE284602B0FD
:100DE000BDE8F087E84619464046FEF7BFFD0246DB
:100DF0000028AED14FF0080C2C492F480B8804680E
:100E0000013300989BB20B801B0443F00303046181
:100E1000274CC360027142718271C2714272827248
:100E2000C27280F808C003212260FEF7B3FDC0B98A
:100E30004FF0FF330DF1080949F8043DB24605E0D3
:100E400049465046FDF7C0FD0028C2D12068002861
:100E5000F6D00469FEF7B2FD002CB2D10323336053
:100E600071E7009803681BB11846FEF7AFFD0098C4
:100E7000FEF7A4FD6DE71620FDF73AFE4FF0FF35B3
:100E80006CE73820FDF734FE4FF0FF3566E70120B0
:100E9000FDF72EFE4FF0FF3560E72D20FDF728FE11
:100EA0004FF0FF355AE700BFE0030220C04902209F
:100EB000EC030220E4030220E8030220F0B54648D8
:100EC00083B000680238012877D840F203208142BD
:100ED0006DD1043A032A5CD8DFE802F04B024E5190
:100EE0000724254600216846FEF740FD03460028FA
:100EF00038D10427394E009832882946013292B2FF
:100F000044EA0245364CC560037143718371C37175
:100F100043728372C372077232802360FEF73AFD18
:100F2000B8B94FF0FF3302AD2B4E45F8043D05E054
:100F300029463046FDF748FD002831D120680028B9
:100F4000F6D00469FEF73AFD002C3CD1204603B0F0
:100F5000F0BD009803681BB11846FEF737FD0098F6
:100F6000FEF72CFD0C20FDF7C3FD4FF0FF3003B062
:100F7000F0BD05242546B5E708242546B2E7B3B100
:100F8000089A042A13D100201A68164B1A6003B07D
:100F9000F0BD2A20FDF7ACFD4FF0FF3003B0F0BDEF
:100FA0003C20FDF7A5FD4FF0FF3003B0F0BD16204B
:100FB000FDF79EFD4FF0FF30C9E70120FDF798FDDA
:100FC0004FF0FF30C3E7084B08201C60FDF790FD91
:100FD0004FF0FF30BBE700BFE0030220C049022012
:100FE000EC030220E8030220E403022040F2032085
:100FF0002DE9F041814282B0089E40F0AE801D464E
:10100000002B00F0AA80002E00F0A7805E4B1B682A
:10101000023B012B00F2A780013A132A79D8DFE8BE
:1010200002F0175F787878787278787878787878BE
:1010300078787878780A3368042B40F08E80002224
:101040001046524B19681A60296002B0BDE8F08161
:101050003368242B40F081800124A046002168469B
:10106000FEF784FC002846D14949009B0A88B8F164
:10107000030F02F1010292B244EA024418710A809D
:10108000DC6058719871D8714BD004210022414F17
:101090009960184641463A60FEF77CFC00284DD125
:1010A0004FF0FF3302AC44F8043DDFF8DC8005E08C
:1010B00021464046FDF788FC002837D139680029D1
:1010C000F6D00C69002C54D132681431284608F04F
:1010D000EFFB3868FEF772FC204602B0BDE8F081F5
:1010E0003368042B39D1022400216846A046FEF75C
:1010F0003DFC0028B8D00C20FDF7FAFC4FF0FF3083
:1011000002B0BDE8F0813368042B26D10924A04643
:10111000A4E72A20FDF7ECFC4FF0FF3002B0BDE859
:10112000F0811D4A082112681A61AFE73C20FDF7E3
:10113000DFFC4FF0FF3002B0BDE8F081009803689B
:101140001BB11846FEF742FC0098FEF737FC0C2056
:10115000FDF7CEFC4FF0FF30D2E71620FDF7C8FCBC
:101160004FF0FF3071E70120FDF7C2FC4FF0FF3078
:101170006BE7064B08201C60FDF7BAFC3868FEF7E9
:101180001DFC4FF0FF3060E7E0030220E403022083
:10119000C0490220EC030220E803022008B5FBF757
:1011A000CBF908BD10B5064C23782BB900F018F820
:1011B00008B90123237010BD4FF0FF3010BD00BFF0
:1011C000CF4902200FB408B52D20FDF791FCBDE8F2
:1011D00008404FF0FF3004B0704700BFFFF7DEBF9C
:1011E000F0B593B0FEF72AFE00284CD1284901A89B
:1011F000FEF798FE002846D1FDF754FD04F0FAF9F9
:10120000002840D120234FF4804108224FF4405C55
:10121000204F214E039305930793204D09910D9183
:101220001F4C2049204BCDE910000DEB0200CDF8FA
:101230002CC0CDE90E2202970496069508940A91D7
:101240000C9300F0E9FB08B113B0F0BD03F06EFFA2
:10125000C8B9FEF73DFAB0B902F022FC98B9FFF721
:1012600083F880B9FFF7B6FC68B901F0E9F950B925
:1012700005F094FC38B9FDF7C3FE003018BF01201B
:10128000404213B0F0BD4FF0FF3013B0F0BD00BFCF
:101290003CAA0100000001204000012020000120A4
:1012A00060700120600001206030012005282AD0F4
:1012B00008B514D90A2816D066281FD140F2022397
:1012C0009A4235D040F205239A4235D040F20123AC
:1012D0009A422FD02B20FDF70BFC002008BD0128DF
:1012E00016D002280AD1B2F5837F1AD2B2F5827FD6
:1012F0001AD2013A012AEDD8104808BD1620FDF790
:10130000F7FB002008BD03290D4818BF00207047D7
:1013100040F203239A4209D0B2F5017FDAD109489D
:1013200008BDB2F5877FD5D1074808BD074808BD7D
:10133000074808BD074808BD074808BD0CA90100BB
:10134000FCA90100ACA9010034A901005CA90100BD
:1013500084A90100E4A80100D4A9010038B505461C
:1013600004F016F8044660B92C4B9D422FD02B0C8C
:101370002B4A1B0493423DD02A4B9D4249D12A4817
:1013800038BDC3684269052B36D011D90A2B13D05A
:10139000662B1ED140F202239A422BD040F2052345
:1013A0009A422FD040F201239A421ED11F4838BDE5
:1013B000012B13D0022B0CD1B2F5837F24D2B2F5CE
:1013C000827F24D2013A012A0FD8194838BD194822
:1013D00038BD1620FDF78CFB002038BD40F20323FA
:1013E0009A42F4D0B2F5017FC9D02B20FDF780FBE3
:1013F000002038BD104838BD03691048032B18BFC2
:10140000002038BD0E4838BDB2F5877FEDD10D48BC
:1014100038BD0920FDF76CFB204638BD32547649B3
:1014200000009A7843547649ACA90100E4A8010071
:101430000CA901005CA9010084A90100FCA901001C
:10144000D4A9010034A9010003F0D6BA03F0CABB45
:101450002DE9F04342EAE27283B00092002848D0BE
:101460004B1E082B45D880460546002400EBC107DB
:10147000AB88286803F0030301A943F01C0603F0BE
:1014800095FF019B0835334025F8023C03B1013438
:10149000AF42EDD19CBB69464046FDF795FA074641
:1014A00008B13C281DD1C1460026B9F80430D9F84E
:1014B000000003F0030301A943F01C0403F076FFCE
:1014C000019B09F10809234029F8023C03B10136C8
:1014D0004D45EAD10EB9002FDDD0304603B0BDE84E
:1014E000F0832320FDF704FB4FF0FF3003B0BDE88D
:1014F000F0831620FDF7FCFA4FF0FF30EEE72046B0
:10150000ECE700BF08B5064B984203D0BDE80840A1
:1015100003F0D6BF2D20FDF7EBFA4FF0FF3008BDEA
:1015200032547649014B1860704700BFFC0302201B
:10153000F0B56C4B83B01B78002B00F0AD806A4B8C
:101540001C68A26863689A422DD04BF6EF63ADF831
:10155000003023786E468DF80430636805219A4286
:101560002ABF27699F1ABF1A9A4294BF0025E568CF
:10157000BFB288BF5B1B304688BF9DB2ADF802701A
:1015800008F029FBBDF80210A06808F024FBA3684E
:1015900022691F44974208BFE368A76008BFA360A1
:1015A000002D40F08D80514B1C68A26863689A4200
:1015B0002CD04BF6EF63ADF8003023786E468DF8F3
:1015C0000430636805219A422ABF27699F1ABF1A0F
:1015D0009A4294BF0025E568BFB288BF5B1B3046C6
:1015E00088BF9DB2ADF8027008F0F5FABDF80210A0
:1015F000A06808F0F0FAA36822691F44974208BF68
:10160000E368A76008BFA360002D48D1384B1C6871
:10161000A26863689A422BD04BF6EF63ADF80030B6
:1016200023786E468DF80430636805219A422ABFFC
:1016300027699F1ABF1A9A4294BF0025E568BFB276
:1016400088BF5B1B304688BF9DB2ADF8027008F0C2
:10165000C2FABDF80210A06808F0BDFAA3682269BA
:101660001F44974208BFE368A76008BFA3600DB995
:1016700003B0F0BD30460521ADF8025008F0ABFADA
:10168000BDF80210E06808F0A6FABDF80220E36891
:101690001344A36003B0F0BDFDF7FCFA4FE705214A
:1016A0003046ADF8025008F096FABDF80210E06836
:1016B00008F091FABDF80220E3681344A360A5E79F
:1016C00005213046ADF8025008F085FABDF8021049
:1016D000E06808F080FABDF80220E3681344A360D4
:1016E00061E700BFD0490220F8030220F003022086
:1016F000F403022000222DE9F04FB04B83B01B68A9
:1017000019695C69187C1A74587C5A74987C9A74AC
:10171000D87CDA74187D1A75587D5A75987D9A753B
:10172000D87DDA75B9B10139032914D8DFE811F091
:10173000D6000301040016000125032000226FF0EB
:101740005F019F4C25701C7A1872587A5A72987AE9
:101750009A72DA7AD97203B0BDE8F08F04210022C0
:101760006FF05F001C7A1972597A5A7294499C7A08
:101770009A72DC7AD8720A700B78002B00F017810D
:10178000904B1C68A26863689A422DD04BF6EF63B9
:10179000ADF8003023786E468DF80430636805217B
:1017A0009A422ABF27699F1ABF1A9A4294BF0025FE
:1017B000E568BFB288BF5B1B304688BF9DB2ADF8FD
:1017C000027008F008FABDF80210A06808F003FAE9
:1017D000A36822691F44974208BFE368A76008BF57
:1017E000A360002D40F0D280774B1C68A26863682C
:1017F0009A422DD04BF6EF63ADF8003023786E4659
:101800008DF80430636805219A422ABF27699F1A20
:10181000BF1A9A4294BF0025E568BFB288BF5B1B20
:10182000304688BF9DB2ADF8027008F0D4F9BDF81B
:101830000210A06808F0CFF9A36822691F449742FC
:1018400008BFE368A76008BFA360002D40F08D804B
:101850005E4B1C68A26863689A423FF47CAF4BF60B
:10186000EF63ADF8003023786E468DF8043063687E
:1018700005219A422ABF27699F1ABF1A9A4294BF2C
:101880000025E568BFB288BF5B1B304688BF9DB2AC
:10189000ADF8027008F09FF9BDF80210A06808F0DA
:1018A0009AF9A36822691F44974208BFE368A760BA
:1018B00008BFA360002D3FF44EAF05213046ADF8C0
:1018C000025008F088F9BDF80210E06808F083F9CA
:1018D000BDF80220E3681344A3603CE7384A11785E
:1018E00009B100211170A568002D39D04FF0000C0E
:1018F000DFF8D4A0DFF8CCB03449E1466646624652
:10190000D1F800E0DAF80080DBF8007008E0632925
:1019100016D0612904BF074601260132AA4213D01E
:10192000911C04EB8101486801786229EFD180465F
:101930004FF00109F1E7FDF7A5F903B0BDE8F08F1D
:1019400086464FF0010CE8E7A6BBB9F1000F01D0C5
:10195000CAF80080BCF1000F02D01C4AC2F800E0B7
:10196000012000226FF05F01EDE605213046ADF861
:10197000025008F030F9BDF80210E06808F02BF9C9
:10198000BDF80220E3681344A36061E705213046F7
:10199000ADF8025008F01FF9BDF80210E06808F039
:1019A0001AF9BDF80220E3681344A3601CE7FDF7B1
:1019B00071F9E5E6CBF80070C7E700BFFC03022031
:1019C000D0490220F8030220F0030220F403022091
:1019D000014B1878704700BFD049022000207047A3
:1019E0000B4BD3E90023134498420DD282420BD80B
:1019F00010B5044600F05AFD40B1064A846002600A
:101A0000BDE8104000F09ABCFEF7C6BB10BD00BF99
:101A1000000402200100020000282BD030B589B05C
:101A200001AA6946044600F09FFB034640B1134AF1
:101A300004F1280003C882E80300184609B030BD4D
:101A4000DDE90012204600F04BF803460028EED1F5
:101A50000B4B0C490C480D4A03930D4D0D4B049153
:101A600005900D4902A807930695029203F044FFE2
:101A70000346DCE70E231846704700BF000402202F
:101A80003D2401000D250100FD2001003D23010042
:101A9000E1190100DD1901000804022060B108B558
:101AA0004368DBB2022B0ED003681B0C022B05D05F
:101AB000042B0ED0002008BD002070478068FEF780
:101AC0006BFB002008BD0146BDE80840034803F059
