:10000000900A0020C5120000E13B0000E51000004E
:10001000E5100000E5100000E5100000E51000000C
:10002000E5100000E5100000E5100000AD10000034
:10003000E5100000E510000059100000DF3A000054
:100040001111000011110000111100001111000028
:100050001111000011110000111100001111000018
:100060001111000011110000111100001111000008
:1000700011110000111100001111000011110000F8
:1000800011110000111100001111000011110000E8
:1000900011110000111100001111000011110000D8
:1000A00011110000111100001111000011110000C8
:1000B00011110000111100001111000011110000B8
:1000C00011110000111100001111000011110000A8
:1000D0001111000011110000111100001111000098
:1000E0001111000011110000111100001111000088
:1000F0001111000011110000111100001111000078
:100100001111000011110000111100001111000067
:100110001111000011110000111100001111000057
:100120001111000011110000111100001111000047
:100130001111000011110000111100001111000037
:10014000111100000000000000000000000000008D
:10015000000000000000000000000000000000009F
:10016000000000000000000000000000000000008F
:10017000000000000000000000000000000000007F
:10018000000000000000000000000000000000006F
:10019000000000000000000000000000000000005F
:1001A000000000000000000000000000000000004F
:1001B000000000000000000000000000000000003F
:1001C000000000000000000000000000000000002F
:1001D000000000000000000000000000000000001F
:1001E000000000000000000000000000000000000F
:1001F00000000000000000000000000000000000FF
:10020000DEE61E284CBBCE8F015B000000800000A4
:100210000100000000000000D01300202D1A000093
:100220007BB972B90029BEBF00204FF0004106E043
:1002300008BF00281CBF6FF000414FF0FF3000F0F6
:10024000A3B9ADF1080C6DE904CE002909DB002B40
:100250001ADB00F035F8DDF804E0DDE9022304B034
:100260007047404261EB4101002B1BDB00F028F896
:10027000DDF804E0DDE9022304B0404261EB410116
:10028000524263EB43037047524263EB430300F077
:1002900017F8DDF804E0DDE9022304B0404261EB29
:1002A00041017047524263EB430300F009F8DDF867
:1002B00004E0DDE9022304B0524263EB43037047DC
:1002C0002DE9F04F099E04468946002B40F08380BB
:1002D0008A42154645D9B2FA82F24AB1C2F12007E4
:1002E00001FA02F39540944020FA07F747EA030920
:1002F0004FEA154E230C1FFA85F8B9FBFEFC0EFBE6
:100300001C990CFB08F143EA094399420AD9EB18FE
:100310002CBF01200020994202D9002800F01D8145
:100320000CF1FF3C591AA3B2B1FBFEF00EFB101109
:1003300000FB08F843EA0144A04505D92C1902D274
:10034000A04500F20E810138A4EB080440EA0C40FD
:1003500000271EB1D4400023C6E900433946BDE85A
:10036000F08F002A51D0B2FA82F2002A40F0AF801A
:10037000491B4FEA154E1FFA85F80127230CB1FBE4
:10038000FEFC0EFB1C1108FB0CF043EA01439842F3
:100390000AD9EB182CBF01210021984202D900296B
:1003A00000F0D7800CF1FF3C191AA3B2B1FBFEF0AC
:1003B0000EFB101108FB00F843EA0144A04505D9E3
:1003C0002C1902D2A04500F2C1800138A4EB080428
:1003D00040EA0C40BDE78B4208D9002E74D00027BC
:1003E000C6E9000138463946BDE8F08FB3FA83F715
:1003F00067B98B42C0F0A480824240F2A1803846A7
:10040000002EABD0C6E90049A8E7FFDEC7F1200502
:10041000BB4002FA07FC01FA07F4EA4020FA05F8AB
:10042000E94000FA07FE1A4348EA04044FEA12487A
:10043000200C1FFA82F9B1FBF8FA08FB1A110AFB2B
:1004400009FB40EA01418B450AD951182CBF012311
:1004500000238B4502D9002B00F088800AF1FF3A77
:10046000A1EB0B01A4B2B1FBF8F008FB101100FBEB
:1004700009F944EA0141894504D9511801D2894555
:100480007BD8013840EA0A40A1EB0901A0FB0C89A6
:10049000494544464B4602D306D1C64504D20138ED
:1004A000B8EB0C0469EB0203002E5DD0BEEB040236
:1004B00061EB030101FA05F522FA07F3F940002781
:1004C0001D43C6E9005149E73746304646E7C2F1C9
:1004D0002000954001FA02F721FA00F34FEA154E89
:1004E00024FA00F11FFA85F894403943B3FBFEF07B
:1004F0000F0C0EFB103300FB08FC47EA03439C453E
:1005000007D9EB182CBF012700279C4500D98FB3D2
:100510000138A3EB0C0389B2B3FBFEF70EFB1733D4
:1005200007FB08FC41EA03418C4504D9691801D254
:100530008C4525D8013FA1EB0C0147EA00471DE798
:10054000841A61EB03030120994659E702382C44D1
:100550003CE7ACF1020C2B4426E7ACF1020C2B4437
:10056000E0E602382C44EFE63746F7E6AAF1020A45
:10057000114475E702382B44CBE70238114481E778
:10058000023F2944D7E700BF704700BF2DE9E04F85
:100590002746A046A146A246A346A4462DED108BB1
:1005A0004FF0000545EC185B45EC195A45EC1A5A1A
:1005B00045EC1B5A45EC1C5A45EC1D5A45EC1E5A9D
:1005C00045EC1F5AF1EE105A4FF66076C0F6FF76F2
:1005D0003540E1EE105A84F3008825462646A447AC
:1005E000BDEC108BBDE8E08F82680C4B9A6003680D
:1005F00083F38888436883F38988027B02F00101D2
:10060000EFF3948323F00303920748BF43F0020300
:1006100009B143F0010383F39488704700ED02E0D1
:10062000084AD36848B123F400531B041B0C43F061
:10063000BF6343F40033D36070479BB243F400536D
:10064000F5E700BF00ED00E0084AD36840B19BB277
:1006500043F4804343F0BF6343F40033D3607047F7
:1006600023F480431B041B0CF4E700BF00ED00E003
:10067000084AD36840B19BB243F0080343F0BF631C
:1006800043F40033D360704723F008031B041B0CB2
:10069000F4E700BF00ED00E0034AD2F88C3043F4E9
:1006A0004063C2F88C30704700ED00E0084B1A68D8
:1006B00018B142F001021A60704722F001021A607C
:1006C0001A6811B142F00202F5E722F00202F2E7E5
:1006D000D0ED00E00B6801330B60014B1B6818473D
:1006E000D41300202DE9F04F85B00E9C9B46012CC1
:1006F000B8BF0124012B0CBF3023202316468246AD
:10070000884601250A270022DFF86C900293B6FB89
:10071000F9F301930AB9B1451CD8019B414603F195
:100720003000D04701220135019B013F09FB1366D0
:100730000A23012FB9FBF3F9E9D1414606F1300054
:10074000D047BBF1030F02D1641B002C0EDC05B0B7
:10075000BDE8F08FBC42E7DBBBF1020FE4D84146B5
:10076000029803920135D047039ADDE741462020E5
:10077000D047013CE9E700BF00CA9A3B014B186033
:10078000704700BFD4130020002307B50246019331
:1007900003480B4601A902F061FF03B05DF804FBBA
:1007A000D50600004FF02002EFF3118382F3118889
:1007B000BFF36F8F0121044AC2F8401583F31188FB
:1007C000BFF36F8F00207047009003500A2838B5A0
:1007D0000446074D04D1286843680D215B6898479B
:1007E00028684368E1B25B689847204638BD00BF7F
:1007F0000800002010B5044C204601F01FF82046E8
:10080000BDE81040FFF7BABFCD07000008B50448A7
:1008100001F0FEF9034B1860FFF7ECFF002008BD64
:10082000774600000800002008B5114B1A686AB12D
:100830004FF05022D2F80823D10707D500220D48E7
:100840001A6083685B7A0BB903F02CF90A4B1A68BB
:1008500062B14FF05022D2F80823920706D5002249
:1008600006481A60BDE8084003F01CB908BD00BF87
:1008700000510050841400200451005090140020B6
:1008800000220D4BC3F840214FF02002EFF31181FD
:1008900082F31188BFF36F8F084AD3F804051368F9
:1008A000C01A20F07F400344136081F31188BFF326
:1008B0006F8F01F021BF00BF0050015024000020C5
:1008C00070B5184801F0A4F948B3436800211B68CB
:1008D0009847012600244FF480334FF40012124D44
:1008E0003146C5F80845C5F84065C5F804330F4BD7
:1008F00015201C600E4BC3F88021224600F052FCEC
:10090000152000F03FFC20460A4B1E602E60D5F8F3
:100910000435334423F07F43C5F8403570BD4FF0B4
:10092000FF30FBE77E46000000500150405101506F
:1009300000E100E00850015070B5214EB0F1FF3FDA
:1009400008BF30464FF02003EFF3118483F3118882
:10095000BFF36F8F1B491C4BD1F804251D6801386C
:10096000531B23F07F4301352B4420EAE070B04253
:10097000D4BF18189819821A22F07F4220F07F43C2
:10098000022AC1F8403504D984F31188BFF36F8F70
:1009900070BDD1F804350D4AC31A23F07F435D1EA4
:1009A000954205D94FF40012094BC3F80021EBE73B
:1009B000012B02BF023020F07F40C1F84005E3E781
:1009C000FEFFFF000050015024000020FEFF7F00CA
:1009D00000E100E04FF02002EFF3118382F3118871
:1009E000BFF36F8F064AD2F80405064A1268801AD0
:1009F00020F07F4083F31188BFF36F8F704700BFF3
:100A0000005001502400002008B543B2002B0CDB3D
:100A1000012200F01F018A405B091049203341F890
:100A20002320BFF34F8FBFF36F8F830003F1A043E9
:100A300003F540533128D3F8002806D0002A07DAFE
:100A400002F00302023A012A02D8054AC3F800283C
:100A5000002103F094F8002008BD00BF00E100E091
:100A60000001008030B54FF440444CF2040585B0DD
:100A70004FF440412C4802F061FF21682B4802F0FE
:100A80005DFF29682A4802F059FF102200216846BC
:100A900003F024F92368684600930294FFF7A4FD4D
:100AA0000120FFF7D1FD0020FFF7BAFD0020FFF77E
:100AB000DFFD01210020FFF7F9FDFFF7EDFD2C68B8
:100AC0001C4802F03BFF0820FFF79EFF24F00104C2
:100AD000BFF34F8FBFF36F8F640864002046214639
:100AE00022462346B7EE000AF7EE000AB7EE001AD8
:100AF000F7EE001AB7EE002AF7EE002AB7EE003A3A
:100B0000F7EE003AB7EE004AF7EE004AB7EE005AA9
:100B1000F7EE005AB7EE006AF7EE006AB7EE007A19
:100B2000F7EE007AFFF732FDE0470000F7470000DC
:100B30000C4800002A4800002DE9F843714802F0F3
:100B4000FDFE0021704EDFF8DC91DFF804826F4D6E
:100B500056F8044BCA0301F5C07349F823404046D8
:100B600002F500434F1C02F0E9FE694B14F0100F30
:100B70006849694808BF194602F0E0FE14F0040F06
:100B800014BF72212D21284602F0D8FE14F0020F66
:100B900014BF77212D21284602F0D0FE14F0010F5A
:100BA00014BF78212D21284602F0C8FE14F4807F5E
:100BB00014BF6C212D21284602F0C0FE574802F0D8
:100BC000BDFE202F3946C3D1554B564AC3F3C4311D
:100BD000C3F30E03C3F50043C3F34313C2F8001578
:100BE000C2F80435D2F80015D2F804254E48520157
:100BF00002F0A4FE494802F0A1FE02F072FF014695
:100C000010B14A4802F09AFE444802F097FE484864
:100C100002F094FE0021474EDFF80891DFF834819E
:100C20003A4D56F8044B4A0301F5E07349F8234066
:100C3000404602F500534F1C02F080FE344B14F086
:100C4000100F3449344808BF194602F077FE14F0FB
:100C5000040F14BF72212D21284602F06FFE14F0FC
:100C6000020F14BF77212D21284602F067FE14F0F1
:100C7000010F14BF78212D21284602F05FFE14F4E5
:100C8000807F14BF6C212D21284602F057FE234897
:100C900002F054FE202F3946C3D1204802F04EFE08
:100CA0004FF6FF7300241F4D2348C5F8803402F02F
:100CB00045FE224FC5F8C044DFF89C80204DDFF888
:100CC0009C906E792A68002E14BF3B46434621460D
:100CD000484602F033FE66B91A48013402F02EFE8F
:100CE000192C05F10805ECD10C48BDE8F84302F0D9
:100CF00025BE2879FFF788FE08B11348EDE71348B1
:100D0000EBE700BFBC46000044430000F44600008F
:100D1000A54600009C460000C9470000EB490000C2
:100D2000E07F000000300050F74600003D47000023
:100D30006D4700008C440000A3470000B14600004E
:100D4000C4430000CC470000D3470000DB4700004D
:100D5000DF4600008F470000A9460000BF470000A3
:100D600010B500284BD0002A49D0264B99423CD9D7
:100D7000541803F61D239C423AD802F085FF002048
:100D8000BDE81040714672467346B7EE000AF7EEB2
:100D9000000AB7EE001AF7EE001AB7EE002AF7EED7
:100DA000002AB7EE003AF7EE003AB7EE004AF7EE47
:100DB000004AB7EE005AF7EE005AB7EE006AF7EEB7
:100DC000006AB7EE007AF7EE007A8EF3008C10B46A
:100DD000F1EE10CA4FF66074C0F6FF740CEA040C12
:100DE000E1EE10CA10BCF4467447074B994203D990
:100DF000064B54189C42C0D94FF0FF30C0E76FF04B
:100E00001500BDE70302FF002F01FF003801FF00BE
:100E10002DE9F04F864685B00F4600296DD000259C
:100E200045F6013ADFF8DCC0354EDFF8DC80DFF84C
:100E3000DC9001AC5CF804BB96E807000EEB0B03FA
:100E400084E807009A070FD15EF80B20424505D1D0
:100E50005A684A4502D19A68524512D00135032D8D
:100E6000E8D16FF00D0012E02146002211F8010BCD
:100E700013F802B08345F1D101320C2AF6D1002BD0
:100E8000ECD020221946384602F0FEFE002005B0C4
:100E9000B7EE000AF7EE000AB7EE001AF7EE001AF6
:100EA000B7EE002AF7EE002AB7EE003AF7EE003A66
:100EB000B7EE004AF7EE004AB7EE005AF7EE005AD6
:100EC000B7EE006AF7EE006AB7EE007ABDE8F04FC1
:100ED000714672467346F7EE007A8EF3008C10B4BA
:100EE000F1EE10CA4FF66074C0F6FF740CEA040C01
:100EF000E1EE10CA10BCF44674476FF01500C6E767
:100F0000E44200000C450000DEE61E284CBBCE8FFC
:100F1000014801F051BE00BF1845000008B530B1CE
:100F200043683BB1006801F05FF8002008BD6FF432
:100F3000E040FBE70048F9E7EA8FFFFF38B50446D9
:100F400018B90B4B0B485B689847656855B115F0AD
:100F50000205206807D10146074800F0A5FF25607B
:100F60000023636038BD1422002102F0B7FEF7E7CA
:100F700028140020484900002800002010B504462D
:100F800018B9134B13485B6898476368BBB923686B
:100F9000ABB94FF0FF3221460F4800F059FF08B9B6
:100FA00023681BB90A4B0D485B689847142200213F
:100FB000206802F093FE636843F0020363602068D8
:100FC00002F026FF636843F00103636010BD00BFB9
:100FD0002814002048490000280000206E49000025
:100FE00008B558B1436863B100684FF0FF3100F0B5
:100FF00089FF054B002818BF184608BD6FF4E04074
:10100000FBE70248F9E700BFE98FFFFFEA8FFFFF28
:1010100008B5064940230648142202F0E7FEBDE861
:1010200008400449044801F0FFBD00BF440000200F
:101030002800002030450000204500000448816859
:10104000406A884203D003494FF080520A607047DB
:101050003006002004ED00E012498A684FF02800B5
:101060001044EFF3098C80E8F01F202080F31188F2
:10107000BFF36F8F0C4F4FF000664A6A8A603E6084
:10108000506E0023536680F3118804B5104602F0B9
:10109000AEFDBDE8044002F1280090E8F01F8CF39B
:1010A000098870473006002004ED00E01EF0040FB0
:1010B0000CBFEFF30880EFF30980816911F8021C7F
:1010C0000229FFD001B502F087FD01BD01491022C0
:1010D0000A60704710ED00E0404080F3118830BF97
:1010E000704700BF404080F311884FF00400714604
:1010F000014202D0EFF3098001D1EFF3088071467D
:1011000001B500F061F901BD30BFFFF7FDBF00BFC1
:1011100001B572B60B4A106A00281EBF0021116289
:1011200002F062FE62B6EFF30580A0F110004FEA14
:10113000C0000549014409C99847BDE80140034979
:101140000847000030060020644000003D10000009
:10115000094A0A49936809685866996608494B68BC
:1011600043F080534B60002383F31188BFF36F8FEC
:101170009368986E704700BF3006002074450000E9
:1011800000ED00E043B2002B08DB012200F01F005D
:1011900002FA00F0024A5B0942F82300704700BFE0
:1011A00000E100E043B2002B01F10101A8BF03F10F
:1011B00060434FEA4111B8BF054BC9B2ABBF03F55D
:1011C000614300F00F0083F800131954704700BF0B
:1011D00014ED00E02DE9F0418C18884617461E46B4
:1011E00004220A9B0999054602F0EFFE00220D49F0
:1011F000A4F1200323F0070321F00101C5E9132224
:10120000C5E91687996106991E605960079999602A
:101210000899D9604FF08071D961AB646A66BDE806
:10122000F08100BF29360000F8B51E4605460C4681
:1012300017460023E1EE103A00F06EF90B4B3C44E8
:1012400028469D6024F0070402F0D1FC304684F368
:10125000098863B64FF0000181F31188BFF36F8FE7
:1012600000210022002302F0DFF900BF3006002039
:10127000114A08B5114B22F07F029A60BFF34F8FDD
:10128000BFF36F8FD3F8882042F4A002C3F8882000
:101290000B4A536823F040435360BFF34F8FBFF3B3
:1012A0006F8F0023E1EE103A00F0F2FC00F0FAFC40
:1012B00000F000F900F028FD0000000000ED00E063
:1012C00030EF00E002F048FB202080F3118808484E
:1012D0004FF40061401880F30988EFF31480022175
:1012E000084380F31488BFF36F8FFFF7C1FF00003E
:1012F000D00B00200C4B9A6A9A6A9A6A920708D51A
:101300005A6B9A6A120604D518B19A6A22F08002C2
:101310009A620020044B9A6A9A6A9A6A9A6A42F020
:10132000FF029A620870704700ED00E00D4B9A6A68
:101330009A6A9A6A920508D59A6B9A6A120404D539
:1013400018B19A6A22F400429A620020054B9A6A08
:101350009A6AD20558BF9A6A9A6A42F47F429A62A0
:101360000870704700ED00E0074B00209A6A9A6A07
:101370009A6A9A6A9A6A9A6A9A6A9A6A6FEA0242B8
:101380006FEA12429A62704700ED00E00D4B9A69D5
:101390005A695A69D0070FD45A6991070CD45A690F
:1013A000520709D45A69100706D45A69D10603D4E2
:1013B0005A69920658BF5A695A6942F0FF025A6147
:1013C000704700BFD0ED00E037B50446314A01F068
:1013D0007F40B0F17F4F536859D111F001000AD01E
:1013E000480611D411F0080009D0EFF38984506841
:1013F00010F4006008D1214602F0ECFB25E0EFF389
:10140000888452681105F6D40022C3F30803033B15
:101410008DF80720042B30D8DFE803F003313526A0
:101420002D001C4BDA6A920727D4D86A10F080404E
:1014300007D028331B7853B101200DF10701FFF7C6
:1014400059FF9DF80730002BD5D003B030BD124BAB
:101450001B782BB101200DF10701FFF767FFF0E7C3
:101460000E4B1D88ADB215B1FFF77EFFE9E70C4BBF
:1014700058690028E5D0FFF789FF0020E1E70DF16A
:1014800007010020DBE70DF107010020E5E7002060
:10149000B1E700BF00ED00E029ED00E02AED00E03B
:1014A000D0ED00E0024A536943F0100353617047E6
:1014B00000ED00E0002320210348C2180133412B36
:1014C00082F80013F9D1704700E100E038B5054615
:1014D0004FF02003EFF3118483F31188BFF36F8F74
:1014E00002F054FD0A4B9B68AB420BD1094B5A6882
:1014F000C2F3080212B92046FFF72AFE5A6842F0EA
:1015000080525A602046BDE8384002F0B8BC00BFA7
:101510003006002000ED00E010B50E4B88B00293BD
:101520000D4B0E4C03930E4B0E4A049302AB0193EA
:1015300001A82346012100F003F9002307930A4B79
:101540000121E41A05A80593069400F003F908B0F8
:1015500010BD00BF000000200000000000000120BE
:1015600006000100000000200000002010B50B68FC
:101570000C7A23F01F0204F01F031A43CB6864099E
:1015800023F01F03044943EA440343F00103886046
:10159000CA600B6110BD00BF90ED00E02DE9F04F77
:1015A0008046894614460027484D85B04F4507DAE6
:1015B00058F827305E68C6B31F2E05D86FF01504A3
:1015C000204605B0BDE8F08FF206F7D1D3F800A0B1
:1015D0001AF01F0FF2D1504601F0D7FF834606EBF9
:1015E0000A00013801F0D1FF8345E7D11BF1160F46
:1015F000E4D0631E5B45E1DBC5F808B0E86858F845
:101600002710C5F808B02E6920F01F00D1E900327C
:101610001A44984246F01F0602F1FF3A18D1564587
:1016200005D15FFA8BF002F0EAFA0137BEE7C5F8A0
:1016300008B0EB6822F01F0203F01F031A43EA60B0
:10164000E0B202F0DCFA10F1160FB7D0441CECE760
:10165000C5F808B02A69013B23F01F0302F01F02FE
:1016600013435645E0B22B61EBD002F0C8FA10F1FB
:10167000160FA3D0C5F808B0EA689DF80830013EFF
:1016800062F304038DF808302B699DF808205B088D
:1016900063F347128DF8082058F827200130D2E96B
:1016A00000321344009323F01F031E44A6EB0A06E6
:1016B000C4B226F01F060F2C03963FF67FAF2046DC
:1016C0006946FFF753FF0134AFE700BF90ED00E03C
:1016D0000522034B5A60BFF34F8FBFF36F8F7047E4
:1016E00090ED00E0BFF35F8F0022014B5A6070471E
:1016F00090ED00E070B50E4D2E68102E15D8002428
:10170000FFF7F0FF0B4B0C4A1A63A64205D10B4BB7
:101710001E70FFF7DDFF002070BD6968204601EBF9
:101720000411FFF723FF0134EFE74FF0FF30F3E739
:10173000F042000090ED00E0AAFF44008C0600207B
:1017400010B5034C2278FFF729FF207010BD00BFB1
:101750008C0600202DE9F74F254C8A46804600274D
:10176000A1464FF0140B234D57451ADAD8F8043030
:101770000193002B36D0D8F800100846009101F0F4
:1017800004FFDDE9001306465818013801F0FDFE9C
:101790008642194A08D014235F436FF0150349F8B5
:1017A000073003B0BDE8F08F16F1160F2660F8D0B1
:1017B0001378B342F5DD0BFB0793AE60AE60E868CB
:1017C000197B60F3040119732969187B490861F3D7
:1017D00047101873EB6823F01F0363602B6923F035
:1017E0001F0323610137143408F10C08BCE700BF64
:1017F0004405002090ED00E08C06002070B50C4BF5
:101800000E461C780546234600210A4A0F2B0BDDA5
:10181000094951F8040BFFF7A9FE22463146284634
:10182000BDE87040FFF7BABE936011610133EDE788
:101830008C06002090ED00E044050020014B18606C
:10184000704700BFF8130020F0B54B79012B29D069
:10185000032B24D101268B79032B20D1CD792DB1F7
:10186000012D1CD103689B681B79C3B10A7912B1A1
:10187000022A14D10E2247F6122704680B68A468C6
:10188000BB42246868D029D8B3F5965F67D014D8D6
:10189000B3F5167F65D007D8B3F5967F64D06FF0A7
:1018A000220058E00026D6E7B3F5966F5FD0B3F577
:1018B000166FF4D14FF41D233CE0B3F5615F59D0AE
:1018C00004D8B3F5165FEAD1354B33E0B3F5964F44
:1018D00052D0B3F5E14FE2D1324B2BE0B3F5E13F0B
:1018E0004CD012D84DF6C027BB424AD005D8B3F52C
:1018F000164FD4D14FF41D031CE0B3F5614F43D014
:10190000B3F5963FCBD1284B14E0B3F5E12F3ED091
:1019100008D8B3F5613F3DD0244FBB42BFD14FF053
:10192000806307E0B3F5612F37D0214FBB42B6D1BA
:101930004FF080532A43C4F82435C4F86C252EB1E7
:10194000D4F86C3543F01003C4F86C35836803C9D0
:1019500083E803000020F0BD4FF40003EAE7154BD5
:10196000E8E74FF41C33E5E74FF4A033E2E74FF428
:101970009E23DFE7104BDDE7104BDBE74FF0EB7307
:10198000D8E74FF46503D5E74FF46B03D2E74FF088
:10199000E863CFE74FF06C73CCE74FF07063C9E7B3
:1019A0000050270000C0750000903A0190D003005D
:1019B00040420F0000B0130000F03A0000A04E00BB
:1019C000026870B59268184B14684FF00052856831
:1019D00003219A601D260022C3F87412C3F87022F6
:1019E000C4F80C651C26C4F814654FF000669E60B0
:1019F000C3F86C12C3F868221B23C4F808351A23F5
:101A00002946C4F81035FFF71FFF58B90823C4F85A
:101A100000351D440123C4F81001C4F83455C4F83E
:101A20003835236070BD00BF00258450F0B5DAB1B1
:101A300000231C460E4D0F4FBB4206D3002C14BF93
:101A40006FF008006FF0010009E055F8046BD6F85C
:101A50000CC0604506D14C1E11B908461660F0BD99
:101A6000214601240133E7E76FF00D00F7E700BFDF
:101A7000F8490000000000004F4A136843F00203D9
:101A800013600022D30003F57F03D3F80013013164
:101A900008D0D3F800130132D3F80433B2F5807FB5
:101AA0000B60EFD1454AD36913F001033BD0444B9F
:101AB0001946D3F80024012AFBD1C3F80425D1F834
:101AC0000034012BFBD13D4BDA69D20708D5DA6926
:101AD0003B4922F00102DA61D1F80024012AFBD14E
:101AE0001A6A01320AD11A6A22F0FF0242F0200279
:101AF0001A62334AD2F80034012BFBD10022304B5A
:101B0000C3F80425D3F80024012AFBD1BFF34F8F7B
:101B10002C492D4BCA6802F4E0621343CB60BFF33B
:101B20004F8F00BFFDE7126A0132C0D0274A12680A
:101B3000092A11D1264A11680139012921D91368CE
:101B4000012B25D1234A1360A2F63822C2F878353A
:101B50001E4B1B68092B1BD01A4BD3F88C2042F468
:101B60004062C3F88C20D3F8882042F47002C3F896
:101B70008820BFF34F8FBFF36F8F174B174A1A6040
:101B800070474FF05021C1F81431C1F81831D6E731
:101B90000F4B1B68022BDFD100220E4B1A60012273
:101BA000A3F63823C3F87825084B1B68092BD3D13B
:101BB0000C220B4B1A60CFE7D0ED00E00080FF0055
:101BC0000090035000ED00E00400FA053001FF0032
:101BD0003401FF00384A0050081400200090D00360
:101BE000E4AE035070B50026084B53F82040013096
:101BF00053F82050A54200D870BD236820465B688A
:101C0000984700B166600C34F4E700BF60450000FF
:101C1000104B70B505461E460F4C9C4204D10E4C2D
:101C2000B44209D1002412E062681AB12268126835
:101C3000AA420CD00C34F0E763680BB90C34EFE720
:101C400023682846196801F0FCFF0028F6D12046D9
:101C500070BD00BFCC1400205414002008B50B4DFB
:101C60004FF02002EFF3118382F31188BFF36F8FDF
:101C700002F0C9F9012104460228D8BF084602F043
:101C8000D2F92C62FFF728FAEAE700BF30060020FD
:101C90000248034A0021121A02F020B80000002076
:101CA0009006002008B50648064A0749121A01F0B6
:101CB000EBFFBDE80840054A0549064801F0E4BFCE
:101CC000D413002030150020F84900000000000067
:101CD000F84900000000002008B50220FFF782FF4D
:101CE000074801F02BFE0320FFF77CFF00F02EFCDD
:101CF00001F044FC034A137B23F00103137308BD76
:101D0000A6490000C405002080B5374BA2B083F37C
:101D100008880025E023354C012784F82230E57738
:101D200025766576A576E576636A314E43F4E02341
:101D30006362636A43F400236362A563FFF7B2FB47
:101D4000FFF7C4F94FF0FF33A362E36207AB6C22E5
:101D50002946184601F0C2FF264C8DF82970A06074
:101D60002846FFF73FFF3846FFF73CFF00F0A0FB97
:101D7000214B66624FF48062CDE90473CDE90255D0
:101D80001E4BCDE900551E49304600F0C7FB737B62
:101D900023F0040213F01B0F727304D1B36913B95B
:101DA000304600F019FA174B012205930F23CDE9B5
:101DB00003320023144DCDE9013300934FF4A07298
:101DC000124B1349284600F0A9FB6B7BE56023F01A
:101DD00004036B730F4B4FF48062C4E90633084968
:101DE000064B0348FFF720FAD013002000ED00E077
:101DF000C405002030060020ED490000D91C000079
:101E000090060020F2490000580500205D1C0000EB
:101E1000900A00204806002070B500240A4B0B48A9
:101E2000834201D3002070BD00211A699D685C6166
:101E3000A94201D11C33F3E75E6901311660DE6807
:101E40005A613244F4E700BFCC140020CC140020C7
:101E500010B513460C464FF02002EFF3118182F3C8
:101E60001188BFF36F8F42695AB1226013684361D2
:101E7000836901338361002081F31188BFF36F8F81
:101E80000DE01BB923606FF00B00F5E70246044834
:101E900000F0B8FA18B9034B9B685B69236010BD6A
:101EA0008D0600203006002070B504460D464FF028
:101EB0002003EFF3118683F31188BFF36F8F02F0D5
:101EC0002FF880B100212A6881664261427BD206E8
:101ED00003D183690BB900F07FF93146BDE870404A
:101EE000074801F0BDBF2B6862691A602B68636107
:101EF000A369013BA36186F31188BFF36F8F70BDA7
:101F00008D060020F8B504460F464FF02003EFF38E
:101F1000118583F31188BFF36F8FC26830495AB1BE
:101F200080688E68B04215D0B7B985F31188BFF3C9
:101F30006F8F6FF00F000CE08B6893F90E30236108
:101F40008B680132E260A36085F31188BFF36F8F65
:101F50000020F8BD2369F2E790F90E3096F90E10D3
:101F60009942A8BF194621EAE17199422BDA00F0A3
:101F70005DFA06463B46224629461A4800F042FAD8
:101F80000028E6D04FF02003EFF3118583F311888A
:101F9000BFF36F8F236821699C4207D033B193F957
:101FA0000E309942A8BF194621EAE171A06890F964
:101FB0000E30994209D16EB129460A4801F050FF0E
:101FC0006FF00A00C5E70026D4E700F02FFA0028DA
:101FD000F2D1F0E785F31188BFF36F8FF0E700BF10
:101FE000300600208D0600201E4B70B59A6804460E
:101FF000D37B013BD373C368012B05D0013BC36086
:10200000BDE8704000F0CCB84FF02003EFF311862C
:1020100083F31188BFF36F8F0169806890F90E30E8
:10202000994201D000F002FA204601F079FF0546FE
:10203000A06080B1437BDB0603D183690BB900F05C
:10204000CBF886F31188BFF36F8F0023AB6695F949
:102050000E302361D4E7E06086F31188BFF36F8F01
:10206000CEE700BF30060020EFF305800D2809D829
:1020700028B1054B586880F40060C0F3C02080F0A0
:10208000010070470120FAE700ED00E010B5084CB0
:1020900023685BB1FEF79EFC2368064A1844106172
:1020A0000021BDE81040184601F0BDBF10BD00BFC3
:1020B0006806002030060020F8B50D464FF02003DA
:1020C000EFF3118483F31188BFF36F8F4FF4004156
:1020D00040F2E73600270022C1FB0067094B30467B
:1020E0001A6139464FF47A720023FEF799F8064BCD
:1020F0001860064B1D60FFF7C9FF84F31188BFF31A
:102100006F8FF8BD300600206806002064060020AE
:102110004FF02003EFF3118183F31188BFF36F8F2A
:10212000044B9A68D37B013BD37381F31188BFF3CF
:102130006F8F704730060020094B03F1280282425E
:1021400005D19B688B4202D14B7BDB0606D1D1E9DE
:10215000003213605A600023C1E90033704700BFAA
:102160003006002038B50D4C024604F1280001F07D
:10217000A0FE054600B9E568A3684AB95A7BD206B5
:1021800006D1AA6922B9DA897F2A01D9636238BDEA
:102190009D4201D0FFF77AFF6562F8E73006002024
:1021A00010B54FF02003EFF3118483F31188BFF3D0
:1021B0006F8F084B00209A68D37B0133D373FFF7EE
:1021C000D1FF84F31188BFF36F8FBDE8104001F099
:1021D00066BE00BF30060020F8B54FF02003EFF3D5
:1021E000118483F31188BFF36F8F154A114651F89C
:1021F000283F8B421DD0E3B1D66A90F90E5093F977
:102200000E70AF4210DD5A68C0E9003210605860AD
:10221000437B43F0400343730020FFF7A3FF84F3A5
:102220001188BFF36F8FF8BDB34202D01B68002B3B
:10223000E5D1D36A01604360D36A1860D062E7E7F2
:1022400030060020F8B504464FF02003EFF3118567
:1022500083F31188BFF36F8F437B5A0603D5014682
:102260001748FFF769FF174A02F12801D2E90A303F
:102270008B421FD0F3B194F90E6093F90E70B74200
:1022800013DD5968C4E900310C605C60637B9068C1
:1022900043F040036373031B58425841FFF762FF4A
:1022A00085F31188BFF36F8FF8BD984202D01B6889
:1022B000002BE2D1C4E90010D36A1C60D462E5E7C8
:1022C0005806002030060020154A164938B50C681B
:1022D0009368A342144603D1BDE83840FFF7D6BE49
:1022E00000250D6010490968B9B1D9897F2914D832
:1022F0000E4993F90E5009688D420EDB0C498B4252
:102300000BD0996949B91169814203DC1846FFF77E
:1023100099FFE1E7091A116138BD00232361FBE74A
:1023200030060020600600206806002064060020B9
:102330005805002038B504464FF02003EFF311850F
:1023400083F31188BFF36F8F437B5A0607D501468D
:102350000948FFF7F1FE637B23F040036373074BEB
:102360009868031B58425841FFF7FCFE85F311881B
:10237000BFF36F8F38BD00BF580600203006002025
:1023800070B504460D461646FFF7D4FF637B43F055
:10239000020363737DB12B68A5609D4227D033B3E0
:1023A00094F90E2093F90E1091421ADD5A68C4E98F
:1023B000003214605C60731C20D04FF4004540F282
:1023C000E73000214FF47A72C5FB06010023FDF7C8
:1023D00027FF0B49421C04F11800BDE8704000F0D3
:1023E00049B969688B4202D01B68002BDAD16B684F
:1023F000256063606B681C606C60DCE770BD00BFCB
:10240000BF3E000010B50C461146064A9068064AC9
:1024100010601A46FFF7B4FF2046BDE81040FEF7F3
:1024200097BE00BF30060020600600202DE9F8436B
:1024300004464FF02003EFF3118983F31188BFF3B3
:102440006F8F01F0EBFC4EB2804660B3174D214612
:1024500005F128073846FFF76FFEAB6AA673BB424B
:102460002A4619D0C3B1E96A93F90E00B0420EDDD5
:102470005A68C4E9003214605C600120FFF772FE04
:1024800089F31188BFF36F8F4046BDE8F883994206
:1024900002D01B68002BE7D1D36A27606360D36A40
:1024A0001C60D462E9E7A673EAE700BF30060020AB
:1024B0000021044B084603F12802C3E90A22FFF772
:1024C000FBBD00BF30060020014B9868704700BF7D
:1024D0003006002010B502464FF02003EFF31184C0
:1024E00083F31188BFF36F8F437B590704D484F3C0
:1024F0001188BFF36F8F10BD23F00403437301F005
:102500003CFD10B11046FFF767FE2146BDE81040C4
:10251000014801F0A5BC00BF8D06002030B587B092
:102520000E9D044604950D9D03950C9D02950B9DF3
:1025300001950A9D0095FEF74DFE034B9B6803B184
:102540001B6E236607B030BD300600202DE9F04F2A
:10255000284E294DB04687B0B54205F1300410D35E
:10256000FFF7D6FD4FF4004940F2E7360027224C32
:10257000DFF888A0444521D307B0BDE8F04FFFF74E
:102580000FBE54F8043C059354F8103C049354F8DF
:10259000143C039354F8183C029354F81C3C0193E8
:1025A00054F8203C009354E90A2354E90C01FFF746
:1025B000B5FF54F8303CDD642546CDE7616A4B1C1D
:1025C00004D0256821B92846FFF784FF3034D1E7CD
:1025D000B346BC46C9FB01BC4FF47A72002358468F
:1025E0006146FDF71DFE5146421C05F1180000F042
:1025F00041F8EBE7CC140020CC140020BF3E0000D3
:10260000034B1B680BB9FEF7E5B90020704700BF0C
:102610006C060020036840B1074A5268904204D01B
:102620001BB19A6881680A449A60426813605A60D4
:102630000023C0E9003370470C1400200B4B10B589
:102640001C689C4208BF0024FFF7DAFF54B1A3685E
:10265000181A20EAE070064B1B6913B19842A8BF14
:10266000184610BD6FF00040F5E700BF0C140020C5
:102670003006002070B504461646C1604FF02003B6
:10268000EFF3118583F31188BFF36F8FFFF7B8FF66
:10269000012EACBF80190130164BA0601A689A4217
:1026A00001D05E6832B95A68236062605A6814606B
:1026B0005C600AE09068A168884215DD411A91606B
:1026C0005168C4E900210C6054601A689A4206D02F
:1026D000944204D1FFF7B2FF0021FEF72DF985F3F4
:1026E0001188BFF36F8F70BD091A9642A160DAD0CE
:1026F0001268D7E70C1400202DE9F04B0446FFF7D1
:10270000E3FD4FF02003EFF3118583F31188BFF34E
:102710006F8F214F214EB846DFF884903460D9F88E
:10272000004032684C45D7E900BC05D024B1A3680D
:10273000934214DD9B1AA36000241BEB02004CEBB8
:10274000E271C8E900013460FFF778FF2146FEF727
:10275000F3F885F31188BFF36F8FBDE8F08B1BEBA7
:1027600003004CEBE371D31A33600023C7E9000187
:10277000A3602046FFF74EFF85F31188BFF36F8FEC
:10278000E36898474FF02003EFF3118583F3118836
:10279000BFF36F8FC3E700BF000000206C0600206E
:1027A0000C14002038B5074C074DAC4201D3002073
:1027B00038BD04F114032046C4E9053300F0EEFEF1
:1027C0001C34F2E7CC140020CC14002001F045BAF0
:1027D0000A46002101F082BA10B5114800F048F80D
:1027E00000B110BD0F4800F043F80028F9D10E4C9D
:1027F000204600F03DF80028F3D10C4B0C481C603B
:1028000000F036F801460028EBD100F02DF8044620
:1028100008B1204610BD00F051F82046FAE700BF8D
:1028200020140020141400201C1400202414002064
:102830001814002008B5084800F024F8074800F0F4
:1028400021F8074800F01EF8064800F01BF8BDE824
:10285000084000F00BB800BF201400201414002022
:102860001C1400201814002000207047704700BF7F
:1028700008B5034B02681B6810689847002008BD24
:102880003014002008B5034B02685B681068984755
:10289000002008BD301400200268024B10689B68BD
:1028A000184700BF3014002008B5034B0268DB68EE
:1028B00010689847002008BD3014002070B5094CFE
:1028C000094D2069AB68984718B1084B08485B6808
:1028D00098470021074AEB6811602069BDE8704005
:1028E000184700BF40140020301400202814002096
:1028F000784500007006002070B5144C144D064653
:10290000AB6820699847F0B9124A13685EB91BB9E1
:1029100001201149C1F8000501331360EB682069FB
:102920009847002070BD002BF8D0012B08BF0A4942
:1029300003F1FF3308BFC1F8000520691360EB689D
:1029400098470020EEE7054870BD00BF4014002006
:10295000301400207006002000008450E98FFFFF33
:102960000020704700207047430503D54FF0FF3229
:10297000024B1A60024B1860704700BF0811845068
:10298000081A8450014B1860704700BF041A845025
:1029900008B100F003B84FF47500704702460748CD
:1029A00003681342FCD021B1054B06481B680B603D
:1029B0000360054B00201A60704700BF001A845066
:1029C0000411845008118450081A845000F0A0B8F3
:1029D00030B129B100230144037001308142FBD1A1
:1029E000704700BF2DE9F041ADF51A7D0F46059205
:1029F0000021144612A84FF408721E4601F06EF929
:102A0000002308A819462822069301F067F9002F31
:102A10003CD0002E3AD0002C38D0042106A8FFF775
:102A2000D7FE08A82821FFF7D3FE08A800F032F847
:102A300078B14FF0FF3512A84FF40871FFF7C8FFC7
:102A400006A80421FFF7C4FF28460DF51A7DBDE84E
:102A5000F08112AB0DF11C080390CDE90163024631
:102A600005AB08A9CDF8008006A800F0E9FC002815
:102A7000DFD13368A342DCD3D8F800100546083113
:102A800038462246FFF7A2FE3460D4E74FF0FF3508
:102A9000DAE700BF1C2330B583B002A941F8043D3A
:102AA000044600F0B1F90546D8B9019B1C2B1BD197
:102AB000D4E9003201210033E16118BF01230AB1DA
:102AC00043F00203A26832B9E268AAB9C4E9083245
:102AD0003BB90D4D09E0E26843F0040362B9C4E973
:102AE0000832284603B030BD084D20461C21FFF7B0
:102AF0006FFE284603B030BD0022284643F008038D
:102B0000C4E9083203B030BD0E0CF000370CF00001
:102B100010B50C4C236813B10B4B1B686BB900F05C
:102B200031F938B10138062896BF084B084853F8E8
:102B3000200010BD0122044B1A60012300202360F5
:102B400010BD00BF740600207806002098450000E4
:102B5000FE8FFFFF10B5094C23681BB10123002035
:102B6000236010BD00F07CF80028F7D0013806285B
:102B700096BF034B034853F8200010BD7406002095
:102B800098450000FE8FFFFFBFF34F8F0549064BAE
:102B9000CA6802F4E0621343CB60BFF34F8F00BFFB
:102BA000FDE700BF00ED00E00400FA05014B5B68A3
:102BB000184700BF28140020024BD0E90012C3E9D7
:102BC0000012704728140020704700BF10B504465B
:102BD00020B1BFF35F8F0020206010BD0348FFF7D6
:102BE000E5FFBFF35F8F0020206010BDD8450000D7
:102BF00010B5044610B10023236010BD0248FFF752
:102C0000D5FF0023236010BDB445000050B1012260
:102C1000D0E8EF3FC0E8E12F0029F9D1012BF7D030
:102C2000BFF35F8F0020704770B40B4B0668C2681B
:102C3000D0E90154C3E90242C3E90065D1E90302C6
:102C40000E68064BD1E90154C3E90065C3E90240AF
:102C50001A6170BC704700BF30140020401400207F
:102C600010B5FFF77DFE70B9FFF7B6FD80B9FFF72D
:102C700043FE80B9114B1B681B0EF02B0DD00624B0
:102C8000FFF770FE00E00324FFF7D4FD204610BDDF
:102C90000424204610BD0024F2E7094A094B1268BB
:102CA0009A4201D00724EBE70120FFF725FE002818
:102CB000F1D1054B04461860E8E700BF281984509D
:102CC000241A84500000E0200C1A845030B5ADF571
:102CD000157D4FF4087200210CA800F0FFFF0023BF
:102CE00002A819462822019300F0F8FF02A8FFF776
:102CF000D1FE18B105200DF5157D30BD1C4D4FF0EE
:102D0000FF312868FFF7C8FD0446F0B90020FFF73F
:102D1000F3FDB0B90CAA02A901A800F0D5FB044646
:102D20000120FFF7E9FDF0B92868FFF7BDFD10B1FC
:102D30001048FFF73BFF2046002CDBD10DF5157D39
:102D400030BD0D48FFF732FFE4E70C48FFF72EFFD8
:102D5000012CDBD12868FFF7A7FD0028CAD0054861
:102D6000FFF724FFC6E70648FFF720FFDCE700BFB8
:102D7000241400201046000028460000F8450000FA
:102D80004846000008B5FFF7EBFD18B1FFF752FD0C
:102D9000032008BDFFF720FD68B9FFF7ADFD60B95E
:102DA000154B1B681B0EF02B12D0FFF7DBFDFFF756
:102DB00041FD062008BD042008BDFFF7D3FDFFF745
:102DC00039FDFFF783FF00280CBF0020052008BD58
:102DD0000A4A0B4B12689A4205D0FFF7C3FDFFF772
:102DE00029FD072008BD0120FFF786FD0028E4D15A
:102DF000044B1860E5E700BF28198450241A84505A
:102E00000000E0200C1A845018B111B10B681C2B83
:102E100001D0012070474FF47F033A4AD3F8101CC9
:102E200091425AD0D3F8102C013256D0D3F8102C3E
:102E30004FF47F030260D3F8141C334A91425ED0F2
:102E4000D3F8142C01325AD0D3F8142C4FF47F034A
:102E50004260D3F8182C12F5947F4DD0D3F8182C7B
:102E6000013249D0D3F8182C4FF47F038260D3F895
:102E70001C1C264A91423CD0D3F81C2C013238D07D
:102E8000D3F81C2C4FF47F03C260D3F8002C7032AF
:102E90002DD0D3F8002C013229D0D3F8002C4FF4D8
:102EA0007F030261D3F8042CAF321ED0D3F8042C78
:102EB00001321AD0D3F8042C4FF47F034261D3F8C7
:102EC000081C134A91420BD0D3F8082C013207D0CA
:102ED000D3F8083C83610020704740F6FC02A7E766
:102EE00040F237338361002070475122E4E790229B
:102EF000D5E742F60412C5E740F6D862B4E742F2DD
:102F0000D002A3E7FCF8FFFFD020FFFF0429FFFF5A
:102F100037F3FFFFA8B32DE9F0414C1EB4F5047F51
:102F20002CD25BB352B34FF0000CC900E6466546A5
:102F300064464F1E03F1FF380CE0AB4216D08E45BD
:102F400001D10CF1010CA84516D00134BC4205F1A9
:102F5000010518D8610950F8211004F01F06F1404E
:102F60001F2E18BF01F00101002CE6D10025A84555
:102F70008E464FF0010CE8D16245E6D20348BDE829
:102F8000F081024870470020BDE8F081370CF10065
:102F90002DE9F04F8FB00D46DDE919418346002938
:102FA00057D12969039100211C60189B1960002AE0
:102FB00000F02281814A824B11686A6A1B689A423A
:102FC00057D10A2955D19BF803300693039904235E
:102FD00008467C4A0293A2FB00029208CB0002EB57
:102FE000420204F10800A1EB4202013BDFF8D0915C
:102FF000DFF800A2049000920593189B039C1C60CC
:10300000002C00F0CC800026049F00F0A9FA0023D9
:103010000793069BBBF1000F3AD0002D34D053BB71
:103020005B000693BBF1000F36D0002D34D0E3B126
:1030300006A9284600F084FA002800F07D81624B42
:10304000984212D0009000F08BFA00980FB0BDE8C3
:10305000F08F4FF47F01D1F80C0C01300CBF4FF40E
:103060000471D1F80C1C03919DE72B6A73B9564883
:10307000E8E75648E6E706A9284600F061FA68B195
:10308000534B9842DED0069B082BC9D15148D9E753
:10309000082BFBD05B0006934F48D3E729460698E0
:1030A00000F030FA0028EBD1069B082B00F00E81CF
:1030B000042B00F03181A3F10203B3FA83F35B091F
:1030C000019301231946454A136042F8843C434B5F
:1030D00019606B6AC9F80030D9F800206B6A9A420F
:1030E000F5D14FF000084FF0FF30CAF80080FFF72D
:1030F0003BFC3B4A3B4B40461A60FFF743FC0A222D
:10310000019839492D4B08601A602A69A8F1553891
:10311000A8FB02126B6A120903EB4303DB0303FBF8
:1031200002F3324A9B0913600123CAF80030069962
:10313000DBF800200B0243EA016322F07F421343D5
:10314000CBF8003007A800F0CDF9002898D1284B23
:10315000A8FB04281A681433089253F8102CB6EB15
:10316000980F099253F80C2C0A9253F8082C0B92E2
:1031700053F8042C0C921B680D9301D1009B9BB952
:103180003846182208A9FFF721FB183C18370136EA
:10319000002C7FF43AAF049B002B40F09A80002370
:1031A000189A1360069B6FE71A46384608A9E41A76
:1031B000FFF70CFB009B1F44E9E700BF3811845068
:1031C00030118450ABAAAAAA310CF100300CF100E6
:1031D000020CF100320CF100350CF100C4118450E6
:1031E000FEFFFF0F001184500C118450D811845041
:1031F000141184502C118450BBF1000F3FF44CAFDC
:10320000002D3FF449AF01230EA941F8203DCBF832
:103210000020284600F094F900287FF413AF2946D7
:10322000069800F06FF900287FF40CAF069F082F76
:1032300000F0EB80042F00F0EA80A7F10207B7FA54
:1032400087F77F0901221646734B74491A601846A6
:103250000A60943B06606A6A1A6019686A6A914259
:10326000F8D14FF000086E4B4FF0FF30C3F80080EC
:10327000FFF77AFB6B4B6C4A40461A60FFF782FB04
:103280000A226A496A4B0F601A601A992B69012950
:103290006A6A00F0B1806749A1FB03131B09012191
:1032A00002EB4202D20303FB02F3634A9B09136061
:1032B0005B4B19600699DBF800200B0243EA0163BF
:1032C00022F07F421343CBF800307FE603230193C3
:1032D000F7E6039BB3F5047F3FF661AFDDE9047CBD
:1032E000204623466E6904E00120013363451446FD
:1032F00015D85A0957F8222003F01F01CA401F2988
:1033000018BF02F00102002BEED0A242ECD1013036
:103310008642EAD149480BE002230193D1E64FF4FB
:103320008063DDE90310AA69FFF7F4FD00285DD092
:103330000023189A1360A3E62946069800F0E2F8E5
:1033400000287FF47CAE069C082C51D0042C51D070
:10335000A4F10204B4FA84F4640901231E46194658
:103360002D4A136042F8843C2B4B19606B6AC9F8F4
:103370000030D9F800206B6A9A42F5D100274FF04F
:10338000FF30CAF80070FFF7EFFA264B264A38469E
:103390001A60FFF7F7FA0A222449254B0C601A60DD
:1033A0002A6924496B6AA1FB021203EB4303120949
:1033B000DB0303FB02F3204A9B091360CAF8006099
:1033C000069BDBF800101A0242EA036321F07F42F9
:1033D0001A43130A03F47F03134323F07F43CBF80C
:1033E0000030029B013B02937FF407AE002029E6E8
:1033F0000324B2E70224B0E74FF47F03D3F80C1C98
:10340000013106D0D3F80C3C45E703271AE7022721
:1034100018E7162343E700BFC411845040118450BD
:103420002C11845000118450FEFFFF0F0C118450AA
:1034300038118450ABAAAAAAD8118450360CF100D6
:103440002DE9F0431B4C85B00746DDE90D56884653
:1034500020684FF0FF319146FFF71EFA28BB00208D
:10346000FFF74AFAE8B90023CDE9005602934A462D
:10347000414638460C9BFFF78BFD05460120FFF7C0
:103480003BFA50B92068FFF70FFA10B10A48FFF76E
:103490008DFB284605B0BDE8F0830848FFF786FBA2
:1034A000F0E70748FFF782FBDDE70648FFF77EFB02
:1034B000D5E700BF24140020104600004846000055
:1034C00028460000F845000010B5012486B005AB81
:1034D000CDE901240093002204ABFFF759FD06B0AB
:1034E00010BD00BF08B501464FF48060FFF750FAE9
:1034F00000230249024A0B60136008BDC8118450C2
:103500002C1184500138072815D8DFE800F0100C82
:10351000140814141404CB6800204B6270478B68A5
:1035200000204B6270474B6800204B6270470B686D
:1035300000204B6270470148704700BF310CF1001A
:103540000B6802E0082B0B6006D8026A13424FEAB0
:103550004303F7D00020704700487047310CF1005A
:1035600000230449044A0B604FF480601360FFF7A6
:10357000FBB900BF2C118450C411845008B5FDF76D
:10358000DBFABDE80840FDF76DBA40E800F313F43C
:10359000803FD8B208BF6FF015007047FF232DE9B8
:1035A000F04F4668C372324600234FF00C0907897A
:1035B000016806FB07FC90F80A806144984505DC29
:1035C000002319468F4220DCBDE8F08FBCFBF2F5EA
:1035D00009FB03FED0F80CA0202D0AEB0E0404F129
:1035E000040BC4E901BB05D8C372920822F00302A0
:1035F0000133E3E715F11F0448BF05F13E046411F0
:103600004AF80E1001EB8401EFE7C268056802F189
:10361000040CEC1845F803C09568013165609568A5
:1036200033442C609460CDE7044608B50846114643
:103630001A46A047FEF748FFFDF748FF00207047F5
:1036400070B50D4604464520A04729465220A047A4
:1036500029462346BDE87040522018472DE9F04F17
:103660004FF0000806460F461C464FF0FF3AC14691
:1036700045468BB00292029B187810B90BB0BDE89A
:10368000F08F45B9252800F04B813946B047029BA1
:1036900001330293EFE764286DD019D839280AD88E
:1036A00031285FD22D2800F0418130284BD02528C9
:1036B00007D1394632E1582800F0BB80632800F07A
:1036C0002A8139462520B047029B3946187825E1E2
:1036D000702800F0A48011D869284CD06C2805D13E
:1036E000B8F16C0F2AD14FF04C08D0E76828E8D128
:1036F000B8F1680F22D14FF04808C8E7752872D09A
:1037000018D87328DDD154F8045BAB465B461BF830
:10371000010B002840F0FC80B9F1030F40F00C8150
:103720005D1BAAEB0505002D49DD39462020B04779
:10373000013DF8E778287CD07A28C2D1B8F1000F93
:10374000BFD18046A3E7BAF1000F0EDAB9F1000F3E
:1037500000F0EF80A0F1300AB9F1000F08BF4FF080
:10376000020994E7BAF1000FF4DB0A2303FB0A0A0B
:10377000AAF1300AF0E7B8F17A0F02D154F8045BED
:1037800020E0B8F16C0FF9D0B8F14C0FF6D1073446
:1037900024F00704F4E8022312F10041069143F1FA
:1037A000000107910021DDE906BC4FF0FF306145C3
:1037B00008BF584505D239463046FFF741FF00257E
:1037C00065E71546002D05DA39462D20B0476D42D4
:1037D0000AF1FF3A4B462A46CDF800A0394630465A
:1037E000FCF780FFEBE7B8F17A0F02D154F8042B15
:1037F00011E0B8F16C0FF9D0B8F14C0FF6D10021FF
:103800004FF0FF30073424F00704F4E80223994214
:1038100008BF9042CFD3CDF800A04B46DEE7394633
:103820003020B04739467820B0474FF0080A4FF0B3
:103830000109029B1B78702B04D154F8043B0493BC
:1038400000230DE0B8F16C0FF7D0B8F14C0FF4D1B4
:10385000073424F007031C4654F8082B5B680492D5
:10386000002110224FF0400B03910591ABF1040BA6
:103870000498CBF1200CABF1200120FA0BF003FAF5
:103880000CFC40EA0C0023FA01F1084310F00F0091
:1038900006D1059911B9BBF1000F22D1302103E007
:1038A00009288CBF57213021084440B2394608937B
:1038B0000592B047039B059A01330393089BBBF124
:1038C000000F23D1B9F1030F7FF479AF039BC3EB52
:1038D0004A05002D7FF773AF39462020B047013DE0
:1038E000F7E7511E9245089107DBB9F1010F06D1A8
:1038F000394630200993B047099B089AB6E7B9F1D9
:10390000020FFAD1099339462020F4E70595ADE777
:103910003946B047FAE6394654F8040BB0474EE74B
:10392000A846A9464FF0FF3A0125B0E64FF003093B
:10393000ADE64FF00109AAE60546A8E60FB407B5C3
:1039400004A951F8040B0191FCF71EFF03B05DF8C8
:1039500004EB04B070477047FEF78EB883685A7A5C
:1039600032B993F908000028CCBF0020012070472D
:1039700002207047026870B5956884684FF0200394
:10398000EFF3118683F31188BFF36F8F237A013B26
:103990005BB2002B237218D1C4E900336B6883B982
:1039A0000122EB7A03F150231A6000222B8903F1E4
:1039B00050231A600020607286F31188BFF36F8F66
:1039C00070BD98470028EBD1F4E74FF00000BCBF72
:1039D00020726FF04400EFE7F8B50368064614461E
:1039E0009F6885684FF02003EFF3118283F31188FD
:1039F000BFF36F8F2B7A01335BB22B7282F3118886
:103A0000BFF36F8F6A7A32B10CB90020F8BDD4E9E8
:103A100001319847F9E7012B06D13B6833B9012200
:103A2000BB7A03F150231A604CB9EEE7984700289F
:103A3000F5D1002CE9D0D4E90131304698472B6804
:103A40009C420DD013B11B68002BF9D100202060DF
:103A50006B6813B9C5E90044D7E71C606C60D5E713
:103A60006FF04400D2E70022FFF7B6BF8368002062
:103A7000C3E90000704710B500220446012105206B
:103A8000FDF790FB0520FDF77DFB4FF05023022250
:103A9000C3F8182503220020C3F80423A368C3E950
:103AA000000010BD38B58468054623682BB16168F5
:103AB0001A688B42226008BF62600122627203B9F9
:103AC00038BDD3E90121284690472368002BF7D061
:103AD00061681A688B42226008BF6260EFE7704736
:103AE0007047002307B501A88DF80430FEF76EFF7C
:103AF00003B05DF804FB902908B5134639D10A4696
:103B000001460020FEF76EFFBDE808407146724690
:103B10007346B7EE000AF7EE000AB7EE001AF7EEAA
:103B2000001AB7EE002AF7EE002AB7EE003AF7EED9
:103B3000003AB7EE004AF7EE004AB7EE005AF7EE49
:103B4000005AB7EE006AF7EE006AB7EE007AF7EEB9
:103B5000007A8EF3008C10B4F1EE10CA4FF6607448
:103B6000C0F6FF740CEA040CE1EE10CA10BCF44677
:103B700074476FF01500C7E7FEE7FDF7B3BA43B22D
:103B8000A9B1002B12DB01215B099B0003F160430B
:103B900003F56143D3F8802200F01F0001FA00F022
:103BA00022EA0002C3F88022D3F880327047002B4B
:103BB000FCDB01225B099B0003F1604303F56143D9
:103BC000D3F8801200F01F0002FA00F00843C3F897
:103BD0008002E9E700F0F9B80146006800F0F5B8A6
:103BE00008B5FDF791FABDE80840FDF727BA07B51B
:103BF000002101A8FDF702FE03B05DF804FB30B51B
:103C00000B6885B04C689DF808200D89013C009335
:103C1000498923F01F03234465F3040261F347122B
:103C200023F01F030F288DF808200393044605D8BE
:103C30006946FDF79BFC204605B030BD6FF01504CA
:103C4000F9E70138013910F8013F11F8012F9342CB
:103C500001D1002BF7D1981A7047431A934210B53F
:103C600000EB020308D3024601399A420BD011F847
:103C7000014F02F8014BF8E70A4412F8014D8A425D
:103C800003F8014DF9D110BDF0B581EA0004A50794
:103C900003460BD0013B0A4491421AD1F0BD002AE1
:103CA000FCD011F8014B013A03F8014B9C07F6D107
:103CB0009508AC001E1F0F19B94205D16FF003061D
:103CC000234406FB0522E5E751F804CB46F804CF70
:103CD000F2E711F8014B03F8014FDDE7034670B539
:103CE000C9B29C0710D141EA012444EA0445940872
:103CF00003EB8406B3420DD16FF0030505FB0424EA
:103D00001C44A34209D170BD002AFCD003F8011B5A
:103D1000013AE6E743F8045BECE703F8011BF0E740
:103D20004FF0FF3070470B46826892E8030083E84B
:103D300003000020704703689B681B68D3F82401C8
:103D400018B1D3F88004C3F8800470470368826810
:103D50009B681B68D3F8100138B1127A00200A70F2
:103D60000122C3F810011A6070474FF0FF3070470E
:103D70000022036882B09B688DF807101B68C3F8A7
:103D800020210DF10702C3F844250122C3F848257C
:103D90009A60D3F820110029FBD0DA6002B0704796
:103DA00008B5FDF7B5F8FDF733F9BDE80840FEF7B3
:103DB000D1BE4FF02002EFF3118382F31188BFF3DD
:103DC0006F8FFEE708B5FFF7F4FF70B505460E46A6
:103DD000FEF77AFB314604462846FFF7F3FF2046FC
:103DE000BDE87040FDF772BBFFF77ABE30B5002426
:103DF000C0E90232C0E905440161A34202D1C0E931
:103E0000000030BD456901340D6041611144F4E7A3
:103E10000023C0E90000C0E902337047437BDB06A2
:103E200003BF8069B0FA80F040090020704738B5C0
:103E300004464FF02003EFF3118583F31188BFF39D
:103E40006F8F01468068FEF777F9637B23F00203EA
:103E5000637385F31188BFF36F8F0023A36038BDB0
:103E600008B539B9FEF700F920B1BDE808400846A9
:103E7000FDF76EB981F31188BFF36F8F08BD08B5E8
:103E8000024638B9FEF7F0F820B1BDE80840104608
:103E9000FDF75EB982F31188BFF36F8F08BD4FF055
:103EA0002003EFF3118083F31188BFF36F8FFFF7C7
:103EB000E6BF0368984214BF18460020704750F8C8
:103EC000103C70B50446A0F11805CBB14FF02003AB
:103ED000EFF3118683F31188BFF36F8F294650F8F3
:103EE000100CFEF729F914F80B3C23F0020304F838
:103EF0000B3C86F31188BFF36F8F002344F8103C0E
:103F000014F80B3C284623F0140304F80B3CFFF78D
:103F100085FF20B12846BDE87040FEF75DB970BD51
:103F200038B54FF02003EFF3118283F31188BFF30C
:103F30006F8FFFF7BEFF044682F31188BFF36F8FC8
:103F4000C8B14FF02003EFF3118583F31188BFF35D
:103F50006F8F01468068FEF7EFF8637B23F0020362
:103F6000637385F31188BFF36F8F002304F118008A
:103F7000A36000F032F8204638BD437BDB0603BF68
:103F80008069B0FA80F0400900207047036D10B5D9
:103F9000044603B198472046FFF7EFFF38B12046AB
:103FA000FEF7C8F9637B43F00803637310BD637BBE
:103FB0009B0702D52046FFF73AFFA369002BF1D0FB
:103FC00004F1180000F009F8ECE7037300234273D2
:103FD0008173C373C0E90633704710B54FF02002F8
:103FE000EFF3118482F31188BFF36F8F03683BB145
:103FF000FEF710FB002084F31188BFF36F8F10BD14
:104000006FF01500F7E710B54FF02003EFF31184C0
:1040100083F31188BFF36F8FFEF710FB84F31188D1
:10402000BFF36F8F10BD70B504460E464FF02003EE
:10403000EFF3118583F31188BFF36F8FFEF7FEFA5C
:10404000012805DDA04203DD31462046FCF774FC63
:0C40500085F31188BFF36F8F70BD7047BF
:08405C0064C2FF7F01000000B7
:10406400000000007B3B0000000000007B3B0000E0
:10407400000000007B3B0000000000007B3B0000D0
:10408400000000007B3B0000000000002908000045
:10409400000000007B3B0000000000007B3B0000B0
:1040A400000000007B3B0000000000007B3B0000A0
:1040B400000000007B3B0000000000007B3B000090
:1040C400000000007B3B0000000000007B3B000080
:1040D400000000007B3B0000000000007B3B000070
:1040E400000000007B3B0000000000007B3B000060
:1040F400000000007B3B0000000000007B3B000050
:10410400000000007B3B000000000000810800006C
:10411400000000007B3B0000000000007B3B00002F
:10412400000000007B3B0000000000007B3B00001F
:10413400000000007B3B0000000000007B3B00000F
:10414400000000007B3B0000000000007B3B0000FF
:10415400000000007B3B0000000000007B3B0000EF
:10416400000000007B3B0000000000007B3B0000DF
:10417400000000007B3B0000000000007B3B0000CF
:10418400000000007B3B0000000000007B3B0000BF
:10419400000000007B3B0000000000007B3B0000AF
:1041A400000000007B3B0000000000007B3B00009F
:1041B400000000007B3B0000000000007B3B00008F
:1041C400000000007B3B0000000000007B3B00007F
:1041D400000000007B3B0000000000007B3B00006F
:1041E400000000007B3B0000000000007B3B00005F
:1041F400000000007B3B0000000000007B3B00004F
:10420400000000007B3B0000000000007B3B00003E
:10421400000000007B3B0000000000007B3B00002E
:10422400000000007B3B0000000000007B3B00001E
:10423400000000007B3B0000000000007B3B00000E
:10424400000000007B3B0000000000007B3B0000FE
:10425400000000007B3B0000000000007B3B0000EE
:08426400000000007B3B00009C
:10426C00A4460000A507000000000000A4460000C2
:10427C000D080000000000007E4600006D3A0000B2
:10428C003843000088460000773A00002C430000B9
:10429C0092460000C108000000000000A446000087
:1042AC00F51600000000000077460000C119000060
:1042BC00584500009B490000A13D00000000000093
:1042CC00A4460000191E000000000000A4460000D7
:0842DC00A5270000000000000E
:1042E400DEE61E284CBBCE8F015B000002000000FE
:1042F400F8420000000000006846000006000000CC
:10430400E0FF0F00000000207046000021000000C4
:10431400E0FF0020673A000075390000D939000039
:10432400000000005D3900000000000000000000F3
:104334000001000400000000000000000401080C5B
:104344001701000007010000070100000701000039
:104354000701000007010000070100000701000039
:104364000701000007010000070100000701000029
:104374000701000007010000070100000701000019
:104384000701000007010000070100000701000009
:1043940007010000070100000701000007010000F9
:1043A40007010000070100000701000007010000E9
:1043B40007010000070100000701000007010000D9
:1043C40055480000420100005C480000050100005F
:1043D40066480000150100006F4800003901000024
:1043E4007848000009010000834800000A0000002A
:1043F4008E4800000A010000984800000B010000EC
:10440400A24800000F010000AD48000010010000A8
:10441400B848000011010000C34800000E0100006C
:10442400CD48000021010000D64800002201000010
:10443400DF48000023010000E848000024010000D8
:10444400F148000018000000F94800002A010000AB
:10445400014900003A010000094900002C01000054
:10446400114900001C0100001A4900001D01000050
:1044740023490000170100002D490000310100000C
:104484003949000004000000170100001701000072
:1044940017010000170100001701000017010000B8
:1044A40017010000170100000701000007010000C8
:1044B40007010000070100000701000007010000D8
:1044C40007010000070100000701000007010000C8
:1044D40007010000070100000701000007010000B8
:1044E40007010000070100000701000007010000A8
:1044F4000701000007010000070100000701000098
:104504000701000007010000000200000004000091
:104514000008000000000000793B00007D0F00004F
:104524003D0F0000E10F00001D0F0000F0130020FC
:10453400D8130020E813002000000000E01300203E
:104544004D3D0000713D0000373D0000491800005A
:10455400273D00000080005001000000541400209A
:10456400B4140020C0140020CC140020CC1400206B
:10457400F5FFFFFF436F756C64206E6F74206C6FE2
:10458400636B20706F7765722073617665206D753B
:1045940074657800FF8FFFFFFF8FFFFFFE8FFFFF23
:1045A400FE8FFFFFFD8FFFFFFC8FFFFFFC8FFFFFE0
:1045B40043616E277420696E697469616C697A65F8
:1045C400206D757465782C20776173204E554C4CA2
:1045D4000D0A000043616E277420756E6C6F636B67
:1045E400206D757465782C20776173204E554C4C82
:1045F4000D0A00004661696C20746F206163717557
:10460400697265206D757465780A00004661696C8D
:1046140020746F2072656C65617365206D757465B7
:10462400780A00004661696C20746F20696E6372B9
:104634006561736520504D20636F756E7465720AF1
:10464400000000004661696C20746F206465637229
:104654006561736520504D20636F756E7465720AD1
:1046640000000000464C4153485F30005352414D16
:104674005F3000554152545F3000434C4F434B5F11
:1046840033324B00434C4F434B5F31364D0073790B
:10469400735F636C6F636B005365637572650909BF
:1046A400004E6F6E2D53656375726509004E6F6E13
:1046B4002D53656375726500466C6173682072657D
:1046C40067696F6E0909446F6D61696E0909506508
:1046D400726D697373696F6E730A002530327520C9
:1046E4003078253035782030782530357820090029
:1046F4002563004E6F6E2D7365637572652063616B
:104704006C6C61626C6520726567696F6E20302025
:10471400706C6163656420696E20666C61736820E7
:10472400726567696F6E20256420776974682073E9
:10473400697A652025642E0A00436F756C64206EC7
:104744006F7420696E697469616C697A6520736538
:104754006375726520736572766963657320286575
:104764007272202564292E0A005352414D2072652D
:1047740067696F6E0909446F6D61696E0909506557
:10478400726D697373696F6E730A00253032752018
:104794003078253035782030782530357809005048
:1047A40065726970686572616C0909446F6D61694D
:1047B4006E09095374617475730A002530327520CB
:1047C400252D32317325730009534B49500A0009D2
:1047D4004552524F520A00094F4B0A0053504D3A6A
:1047E400204E5320696D61676520617420307825FF
:1047F400780A0053504D3A204E53204D53502061B7
:104804007420307825780A0053504D3A204E5320B6
:10481400726573657420766563746F7220617420A9
:10482400307825780A0053504D3A207072657061D3
:10483400726520746F206A756D7020746F204E6FDE
:104844006E2D53656375726520696D6167652E0A07
:10485400004E52465F5030004E52465F434C4F4329
:104864004B004E52465F52544331004E52465F4E07
:10487400564D43004E52465F554152544531004E09
:1048840052465F554152544532004E52465F54578A
:10489400494D32004E52465F5350494D33004E52FB
:1048A400465F54494D455230004E52465F54494D7F
:1048B400455231004E52465F54494D455232004EE6
:1048C40052465F5341414443004E52465F50574D58
:1048D40030004E52465F50574D31004E52465F50A5
:1048E400574D32004E52465F50574D33004E52469C
:1048F4005F574454004E52465F495043004E52465F
:104904005F564D43004E52465F465055004E524648
:104914005F45475531004E52465F45475532004E7C
:1049240052465F4450504943004E52465F475049F7
:104934004F544531004E52465F524547554C415401
:104944004F5253006D757465785F696E69742063A6
:10495400616C6C65642077697468204E554C4C20FA
:10496400706172616D6574657200436F756C64206B
:104974006E6F7420616C6C6F63617465206D757407
:104984006578206265666F726520696E6974696115
:104994006C697A696E670048575F43433331305F0F
:1049A40030002A2A2A2A2A20426F6F74696E6720EF
:1049B4005A6570687972204F53206275696C64205F
:1049C40076322E302E39392D6E6373312D72633168
:1049D4002D31312D673962653937633633333638D3
:1049E40061202A2A2A2A2A0A006D61696E006964F4
:0449F4006C650000EE
:1049F8003D360000E014002001000000F4140020FF
:104A08000100000008150020010000001C1500200E
:104A180001000000213D000000C201000001030068
:104A2800000000000090D0030C1400200C1400209B
:104A38004414002050140020481400204014002082
:104A48001C14002000000000892B0000F12B00003E
:104A5800C92B00000D2C0000CD2B0000880600207B
:104A68007C0600208406002000000000800600204C
:104A78006C4200000000000000000000CC42000072
:104A88000000000000000000D84200000000000004
:104A980000000000A8420000000000000000000024
:104AA80090420000184300000C00002084420000DF
:104AB8001843000018000020B442000044450000DC
:104AC800FC130020784200000000000000000000F5
:104AD8009C4200000000000000000000C0420000EE
:084AE8000000000000000000C6
:104AF000CC140020CC1400200000000000000000B6
:104B00000F000000E0140020E0140020000000006E
:104B1000000000000F000000F4140020F414002036
:104B200000000000000000000F0000000815002039
:104B30000815002000000000000000000F00000029
:104B40001C1500201C1500200000000000000000C3
:044B50000F00000052
:0C4B5400FFFFFFFFFFFFFFFFFFFFFFFF61
:104B60000000000000000000000000000000000045
:104B70000000000000000000000000000000000035
:104B80000000000000000000000000000000000025
:107FE0007FE97FE9F8F7BCBE7FE97FE9F8F710BFCA
:107FF0007FE97FE9FBF77FBD000000000000000083
:04000003000012C522
:00000001FF
