:020000021000EC
:10820000A0E502206502020079F50300A1FE01004D
:10821000A1FE0100A1FE0100A1FE0100A1FE0100DE
:10822000A1FE0100A1FE0100A1FE010069FE010006
:10823000A1FE0100A1FE0100A5FD0100F9F9010068
:10824000CDFE0100CDFE0100CDFE0100CDFE0100FE
:10825000CDFE0100CDFE0100CDFE0100CDFE0100EE
:10826000CDFE0100CDFE0100CDFE0100CDFE0100DE
:10827000CDFE0100CDFE0100CDFE0100CDFE0100CE
:10828000CDFE0100CDFE0100CDFE0100CDFE0100BE
:10829000CDFE0100CDFE0100CDFE0100CDFE0100AE
:1082A000CDFE0100CDFE0100CDFE0100CDFE01009E
:1082B000E12902004F060400CDFE0100CDFE0100C1
:1082C000CDFE0100CDFE0100CDFE0100CDFE01007E
:1082D000CDFE0100CDFE0100CDFE0100CDFE01006E
:1082E000CDFE0100CDFE010071060400CDFE0100AF
:1082F000CDFE0100CDFE0100CDFE0100CDFE01004E
:10830000CDFE0100CDFE0100CDFE0100CDFE01003D
:10831000CDFE0100CDFE0100CDFE0100CDFE01002D
:10832000CDFE0100CDFE0100CDFE0100CDFE01001D
:10833000CDFE0100CDFE0100CDFE0100CDFE01000D
:10834000CDFE010000000000000000000000000061
:10835000000000000000000000000000000000001D
:10836000000000000000000000000000000000000D
:1083700000000000000000000000000000000000FD
:1083800000000000000000000000000000000000ED
:1083900000000000000000000000000000000000DD
:1083A00000000000000000000000000000000000CD
:1083B00000000000000000000000000000000000BD
:1083C00000000000000000000000000000000000AD
:1083D000000000000000000000000000000000009D
:1083E000000000000000000000000000000000008D
:1083F000000000000000000000000000000000007D
:10840000DEE61E284CBBCE8F015B0000E836030081
:108410000100000000820100E0F60220558B0200FE
:1084200081F0004102E000BF83F0004330B54FEA25
:1084300041044FEA430594EA050F08BF90EA020F92
:108440001FBF54EA000C55EA020C7FEA645C7FEA25
:10845000655C00F0E2804FEA5454D4EB5555B8BF48
:108460006D420CDD2C4480EA020281EA030382EAB9
:10847000000083EA010180EA020281EA0303362D4B
:1084800088BF30BD11F0004F4FEA01314FF4801C1E
:108490004CEA113102D0404261EB410113F0004F30
:1084A0004FEA03334CEA133302D0524263EB4303E7
:1084B00094EA050F00F0A780A4F10104D5F1200E85
:1084C0000DDB02FA0EFC22FA05F2801841F10001E0
:1084D00003FA0EF2801843FA05F359410EE0A5F1B4
:1084E00020050EF1200E012A03FA0EFC28BF4CF0E5
:1084F000020C43FA05F3C01851EBE37101F000459B
:1085000007D54FF0000EDCF1000C7EEB00006EEBA7
:108510000101B1F5801F1BD3B1F5001F0CD3490831
:108520005FEA30004FEA3C0C04F101044FEA445288
:1085300012F5800F80F09A80BCF1004F08BF5FEA0F
:10854000500C50F1000041EB045141EA050130BDEF
:108550005FEA4C0C404141EB010111F4801FA4F192
:108560000104E9D191F0000F04BF01460020B1FAE7
:1085700081F308BF2033A3F10B03B3F120020CDA1F
:108580000C3208DD02F1140CC2F10C0201FA0CF0FD
:1085900021FA02F10CE002F11402D8BFC2F1200C62
:1085A00001FA02F120FA0CFCDCBF41EA0C01904018
:1085B000E41AA2BF01EB0451294330BD6FEA040461
:1085C0001F3C1CDA0C340EDC04F11404C4F120024C
:1085D00020FA04F001FA02F340EA030021FA04F35E
:1085E00045EA030130BDC4F10C04C4F1200220FAB5
:1085F00002F001FA04F340EA0300294630BD21FAF3
:1086000004F0294630BD94F0000F83F4801306BFB8
:1086100081F480110134013D4EE77FEA645C18BFAC
:108620007FEA655C29D094EA050F08BF90EA020F43
:1086300005D054EA000C04BF1946104630BD91EA3B
:10864000030F1EBF0021002030BD5FEA545C05D13E
:108650004000494128BF41F0004130BD14F580047D
:108660003CBF01F5801130BD01F0004545F0FE41F1
:1086700041F470014FF0000030BD7FEA645C1ABF26
:10868000194610467FEA655C1CBF0B46024650EA5D
:10869000013406BF52EA033591EA030F41F4002189
:1086A00030BD00BF90F0000F04BF0021704730B50F
:1086B0004FF4806404F132044FF000054FF00001E4
:1086C00050E700BF90F0000F04BF0021704730B5A5
:1086D0004FF4806404F1320410F0004548BF40427A
:1086E0004FF000013EE700BF42004FEAE2014FEACF
:1086F00031014FEA02701FBF12F07F4393F07F4FAA
:1087000081F06051704732F07F4208BF704793F0AC
:108710007F4F04BF41F40021704730B54FF46074BF
:1087200001F0004521F000411CE700BF50EA0102C2
:1087300008BF704730B54FF000050AE050EA01026B
:1087400008BF704730B511F0004502D5404261EBDB
:1087500041014FF4806404F132045FEA915C3FF41C
:10876000D8AE4FF003025FEADC0C18BF03325FEAB9
:10877000DC0C18BF033202EBDC02C2F1200300FA6A
:1087800003FC20FA02F001FA03FE40EA0E0021FA8F
:1087900002F11444BDE600BF70B54FF0FF0C4CF47D
:1087A000E06C1CEA11541DBF1CEA135594EA0C0F2F
:1087B00095EA0C0F00F0DEF82C4481EA030621EA6A
:1087C0004C5123EA4C5350EA013518BF52EA0335A5
:1087D00041F4801143F4801338D0A0FB02CE4FF057
:1087E0000005E1FB02E506F00042E0FB03E54FF087
:1087F0000006E1FB03569CF0000F18BF4EF0010E7F
:10880000A4F1FF04B6F5007F64F5407404D25FEA7A
:108810004E0E6D4146EB060642EAC62141EA55512D
:108820004FEAC52040EA5E504FEACE2EB4F1FD0C6F
:1088300088BFBCF5E06F1ED8BEF1004F08BF5FEAED
:10884000500E50F1000041EB045170BD06F000469F
:1088500046EA010140EA020081EA0301B4EB5C044C
:10886000C2BFD4EB0C0541EA045170BD41F4801144
:108870004FF0000E013C00F3AB8014F1360FDEBF69
:10888000002001F0004170BDC4F10004203C35DA45
:108890000C341BDC04F11404C4F1200500FA05F3C8
:1088A00020FA04F001FA05F240EA020001F0004269
:1088B00021F0004110EBD37021FA04F642EB0601DF
:1088C0005EEA430E08BF20EAD37070BDC4F10C0409
:1088D000C4F1200500FA04F320FA05F001FA04F2CD
:1088E00040EA020001F0004110EBD37041F10001B9
:1088F0005EEA430E08BF20EAD37070BDC4F12005C4
:1089000000FA05F24EEA020E20FA04F301FA05F22B
:1089100043EA020321FA04F001F0004121FA04F2D3
:1089200020EA020000EBD3705EEA430E08BF20EAA3
:10893000D37070BD94F0000F0FD101F000464000DD
:1089400041EB010111F4801F08BF013CF7D041EA5F
:10895000060195F0000F18BF704703F00046520063
:1089600043EB030313F4801F08BF013DF7D043EA34
:108970000603704794EA0C0F0CEA135518BF95EAEA
:108980000C0F0CD050EA410618BF52EA4306D1D171
:1089900081EA030101F000414FF0000070BD50EA90
:1089A000410606BF1046194652EA430619D094EA1A
:1089B0000C0F02D150EA013613D195EA0C0F05D104
:1089C00052EA03361CBF104619460AD181EA030158
:1089D00001F0004141F0FE4141F470014FF0000010
:1089E00070BD41F0FE4141F4780170BD70B54FF0AB
:1089F000FF0C4CF4E06C1CEA11541DBF1CEA13552B
:108A000094EA0C0F95EA0C0F00F0A7F8A4EB05040C
:108A100081EA030E52EA03354FEA013100F0888003
:108A20004FEA03334FF0805545EA131343EA1263CC
:108A30004FEA022245EA111545EA10654FEA002681
:108A40000EF000419D4208BF964244F1FD0404F53A
:108A5000407402D25B084FEA3202B61A65EB030596
:108A60005B084FEA32024FF480104FF4002CB6EB53
:108A7000020E75EB030E22BFB61A754640EA0C00D3
:108A80005B084FEA3202B6EB020E75EB030E22BF13
:108A9000B61A754640EA5C005B084FEA3202B6EB54
:108AA000020E75EB030E22BFB61A754640EA9C0013
:108AB0005B084FEA3202B6EB020E75EB030E22BFE3
:108AC000B61A754640EADC0055EA060E18D04FEAA1
:108AD000051545EA16754FEA06164FEAC30343EA41
:108AE00052734FEAC2025FEA1C1CC0D111F4801F0E
:108AF0000BD141EA00014FF000004FF0004CB6E707
:108B000011F4801F04BF01430020B4F1FD0C88BFA5
:108B1000BCF5E06F3FF6AFAEB5EB030C04BFB6EBB0
:108B2000020C5FEA500C50F1000041EB045170BDA3
:108B30000EF0004E4EEA113114EB5C04C2BFD4EBD0
:108B40000C0541EA045170BD41F480114FF0000E54
:108B5000013C90E645EA060E8DE60CEA135594EAD0
:108B60000C0F08BF95EA0C0F3FF43BAF94EA0C0FD3
:108B70000AD150EA01347FF434AF95EA0C0F7FF448
:108B800025AF104619462CE795EA0C0F06D152EA9C
:108B900003353FF4FDAE1046194622E750EA410680
:108BA00018BF52EA43067FF4C5AE50EA41047FF491
:108BB0000DAF52EA43057FF4EBAE12E74FF0FF3CF6
:108BC00006E000BF4FF0010C02E000BF4FF0010CC7
:108BD0004DF804CD4FEA410C7FEA6C5C4FEA430C40
:108BE00018BF7FEA6C5C1BD001B050EA410C0CBF8F
:108BF00052EA430C91EA030F02BF90EA020F0020F1
:108C0000704710F1000F91EA030F58BF994208BF57
:108C100090422CBFD8176FEAE37040F00100704714
:108C20004FEA410C7FEA6C5C02D150EA013C07D16B
:108C30004FEA430C7FEA6C5CD6D152EA033CD3D0B6
:108C40005DF8040B704700BF8446104662468C46B0
:108C50001946634600E000BF01B5FFF7B7FF0028E3
:108C600048BF10F1000F01BD4DF808EDFFF7F4FF0C
:108C70000CBF012000205DF808FB00BF4DF808ED97
:108C8000FFF7EAFF34BF012000205DF808FB00BFBA
:108C90004DF808EDFFF7E0FF94BF012000205DF8DC
:108CA00008FB00BF4DF808EDFFF7CEFF94BF012091
:108CB00000205DF808FB00BF4DF808EDFFF7C4FF8A
:108CC00034BF012000205DF808FB00BF4FEA4102DD
:108CD00012F5001215D211D56FF47873B3EB62520E
:108CE00012D94FEAC12343F0004343EA505311F035
:108CF000004F23FA02F018BF404270474FF00000C7
:108D0000704750EA013005D111F0004008BF6FF004
:108D1000004070474FF00000704700BF7BB972B948
:108D20000029BEBF00204FF0004106E008BF002828
:108D30001CBF6FF000414FF0FF3000F0C7B9ADF13C
:108D4000080C6DE904CE002909DB002B1ADB00F0CA
:108D50004DF8DDF804E0DDE9022304B0704740423D
:108D600061EB4101002B1BDB00F040F8DDF804E073
:108D7000DDE9022304B0404261EB4101524263EB62
:108D800043037047524263EB430300F02FF8DDF8D2
:108D900004E0DDE9022304B0404261EB4101704789
:108DA000524263EB430300F021F8DDF804E0DDE913
:108DB000022304B0524263EB4303704753B94AB9EC
:108DC000002908BF00281CBF4FF0FF314FF0FF30D3
:108DD00000F07CB9ADF1080C6DE904CE00F006F8A6
:108DE000DDF804E0DDE9022304B070472DE9F04727
:108DF0008C46089D04468A46002B4AD18A42174673
:108E000062D9B2FA82F64EB1C6F1200E01FA06F32B
:108E1000B740B44020FA0EFE4EEA030A4FEA174864
:108E2000230C1FFA87F9BAFBF8FE08FB1EAA0EFBFB
:108E300009F243EA0A439A420BD9FB180EF1FF31BB
:108E40002CBF012000209A4202D9002800F02A817C
:108E50008E469A1AA3B2B2FBF8F008FB102200FB70
:108E600009F943EA0244A14507D93C1900F1FF334F
:108E700002D2A14500F210811846A4EB090440EA91
:108E80000E4000211DB1F4400023C5E90043BDE8B8
:108E9000F0878B4208D9002D00F0F2800021C5E94F
:108EA000000C0846BDE8F087B3FA83F100294ED1E3
:108EB0006345C0F0E880824240F2E5800846002D1C
:108EC000E5D0C5E9004AE2E702B9FFDEB2FA82F670
:108ED000002E40F099808B1A4FEA124E1FFA82F84A
:108EE00001214FEA144CB3FBFEF20EFB123008FBDB
:108EF00002F94CEA004CE14508D917EB0C0C02F1E1
:108F0000FF3302D2E14500F2CA801A46ACEB090CED
:108F1000A3B2BCFBFEF00EFB10CC08FB00F843EA4A
:108F20000C44A0450ED93C1900F1FF332CBF4FF083
:108F3000010C4FF0000CA04503D9BCF1000F00F06C
:108F4000A8801846A4EB080440EA02409AE7C1F161
:108F500020048B4002FA01FE0CFA01F6E24020FAEE
:108F600004F72CFA04FC00FA01F813433E431F0CEB
:108F7000320C1FFA83F9BCFBF7F007FB10CC00FBA7
:108F800009FA42EA0C4CE24508D913EB0C0C00F14B
:108F9000FF3202D2E24500F289801046ACEB0A0CA7
:108FA000B6B2BCFBF7FA07FB1ACC0AFB09F946EA92
:108FB0000C42914506D99A180AF1FF3601D2914523
:108FC0007AD8B2464AEA0040A2EB0902A0FB0E673B
:108FD000BA42B446B94602D307D1B04505D2B6EB82
:108FE0000E0C67EB030301389946002D6BD0B8EBEC
:108FF0000C0362EB090202FA04F4CB40CA400021E0
:109000001C43C5E9004242E7B740C6F1200201FA1D
:1090100006F3B44021FA02FC4FEA174E20FA02F29E
:109020001FFA87F8BCFBFEF11A430EFB11CC01FBC3
:1090300008F0130C43EA0C4C604507D917EB0C0CF5
:1090400001F1FF3301D2604533D81946ACEB000C77
:1090500092B2BCFBFEF00EFB10CC00FB08F342EA20
:109060000C4C634507D917EB0C0C00F1FF3201D211
:10907000634525D81046ACEB030340EA014130E7D5
:109080002946284603E7841A6CEB030301209A461D
:1090900015E702383C4455E702383C44EDE6023A15
:1090A000BC4433E7AEF1020E3B44D2E602389C44A6
:1090B00074E70239BC44C9E7AAF1020A1A4481E7FD
:1090C0000238BC44D7E72946E1E600BF704700BF3D
:1090D00070B491E87800B2E802105B1854EB0C040D
:1090E000B2E802104D4156EB0C0680E87800804152
:1090F000013070BC704770B491E87800B2E802109B
:109100005B1A74EB0C04B2E802108D4176EB0C068E
:1091100080E878008041404270BC70472DE9F0073C
:1091200091E8F807B2E802105B1854EB0C04B2E8BF
:1091300002104D4156EB0C06B2E802104F4158EBBD
:109140000C08B2E8021059EB01095AEB0C0A80E84E
:10915000F80780410130BDE8F00770472DE9F007BE
:1091600091E8F807B2E802105B1A74EB0C04B2E85D
:1091700002108D4176EB0C06B2E802108F4178EBBD
:109180000C08B2E8021079EB01097AEB0C0A80E8CE
:10919000F80780414042BDE8F00770472DE9F0072D
:1091A000524290E87800B1E880071740DB1918EACE
:1091B000020854EB080419EA020955EB09051AEAFA
:1091C000020A56EB0A0678C090E87800B1E88007FA
:1091D00017407B4118EA020854EB080419EA020917
:1091E00055EB09051AEA020A56EB0A0678C08041D7
:1091F0000130BDE8F00770472DE9F007524290E8D2
:109200007800B1E880071740DB1B18EA020874EB0E
:10921000080419EA020975EB09051AEA020A76EB55
:109220000A0678C090E87800B1E880071740BB4193
:1092300018EA020874EB080419EA020975EB09053B
:109240001AEA020A76EB0A0678C080414042BDE87D
:10925000F007704790E8300091E8C000A31B13406E
:10926000E41AF618EB1B1340ED1AFF1830C0C0C10A
:109270007047F0B55242FFF7EDFFFFF7EBFFFFF746
:10928000E9FFFFF7E7FFF0BD2DE9F0073AC91668DF
:10929000A1FB069A4FF0000CE3FB06AC4FF0000771
:1092A000E4FB06C74FF00008E5FB067840F8049B96
:1092B00056684FF00009E1FB06A91CEB090C4FF0C2
:1092C000000949EB0909E3FB06C917EB09074FF051
:1092D000000949EB0909E4FB067918EB09084FF08E
:1092E000000949EB0909E5FB068940F804AB9668DB
:1092F0004FF0000AE1FB06CA17EB0A074FF0000A1D
:109300004AEB0A0AE3FB067A18EB0A084FF0000A58
:109310004AEB0A0AE4FB068A19EB0A094FF0000A35
:109320004AEB0A0AE5FB069A40F804CBD6684FF0F0
:10933000000CE1FB067C18EB0C084FF0000C4CEB2A
:109340000C0CE3FB068C19EB0C094FF0000C4CEBFA
:109350000C0CE4FB069C1AEB0C0A4FF0000C4CEBD7
:109360000C0CE5FB06AC80E88017BDE8F007704701
:109370000A462DE9F04F41EC140A92EC080A1EC986
:1093800010EE100AA1FB00784FF00009E2FB008903
:109390004FF0000AE3FB009A4FF0000BE4FB00AB38
:1093A00012EE100A4FF0000CE1FB00BC4FF0000E73
:1093B000E2FB00CE4FF00005E3FB00E54FF00006B6
:1093C000E4FB005605EE107A10EE900A4FF000070D
:1093D000E1FB008719EB07094FF0000747EB070790
:1093E000E2FB00971AEB070A4FF0000747EB07076D
:1093F000E3FB00A71BEB070B4FF0000747EB07074A
:10940000E4FB00B712EE900A1CEB070C4FF00007CC
:1094100047EB0707E1FB00C71EEB070E4FF0000705
:1094200047EB0707E2FB00E7ED194FF0000747EBBA
:109430000707E3FB0057F6194FF0000747EB070754
:10944000E4FB006705EE908A11EE100A4FF0000869
:10945000E1FB00981AEB080A4FF0000848EB0808F7
:10946000E2FB00A81BEB080B4FF0000848EB0808D4
:10947000E3FB00B81CEB080C4FF0000848EB0808B1
:10948000E4FB00C813EE100A1EEB080E4FF00008B4
:1094900048EB0808E1FB00E815EB08054FF0000871
:1094A00048EB0808E2FB005816EB08064FF00008EE
:1094B00048EB0808E3FB006817EB08074FF00008CB
:1094C00048EB0808E4FB007806EE109A11EE900ACB
:1094D0004FF00009E1FB00A91BEB090B4FF000095D
:1094E00049EB0909E2FB00B91CEB090C4FF000093C
:1094F00049EB0909E3FB00C91EEB090E4FF0000917
:1095000049EB0909E4FB00E913EE900A15EB0905A4
:109510004FF0000949EB0909E1FB005916EB090678
:109520004FF0000949EB0909E2FB006917EB090755
:109530004FF0000949EB0909E3FB007918EB090832
:109540004FF0000949EB0909E4FB008906EE90AAF7
:1095500014EE901A01F110011EC910EE100A4FF01E
:10956000000AE1FB00BA1CEB0A0C4FF0000A4AEBC0
:109570000A0AE2FB00CA1EEB0A0E4FF0000A4AEB91
:109580000A0AE3FB00EA15EB0A054FF0000A4AEB72
:109590000A0AE4FB005A12EE100A16EB0A064FF014
:1095A000000A4AEB0A0AE1FB006A17EB0A074FF0D0
:1095B000000A4AEB0A0AE2FB007A18EB0A084FF0AD
:1095C000000A4AEB0A0AE3FB008A19EB0A094FF08A
:1095D000000A4AEB0A0AE4FB009A07EE10BA10EE02
:1095E000900A4FF0000BE1FB00CB1EEB0B0E4FF08F
:1095F000000B4BEB0B0BE2FB00EB15EB0B054FF0FD
:10960000000B4BEB0B0BE3FB005B16EB0B064FF079
:10961000000B4BEB0B0BE4FB006B12EE900A17EB0D
:109620000B074FF0000B4BEB0B0BE1FB007B18EB38
:109630000B084FF0000B4BEB0B0BE2FB008B19EB15
:109640000B094FF0000B4BEB0B0BE3FB009B1AEBF2
:109650000B0A4FF0000B4BEB0B0BE4FB00AB07EEE0
:1096600090CA11EE100A4FF0000CE1FB00EC15EB74
:109670000C054FF0000C4CEB0C0CE2FB005C16EB05
:109680000C064FF0000C4CEB0C0CE3FB006C17EBE2
:109690000C074FF0000C4CEB0C0CE4FB007C13EEC1
:1096A000100A18EB0C084FF0000C4CEB0C0CE1FB13
:1096B000008C19EB0C094FF0000C4CEB0C0CE2FB8E
:1096C000009C1AEB0C0A4FF0000C4CEB0C0CE3FB6B
:1096D00000AC1BEB0C0B4FF0000C4CEB0C0CE4FB48
:1096E00000BC08EE10EA11EE900A4FF0000EE1FB0C
:1096F000005E16EB0E064FF0000E4EEB0E0EE2FB78
:10970000006E17EB0E074FF0000E4EEB0E0EE3FB54
:10971000007E18EB0E084FF0000E4EEB0E0EE4FB31
:10972000008E13EE900A19EB0E094FF0000E4EEB6F
:109730000E0EE1FB009E1AEB0E0A4FF0000E4EEBF0
:109740000E0EE2FB00AE1BEB0E0B4FF0000E4EEBCD
:109750000E0EE3FB00BE1CEB0E0C4FF0000E4EEBAA
:109760000E0EE4FB00CE14EE100AA0EC075A80E8BF
:10977000E05FBDE8F08F00BF30B44FF0000310F899
:10978000014B11F8015B013A84EA050443EA040342
:10979000F5D1A3F101034FEAD37030BC70474FF00D
:1097A000000310F8012B013943EA0203F9D1A3F1B8
:1097B00001034FEAD370704711F8013B00F8013BF9
:1097C000013AF9D17047002200F8012B0139FBD191
:1097D000704700BF2DE9F00791E8F807B2E80210E2
:1097E0005B1854EB0C04B2E802104D4156EB0C062A
:1097F000B2E802104F4158EB0C08B2E8021059EBE6
:1098000001095AEB0C0A8941B3F1FF3374F1FF34BB
:1098100075F1FF3576F1000677F1000778F1000861
:1098200079F101097AF1FF3A51F100014A425B18DE
:109830004C414D4156F1000657F1000758F1000820
:1098400059EB02095AEB010A80E8F807BDE8F00776
:1098500070472DE9F00791E8F807B2E802105B1AAB
:1098600074EB0C04B2E802108D4176EB0C06B2E802
:1098700002108F4178EB0C08B2E8021079EB010975
:109880007AEB0C0A89414A425B184C414D4156F132
:10989000000657F1000758F1000859EB02095AEB8E
:1098A000010A80E8F807BDE8F00770470A462DE98D
:1098B000F04F41EC140A92EC080A1EC910EE100A8F
:1098C000A1FB00784FF00009E2FB00894FF0000A8D
:1098D000E3FB009A4FF0000BE4FB00AB12EE100A22
:1098E0004FF0000CE1FB00BC4FF0000EE2FB00CE9D
:1098F0004FF00005E3FB00E54FF00006E4FB0056E7
:1099000005EE107A10EE900A4FF00007E1FB008799
:1099100019EB07094FF0000747EB0707E2FB009739
:109920001AEB070A4FF0000747EB0707E3FB00A716
:109930001BEB070B4FF0000747EB0707E4FB00B7F3
:1099400012EE900A1CEB070C4FF0000747EB0707DD
:10995000E1FB00C71EEB070E4FF0000747EB0707C0
:10996000E2FB00E7ED194FF0000747EB0707E3FBC9
:109970000057F6194FF0000747EB0707E4FB0067B5
:1099800005EE908A11EE100A4FF00008E1FB0098F6
:109990001AEB080A4FF0000848EB0808E2FB00A8A1
:1099A0001BEB080B4FF0000848EB0808E3FB00B87E
:1099B0001CEB080C4FF0000848EB0808E4FB00C85B
:1099C00013EE100A1EEB080E4FF0000848EB0808D3
:1099D000E1FB00E815EB08054FF0000848EB08082C
:1099E000E2FB005816EB08064FF0000848EB0808A9
:1099F000E3FB006817EB08074FF0000848EB080886
:109A0000E4FB007806EE109A11EE900A4FF0000980
:109A1000E1FB00A91BEB090B4FF0000949EB090919
:109A2000E2FB00B91CEB090C4FF0000949EB0909F6
:109A3000E3FB00C91EEB090E4FF0000949EB0909D1
:109A4000E4FB00E913EE900A15EB09054FF000095D
:109A500049EB0909E1FB005916EB09064FF0000933
:109A600049EB0909E2FB006917EB09074FF0000910
:109A700049EB0909E3FB007918EB09084FF00009ED
:109A800049EB0909E4FB008906EE90AA14EE901A4E
:109A900001F110011EC910EE100A4FF0000AE1FB9F
:109AA00000BA1CEB0A0C4FF0000A4AEB0A0AE2FB70
:109AB00000CA1EEB0A0E4FF0000A4AEB0A0AE3FB4B
:109AC00000EA15EB0A054FF0000A4AEB0A0AE4FB2C
:109AD000005A12EE100A16EB0A064FF0000A4AEB83
:109AE0000A0AE1FB006A17EB0A074FF0000A4AEB8B
:109AF0000A0AE2FB007A18EB0A084FF0000A4AEB68
:109B00000A0AE3FB008A19EB0A094FF0000A4AEB44
:109B10000A0AE4FB009A07EE10BA10EE900A4FF022
:109B2000000BE1FB00CB1EEB0B0E4FF0000B4BEBE1
:109B30000B0BE2FB00EB15EB0B054FF0000B4BEBB7
:109B40000B0BE3FB005B16EB0B064FF0000B4BEB34
:109B50000B0BE4FB006B12EE900A17EB0B074FF0B8
:109B6000000B4BEB0B0BE1FB007B18EB0B084FF0F2
:109B7000000B4BEB0B0BE2FB008B19EB0B094FF0CF
:109B8000000B4BEB0B0BE3FB009B1AEB0B0A4FF0AC
:109B9000000B4BEB0B0BE4FB00AB07EE90CA11EE96
:109BA000100A4FF0000CE1FB00EC15EB0C054FF038
:109BB000000C4CEB0C0CE2FB005C16EB0C064FF0BF
:109BC000000C4CEB0C0CE3FB006C17EB0C074FF09C
:109BD000000C4CEB0C0CE4FB007C13EE100A18EBB1
:109BE0000C084FF0000C4CEB0C0CE1FB008C19EB5B
:109BF0000C094FF0000C4CEB0C0CE2FB009C1AEB38
:109C00000C0A4FF0000C4CEB0C0CE3FB00AC1BEB14
:109C10000C0B4FF0000C4CEB0C0CE4FB00BC08EE02
:109C200010EA11EE900A4FF0000EE1FB005E16EB19
:109C30000E064FF0000E4EEB0E0EE2FB006E17EB21
:109C40000E074FF0000E4EEB0E0EE3FB007E18EBFE
:109C50000E084FF0000E4EEB0E0EE4FB008E13EEDE
:109C6000900A19EB0E094FF0000E4EEB0E0EE1FBC1
:109C7000009E1AEB0E0A4FF0000E4EEB0E0EE2FBAA
:109C800000AE1BEB0E0B4FF0000E4EEB0E0EE3FB87
:109C900000BE1CEB0E0C4FF0000E4EEB0E0EE4FB64
:109CA00000CE53EC172A18EE104A12EB0A0253EBBF
:109CB0000B0354EB0C0455EB0E05002040F10000A3
:109CC00012EB0B0253EB0C0354EB0E0455EB0E0599
:109CD00046410020474158EB000859EB0A0940F182
:109CE0000000B2EB0E0273F1000374F1000475EB97
:109CF0000A0576EB0B0677EB0C0778EB0A0879EB95
:109D00000C0960F10000B5EB0B0576EB0C0677EB68
:109D10000E0778EB0B0879EB0E0960F100005FEAA3
:109D2000E07C7FEA0C0CDCF1000EB2EB0C0273EB72
:109D30000C0374EB0C0475F1000576F1000677F165
:109D4000000778EB0E0879EB0C0960F100005FEA80
:109D5000E07CDCF1000E12EB0C0253EB0C0354EB35
:109D60000C0455F1000556F1000657F1000758EBB9
:109D70000E0859EB0C0940F100005FEAE07CDCF1D1
:109D8000000E12EB0C0253EB0C0354EB0C0455F1D8
:109D9000000556F1000657F1000758EB0E0859EB85
:109DA0000C095BEC15AA51EC160A1AEB060A5BEBE0
:109DB000070B50EB080051EB09015FF0000C4CF170
:109DC000000C1AEB070A5BEB080B50EB090051EB98
:109DD000090152EB0C025FF0000C53EB0C0354EB47
:109DE0000C0475414CF1000CBAEB090A7BF1000B35
:109DF00070F10000B141BA4173EB0803B44175EB57
:109E000008056CF1000CC91B72EB080273EB090327
:109E1000BC4175EB09056CF1000C5FEAEC787FEA58
:109E20000808D8F10009BAEB080A7BEB080B70EBC5
:109E3000080071F1000172F1000273F1000374EB8C
:109E4000090475EB08056CF1000C5FEAEC78D8F1B9
:109E500000091AEB080A5BEB080B50EB080051F104
:109E6000000152F1000253F1000354EB090455EBD9
:109E700008054CF1000C5FEAEC78D8F100091AEB08
:109E8000080A5BEB080B50EB080051F1000152F19E
:109E9000000253F1000354EB090455EB080514EEDE
:109EA000107AA7E8000C87E83F00BDE8F08F00BFFC
:109EB0004FEA410C7FEA6C5C02D150EA013C0AD1C6
:109EC0004FEA430C7FEA6C5C02D152EA033C02D1B8
:109ED0004FF0000070474FF0010070474A0011D268
:109EE00012F5001211D20DD56FF47873B3EB6252F4
:109EF0000ED44FEAC12343F0004343EA505323FA00
:109F000002F070474FF00000704750EA013002D174
:109F10004FF0FF3070474FF00000704710F8012BF2
:109F200011F8013B012A28BF9A42F7D0D01A704796
:109F3000034613F8012B002AFBD1181A0138704789
:109F4000F0B5294E054687B03068436802219B680A
:109F50009847044628B1254825F02EF9204607B039
:109F6000F0BD3068436804AADB68022198470446C4
:109F700008B11F48F0E70598FEF7A4FB18A3D3E942
:109F80000023FEF733FD064604980F46FEF79AFBC2
:109F900002460B4630463946FEF748FA00220023B7
:109FA000FEF744FA134BD3E90423FEF73DFA0646C5
:109FB0000F460022C5E904670F4BFEF773FE58B940
:109FC0000E4B002230463946FEF762FE002814BFD1
:109FD000022303232B76C1E70123FBE7AFF30080C5
:109FE0000000000080842E41DC3802204E5C04001A
:109FF0006A5C04005809022000001440000014C0EC
:10A000002DE9F04F0025404C404F414E87B023686A
:10A010009869198A43689B689847024620B123686B
:10A020003846596925F0C8F823689869198A436841
:10A030000DEB0502DB6898472368024688B1596931
:10A04000384625F0B9F80835182D04F10404DED19E
:10A0500042F210722F49304821F082FC07B0BDE86F
:10A06000F08F03F11C084FF02003EFF3118B83F303
:10A070001188BFF36F8F404621F014FA60B9274969
:10A080005F233246264825F097F8264825F094F8B5
:10A090005F21304625F09DF8404621F021FA0DEB76
:10A0A00005035868FEF70EFB15A3D3E90023FEF75E
:10A0B0009DFC80465DF805008946FEF703FB0246DD
:10A0C0000B4640464946FEF7B1F9D4F800A0CAE96C
:10A0D00002010AF11C0021F0F3F960B91249722360
:10A0E00032460F4825F068F8104825F065F87221CF
:10A0F000304625F06EF88BF31188BFF36F8FA2E71F
:10A100000000000080842E41F03704006A610400E2
:10A11000936104003839022048A20220C56104007E
:10A1200077570400DA610400EF610400066204005E
:10A130002DE9F043054693B00C4609B9002024E010
:10A1400008680028FAD08B686268191D91420BD804
:10A150000422B149184427F07BFD28B90423EB60A1
:10A16000A3680433A36073E0A3686268591D914239
:10A170000ED820680522A949184427F069FD38B98E
:10A180000120A368E8600533A36013B0BDE8F08345
:10A19000A3686268191D91420DD820680422A04965
:10A1A000184427F055FD30B902230120EB60A36865
:10A1B00068610433E8E7D4E901028242BED2216833
:10A1C0008B5C8F18222B04D12146284607F030FFE4
:10A1D000DBE72D2B03D0A3F13006092E4ED8002348
:10A1E00001930029AAD0821A02AEF95C392931D82C
:10A1F000302905D22D2903D02E2901D02B2905D1B4
:10A20000F15401333F2B01D09A42EED112AA1344EC
:10A21000002201A9304603F8402C23F0A5FB019F42
:10A2200059EC108BB74289D079A3D3E9002385ED8F
:10A23000060B10EE100A4946FEF734FD70B16FF0C0
:10A2400000436B610823EB60A368B81B1844A0604F
:10A2500001209AE74529D3D06529D0E70022714B28
:10A2600040464946FEF714FD10B14FF00043E8E7C1
:10A2700040464946FEF72AFD6861E3E75B2B53D170
:10A28000E368B3F57A7FBFF459AF0133E3608B5CC9
:10A290005B2B7FF453AF0132A260204626F0B1F869
:10A2A000D4E9012393425CD22268D25C5D2A01D1B9
:10A2B000002627E04FF000084646013BA3602069D6
:10A2C00026F02DF9074640B32EB3C8F80000C0F8B9
:10A2D0000480A36820460133A36026F092F821464B
:10A2E0003846FFF725FFD8B1204626F08AF8D4E992
:10A2F0000123934214D22268B846D35C2C2BDED0C3
:10A300005D2B0DD1E368013BE3602023C5E90263C7
:10A31000A368013326E70646DBE7002E3FF40EAFC5
:10A32000304608F047FA09E77B2B7FF407AFE36874
:10A33000B3F57A7FBFF402AF0133E3608B5C7B2B14
:10A340007FF4FCAE0132A260204626F05AF8D4E930
:10A350000123934205D22268D25C7D2A04D10027D2
:10A3600046E0013BA360E9E64FF000084746C146DE
:10A37000013BA360206926F0D2F80646002840D0B1
:10A38000002F3CD0C8F80000C0F80480A368204625
:10A390000133A36026F035F82146304607F048FE29
:10A3A00090B3204626F02DF83369C6F8109033623A
:10A3B000D4E90123934227D22268D25C3A2A23D1DE
:10A3C0000133A360204626F01CF821463046FFF7F3
:10A3D000AFFEC8B1204626F014F8D4E90123934219
:10A3E00012D22268B046D35C2C2BC3D07D2B0BD16C
:10A3F000E368013BE3604023C5E9027388E7074651
:10A40000C4E7002F3FF49AAE38468AE7AFF30080E6
:10A410000000C0FFFFFFDF41457504005C750400CC
:10A42000627504000000E0C1174BD0B5186857EC06
:10A43000106B26F074F8044670B10823C0E9066773
:10A44000C36039460EA3D3E900233046FEF72AFC49
:10A4500020B16FF0004363612046D0BD00220B4B5A
:10A4600030463946FEF714FC10B14FF00043F2E7D6
:10A4700030463946FEF72AFC6061EDE7AFF3008015
:10A480000000C0FFFFFFDF41501203200000E0C1C9
:10A49000D0B514460F460646FEF718FC2060FEF7BE
:10A4A00011F902460B4630463946FDF7BDFF04A3BD
:10A4B000D3E90023FEF770F9FEF708FC6060D0BD19
:10A4C0000000000080842E41F8B5102900F2A6801B
:10A4D000DFE801F009203040A4A4A4A4A4A4A4A40B
:10A4E000A46890A47D00544C0FF090F82068FEF70B
:10A4F000E9F8524B002206460F46FEF74DF9504B45
:10A50000C3E90001304607F10041FEF7DFFB2060A0
:10A510000020F8BD484C0FF079F82068FEF7D2F81B
:10A52000464B002206460F46FEF736F9444BC3E978
:10A530000201E7E7404C0FF069F82068FEF7C2F827
:10A540003E4B002206460F46FEF726F93C4BC3E978
:10A550000401D7E70FF05AF8394CC4E90001012093
:10A5600027F06BF80FF052F8C4E90201324D0120D8
:10A5700027F063F80FF04AF82868FEF7A3F80022E6
:10A580002E4B06460F46FEF707F9C4E90001C4E961
:10A590000201C4E90401304607F10041FEF796FBD1
:10A5A0002860B5E723F036F9FEF78CF81EA3D3E94F
:10A5B0000023FEF71BFA0022224BFDF735FF224B4A
:10A5C0000022FDF733FF214BC3E90001A0E723F090
:10A5D00021F9FEF777F814A3D3E90023FEF706FA72
:10A5E0000022184BFDF720FF194B0022FDF71EFF3C
:10A5F000184BE9E723F00EF9FEF764F80AA3D3E954
:10A600000023FEF7F3F900220E4BFDF70DFF08A320
:10A61000D3E90023FDF70AFF0F4BD5E76FF0850064
:10A6200077E700BFAFF300800000C0FFFFFFCF411E
:10A63000CDCCCCCCCC8C58407812032000003440D8
:10A64000682A02200000F03F00003540782D0220EB
:10A6500000004A40802A0220882A022000000000D0
:10A660002DE9F04F1F46A1B00023814638460E4623
:10A6700017924FF0000A1C9328F067F88046006894
:10A68000FFF756FC4FF0000B04461B961B9B1A78F5
:10A690000D2A32D8092A36D2002A3ED000230D9343
:10A6A0001B9D2B78302B40F0AC806B78582B01D061
:10A6B000782B67D10D9B1BA90297484601931CABD1
:10A6C000874A00931DAB27F069FD10F0070406468A
:10A6D00005D0062C2BD1013500231B950D93179B1C
:10A6E000002B40F09A850D9BE3B152460BF10043DD
:10A6F00043EC102B21B0BDE8F08F2B2A15D02D2A6A
:10A7000004D0202ACAD101331B93BFE701220D9246
:10A710005A1C1B925B78002BC2D1179B1B96002BF7
:10A7200040F0798552465B46E2E70022EFE71C9A4B
:10A730003AB135211EA828F04BFB1C99484628F059
:10A7400079F8013C042C06D8DFE804F00A0314175A
:10A750000A00DDE91EAB3007C1D54BF0004BBEE768
:10A76000DDE91EA31D9A23F4801302F2334243EA6B
:10A77000025BF0E7DFF86CB1EDE76FF0004B4FF0F4
:10A78000FF3AE8E71B9B5A1C1B925B78302BF9D0F1
:10A79000002BA4D00123002506930A221B9B0795BA
:10A7A000089305951B980778A7F13003D9B20929BA
:10A7B00029D92246D8F8001027F04AFA002831D0CB
:10A7C00000203B46059C02460490652B01D0452B9A
:10A7D00014D124B910B9069B002B9ED000241B9ED7
:10A7E000731C1B9373782B2B77D02D2B6FD04FF0CE
:10A7F000000CA3F13007092F7AD91B964FF0000EF9
:10A8000098E00023C7E70599013008291B90D7BFBE
:10A81000079902FB053502FB01330793059B0133C2
:10A820000593BFE71B9B1A191B92059A1B5D002A13
:10A8300036D00246059CA3F13001092913D9012124
:10A840000491C2E71B9B01305A1C1B925B78302B92
:10A85000F8D0A3F13102082A00F2E4841B9A08928E
:10A86000024600200446B3F1300E00F1010111D080
:10A870000A4400EB040C21460A278C4512D121180A
:10A8800001340829044419DC079B0A2101FB03E376
:10A89000079300211B9B581C1B9008465B78CAE756
:10A8A0000598D4E7082901F1010103DC079B7B43EC
:10A8B0000793E2E71029D8BF7D43DEE7102CDCBF09
:10A8C0000A2101FB05E5E4E70123049382E74FF049
:10A8D000010CB31C1B93B3788BE74FF0000CF8E727
:10A8E000205204000000F07F1B9B5F1C1B975B78CD
:10A8F000302BF9D0A3F13107082F3FF67FAFA3F13A
:10A90000300E1B9B0A931B9B5F1C1B975B78A3F16C
:10A910003008B8F1090F37D90A997F1A082F44F681
:10A920001F6737DCBE45A8BFBE46BCF1000F01D093
:10A93000CEF1000E002C51D100287FF4D0AE069A43
:10A94000002A7FF4CCAE049A002A7FF4E6AE4E2BA8
:10A9500027D021DC492B7FF4E0AEA0491BA827F0CB
:10A9600050FE00283FF4D9AE1B9B1BA89C49013B1D
:10A970001B9327F046FE10B91B9B01331B93DFF896
:10A9800074B24FF0000AAAE60A2101FB0E3EAEF1B6
:10A99000300EB8E7BE46C8E7692BDED06E2B7FF4D9
:10A9A000BCAE90491BA827F02CFE00283FF4B5AEA2
:10A9B0001B9B1B78282B0ED11EAA8B491BA827F0A6
:10A9C00034FE052807D11F9BDDF878A043F0FF4B2C
:10A9D0004BF4E00B83E6DFF824B2D2E7AEEB0203E0
:10A9E0000798A0460693059B002B08BF2346102C12
:10A9F0000593A8BF4FF01008FDF754FE092C8246BE
:10AA00008B4613DC069B002B3FF469AE069B7ADD78
:10AA1000162B61DC754A02EBC30E52465B46DEE93B
:10AA20000001FDF7B9FE82468B4658E66F4B03EBFB
:10AA3000C80353E91223FDF7AFFE06460F4628462A
:10AA4000FDF730FE02460B4630463946FDF7EEFC78
:10AA50000F2C82468B46D5DDA4EB0808069B984454
:10AA6000B8F1000F40F3968018F00F030AD05F4949
:10AA7000524601EBC3015B46D1E90001FDF78CFEB4
:10AA800082468B4638F00F0873D0B8F59A7F47DDC1
:10AA90000024A046079405942223DFF858B14FF014
:10AAA000000AC9F80030079B002B3FF418AE1C9930
:10AAB000484627F0BFFE0599484627F0BBFE4146B1
:10AAC000484627F0B7FE0799484627F0B3FE2146CF
:10AAD000484627F0AFFE02E6C4F12503069A9342EA
:10AAE000BADBC4F10F04414D52465B4605EBC4018D
:10AAF000D1E90001FDF750FE069B1C1B05EBC405C8
:10AB0000D5E900238DE713F1160FA5DB374A504630
:10AB10005946A2EBC302D2E90023FDF767FF82E7A3
:10AB200000234FEA2818504659461D46304EB8F1CA
:10AB3000010F21DC0BB182468B462D4BABF1547BD0
:10AB4000524603EBC5055B46D5E90001FDF724FE3F
:10AB5000284B0A4682460B4027498B4298D8A1F5DC
:10AB600080118B4286BFDFF898B04FF0FF3A02F1B8
:10AB7000547B0023049377E018F0010F06D006EB16
:10AB8000C503D3E90023FDF707FE012301354FEA92
:10AB90006808CCE7EDD0C8F1000818F00F020AD021
:10ABA000124B5046594603EBC203D3E90023FDF78D
:10ABB0001DFF82468B465FEA2818DAD0B8F11F0FD6
:10ABC00020DD0024A0460794059422234FF0000ABC
:10ABD0004FF0000BC9F8003065E700BF9B6404002C
:10ABE00040AE0400E9AC040034520400B036040066
:10ABF000883604000000F07F0000A07C0000F8FF11
:10AC0000FFFFEF7F18F0100350465946A04D18BFC4
:10AC10006A2304930023B8F1000F00F30A810BB1FB
:10AC200082468B46049BBBB1CBF30A535946C3F112
:10AC30006B03002B10DD1F2B40F30781342B4FF0EB
:10AC4000000ADBBF203B4FF0FF324FF05C7B02FA83
:10AC500003F3D8BF03EA010B0022002350465946F4
:10AC6000FEF702F80028ACD1079B4846059A0093EE
:10AC70002346089927F032FE079000283FF408AFDA
:10AC8000069A0024069B002AA046C3F10003A8BF31
:10AC900000230E9322EAE2731693079B48465968F5
:10ACA00027F094FD059000283FF4F6AE079B0C308A
:10ACB0001A6903F10C010232920026F0EBFD1EAA84
:10ACC0001DA948464BEC10ABCDE908AB27F0FEFFC1
:10ACD0001C9000283FF4E0AE0121484627F08AFE90
:10ACE000804600283FF4D8AE1D9E1E9A002EA9BFB4
:10ACF0000E9B169BF718169DB8BF9D1B049BB8BFF3
:10AD00000E9FF61A634B1644C2F13602013E9E4274
:10AD100080F2AE809B1B01211F2BA2EB030200F3EC
:10AD20009B8001FA03F30F9300230A93BE18049B40
:10AD30001544B7421D443B46A8BF3346AB42A8BFAB
:10AD40002B46002BC2BFF61AED1AFF1A0E9BBBB1A1
:10AD500041461A46484623F043F9804600283FF40E
:10AD60009BAE01461C9A484627F04DFE0C900028E9
:10AD70003FF492AE1C99484627F05CFD0C9B1C9357
:10AD8000002E7ADC069B002B08DD169A48460599B2
:10AD900023F026F9059000283FF47EAE002D08DD53
:10ADA0002A460599484627F0C3FE059000283FF43F
:10ADB00073AE002F08DD41463A46484627F0B8FEFC
:10ADC000804600283FF468AE059A48461C9927F053
:10ADD0001DFF044600283FF45FAEC36841460C9354
:10ADE0000023C36027F0F8FE002855DA0C9BE3B976
:10ADF000BAF1000F19D1CBF31303B3B92BF0004311
:10AE00001B0D1B05B3F1D66F0FD9636913B9236905
:10AE1000012B0ADD21460122484627F089FE4146E2
:10AE2000044627F0D9FE002867DC049B002B71D173
:10AE30003DE618F0010F04D0D5E90023FDF7ACFC86
:10AE400001234FEA68080835E5E64FF0FF3202FAC1
:10AE500003F303EA0A0AFFE6C6F17F460F9106F5FF
:10AE60007F0606F57B46E23601FA06F30A935DE7B4
:10AE700000230A9301230F9358E732461C99484652
:10AE800027F056FE1C9000287FF47CAF04E600BF3C
:10AE90006036040002FCFFFF5D4640F086800C9A9D
:10AEA000CBF313032AB3B04A934253D1049B5046C9
:10AEB000D3B1AE4A4FF0FF312A40B2F1D46F16D869
:10AEC000120DC2F16B0301FA03F3984242D1A84B71
:10AED0009D4202D101303FF4DFADA44B4FF0000A98
:10AEE0002B4003F5801BA0E74FF0FF33EDE70B4647
:10AEF000EBE77BBBBAF1000F2CD104995B469B4A70
:10AF0000F1B102EA0B01B1F1D66F19DCB1F15C7F4E
:10AF10007FF75BAE0023974A50465946CDE914327D
:10AF2000DDE91423FDF738FC82468B4600297FF4C7
:10AF3000BEAD00287FF4BBAD2223C9F80030B6E5D2
:10AF400013404FF0FF3AA3F580136FEA135B6FEAEB
:10AF50000B5B6AE70A9B93B12B423FF466AF0C9BF5
:10AF60005046049A594673B126F0B3FE02460B468A
:10AF7000DDE90801FDF75AFA82468B4655E70F9B3B
:10AF800013EA0A0FE9E726F0A4FE02460B46DDE9C4
:10AF90000801FDF749FA0022002382468B46FDF79F
:10AFA00063FE00287FF411AE3FE74146204627F0BC
:10AFB000DCFE00224FF0804310EE100A57EC106BBD
:10AFC0003946FDF765FE002877D00C9B002B4AD050
:10AFD0000022694B0026684FCDE90A23634B2B40C2
:10AFE0000F930F9A654B9A4240F0D080A5F1547BA5
:10AFF000DDE90823DDE90A014BEC10ABCDE91423B0
:10B00000CDE90A0123F03AF8DDE90A0153EC102BEF
:10B01000FDF7C2FB52465B46FDF708FA0B46534963
:10B020008246574A194091425BD9099B02F15472FA
:10B03000934203D1089B01333FF42EADDFF830B1CA
:10B040004FF0FF3A1C99484627F0F4FB0599484613
:10B0500027F0F0FB4146484627F0ECFB21464846E6
:10B0600027F0E8FB19E6BAF1000F1AD1CBF313036E
:10B07000EBB90022404B30463946FDF7FFFDC8B919
:10B080003046394600223F4BFDF786FB06460F4609
:10B0900007F1004318961993DDE91823CDE90A2337
:10B0A0009CE7BAF1010F02D1002D3FF48EAD0022D2
:10B0B000354B8FE70026334FEAE7324B30463946AF
:10B0C0000022FDF769FB0C9B06460F4633B901F1E0
:10B0D000004310901193DDE91023DFE7CDE91067FD
:10B0E000F9E703F1547B049B002BABD12BF0004319
:10B0F0000F9A5D461B0D1B059A42A3D13946304677
:10B10000FDF7E4FDFDF7DEFA0B4602463946304610
:10B11000FDF78AF90C9B06460F4633B9BAF1000FCA
:10B1200003D1CBF31305002D6FD0304639460AA367
:10B13000D3E90023FDF7A2FD00287FF4B8AC304628
:10B14000394607A3D3E90023FDF7B6FD00283FF4F5
:10B1500079AFACE4AFF300809535A094FFFFDF3FFB
:10B1600035E5AF350000E03FFFFF0F000000F07F46
:10B17000FFFFEF7F000050390000F03F0000E07F4C
:10B18000FFFF9F7C0000E03F0000F0BF049B33B353
:10B190000F9BB3F1D46F22D83046394626A3D3E9AA
:10B1A0000023FDF775FDA0B139463046FEF796FE47
:10B1B000002808BF0120FDF775FA0C9B06460F46D4
:10B1C00003BB01F1004312901393DDE91223CDE993
:10B1D0000A230B9B0F9A03F1D6639B1A0B93DDE9AD
:10B1E0000AAB9DED080B22F049FF5046594653EC3F
:10B1F000102BFDF7D1FADDE90823FDF717F9824698
:10B200008B4670E7CDE91267DFE70DA3D3E9002392
:10B21000FDF734FD9AE700230D931B9B179A1360EB
:10B22000FFF761BA652B4FF000023FF44DAB0121EF
:10B2300014460491FFF7CBBA0000C0FFFFFFDF41C7
:10B240009535A094FFFFCF3F2DE9F04F456A97B0A9
:10B25000044606910B921293DDF8808057EC106B38
:10B26000CDE900673DB9102021F090FD60620560D6
:10B27000C560C0E90155636A196851B15A68012374
:10B28000204693404A608B6027F0D4FA636A00221C
:10B290001A603B1EB7BF23F0004300230122019335
:10B2A000ACBFC8F80030C8F80020AF4BDDF8048010
:10B2B00033EA080314D142F20F73129A1360009B11
:10B2C00023B9C8F31300002800F03E85219BDFF866
:10B2D000ACB2002B00F040850BF1030300F03ABD47
:10B2E000DDE900670022002330463946FDF7BCFC4B
:10B2F000814668B10123129A1360219B002B00F054
:10B3000020859A4B219A03F1FF3B136000F024BD86
:10B31000C8F30A5514AA15A9204647EC106B27F06C
:10B32000D5FC0490002D7AD0C7F31303B246A5F2E2
:10B33000FF35CDF84C9043F07F5B4BF4401B00226F
:10B340008B4B50465946FDF76FF881A3D3E9002394
:10B35000FDF722FA80A3D3E90023FDF767F806463C
:10B360000F462846FDF7AEF97DA3D3E90023FDF78C
:10B3700013FA02460B4630463946FDF757F80646A3
:10B380000F46FDF7A3FC00228246002330463946D3
:10B39000FDF774FC48B15046FDF794F932463B4640
:10B3A000FDF762FC08B90AF1FF3ABAF1160F57D857
:10B3B000704901EBCA01DDE90023D1E90001FDF785
:10B3C0007BFC00284ED00AF1FF3A00230F93149B18
:10B3D0005D1BB5F1010849BFC5F1010300234FF022
:10B3E0000008059358BF0593BAF1000F3CDB00231A
:10B3F000D044CDF838A00793069B092B00F28E802D
:10B40000052BC5BF043B002501250693069B023B87
:10B41000032B00F28F80DFE803F07D7F3171DDE9DF
:10B4200014531D4405F23240202813DDC0F14000C2
:10B43000009B08FA00F805F2124023FA00F048EAEF
:10B440000000FDF72FF901238246A1F1F87B013DB1
:10B45000139374E7C0F12000009B03FA00F0F0E7BB
:10B460000123B3E70F90B2E7059BA3EB0A03059313
:10B47000CAF10003079300230E93BDE701230A934B
:10B480000B9B002B59DD994602930022666A72607D
:10B49000042202F114007168984253D9204627F023
:10B4A00095F9636AB9F10E0F3060D3F800B000F27D
:10B4B000E880002D00F0E580BAF1000F9DED007BE3
:10B4C0008DED107B76DD0AF00F032A4A4FEA2A162B
:10B4D00002EBC303F00693ED007B8DED087B67D58F
:10B4E000254B06F00F060325D3E90823DDE91001FB
:10B4F000FDF77CFACDE900011F4F4EE001230A93CE
:10B500000B9B534403F1010902934B46012BB8BF37
:10B510000123BAE70023B2E70023F0E70125002367
:10B520000A9506934FF0FF330022029399461223A7
:10B530000B92AAE701230A93F4E7012302939946A9
:10B540001A46F5E7013152007160A2E7AFF30080BF
:10B5500061436F63A787D23FB3C8608B288AC63F19
:10B56000FB799F501344D33F0000F07FD3A7040022
:10B570000000F83FB03604008836040046AE0400F0
:10B58000F10708D50135DDE90801D7E90023FDF70A
:10B5900003F9CDE9080176100837002EF0D1DDE976
:10B5A0000823DDE90001FDF721FACDE900011AE0E9
:10B5B0000225A1E700F0A080CAF100069F4BA04F32
:10B5C000022506F00F02361103EBC203DDE910017C
:10B5D000D3E90023FDF7E0F80023CDE90001002EB8
:10B5E0007FD1002BE1D10F9B002B00F08780002240
:10B5F000944BDDE9006730463946FDF73FFB0028F4
:10B600007CD0B9F1000F79D0029B002B35DD0AF117
:10B61000FF33394600223046089301358A4BFDF747
:10B62000BBF8029FCDE900012846FDF74BF8DDE9A4
:10B630000023FDF7B1F80022844BFCF7F7FE054626
:10B64000A1F15076002F5DD10022814BDDE9000190
:10B65000FCF7EAFE2A463346CDE90001FDF72CFB54
:10B66000002840F087822A4606F10043DDE9000108
:10B67000FDF704FB002840F07B82DDE91023CDE9D3
:10B680000023159B002BC0F24F81BAF10E0F00F37F
:10B690004B816A4B03EBCA0393ED007B0B9B002BA2
:10B6A0008DED027B80F2D880B9F1000F00F3D480D9
:10B6B00040F05D820022664B4F464E4651EC170B20
:10B6C000FDF76AF8DDE90023FDF7ECFA002840F009
:10B6D000338231230BF101050AF1010A8BF80030A6
:10B6E0002EE2F20705D50135D7E90023FDF754F81E
:10B6F00001237610083772E7022574E7CDF820A001
:10B700004F4691E74D4B03EBC70353E902010A9BF8
:10B71000002B47D002460B4600204E49FDF766F944
:10B720002A465D463346FCF77FFECDE90C01DDE994
:10B730000001FDF7CBFA0646FCF7C4FF024630369F
:10B740000B46DDE90001FCF76FFE05F8016BDDE952
:10B750000C23CDE90001FDF791FA002862D1002009
:10B760003849DDE90023FCF75FFEDDE90C23FDF736
:10B7700085FA002840F0B780A5EB0B039F427FF7C6
:10B780007CAF0022304BDDE90C01FDF705F800220B
:10B790002D4BCDE90C01DDE90001FCF7FDFFCDE902
:10B7A0000001C4E72A4633460BEB07055E46FCF76B
:10B7B000F3FFCDE90C01DDE90001FDF787FA07464B
:10B7C000FCF780FF024630370B46DDE90001FCF74D
:10B7D0002BFE06F8017BAE424FF00002CDE90001DE
:10B7E00025D11C4BDDE90C01FCF720FE02460B467F
:10B7F000DDE90001FDF760FA002874D10020154949
:10B80000DDE90C23FCF710FE02460B46DDE90001E2
:10B81000FDF734FA00283FF430AF15F8013C6A1EFA
:10B82000302B02D0DDF820A04BE01546F5E7064BA3
:10B83000FCF7B2FFCDE90001BDE700BFB036040060
:10B84000883604000000F03F0000244000001C4047
:10B85000000014400000E03FDDE900675D4630462F
:10B860003946DDE90223FDF7C1F8FDF72FFA8046DE
:10B87000FCF728FFDDE90223FCF78EFF0246304685
:10B8800008F130060B463946FCF7CEFD05F8016B92
:10B89000A5EB0B0602460B46B14538D1FCF7C6FDB9
:10B8A00006460F46DDE90223FDF706FAC8B9304621
:10B8B0003946DDE90223FDF7D7F910B118F0010F81
:10B8C0000FD10499204626F0B5FF0023129A2B7061
:10B8D0000AF101031360219B002B00F03D821D60E3
:10B8E0003AE2CDF820A015F8012C6B1E392A08D1B8
:10B8F0009B450AD1089B0133089330238BF8003015
:10B900005B461A7801321A708CE71D46EBE700227D
:10B910009A4BFCF741FF0022002306460F46FDF735
:10B92000A3F900289BD0CCE70A9A002A00F08B806C
:10B93000069A012A6EDC139A002A67D003F2334379
:10B94000079F059D059A0121204698441A440592B7
:10B9500027F050F80646002D0CDDB8F1000F09DD88
:10B9600045452B46059AA8BF4346D21AED1AA8EBC7
:10B9700003080592079BEBB10A9B002B67D08FB1A0
:10B9800031463A46204622F02BFB049A01460646F1
:10B99000204627F038F804990890204626F04AFF00
:10B9A000089B0493079BDA1B04D00499204622F0DD
:10B9B00017FB04900121204627F01CF80E9B074638
:10B9C000002B00F0CD811A460146204622F008FBEC
:10B9D000069B0746012B40DC009B002B39D1019BC5
:10B9E000C3F31303002B36D1019B23F000431B0D3F
:10B9F0001B052BB1059B08F10108013305930123B9
:10BA000007930E9B002B2AD1012030E0149BC3F139
:10BA1000360395E7079B09F1FF37BB42B7BF079B8A
:10BA2000DF1B0797FA1ABFBF0E9B00279B180E93C8
:10BA3000B9F1000FB3BF059B4B46059DA3EB09056C
:10BA4000B8BF00237EE7079F059D0A9E83E7079AFC
:10BA5000ABE70023D4E7009BD2E7002307933B69C1
:10BA600007EB8303186926F077FFC0F120004044FC
:10BA700010F01F0047D0C0F12003042B3BDDC0F1C4
:10BA80001C00059B0544034480440593059B002B43
:10BA900005DD1A460499204627F04AF80490B8F1CB
:10BAA000000F05DD39464246204627F041F807469B
:10BAB0000F9B53B33946049827F08EF8002824DAF8
:10BAC00000230A220499204626F0CBFE0A9B0AF1A5
:10BAD000FF3A0490002B00F04A81002331460A22ED
:10BAE000204626F0BEFE029B0646002B4EDC069B3F
:10BAF000022B4BDD11E0C9D01C33059A1A441D44BA
:10BB000098440592C2E70346F6E7B9F1000F37DC27
:10BB1000069B022B34DDCDF80890029B63B93946B1
:10BB20000522204626F09DFE01460746049827F090
:10BB300053F800283FF7CDAD0B9B5D466FEA030A33
:10BB40004FF000093946204626F074FE002E3FF4DF
:10BB5000B8AEB9F1000F05D0B14503D04946204633
:10BB600026F068FE3146204626F064FEA9E600274E
:10BB70003E46E1E7DDF820A03E46AAE5000024406D
:10BB80000A9BCDF80890002B00F0F880002D05DD11
:10BB900031462A46204626F0CBFF0646079B002B5F
:10BBA0004CD07168204626F011FE3269054606F138
:10BBB0000C0102320C30920025F06CFE0122294665
:10BBC000204626F0B5FF009BB1460646CDF814B0DE
:10BBD00003F0010307933946049826F0CCF949464F
:10BBE000054600F13008049826F0F6FF3246009032
:10BBF0003946204627F00AF8C368024603BB0146CF
:10BC00000890049826F0E8FF089A0346114620465B
:10BC1000089326F00FFE089BA3B9069A92B9079ADB
:10BC200082B9B8F1390F29D0009B002B01DD05F155
:10BC30003108059B5D1C83F8008083E73046C2E72E
:10BC40000123E3E7009A002A04DB24D1069A12BB01
:10BC5000079A02BB002BECDD01220499204626F056
:10BC600067FF3946049026F0B7FF002803DCE0D1D7
:10BC700018F0010FDDD0B8F1390FD8D1059B059A26
:10BC80005D1C3923137015F8013C6A1E392B4ED008
:10BC90000133137056E7059A002B02F1010506DD0A
:10BCA000B8F1390FEAD008F10108059BC3E7A5EB0D
:10BCB0000B03029A05F8018C934221D000230A223B
:10BCC0000499204626F0CDFDB14504904FF00003C5
:10BCD0004FF00A024946204605D126F0C2FD8146B2
:10BCE0000646059577E726F0BCFD314681460023E0
:10BCF0000A22204626F0B5FD0646F2E74FF000097D
:10BD000001220499204626F013FF3946049026F0BC
:10BD100063FF0028B7DC02D118F0010FB3D115F88A
:10BD2000013C6A1E302B7FF40DAF1546F7E79345B3
:10BD300005D131230AF1010A8BF8003002E71546DC
:10BD4000A1E7DFF864B007E0219BDFF860B01BB12A
:10BD50000BF10803219A1360584617B0BDE8F08F25
:10BD6000069B012B7FF738AE0E9B07934CE6029B98
:10BD7000002B03DC069B022B3FF7CFAE5D46394616
:10BD8000049826F0F8F800F13008029A05F8018BC3
:10BD9000A5EB0B039A42B1DD00230A220499204649
:10BDA00026F05FFD0490EAE7D2A704003DAE040050
:10BDB00051EC100B2C4A21F00043934200B585B0A2
:10BDC00027DD2A4A934209DD10EE102A0B46FCF7C4
:10BDD0002BFB41EC100B05B05DF804FB684600F04E
:10BDE00047F800F0030001281FD0022830D028B304
:10BDF0009DED021B9DED000B00F066FA10EE100A9F
:10BE000053EC102B03F1004141EC100B05B05DF831
:10BE100004FB00209FED121B00F0BAFF51EC100B49
:10BE200041EC100B05B05DF804FB9DED021B9DED90
:10BE3000000B00F049FA51EC100BCAE701209DED10
:10BE4000021B9DED000B00F0A3FF51EC100BC0E7AF
:10BE500001209DED021B9DED000B00F099FFCDE749
:10BE60000000000000000000FB21E93FFFFFEF7F22
:10BE700053EC102B2DE9F047BF4923F0004790B059
:10BE80008F4240F39380BD491C4682468F4229DC95
:10BE9000002C194610EE100AADA3D3E9002340F39D
:10BEA0009080FCF7C1FAB64B804689469F4200F06D
:10BEB00073810125A8A3D3E90023FCF7B5FA024654
:10BEC0000B4640464946CAE90023FCF7ADFAA2A357
:10BED000D3E90023FCF7A8FACAE90201284610B00A
:10BEE000BDE8F087A7498F4240F38A80A6498F4278
:10BEF00000F320813D1510EE100A1646A5F21645F6
:10BF0000A7EB05510F46FCF7E1FEFCF7DBFB804693
:10BF1000894602460B4630463946CDE90A89FCF788
:10BF200083FA0022994BFCF737FC89468046FCF7E0
:10BF3000CDFEFCF7C7FB06460F4602460B464046C1
:10BF40004946CDE90C67FCF76FFA00228F4BFCF7EE
:10BF500023FC00220023CDE90E01FCF785FE00281A
:10BF600000F065810023304639460022FCF77CFE54
:10BF7000002814BF01230223854902202A4601918B
:10BF8000514600900AA800F0E3FA002C054614DAA6
:10BF9000DAF804204542DAF80C3002F1004203F1ED
:10BFA0000043CAF80420CAF80C3006E00026002737
:10BFB000002580ED000BC0E90267284610B0BDE8FF
:10BFC000F087FCF733FA6E4B804689469F4200F0BB
:10BFD00010814FF0FF3560A3D3E90023FCF726FA68
:10BFE00002460B4640464946CAE90023FCF71CFAC4
:10BFF00059A3D3E90023FCF719FACAE90201DCE7E7
:10C0000022F03AFC10EE100A59EC108B54A3D3E93D
:10C0100000234946FCF7C0FB00225E4BFCF706FA02
:10C02000FCF754FE0546FCF74DFB49A3D3E900237A
:10C03000CDE90601FCF7B0FB02460B4640464946F7
:10C04000FCF7F2F98046894643A3D3E90023DDE9F2
:10C050000601CDE90289FCF79FFB1F2D02460B4626
:10C06000CDE9042340F3B580DDE90423DDE90201D5
:10C07000FCF7DAF9804689463F15C9F30A53FB1AE3
:10C08000102B40F3B38038A3D3E90023DDE9060188
:10C09000FCF782FB8046894602460B46DDE9020139
:10C0A000FCF7C2F902460B46DDE90201CDE908239F
:10C0B000FCF7BAF942464B46FCF7B6F9804689468A
:10C0C0002BA3D3E90023DDE90601FCF765FB42461B
:10C0D0004B46FCF7A9F90B460246CDE90401DDE920
:10C0E0000801FCF7A1F9C1F30A5380468946FF1AFB
:10C0F000312F00F39E809DED087BCAE900898DED0C
:10C10000027B42464B46DDE90201FCF78DF9DDE991
:10C110000423FCF789F9002CCAE90201BFF64DAFF0
:10C1200009F1004401F100436D42CAE90084CAE903
:10C13000020342E710EE100A1946FCF775F90025D4
:10C14000CAE90201CAE9000137E700BFAFF3008086
:10C1500000004054FB21F93F3163621A61B4D03DC5
:10C1600083C8C96D305FE43F0000601A61B4D03D00
:10C170007370032E8A19A33BFB21E93F7BD9024050
:10C18000FB21F93FFB213941FFFFEF7F00007041A8
:10C19000345304000000E03F41A3D3E90023FCF73F
:10C1A00043F90D46044640A3D3E90023FCF73CF9CC
:10C1B00002460B46204629460125CAE90023FCF722
:10C1C00033F939A3D3E90023FCF72EF9CAE90201B8
:10C1D000F3E640464946FCF727F9394B6A1E80468C
:10C1E000894653F82230BB423FF446AFCAE9008982
:10C1F00087E72BA3D3E90023FCF718F90D46044683
:10C2000029A3D3E90023FCF711F902460B46204687
:10C2100029464FF0FF35CAE90023FCF705F922A3B0
:10C22000D3E90023FCF702F9CAE90201C5E60323BA
:10C23000A2E61FA3D3E90023DDE90601FCF7ACFA6F
:10C2400006460F4602460B46DDE90801FCF7ECF80E
:10C250008046894602460B46DDE90801CDE90289A0
:10C26000FCF7E2F832463B46FCF7DEF806460F469E
:10C2700011A3D3E90023DDE90601FCF78DFA32466C
:10C280003B46FCF7D1F802460B4640464946CDE90D
:10C290000423FCF7C9F880468946A7E7AFF300807E
:10C2A0000000601A61B4D03D7370032E8A19A33B5D
:10C2B0000000002E8A19A33BC14920259A837B39AF
:10C2C000B4520400000000002DE9F04F57EC106B51
:10C2D00027F00049B9F1795F2DED028BB0EE418A6C
:10C2E000F0EE618A83B072DA10EE100A3946FCF77C
:10C2F000EDFC002800F0ED8032463B4630463946E2
:10C30000FCF74AFA04460D467BA3D3E90023FCF769
:10C3100043FA7BA3D3E90023FCF788F822462B4697
:10C32000FCF73AFA78A3D3E90023FCF77DF822461C
:10C330002B46FCF731FA76A3D3E90023FCF776F815
:10C3400022462B46FCF728FA73A3D3E90023FCF717
:10C350006BF822462B46FCF71FFA71A3D3E90023A2
:10C36000FCF764F822462B46FCF716FA82468B4609
:10C370000022714B20462946FCF70EFA52468046B1
:10C3800089465B4620462946FCF706FA04460D46D8
:10C390003046394653EC182BFCF7FEF902460B46A3
:10C3A00020462946FCF740F802460B4640464946DF
:10C3B000FCF73AF802460B4600206049FCF734F8D7
:10C3C00041EC100B03B0BDEC028BBDE8F08F10EE1A
:10C3D000102A10EE100A3B463946FCF7DDF90446F8
:10C3E0000D4645A3D3E90023FCF7D6F944A3D3E9CE
:10C3F0000023FCF71BF822462B46FCF7CDF942A39D
:10C40000D3E90023FCF710F822462B46FCF7C4F9C9
:10C410003FA3D3E90023FCF709F822462B46FCF79B
:10C42000BBF93DA3D3E90023FBF7FEFF22462B46D1
:10C43000FCF7B2F93AA3D3E90023FBF7F7FF2B4649
:10C440002246FCF7A9F93E4B82468B4699458FDD83
:10C450003C4B994544DC0022A9F5001300203749E4
:10C4600090469946FBF7E0FFCDE900010022324BF0
:10C4700020462946FCF790F942464B46FBF7D4FF8D
:10C480005246804689465B4620462946FCF784F999
:10C4900004460D463046394653EC182BFCF77CF920
:10C4A00002460B4620462946FBF7BEFF02460B46D6
:10C4B00040464946FBF7B8FF02460B46DDE900015E
:10C4C000FBF7B2FF41EC100B03B0BDEC028BBDE8F3
:10C4D000F08F9FED150B03B0BDEC028BBDE8F08F24
:10C4E0009FED137B4FF00008DFF85C908DED007B33
:10C4F000BCE700BFAFF30080D43888BEE9FAA8BD1E
:10C50000C4B1B4BD9EEE213EAD529C804F7E923EA2
:10C510009015CB19A001FA3E7751C1166CC1563F58
:10C520004C5555555555A53F000000000000F03F03
:10C53000000000000000E73F0000E03F0000F03F87
:10C540003233D33F0000E93F0000D23F000000003B
:10C550002DE9F04FADF5197D1E46BF4C0793D31E54
:10C560000390013E84FB0304DB170B91C3EBA40390
:10C57000BA4DA29823EAE371019655F820004B1CAE
:10C58000099104908F1BA3EB830302EBC303059374
:10C5900083191AD43B440DF18008002400255E1C49
:10C5A000DDF88C9208E059F827000137FCF78AF88B
:10C5B000B742E8E8020108D0002FF4DA013720463C
:10C5C0002946B742E8E80201F6D1049B002B079BFD
:10C5D0004FEAC303029329DB039A20A90DF5E07A01
:10C5E00002EB030801EB030972AA049B02EBC30BE5
:10C5F000019B002BC0F29C814D46039C0026002726
:10C6000075E90223F4E80201FCF7C6F802460B467E
:10C6100030463946FBF70AFF444506460F46EFD140
:10C6200009F10809EAE80267DA45E1D10499DDE990
:10C6300002208B008B4602440BA89246A3F108020D
:10C64000C31808930CAB13440A9398ABBBF1000FCB
:10C6500003EBCB0353E9284529DD70AB0DF130091D
:10C6600003EBCB0800227E4B20462946FCF794F8CA
:10C67000FCF72CFBFCF726F800227A4B06460F4607
:10C68000FCF78AF802460B4620462946FBF7CCFE0B
:10C69000FCF71CFB394649F8040B304678E90223C5
:10C6A000FBF7C4FE70AB04460D469845DAD1DDF8C1
:10C6B000149045EC104B484600F0BEFC00224FF0B1
:10C6C0007F5310EE100A55EC104B2946FCF764F826
:10C6D00041EC100B00F028FC0022634B51EC100BD6
:10C6E000FCF75AF802460B4620462946FBF79CFE0B
:10C6F0000D460446FCF7EAFA8046FBF7E3FF0B46DB
:10C70000024629462046FBF78FFE4B4606460F465B
:10C71000002B40F3E1800BF1FF320CA9C9F11803A3
:10C72000C9F1170551F8221041FA03F000FA03F39A
:10C730008044CB1A0CA943FA05F541F82230002DAC
:10C740002CDDBBF1000F08F1010840F3A3820C9C23
:10C75000002C40F0A780BBF1010F0AD00CA90122E8
:10C7600051F8044F531C002C40F09E809B451A4604
:10C77000F6D1059B002B0EDD012B00F09881022BDA
:10C7800009D10BF1FF320CAB0CA953F82230C3F3E3
:10C79000150341F82230022D00F0AF800022002363
:10C7A00030463946FCF760FA002800F075820BF13C
:10C7B000FF39049B4B4510DC6FF040430CA900226D
:10C7C00008985B4401EB830353F80419834242EA5F
:10C7D0000102F9D1002A40F0B580049B0CAA013B6C
:10C7E00052F82330002B40F0A1800A9A012352F81E
:10C7F000041901330029FAD003EB0B020BF10109F4
:10C800009145069248DC09996FF04048079809EB7A
:10C81000010300EB0B0501EB020B984420AB03EB8B
:10C82000C505A39B03EB880870AB03EBC909A39B69
:10C8300003EB8B03029358F8040F05F1080BFBF789
:10C8400041FF0B46019902460029C5E9002326DB7A
:10C85000039C002600270BE0ABAAAA2A3C54040044
:10C860000000703E000070410000204075E9022386
:10C87000F4E80201FBF790FF02460B4630463946CA
:10C88000FBF7D4FD544506460F46EFD1029B5D46AB
:10C890009845E9E80267CED1DDF818B0D5E6002664
:10C8A0000027F3E701230022C4F180740CA99B4503
:10C8B00041F822400EDD51F8232001EB8B0001EB03
:10C8C00083036FF07F4100E01A688A1A43F8042B53
:10C8D0008342F9D101244CE706D10BF1FF330CAAB6
:10C8E00052F82350ED152AE70022C34BFCF7DAF982
:10C8F000002840F0BB81054650E732463B46002009
:10C90000BE49FBF791FD06460F46002C3FF446AFAB
:10C9100005989FEDB50B00F08FFB3046394653EC80
:10C92000102BFBF781FD06460F4637E7012363E72F
:10C930000026002709F10809EAE80267DA457FF4D2
:10C9400057AE73E6059A0CAB183A53F82930CDE987
:10C95000068505926BB96FF040430CA94B4401EB7F
:10C96000830353F8041909F1FF39183A0029F8D064
:10C97000059205989FED9C0B00F05EFBB9F1000F4E
:10C9800055EC104BC0F2E6810CAA4FEAC9034FF0F8
:10C99000000ADFF86CB202EB890670AA089302EB7A
:10C9A0000308043608F1080756F8040DFBF78AFE61
:10C9B00022462B46FBF7F0FE5B46524667E9020132
:10C9C00020462946FBF7E8FE0CAB04460D469E4286
:10C9D000EAD148AB09F10102CDF81490C3464FF0FB
:10C9E000000ADDF81090039302920193B9F1000F51
:10C9F000C0F24D81DFF80C825D460024002600273E
:10CA00007BA3D3E9002303E0544510DCF8E80223BC
:10CA10000134F5E80201FBF7BFFE02460B46304643
:10CA20003946FBF703FDA14506460F46ECDA019BAC
:10CA30000AF1010AABF1080BE3E802670193029BDC
:10CA40009A45D3D1A29BDDF81490032B28D8DFE8B8
:10CA500013F0F200DD00DD003B00079B0020002109
:10CA6000002B40F055810B9B0246C3E900010B46A9
:10CA70000399D1E90001FBF7D7FCB9F1000F0CDDF8
:10CA80004AAD01240134F5E80223FBF7CFFCA145B0
:10CA9000F8DA079B002B40F04B810B9BC3E90201A6
:10CAA000069B03F007000DF5197DBDE8F08F0BF133
:10CAB000FF320CAB0CA953F82230C3F3160341F834
:10CAC000223068E648AB0393B9F1000F40F355817B
:10CAD000039B4FEAC9016FF06040CDF8109003EB63
:10CAE000C9081A46029109EB000191460191D8E963
:10CAF00000AB78E9026752465B4630463946FBF7A1
:10CB000095FC04460D4602460B4630463946FBF777
:10CB10008BFC52465B46A246FBF788FCC145AB4600
:10CB2000C8E90201C8E90045E3D1DDF81090B9F188
:10CB3000010F40F32281019B0DF5947BDA00DDE9C2
:10CB4000023102F1080A01920B448A44D3E90067DA
:10CB50007AE9028932463B4640464946FBF766FC85
:10CB600004460D4602460B4640464946FBF75CFC30
:10CB700032463B462646FBF759FCD3452F46CAE9C9
:10CB80000201CAE90045E3D1019C0020039B00217A
:10CB9000103403F110051C4474E90223FBF746FC32
:10CBA000A542F9D1039C079ED4E90023D4E90245AC
:10CBB000002E00F0C18003F1004701F100430B9902
:10CBC0002646944605F10044C1E90403069B03F0A0
:10CBD0000700C1E900C7C1E902640DF5197DBDE890
:10CBE000F08F00BFAFF30080000000000000F03FB6
:10CBF00000000040FB21F93F0000E03F0000F03F53
:10CC00000000703E8037040048AB0393B9F1000F79
:10CC1000FFF623AF039D0020002105EBC904083473
:10CC200074E90223FBF702FCA542F9D1079B002B14
:10CC30003FF419AF6CE0089C0020039D00210834EC
:10CC40002C4474E90223FBF7F1FBA542F9D1079BC1
:10CC500013B101F1004319460B9BC3E90001069B88
:10CC600003F007000DF5197DBDE8F08FBBF1000F53
:10CC700008F101084FF002053FF769AD32463B4627
:10CC800000203F49FBF7D0FB06460F4686E500260D
:10CC90000027CCE600246CE5059C47EC106B604255
:10CCA000CDE9068500F0C8F9002210EE100A354BD8
:10CCB00057EC106B3946FBF7F5FF00B31834002230
:10CCC000314B304639460594FBF766FD0BF10109FF
:10CCD000FBF7FCFF0446FBF7F5FC0022294BFBF7B2
:10CCE0005BFD0B46024639463046FBF79DFBFBF7E2
:10CCF000EDFF0CAB43F82B0043F8294039E63046F2
:10CD00003946FBF7E3FF0CABD94643F82B0030E67E
:10CD100001F100430B9C0246C4E900030B46039952
:10CD2000D1E90001FBF780FBB9F1000F3FF7A8AE96
:10CD300001F100431946B0E60B9EC6E90023069BAD
:10CD4000C6E9040103F00700C6E902450DF5197DA7
:10CD5000BDE8F08FA29B032B3FF6A2AE01A252F8D2
:10CD600023F000BF75CD010009CC010009CC010002
:10CD7000C5CA01000020002169E70020002111E759
:10CD80000000F03F000070410000703E0000000015
:10CD90002DE9F04F55EC104B25F000438246B3F1DE
:10CDA000795F2DED028BB0EE418AF0EE618A83B09F
:10CDB00007DA10EE100A2946FBF788FF002800F07A
:10CDC0008E8022462B4620462946FBF7E5FC064688
:10CDD0000F4602460B4620462946FBF7DDFC8046FF
:10CDE00089463046394645A3D3E90023FBF7D4FCF6
:10CDF00044A3D3E90023FBF717FB32463B46FBF77E
:10CE0000CBFC42A3D3E90023FBF710FB32463B46A1
:10CE1000FBF7C2FC3FA3D3E90023FBF705FB324637
:10CE20003B46FBF7B9FC3DA3D3E90023FBF7FEFA31
:10CE3000CDE90001BAF1000F37D000222E4B51ECA2
:10CE4000180BFBF7A9FC82468B4640464946DDE9B4
:10CE50000023FBF7A1FC02460B4650465946FBF760
:10CE6000E3FA32463B46FBF797FC53EC182BFBF7F3
:10CE7000DBFA06460F46404649461DA3D3E9002388
:10CE8000FBF78AFC02460B4630463946FBF7CEFAE2
:10CE900002460B4620462946FBF7C6FA41EC100B2A
:10CEA00003B0BDEC028BBDE8F08F02460B46304666
:10CEB0003946FBF771FC0EA3D3E90023FBF7B4FA64
:10CEC00042464B46FBF768FC22462B46FBF7AEFA80
:10CED00041EC100B03B0BDEC028BBDE8F08F45ECCC
:10CEE000104B03B0BDEC028BBDE8F08FAFF30080B8
:10CEF000495555555555C53F0000E03F7CD5CF5AA3
:10CF00003AD9E53DEB9C2B8AE6E55A3E7DFEB157CA
:10CF1000E31DC73ED561C119A0012A3FA6F8101133
:10CF20001111813F0000000051EC100BC1F30A53B6
:10CF30002DE9F041A3F2FF350C4610EE106A0F46C2
:10CF4000132D1DDC002D3DDB394B43FA05F801EABA
:10CF50000803034319D034A3D3E90023FBF766FA8F
:10CF600000220023FBF7A8FED0B3002C04DA4FF414
:10CF7000801343FA05F52F4427EA080400262FE022
:10CF8000332D06DDB5F5806F30D041EC100BBDE8D8
:10CF9000F081A3F213434FF0FF3828FA03F818EAA0
:10CFA000000FF2D020A3D3E90023FBF73FFA0022C1
:10CFB0000023FBF781FE98B1002C28DB26EA080647
:10CFC0003C460DE018A3D3E90023FBF72FFA00221B
:10CFD0000023FBF771FE18B1002C0FDB002634464E
:10CFE0002346324643EC102BBDE8F08110EE102AA8
:10CFF0000B46FBF71BFA41EC100BC8E724F000438B
:10D000000C4A33430026B34218BF1446E8E7142DF8
:10D0100008D00123C5F1340503FA05F5AE1928BF80
:10D02000FF18CBE70137C9E79C7500883CE4377EE1
:10D03000FFFF0F000000F0BF38B553EC102BC3F317
:10D040000A511C46054619BB23F0004410EE101A85
:10D0500021431CD0384C19460022384B10EE100AE0
:10D06000FBF79AFBA54202460B4634DB0C46C1F3A4
:10D070000A513639294440F2FE70814233DC0029DE
:10D0800012DD2F48204040EA015343EC102B38BDFD
:10D0900040F2FF708142EDD110EE100A1946FBF705
:10D0A000C5F941EC100B38BD11F1350F1EDA4CF209
:10D0B00050318D4243EC112B26DD9FED1B0B21F0EF
:10D0C000E5FB19A3D3E9002351EC100BFBF764FB3C
:10D0D00041EC100B38BD16A3D3E90023FBF75CFB32
:10D0E00041EC100B38BD43EC112BE6E71448363108
:10D0F000204040EA0153104600221946114BFBF72D
:10D100004BFB41EC100B38BD9FED090B21F0BEFB32
:10D1100007A3D3E9002351EC100BFBF73DFB41ECD7
:10D12000100B38BDAFF300809C7500883CE4377E5F
:10D1300059F3F8C21F6EA501B03CFFFF0000504339
:10D14000FFFF0F800000903C0A46014601481EF098
:10D1500007BC00BF48A2022008B50F4821F0B6FB6B
:10D1600020B9BDE808400D4822F026B801F048F982
:10D1700030B10B4822F020F8BDE8084001F05EB95C
:10D18000084822F019F801F07DF9BDE808404FF495
:10D190007A7001F063B900BF8C380220E7560400B2
:10D1A0000F5704001D570400014600F10803D3E89F
:10D1B000EF2F42F00100C3E8EC0FBCF1000FF6D1F5
:10D1C000D30702D4014824F0EBB9704748A20220EB
:10D1D000034BFF28188002D00248FFF7E5BF7047D5
:10D1E0007C1403208038022070B50446042021F00E
:10D1F000A4FB064648B9194821F068FB28B1184A33
:10D2000013680133022B01D8136070BD082016602B
:10D2100000F0C2FD636820465B689847114D636863
:10D2200031462A469B68204698470F4B05F1080275
:10D230005A6095F85B2000209A60DA68013208BFD6
:10D240000122DA6001F0E6F80848FFF7ADFFBDE81B
:10D25000704000210648FFF777BF00BF8C380220DE
:10D2600038380220000002204C380220BC3802204E
:10D270009038022010B50446B8B901F0C1F828B1C1
:10D280000D4821F099FF204602F0C8FA0B4821F022
:10D2900093FF0CF033F9014610B1094821F08CFFDF
:10D2A000084821F089FF23F0CDF901F063FEBDE8C5
:10D2B0001040002002F0B2BAFD55040005560400EB
:10D2C0001A5604003756040008B501F053FE04480E
:10D2D00021F072FF01F04EFE002002F09FFA00BF25
:10D2E000CA56040010B5044686B0182200216846CC
:10D2F00024F0EEFA237817480C2B04BF01238DF895
:10D300000C3021F0E3FAF8B101F070F8E0B92378BD
:10D3100069460C2B204619D000F00CFE18B10146CE
:10D320000D4821F049FF0D4B6946186821F0C5FAF8
:10D330000446009824F0FFF834B10948214621F052
:10D340003BFF204621F0CAFA06B010BD00F054FEA3
:10D35000E4E700BF8C3802200C5B04000838022090
:10D360002D5B0400F0B523488BB021F0AFFA30B14B
:10D3700005F0E6FA074620B91F4821F01DFF0BB063
:10D38000F0BD1E4806F0A8FF011E25DA1C4821F05A
:10D3900013FF00261B4C05AD0FCC0FC554F8043B02
:10D3A00003AA2B60012394E8030082E803000093A2
:10D3B00001970223052105A800F03AFF98B901362C
:10D3C000114B1148DA68C3E90176013208BF012226
:10D3D000DA60FFF787FFD2E73946084807F0FEF822
:10D3E00020EAE076D6E7002EEAD1384605F0E2F9E9
:10D3F000C5E700BF8C380220B6550400C0000220EB
:10D40000D655040038360400880C032010B5A0B0AF
:10D4100080220021684624F05BFA134821F056FA76
:10D4200000B324F099F9114C2268801A4EF65F225D
:10D43000904217D90E4A6846118853880D4ACB1A74
:10D44000802120F033FA0C4BDA689860013208BF73
:10D4500001220948C3F804D0DA60FFF743FF24F043
:10D460007BF9206020B010BD8C380220D838022013
:10D470007C14032041870400C83802200148FFF7CC
:10D4800031BF00BF3C3802200148FFF72BBF00BF6F
:10D490004C38022070B588B06B464A4D83E80300D3
:10D4A0002B689DF80010019A002B54D0464C474E33
:10D4B0002368306883420ADA012A2FD139B903215F
:10D4C0005A1C2260424A4348D15421F075FE246818
:10D4D00033689C4220D1102200210DEB020024F081
:10D4E000F7F93B4BCDE9023403238DF814300023C8
:10D4F000D5E8EF2FC5E8E13F0029F9D1364B02A965
:10D50000186821F0DAF9044630B10146334821F0B9
:10D5100053FE204621F0E2F908B070BD022A08D17E
:10D520000029D4D104215A1C2260294A2C48D15404
:10D53000CBE7032A06D101215A1C2260244A29483C
:10D54000D154C2E7042AC2D102215A1C2260204AC7
:10D550002548D154B9E7032A27D1244821F0B6F948
:10D560000028D9D0214821F0B1F90028D4D0204C8E
:10D570002046FCF7E5FC0028CED11E4B227E197810
:10D580009142C9D0012A06D0022AC5D11A481B49A6
:10D5900048600B2003E01A4818494860062088605C
:10D5A00018481A70FFF700FEB6E7012AB4D129B96E
:10D5B00041F288311448FFF7C7FDADE712481EF06D
:10D5C00059FAA9E77C3802200038022004380220EA
:10D5D00036A30220E45B0400083802200C5C04003F
:10D5E000EE5B0400F85B0400025C04008C3802204F
:10D5F0003809022035A30220425C04003C38022096
:10D600003B5C0400B03802205C38022010B58AB0C0
:10D610001822002104A824F05BF9394821F056F9BA
:10D6200038B100F0E3FE30B144F620613548FFF731
:10D630008BFD0AB010BD684600F0A8FF80B16846B7
:10D6400000F0FCFF28B3684601F050F8002832D003
:10D65000684621F0BAF900283FD047F23051E5E79B
:10D6600004A9684600F096FD0028E8D1264B04A9DD
:10D67000186821F022F90446049823F05CFF002C7E
:10D68000DDD02146214821F097FD204621F026F9E2
:10D69000CFE704A9684600F07DFD0028D3D11A4BDE
:10D6A00004A9186821F009F90446049823F043FFFF
:10D6B000002CC8D0E5E704A9684600F06BFD0028FF
:10D6C000C6D1114B04A9186821F0F7F80446049854
:10D6D00023F031FF002CBBD0D3E704A9684600F04B
:10D6E00059FD0028B9D1084B04A9186821F0E5F8C4
:10D6F0000446049823F01FFF002CAED0C1E700BF02
:10D700008C38022090380220083802202D5B04005B
:10D71000012208B51D4BD3E8EF1FC3E8E02F002816
:10D72000F9D11B481BF0FCFC08BB1949194821F032
:10D7300043FD00F0EDFE014610B1174821F03CFD1D
:10D7400006F02AFD0146A8B1144821F035FD144821
:10D75000FFF72AFD134800F0A3FE0122124B41F20D
:10D7600088311A701148BDE80840FFF7EDBC00F0A1
:10D77000B5FADEE70E4806F05FFD0B220D4B0E48B2
:10D780001A700122DA6006F0D3FCE0E78C38022040
:10D790004A5B0400555B04006E5B04009C5B040064
:10D7A0002C380220E9D101003C38022090380220B8
:10D7B000C0000220C8380220D1D1010010B5284C89
:10D7C00022781AB9274B1B68002B11DD264821F05F
:10D7D000F3FC264821F0F0FC254821F0EDFC25481B
:10D7E00021F0EAFC244821F0E7FC244821F0E4FC85
:10D7F0002378002B32D0224C224821F0DDFC206817
:10D8000040B3036833B3DB6823B3984710BB1E48AB
:10D8100021F0D2FC206821F047F8F8B11B4821F034
:10D82000CBFC1B4821F0C8FC1A4821F0C5FC0BF0CA
:10D8300065FE88B1184821F0BFFC184821F0BCFCF7
:10D8400001F098FB012001F0E9FFBDE81040144809
:10D8500021F0B2BC1348E2E71348ECE710BD00BF6B
:10D8600034A3022000380220365904005459040021
:10D870007D590400A6590400D2590400FA59040045
:10D88000083802200C5A04002D5A0400475A04009C
:10D89000725A0400915A0400AC5A0400DD5A040084
:10D8A000EB5A04005C5A0400C65A040070B50C46DA
:10D8B000097808296CD8DFE801F0051C102126281A
:10D8C000305C6300354821F077FC35481EF0D2F813
:10D8D0000820BDE8704000F05FBA324821F06CFCCF
:10D8E000082000F059FA21F0E8FCBDE87040FFF78D
:10D8F0000FBF2D4821F060FC0020EAE72B48BDE86F
:10D90000704021F059BC2A48F9E72A4821F054FC1C
:10D910006068BDE8704000F005BC274821F04CFC71
:10D920002379E3B9254D284620F0D0FF064600288C
:10D9300033D14FF4406000F02FFA0123D5E8EF2FE8
:10D94000C5E8E13F0029F9D11D4B1E481E60A368C0
:10D950001A781D4B1A6021F02FFC1C48CFE7012BD1
:10D960001BD11B4A4FF44060137000F015FA1948A0
:10D97000C5E7194821F020FCBDE87040FFF71EBF45
:10D98000164821F019FCBDE87040012001F046BFA7
:10D990001348BDE8704021F00FBC70BD6654040010
:10D9A0000C3802207B5404008C540400A45404005E
:10D9B000B5540400CA540400E35404007C38022027
:10D9C00000380220FB5404000438022026550400CD
:10D9D00034A30220465504006E550400835504000C
:10D9E0009855040008B504F0D3FF0E4B0146984249
:10D9F00006DC013B98420EDAB0F1886F0FDC08BDFF
:10DA0000094B9842FBD1094821F0D6FBBDE80840FC
:10DA1000012001F003BF064821F0CEFBF6E70548E0
:10DA2000FAE700BF04004004010050054756040017
:10DA30006F5604009D5604002DE9F7437F4821F0FE
:10DA4000BBFBFFF7CFFF7E4806F028FE7D4D286028
:10DA500070B97D494FF48D637C4A7D4821F0ACFB61
:10DA60007C4821F0A9FB4FF48D61784821F0B1FB8F
:10DA70002868002800F0A4800368002B00F0A08034
:10DA80001B68002B00F09C8073499847044630B116
:10DA90007248214621F090FB204620F01FFF70487D
:10DAA00000F080F96F4800F06FFB044630B101468A
:10DAB0006D4821F081FB204620F010FF00246B4BC5
:10DAC0006B4A1C60C3E901246A4B6B4A6B496C4882
:10DAD000C3E901241C6023F033FE6A496A4823F03D
:10DAE0002FFE6A496A4823F02BFE6A4B6A4A1C6083
:10DAF000C3E90124694B6A4A6A481C60C3E90124EE
:10DB000021F05AFB684821F057FB4FF4806000F089
:10DB100043F923F0D5FC38B1644821F04DFB01F006
:10DB200029FA204601F07AFE614821F045FB4FF4C6
:10DB3000806000F031F9286820F0B6FE0446002825
:10DB400041D001465B4821F037FB204620F0C6FE5D
:10DB50000023ADF806302B68574E5B6837469B684C
:10DB6000564C00930123ADF8043033684BB9544947
:10DB700037484D23224621F01FFB4D21204621F03E
:10DB800028FB3B689B694BB94E4931484E232246DE
:10DB900021F012FB4E21204621F01BFB3B684A4A34
:10DBA0009B69012168469847B0F1000811DA4146A7
:10DBB000464821F001FB41460020FFF75BFBD4E71C
:10DBC0006FF0850464E747F230513148FFF7BCFA43
:10DBD000BEE70AD128680028C7D00368002BC4D04C
:10DBE0005B69002BC1D09847BFE7BDF80630DA0764
:10DBF00006D5286820B1036813B19B6903B1984723
:10DC0000BDF8063013F020090AD0314821F0D4FACB
:10DC10006FF004010020FFF72DFB03B0BDE8F08397
:10DC200013F0100801D02B48F0E71B079DD52A48B8
:10DC300021F0C2FA6FF004014046ECE72B570400D4
:10DC400042570400083802205A5704004C57040079
:10DC50007757040094570400ADD80100B257040070
:10DC600095D40100E5E80300E5570400BC38022024
:10DC700089D40100B03802207DD401000DD6010006
:10DC80009038022059D101005C380220D3E803000B
:10DC90000C3802202C38022065D301008038022085
:10DCA0000DD4010020580400116004003C58040009
:10DCB000605804004C540400783902207A5804005B
:10DCC000B6580400C1580400801A0600D258040057
:10DCD000F0580400085904001F590400014B186053
