:10C000006865022011DB000085A50100F5D700005E
:10C01000F5D70000F5D70000F5D70000F5D70000F0
:10C02000F5D70000F5D70000F5D70000BDD7000018
:10C03000F5D70000F5D700000DD7000067A5010077
:10C0400011D8000011D8000011D8000011D800004C
:10C0500011D8000011D8000011D8000011D800003C
:10C0600011D8000011D8000011D8000011D800002C
:10C0700011D8000011D8000011D8000011D800001C
:10C0800011D8000011D8000011D8000011D800000C
:10C0900011D8000011D8000011D8000011D80000FC
:10C0A00011D8000011D8000011D8000011D80000EC
:10C0B00075F60000ADAD010011D8000011D80000E8
:10C0C00011D8000011D8000011D8000011D80000CC
:10C0D00011D8000011D8000011D8000011D80000BC
:10C0E00011D8000011D80000CBAD010011D800001C
:10C0F00011D8000011D8000011D8000011D800009C
:10C1000011D8000011D8000011D8000011D800008B
:10C1100011D8000011D8000011D8000011D800007B
:10C1200011D8000011D8000011D8000011D800006B
:10C1300011D8000011D8000011D8000011D800005B
:10C1400011D8000000000000000000000000000006
:10C1500000000000000000000000000000000000DF
:10C1600000000000000000000000000000000000CF
:10C1700000000000000000000000000000000000BF
:10C1800000000000000000000000000000000000AF
:10C19000000000000000000000000000000000009F
:10C1A000000000000000000000000000000000008F
:10C1B000000000000000000000000000000000007F
:10C1C000000000000000000000000000000000006F
:10C1D000000000000000000000000000000000005F
:10C1E000000000000000000000000000000000004F
:10C1F000000000000000000000000000000000003F
:10C20000DEE61E284CBBCE8F025B00003C00000027
:10C21000D51501000100000000C0000000C00000B2
:10C22000FFFF02910000000000000000000000007D
:0CC2300000000000000000000000000002
:10C23C0053B94AB9002908BF00281CBF4FF0FF3181
:10C24C004FF0FF3000F070B9ADF1080C6DE904CE81
:10C25C0000F006F8DDF804E0DDE9022304B07047D5
:10C26C002DE9F04F099E04468946002B40F083804F
:10C27C008A42154645D9B2FA82F24AB1C2F1200778
:10C28C0001FA02F39540944020FA07F747EA0309B4
:10C29C004FEA154E230C1FFA85F8B9FBFEFC0EFB7A
:10C2AC001C990CFB08F143EA094399420AD9EB1893
:10C2BC002CBF01200020994202D9002800F01D81DA
:10C2CC000CF1FF3C591AA3B2B1FBFEF00EFB10119E
:10C2DC0000FB08F843EA0144A04505D92C1902D209
:10C2EC00A04500F20E810138A4EB080440EA0C4092
:10C2FC0000271EB1D4400023C6E900433946BDE8EF
:10C30C00F08F002A51D0B2FA82F2002A40F0AF80AE
:10C31C00491B4FEA154E1FFA85F80127230CB1FB78
:10C32C00FEFC0EFB1C1108FB0CF043EA0143984287
:10C33C000AD9EB182CBF01210021984202D90029FF
:10C34C0000F0D7800CF1FF3C191AA3B2B1FBFEF040
:10C35C000EFB101108FB00F843EA0144A04505D977
:10C36C002C1902D2A04500F2C1800138A4EB0804BC
:10C37C0040EA0C40BDE78B4208D9002E74D0002750
:10C38C00C6E9000138463946BDE8F08FB3FA83F7A9
:10C39C0067B98B42C0F0A480824240F2A18038463B
:10C3AC00002EABD0C6E90049A8E7FFDEC7F1200597
:10C3BC00BB4002FA07FC01FA07F4EA4020FA05F840
:10C3CC00E94000FA07FE1A4348EA04044FEA12480F
:10C3DC00200C1FFA82F9B1FBF8FA08FB1A110AFBC0
:10C3EC0009FB40EA01418B450AD951182CBF0123A6
:10C3FC0000238B4502D9002B00F088800AF1FF3A0C
:10C40C00A1EB0B01A4B2B1FBF8F008FB101100FB7F
:10C41C0009F944EA0141894504D9511801D28945E9
:10C42C007BD8013840EA0A40A1EB0901A0FB0C893A
:10C43C00494544464B4602D306D1C64504D2013881
:10C44C00B8EB0C0469EB0203002E5DD0BEEB0402CA
:10C45C0061EB030101FA05F522FA07F3F940002715
:10C46C001D43C6E9005149E73746304646E7C2F15D
:10C47C002000954001FA02F721FA00F34FEA154E1D
:10C48C0024FA00F11FFA85F894403943B3FBFEF00F
:10C49C000F0C0EFB103300FB08FC47EA03439C45D2
:10C4AC0007D9EB182CBF012700279C4500D98FB367
:10C4BC000138A3EB0C0389B2B3FBFEF70EFB173369
:10C4CC0007FB08FC41EA03418C4504D9691801D2E9
:10C4DC008C4525D8013FA1EB0C0147EA00471DE72D
:10C4EC00841A61EB03030120994659E702382C4466
:10C4FC003CE7ACF1020C2B4426E7ACF1020C2B44CC
:10C50C00E0E602382C44EFE63746F7E6AAF1020AD9
:10C51C00114475E702382B44CBE70238114481E70C
:10C52C00023F2944D7E700BF704700BF00232DE925
:10C53C00F34104468DF8073043685B6C03B19847B0
:10C54C0063685B6B2BB963685B6A6BBB02B0BDE85D
:10C55C00F081204698470028F5D02C4D2C4B2D4FC0
:10C56C00ED1ADFF8B880C5F3C90563689B69002B29
:10C57C00E9D001220DF10701204698470028E2D0AE
:10C58C0026F03F0343F0030363F3070665F38F16AE
:10C59C0032469DF8071038460DF09BFCD8F8003059
:10C5AC000133C8F80030E0E7204698470028CDD08A
:10C5BC00002119480FF068F8064600BB20460DF024
:10C5CC00BDF8C3E75B69C3B1291D521B314420463A
:10C5DC0098470544ADB2B6F804246368AA42F1D872
:10C5EC0063681B6B6BB90C4B1B6813B920460DF0C1
:10C5FC00A5F830460FF02FF8A8E71846E9E7002514
:10C60C00E9E7204698470028EAD0ECE704C001008F
:10C61C0004C00100C2C50100FC81022008000220F8
:10C62C0003234FF0000170B563F30701154C164B53
:10C63C001648E41AC4F3C90464F38F110DF03CFCE2
:10C64C0013480BF0ADFE134D0146286058B94FF05E
:10C65C000002032363F3070264F38F120E48BDE854
:10C66C0070400DF036BC436823B19B6C13B102468D
:10C67C000A499847286843689B6A13B1BDE8704023
:10C68C00184770BD04C0010004C0010094C501002E
:10C69C009EC501000C000220A5C5010039C5000093
:10C6AC000B6801330B60014B1B681847A87A0220FA
:10C6BC002DE9F04F85B00E9C9B46012CB8BF012490
:10C6CC00012B0CBF302320231646824688460125B9
:10C6DC000A270022DFF86C900293B6FBF9F3019362
:10C6EC000AB9B1451CD8019B414603F13000D04733
:10C6FC0001220135019B013F09FB13660A23012F1F
:10C70C00B9FBF3F9E9D1414606F13000D047BBF152
:10C71C00030F02D1641B002C0EDC05B0BDE8F08FBA
:10C72C00BC42E7DBBBF1020FE4D84146029803920E
:10C73C000135D047039ADDE741462020D047013C24
:10C74C00E9E700BF00CA9A3B002307B502460193F4
:10C75C0003480B4601A90DF0C7F903B05DF804FBC3
:10C76C00ADC600004FF02002EFF3118382F3118865
:10C77C00BFF36F8F0121044AC2F8401583F311886F
:10C78C00BFF36F8F002070470090034020B1034B24
:10C79C00800143F001031847704700BFA0C001009F
:10C7AC0030B5002287B00D490D480FF03EF900243A
:10C7BC000E230C4DCDE90243CDE90444CDE90044F0
:10C7CC00094B4FF44072094928460CF03FFD0849CB
:10C7DC0028460FF0C4F8204607B030BD01C8000051
:10C7EC00240002206C000220C1CB00006852022001
:10C7FC00DBC5010001480CF083BC00BFAC810220FA
:10C80C0008B500F033FA09480DF013FB0423342269
:10C81C00074908480EF0F0FE074B084A4FF4004059
:10C82C001A60BDE8084000F061BC00BF1C0002208B
:10C83C00A8720220500002205C7B02207D9E010029
:10C84C00F8B500250C4BD3E8EF7FC3E8E25F002A74
:10C85C00F9D10A4C0A4E361B3611B54200DBF8BD35
:10C86C0063685B792BB12368DB6813B139462046CA
:10C87C00984701351034F0E71400022064C0010021
:10C88C0074C00100044BD3E8EF2F0132C3E8E12F51
:10C89C000029F8D1704700BF14000220044A054B50
:10C8AC009B1AB1EBD30F34BF52F831000020704704
:10C8BC0004C0010064C00100094B4268C31A1B117B
:10C8CC00013310B5137101224368064C5A7122785A
:10C8DC00196012B904480CF013FC0123237010BD2D
:10C8EC0064C00100D24C0220AC81022070B50F4B09
:10C8FC00D3E8EF5F6A1CC3E8E12F0029F8D12DB90A
:10C90C000B4C0C4E361B3611B54200DB70BD237B35
:10C91C0043B123685B6903B1984704220021204688
:10C92C00FFF7CAFF01351034EEE700BF18000220F4
:10C93C0064C0010074C00100144B37B59842044622
:10C94C0002D3134B98421BD3002201A911480BF0C0
:10C95C00C7FE0546B8B90122019BD3E8EF1FC3E817
:10C96C00E02F0028F9D1019821462D2204300DF03A
:10C97C0001FF7E23019C84F8313084F8325004345A
:10C98C00204603B030BD044CFAE700BFA8BC010040
:10C99C00E0CD010050000220E3C5010048B1054B79
:10C9AC00984205D3D03398422CBF00200120704709
:10C9BC0000207047A87202202DE9F84F444B054621
:10C9CC001B7803B940B34FF02003EFF3118683F3C8
:10C9DC001188BFF36F8F3F480DF03BFA044686F386
:10C9EC001188BFF36F8F58B13B4BD3E8EF2F013A4F
:10C9FC00C3E8E12F0029F8D18DB120460DF036FBAC
:10CA0C0025B9364B1B680BB1FFF71AFF31480DF0F7
:10CA1C001EFA051C18BF01252846BDE8F88F304BBF
:10CA2C001B78ABB9237ADB0712D40DF02EFB8146B1
:10CA3C0020460DF0FBFA014648460DF01DFA07465C
:10CA4C00284B294ADFF8B8B09B1AC3F3C90A37B987
:10CA5C00264E274F4FF00008BF1B3F1134E0B7FAAA
:10CA6C0087F6C6F11F06314620460DF0E2FA214B3F
:10CA7C000246984202D3204B984214D31046FFF73B
:10CA8C008DFF80B91D4B9A420DD028F03F0343F027
:10CA9C00010363F307086AF38F1843464A4631468D
:10CAAC0058460DF02AFA012303FA06F627EA060780
:10CABC00CDE773685B7923B1336821461B68304638
:10CACC00984708F101081036B845F2DB95E700BF2E
:10CADC00D24C02201C000220100002201400022064
:10CAEC00D34C02202CC0010004C0010064C0010022
:10CAFC0074C00100A8BC0100E0CD0100E3C5010039
:10CB0C0001C60100244B70B51B684181054698474E
:10CB1C00224CE860D4E8EF3F0133C4E8E23F002A3E
:10CB2C00F8D14FF02003EFF3118683F31188BFF394
:10CB3C006F8F1B4829460DF080F986F31188BFF3DF
:10CB4C006F8F184B1A787AB14FF02003EFF31184E2
:10CB5C0083F31188BFF36F8F0020FFF72DFF84F351
:10CB6C001188BFF36F8F70BD0F49236809680029C6
:10CB7C00F9D0012B06D1BDE870404FF47A710B4807
:10CB8C000CF046BD0A2BEED108480EF05AFFBDE85A
:10CB9C00704007480CF0B4BA5C7B022010000220F5
:10CBAC001C000220D34C02201C0102202400022075
:10CBBC00AC81022008B5FFF799FE0CF09BFA0B4BE9
:10CBCC00186030B10A4B1B68092B02DD09480CF0C8
:10CBDC0097FA084C0020FFF7EFFE0028FAD14FF02F
:10CBEC00FF3120460CF0B8FAF4E700BF1C0102201C
:10CBFC0010000220AC810220F8B50E4F3D7875B9BB
:10CC0C00FFF774FE0C4C0D4E361B3611B54207DB8C
:10CC1C000020FFF7D1FE0028FAD101233B70F8BDAC
:10CC2C0063685B791BB1236820461B699847013503
:10CC3C001034EBE7D34C022064C0010074C0010037
:10CC4C0007B504380190D0E8EF3F5A1EC0E8E12F39
:10CC5C000029F8D1012B03D101A903480BF06CFD7D
:10CC6C0003B05DF804FB00BF5000022020230249F2
:10CC7C001A4602480EF0C0BC787302202001022034
:10CC8C00002337B5094D01930120FFF795FE0446AB
:10CC9C00FFF7F8FD002201A928460BF021FD08B191
:10CCAC00002CF1D1019803B030BD00BF200102204F
:10CCBC0007B5002201A9064801920BF011FD10B135
:10CCCC00FFF7DEFF0190019803B05DF804FB00BF95
:10CCDC0020010220F0B5047A467A85B014F00104E4
:10CCEC0001904FEA16160ED0019B1A7A920704D5C2
:10CCFC005B69184C0393039B2BBB01A915480BF0E4
:10CD0C001BFD05B0F0BD002EEED0254617E02946E0
:10CD1C000DF08FF90746FFF741FE78B13CB9019B46
:10CD2C00314618690DF0A8F804460028DCD024FA26
:10CD3C0005F3DB0702D53846FFF782FF0135AE421B
:10CD4C000198E4D8D0E71D6803A920460BF0F4FC49
:10CD5C000395D0E7200102200EB403B503AB53F8C2
:10CD6C00042B0146044801930CF0BEFE002002B0D7
:10CD7C005DF804EB03B070473FA401002DE9F04FC0
:10CD8C0011F0020485B0064690469DF8387001F00B
:10CD9C00010901F0080507D011F0440F37D11A46EC
:10CDAC003249FFF7D9FF0446B9F1000F0AD0304BD6
:10CDBC00304953F82720304B3046002A08BF1A461A
:10CDCC00FFF7CAFF3DB12D4B2D4953F827203046B4
:10CDDC00FFF7C2FF0546B8F1000F44D0012303FA58
:10CDEC0007F7284B17F0100F274F18BF1F46BDF839
:10CDFC0040109DF83C00FFF751FD39460246304685
:10CE0C00FFF7AAFF2844204405B0BDE8F08F1F4A65
:10CE1C00116831B31E4A4FF4616E14684FF47A7C7A
:10CE2C00B3FBF4F3B3FBF1F4B4FBFEF20EFB124EC6
:10CE3C0001FB14340CFB04F4B4FBF1FB4FF03C0A83
:10CE4C0001FB1B440CFB04F4BEFBFAF3B4FBF1F145
:10CE5C00CDE901B10AFB13E100910E49FFF77CFF0C
:10CE6C00A1E708469FE7084FC1E700BF7EC6010057
:10CE7C00A8C00100A3C6010070C60100BCC001001F
:10CE8C00A6C601007AC6010075C601003C0102204D
:10CE9C004001022087C6010038B50C46E107054663
:10CEAC0003D5084A0849FFF757FFE20608D4A30642
:10CEBC002846BDE838404CBF04490549FFF74CBF34
:10CECC0038BD00BF70C60100A3C60100F7CC01003D
:10CEDC00F6CC01002DE9F0479846089B0446DD0688
:10CEEC000E46174605D499064CBF29492949FFF728
:10CEFC0033FF0025DFF8A49045452ADB0025DFF839
:10CF0C00A080DFF8A090DFF894A0BD422ED2725D15
:10CF1C0049462046FFF720FF0135102D1FD11E4931
:10CF2C002046FFF719FF0025DFF87080DFF87890B6
:10CF3C00AF4227D9725D4946A2F120035F2B28BF6F
:10CF4C002E222046FFF708FF0135102D13D1BDE826
:10CF5C00F08749462046FFF7FFFE0135CCE76A070C
:10CF6C00D3D151462046FFF7F7FECEE74146204687
:10CF7C00FFF7F2FED0E76B07DAD141462046FFF708
:10CF8C00EBFED5E741462046FFF7E6FEDCE700BFA7
:10CF9C00F7CC0100F6CC010041C601003FC60100F0
:10CFAC003DC6010037C6010043C601002DE9F0471C
:10CFBC008B7A174613F007048AB005460E460A7A98
:10CFCC001CD0D2434989C3F3C20389090291CDE92C
:10CFDC00004302F00102F3683946FFF7CFFE8146A9
:10CFEC00337ADA070CD4294630460DF0B8F84CB336
:10CFFC00224639462846FFF74FFF23E0A146EFE7CC
:10D00C0034BB2746EB6806AA0693A9683B46304614
:10D01C000DF091F8069A6B681A603AB1AB6813443C
:10D02C0013F8014CA4F10A035C425C4128460DF054
:10D03C00F3F9069B1F44002BE4D11CB1144928467C
:10D04C00FFF78AFE28460DF0E7F90AB0BDE8F08735
:10D05C0030460DF01AF80F4902462846FFF77CFEC1
:10D06C004FF000084FF0100A05AA434606A93046B7
:10D07C00CDF814A00DF05FF8059A002AB8D04B46F5
:10D08C00009706A92846FFF725FF059B9844EBE778
:10D09C0046C60100A3C6010073B5D0E900435D6824
:10D0AC0042F20F738B4228BF0B460D4A052168468E
:10D0BC0001F0D0FE06462B4620460B2209490DF006
:10D0CC0041F82B463246694620460DF03BF82B467C
:10D0DC001B22054920460DF035F802B070BD00BF8B
:10D0EC007ECD010064C6010048C601000123002169
:10D0FC00074A10B5074C1360A04204D801B1136065
:10D10C00054B186010BD40085B000121F4E700BF1F
:10D11C004001022040420F003C0102200122014B41
:10D12C001A707047E44C022008B503480DF074F9EE
:10D13C000122024B1A7008BDE8C00100E54C022028
:10D14C000148FFF7A9BF00BFE8C0010010B50C46AD
:10D15C0008460CF062FF214604480F22FFF726FF19
:10D16C002046BDE810400CF081BF00BFE8C00100B4
:10D17C00044B1B781BB141F288300EF0EEBB05203E
:10D18C000BF090BFE54C02202DE9F84F214F824661
:10D19C000E460424B846DFF884903B7823B94FF050
:10D1AC00FF3148460BF088FB32465146002000F018
:10D1BC0043FA98F80030834613B948460BF0EEFB5F
:10D1CC00154DBBF1000F18D001232B7098F80030CF
:10D1DC0033B93046BDE8F88F5CB92C704FF0FF3492
:10D1EC00002000F075FA0028F3D02B78002BF3D137
:10D1FC00EFE7013CFFF7BCFFF2E72B7813B1013CE2
:10D20C0004D12C702B78002BC7D1E2E7FFF7B0FFCD
:10D21C00F8E700BFE54C0220E44C0220D881022044
:10D22C00014B1860704700BF580102202DE9F74FE1
:10D23C00194801A90BF0DAF8042300244FF00C096B
:10D24C00164DDFF854A0DFF85C802B60019BA342E5
:10D25C0002DD2B680E2B02DD03B0BDE8F08F00263B
:10D26C0009FB04FB0E4FDAF80030394653F80B304B
:10D27C0018680DF0A7FA50B10136042E07F110070B
:10D28C00F1D12B685A1C2A6048F8234001E048F879
:10D29C0026400134DAE700BF9C0102205C01022029
:10D2AC00E2C601006001022003682DE9F041D0F8CC
:10D2BC0008C005461F69CEB24AB10C2373435CF813
:10D2CC0003309A425BD013B11B68002BF9D14FF09D
:10D2DC002003EFF3118083F31188BFF36F8F0C21C0
:10D2EC0071430CEB01031C7A0134E4B21C7280F321
:10D2FC001188BFF36F8F22B34FF0030E2248C0F892
:10D30C0008E3587AA0B94FF0200EEFF311888EF392
:10D31C001188BFF36F8F1060D3F804E0BEF1000FDB
:10D32C0020D15A604CF8012088F31188BFF36F8F1D
:10D33C000321154BC3F8041318B1D2E90131284667
:10D34C009847012C0CD14FEA061857F808306BB9E6
:10D35C0001224744BB7A03F1804303F5A0431A60D2
:10D36C0000200EE0CEF800205A60DDE728469847F2
:10D37C000028EDD1314628460DF0C7F8F0E76FF0E4
:10D38C000F00BDE8F08100BF0050004010B5002236
:10D39C0004460121052000F07FFA052000F06CFA0C
:10D3AC000222074B0020C3F818250322C3F80423DC
:10D3BC00A368C3E90000A368C3E9030010BD00BF64
:10D3CC000050004008B5104B1A6862B10F4AD2F8F1
:10D3DC000423D10707D500220D481A608368597AB7
:10D3EC0009B90DF092F80B4B1A6862B1074AD2F8E2
:10D3FC000423920707D5002201211A600448BDE8D6
:10D40C0008400DF082B808BD0051004000500040AB
:10D41C00FC8002200451004000220D4BC3F8402137
:10D42C004FF02002EFF3118182F31188BFF36F8F5D
:10D43C00084AD3F804051368C01A20F07F4003444F
:10D44C00136081F31188BFF36F8F0CF049B800BFE4
:10D45C0000500140B801022070B515480AF0A0FF39
:10D46C0010B3436801211B689847002401264FF430
:10D47C0080334FF400120F4D3146C5F80845C5F8FE
:10D48C004065C5F804330C4B15201C600B4BC3F8DE
:10D49C008021224600F000FA152000F0EDF920461C
:10D4AC00074B1E602E6070BD4FF0FF30FBE700BFD6
:10D4BC0022C70100005001404051014000E100E052
:10D4CC000850014070B5254CB0F1FF3F08BF204615
:10D4DC004FF02003EFF3118583F31188BFF36F8FA7
:10D4EC001F4BD3F804151F4B1B68CA1A22F07F463A
:10D4FC0012021AD4421E22EAE272A242A8BF2246AB
:10D50C00701C1044A04294BF18181819411A21F02D
:10D51C007F41134A20F07F430229C2F8403506D9D7
:10D52C0085F31188BFF36F8F70BD0022E8E7D2F846
:10D53C0004350D49C31A23F07F435C1E8C4205D978
:10D54C004FF40012094BC3F80021E9E7012B02BF8D
:10D55C00023020F07F40C2F84005E1E7FEFFFF00FB
:10D56C0000500140B8010220FEFF7F0000E100E006
:10D57C004FF02002EFF3118382F31188BFF36F8F0A
:10D58C00064AD2F80405064A1268801A20F07F4039
:10D59C0083F31188BFF36F8F704700BF00500140B9
:10D5AC00B80102204FF02003EFF3118283F31188AE
:10D5BC00BFF36F8F0649074B0868D3F8043582F325
:10D5CC001188BFF36F8F1B1A23F07F4318447047E9
:10D5DC00B801022000500140032310B5104C114A31
:10D5EC00C4E90433104BA261E3614FF480632266FB
:10D5FC000E4A23626266002310220D49E01DA362CD
:10D60C006362E3622367E3666367A2660DF0A8F8C2
:10D61C00084920460DF0A4F82023A37110BD00BFCB
:10D62C00BC0102204CC70100F64C0220E64C022043
:10D63C0055C7010059C701002DE9F84F4FF0180BE1
:10D64C00224E14460BFB0062936A556A0746AB42A6
:10D65C00884634D8D2F820A0AAEB050909F1FF328C
:10D66C00A24211D34FF0180907FB099333445868B1
:10D67C002246414628440DF0D0F809FB07662C449D
:10D68C0001207462BDE8F88F13449C421BD800FB48
:10D69C000BBBB344DBF804004A4628442C440DF081
:10D6AC00BCF8B4EB0A0406D0224608EB0901DBF8FF
:10D6BC0004000DF0B2F8182303FB0766E0E7013B0A
:10D6CC005B1B9C42CED90020DCE700BFBC010220D2
:10D6DC001823034A03FB00239A6A586A801A70477E
:10D6EC00BC01022004488168406A884203D0034987
:10D6FC004FF080520A607047C44B022004ED00E0EA
:10D70C0029498A684FF028001044EFF3098C80E80F
:10D71C00F01F4FF010001EEA000F04D0D2F8AC003E
:10D72C0020F0040007E002F16C0080EC108AD2F8C3
:10D73C00AC0050F00400C2F8AC00202080F311883B
:10D74C00BFF36F8F194F4FF000664A6A8A603E60D4
:10D75C00506E0023536680F31188D2F8AC0010F0A1
:10D76C00040F05D10023E1EE103A5EF0100E05E037
:10D77C002EF0100E02F16C0090EC108AEFF3148373
:10D78C0023F0040383F31488BFF36F8F04B51046A2
:10D79C000CF0F9FEBDE8044002F1280090E8F01FFF
:10D7AC008CF3098870470000C44B022004ED00E0A4
:10D7BC001EF0040F0CBFEFF30880EFF309808169B2
:10D7CC0011F8021C0229FFD001B50CF0D1FE01BDED
:10D7DC00014910220A60704710ED00E0404080F3D0
:10D7EC00118830BF704700BFEFF30880EFF3098159
:10D7FC00724601B500F04EFB01BD00BF30BFFFF714
:10D80C00FDBF00BF01B572B60B4A106A00281EBFDF
:10D81C00002111620DF0EEFE62B6EFF30580A0F16F
:10D82C0010004FEAC0000549014409C99847BDE8FA
:10D83C000140034908470000C44B0220A8BC01006A
:10D84C00F1D60000094A0A49936809685866996636
:10D85C0008494B6843F080534B60002383F31188D5
:10D86C00BFF36F8F9368986E704700BFC44B022054
:10D87C007CC5010000ED00E043B2002B08DB012267
:10D88C0000F01F0002FA00F0024A5B0942F8230084
:10D89C00704700BF00E100E043B2002B01F1010131
:10D8AC00A8BF03F160434FEA4111B8BF054BC9B2A1
:10D8BC00ABBF03F5614300F00F0083F8001319545C
:10D8CC00704700BF14ED00E008B572B6044B186A3F
:10D8DC0018B100221A620DF08DFE62B608BD00BFB1
:10D8EC00C44B022073B51E460A9B05460093099B48
:10D8FC008C180EF039F80C4AA4F1200323F007031E
:10D90C0022F001029A61069A1E605A60079A9A6088
:10D91C00089ADA604FF08072DA61AB6400236B66B0
:10D92C00C5F8AC3002B070BDEF9D01002DE9F0419F
:10D93C001F4606460C4690460023E1EE103AEFF3E4
:10D94C00148525F0040585F31488BFF36F8F00F060
:10D95C00DFFB0A4B444430469E6024F007040CF075
:10D96C0012FE384684F30988002163B681F31188CE
:10D97C00BFF36F8F002200230CF033FAC44B02204C
:10D98C002DE9F04781468AB00C4600297AD0012255
:10D99C004FF000033F4D62F307033F4A3F48AD1A77
:10D9AC00C5F3C90565F38F13ADF80030D1E9012338
:10D9BC0009680CF0BAFA01224FF0000362F3070376
:10D9CC0065F38F13ADF80030D4E90423E1683448D3
:10D9DC000CF0ABFA01234FF0000263F3070265F37E
:10D9EC008F12E1692F480CF074FA27460026DFF8F5
:10D9FC00C0A0D7ED087AFCEEE77ACDED037AD7ED2F
:10DA0C00097AFCEEE77ACDED057AD7ED0A7AFCEED1
:10DA1C00E77ACDED077AD7ED0B7A0822FCEEE77AA0
:10DA2C0028F03F0343F0010363F30708731C0493CE
:10DA3C00B31C069365F38F18F31C029608930DEB39
:10DA4C000201434650460436CDED097A0CF088FAB3
:10DA5C00102E07F11007CCD101234FF0000263F315
:10DA6C00070265F38F12216E0F480CF032FA4FF05B
:10DA7C000002012363F3070265F38F12A1690B48BF
:10DA8C000CF027FA214648460AF0C6FC0AB0BDE85D
:10DA9C00F08700BF44C0010004C0010060C7010052
:10DAAC008FC70100BEC7010010C801001FC80100CC
:10DABC00CDC70100114A08B5114B22F07F029A60C4
:10DACC00BFF34F8FBFF36F8FD3F8882042F4A002BF
:10DADC00C3F888204FF04042C3F83422BFF34F8F75
:10DAEC00BFF36F8F0023E1EE103A0AF015FD0AF038
:10DAFC001DFD00F0DBFA0AF04BFD00BF00C000007A
:10DB0C0000ED00E00CF093F9202080F31188084818
:10DB1C004FF40061401880F30988EFF31480022160
:10DB2C00084380F31488BFF36F8FFFF7C3FF000027
:10DB3C00A866022001234FF0000110B563F3070122
:10DB4C003A4C3B4B3B48E41AC4F3C90464F38F11C1
:10DB5C000CF0B2F9384B9B6A990109D54FF00001D2
:10DB6C00012363F3070164F38F1134480CF0A4F91B
:10DB7C00314B9B6ADA0109D54FF00001012363F3A5
:10DB8C00070164F38F112E480CF096F92A4B9B6A0F
:10DB9C00DB0209D54FF00001012363F3070164F3A5
:10DBAC008F1128480CF088F9234B9B6A180309D570
:10DBBC004FF00001012363F3070164F38F11224836
:10DBCC000CF07AF91C4B9B6A590309D54FF00001F4
:10DBDC00012363F3070164F38F111C480CF06CF9FB
:10DBEC00154B9B6A9A0309D54FF00001012363F38F
:10DBFC00070164F38F1116480CF05EF90E4B9B6A0B
:10DC0C00DB0309D54FF00001012363F3070164F333
:10DC1C008F1110480CF050F9074A0020936A6FEAF4
:10DC2C0003436FEA1343936210BD00BF44C001006D
:10DC3C0004C00100ADC9010000ED00E0C5C9010040
:10DC4C00D8C90100F2C901001CCA01003ACA01007E
:10DC5C005FCA010079CA0100F8B501230E464FF0E6
:10DC6C000001374C63F30701364B0746E41AC4F343
:10DC7C00C90464F38F1134480CF01EF9334B9B6AC2
:10DC8C00D90609D54FF00001012363F3070164F3B2
:10DC9C008F112F480CF010F92C4B9B6A1A0709D5E1
:10DCAC004FF00001012363F3070164F38F1129483E
:10DCBC000CF002F9254DAB6A9B071CD501234FF0E4
:10DCCC00000163F3070164F38F1123480CF0F4F89F
:10DCDC00696BAB6A18060ED54FF00002012363F393
:10DCEC00070264F38F121D480CF0F3F81FB1AB6AF6
:10DCFC0023F08003AB62154B9B6ADA0709D54FF012
:10DD0C000001012363F3070164F38F1114480CF035
:10DD1C00D3F80E4B9B6A9B0609D54FF000010123EB
:10DD2C0063F3070164F38F110E480CF0C5F8002063
:10DD3C00064B9A6A9A6A42F0FF029A623070F8BDFA
:10DD4C0044C0010004C00100D5C8010000ED00E092
:10DD5C00EBC801001EC9010031C9010049C901000D
:10DD6C005FC901007EC90100F8B501230E464FF0D2
:10DD7C0000013D4C63F307013C4B0746E41AC4F326
:10DD8C00C90464F38F113A480CF096F8394B9B6A2E
:10DD9C00D90409D54FF00001012363F3070164F3A3
:10DDAC008F1135480CF088F8324B9B6A1A0509D54F
:10DDBC004FF00001012363F3070164F38F112F4827
:10DDCC000CF07AF82B4DAB6A9B051CD501234FF058
:10DDDC00000163F3070164F38F1129480CF06CF810
:10DDEC00A96BAB6A18040ED54FF00002012363F344
:10DDFC00070264F38F1223480CF06BF81FB1AB6A67
:10DE0C0023F40043AB621B4B9B6A590509D54FF0B9
:10DE1C000001012363F3070164F38F111A480CF01E
:10DE2C004BF8144B9A6AD20511D54FF0000101231F
:10DE3C00164863F3070164F38F110CF03DF80020D2
:10DE4C000C4A936A43F47F4393623070F8BD9B6A2B
:10DE5C009B04F4D54FF00001012363F3070164F335
:10DE6C008F110B48E9E700BF44C0010004C001005A
:10DE7C004DC8010000ED00E063C801001EC901009F
:10DE8C0074C801008DC80100A2C80100BDC8010002
:10DE9C007EC901002DE9F043694B9DB0D3F8048095
:10DEAC00064689461446C8F30807002585F31188F1
:10DEBC00BFF36F8F02F07F43B3F17F4F28D1D007B0
:10DECC0026D4510603D4220712D4012512E00123D3
:10DEDC004FF000015B4A63F307015B4B5B489B1AF5
:10DEEC00DB0863F38F110BF0E7FF14F0040501D08E
:10DEFC004E46002500238DF80730FB1E092B00F23F
:10DF0C008280DFE803F0076B6F4E80808080807327
:10DF1C002E46EFE701234FF000014FF0000863F3AA
:10DF2C000701494F474B4A48FF1AC7F3C90767F324
:10DF3C008F110BF0C1FF424B8DF80780DC6A14F097
:10DF4C0002040BD04FF000010123424863F3070198
:10DF5C0067F38F110BF0B0FF002425E0DB6A5B0048
:10DF6C0022D501234FF0000163F3070167F38F11F2
:10DF7C0039480BF0A1FF394B1B782BB101200DF167
:10DF8C000701FFF769FE0EE0354B1B782BB1012022
:10DF9C000DF10701FFF7E8FE05E0324B1B889BB241
:10DFAC0013B1FFF7C7FD04469DF807309BB96822F3
:10DFBC00314602A80CF031FC099B002D3AD0C3F37A
:10DFCC00080222B96FEA53236FEA4323099302A98B
:10DFDC002046FFF7D5FC1DB0BDE8F0830DF107011D
:10DFEC000020CEE70DF107010020D3E701234FF00D
:10DFFC000001144A63F30701134B1B489B1ADB08FF
:10E00C0063F38F11A6E701224FF000030E4962F370
:10E01C0007030C4A1548891AC90818F4F87F61F3EC
:10E02C008F13A7F11002124918BF014611480BF0CB
:10E03C0064FF91E723F4FF7323F00103C6E700BFED
:10E04C0000ED00E004C0010044C00100A4CA0100BE
:10E05C00C7CA0100DECA0100FFCA010028ED00E0BA
:10E06C0029ED00E02AED00E01ECB010069CB010098
:10E07C0054CB010082CB0100024A536943F01003D8
:10E08C005361704700ED00E0BFF34F8F0549064B1D
:10E09C00CA6802F4E0621343CB60BFF34F8F00BF3A
:10E0AC00FDE700BF00ED00E00400FA05002320218D
:10E0BC000348C2180133412B82F80013F9D1704781
:10E0CC0000E100E038B505464FF02003EFF3118472
:10E0DC0083F31188BFF36F8F0AF036FE0A4B9B68EF
:10E0EC00AB420BD1094B5A68C2F3080212B9204655
:10E0FC00FFF7A8FB5A6842F080525A602046BDE8F0
:10E10C0038400DF06CBB00BFC44B022000ED00E0AA
:10E11C0010B50E4B88B002930D4B0E4C03930E4B67
:10E12C000E4A049302AB019301A82346012100F08F
:10E13C0051F9002307930A4B0121E41A05A8059312
:10E14C00069400F051F908B010BD00BF0000022089
:10E15C000000000000000420060001000000022066
:10E16C000000022010B50B680C7A23F01F0204F09B
:10E17C001F031A43CB68640923F01F03044943EAC5
:10E18C00440343F001038860CA600B6110BD00BFFB
:10E19C0090ED00E008B54FF000020123074963F34E
:10E1AC000702074B5B1ADB08014663F38F12054825
:10E1BC000BF08FFE6FF0150008BD00BF04C001000E
:10E1CC0034C00100DFCB01002DE9F04F0746884633
:10E1DC00144600265E4D85B046453DDA57F826308C
:10E1EC00D3F80490B9F1000F59D0B9F11F0F22D90F
:10E1FC0019F01F0F1FD1D3F800A01AF01F0F1AD15E
:10E20C0050460CF0EBF9834609EB0A0001380CF090
:10E21C00E5F9834524D06FF0150B01234FF0000274
:10E22C004C4963F307024C4B4C485B1ADB0863F315
:10E23C008F1259460CE001234FF00002454963F35D
:10E24C000702454B46485B1A3146DB0863F38F12D5
:10E25C000BF03FFE6FF01504204605B0BDE8F08FC3
:10E26C001BF1160FD9D0631E5B45D6DBC5F808B081
:10E27C00E868C5F808B02B6957F8261020F01F0085
:10E28C0043F01F0AD1E900321A44984202F1FF39D7
:10E29C0018D1CA4505D15FFA8BF00CF07CF9013628
:10E2AC009AE7C5F808B0EB6822F01F0203F01F03D1
:10E2BC001A43EA60E0B20CF06EF910F1160FC9D0F7
:10E2CC00441CECE7C5F808B02A69013B23F01F0396
:10E2DC0002F01F021343CA45E0B22B61EBD00CF0E5
:10E2EC005AF910F1160FB5D0C5F808B0EA689DF8C8
:10E2FC0008300AF1FF3A62F304038DF808302B69F9
:10E30C009DF808205B0863F3471257F826308DF808
:10E31C000820D3E900130B44009323F01F03441C83
:10E32C005344A3EB0903E4B223F01F030F2C039314
:10E33C0008D92046FFF72EFF10F1160F044689D09E
:10E34C000134ACE769462046FFF70CFFF8E700BF45
:10E35C0090ED00E004C0010034C00100BCCB010012
:10E36C0099CB01000522034B5A60BFF34F8FBFF3CB
:10E37C006F8F704790ED00E0BFF35F8F0022014B71
:10E38C005A60704790ED00E070B50E4D2E68102E5F
:10E39C0015D80024FFF7F0FF0B4B0C4A1A63A6426A
:10E3AC0005D10B4B1E70FFF7DDFF002070BD6968B7
:10E3BC00204601EB0411FFF7D5FE0134EFE74FF0D7
:10E3CC00FF30F3E72CC1010090ED00E0AAFF440000
:10E3DC00F650022010B5034C2278FFF7F5FE2070A2
:10E3EC0010BD00BFF65002202DE9F74F254C8A4690
:10E3FC0080460027A1464FF0140B234D57451ADADF
:10E40C00D8F804300193002B36D0D8F80010084609
:10E41C0000910CF0E3F8DDE90013064658180138BA
:10E42C000CF0DCF88642194A08D014235F436FF0D5
:10E43C00150349F8073003B0BDE8F08F16F1160F3D
:10E44C002660F8D01378B342F5DD0BFB0793AE6072
:10E45C00AE60E868197B60F3040119732969187BB5
:10E46C00490861F347101873EB6823F01F036360CE
:10E47C002B6923F01F0323610137143408F10C08B6
:10E48C00BCE700BF6402022090ED00E0F6500220D1
:10E49C0070B50C4B0E461C780546234600210A4AE3
:10E4AC000F2B0BDD094951F8040BFFF75BFE2246DD
:10E4BC0031462846BDE87040FFF786BE9360116177
:10E4CC000133EDE7F650022090ED00E064020220EB
:10E4DC002DE9F04F1E460023A3B0CDE902010193B4
:10E4EC00134613F8010B089358B1252800F08580CA
:10E4FC000399029B9847013040F017844FF0FF338B
:10E50C000193019823B0BDE8F08F232C6CD061D817
:10E51C00002CF6D0202C0E9B08BF01230E93CDF8B7
:10E52C002080DDF82080B74818F8014B21460CF00C
:10E53C0034F90028E9D12A2C66D156F8043B98F816
:10E54C000040002B0993BFBF5B42099301230F933B
:10E55C00089B03F102082E2C7BD198F800302A2B53
:10E56C0074D156F8045B08F1010818F8014B2146E8
:10E57C00A54827460CF011F900286DD0434613F836
:10E58C00014B682F089307D1682C05D1482708F157
:10E59C00020398F801400893672C7BD8652C80F017
:10E5AC003581472C5CD8452C80F03081002CA8D0CC
:10E5BC00252C00F0B68303992520029B9847013047
:10E5CC009CD003992046029B9847013096D0019B22
:10E5DC000233ACE32D2C0AD0302C0BD02B2C0B9B04
:10E5EC0008BF01230B939AE74FF0010B97E7012328
:10E5FC000F9394E701230A9391E700230A930E9358
:10E60C000B930F939B468CE7A4F13003092B0990D5
:10E61C00A1D80A22DDF8208018F8014BA4F13003B0
:10E62C00092B98D8099B02FB0344A4F13003CDE9D4
:10E63C000883EFE7904601FB0535303D424612F862
:10E64C00013BA3F130000928F4D98EE700250A21FB
:10E65C00F4E74FF0FF358AE7CDF8208007469BE7BB
:10E66C00632C59D020D8582CA5D16F2C06F1040955
:10E67C00316840F02883BBF1000F00F01783302382
:10E68C008DF86C30002940F01B838DF86D100F460F
:10E69C00012625E0702C00F0F58227D86E2C00F0B6
:10E6AC00DE82E2D8692C86D1376806F10409002F86
:10E6BC0080F29A802D2379428DF86C300DF16D0625
:10E6CC0030460A220CF0F5F80B9B06441BA8361AB0
:10E6DC00002B40F02F830E9B002B40F02B83FF0F61
:10E6EC00002D21DA0025AB46A846E1E0752CBCD004
:10E6FC00782CBAD0732C7FF45EAFB146002DB8BF26
:10E70C006FF00045002659F8043BB54240F0C98231
:10E71C002E4600252F4608E00027B1463D4601262F
:10E72C0059F8043B8DF86C301BABEA190025AB464D
:10E73C00A846921B22EAE272911906910999901946
:10E74C000C1A0F9911B9002C00F3118303EB070A73
:10E75C00534540F0118312F1FF3280F01B83F61BFE
:10E76C00B8F1000F11D09AF800000AEB0607A0F1DF
:10E77C003003092BA7EB0A0640F21783474617F123
:10E78C00FF3780F01B83A6EB0806BBF1000F15D0FA
:10E79C000AEB06071AF8018B03994046029B98472F
:10E7AC0001303FF4ABAEB8F12E0FA7EB0A06F1D156
:10E7BC005F46002F00F30B83A6EB0B0695B19AF87E
:10E7CC0000000AEB0607A0F13003092BA7EB0A06A1
:10E7DC0040F208832E2800F005832F46002F00F30B
:10E7EC000A83761B564419E30B9B23B12B238DF81C
:10E7FC006C30394662E70E9B0BB12023F7E73946A4
:10E80C001BAE5DE705CC01000BCC010006F107093E
:10E81C0029F00709F9E80223D80240EA5250D6023F
:10E82C0020F00040002AC3F30A510496059073F1BE
:10E83C000003DDE90467CDE9166741DA2D238DF875
:10E84C006C300DF16D0740F2FF73994253D1DDE945
:10E85C0004120A43A4F1410407F1030340D1192C1B
:10E86C0038D849223A704E227A7046220025AB469F
:10E87C00A8461BAEBA70FD709B1B0B9A002A40F089
:10E88C00EC810E9A002A40F0E8819DF86C70A7F19B
:10E89C002D025742574105EB0806334403EB0B0698
:10E8AC0022AB3B4413F81C3C303B092B00F2468254
:10E8BC000A9B002B00F04582099B9A1B1BAB39E786
:10E8CC000B9B0BB12B23BAE70E9B0BB12023B6E7A6
:10E8DC001BAFB8E769223A706E227A706622C5E7E0
:10E8EC00192C99BF4E2241216E22612194BF3A709E
:10E8FC003A707970BAE7049B05980B431093CB17C9
:10E90C000343462C119308BF6624DDE910231343FF
:10E91C0000F01181002900F09B800026179BA1F2CA
:10E92C00FE3843F00043179318F1020FC0F2A48095
:10E93C00B8F1000F00F3DD8016A808F101080BF008
:10E94C00DAFFB8F1040FF7D1002D04F0DF03B8BFE4
:10E95C000625472B40F0F880F11C02DBB54280F213
:10E96C00ED80023CE4B2002D00F0F480013DBBF1DF
:10E97C00000F40F0EF80002DD4BF4FF0000A4FF095
:10E98C00010A662C40F0E88015EB060840F1EC809B
:10E99C00102366244FF00008159300224FF00063FB
:10E9AC00CDE9182318F1FF3880F0E080169B189AF7
:10E9BC0019999B18179A41EB0202CDE9163202F015
:10E9CC007043129300231393DDE91223134306D0F3
:10E9DC0016A80BF0A1FF16A80BF08DFF0136662CC4
:10E9EC0040F0E180002E40F3C880159B002B07DD22
:10E9FC0015A916A80BF0BBFF013E07F8010BF4D1CB
:10EA0C00B0463B460026BBF1000F01D1002D15DDB1
:10EA1C002E2203F8012B002E00F0C080002D40F3B5
:10EA2C00BF80C6F1000BAB45A8BFAB46A5EB0B05F1
:10EA3C00002D03DD159A002A00F3A680BAF1000F11
:10EA4C0040F0C68000221BAE1A709B1B15E70139E3
:10EA5C00049BDB180493059B5B410593DDE90423C0
:10EA6C00002A73F10003F2DADDE90423CDE9162361
:10EA7C0053E716A80BF03FFFDDE916EC002300214D
:10EA8C00CDF830C00D93BB48DDE90C23994208BF8B
:10EA9C00904208F10108ECD30520AEFB0023CDE930
:10EAAC000623079B013E00FB0C334FF0000C079331
:10EABC00DDE90623CDE91623002100236FF0004287
:10EACC0007988B4208BF824208D2BCF1000F3FF47A
:10EADC002BAFDDE90623CDE9162325E7069B08F1CC
:10EAEC00FF38DB180693079B4FF0010C5B41079333
:10EAFC00E2E716A80BF010FFDDE916AE4FF0000CA4
:10EB0C0008F1FF380136002300216FF000409942D4
:10EB1C0008BF704506D2BCF1000F3FF409AFCDE938
:10EB2C0016AE05E71AEB0A0A4EEB0E0E08F1FF388B
:10EB3C004FF0010CE7E70026B046FDE6AD1BBBF13C
:10EB4C00000F04D1662416E74FF0000A19E74FF0C6
:10EB5C00000A19E74FF0000A05F101081023984547
:10EB6C001593A8BF984618E76624F7E718A80BF08A
:10EB7C00D3FE18A80BF0BFFE14E73B4630224FF033
:10EB8C00000803F8012B3EE715A916A806930BF015
:10EB9C00EEFE069B013D03F8010B49E7B34647E740
:10EBAC004FF0000B4AE715A916A80BF0E0FE302831
:10EBBC00387018BF06F1FF36BBF1000F38D1002DAD
:10EBCC0036DC7B1CBAF1000F44D04FF0000BD8465A
:10EBDC001A4613F8011D3029FAD02E2918BF1346F6
:10EBEC00002504F0DF02452A7FF42CAF002EB4BFC1
:10EBFC002D222B221946B8BF7642632E01F8024B08
:10EC0C005A7008DD642096FBF0F200FB126602F1EC
:10EC1C003004D91C9C700A2096FBF0F20B4600FBCA
:10EC2C00126602F13004303603F8024B4E7009E7DD
:10EC3C002E22BB1C7A70002DC4DD159A002AC1DD72
:10EC4C0015A916A806930BF092FE069B013D03F83E
:10EC5C00010BF0E7D346D046C3E701271BE6B146CC
:10EC6C00682F59F8043B05D001DC482F07D0019AD6
:10EC7C001A6001E0019A1A804E46089A30E4019A13
:10EC8C001A70F9E7B14647F63003102259F8041B05
:10EC9C000DF16E00ADF86C300BF00BFE0227861CEC
:10ECAC001EE59A5D002A47D001362EE51BAC0822E2
:10ECBC0020460BF0FEFD1BAEA61B064400270FE5FD
:10ECCC000DF16D04F3E7752C05D10A221BA80BF08E
:10ECDC00F0FD0646F2E7BBF1000F12D047F6300309
:10ECEC000DF16E08ADF86C30102240460BF0E1FDD2
:10ECFC00582C09D01BAEA8EB060606444FEA4B076E
:10ED0C00EEE40DF16C08EFE71BAA1378A3F1610197
:10ED1C0019299CBF203B137012F8013B002BF4D136
:10ED2C00E8E703992046FFF7E4BB019B013301930D
:10ED3C00B146A1E70127D3E41546EBE41BAB002257
:10ED4C00FAE41BAB0A9AF7E4CDE909320399029B6A
:10ED5C0020209847DDE9093201303FF4CFAB1AF19E
:10ED6C00FF3AF1D20199214401915446EEE4A246B6
:10ED7C00F5E700BF3233333313F8010B03990993D2
:10ED8C00029B0A929847DDE9093201307FF4E0AC2E
:10ED9C00FFF7B4BB03993020029B099298470130CE
:10EDAC00099A7FF4D8ACFFF7A9BBDDE9023198478B
:10EDBC0001303FF4A3AB1AF8010FD8E403993020CB
:10EDCC00029B984701307FF4DAACFFF797BB0399AD
:10EDDC003020029B9847013007F1FF377FF4E9ACF4
:10EDEC00FFF78CBBDDE90231984701303FF486AB6D
:10EDFC001AF8010FE7E403993020029B9847013081
:10EE0C0007F1FF377FF4EAACFFF778BB03991AF8E8
:10EE1C00010B029B984701303FF470ABA6EB0A0341
:10EE2C00002BF3DC019B069A002C134401937FF713
:10EE3C0023AF254606E003992020029B984701301A
:10EE4C003FF45CAB15F1FF35F5D2019B23440193E4
:10EE5C0012E700BF0CB41FB509B90DF10300CDE9E1
:10EE6C00020107AB069A02A905480193FFF730FB94
:10EE7C000022029B1A7005B05DF804EB02B07047DB
:10EE8C00A9A901008279044B03EB4213DB69C01A78
:10EE9C00024BC010584370470C820220ABAAAAAA9E
:10EEAC0010B5094B827903EB42139B690A685C68C5
:10EEBC0023689A4294BF0A600B60FFF7E3FFD4E922
:10EECC00002302FB003010BD0C82022038B5074C29
:10EEDC00074DAC4200D138BD23681B685B681BB181
:10EEEC001B680BB1204698472034F2E76082022061
:10EEFC008082022038B5084C084DAC4200D138BD98
:10EF0C00206803210C300BF072FD10B920460BF079
:10EF1C0074FD2034F1E700BF608202208082022061
:10EF2C0008B5094B1A786AB90121312019700521ED
:10EF3C00FEF7B2FC3120FEF79FFC4FF00042034B72
:10EF4C00C3F80423002008BDF75002200010034032
:10EF5C0070B5036882681B69514C187901F01F0366
:10EF6C0043EA40130020D4F80453EDB200F5A27626
:10EF7C0054F82660C6F30426B34270D125FA00F685
:10EF8C00F6076CD5850005F1804505F54435D5F8B7
:10EF9C00106526F00106C5F81065012505FA00F08C
:10EFAC00C4F808033F4D05EB8305D5F8000220F4A7
:10EFBC004030C5F800029068C84010F001004DD0F8
:10EFCC00D068C84010F0010048D05069C84010F01B
:10EFDC00010050D09069C840C00744D41069D26970
:10EFEC00C84022FA01F100F0010001F00101884251
:10EFFC0014BF01210221002505F5A27254F822004C
:10F00C0010F0030031D1AA0002F1804202F5443223
:10F01C00D2F810651B0203F4F85326F4473626F495
:10F02C00407643EA014105F14003C2F810659B00AC
:10F03C00D2F810659BB203F1804303F5443331439E
:10F04C00C2F810151860D2F8103543F00103C2F85D
:10F05C001035012303FA05F5C4F8045370BD0130D3
:10F06C00082883D19EE70321C5E70135082DC3D1BC
:10F07C006FF01200F2E71369D269534023FA01F1E1
:10F08C0011F0010F14BF4FF400324FF44032D5F899
:10F09C00003223F440331343C5F80032DEE700BFDF
:10F0AC0000100340002584402DE9F74F8046856809
:10F0BC0003F47040B0F5804F1E4640D009DCB0F52B
:10F0CC00805F3ED0B0F5405F3DD090B16FF0150041
:10F0DC0032E0B0F5E04F38D004DCB0F5A04FF5D1FC
:10F0EC00032006E0B0F5404F31D0B0F5504FEDD1D4
:10F0FC00072006F44077B7F5807F2AD0A7F5007477
:10F10C0063426341012919BFD4B2A1464FF01F09D4
:10F11C0000244FF0010B06F0010C4FEA4C0747EAB4
:10F12C000C0747EA0020DFF8A0A040EA830706F0AE
:10F13C000203A1450FD2002003B0BDE8F08F0220DE
:10F14C00D7E70120D5E70420D3E70520D1E7062037
:10F15C00CFE70323D6E7D8F800201269117904F021
:10F16C001F0242EA411280324AF82270A9680BFA57
:10F17C0004F2002B25D01143A9606969B0064CBF7D
:10F18C00114391436961A96970064CBF11439143C6
:10F19C00A961296970074CBF114391432961E96941
:10F1AC0030064CBF0A4321EA0202EA61214640467E
:10F1BC000193FFF7CDFE0028BED10134E4B2019BD0
:10F1CC00B7E721EA0201D7E7002584404F492DE932
:10F1DC00F0410D68002D60D04D4B00269A681B68DD
:10F1EC00DFF838E11F69D2E902030340D2E90504D4
:10F1FC00204323EA00033868D4691269006954403B
:10F20C004440012023EA040493BB0B60002301203B
:10F21C001F464049404ED1F8042300FA03FC1CEA77
:10F22C00020F0DD056F8232052B103F5A27251F8FB
:10F23C00222046F82370C2F3042200FA02F214438F
:10F24C000133082BE7D154BB85B101240025304B89
:10F25C00DFF8C8C09A681B681E69D2E902130B401C
:10F26C00D2E90510014323EA01037BBBBDE8F08121
:10F27C0003420FD097F804C006F01F0242EA4C126A
:10F28C000EEB8202D2F800C223EA00032CF4403CBD
:10F29C00C2F800C201364000B6E72C46B6E71C4F58
:10F2AC00D7F80880D8F800100029CDD00E68D8F80F
:10F2BC000C308A682340134203D04B6822463846F0
:10F2CC009847002EC0D031463668F0E71C421AD061
:10F2DC00307905F01F01D76941EA401110690CEB38
:10F2EC0081017840E84010F0010F14BF4FF4003753
:10F2FC004FF44037D1F8000223EA040320F44030E5
:10F30C003843C1F8000201356400AEE77C110340BC
:10F31C00448102200010034000110340002584406A
:10F32C00F0B54B79012B29D0032B24D110268B79E6
:10F33C00032B20D1CC792CB1012C1CD103681B6977
:10F34C001B79C3B10A7912B1022A14D10E2247F6E5
:10F35C00122705680B682D69BB422D6862D029D82D
:10F36C00B3F5965F61D014D8B3F5167F5FD007D88C
:10F37C00B3F5967F5ED06FF0220052E00026D6E700
:10F38C00B3F5966F59D0B3F5166FF4D14FF41D2326
:10F39C003CE0B3F5615F53D004D8B3F5165FEAD106
:10F3AC00324B33E0B3F5964F4CD0B3F5E14FE2D18D
:10F3BC002F4B2BE0B3F5E13F46D012D84DF6C027CA
:10F3CC00BB4244D005D8B3F5164FD4D14FF41D032E
:10F3DC001CE0B3F5614F3DD0B3F5963FCBD1254B37
:10F3EC0014E0B3F5E12F38D008D8B3F5613F37D02E
:10F3FC00214FBB42BFD14FF0806307E0B3F5612FC3
:10F40C0031D01E4FBB42B6D14FF08053C5F82435D6
:10F41C0034438368224303C9C5F86C2583E8030091
:10F42C000020F0BD4FF40003F0E7154BEEE74FF46E
:10F43C001C33EBE74FF4A033E8E74FF49E23E5E7EA
:10F44C00104BE3E7104BE1E74FF0EB73DEE74FF4C3
:10F45C006503DBE74FF46B03D8E74FF0E863D5E7C0
:10F46C004FF06C73D2E74FF07063CFE7005027007A
:10F47C0000C0750000903A0190D0030040420F008C
:10F48C0000B0130000F03A0000A04E0070B5064624
:10F49C00002201210820FEF7FFF90820FEF7ECF905
:10F4AC0080223368B5681B6929461C68144B3046AA
:10F4BC009A600322C3F81C220022C3F8702207238F
:10F4CC00C4F80C351C23C4F81435FFF729FFA8B970
:10F4DC0001230822EB60C4F8002505F11002C4F8E2
:10F4EC001001C4F83425AA68C4F838359268236032
:10F4FC00C4F84425C4F84805A360E36070BD00BFA0
:10F50C0000258440D0F808C001292DE9F0471F469A
:10F51C00DCF80C5075D11668AE4239D00368012E58
:10F52C001C6923683BD1617959B3D3F80C15DFF80A
:10F53C00D8A006FA01F9D3F814E5D3F81085D3F85E
:10F54C000855CAF8089001F180090321BEF1FF3F6C
:10F55C004AF8291018BF4FF0000924791CBF0EF18E
:10F56C00800E4AF82E9064B10124AC40CAF80840D1
:10F57C00032480354AF82540002408F180084AF815
:10F58C0028400821C3F8001501211960CCF80C6043
:10F59C0017B1089B0021B8470020BDE8F087012D6A
:10F5AC00F4D15D60D3F844110029FBD00021C3F8DD
:10F5BC004411C3F8001561790029E7D04FF0020916
:10F5CC00D3F80C85D3F81415D3F810E5B1F1FF3F3F
:10F5DC00D3F808550C4B18BF803108F1800843F85C
:10F5EC00289018BF43F8219021790029CED002240D
:10F5FC000EF1800143F8214005F1800143F82140D0
:10F60C00C4E71560C4E700BF00258440002208B59C
:10F61C0011462A20FEF740F902F08AFC014B1860D3
:10F62C00002008BD9802022070B50D4B0D4C1A68D5
:10F63C000A2500262346196881420ED051B159681B
:10F64C00511AB142C4BF1C460E46013D03F10803DA
:10F65C00F1D12346013A18605A60184670BD00BFBC
:10F66C009C020220A8020220684620F007018D4669
:10F67C0019B50D4BD3E8EF2F0132C3E8E12F002968
:10F68C00F8D106F00DFE094B1C683CB9FEF71CF9CD
:10F69C00FEF728F8BDE8194085467047201D09F093
:10F6AC002FFD2468F1E700BF9C020220A00202207B
:10F6BC002DE9F04F884689B00CF0A9F9D8F8003044
:10F6CC000646002B0F4603D109F0A0FC3C206EE04F
:10F6DC00BCBF4FF0FF33C8F800300122002102A854
:10F6EC000CF02BF90DF1040A4FF02003EFF3118B02
:10F6FC0083F31188BFF36F8F09F0FCFCFFF794FFC5
:10F70C00334943680A68894693424FF0000308D195
:10F71C000193304B5A68002A4CD1C3E900AA01234B
:10F72C0000E042608BF31188BFF36F8F002B3DD04C
:10F73C00D8F8001002A809F00FFD4FF02003EFF3EA
:10F74C00118B83F31188BFF36F8F0020214B1A6844
:10F75C0052B1524539D1019988BB58681960904211
:10F76C0000D159600023019309F0C4FCFFF75CFF42
:10F77C00D9F8003043608BF31188BFF36F8FD8F842
:10F78C000090B9F1FF3F11D00CF041F916EB0902D2
:10F79C0047EBE973141A63EB0105002C75F10003B8
:10F7AC00B8BF0024C8F80040002C8FD0002009B04E
:10F7BC00BDE8F08FC2F800A0C3F804A0AFE7016069
:10F7CC005968914208BF5860CCE710461268BFE7F1
:10F7DC009C020220A00202202D2810B504460CD059
:10F7EC003FDC162809D028DC082806D009DC0228C2
:10F7FC0003D0052801D001280CD10BF0CFFA0460FE
:10F80C0010BD0C28F9D001DC0928F5E70D28F4D03F
:10F81C000E285FD001234FF00002464963F3070224
:10F82C00454B46485B1ADB0863F38F1221460AF0FE
:10F83C0050FB0BF0B3FA424B4FE0282876D005DC96
:10F84C0023284CD02528D8D01828D5E72A28D4D05E
:10F85C0049DB2B28D1D02C28DCD10BF09FFA2C23A0
:10F86C003BE03C28C9D015DC3328C6D005DC302859
:10F87C00C3D032283BD02F28BEE73628BDD001DCC0
:10F88C003428B9E73828B8D03928C3D10BF086FA18
:10F89C00392322E07D2836D010DC70282BD005DCF3
:10F8AC006928B7D10BF07AFA372316E0722826D0E4
:10F8BC007328AFD10BF072FA44230EE07F282BD0C3
:10F8CC0025DB80282DD08128A4D10BF067FA40F2DB
:10F8DC00D47302E00BF062FA0E23036090E70BF096
:10F8EC005DFA0B23F9E70BF059FA2923F5E70BF036
:10F8FC0055FA3E23F1E70BF051FA4323EDE70BF0F9
:10F90C004DFA4523E9E70BF049FA4823E5E70BF0FC
:10F91C0045FA40F2D173E0E70BF040FA40F2D273B3
:10F92C00DBE70BF03BFA40F2D373D6E70BF036FA79
:10F93C002423D2E704C001000CC0010047CC010015
:10F94C00ADBAADBA4FF08052014BC3F800217047ED
:10F95C0000E100E04FF08052014BC3F8802170476A
:10F96C0000E100E04FF00052014BC3F8002170475A
:10F97C0000E100E04FF00052014BC3F880217047CA
:10F98C0000E100E000B589B01822002102A80AF0BD
:10F99C006EFF012301934FF0FF33CDE903334FF09A
:10F9AC00805306930723002201A904488DF81C30CC
:10F9BC0008F0ECFB09B05DF804FB00BF00C20100CD
:10F9CC0008B50023084AC2E90033084AD2E8EF1F01
:10F9DC00C2E8E03F0028F9D10BF00BFAFFF7D2FF99
:10F9EC00BDE808400BF0FAB9A00202209C020220EC
:10F9FC002DE9F04107460D460C46DFF8248014B97A
:10FA0C002046BDE8F081FF2C264628BFFF26291B87
:10FA1C0032463944404608F067FCA41BEFE700BFB0
:10FA2C0000C20100B0F58D7F3CD004DC012844D02D
:10FA3C004FF0FF30704740F20223984252D040F210
:10FA4C0003239842F4D101391329F1D801A353F8B7
:10FA5C0021F000BFFDFA0000C1FA0000E1FA00003D
:10FA6C00D3FA0000E5FA0000E9FA0000EDFA000014
:10FA7C003DFA00003DFA00003DFA00003DFA00009E
:10FA8C003DFA00003DFA00003DFA00003DFA00008E
:10FA9C003DFA00003DFA00003DFA00003DFA00007E
:10FAAC00D7FA000001390529C2D8DFE801F00315A7
:10FABC0017190C21022313600AE0142905D0192907
:10FACC0005D00429B4D10423F5E71423F3E711601E
:10FADC00002070470323EEE70523ECE70623EAE753
:10FAEC000723E8E70229E5D00329F3D001299FD1A8
:10FAFC000123E0E70122034B1860036802489A7661
:10FB0C00FDF78EBBF802022008C2010008B5FDF714
:10FB1C0073F801234FF00001064A63F30701064B0B
:10FB2C0006489B1ADB0863F38F110AF0C5F9002015
:10FB3C00FEF7AAFA04C0010024C0010080CC010029
:10FB4C002DE9F0430025214C214E54F8048CDFF8AC
:10FB5C00889085B0A84503D8002005B0BDE8F08397
:10FB6C00636A96E807001F6801AB83E807000C2264
:10FB7C00194638460AF041FE90B98FB1636A216983
:10FB8C001B681A6991420BD19A69A169914207D8F5
:10FB9C00E169914204D962695B6932EA03030AD0D4
:10FBAC00276A67B10B480AF00FF9404080F31188BF
:10FBBC004FF0040002DFE36801351C44CAE74846F5
:10FBCC000AF002F9636A1F60F5E700BF3CC200004F
:10FBDC0080C001009DCC0100C6CC010020B150F8C2
:10FBEC00081B090C00F052B8704700BF014806F022
:10FBFC00D1BB00BF48C20100002310B582B00193F5
:10FC0C0061B970B1044601AA092006F0FBFD18B9D0
:10FC1C00019B0BB10833236002B010BD0F2002B062
:10FC2C0010BD0E2002B010BD01F47043B3F5E04FCF
:10FC3C000BD160B1034630F8082C092042EA01418F
:10FC4C0043F8081D194606F0C5BD0F2070470E205D
:10FC5C00704700BF20B1A0F10801092006F004BED6
:10FC6C000E20704718B10146092006F00FBF0E2078
:10FC7C00704700BF10B504460068FFF7F3FFA0689B
:10FC8C0018B1BDE8104001F035B910BD30B53B4B93
:10FC9C0085B01D68002D4CD048F20203994253D018
:10FCAC001CD948F2030399425AD049F201039942F4
:10FCBC0047D1002443680268CDE90244CDE9002312
:10FCCC00E869694603685B68984701304ED0204666
:10FCDC002B6843F480332B6005B030BD48F2010330
:10FCEC0099422ED1C368002B35D1286810F48000BE
:10FCFC003ED02B689BB2012B05D12B681B0C1B042F
:10FD0C0043F002032B601E4B1A7802F0FF01002A0D
:10FD1C0031D01C4A117809B90121117000201870DA
:10FD2C002B6823F480032B602B6843F400032B60B7
:10FD3C00D2E700680028CFD0FFF794FF284605B023
:10FD4C0030BD002005B030BD2B6813F480030BD000
:10FD5C00C0680028E4D00E2300206B6005B030BDD5
:10FD6C00C368012BA5D1F6E71846B5E70220B3E727
:10FD7C000E236B60B0E7034A1170CFE7000302203B
:10FD8C001851022019510220002310B50749084AC6
:10FD9C00084C0948237003600B701360FFF726FFB3
:10FDAC00003018BF0120404210BD00BF1851022086
:10FDBC00FC020220195102200003022000232DE92D
:10FDCC00F047662882B0009372D1022989466FD120
:10FDDC0040F205239A4292466AD1484F3D68002D65
:10FDEC007CD18046464A684606F072F8009B06466F
:10FDFC00002B7DD02946042242483B600AF037FD97
:10FE0C00009C2946C4E90389C4F814A001A8FFF793
:10FE1C00F3FE00283CD101220421019B3A4D58737A
:10FE2C009873D87358729872D87219722A701A73A0
:10FE3C002268184642F48002226047F20101FFF763
:10FE4C00F3FE38BB4FF400024FF0FF33114630463F
:10FE5C0006F0F0F8044610B3009A002E136843F431
:10FE6C0000331360009A136823F480031360009A24
:10FE7C00136823F40003136036DA002320463B603A
:10FE8C004FF0FF36FFF7A8FC304602B0BDE8F08714
:10FE9C000C24E1E70198FFF7DDFE0524DCE7304692
:10FEAC0006F03CF950B1446844B100234360D3E7F9
:10FEBC001620FFF791FC4FF0FF36E5E7009A136828
:10FECC0043F400331360009A136823F48003136027
:10FEDC00009A136823F400031360D5E70120FFF7A1
:10FEEC007BFC4FF0FF36CFE7304606F055F8C4E701
:10FEFC001820FFF771FC4FF0FF36C5E70003022016
:10FF0C0081FC0000FC020220185102202DE9F04374
:10FF1C0085B0002968D0002A174665DD1D4680464D
:10FF2C000E4606F0FBF80446002863D04DBBE06992
:10FF3C00AA070368DB682DD59847013044D02368A5
:10FF4C00E06913F4803341D0002123682A4623F45E
:10FF5C0080332360CDE90211CDE90067036869465F
:10FF6C009B6898470546E0690368DB689847013051
:10FF7C0003D0236843F480332360284605B0BDE8E2
:10FF8C00F08315F00A0FD2D12D20FFF725FC4FF08E
:10FF9C00FF35F2E7226812F08059CDD19847431C07
:10FFAC00CDD14FF48032236A1146002B08BF034693
:10FFBC00404606F03FF858B14FF0FF35FFF70CFC08
:10FFCC00284605B0BDE8F0832320F5E71D46CBE7B6
:10FFDC00404606F0A3F803460028B0D0406800283D
:10FFEC00ADD0C3F80490E7E71620FFF7F5FB4FF010
:04FFFC00FF35C2E724
:020000021000EC
:100000000920FFF7EFFB4FF0FF35BCE72DE9F0418A
:1000100082B000295ED0042A5CD11E4607460D46F8
:1000200006F082F80446002870D0E6B1B00767D524
:1000300023689B0360D500262368002123F4003346
:10004000236001A8D5F80080FFF7DCFD98B10C20F3
:10005000236843F400332360FFF7C4FB4FF0FF3005
:1000600002B0BDE8F0810368D900E1D403689A03C7
:1000700044D50126E0E70425019B47F20301C3F8BC
:100080000C8058729872D8721D721846FFF7D2FD14
:100090008046B0B93EB92846236843F40033236054
:1000A00002B0BDE8F0814FF480324FF0FF331146CB
:1000B000384605F0C5FF98B1236843F40033236048
:1000C000CAE70198FFF7CCFD2368052043F400330D
:1000D0002360C1E71620FFF785FB4FF0FF30BFE735
:1000E000384606F021F803460028D4D0406800289E
:1000F000D1D0C3F80480DFE77320ADE70920ABE778
:100100002D20FFF76FFB4FF0FF30A9E70920FFF725
:1001100069FB4FF0FF30A3E7F0B5012985B068D047
:100120001E4640F20523994240F095800746154649
:1001300005F0FAFF0446002800F0B280012D19D026
:10014000022D10D02A25036823F48003236023683E
:10015000284623F400032360FFF744FB4FF0FF35EC
:10016000284605B0F0BD16B10A9B012B49D0236883
:100170001625E9E7002EFAD00A9B042BF7D10021BF
:1001800003A8FFF73FFD054600286AD1039808221F
:1001900029460C300AF071FB039831460A9A0C305C
:1001A0000AF041FB0823039847F2020103724572EB
:1001B0008572C572236843F480032360FFF73AFD1C
:1001C000002851D14FF400024FF0FF33114638465A
:1001D00005F036FF054600283BD1384605F0A4FF60
:1001E00000284FD04368002B4CD000221D464260AF
:1001F0002FE00A9C009405F0BFFF0546284605B095
:10020000F0BD002103A83578FFF7FCFC48BB012DA9
:1002100008BF264B4FF0040208BF1D70002303984F
:1002200047F201014372C5608372C3720272236890
:1002300043F480032360FFF7FDFC0646A0B94FF4AA
:1002400000024FF0FF331146384605F0F9FE05462F
:1002500080B1236878E72A20FFF7C4FA4FF0FF3512
:100260007EE723680C256FE70398FFF7F9FC052567
:10027000236869E7384605F057FF40B1456835B156
:100280004660E6E73146042209480AF0CCFA2368C2
:1002900023F480032360236823F4000323605FE7D3
:1002A0000920FFF79FFA4FF0FF3559E71851022058
:1002B000FC020220F0B5012983B0089E30D01F4611
:1002C00040F20523994234D1154605F02DFF002850
:1002D00037D0012D15D0022D0BD187B3336873B3FE
:1002E0000023012218461A4909783970326003B098
:1002F000F0BD0920FFF776FA4FF0FF33184603B040
:10030000F0BDE7B13368032B19D9384604221149EF
:100310000AF089FA002304221846326003B0F0BDC7
:10032000009605F06BFF03460028E3D1184603B0A2
:10033000F0BD2A20FFF756FA4FF0FF33DEE7162014
:10034000D8E70920FFF74EFA4FF0FF33D6E700BF9A
:1003500019510220FC02022010B5044605F0E4FE0B
:1003600038B1204605F01EFE0023054A18461360EA
:1003700010BD0920FFF736FA4FF0FF3010BD00BF67
:1003800000030220006804F0F1B900BF2DE9F0413C
:1003900082B0089C002C5BD10F4615469846064655
:1003A00005F0C2FE0446B8F1000F2BD1002855D04D
:1003B00003689B0352D50368294623F40033036086
:1003C000036801A843F40013236004F0A5F908BBF7
:1003D0000422019B1A7258729872D872DE60FDB9BD
:1003E0001846012104F0ACF948BB4FF40032304606
:1003F00011464FF0FF3305F023FE60B9284602B0E6
:10040000BDE8F08160B303682D20FFF7EBF94FF0F2
:10041000FF30F4E70C20236843F400332360F4E753
:10042000394618682A460AF0FEF90121019804F0BD
:1004300087F90028D9D0019B186804F097F9019832
:1004400004F08CF92368232043F400332360DCE7B5
:100450003820FFF7C7F94FF0FF30D0E71620D4E778
:100460002D20D2E704F052B92DE9F041002682B0E8
:10047000022900963ED1804617466846204A0C461F
:1004800005F02CFD009B05460BB3C3E903845F61B7
:10049000314601A804F040F950BB0422019B05211C
:1004A00058729872D8721A72DD60184604F048F9D2
:1004B00088B9224621464FF0FF33284605F0C0FD9B
:1004C000044660B9009A136843F400331360284669
:1004D00002B0BDE8F081019804F040F923242846D9
:1004E00005F060FD2046FFF77DF94FF0FF35EEE7A0
:1004F0000C24F4E72920FFF775F94FF0FF35E6E704
:1005000085030100F0B583B0064605F00DFE002816
:100510003DD00D2307680360036804469B031FD486
:10052000002101A804F0F8F820BB0422019B062159
:1005300058729872D8721A72DE60184604F000F988
:10054000D0B90E224FF0FF331146304605F078FD4A
:100550000546A8B9304605F025FD284603B0F0BD94
:100560000368002123F40033036001A804F0D4F8E9
:100570000028DAD00C2503E0019804F0EFF82325D9
:1005800027602846FFF72EF94FF0FF35E5E71625DF
:10059000F7E700BF2DE9F04184B0884615461E46B6
:1005A000074605F0C1FD002843D000230446CDE9ED
:1005B0000085CDE902332EBB16F002050DD028E0F0
:1005C000CDB94FF48032236A1146002B08BF4FF09B
:1005D000FF33384605F034FD05462368E06923F40F
:1005E00080332360036832469B6869469847B0F1C0
:1005F0000008E5DB15B12846FFF7F4F8404604B0E3
:10060000BDE8F08116F00A0FD6D12D254FF0FF3846
:10061000F1E72368E06923F48033236003683246FE
:100620009B6869469847B0F1FF3F8046E6D1232595
:10063000E1E716254FF0FF38DDE700BF05F0DEBD2E
:1006400005F09ABD70B5064684B0C0680D4605F049
:100650006BFD044648B303689BB2012B1FD00368AF
:100660009BB20D2B29D003689BB2022B2DD0033DEA
:10067000012D17D8002573683268CDE90255CDE900
:100680000023E069694603685B689847013019D028
:100690002846236843F48033236004B070BD022DE4
:1006A000E5D10560002004B070BD30680028F9D0A5
:1006B00004F05CF8204604B070BD022DD7D10E23A3
:1006C0000360EFE7022004B070BD03689B02CED543
:1006D000022DCCD1036823F400130360036843F4B4
:1006E00000330360DEE700BF50F8081B090C01F07F
:1006F00025B900BF014805F053BE00BF58C2010034
:10070000002310B582B0019358B1044601AA062017
:1007100006F07EF818B9019B0BB10833236002B0D4
:1007200010BD072002B010BD11F4704F0BD160B1A5
:10073000034630F8082C062042EA014143F8081D20
:10074000194606F04DB80F2070470720704700BFCC
:1007500020B1A0F10801062006F08CB807207047F0
:1007600018B10146062006F097B90720704700BF70
:100770002DE9F04FDFF8CCC083B000900CF13C0BBA
:10078000DCF808302BB1DCF80020009C1078A04287
:1007900006D00CF10C0CE345F2D103B0BDE8F08FAC
:1007A000DCF804A003EB0A08C245F2D25368CDF886
:1007B00004C0D6469C46D2F810909789AEEB0A004A
:1007C000DFB3B9F8022090421CD36546002409F13A
:1007D000040303E05A880433824215D833F8046CCA
:1007E0000134A74202FB0655A0EB02001E46F1D1E0
:1007F000002081420DD00EF1010EF045DED1DDF872
:1008000004C0C6E765464E46338800FB035081426C
:10081000F1D1BEF5007FDDF804C0BAD00123084A4B
:100820004FEA5E1152F821000EF01F0E03FA0EFE81
:100830004EEA000042F82100AFE73846D9E700BF92
:100840000403022048030220002850D06D4BD3F847
:10085000882090424BD82DE9F04FD3F88CB083B06C
:10086000BBF1000F54D00BF1FF32914600264FF040
:100870001208654F01920BF1110E06EB090253F8B5
:1008800038400132520804EB440C02F1120153F8D3
:10089000315057F82CA053F83E4003EBC80CDCF85D
:1008A00004C005EB450504EB4404DAF810A057F842
:1008B000255057F824403AF82CA003EBC10103EB74
:1008C000CE0C49682D692469DCF804C0504535F820
:1008D000215034F82C1015D9884211D2A84208D9D9
:1008E000561CB145C0F0878002F11308C5E700200F
:1008F000704702F1FF394E457DD802F1110EBCE779
:1009000009F10106B34507D0102E01D0B34508D830
:10091000002003B0BDE8F08F019A102A18BF1646D8
:10092000F6D0DFF8E8C003EBC608D8E9242402EBD0
:10093000420257F8223007EB8202D2F804E01D6928
:10094000002C56D02A467046A40005EB04095188B5
:10095000043291450844FAD12919B1F802A0824421
:10096000824518D941095CF8212000F01F0422FAC1
:1009700004F919F0010F07D013E05CF8212022FAE6
:1009800004F919F0010F0CD1013082454FEA5011E2
:1009900000F01F04F1D101365E4508F10808C4D308
:1009A000B6E7012606FA04F49E8922EA0402A0EBC7
:1009B0000E004CF821205C68002EA9D06A88824283
:1009C00011D800212B1D03E05A88043382420AD833
:1009D00033F8045C01318E4202FB0544A0EB0200B7
:1009E0001D46F1D194E72B8800FB034003B0BDE81E
:1009F000F08F7046B0E7BBF1100F08BF0F2690D004
:100A000086E700BF8403022048030220040302207B
:100A100000284CD06B4B1A68904248D82DE9F04F13
:100A20005F6883B00097002F51D07A1E9646002150
:100A30004FF0010C644C019201EB0E02013253F8AD
:100A40003C50520802F1010805EB450553F8379078
:100A500054F825A053F8386009EB490503EBCC099D
:100A6000D9F8049006EB4606DAF810A054F8266090
:100A700054F825503AF829A003EBC80B03EBC7093B
:100A80003669DBF804B02D69D9F80490504536F882
:100A90002B6035F8295013D9A84210D2B04208D99A
:100AA000C6454146C0F0878008F1010CC4E700202C
:100AB000704702F1FF3E71457DD81746BCE73946C5
:100AC000009A8A4207D0102901D08A4208D8002013
:100AD00003B0BDE8F08F019A102A18BF1146F6D076
:100AE000DFF8E8C0DDF8009003EBC108D8E9022682
:100AF00002EB420254F8223004EB8202D2F804E006
:100B00001F69002E55D03A467046B60007EB060A1C
:100B10005588043292452844FAD1BD19B5F802B07F
:100B20008344834518D945095CF8252000F01F0649
:100B300022FA06FA1AF0010F07D013E05CF825201C
:100B400022FA06FA1AF0010F0CD1013083454FEA60
:100B5000501500F01F06F1D10131494508F1080890
:100B6000C4D3B4E70121B1409E8922EA0102A0EB7F
:100B70000E004CF825205C68002EA8D07A888242AE
:100B800011D800213B1D03E05A88043382420AD861
:100B900033F8045C01318E42A0EB020002FB0544F5
:100BA0001F46F1D193E73B8800FB034003B0BDE84B
:100BB000F08F7046B1E7009A102A08BF0F218FD03E
:100BC00085E700BF840302204803022004030220BB
:100BD00070B5002201253348510950F8214002F038
:100BE0001F0305FA03F301322343B2F5007F40F8F7
:100BF0002130F1D100242C4B21463C222B481C6093
:100C000009F03BFE10210522294B2A4EC3E900447E
:100C1000D9605961D9615962D9625963D9635964FC
:100C2000D9645965D9655966D9665967D9679A6093
:100C30001A619A611A629A621A639A631A649A64D0
:100C40001A659A651A669A661A679A67C3E9202137
:100C5000C3E92244C3E92421C3E92621C3E92821A9
:100C6000C3E92A21C3E92C21C3E92E21C3E930219C
:100C7000C3E93221C3E93421C3E93621C3E938216C
:100C8000C3E93A21C3E93C21C3E93E21C3F8041179
:100C9000C3F80021C3F80C11C3F8082120463570B1
:100CA00070BD00BF04030220440302204803022059
:100CB000840302201A5102202DE9F04F874B87B0A0
:100CC0001B78002B00F08C8028B321B30B78DFF861
:100CD000188203EB031308EBC3035B68B1F80CC085
:100CE0006344102B11D84FF0000A89467C4B7D4F8E
:100CF0001B684FEA8C0E0093B96891B10AF1010AA2
:100D0000BAF1050F07F10C07F6D148F2071B584658
:100D100007B0BDE8F08F48F20E1B584607B0BDE89B
:100D2000F08FBCF1000F61D00D460C46D9F81030A1
:100D30000EEB030B5A8833F8046B15449B4502FBFA
:100D40000644F7D1D9F80830A342D7D3009B2B44EF
:100D5000B3F5007FD2D2634C0AEB4A029200C0F88E
:100D600000A0A01844F80290009A8B46C0E9012523
:100D700099F801205A48012A0360C8D0B9F80C300C
:100D8000002BC4D00025CDF80490CDF80CA0CDF8F0
:100D900014B0019B1F781A693B0103EB070900930C
:100DA00008EBC903596832F82540029139BB039A10
:100DB000DD609A60009B3B441F4608EBC3014B6813
:100DC00058F83720013394424B6012D9019B48F800
:100DD00037409B8901359D42DBD3DDF814B096E79F
:100DE00048F2081B584607B0BDE8F08F009B6546E7
:100DF000AEE7019B01359B89AB42CAD8EDE70026DF
:100E000001F1FF3A049506EB0A0009EB06020132F4
:100E1000013058F832C04008324D09EB000109EBAF
:100E20000A03013101330CEB4C0C58F831E055F852
:100E30002CB058F833C008EBC2020EEB4E0E0CEB90
:100E40004C0CDBF810B0526855F82EE055F82CC069
:100E500008EBC10108EBC3033BF82220DEF810E0E9
:100E60004968DCF810C05B6894423EF821103CF8F9
:100E700023302DD99C422DD28C4224D9461CB24518
:100E8000C1D21026049D029AB24211D9009B3B4464
:100E90001A44334408EBC20A08EBC309082251463E
:100EA0000AEB0200AAF1080A09F0BDFCD145F5D110
:100EB000009B03993B443344013308EBC30248F8D9
:100EC0003310556076E700F1FF3A56459BD9D8E7D5
:100ED000049DD8E7049D0AF10106D4E71A510220C7
:100EE000440302204803022084030220034B1B78A2
:100EF0000BB1FFF78DBD1846704700BF1A51022095
:100F0000044B1B7823B118B101460020FFF730BC19
:100F1000704700BF1A510220034B1B780BB1FFF73B
:100F200093BC1846704700BF1A510220044B1B782F
:100F300023B118B101460120FFF71ABC704700BF6A
:100F40001A51022050F8081B090C04F035BD00BFEF
:100F5000014805F025BA00BF68C20100002310B5A2
:100F600082B0019358B1044601AA042005F050FC58
:100F700018B9019B0BB10833236002B010BD0720E4
:100F800002B010BD01F47043B3F5E04F0BD160B176
:100F9000034630F8082C042042EA014143F8081DBA
:100FA000194605F01DBC0F2070470720704700BF91
:100FB00020B1A0F10801042005F05CBC07207047B7
:100FC00018B10146042005F067BD0720704700BF37
:100FD0002DE9F0470C460B68464F23F400330B60B5
:100FE0000B68C60023F480130B6007EB060A82B07F
:100FF000DAF80430896947F281020546D4F80080A6
:1010000003F0D2FB00286FD0DAF804208146002AD2
:101010005FD1394B711903EB8101242209F11400CE
:1010200009F001FCD9F8083049462433C9F80830E2
:1010300022684346120C120442F00A022260204643
:1010400047F2810203F0D0FB034670B92368DB004E
:101050000FD44FF0FF334FF6FF720B21284603F0F9
:10106000D7FB034650B1C4F80080184602B0BDE873
:10107000F0877323184602B0BDE8F0874FF0806216
:101080004FF0FF331146284603F0C2FB034630BB46
:1010900057F8350038B10193FFF732FF019B3E440A
:1010A000736047F835301846226822F0806222606B
:1010B0002268120C120442F00C022260226842F4F0
:1010C00000322260226842F48012226002B0BDE841
:1010D000F08757F83510006809F0A5FB99E7732BE6
:1010E000C3D0C4F80080C0E70C23184602B0BDE8A6
:1010F000F08700BFD805022094040220002070472A
:1011000038B54B1E012B08D8144662B101292DD0E9
:10111000B2F5877F08BF02220DD02920FEF762FBBF
:101120004FF0FF3520E001290BBF012202224FF4CE
:1011300082744FF4877403F097FB051E1BDB0F4B83
:1011400005EBC50003EB800024220D4909F06BFB81
:10115000284604F0E9FF0368446123F48013036028
:10116000036823F400330360284638BDB2F5827F5C
:10117000D3D10A46DFE74FF0FF35F5E794040220AC
:1011800078C2010038B5044604F0CEFF80B10B4DA3
:1011900055F8340038B1FFF7B3FE002305EBC40265
:1011A00045F8343053602046BDE8384003F00EBCAB
:1011B0000920FEF717FB4FF0FF3038BDD80502209D
:1011C0002DE9F0470D46DDE9088916461F4604461D
:1011D00004F0AAFF00283BD003689BB20C2B39D047
:1011E00003689BB20B2B11D1204B04EBC40413F802
:1011F0002430022B38D00369012B14BF39202A2058
:10120000FEF7F0FA4FF0FF30BDE8F0870369012BDD
:101210000BD0022B01D03920F2E703689BB2022BDE
:1012200007D003689BB2042B03D003689BB2052B45
:10123000F1D10E4B04EBC40213F82230022BEAD199
:1012400001462046FFF7C4FE002803D0D8DCD9E7CA
:101250000920D5E7CDE908893B4632462946204694
:10126000BDE8F04703F022BC2320C9E79404022024
:101270002DE9F0470D46DDE9088916461F4604466C
:1012800004F052FF002838D003689BB20C2B0FD01B
:1012900003689BB20D2B0BD00369012B1AD0022BD4
:1012A00010D02320FEF79EFA4FF0FF30BDE8F08704
:1012B000CDE908893B46324629462046BDE8F0473D
:1012C00003F06CBD03689BB2022B07D003689BB28E
:1012D000042B03D003689BB2052BE2D1084B04EB2F
:1012E000C40213F82230022BDBD101462046FFF75F
:1012F0006FFE0028DCD0D5DCD6E70920D2E700BF9E
:10130000940402202DE9F84F0C461746064604F0D7
:101310000BFF00286DD0036805469BB2022B5AD103
:1013200021463A46304603F027FF0446002848D1BC
:10133000F700DFF8C480BB1918F82330012B02D066
:101340002046BDE8F88FDFF8B4B047F281020BEB1E
:10135000070ADAF80430A969304603F025FA814615
:10136000002844D0DAF80420002A3AD1B91908EB51
:101370008101242209F1140009F055FAD9F8083046
:1013800049462433C9F808302A680423120C120491
:1013900042F00A022A60284647F2810203F024FA4A
:1013A000E8B92B68DB0018D430464FF0FF334FF616
:1013B000FF720B2103F02CFA0028C1D0042304464D
:1013C0002B60002CBCDD20464FF0FF34FEF70AFAFC
:1013D0002046BDE8F88F2D24F5E77324F3E7044693
:1013E000EFE75BF83610006809F01DFABEE70C2441
:1013F000E9E70924E7E700BF94040220D8050220AA
:10140000F8B50E461746044604F08EFEE8B1134BBD
:1014100004EBC40213F82230022B1CD103680546EA
:101420009BB2022B03D003689BB2042B13D13A4624
:101430003146204603F0E6FD10B1002806DCF8BD79
:1014400029462046FFF7C4FDF7E70920FEF7CAF951
:101450004FF0FF30F8BD2D20F8E700BF94040220C4
:101460002DE9F04F83B00191054604F05DFE0028A0
:1014700079D003690446012B73D103689BB2042B16
:101480005FD023689BB20B2B6BD1EE00374F7319E3
:1014900017F82330012B64D10122DFF8D49073199F
:1014A000EE0007F8232009EB0608A169D8F80430FC
:1014B00047F281022846D4F800A003F075F983466C
:1014C00000284CD0D8F80420002A42D1711907EB2B
:1014D000810124220BF1140009F0A5F9DBF80820A2
:1014E00059462432CBF8082022685346120C1204C5
:1014F00042F00A022260204647F2810203F074F9AA
:1015000068B92368DB000FD44FF0FF334FF6FF724A
:101510000B21284603F07CF970B1C4F800A0002824
:1015200003DC03B0BDE8F08F7320FEF75BF94FF0EA
:10153000FF3003B0BDE8F08F0199284603F0BCFEF0
:10154000EDE7EE00094F731917F82330022B98D1FD
:10155000A2E759F83510006809F065F9B6E70C20E4
:10156000E3E72D20E1E70920DFE700BF9404022034
:10157000D8050220F8B50C4616461F46054604F06D
:10158000D3FD00283BD0006880B2062837D1214621
:101590003B463246284603F005FF044618B1002CAE
:1015A0002EDC2046F8BD284604F0BEFD0368184F27
:1015B00023F400330360036805EBC50523F48013AF
:1015C0000646036007EB85012422384609F02BF913
:1015D00002233B70336820461B0C1B0443F00B03B3
:1015E00033604FF6FF724FF0FF330C2103F010F918
:1015F00004460028D5D0002003F0E8F9CFE70924FD
:1016000020464FF0FF34FEF7EDF82046F8BD00BF4E
:10161000940402202DE9F041B1F58D7F069E1ED184
:101620001F460546002B00F08C80904604F07CFDA0
:1016300000287BD00468A4B2022C07D003689BB2B8
:10164000042B03D003689BB2052B6FD108F1FF3246
:10165000042A7CD8DFE802F0244E32410700BDE8BE
:10166000F04103F0D7BF3B4C54F8350038B1FFF7D9
:1016700047FC002204EBC50344F835205A6030468D
:101680004EB3FFF733FC44F83500002857D004EB85
:10169000C50432463946666009F0C5F800201AE0F4
:1016A000042E4AD13868002839D0012845D12A4A69
:1016B00005EBC50402F8240000200CE0012E3CD10B
:1016C0003A780020003218BF0122234B05EBC504F5
:1016D00003EB84046270BDE8F081042E2DD13A68DA
:1016E000022A2AD81C4B05EBC50403EB8404A27024
:1016F0000020F0E75FEA960C1FD016F003041CD11F
:1017000005EBC505AD00144B281D18442B4432468B
:10171000394683F803C009F086F82046DBE702214A
:101720000D4A05EBC50402F82410D4E70920FEF7A2
:1017300059F84FF0FF30BDE8F0811620F7E70C2094
:10174000F5E70E20FEF74EF84FF0FF30C3E72A20F2
:10175000EDE700BFD8050220940402202DE9F041F6
:10176000B1F58D7F069F12D11D466BB167B106465C
:10177000144604F0D9FC00284FD0013C032C52D869
:10178000DFE804F0392115090E20BDE8F081BDE83D
:10179000F04103F0FBBF3B68042B3CD1234B06EB2D
:1017A000C60603EB8606B37800202B60EDE73B68A6
:1017B000012B30D11D4B06EBC60603EB8606737872
:1017C00000202B70E1E706EBC60618493B68B6001F
:1017D0008A1913F00304D07821D19B08834228BFD3
:1017E00003469A00DBB1043631443A60284609F0DA
:1017F0001AF82046C9E73B68042B0CD10B4B06EBCB
:10180000C60613F826300020A3F10103B3FA83F3D0
:101810005B092B60B9E71620B7E70920B5E7002878
:10182000F9D13860B1E72A20AFE700BF9404022065
:10183000F8B548F28105AB420C4662D049F282010C
:101840008B4206462ED048F202018B4201D0012085
:10185000F8BD002CFBD06369B3F5827F02D0B3F5ED
:10186000877FF4D1236823F0005323605569002D4E
:1018700056D123681B0C1B0443F005032360236827
:10188000DA000DD52B4B06EBC60213F82230022BE3
:1018900006D130462146FFF79BFB08B1732842D1A1
:1018A0000020F8BD002CFBD023689BB20B2BF7D196
:1018B0001569002D34D1236843F0806323602368C9
:1018C000DB00EDD51C4F57F8300030B1FFF718FBA7
:1018D00007EBC60347F836505D602368002023F00D
:1018E0008063236023681B0C1B0443F00C032360FC
:1018F000236843F400332360236843F48013236098
:10190000F8BD0029CCD00B689BB20A2BC8D1506916
:1019100038B90B681B0C1B0443F00B030B60F8BDBC
:10192000284602F037FF60602368002043F48023DC
:101930002360F8BD94040220D805022008B5084AA7
:10194000C16812880346B2EB114F05D0006810B190
:10195000FEF706FF002008BD024A0120136008BD03
:10196000C84C022024060220002310B5084809496B
:10197000094A0A4C03800B6013602360FEF7BAFE2D
:1019800010B90123236010BD4FF0FF3010BD00BF20
:10199000C84C02202406022020060220180602203D
:1019A00008B5074B1A68012A03D102221A600548BC
:1019B00008BD0120FDF716FF4FF0FF3008BD00BF46
:1019C0001806022032547649F0B5324C83B02368B1
:1019D0009A1E012A57D8032B04D00123002023602C
:1019E00003B0F0BD00216846FEF78AFE03460028DA
:1019F0003DD10421284E009832880172013292B202
:101A0000110441F00601254DC160037143718371DA
:101A1000C37143728372C372062132802B60FEF75A
:101A200083FED8B94FF0FF3302AE274646F8043D97
:101A300004E031463846FDF741FEF0B92868002839
:101A4000F7D00569FEF784FE002DC6D0144B0820A0
:101A50001D60FDF7C7FE4FF0FF30C1E70098036837
:101A60001BB11846FEF77CFE0098FEF771FE0C20B5
:101A7000FDF7B8FE4FF0FF30B2E73C20FDF7B2FEB5
:101A80004FF0FF30ACE70120FDF7ACFE4FF0FF3028
:101A9000A6E700BF18060220C84C02202406022038
:101AA0001C0602202DE9F047644E0F4631681546AA
:101AB0008A1E012A82B000F2B480002F00F0A580B7
:101AC000002D00F0A280002B40F0B1800A9B002B7B
