:020000040000FA
:10000000C853002045230000BD600000D522000039
:10001000D5220000D5220000D5220000D522000004
:10002000D5220000D5220000D52200005D2200006C
:10003000D5220000D522000009220000C55F000083
:100040001D2300001D2300001D2300001D230000B0
:100050001D2300001D2300001D2300001D230000A0
:100060001D2300001D2300001D2300001D23000090
:100070001D2300001D2300001D2300001D23000080
:100080001D2300001D2300001D2300001D23000070
:100090001D2300001D2300001D2300001D23000060
:1000A0001D2300001D2300001D2300001D23000050
:1000B0001D2300001D2300001D2300001D23000040
:1000C0001D2300001D2300001D2300001D23000030
:1000D0001D2300001D2300001D2300001D23000020
:1000E0001D2300001D2300001D2300001D23000010
:1000F0001D2300001D2300001D2300001D23000000
:100100001D2300001D2300001D2300001D230000EF
:100110001D2300001D2300001D2300001D230000DF
:100120001D2300001D2300001D2300001D230000CF
:100130001D2300001D2300001D2300001D230000BF
:100140001D23000053B94AB9002908BF00281CBF6D
:100150004FF0FF314FF0FF3000F070B9ADF1080CF7
:100160006DE904CE00F006F8DDF804E0DDE90223D5
:1001700004B070472DE9F04F099E04468946002BD4
:1001800040F083808A42154645D9B2FA82F24AB1DC
:10019000C2F1200701FA02F39540944020FA07F7D4
:1001A00047EA03094FEA154E230C1FFA85F8B9FBFD
:1001B000FEFC0EFB1C990CFB08F143EA0943994233
:1001C0000AD9EB182CBF01200020994202D900283F
:1001D00000F01D810CF1FF3C591AA3B2B1FBFEF0F7
:1001E0000EFB101100FB08F843EA0144A04505D9B5
:1001F0002C1902D2A04500F20E810138A4EB0804AC
:1002000040EA0C4000271EB1D4400023C6E9004359
:100210003946BDE8F08F002A51D0B2FA82F2002AA6
:1002200040F0AF80491B4FEA154E1FFA85F80127B1
:10023000230CB1FBFEFC0EFB1C1108FB0CF043EA87
:10024000014398420AD9EB182CBF012100219842A2
:1002500002D9002900F0D7800CF1FF3C191AA3B293
:10026000B1FBFEF00EFB101108FB00F843EA01445D
:10027000A04505D92C1902D2A04500F2C180013851
:10028000A4EB080440EA0C40BDE78B4208D9002EDD
:1002900074D00027C6E9000138463946BDE8F08F22
:1002A000B3FA83F767B98B42C0F0A480824240F270
:1002B000A1803846002EABD0C6E90049A8E7FFDE92
:1002C000C7F12005BB4002FA07FC01FA07F4EA4037
:1002D00020FA05F8E94000FA07FE1A4348EA040448
:1002E0004FEA1248200C1FFA82F9B1FBF8FA08FB1A
:1002F0001A110AFB09FB40EA01418B450AD9511842
:100300002CBF012300238B4502D9002B00F08880ED
:100310000AF1FF3AA1EB0B01A4B2B1FBF8F008FB24
:10032000101100FB09F944EA0141894504D951182B
:1003300001D289457BD8013840EA0A40A1EB090186
:10034000A0FB0C89494544464B4602D306D1C6451D
:1003500004D20138B8EB0C0469EB0203002E5DD027
:10036000BEEB040261EB030101FA05F522FA07F383
:10037000F94000271D43C6E9005149E7374630469A
:1003800046E7C2F12000954001FA02F721FA00F396
:100390004FEA154E24FA00F11FFA85F894403943CC
:1003A000B3FBFEF00F0C0EFB103300FB08FC47EA1A
:1003B00003439C4507D9EB182CBF012700279C4518
:1003C00000D98FB30138A3EB0C0389B2B3FBFEF75E
:1003D0000EFB173307FB08FC41EA03418C4504D9A7
:1003E000691801D28C4525D8013FA1EB0C0147EAE1
:1003F00000471DE7841A61EB03030120994659E782
:1004000002382C443CE7ACF1020C2B4426E7ACF15B
:10041000020C2B44E0E602382C44EFE63746F7E6C0
:10042000AAF1020A114475E702382B44CBE70238DF
:10043000114481E7023F2944D7E700BF704700BF5E
:1004400030B585B04FF00000032363F302006FF373
:10045000C5003E4B3E4A9B1AC3F3C90363F38F109A
:100460003C4905F0FBFA00F0B5F83B4800F082F893
:10047000B8B14FF48031002002F0E8FD10B34FF026
:100480000000012363F302006FF3C5002F4B304AD5
:100490009B1AC3F3C90363F38F10304905F0DEFAEA
:1004A000FEE7012363F302006FF3C500274B284AE0
:1004B0009B1AC3F3C90363F38F10274A284905F039
:1004C000CDFAFEE701A800F031FB88B14FF0000043
:1004D000012363F302006FF3C5001C4B1C4A9B1AF7
:1004E000C3F3C90363F38F101E4905F0B7FAFEE7A3
:1004F00003254FF0000065F302006FF3C500134CB5
:10050000134BE41AC4F3C90464F38F10039A164919
:1005100005F0A4FA4FF0000065F302006FF3C50088
:1005200064F38F10114905F099FA01A804F0E4FA78
:100530004FF00000012363F302006FF3C50064F382
:100540008F100B4905F08AFAFEE700BF988500007E
:1005500090850000E8850000FC8500002C860000E6
:10056000108600005C8600007C860000A8860000E3
:10057000C886000008B5054B1B6813B1034B18680B
:1005800008BD03F0EBFD014B1860F7E70800002001
:1005900010B900200860704708B502464FF000000F
:1005A000012363F302006FF3C500074B07495B1A91
:1005B000C3F3C90363F38F100023054905F04EFA16
:1005C0006FF0150008BD00BF988500009085000001
:1005D000E886000008B54FF4C051024803F052F815
:1005E00008BD00BF0C00002002680E4B9A420DD1DE
:1005F000C2680389D84382420CD810B4D4180120B1
:1006000010B18B68A34203D910BC7047002070471B
:100610000020F9E7002010B18B68A34200D9704791
:10062000002070473DB8F39600B587B000200490D5
:10063000039002904FF480730193074B009313468D
:100640000A46014600F0B4FE034618B9184607B042
:100650005DF804FB0323F9E76C2400202DE9F04149
:1006600082B005460C461746002004F063FA01A943
:10067000C0B201F065FB28B14FF0FF35284602B04B
:10068000BDE8F0812C2000FB04562146284604F0EA
:10069000CFFA88B3336913F0100F32D1DDF804803C
:1006A00041463046FFF7A0FFA8B9ECB94FF0000073
:1006B000012363F302006FF3C500134B134A9B1A27
:1006C000C3F3C90363F38F10A4B9114A114905F0AC
:1006D000C5F9012511E03B46424631462846FFF761
:1006E000A3FF054648B1E0E701988268002105F0C4
:1006F000ECFADBE7084AE9E70125019805F095FAED
:10070000BCE70125F9E700BF98850000908500004F
:10071000E8870000F0870000DC87000030B583B078
:1007200005460C46002300930193084604F020FB85
:1007300030B32A681F4B9A4216D0EA6A1D4B9A4280
:1007400018D0019B009A934200D90093009BA360AC
:10075000009A2146284600F08DFC174B1A68002AA3
:1007600016DC002003B030BD6A460021284604F0A4
:1007700008FAE2E701AA0121284604F002FAE0E7BC
:1007800004F10801002004F02AFDA3680093DFE7CC
:100790004FF00000022363F302006FF3C500074B24
:1007A00007495B1AC3F3C90363F38F10054905F0CA
:1007B00055F9D6E73DB8F3966C25002098850000E2
:1007C00090850000B087000038B504460D46FFF75D
:1007D000A5FF0246EB7984F85830033BDBB2012BCE
:1007E0000CD9EB79022B13D0042B11D0032B0FD093
:1007F00094F85830FF2B15D0104638BD002004F077
:10080000CAFB02460028ECD0FF2384F85830E8E702
:10081000002004F0ADFB02460028E9D0FF2384F855
:100820005830E5E74FF00000012363F302006FF357
:10083000C500054B054A9B1AC3F3C90363F38F1028
:10084000034905F00BF9FEE798850000908500004C
:100850001887000038B504460D4604F032FA68B92E
:1008600000221146204604F042FAE8B9204600F082
:10087000DDFA78BB012384F8583014E04FF0000013
:10088000022363F302006FF3C500474B474A9B1AEC
:10089000C3F3C90363F38F108022454905F0DEF8E6
:1008A000012384F8583038BD4FF00000022363F371
:1008B00002006FF3C5003C4B3C4A9B1AC3F3C903CB
:1008C00063F38F1000223B4905F0C8F8012384F838
:1008D0005830E8E7284604F041FA2946204604F05B
:1008E0000EFBE8B9284604F043FA80F001012A46DD
:1008F000C9B2204604F0FBF940BB284604F038FAA0
:10090000002839D0EB79012B43D02A46012120461B
:10091000FFF7A4FE002843D0052384F85830C2E72F
:100920004FF00000022363F302006FF3C5001E4B7B
:100930001E4A9B1AC3F3C90363F38F1000221E499A
:1009400005F08CF8012384F85830ACE74FF0000034
:10095000022363F302006FF3C500134B134A9B1A83
:10096000C3F3C90363F38F100022124905F076F830
:10097000012384F8583096E729462046FFF724FFE4
:100980002A460021204604F0B2F9012384F85830A9
:1009900089E72946204604F0C5F984F8580082E723
:1009A000EB7984F858307EE7988500009085000048
:1009B0002087000060870000888700002DE9F84F3D
:1009C000884692461F46DDF828900B9E00250FE0D2
:1009D00023460F4AE919404605F028F9A0B92346F5
:1009E0000B4A05EB0901504605F03FF970B9254463
:1009F000B54206D2741BB4F5806FE9D94FF4806418
:100A0000E6E70020BDE8F88F0120FBE70120F9E7C9
:100A10006C180020F0B585B004460E466022002117
:100A200005F0FDFB3C4B63623C4B236500250CE06D
:100A30002946002004F07EF82C2101FB05F120312D
:100A40002144C0B201F07CF90135012DF0D969468D
:100A50002046FFF7FFFE94F858308DF80730013B31
:100A6000042B33D8DFE803F00703030329006946AA
:100A7000204604F08EF994F85830FF2B2AD0012B31
:100A800006D06A460021204604F031F9074690B9A5
:100A9000002211462046FFF7E1FD074660BB102209
:100AA0000021684605F0BBFB236A5B783371236A3B
:100AB0005B68B3603460002529E0002004F06BFA25
:100AC0000028D8D0FF2384F85830D4E7FF2384F8D7
:100AD0005830D0E74FF00000012363F302006FF3BA
:100AE000C5000F4B0F4A9B1AC3F3C90363F38F1062
:100AF0000D4904F0B3FFFEE70327DCE7C5F101036E
:100B00002C2202FB0343186A05F08FF80135012DF2
:100B1000F4D9384605B0F0BD6C1C00206C200020D4
:100B200098850000908500001887000008B50146F0
:100B30000148FFF76FFF08BD0C1800202DE9F041B8
:100B400082B0884616461C46536A53F830501A68DD
:100B5000AD1A013853F83070BF1A2368012B1CD02E
:100B600042462946089804F06CF9CDF804800095B7
:100B70003B46089A11463046FFF720FF2146304693
:100B800004F02CF923680133236018B10C4A136870
:100B90000133136002B0BDE8F081E368022B04D199
:100BA0000999304604F051F9DAE70899304604F023
:100BB0004CF922460899304604F07FF9F0E700BF6F
:100BC0006C2500202DE9F04383B0884615461C466D
:100BD000526A52F830701368FF1A013852F83060C8
:100BE000F61A2A6D52F830101368A1EB0309237925
:100BF000012B05D02379022B1DD003B0BDE8F08373
:100C0000424631460A9804F01CF9CDF8048000965B
:100C10004B460A9A0B992846FFF7D0FE21462846F4
:100C200004F0DCF8022323710028E3D0114A136892
:100C300001331360DEE7424649460B9804F001F9A0
:100C4000CDF80480CDF800903B460B9A0A992846CF
:100C5000FFF7B4FE2146284604F0C0F823680133AC
:100C60002360012323710028C7D0024A136801338F
:100C70001360C2E76C25002070B582B016461C4692
:100C8000002B36D0436A5D686379012B11D0022BAB
:100C900017D00025002003F04DFF01A9C0B201F0DC
:100CA0004FF868B30125019804F0BFFF284602B051
:100CB00070BD01BB22681C4B1B689A42EAD8002514
:100CC000E8E72368012B07D9174A1268934203D833
:100CD00099B900250121DDE7012B01D00025D9E7D5
:100CE00001B100250129D5D12379022BD2D10021D0
:100CF000D0E70025CEE70025CCE700252946C9E747
:100D0000202332462946019804F090FF054640B959
:100D1000002CC8D03268054B9A42C4D04FF0FF3542
:100D2000C1E70125BFE700BFC85B00203DB8F396CF
:100D30002DE9F04F85B006460D4601920146002090
:100D400004F0BEF9041E62DBD5F85CA0304604F066
:100D5000C5F981464FF0000B01274FF0FF3805E041
:100D6000874201D00BF1010B2C460746002C13DD06
:100D7000651E5FFA8AF101230DF10F0205FB019157
:100D8000304603F0E3FE002843DB0128E8D0B8F149
:100D9000FF3FE9D1A046E7E7BBF1010F0EDCB8F158
:100DA000FF3F3AD0B8F17F0F1ADC012301994B7154
:100DB00008EB03020A600B7100202BE04FF00000EB
:100DC000012363F302006FF3C500154B154A9B1A0C
:100DD000C3F3C90363F38F10134904F03FFEDEE74A
:100DE0000223019A5371A8F1800808EBD8735B10B5
:100DF00001331360B8F1000F08F00108B8BFC8F163
:100E0000000808F1010882F80480002002E00720B1
:100E100000E0012005B0BDE8F08F0020FAE700BF38
:100E20009885000090850000B088000038B5856A7C
:100E3000436D9D420FD1802D20D80023AB4243D279
:100E4000416ADC0021444968026D224452688A42AA
:100E500027D10133F2E74FF00000022363F30200D1
:100E60006FF3C500194B1A4A9B1AC3F3C90363F306
:100E70008F10184904F0F2FD002038BD4FF000003B
:100E8000022363F302006FF3C500104B104A9B1A54
:100E9000C3F3C90363F38F100F4904F0DFFD002093
:100EA000EBE74FF00000022363F302006FF3C5008D
:100EB000064B074A9B1AC3F3C90363F38F10074914
:100EC00004F0CCFD0020D8E70120D6E7988500008B
:100ED00090850000148800004C880000788800008D
:100EE00010B586B004A9022004F064F94FF00000A8
:100EF000032363F302006FF3C500264B264A9B1AB7
:100F0000C3F3C90363F38F109DF81030012B2DD06C
:100F1000032B29D0214B9DF811209DF812109DF82C
:100F200013400294019100921D4A1E4904F096FD5F
:100F30009DF81030012B03D19DF81230032B17D0F0
:100F40004FF00000032363F302006FF3C500114B61
:100F5000114A9B1AC3F3C90363F38F10124904F0BB
:100F60007DFD002006B010BD104BD4E7104BD2E73A
:100F70004FF0000063F302006FF3C500054B064A13
:100F80009B1AC3F3C90363F38F100A4904F066FD8B
:100F90000220E7E79885000090850000FC880000AB
:100FA000108900002089000078890000088900006D
:100FB000008900005C890000F0B587B04C6804F03F
:100FC000FF24244DAC4202D10C68012C01D007B0A3
:100FD000F0BD16460C46054604A9184604F0EAF88A
:100FE0004FF00000032363F302006FF3C5001A4BB8
:100FF0001A4A9B1AC3F3C90363F38F109DF810308C
:10100000012B24D0032B20D0154B9DF811209DF8E7
:1010100012109DF81370029701910092114A124923
:1010200004F01CFD9DF81030032BD0D1314628462A
:1010300003F00BFF304604F0F4F8A168304604F0EA
:1010400009F9304600F0E4F8C1E7084BDDE7084B4A
:10105000DBE700BF000100049885000090850000D8
:10106000FC880000A088000020890000088900009A
:1010700000890000F0B585B007460D4600213E4BC3
:101080001960436A5E6831443B480368013303607A
:101090009142F8D3284603F06BFE70B1F86D04F06E
:1010A0000AF8BA6A013A00233344984201D9013A56
:1010B000FAE7314B1B68934214D203A9022000F0D7
:1010C0003FFE02A9062000F03BFE0623029A2946B5
:1010D0003846FFF771FF6B79012B17D002236B7134
:1010E000012438E04FF00000022363F302006FF3A5
:1010F000C500224B224A9B1AC3F3C90363F38F1026
:10110000204904F0ABFC0123EB7132E01A4B1C6860
:1011100000E0013C8CB12A68174B1B689B1A013315
:101120009C42F6D8029B0193039B00932B463A46C0
:1011300031462046FFF702FDEBE701232B60CDE7A8
:10114000029B0193039B00932B463A46314620466F
:10115000FFF738FD0134084B1B68A34203D32B680B
:10116000A342F7D8ECE7039804F05FFD029804F07F
:101170005CFD05B0F0BD00BFC85B00209885000095
:1011800090850000D088000008B51022034905F0C2
:101190000CF808B1022008BD0120FCE78C89000092
:1011A00070B586B00E460024ADF8044002238DF8D9
:1011B000043007E0306804F038FD23E0306804F0C4
:1011C00034FD0134012C1BD8314606AB234413F8FF
:1011D000140C00F0B5FD0546A0B9306881681023F5
:1011E00002AA103904F022FD05460028E2D110229F
:1011F000064902A804F0D9FF05460028DED101E027
:101200004FF0FF35284606B070BD00BF8C89000046
:1012100008B581681023054A103904F026FD0346FD
:1012200008B9184608BD0123FBE700BF8C89000000
:1012300030B585B002A9022003F0BCFF00286DD1B3
:101240006946062003F0B6FF002869D1002407E0B4
:101250002B79042B28D09DF80A20934224D0013406
:10126000022C47D804EB44035B002E4AD5189DF8A6
:101270000810D05C03F00BFF0028F0D09DF80010A0
:10128000687803F004FF0028E9D0AB78042B03D082
:101290009DF80B209342E2D1EB78042BD8D09DF837
:1012A00003209342DBD1D3E74FF00000032363F325
:1012B00002006FF3C5001C4B1C4A9B1AC3F3C90301
:1012C00063F38F106B79022B07D0032B10D0042B04
:1012D00001D0174A02E0174A00E0174A174904F004
:1012E000BDFB6879831EDBB2022B15D9FF2013E00A
:1012F000134AF3E74FF00000032363F302006FF398
:10130000C500094B094A9B1AC3F3C90363F38F1045
:101310000C4904F0A3FB012005B030BDFF20FBE722
:10132000FF20F9E79C890000988500009085000067
:10133000C0890000D4890000B0890000DC89000069
:10134000B8890000EC89000070B5A4B0202928D825
:101350000D4606460024144B1B68A3421CDD09A859
:1013600006F08EFD002109A802F0B8FA0F4B03EB3E
:10137000C4025268126853F8341009A806F086FDBA
:1013800001A909A806F0C5FD2A46314601A804F0C6
:101390000CFF18B10134DEE74FF0FF34204624B0D3
:1013A00070BD4FF0FF34F9E70C8700001087000094
:1013B0002DE9F041D6B017461D465F9C04945E9C13
:1013C000039406AC02945D9C01945C9C009403F031
:1013D00051FF0646002840F08280609B23B1202206
:1013E00006A9184604F0F8FE002300934FF6FF7399
:1013F0002A4639464EA804F000F8064600286ED169
:10140000074680464FF0FF341DE04FF0FF341AE0EE
:101410004FF0FF3417E04FF0FF34012713E0BDF821
:101420005231202B5FD10EAA5599284604F0FEFBBD
:1014300000285BD120220EA906A804F0B6FE0028E1
:1014400056D14FF0010854AB0DF5A97255A94EA81D
:1014500004F038F8002840DB38DCBDF85031102BA0
:10146000DDD0012B21D0202BEDD1002CCDDB294B61
:101470001B68A342CCDDBDF85231B3F5807F3FD16C
:101480000EAA5599284604F0D1FB00283BD1E4B2BE
:101490000094BDF852310EAA202106A800F0B0F841
:1014A0000028B8D04FF0FF34CDE7BDF85231202BE3
:1014B00021D80EAA5599284604F0B8FBF0B99DF83A
:1014C00052110EA8FFF740FF0446BCE7B8F1000F29
:1014D0001CD027B94FF0FF3601E04FF0FF36304601
:1014E00056B0BDE8F0814FF0FF36F8E70646F6E764
:1014F0004FF0FF36F3E74FF0FF36F0E70646EEE732
:101500004FF0FF36EBE74FF0FF36E8E74FF0FF36DE
:10151000E5E700BF0C87000070B5ADF51C7D4468A1
:10152000B4F5807F55D1202A56D10E4641AA1946DE
:1015300002F092F90546002851D19DF80332BC2BE8
:1015400050D10DF2E31109A803F025FF2B46DE2B45
:1015500007DC41AAD25C09A8C45C6240C2540133D2
:10156000F5E79DF8243003F07F038DF82430BD2D7E
:1015700005DC09AB5B5D002B37D10135F7E79DF842
:10158000E230012B37D181A806F07AFC002181A836
:1015900002F0A4F90822194981A806F077FC20225C
:1015A000314681A806F072FC20220DF1E30181A8EA
:1015B00006F06CFC01A981A806F0ABFC20220DF21C
:1015C000E31101A804F0F1FD034680B14FF0FF33B1
:1015D0000DE04FF0FF330AE04FF0FF3307E04FF02C
:1015E000FF3304E04FF0FF3301E04FF0FF331846C4
:1015F0000DF51C7D70BD4FF0FF33F8E7FC8900004E
:101600002DE9F041ACB006460F4690461D469DF8C8
:10161000C8400022114601A806F0ECFB114B53F81C
:101620003420009203EBC4035B681B681A446946CC
:1016300001A803F05EFE044610B9029BAB4206D03F
:1016400001A806F0E5FB20462CB0BDE8F08143463A
:101650003A46314601A8FFF75FFF044601A806F0AD
:10166000D7FBF0E7108700002DE9F04F83B08246EA
:10167000019115469B46DDF83090B9F1000F2CDD45
:101680004FF001080A260027214C10E0B5FBF4F0CA
:1016900001993030D04708F101080127013EB5FB20
:1016A000F4F304FB13551B4BA3FB0434E408092C8F
:1016B00016D9002FEAD1AC42E8D94E45EEDCBBF199
:1016C000020FEBD8BBF1010F05D020200199D047C4
:1016D00008F10108E2E73020F8E74FF00109CFE711
:1016E000019905F13000D047BBF1030F02D003B0E0
:1016F000BDE8F08FA9EB080803E001992020D0474E
:10170000A04608F1FF34B8F1000FF6DCEFE700BFA8
:1017100000CA9A3BCDCCCCCC014B1860704700BFBF
:10172000CC5B00204FF02002EFF3118382F311888D
:10173000BFF36F8F044A0121C2F8401583F311886B
:10174000BFF36F8F002070470090035030B108B591
:101750008001034B43F00103984708BD704700BF69
:10176000E08500002DE9F04383B080460F46164621
:10177000114B1B6898478146002400E001340F4B51
:101780000F4A9B1AB4EB231F12DA0D4800EB04102A
:1017900043685B79002BF1D02301094AD3585D6877
:1017A000002DEBD000963B464A464146A847E5E768
:1017B00003B0BDE8F08300BFD05B0020D0850000FF
:1017C000C085000008B5044B044A1A604FF400407D
:1017D00000F008FA08BD00BFD05B0020455A0000A9
:1017E000054B064A9B1AB1EBD30F02D252F83100D7
:1017F00070470020704700BFC08500009085000042
:1018000008B50B4BC31A1B110133426813714368AF
:101810001960436801225A71064B1B781BB1054BB6
:1018200001221A7008BD044803F046F8F7E700BF2C
:10183000C0850000BC2B0020A05C002038B5134BF5
:10184000D3E8EF2F511CC3E8E01F0028F8D1DAB924
:10185000002405E0042200212846FFF7D1FF0134CF
:101860000B4B0C4A9B1AB4EB231F0DDA094D05EB09
:1018700004152B7B002BF2D02301064AD3585B6959
:10188000002BE7D09847E5E738BD00BF7025002062
:10189000D0850000C0850000104B1B7803B1704755
:1018A00010B5FFF7CBFF002400E001340C4B0D4ACC
:1018B0009B1AB4EB231F0CDA0A4800EB04104368B0
:1018C0005B79002BF1D02301064AD3581B69984756
:1018D000EBE7024B01221A7010BD00BFBD2B0020A8
:1018E000D0850000C08500000EB400B582B003AB07
:1018F00053F8042B01930146044803F0EEFE002048
:1019000002B05DF804EB03B0704700BF835A0000DB
:10191000F0B585B011F0440F05D01A4B196831B9F4
:10192000002005B0F0BD1849FFF7DEFFF9E7174BBF
:101930001D68B2FBF5F5B5FBF1F4154AA2FB0432C4
:10194000D20A4FF4616606FB1246124BA3FB0673E4
:101950005B0901FB14544FF47A7505FB04F4B4FBE6
:10196000F1F707FB114405FB04F4B4FBF1F102911C
:101970000197C3EB0314A100711A00910649FFF708
:10198000B3FFCEE774250020A08B0000782500204F
:10199000C5B3A29189888888AC8B000061B108B575
:1019A0002AB1064A52F8232012B9054A00E0044A37
:1019B0000449FFF799FF08BD704700BF288B00005E
:1019C0001C8B0000248B000011F0100F0BD108B508
:1019D00011F0200F03D00449FFF786FF08BD03492B
:1019E000FFF782FFFAE77047648D0000648B000008
:1019F0002DE9F04105460F46164698460699FFF731
:101A0000E3FF002404E024492846FFF76DFF01347A
:101A10004445F8DB002409E01F492846FFF764FF2E
:101A20000BE01E492846FFF75FFF01340F2C0CDC4A
:101A3000002C02DD14F0070FEED0B442F1D23A5D73
:101A400017492846FFF750FFEFE716492846FFF7EA
:101A50004BFF002409E010492846FFF745FF0BE043
:101A600011492846FFF740FF01340F2C12DC002CEF
:101A700002DD14F0070FEED0B44206D23A5DA2F1B7
:101A800020035E2BECD92E22EAE703492846FFF714
:101A90002BFFE9E7BDE8F081608B0000448B00007C
:101AA0003C8B0000488B00004C8B0000F8B50446CE
:101AB00016461F4649B9002586B10123079A93406F
:101AC00013F0100F16D10C4E09E00C4B079A53F887
:101AD00022200B49FFF708FF0546EDE7064E069961
:101AE0003846FFF77DFE024631462046FFF7FCFEF2
:101AF0002844F8BD034EF2E7508B00006C8B0000C9
:101B00005C8B0000588B000070B584B005461E4603
:101B1000C1F3C203C1F3891011F007040FD1089B70
:101B200032462946104803F0D8FD94B9304603F0F8
:101B3000C2FF98B10D492846FFF7D6FE0EE002908D
:101B400001930094134601220999284603F0D6FF19
:101B5000E5E722460999284603F0C4FF284603F02A
:101B6000F4FF04B070BD00BF835A0000688B000012
:101B70002DE9F04784B080461D460C9E0D9C0E9FBB
:101B800001F0070AC1F3C203C1F389110291019365
:101B9000CDF800A013460122394603F0AFFF81467D
:101BA0002A460F494046FFF79FFE6CB12546102C90
:101BB00028BF102500974B462A4631464046FFF77E
:101BC00017FF2E44641BF0E752463946404603F0A7
:101BD00089FF404603F0B9FF04B0BDE8F08700BFBD
:101BE000248B0000074B01221A60074B984205D94D
:101BF0004008044A13685B001360F6E7034B186063
:101C0000704700BF7825002040420F007425002057
:101C1000014B01221A707047BE2B002008B518B97D
:101C2000044B00221A7008BD41F2883006F00DFB0B
:101C3000F9E700BFBE2B002038B504460A4B01224D
:101C40001A700A4B1B7803B938BD002000F0B0FAB7
:101C50000028F9D0044B1B78002BF5D0651E2046D8
:101C6000FFF7DCFF2C46F0E7BE2B0020BF2B002047
:101C7000F8B506460D46042706E03846FFF7DCFFB8
:101C80009CB90D4B1B7883B12A463146002000F0E9
:101C9000F5F904460028F0D1074B1B78002BEFD054
:101CA000013F3846FFF7BAFFEAE714B9024B1B7849
:101CB00003B92C462046F8BDBE2B002008B50348CA
:101CC00003F043FF024B01221A7008BDE08B0000B5
:101CD000BF2B002000B585B00F200290079801901F
:101CE000069800900248FFF743FF05B05DF804FB3B
:101CF000E08B000000B583B00F20019004980090A5
:101D00000248FFF701FF03B05DF804FBE08B000021
:101D100010B404460022084B1B68934208DD1301EF
:101D200006490968C818CB5CA34202D00132F2E729
:101D3000002010BC704700BF708C0000D45B0020F6
:101D4000084B1B683BB110B50C46FFF7E1FF28B10B
:101D50002060002010BD6FF00C0070476FF0010094
:101D6000F8E700BFD45B002000B58BB003AB009355
:101D7000024B03F033FF0BB05DF804FBA15B0000E6
:101D800010B5044C2046FFF7C7FC204600F0A6FD26
:101D9000002010BD991D0000F0B583B007468DF8F6
:101DA0000700022506E0124B01221A701CE003F026
:101DB000C1FF013D0F4C4FF0FF31204602F084FA85
:101DC00001220DF10701002000F0BAF90646204675
:101DD00002F0FAFA002EE6D1054B1B7823B1002D54
:101DE000E5D1034B00221A70384603B0F0BD00BFA6
:101DF000C02B0020C45C002008B501214FF4807086
:101E000003F0A1FF28B100210A4803F0BCFF437A88
:101E100033B102214FF4827003F095FF28B908BD59
:101E20000021044804F041F8F3E70121014804F0DF
:101E30003CF8F4E74C5C002020F07F40014BC3F8F5
:101E40004005704700500150014BD3F8040570471E
:101E50000050015070B50E4B0022C3F840214FF0E6
:101E60002003EFF3118683F31188BFF36F8FFFF721
:101E7000EBFF084D2C68214604F0A6F804442C60C2
:101E800086F31188BFF36F8F02F0CEFD70BD00BFE7
:101E900000500150AC25002070B5154802F05EF9E5
:101EA00010B34268126801219047124D0024C5F812
:101EB00008450126C5F840654FF48033C5F8043362
:101EC0000D4B1C600D4B4FF40012C3F880212246CD
:101ED0003146152000F0E2F9152000F0CFF9084B4B
:101EE0001E602E60204670BD4FF0FF30FBE700BF44
:101EF000A88C0000005001504051015000E100E06A
:101F000008500150F8B5B0F1FF3F32D0441E274BC6
:101F10009C4201DC002C2EDD244B9C4200DD244C35
:101F20004FF02003EFF3118683F31188BFF36F8F17
:101F3000FFF78AFF07461F4B1D68294604F044F847
:101F4000B0F5000F00D3002404440134184B9C4228
:101F500000D91C462C443946204604F035F80228A6
:101F60000BD92046FFF768FF86F31188BFF36F8F08
:101F7000F8BD0F48CAE70024D2E72046FFF75CFF10
:101F8000FFF762FF0146204604F01EF8421E0A4B8E
:101F90009A4205D9094B4FF40012C3F80021E3E738
:101FA0000128E1D1A01CFFF747FFDDE7FDFFFF009F
:101FB000FEFFFF00AC250020FEFF7F0000E100E0F7
:101FC00010B54FF02003EFF3118483F31188BFF3B2
:101FD0006F8FFFF739FF044B196803F0F5FF84F3A7
:101FE0001188BFF36F8F10BDAC25002038B54FF0BE
:101FF0002003EFF3118583F31188BFF36F8FFFF791
:1020000023FF054B1C68214603F0DEFF204485F3C7
:102010001188BFF36F8F38BDAC25002010B5114C6F
:10202000032323616361104AA261104BE3614FF403
:10203000806323620023A3626362E36222660C4A28
:1020400062661022A2662367E36663670949E01DA2
:1020500004F098F80849204604F094F82023A3716E
:1020600010BD00BFB0250020DC8C000068260020D9
:1020700058260020E88C0000EC8C00002DE9F84385
:1020800004460E46154643000344D9002B4A0A4431
:10209000936A576ABB4249D8284A0A44D2F820803A
:1020A000A8EB070909F1FF32AA4204D213449D426A
:1020B00017D900203FE0DFF88480631C03EB430363
:1020C000DA00424450682A463146384404F084F825
:1020D0003D4404EB4404E3009844C8F82450012034
:1020E00029E0431C03EB4303DA00144B1344586804
:1020F0004A463146384404F06FF8A7EB08077F19C9
:1021000007D104EB4404E2000C4B13445F6201204E
:1021100011E0631C03EB4303DA00084B13443A4617
:1021200006EB0901586804F057F8EAE7DB1B013BAE
:102130009D42C0D90020BDE8F88300BFB025002033
:10214000F8B50F461646194A431C03EB4303DD005E
:10215000154400EB4000C3001A44D46A012C11D08E
:1021600024B1022C1BD000242046F8BD284603F0E1
:102170002FFFB042F8D332463946284603F034FFE9
:102180003446F1E7284603F023FF3446864228BF51
:10219000044622463946284603F026FFE4E7324645
:1021A000284603F045FF0446DEE700BFB0250020C7
:1021B00010B4064A43001C18E10011448C6A034421
:1021C000D9000A44506A001B10BC7047B02500209B
:1021D000704700BF094A93685866094909689966BB
:1021E00008494B6843F080534B60002383F3118808
:1021F000BFF36F8F9368986E704700BF902B0020DD
:102200002C8F000000ED00E012498A684FF0280092
:102210001044EFF3098C80E8F01F202080F3118830
:10222000BFF36F8F0C4F4FF00066CA698A603E6043
:10223000506E0023536680F3118804B5104603F0F6
:1022400060FFBDE8044002F1280090E8F01F8CF325
:1022500009887047902B002004ED00E01EF0040F69
:102260000CBFEFF30880EFF30980816911F8021CBD
:102270000229FFD001B503F01BFF01BD43B2002BC3
:1022800008DB00F01F005B09012202FA00F0024A9D
:1022900042F82300704700BF00E100E0013143B283
:1022A000002B08DB4901C9B203F1604303F5614328
:1022B00083F80013704700F00F004901C9B2014BC9
:1022C0001954704714ED00E0014910220A6070476C
:1022D00010ED00E0EFF30880EFF30981724601B5DD
:1022E00000F0D6F801BD00BF30BFFFF7FDBF00BF53
:1022F00008B5084B23F07F03074A9360BFF34F8F65
:10230000BFF36F8F01F052FF01F05CFF00F014F992
:1023100001F094FF0000000000ED00E001B5EFF3D4
:102320000580A0F110004FEAC0000449014409C92A
:102330009847BDE80140024908470000EC820000D0
:10234000D121000003F078FB202080F31188084899
:102350004FF40061401880F30988EFF314800221E4
:10236000084380F31488BFF36F8FFFF7C1FF0000AD
:10237000C853002010B514460F4B9A6A9A6A9B6A9C
:1023800013F0020F0BD00C4B5A6B9B6A13F0800FAB
:1023900005D021B1084A936A23F080039362064B6B
:1023A0009A6A9A6A9A6A9A6A42F0FF029A6203F0FB
:1023B0008BFE2070002010BD00ED00E010B514462B
:1023C000124B9A6A9A6A9B6A13F4007F0BD00F4BE8
:1023D0009A6B9B6A13F4004F05D021B10B4A936AA4
:1023E00023F400439362094B9A6A9B6A13F4807F3B
:1023F00001D1064B9B6A054A936A43F47F4393627B
:1024000003F062FE2070002010BD00BF00ED00E070
:10241000074B9A6A9A6A9A6A9A6A9A6A9A6A9A6A4E
:102420009A6A6FEA02426FEA12429A62002070478B
:1024300000ED00E038B500230B70124BDC6A14F09D
:1024400002041DD10546D86A10F0804019D00A4612
:10245000284628331B7843B90B4B1B784BB90B4BE1
:102460001B889BB24BB920460BE00121FFF782FF8E
:1024700007E00121FFF7A2FF03E0FFF7C9FF00E03B
:10248000002038BD00ED00E029ED00E02AED00E07D
:1024900070B58AB0234B5B68C3F30803002585F34E
:1024A0001188BFF36F8F02F07F45B5F17F4F17D1D1
:1024B00002F00C05082D16D012F0080F0DD00C46B6
:1024C00000250DF127021946204603F0FFFD0646C0
:1024D0009DF8273053B10AB070BD04460125F0E7DE
:1024E00000252C46EDE700252C46EAE72022214670
:1024F00001A803F071FE4DB1089BC3F308025AB95D
:102500006FEA53236FEA4323089305E0089B23F403
:10251000FF7323F00103089301A9304603F0C4FDC3
:10252000D9E700BF00ED00E0024A536943F0100311
:102530005361704700ED00E0002206E002F00F0159
:10254000094B0B44202119760132402A0ADC53B290
:10255000002BF3DB03F1604303F56143202183F893
:102560000013F1E7704700BFFCEC00E038B505460A
:102570004FF02003EFF3118483F31188BFF36F8FC3
:1025800002F02EF80A4B9B68AB4203D0204605F0C0
:10259000C9FD38BD074B5B68C3F308032BB1054A7F
:1025A000536843F080535360F0E72046FFF712FE74
:1025B000902B002000ED00E0014B024A1A637047A7
:1025C00090ED00E0AAFF440010B40B6823F01F0256
:1025D0000C7A04F01F031A43CB6823F01F0364092D
:1025E00043EA440343F0010302498860CA600B6177
:1025F00010BC704790ED00E010B50F2804D80446D9
:10260000FFF7E2FF204610BD4FF00004012363F303
:1026100002046FF3C504074B074A9B1AC3F3C903AF
:1026200063F38F1402460549204603F017FA6FF052
:102630001504E7E7A085000090850000408D0000AC
:102640002DE9F04F87B080468B4601931446002554
:1026500060E0012363F302006FF3C5006B4B6C4A2B
:102660009B1AC3F3C90363F38F102A46694903F029
:10267000F5F96FF0150416E06FF0150667E04FF0FE
:102680000000012363F302006FF3C5005F4B604A53
:102690009B1AC3F3C90363F38F1032465E4903F0FC
:1026A000DDF96FF01504204607B0BDE8F08FBA459C
:1026B00066D1F0B203F03DFD2BE0584AC2F808C0E5
:1026C000D36803F01F0320F01F001843D06058F8B0
:1026D0000910E0B203F02DFD044610F1160FE2D010
:1026E000013416E0013B4D49C1F808C00A6902F007
:1026F0001F0223F01F0313430B6158F80910E0B2C7
:1027000003F017FD044610F1160FCCD0013400E0A1
:10271000013401355D45C6DA4FEA850958F8256070
:102720007768002FF5D0019B23B1304603F0EFFC12
:1027300000288ED0D6F800A0504603F019FD0646BA
:1027400007EB0A00013803F013FD864294D116F11D
:10275000160F94D0631EB34291DBB4462F4B9E609C
:10276000DA6822F01F029E601F6947F01F0758F8C1
:1027700009100B684868184400F1FF3A934296D05C
:1027800093429AD0BA45ADD0013B24496646C1F880
:1027900008C00A6902F01F0223F01F0313430B61F4
:1027A00058F80910E0B203F0C4FC044610F1160F0B
:1027B0003FF479AF0130194B9E60D9689DF8102025
:1027C00061F304028DF810201B69C3F34203D2B2F7
:1027D00063F347128DF8102058F8092011685468E7
:1027E000214402911368234423F01F03A7EB0A0737
:1027F0001F44013F27F01F07059702A9C0B2FFF74A
:10280000FBFE044610F1160F82D14CE7A0850000B4
:1028100090850000F88C00001C8D000090ED00E019
:10282000F8B506460F46104B1D782B460F2B05DCDE
:102830000E4A9360002111610133F7E7002409E09B
:102840000B48A30023449A00811804318058FFF7F5
:10285000BBFE0134002CF3DD01232A463946304605
:10286000FFF7EEFEF8BD00BFC12B002090ED00E0A9
:10287000682A0020034B05225A60BFF34F8FBFF335
:102880006F8F704790ED00E0BFF35F8F014B002228
:102890005A60704790ED00E038B50E4B1D68102D62
:1028A00015D8FFF7F1FFFFF787FE0024A54208D9EE
:1028B000084B596801EB04112046FFF785FE0134EF
:1028C000F4E7054B1D70FFF7D5FF002038BD4FF032
:1028D000FF30FBE7688D0000C12B0020014B186022
:1028E000704700BFD85B00200023072B3DD8F0B411
:1028F00003F5A2721E4C54F8222012F0030F07D0E9
:102900000133DBB2072BF3D96FF01200F0BC704734
:1029100003F14002920094B2154E03F5A27556F8E9
:10292000252022F4473222F4407246F8252056F83A
:102930002570000200F4F8500A0402F440321043FB
:10294000384346F8250004F1A04202F55042002029
:10295000106056F8252042F0010246F82520012299
:1029600002FA03F3C6F80433D0E76FF012007047A1
:1029700000D0005010B4134BD3F80443E4B200234A
:1029800000E00133072B1BD803F5A2720D4951F863
:102990002220C2F304229042F3D124FA03F212F06F
:1029A000010FEED00A4603F5A27051F8201021F075
:1029B000010142F82010012101FA03F3C2F80833A3
:1029C00010BC704700D0005070B50D468668036893
:1029D0009B681B7901F01F0444EA43142046FFF76B
:1029E000C9FF274A04F1800152F8213023F4403313
:1029F00042F82130B368EB4013F0010F3BD0F3688D
:102A0000EB4013F0010F38D07369EB4013F0010F66
:102A10001AD0B369EB4013F0010F0ED13369EB40CC
:102A200003F00103DAB2F36923FA05F505F00105B5
:102A3000EDB2AA4206D0012100E003212046FFF7B3
:102A400053FF19E00221F9E73369F269534023FA91
:102A500005F515F0010F0CD10321094A803452F815
:102A6000243023F4403343EA014342F82430002069
:102A700002E00221F1E7002070BD0020FCE700BF6A
:102A8000002584502DE9F04F83B0846803F470452D
:102A9000B5F5804F37D020DDB5F5E04F3FD029DDCB
:102AA000B5F5404F3ED0B5F5504F40F0B0804FF0F7
:102AB000070803F44075B5F5807F39D0B5F5007F80
:102AC00033D0002501951E46074603F0010BDA4678
:102AD000012930D0D5B2A94659E0B5F5805F15D0AF
:102AE000B5F5405F15D0BDB16FF01503184603B0C2
:102AF000BDE8F08FB5F5A04F02D14FF00308D8E73D
:102B00006FF01503F2E74FF00208D2E74FF001082B
:102B1000CFE74FF00408CCE74FF00008C9E74FF0CB
:102B20000508C6E74FF00608C3E701250195CAE787
:102B300003250195C7E74FF01F09002527E0A3688B
:102B40000122AA4023EA02033DE0636901228A4090
:102B500023EA02033FE0A36901228A4023EA020339
:102B600041E0236901228A4023EA020343E0E3694A
:102B7000012202FA01F123EA0101E1612946384606
:102B8000FFF722FF03460028B0D10135EDB2A94579
:102B90003BD33B689B681A79294605F01F0343EA3B
:102BA00042134BEA4A02019842EA800242EA0822B2
:102BB0008033184840F8232016F0020FBFD0A368D6
:102BC0000122AA401343A36016F0200FBDD0636911
:102BD00001228A401343636116F0400FBBD0A36902
:102BE00001228A401343A36116F0040FB9D0236970
:102BF00001228A401343236116F0800FB7D0E369A6
:102C0000012202FA01F11943B7E700236EE76FF0E2
:102C100015036BE700258450F0B4856803689E684F
:102C2000EA68AB6813406A69A9690A4323EA0203A8
:102C3000012200200FE04FF0020C114F803157F8B5
:102C4000214024F4403444EA0C4447F8214023EA6C
:102C500002030130520083B11A42FAD0347900F0F5
:102C60001F0141EA44112C69EF697C40C44014F013
:102C7000010FE0D14FF0030CDFE7F0BC704700BF5D
:102C800000258450F0B4816803689F68CB688A6827
:102C900013404A698869024323EA02033A681069CB
:102CA000CA6950400A69504023EA0000012200240A
:102CB00001E0013452008BB11342FAD03D7904F0A7
:102CC0001F0141EA4511064E803156F8215025F486
:102CD000403546F8215023EA0203EAE7F0BC70478A
:102CE00000258450F0B583B0002301932E4B1C685F
:102CF0000CB9002108E02D48FFF7C4FF01902A4BD2
:102D000000221A60F5E70131072925D801F14003B7
:102D10009B009AB201238B402548D0F8040303425C
:102D2000F1D002F1A04303F550431B68002BEAD019
:102D300001F5A2731E4850F82300C0F304200123BC
:102D400003FA00F0019B0343019302F1A04303F552
:102D5000504300221A60D6E7019E16B9FCB903B0B1
:102D6000F0BD124B9F68396819B10D4649B10D6825
:102D700007E00D4605E085B12B4605B12B682946D5
:102D80001D460029EAD08B683340FA681342F2D01E
:102D90004B68324605489847EDE72B46EFE7034876
:102DA000FFF73AFFDBE700BF7CD10050885C0020D2
:102DB00000D0005008B50B4B1B780BB1002008BDAC
:102DC000084B01221A70002205210D20FFF766FA38
:102DD0000D20FFF753FA044B4FF00042C3F80423D1
:102DE000ECE700BFC22B002000D00050034BD3F80B
:102DF000003413F0010FF9D0704700BF009003506A
:102E0000024B0B6001231360704700BF9C2A002017
:102E100010B503F083FC034C206003F07BFC606082
:102E2000002010BD9C2A002003689B681A6847F6A2
:102E3000122399426DD010D9B1F5E13F78D040D935
:102E4000B1F5E12F7DD058D8B1F5613F7CD0434B2F
:102E500099424FD14FF0806357E0B1F5965F5BD058
:102E600018D8B1F5167F59D008D9B1F5966F58D05A
:102E7000B1F5166F0BD14FF41D2346E0B1F5967FE7
:102E800002D14FF4A03340E06FF0150070476FF0AF
:102E900015007047B1F5615F46D007D9B1F5964F7F
:102EA00044D0B1F5E14F09D12D4B2EE0B1F5165FBD
:102EB00001D12C4B29E06FF0150070476FF0150021
:102EC00070474DF6C023994235D007D9B1F5614F0F
:102ED00034D0B1F5963F0AD1234B16E0B1F5164F29
:102EE00002D14FF41D0310E06FF0150070476FF032
:102EF000150070476FF015007047B1F5612F26D0AF
:102F00001A4B994226D14FF08053C2F82435002045
:102F100070474FF40003F8E7154BF6E74FF41C3306
:102F2000F3E74FF49E23F0E7124BEEE7124BECE78A
:102F30004FF0EB73E9E74FF46503E6E74FF46B03FB
:102F4000E3E74FF0E863E0E74FF06C73DDE74FF045
:102F50007063DAE76FF01500704700BF90D0030090
:102F600000C075000050270000903A0140420F0059
:102F700000B0130000F03A0000A04E0070B50C46FF
:102F800003689B681D6886680A6801239340254A88
:102F900093600B688033032142F823106368B3F118
:102FA000FF3F03D08033002142F82310226863687A
:102FB000C5F80C25C5F81435A368B3F1FF3F18D048
:102FC000E368B3F1FF3F14D0012202FA03F3154A7C
:102FD0009360E3688033032142F82310A3688033B1
:102FE000002142F82310E268A368C5F80825C5F857
:102FF0001035816803F0CDFA034680B90822C5F880
:1030000000256268B2F1FF3F09D00022C5F8102107
:103010000836C5F834650122C5F838252A601846F7
:1030200070BD00BF0025845030B585B00546064B05
:103030006C460FCB84E80F00002221462846FFF79C
:103040009DFF05B030BD00BFD0850000C0F30E036A
:10305000BBB9C1F30E02BAB9B2EBD13F17D230B44B
:1030600002EBD033DBB203F5C0730A4C40F2151506
:1030700044F823500132B2EBD13FF1D3002030BCF1
:1030800070476FF0150070476FF015007047002013
:10309000704700BF00300050084B1B68084A126898
:1030A000092B01D000207047012A03D0022A03D047
:1030B0000020704701207047012070473001FF0059
:1030C0003401FF00064B1B68064A1268092B01D029
:1030D00000207047012A01D000207047012070476E
:1030E0003001FF003401FF00064B1B68064A1268DE
:1030F000092B01D000207047022A01D00020704720
:10310000012070473001FF003401FF00064B1B68AF
:10311000064A1268092B01D000207047012A01D00D
:1031200000207047012070473001FF003401FF008C
:10313000084B1B68084A1268092B01D00020704711
:10314000012A03D0022A03D00020704701207047D3
:10315000012070473001FF003401FF00044B1B6A5F
:10316000B3F1FF3F01D0002070470120704700BF3E
:103170000080FF00044BDB6913F0010F01D1002038
:1031800070470120704700BF0080FF00014B024ADA
:103190001A607047E85B00200090D00308B5FFF785
:1031A0007BFF30B14FF050230022C3F81421C3F845
:1031B0001821FFF787FF30B10123424A1360A2F6BE
:1031C0003822C2F87835FFF78FFF18B13E4B012245
:1031D000C3F87825FFF79AFF10B13C4B0E221A6016
:1031E000FFF7A6FF28B13A4B00221A6004330122F0
:1031F0001A600022FF2A15D802F160034FF47F0104
:1032000051F83330B3F1FF3F0CD002F160034FF4BB
:103210007F0151F83310DB0003F57F035B680B601F
:103220000132E7E7FFF7A6FF60B9FFF797FF48B95C
:10323000284AD2F88C3043F44063C2F88C30FFF750
:10324000A5FF08BD244BD3F80034012BFAD1224B43
:103250000122C3F80425204BD3F80034012BFAD106
:10326000FFF788FF48B11D4AD36923F00103D361FA
:10327000194BD3F80034012BFAD1FFF76FFF58B187
:10328000164A136A23F0FF0343F020031362124B24
:10329000D3F80034012BFAD10F4B0022C3F80425D8
:1032A0000D4BD3F80034012BFAD1BFF34F8F0949EE
:1032B000CA6802F4E0620A4B1343CB60BFF34F8F3E
:1032C00000BFFDE7384A005000400050E4AE035014
:1032D0000C47005000ED00E0009003500080FF001C
:1032E0000400FA05024B0022C3F80425704700BF12
:1032F00000900350024B0122C3F80425704700BF21
:1033000000900350024B0222C3F80425704700BF0F
:1033100000900350044BD3F8083413F0010FF9D098
:103320000160BFF35F8F70470090035010B50446F3
:1033300003F0D4F908B9084810BDFFF7E3FF4FF0D8
:10334000FF332360054BD3F8003413F0010FF9D09D
:10335000FFF7C8FF0248EFE70A00AD0B00900350EB
:103360000000AD0B0268124B9A4215D1C269A3F15D
:103370001023A3F1EF139A4210D18368012B0FD8C9
:10338000C36813B1026993420CD0436963B1826987
:1033900093420BD0002070470120704701207047F6
:1033A00001207047012070470020704701207047BE
:1033B00055AA00FF70B5114B9D68C5B12846FFF7AF
:1033C000D1FF0646A8B9EB6813B10126304670BD9F
:1033D0002C6901E025462469002CF7D02046FFF730
:1033E000C1FF40B9E368AB42F4D00126EEE7012605
:1033F000ECE70126EAE70126E8E700BFA42A00205F
:10340000002800F0918038B50446484B1B68002B1B
:103410006DD0464A9268002A69D0834204D8434A54
:1034200052681344834203D8414B1B6801209847DC
:10343000A4F120052846FFF795FF18B13C4B1B6807
:103440000120984754F8183C012B03D0384B1B68D7
:1034500001209847002344F8183C54F8143CD3B199
:103460009A68BAB954F81C2C59680A4420325A6038
:1034700054F8143C54F8102C1A6154F8144C236975
:1034800003B1DC6020220021284602F0C8FE2B4652
:10349000254600E000232C691CB3A2680ABB6368C0
:1034A0006A68134420336B6023692B616B69FBB13D
:1034B00013B3AA699A61AB690BB16A695A6163690E
:1034C0006B61A269AA61DBB19D61AB6903B15D610A
:1034D0002B6903B1DD6020220021204602F09FFE0F
:1034E000234683B1114B1B6913F0020F13D138BD72
:1034F000AA69002ADCD1E2E7AA690C4BDA60DAE7B4
:103500000A4BDD60E1E7094BDB68AB6103B15D614C
:10351000064BDD60E6E7FFF74DFF0028E7D0044BE0
:103520001B6801209847E2E7704700BFA42A0020EB
:10353000F05B002070B54F4BDC681D68002D5AD041
:103540009D68002D57D001FB00F6002800F0888010
:10355000002900F08780B6FBF0F0884240F08480BC
:1035600016F1040F00F2828016F0030F08D026F047
:103570000305043534B16368AB4203D2A469F9E7AB
:103580003546F7E7002C73D0A3681BB13A4B1B6894
:10359000012098476268521B232A2ED905F1200189
:1035A0006318203A5A6000229A60DC6022691A612E
:1035B000324860503249D96102B1D36062695A61C0
:1035C000A1699961002A3FD093619A6902B1536160
:1035D0000122A2606560236100236361A361254B22
:1035E0001B6913F0010F32D104F12005324600218E
:1035F000284602F014FE284670BD0123A3606369CB
:10360000ABB1A2699A61A3690BB162695A610023E7
:103610006361A361174B1B6913F0010F0BD104F118
:10362000200532460021284602F0F9FDE3E7A269B1
:10363000104BDA60E7E7FFF7BDFE0028EFD00E4B36
:103640001B6801209847EAE70A4AD360BDE7FFF705
:10365000B1FE0028C8D0084B1B6801209847C3E77B
:103660000025C8E70025C6E70025C4E70025C2E716
:103670002546C0E7A42A0020F05B002055AA00FFE1
:10368000669911EE38B505460C4614220021134800
:1036900002F0C5FD1249134800F038F8232C1CD95C
:1036A00015F0030304D01C44043CC3F104031D447F
:1036B00022460021284602F0B2FD084B1D605C60E6
:1036C0009D60203C6C609A68074911609A68A1F17E
:1036D0001021A1F1EF11D161DA6038BDA42A0020D8
:1036E000013400003535000055AA00FF08B5024B33
:1036F0001B68984708BD00BFEC5B002008B5024B73
:103700001B68984708BD00BFF45B0020024B18609F
:10371000024B196000207047EC5B0020F45B002036
:1037200008B5034B1B680A460021984708BD00BF37
:10373000F85B0020F8B504460D46476800F108061E
:10374000304603F075FB874251D16368B3F5807F43
:103750004FD80021304603F06DFD00282ADD0021FE
:10376000304603F03FFB28B3CDB104F12C06002115
:10377000304603F05FFD00281EDD0021304603F0D7
:1037800031FBC8B104F138060021304603F052FD88
:10379000002811DD0021304603F024FB60B1002138
:1037A00004F1140003F046FD002824DD35B9ADB95D
:1037B0002846F8BD124DFBE7114DF9E7002104F151
:1037C000440003F037FD002806DD002104F150001D
:1037D00003F030FD0028EADC094DE9E7002104F19F
:1037E0005C0003F027FD002807DD0025E0E7044D1D
:1037F000DEE7034DDCE7024DDAE7014DD8E700BF15
:1038000080BFFFFF70B5044600221146FFF792FF0C
:10381000E0B9064604F10805284603F0F3FA7F28CC
:1038200016D914340021204603F0DCFA60B120469A
:1038300003F0E8FA012807D92946204603F0B1FC35
:10384000002801DA304670BD024EFBE7014EF9E771
:10385000004EF7E700BEFFFFF0B587B005460C4607
:10386000164600221146FFF765FF98BB03A803F038
:1038700028FA6A68214603A803F0E0FA044630B14A
:1038800003A803F024FA14BB204607B0F0BD05F1ED
:103890000804214603A803F084FC002802DB6FF033
:1038A0000304EDE76F6805F168030093234605F113
:1038B000140203A9084604F02CF804460028DFD1BE
:1038C0003A46314603A803F0EAFA0446D8E7A4F5DD
:1038D0008544D9E7004CD7E780BFFFFF0023036092
:1038E00043600B46B9B9194A8260194AC260194A45
:1038F0000261194A4261194A8261194AC261194A30
:10390000026202F17452A2F52302A2F692424262CE
:10391000836600207047144A8260144AC26002F134
:10392000794202F5740202F501620261104A4261B5
:10393000104A826102F1D14202F5C01202F51E6204
:10394000C2610D4A02620D4A4262E1E767E6096A16
:1039500085AE67BB72F36E3C3AF54FA57F520E51B0
:103960008C68059BABD9831FD89E05C107D57C36D3
:1039700039590EF7310BC0FFA78FF964A44FFABE77
:103980002DE9F04FD1B00790002306E09A1C50F8C3
:10399000222008AC44F823200133072BF6D900225B
:1039A0000F2A11D811F8224001EB820043781B0442
:1039B00043EA0463847843EA0423C078034310A8ED
:1039C00040F822300132EBE74FF0000E42E10F9B4E
:1039D0000C9E4FEAF62181EAB61181EA766119441C
:1039E0000E9C0D9884EA0003334063401944DFF8CD
:1039F000348758F82E3019440DF1400C5CF82E3005
:103A00001944089D4FEA753A8AEAB50A8AEAB55A16
:103A1000099F05EA07030A9A45EA070902EA090924
:103A200043EA09039A440B9B01EB030951444FEA13
:103A3000F92383EAB91383EA79631C4486EA000315
:103A400009EA030343401C440EF1010A58F82A30E6
:103A50001C445CF82A301C444FEA713383EAB103FA
:103A600083EAB15305EA010A45EA010B07EA0B0BA9
:103A70004AEA0B0A534422441C444FEAF22383EAE5
:103A8000B21383EA7263184486EA09031340734051
:103A900018440EF1020A58F82A3018445CF82A300B
:103AA00018444FEA743383EAB40383EAB45301EA57
:103AB000040A41EA040B05EA0B0B4AEA0B0A5344D9
:103AC000074418444FEAF72383EAB71383EA77637E
:103AD0001E4489EA02033B4089EA03031E440EF1B7
:103AE000030A58F82A301E445CF82A301E444FEA74
:103AF000703383EAB00383EAB05304EA000A44EA6D
:103B0000000B01EA0B0B4AEA0B0A534435441E44EE
:103B10004FEAF52383EAB51383EA7563994482EA91
:103B200007032B40534099440EF1040A58F82A30F9
:103B30004B445CF82A904B444FEA763989EAB6093F
:103B400089EAB65900EA060A40EA060B04EA0B0BBA
:103B50004AEA0B0AD14419440F914B440B934FEAA4
:103B6000F12989EAB11989EA71694A4487EA0509A4
:103B700001EA090987EA090991440EF1050A58F892
:103B80002A204A445CF82A904A444FEA733A8AEA67
:103B9000B30A8AEAB35A06EA030946EA030B00EAC3
:103BA0000B0B49EA0B09CA4404EB0209CDF8389023
:103BB00052440A924FEAF92484EAB91484EA7964F7
:103BC000274485EA010409EA04046C403C440EF1F0
:103BD000060A58F82A703C445CF82A703C444FEAC4
:103BE000723787EAB20787EAB25703EA020A43EA62
:103BF000020B06EA0B0B4AEA0B0A574420440D90CD
:103C00003C4409944FEAF02787EAB01787EA7067C7
:103C10003D4481EA090900EA090981EA09012944C8
:103C20000EF1070058F8205029445CF820000144A8
:103C30004FEA743080EAB40080EAB45002EA040526
:103C4000224313402B4303440E440C960B44089329
:103C50000EF1080EBEF10F0F7FF6B9AE10263F2E03
:103C600000F24D820F9A0C9B4FEAF32787EAB317B5
:103C700087EA73673A440E980D9D80EA05071F4056
:103C800047403A44DFF89CB45BF826701744B31EF3
:103C90001A4610AB049253F822204FEAF24484EA09
:103CA000724484EA9224F21F53F822201444A6F1AD
:103CB0000F0A53F82AC04FEABC4282EAFC1282EA99
:103CC000DC021444A6F1100253F82220224443F8E7
:103CD00026203A4408994FEA713C8CEAB10C8CEAF0
:103CE000B15E099F3C460C400A990091089941EA4F
:103CF000070C009901EA0C0C44EA0C0CF4440B9CF0
:103D0000144462444FEAF42888EAB41888EA7468D4
:103D100080440C9981EA050904EA090985EA090940
:103D2000C844711C5BF821008044701E059053F854
:103D300020004FEAF04C8CEA704C8CEA902CB01FBB
:103D400053F820008444A6F10E0E53F82E904FEA4B
:103D5000B94080EAF91080EAD900604453F82A900B
:103D60004844029143F8210008EB00094FEA7238F9
:103D700088EAB20888EAB258089901EA020041EAE2
:103D8000020C019707EA0C0C40EA0C0CC4440098A2
:103D900000EB0908E1444FEAF82080EAB81080EA15
:103DA000786005440C9981EA040008EA0000484064
:103DB0000544B01C01465BF82000054453F826007A
:103DC0004FEAF04C8CEA704C8CEA902C701F53F840
:103DD00020008444A6F10D0A53F82A004FEAB040AF
:103DE00053F82A7080EAF71080EAD700604453F84D
:103DF0002EC06044039143F8210005444FEA793C0A
:103E00008CEAB90C8CEAB95C02EA090042EA090EB4
:103E1000089901EA0E0E40EA0E008444019F07EB68
:103E2000050E05EB0C0700974FEAFE2080EABE1056
:103E300080EA7E600C990D1884EA08010EEA0101FF
:103E400061406818F71C5BF827100144029D53F885
:103E500025004FEAF04585EA704585EA9025301F38
:103E600053F8200005440195A6F10C0C53F82C00E2
:103E70004FEAB04053F82C5080EAF51080EAD500A4
:103E8000019D284453F82A502844069743F82700F8
:103E9000014400984FEA7035074685EAB00585EA87
:103EA000B05509EA000049EA070A02EA0A0A40EAAC
:103EB0000A000544089800EB010A294401914FEAE1
:103EC000FA2585EABA1585EA7A652C4488EA0E0552
:103ED0000AEA050588EA05052544341D02945BF8C5
:103EE00024000544039953F821404FEAF44080EA46
:103EF000744080EA9420F41E53F824402044A6F134
:103F00000B0753F827104FEAB14484EAF11484EA0E
:103F1000D104044453F82C002044029943F82100B2
:103F2000054401994FEA713C8CEAB10C8CEAB15C12
:103F3000009804460C4001460198084309EA000035
:103F4000204360442A440F9228440B904FEAF22CFD
:103F50008CEAB21C8CEA726CC4448EEA0A080392A2
:103F600002EA08088EEA0808C444741D21465BF87A
:103F70002440A444069D53F825504FEAF54484EAB2
:103F8000754484EA9524049A53F822502C44A6F1EF
:103F90000A0853F828204FEAB24585EAF21585EA67
:103FA000D205254453F827402C44049143F821407E
:103FB00064444FEA703787EAB00787EAB05701993F
:103FC00001EA000541EA000C009901EA0C0C45EAFF
:103FD0000C052F4409EB040CCDF838C03C440A947E
:103FE0004FEAFC2787EABC1787EA7C677744039D82
:103FF0008AEA050E0CEA0E0E8AEA0E0E774406F1E6
:1040000006095BF829502F44029D53F825504FEACA
:10401000F54E8EEA754E8EEA952E059A53F822508B
:10402000AE44A6F10902029253F8225029464FEA03
:10403000B54585EAF11585EAD105754453F828E0C0
:10404000754443F829502F444FEA743585EAB40586
:1040500085EAB45500EA040940EA040E019A02EA2E
:104060000E0E49EA0E09A9440099CD190D954F4449
:1040700009974FEAF52E8EEAB51E8EEA756ED64484
:10408000039A82EA0C0C05EA0C0C82EA0C027244D8
:1040900006F107085BF8285002EB050E049953F867
:1040A00021504FEAF54282EA754282EA952253F89E
:1040B00026100A44A6F1080553F825C04FEABC456E
:1040C00085EAFC1585EADC052A44029D53F8255053
:1040D0002A4443F8282072444FEA773383EAB7032F
:1040E00083EAB75304EA07052743384028431844B6
:1040F000019911440C91104408900836AFE5002353
:10410000079809E008AA52F82340991C50F821208A
:10411000224440F821200133072BF3D9002051B06D
:10412000BDE8F08F188E000038B505460A4B53F8ED
:10413000204000E00C346B1C074A52F82330A342A5
:1041400008D923685B68204698470028F2D00023EE
:104150006360EFE738BD00BF188F000038B5114C21
:1041600000E00C34104B9C4208D06368002BF8D060
:1041700023681B688342F4D1204638BD0546094CAC
:1041800000E00C34084B9C420AD06368002BF8D046
:1041900023681968284601F0FEFF0028F1D1EBE7FB
:1041A0000024E9E7045C0020A05C002008B5034877
:1041B000034A121A002102F032F808BD0000002064
:1041C000C42B002008B50648064A121A064902F018
:1041D00003F8064A0649074801F0FEFF08BD00BF84
:1041E000C85B0020D85C00207C8F0000000000002D
:1041F0007C8F00000000002008B50B4B01221A70D4
:104200000220FFF791FF094A09490A4801F005FC1D
:104210000320FFF789FFFCF713F9074A137B23F00C
:104220000103137308BD00BFC32B0020548B000093
:10423000308F0000508F0000242B002008B5FDF7C0
:10424000C1FA164B83F30888154CE02384F822301A
:104250000025E57725766576A576636A43F4E02345
:104260006362FEF761F9FEF72FF84FF0FF33A362A8
:10427000E3622846FFF758FF0120FFF755FF2A4663
:1042800029462846FFF7B8FF4FF02002EFF31183CD
:1042900082F31188BFF36F8FFEE700BFC85B002079
:1042A00000ED00E010B5064C0020064B9C4206D203
:1042B000204603F0EBFE002801DB1C34F5E710BDBF
:1042C000A05C0020A05C00202DE9F0414FF020030D
:1042D000EFF3118483F31188BFF36F8FC2689AB92B
:1042E000002A4AD1364B9B6893F90E3003610132A4
:1042F000C260334B9B68836084F31188BFF36F8F78
:1043000000231846BDE8F08186682D4B9B689E42CD
:10431000E6D0B1FA81F77F098FBB0D46804696F94A
:104320000E60314693F90E0003F0C7FE86422DDC85
:1043300000262B4642462146224800F019FA034641
:104340000028DED04FF02003EFF3118483F31188AF
:10435000BFF36F8FD8F8003098451DD0E3B1D8F87F
:10436000101093F90E0003F0A8FE0146404603F03A
:10437000ADFEA0B9A6B1012712E00369B6E784F348
:104380001188BFF36F8F6FF00F03BAE70146404605
:1043900003F09CFE0646CCE7D8F81010E6E70127AC
:1043A00037B984F31188BFF36F8F6FF00A03A8E762
:1043B0002146044803F0A3FE6FF00A03A1E700BF03
:1043C000902B0020902B002038B58368002B3DD027
:1043D000214A926893423CD10446C368012B05D020
:1043E000013BC36003F0ACFE002038BD4FF020035A
:1043F000EFF3118583F31188BFF36F8F016903F029
:1044000065FE204603F0E0FEA060C0B190F90E30DA
:10441000236100238366437B13F01F0F05D183695B
:104420000BB1002302E0012300E0002323B9294659
:104430000A4803F064FED5E700F04CF8F7E70023E4
:10444000E36085F31188BFF36F8FCBE76FF0150042
:10445000CBE74FF0FF30C8E7902B0020902B0020D7
:104460000A4B834208D04A680B6813604A685A6056
:1044700000230B604B607047203B9B688B42F2D15E
:104480004B7B13F01F0FEED0F5E700BFB02B0020E1
:1044900010B504460C4803F054FE034670B184B9CD
:1044A0000A4A9268517B11F01F0F0AD1996941B9EC
:1044B00007498A4205D0054BDA6104E0034BDB680B
:1044C000EDE7024AD36110BDB02B0020902B0020F5
:1044D000B82A002070B5054600234FF02002EFF304
:1044E000118682F31188BFF36F8F1CE063686B60E5
:1044F0002C6063681D60656009E0002419E0164BBC
:1045000003F120022A605A6A6A6015605D626B7B63
:1045100063F07F036B730020FFF7BAFF86F3118807
:10452000BFF36F8F0123B3B90B4B53F8204F9C425D
:10453000E3D0002CE3D02146284603F0D6FD002826
:10454000D4D1002CDBD0044B5B6A9C42D7D02468CA
:10455000002CEED1D3E770BD902B002038B5044677
:10456000183003F097FE00234FF02002EFF311857F
:1045700082F31188BFF36F8F10E0637B43F0100369
:104580006373154B9868A04214BF00200120FFF709
:104590007FFF85F31188BFF36F8F012363B994F90F
:1045A0000D30002BE9DA21460C48FFF759FF637BF9
:1045B00003F07F036373E0E7074B9B68A34200D0DF
:1045C00038BD4FF02003EFF3118083F31188BFF360
:1045D0006F8F03F0A7FDF3E7902B0020B02B002096
:1045E00038B50446036D03B1984704F1180003F091
:1045F00051FE00234FF02002EFF3118582F3118862
:10460000BFF36F8F16E012F0010F27D013F0800F69
:104610001BD11B4B9868A04214BF00200120FFF75C
:1046200037FF637B43F00803637385F31188BFF39F
:104630006F8F01231A460BBB637B13F01F0FE2D170
:10464000A1690029DFD10122DDE721460D48FFF7EE
:1046500007FF637B03F07F036373DAE713F0020F56
:10466000DFD0204603F03DFD2146FFF7F9FE637BD6
:1046700023F0020363730023A360D2E738BD00BFB9
:10468000902B0020B02B002038B5044600234FF0BB
:104690002002EFF3118582F31188BFF36F8F0CE0D6
:1046A0000D4B9868A04214BF00200120FFF7F0FED8
:1046B00085F31188BFF36F8F012363B994F90D302F
:1046C000002BEDDA21460548FFF7CAFE637B03F0B5
:1046D0007F036373E4E738BD902B0020B02B0020EC
:1046E000F8B505460E461746FFF7CEFF6B7B43F045
:1046F00002036B73AEB1AE603468A64232D05CB1D7
:104700002146284603F0F1FC28BB2CB173689C427B
:1047100002D02468002CF2D12E6073686B601D609B
:104720007560B7F1FF3F15D0002F1DDB790CF80342
:1047300040F2E7344FF47A72002300194FF000047E
:1047400044EB0101FBF7FEFC421C084905F118008F
:1047500000F024F9F8BD63686B602C6063681D602D
:104760006560DEE70024CAE70027DFE7518100002B
:1047700010B50C4611461A46034B9868FFF7B0FF78
:104780002046FDF727FD10BD902B00202DE9F843B2
:104790000446884600234FF02002EFF3118682F38F
:1047A0001188BFF36F8F1F4609E012F0010712D185
:1047B00084F80E8086F31188BFF36F8F01231A46A9
:1047C000002B37D1637B13F01F0FEED1A369002BB1
:1047D000EBD10122E9E7194D05F1200921464846B0
:1047E000FFF73EFE84F80E802D6A4D4520D065B15E
:1047F0002946204603F079FC98B935B10F4B5B6A26
:104800009D4202D02D68002DF1D10C4B03F1200206
:1048100022605A6A626014605C620120FFF738FE11
:10482000C8E76B68636025606B681C606C60F4E7C8
:104830000025DCE73846BDE8F88300BF902B002058
:1048400038B50446B0F1FF3F28D0610CE00340F2D8
:10485000E7344FF47A72002300194FF0000444EB60
:104860000101FBF76FFC03F03EFC0446C51769012C
:10487000430141EAD0621B1A62EB0502910041EA52
:10488000937198000A46031945EB0202D00040EAF2
:104890005370D900CB0B43EA404038BD024B9868B7
:1048A00000F03CF82046F8E7902B0020014B986878
:1048B000704700BF902B002070B506464FF02003D4
:1048C000EFF3118583F31188BFF36F8F03F07CFC46
:1048D000B8B10446437B13F01F0F05D183690BB1B8
:1048E000002302E0012300E0002333B90023A36684
:1048F0002946094803F003FC70BD2046FFF7EAFD96
:10490000F4E7B368F268934203D001221344B36022
:10491000EEE70022FAE700BFB82B002038B50446C6
:104920004FF02003EFF3118583F31188BFF36F8FEE
:10493000FFF714FE064B9B68A34204D085F3118851
:10494000BFF36F8F38BD2946024803F0D8FBF9E763
:10495000902B0020B82B0020034B1868984200D001
:1049600070470020FCE700BFFC5B002030B1044A28
:104970005268904201D0006870470020704700BF25
:10498000FC5B002008B5044B1B680BB1002008BD80
:10499000FDF716FBFBE700BFB82B002070B50446FF
:1049A000C160012AB8BF0122164600234FF0200241
:1049B000EFF3118582F31188BFF36F8F11E0D31AE3
:1049C000836043686360206043681C604460D0B1CA
:1049D000FFF7C2FF84421DD085F31188BFF36F8FAC
:1049E0000123EBB9FFF7CEFF3044A060FFF7B4FF1F
:1049F0000028ECD08268A3689A42E0DC9B1AA3608E
:104A0000FFF7B4FFF4E7074B23605A686260146055
:104A10005C60DDE703F02FFC0021FDF773FADBE7B4
:104A200070BD00BFFC5B00202DE978484FF02003EB
:104A3000EFF3118583F31188BFF36F8F244B186058
:104A4000FFF78AFF044628B38268214B1B689A420D
:104A500020DC204ED6E9000110EB020B41EBE27C9A
:104A6000C6E900BC9B1A1A4A13600023A3602046C3
:104A700003F0EFFB85F31188BFF36F8FE3682046E7
:104A800098474FF02003EFF3118583F31188BFF3AC
:104A90006F8FD5E724B1A3680D4A12689B1AA360F3
:104AA0000C480B490C68D0E9002312EB040B43EBD4
:104AB000E47CC0E900BC00240C6003F0DCFB214670
:104AC000FDF720FA85F31188BFF36F8FBDE8788872
:104AD000B82B00200000002010B5054C054B9C426F
:104AE00004D2204603F0F4FB1C34F7E7002010BD8D
:104AF000A05C0020A05C002070B582B0054601A932
:104B00000079FBF745FDAC68019B1C442B681D89AF
:104B100066194FF02002EFF3118382F31188BFF37F
:104B20006F8F01F050FA635983F3088873689847D0
:104B300002B070BD21B1012904D06FF0150070479B
:104B40000220704706207047FF20704738B5154691
:104B50001C4601F06BF858B901460023A34205D268
:104B6000EA5CFF2A06D10133DBB2F7E7012101E05D
:104B70004FF0FF31084638BD08B5006A01F0D3F8A0
:104B800008BD2DE9F04182B007460E4615460020CB
:104B9000FFF7D0FF01A9C0B2FDF7D2F840B14FF046
:104BA0000108019801F041F8404602B0BDE8F081EB
:104BB0002C2303FB06731C89DB681C4404236A4610
:104BC0002146019801F032F8804640BB2C2000FBC2
:104BD00006704689BDF8002046F608139A420CD0AC
:104BE00006BBBDF8002046F607139A421DD1344497
:104BF000BDF802301C442C60D3E7BDF802108E4291
:104C000002D04FF00308CCE704236A462144019800
:104C100001F00CF80028E4D04FF00108C1E74FF094
:104C20000108BEE74FF00308BBE74FF00308B8E701
:104C3000F0B583B007460C460020FFF77BFF01A9C3
:104C4000C0B2FDF77DF8D0B906460198FFF77CFFAA
:104C50000546019800F0E9FF2C2000FB04700023BA
:104C6000032B05D8C25C954207D10133DBB2F7E7CD
:104C700001233BB1304603B0F0BD0023F9E74FF00C
:104C8000FF36F7E74FF0FF36F4E710B582B0802328
:104C90000193022905D0062911D1026D00F15404B7
:104CA00002E0426A00F12804084601A9FDF75CF819
:104CB000034608B9019A2260184602B010BD0123CC
:104CC000FAE738B505460221FFF7DFFF10B10124EE
:104CD000204638BD06212846FFF7D7FF044608B115
:104CE0000124F5E72846FFF747FFE865F0E7F8B548
:104CF00005460F4616460024012C10DC33462C22B4
:104D000002FB045221462846FBF7B6FF034608B9CA
:104D10000134F1E7002C03DD17B9002300E0002384
:104D20001846F8BD70B505460E460020FCF780FA1F
:104D30000446022805D0042803D0032801D02046C9
:104D400070BD324601212846FBF788FC012803D0BC
:104D50000028F4D00524F2E70446F0E7002383712D
:104D60008360C3600123437103600371C3717047A3
:104D70004379012B01D0002070470368012B01D03B
:104D8000002070470379012B01D0002070470120DB
:104D9000704738B50546FBF7C1FC024695F8584008
:104DA000E31EDBB2012B0FD9022C03D0042C01D05F
:104DB000032C07D1002000F0DBF8024610B1FF23DE
:104DC00085F85830104638BD002000F0E4F802465F
:104DD0000028E9D0FF2485F85840E7E770B584B093
:104DE00006460C4603A90220FCF7AAFF30B10124B5
:104DF000039800F01AFF204604B070BD039800F03D
:104E00006DF90546F16D204600F0E5F8054403987C
:104E100000F089FF06460398FFF796FE0822014638
:104E200001A801F0FCF923798DF80430334601AA7A
:104E30002946039800F019FF04460028D8D0012421
:104E4000D6E708B500F041FF08BD2DE9F04706465A
:104E50000F4600210846FFF76DFE044601210020A1
:104E6000FFF768FE3B789C4223D0984223D1012370
:104E700099462C2202FB03639C6A013CF06D00F012
:104E80001AF9804600252C2303FB09635B6A03EBB8
:104E9000C402D2F804A053F834101B685246C91A51
:104EA0003846FFF7CEFF013C5544A845EBD8BDE896
:104EB000F0870023DCE70120F9E730B583B00C462A
:104EC00015466946062000F075F9E97901290DD1EA
:104ED0009DF80330012B0ED0A968204600F0BAF9E6
:104EE0002046FCF795F9002003B030BD0022204693
:104EF00000F09EF9ECE7204600F093F9ECE770B57E
:104F000082B006460D46FBF7EBFF0446E86060B34F
:104F1000022829D101A90220FCF712FF08B10124BF
:104F200023E02A4631460198FBF702FF044618B1F8
:104F3000019800F07AFE18E0019800F0D8F80123FB
:104F40000DF1030201460198FFF700FE012806D08B
:104F50009DF8033003F00F03EB710446E8E70123EB
:104F60008DF803302046F3E70724204602B070BDD9
:104F700010B582B001A90220FCF7E2FE18B10124AD
:104F8000204602B010BD019800F044F90446019893
:104F900000F04BFEF4E710B584B003A90220FCF743
:104FA000CFFE18B10124204604B010BD01A903981A
:104FB00000F0A0F8044660B99DF80730032B03D039
:104FC000039800F032FEEEE7039800F02AF9044659
:104FD000F6E70124F4E730B44379012B10D0022224
:104FE00001FB02F4012B0DD0CD010379013B0268D6
:104FF000013A02FB04F201FB0323581930BC70474D
:105000000122EDE70025F0E7012800D170470220DA
:10501000FCE72DE9F04383B006460F4690461C4658
:1050200000F081FE082C21D80546082802D94FF04F
:10503000FF331DE03046FFF787FD8146A54200D2D1
:10504000254622464146684601F0C6F82A1B4946D5
:105050000DEB040001F0E3F82B466A463946304672
:1050600000F003FE034618B1012301E04FF0FF33C7
:10507000184603B0BDE8F08300B583B08DF8042076
:10508000012301AAFFF7C5FF03B05DF804FB042864
:105090000BD0052804D111F1FF3018BF0120704753
:1050A000884214BF0020012070470120704700EBA8
:1050B0004003D801704708B5FFF7F9FF303008BD4D
:1050C0000B78022B07D0062B02D14FF4C07070472B
:1050D0004FF0FF3070474FF4C070704710B5044672
:1050E00000F021FEFFF7E7FFA368181A10BD8068E3
:1050F0002838704730B587B005460C4681681023C4
:1051000002AA1039FFF722FD00284ADB01283CD112
:10511000032323702846FFF7EAFF01230DF107025E
:1051200001462846FFF712FD00283DDB9DF80730B9
:1051300003F00F0262701B092371012801D0042AB9
:1051400003D90123637000232371A9680123A21CE2
:1051500020392846FFF7FAFC002827DB012819D060
:10516000A078FFF751FFA070A9680123E21C18394D
:105170002846FFF7EBFC00281ADB01280DD0E07869
:10518000FFF742FFE07000200CE002A8FBF7FCFFF5
:105190002070BFE70323A370E6E70323E37000203A
:1051A00000E0012007B030BD0120FBE70120F9E756
:1051B0000120F7E710B582B00C4601A9C0B2FCF798
:1051C000BFFD18B10124204602B010BD2146019850
:1051D000FFF790FF0446019800F027FDF3E730B594
:1051E00083B00D4601A9FBF7DBFF044610B1204652
:1051F00003B030BD019C2046FFF779FF04232A4607
:10520000A0F10801204600F011FD0446019800F0CD
:105210000CFDECE708B5816801222039FFF72CFF6F
:1052200008BD08B5816801221839FFF725FF08BDC0
:1052300010B582B0044641EA02128DF80720FFF74C
:1052400056FF01230DF1070201462046FFF7E1FE5C
:1052500002B010BD10B582B004460191FFF747FFC0
:1052600004230DEB0302A0F108012046FFF7D1FE55
:1052700002B010BD2DE9F0439DB015469946249F1C
:10528000DDF89480279C01A802F0FAFD002101A816
:10529000FEF724FB14B1289B002B06DC2B89EE685B
:1052A00033446E891E44002513E01A46214601A8A6
:1052B00002F0ECFDF2E723463A462946484600F064
:1052C000B5FC034688B92246394601A802F0DEFD46
:1052D0002544B54204D2741B4445ECD94446EAE760
:1052E000269901A802F015FE002318461DB0BDE85E
:1052F000F0832DE9F04184B004460E461546302374
:1053000003AA2946304601F074FAA8BB3368039A11
:105310001344AB4233D104F108073A4629463046DC
:1053200001F07AFA28BB04F11408424629463046B7
:1053300001F072FAE8B9384601F07AFD606033682E
:10534000AB421FD1CDF804800022009213463946AB
:10535000204602F010FDC0B92046FEF753FA05467C
:10536000B0B9384601F064FD6060284604B0BDE87D
:10537000F0816FF00205F8E74FF0FF35F5E76FF0C9
:105380000105F2E76FF00305EFE76FF00405ECE7C6
:105390006FF00505E9E7F0B5A5B006460F46002316
:1053A0000893DF2407E025462A466946304600F088
:1053B00013FF2E44641B002C1DDD09A802F060FDC4
:1053C000002109A8FEF78AFA2022394609A802F02E
:1053D0005DFD042208A909A802F058FD694609A844
:1053E00002F097FD9DF8233001338DF823301F2CF8
:1053F000D9DD2025D8E725B0F0BD2DE9F04383B0F5
:1054000000284AD0054600294AD0002A4BD09946A8
:1054100017460C460E89CB681E4404230DEB03028D
:105420003146384600F002FC804600283ED1BDF8E7
:10543000042046F608139A421ED06389002B3BD104
:10544000BDF8042046F607139A4238D12C606F60ED
:10545000A5F808909DF82830AB7263893344EB605F
:1054600063893344BDF8062013446B6104362E6112
:10547000404603B0BDE8F0836389BDF806108B4257
:1054800017D104230DEB03023144384600F0CEFB64
:105490000028D5D04FF0FF38EAE74FF0FF38E7E7B4
:1054A0004FF0FF38E4E74FF0FF38E1E74FF0FF3807
:1054B000DEE74FF0FF38DBE74FF0FF38D8E74FF07B
:1054C000FF38D5E700284DD0F0B583B0044600681A
:1054D00000284BD01D4616460F4663680BBB4FF0A5
:1054E000FF313AE004230DEB03022169606800F00C
:1054F0009DFB014600283CD1A37A1BB12269E368D9
:105500009A4239D223894FF6FF72934217D0BDF8E1
:105510000420934213D0BDF80600236918440430D8
:1055200020612069636998421AD223685B89002B45
:10553000D8D0E3688342D5D104302061D2E715B1D9
:10554000BDF804302B80236904333B60BDF806307E
:1055500033802269134404332361084603B0F0BD4D
:105560000121FAE74FF0FF31084670474FF0FF3155
:10557000F3E74FF0FF31F0E70121EEE7006801FBB0
:1055800002007047F8B50446B0F808C0406800FB58
:105590000CFC27686744FF23E37200220AE0E368FB
:1055A0005F511F3117D4491107EB8107800820F0A4
:1055B00003000132A37A93420FDDBCFBF0F1E368F4
:1055C00002EB4206B5002B441E1D5E609E60202942
:1055D000E5D8E272EAE71F31E5E700250CE02A464C
:1055E00061682046FFF7CAFFE3681A1D02609A68E7
:1055F00042601060986001352389AB42EFDCF8BD52
:105600000020704738B504460D464520A04729467E
:105610005220A04729465220A04738BD2DE9F04F1F
:1056200083B08146009190461E469DF830B000251B
:105630004FF0100A2F46402407E009282AD95723A3
:1056400000991844C84701350127032C33DD043C79
:10565000C4F12002A4F1200328FA04F006FA02F2B1
:10566000104326FA03F3184310F00F00E5D1002F82
:10567000E3D1002CE1D00AF1FF3301930D9B9A4551
:1056800016DCBBF1010F07D0BBF1020F0AD0DDF829
:1056900004A0DAE73023D3E700993020C847DDF8CB
:1056A00004A0D2E700992020C847DDF804A0CCE789
:1056B000DDF804A0C9E7BBF1030F02D003B0BDE8D9
:1056C000F08F0D9BC5EB430503E000992020C847F0
:1056D00025466C1E002DF8DCF0E72DE9F04F87B071
:1056E00007460E46144605934FF000084FF0FF3969
:1056F000C246454602E03146B847013420780028CA
:1057000000F0888145B92528F5D14FF000084FF009
:10571000FF39C2460125F0E70246A0F12503552BCB
:1057200000F26A81DFE813F0630168016801680133
:10573000680168016801680170016801680156002C
:105740005D005D005D005D005D005D005D005D0071
:105750005D0068016801680168016801680168010D
:1057600068016801680168016801680168016801F1
:1057700068016801680168016801680168016801E1
:1057800068016801680168016801680168010D012C
:1057900068016801680168016801680168016801C1
:1057A000680168015B018B00680168016801710094
:1057B0008B006801680171006801680168010301DC
:1057C000680168013B016801D000680168010D01B2
:1057D00068017100B9F1000F03DABAF1000F00F0AF
:1057E0001681B9F1000F0DDB09EB89034FEA43097C
:1057F0009144A9F13009BAF1000F7FF47EAF4FF068
:10580000020A7AE7A2F13009F5E768280CD06C2883
:1058100010D0B8F1000F0BD031462520B8473146E3
:105820002078B847002568E7B8F1680FEFD1482025
:10583000804662E7B8F16C0FEBD14C20F8E7B8F185
:105840007A0F0AD0B8F16C0F17D0B8F14C0F19D0FD
:10585000059B1A1D05921D6803E0059B1A1D059204
:105860001D68002D29DBCDF8009053462A463146AD
:105870003846FBF7F9FE00253FE7059B1A1D059208
:105880001D68EEE7059B073323F0070303F10802C9
:1058900005921D685B6815F10042029243F1000316
:1058A0000393DDE90223012B08BF002AD9D3314637
:1058B0003846FFF7A7FE00251FE731462D20B847E1
:1058C0006D4209F1FF39CEE7B8F17A0F0AD0B8F18D
:1058D0006C0F14D0B8F14C0F16D0059B1A1D059211
:1058E0001A6803E0059B1A1D05921A68CDF800900E
:1058F000534631463846FBF7B7FE0025FDE6059BCB
:105900001A1D05921A68F1E7059B073323F0070378
:1059100003F108020592D3E90023012B08BF002AF6
:10592000E4D331463846FFF76DFE0025E5E6314603
:105930003020B84731467820B8474FF008094FF07B
:10594000010A2378702B0BD0B8F16C0F17D0B8F187
:105950004C0F1AD0059B1A1D05921A68002304E00B
:10596000059B1A1D05921A680023CDF80490CDF806
:1059700000A031463846FFF751FE0025BDE6059BE5
:105980001A1D05921A680023EFE7059B073323F0E1
:10599000070303F1080205921A685B68E5E7059BB7
:1059A0001A1D0592D3F800B05D4602E0013531467C
:1059B000B84728780028F9D1BAF1030F01D00025A3
:1059C0009BE6A5EB0B03A9EB030303E03146202084
:1059D000B8472B465D1E002BF8DC00258DE6059BA5
:1059E0001A1D059231461868B847002585E63146EC
:1059F0002520B847002580E631462520B8473146A6
:105A00002078B847002578E64FF0030A75E64FF096
:105A1000010A72E607B0BDE8F08F0FB400B583B09D
:105A200004A951F8040B019100F010F803B05DF8DF
:105A300004EB04B07047704708B5FDF7AFFB08BD35
:105A40000020704708B5FCF7D1FA08BD08B50A4632
:105A500001464FF00000FBF785FE08BD0EB400B50F
:105A600082B003AA52F8041B0192FBF77BFE02B03E
:105A70005DF804EB03B0704708B5FBF7DFFE0020CC
:105A800008BD00B583B001900B684A6852680121D7
:105A900001A89847002003B05DF804FBF8B507465D
:105AA0000D4614461E46324621462846B847054450
:105AB000241AF8D1F8BD0022037813B101301A4638
:105AC000FAE70A2A14BF00200120704708B51346E0
:105AD0000122FBF763FF08BD08B513460022FBF760
