:10C00000C05B03201D910100D5D40200798D010091
:10C01000798D0100798D0100798D0100798D010004
:10C02000798D0100798D0100798D0100418D01002C
:10C03000798D0100798D01007D8C0100AD870100B3
:10C04000958D0100958D0100958D0100958D010064
:10C05000958D0100958D0100958D0100958D010054
:10C06000958D0100958D0100958D0100958D010044
:10C07000958D0100958D0100958D0100958D010034
:10C08000958D0100958D0100958D0100958D010024
:10C09000958D0100958D0100958D0100958D010014
:10C0A000958D0100958D0100958D0100958D010004
:10C0B000F5B3010051E30200958D0100958D01005B
:10C0C000958D0100958D0100958D0100958D0100E4
:10C0D000958D0100958D0100958D0100958D0100D4
:10C0E000958D0100958D01006FE30200958D010093
:10C0F000958D0100958D0100958D0100958D0100B4
:10C10000958D0100958D0100958D0100958D0100A3
:10C11000958D0100958D0100958D0100958D010093
:10C12000958D0100958D0100958D0100958D010083
:10C13000958D0100958D0100958D0100958D010073
:10C14000958D0100000000000000000000000000CC
:10C1500000000000000000000000000000000000DF
:10C1600000000000000000000000000000000000CF
:10C1700000000000000000000000000000000000BF
:10C1800000000000000000000000000000000000AF
:10C19000000000000000000000000000000000009F
:10C1A000000000000000000000000000000000008F
:10C1B000000000000000000000000000000000007F
:10C1C000000000000000000000000000000000006F
:10C1D000000000000000000000000000000000005F
:10C1E000000000000000000000000000000000004F
:10C1F000000000000000000000000000000000003F
:10C20000DEE61E284CBBCE8F025B00003C00000027
:10C21000609602000100000000C0000000C00000A5
:10C22000FFFF02910000000000000000000000007D
:0CC2300000000000000000000000000002
:04C23C00FFFFFFFF02
:10C2400081F0004102E000BF83F0004330B54FEAC7
:10C2500041044FEA430594EA050F08BF90EA020F34
:10C260001FBF54EA000C55EA020C7FEA645C7FEAC7
:10C27000655C00F0E2804FEA5454D4EB5555B8BFEA
:10C280006D420CDD2C4480EA020281EA030382EA5B
:10C29000000083EA010180EA020281EA0303362DED
:10C2A00088BF30BD11F0004F4FEA01314FF4801CC0
:10C2B0004CEA113102D0404261EB410113F0004FD2
:10C2C0004FEA03334CEA133302D0524263EB430389
:10C2D00094EA050F00F0A780A4F10104D5F1200E27
:10C2E0000DDB02FA0EFC22FA05F2801841F1000182
:10C2F00003FA0EF2801843FA05F359410EE0A5F156
:10C3000020050EF1200E012A03FA0EFC28BF4CF086
:10C31000020C43FA05F3C01851EBE37101F000453C
:10C3200007D54FF0000EDCF1000C7EEB00006EEB49
:10C330000101B1F5801F1BD3B1F5001F0CD34908D3
:10C340005FEA30004FEA3C0C04F101044FEA44522A
:10C3500012F5800F80F09A80BCF1004F08BF5FEAB1
:10C36000500C50F1000041EB045141EA050130BD91
:10C370005FEA4C0C404141EB010111F4801FA4F134
:10C380000104E9D191F0000F04BF01460020B1FA89
:10C3900081F308BF2033A3F10B03B3F120020CDAC1
:10C3A0000C3208DD02F1140CC2F10C0201FA0CF09F
:10C3B00021FA02F10CE002F11402D8BFC2F1200C04
:10C3C00001FA02F120FA0CFCDCBF41EA0C019040BA
:10C3D000E41AA2BF01EB0451294330BD6FEA040403
:10C3E0001F3C1CDA0C340EDC04F11404C4F12002EE
:10C3F00020FA04F001FA02F340EA030021FA04F300
:10C4000045EA030130BDC4F10C04C4F1200220FA56
:10C4100002F001FA04F340EA0300294630BD21FA94
:10C4200004F0294630BD94F0000F83F4801306BF5A
:10C4300081F480110134013D4EE77FEA645C18BF4E
:10C440007FEA655C29D094EA050F08BF90EA020FE5
:10C4500005D054EA000C04BF1946104630BD91EADD
:10C46000030F1EBF0021002030BD5FEA545C05D1E0
:10C470004000494128BF41F0004130BD14F580041F
:10C480003CBF01F5801130BD01F0004545F0FE4193
:10C4900041F470014FF0000030BD7FEA645C1ABFC8
:10C4A000194610467FEA655C1CBF0B46024650EAFF
:10C4B000013406BF52EA033591EA030F41F400212B
:10C4C00030BD00BF90F0000F04BF0021704730B5B1
:10C4D0004FF4806404F132044FF000054FF0000186
:10C4E00050E700BF90F0000F04BF0021704730B547
:10C4F0004FF4806404F1320410F0004548BF40421C
:10C500004FF000013EE700BF42004FEAE2014FEA70
:10C5100031014FEA02701FBF12F07F4393F07F4F4B
:10C5200081F06051704732F07F4208BF704793F04E
:10C530007F4F04BF41F40021704730B54FF4607461
:10C5400001F0004521F000411CE700BF50EA010264
:10C5500008BF704730B54FF000050AE050EA01020D
:10C5600008BF704730B511F0004502D5404261EB7D
:10C5700041014FF4806404F132045FEA915C3FF4BE
:10C58000D8AE4FF003025FEADC0C18BF03325FEA5B
:10C59000DC0C18BF033202EBDC02C2F1200300FA0C
:10C5A00003FC20FA02F001FA03FE40EA0E0021FA31
:10C5B00002F11444BDE600BF70B54FF0FF0C4CF41F
:10C5C000E06C1CEA11541DBF1CEA135594EA0C0FD1
:10C5D00095EA0C0F00F0DEF82C4481EA030621EA0C
:10C5E0004C5123EA4C5350EA013518BF52EA033547
:10C5F00041F4801143F4801338D0A0FB02CE4FF0F9
:10C600000005E1FB02E506F00042E0FB03E54FF028
:10C610000006E1FB03569CF0000F18BF4EF0010E20
:10C62000A4F1FF04B6F5007F64F5407404D25FEA1C
:10C630004E0E6D4146EB060642EAC62141EA5551CF
:10C640004FEAC52040EA5E504FEACE2EB4F1FD0C11
:10C6500088BFBCF5E06F1ED8BEF1004F08BF5FEA8F
:10C66000500E50F1000041EB045170BD06F0004641
:10C6700046EA010140EA020081EA0301B4EB5C04EE
:10C68000C2BFD4EB0C0541EA045170BD41F48011E6
:10C690004FF0000E013C00F3AB8014F1360FDEBF0B
:10C6A000002001F0004170BDC4F10004203C35DAE7
:10C6B0000C341BDC04F11404C4F1200500FA05F36A
:10C6C00020FA04F001FA05F240EA020001F000420B
:10C6D00021F0004110EBD37021FA04F642EB060181
:10C6E0005EEA430E08BF20EAD37070BDC4F10C04AB
:10C6F000C4F1200500FA04F320FA05F001FA04F26F
:10C7000040EA020001F0004110EBD37041F100015A
:10C710005EEA430E08BF20EAD37070BDC4F1200565
:10C7200000FA05F24EEA020E20FA04F301FA05F2CD
:10C7300043EA020321FA04F001F0004121FA04F275
:10C7400020EA020000EBD3705EEA430E08BF20EA45
:10C75000D37070BD94F0000F0FD101F0004640007F
:10C7600041EB010111F4801F08BF013CF7D041EA01
:10C77000060195F0000F18BF704703F00046520005
:10C7800043EB030313F4801F08BF013DF7D043EAD6
:10C790000603704794EA0C0F0CEA135518BF95EA8C
:10C7A0000C0F0CD050EA410618BF52EA4306D1D113
:10C7B00081EA030101F000414FF0000070BD50EA32
:10C7C000410606BF1046194652EA430619D094EABC
:10C7D0000C0F02D150EA013613D195EA0C0F05D1A6
:10C7E00052EA03361CBF104619460AD181EA0301FA
:10C7F00001F0004141F0FE4141F470014FF00000B2
:10C8000070BD41F0FE4141F4780170BD70B54FF04C
:10C81000FF0C4CF4E06C1CEA11541DBF1CEA1355CC
:10C8200094EA0C0F95EA0C0F00F0A7F8A4EB0504AE
:10C8300081EA030E52EA03354FEA013100F08880A5
:10C840004FEA03334FF0805545EA131343EA12636E
:10C850004FEA022245EA111545EA10654FEA002623
:10C860000EF000419D4208BF964244F1FD0404F5DC
:10C87000407402D25B084FEA3202B61A65EB030538
:10C880005B084FEA32024FF480104FF4002CB6EBF5
:10C89000020E75EB030E22BFB61A754640EA0C0075
:10C8A0005B084FEA3202B6EB020E75EB030E22BFB5
:10C8B000B61A754640EA5C005B084FEA3202B6EBF6
:10C8C000020E75EB030E22BFB61A754640EA9C00B5
:10C8D0005B084FEA3202B6EB020E75EB030E22BF85
:10C8E000B61A754640EADC0055EA060E18D04FEA43
:10C8F000051545EA16754FEA06164FEAC30343EAE3
:10C9000052734FEAC2025FEA1C1CC0D111F4801FAF
:10C910000BD141EA00014FF000004FF0004CB6E7A8
:10C9200011F4801F04BF01430020B4F1FD0C88BF47
:10C93000BCF5E06F3FF6AFAEB5EB030C04BFB6EB52
:10C94000020C5FEA500C50F1000041EB045170BD45
:10C950000EF0004E4EEA113114EB5C04C2BFD4EB72
:10C960000C0541EA045170BD41F480114FF0000EF6
:10C97000013C90E645EA060E8DE60CEA135594EA72
:10C980000C0F08BF95EA0C0F3FF43BAF94EA0C0F75
:10C990000AD150EA01347FF434AF95EA0C0F7FF4EA
:10C9A00025AF104619462CE795EA0C0F06D152EA3E
:10C9B00003353FF4FDAE1046194622E750EA410622
:10C9C00018BF52EA43067FF4C5AE50EA41047FF433
:10C9D0000DAF52EA43057FF4EBAE12E74FF0FF3C98
:10C9E00006E000BF4FF0010C02E000BF4FF0010C69
:10C9F0004DF804CD4FEA410C7FEA6C5C4FEA430CE2
:10CA000018BF7FEA6C5C1BD001B050EA410C0CBF30
:10CA100052EA430C91EA030F02BF90EA020F002092
:10CA2000704710F1000F91EA030F58BF994208BFF9
:10CA300090422CBFD8176FEAE37040F001007047B6
:10CA40004FEA410C7FEA6C5C02D150EA013C07D10D
:10CA50004FEA430C7FEA6C5CD6D152EA033CD3D058
:10CA60005DF8040B704700BF8446104662468C4652
:10CA70001946634600E000BF01B5FFF7B7FF002885
:10CA800048BF10F1000F01BD4DF808EDFFF7F4FFAE
:10CA90000CBF012000205DF808FB00BF4DF808ED39
:10CAA000FFF7EAFF34BF012000205DF808FB00BF5C
:10CAB0004DF808EDFFF7E0FF94BF012000205DF87E
:10CAC00008FB00BF4DF808EDFFF7CEFF94BF012033
:10CAD00000205DF808FB00BF4DF808EDFFF7C4FF2C
:10CAE00034BF012000205DF808FB00BF4A0011D2CE
:10CAF00012F5001211D20DD56FF47873B3EB6252B8
:10CB00000ED44FEAC12343F0004343EA505323FAC3
:10CB100002F070474FF00000704750EA013002D138
:10CB20004FF0FF3070474FF0000070474FEA41026E
:10CB3000B2F1E04324BFB3F5001CDCF1FE5C0DD97B
:10CB400001F0004C4FEAC0024CEA5070B2F1004FC5
:10CB500040EB830008BF20F00100704711F0804FC8
:10CB600021D113F13872BCBF01F00040704741F48D
:10CB700080114FEA5252C2F11802C2F1200C10FA91
:10CB80000CF320FA02F018BF40F001004FEAC12375
:10CB90004FEAD32303FA0CFC40EA0C0023FA02F319
:10CBA0004FEA4303CCE77FEA625307D150EA0133EF
:10CBB0001EBF4FF0FE4040F44000704701F00040BF
:10CBC00040F0FE4040F40000704700BF53B94AB93E
:10CBD000002908BF00281CBF4FF0FF314FF0FF3085
:10CBE00000F070B9ADF1080C6DE904CE00F006F864
:10CBF000DDF804E0DDE9022304B070472DE9F04FD1
:10CC0000099E04468946002B40F083808A421546DF
:10CC100045D9B2FA82F24AB1C2F1200701FA02F311
:10CC20009540944020FA07F747EA03094FEA154E6A
:10CC3000230C1FFA85F8B9FBFEFC0EFB1C990CFBBC
:10CC400008F143EA094399420AD9EB182CBF0120A5
:10CC50000020994202D9002800F01D810CF1FF3C10
:10CC6000591AA3B2B1FBFEF00EFB101100FB08F83D
:10CC700043EA0144A04505D92C1902D2A04500F28F
:10CC80000E810138A4EB080440EA0C4000271EB1D5
:10CC9000D4400023C6E900433946BDE8F08F002A9E
:10CCA00051D0B2FA82F2002A40F0AF80491B4FEA1D
:10CCB000154E1FFA85F80127230CB1FBFEFC0EFB75
:10CCC0001C1108FB0CF043EA014398420AD9EB1807
:10CCD0002CBF01210021984202D9002900F0D78001
:10CCE0000CF1FF3C191AA3B2B1FBFEF00EFB1011C0
:10CCF00008FB00F843EA0144A04505D92C1902D2EB
:10CD0000A04500F2C1800138A4EB080440EA0C40C1
:10CD1000BDE78B4208D9002E74D00027C6E9000178
:10CD200038463946BDE8F08FB3FA83F767B98B42CE
:10CD3000C0F0A480824240F2A1803846002EABD0E1
:10CD4000C6E90049A8E7FFDEC7F12005BB4002FAAB
:10CD500007FC01FA07F4EA4020FA05F8E94000FA76
:10CD600007FE1A4348EA04044FEA1248200C1FFA4F
:10CD700082F9B1FBF8FA08FB1A110AFB09FB40EA39
:10CD800001418B450AD951182CBF012300238B4543
:10CD900002D9002B00F088800AF1FF3AA1EB0B01C9
:10CDA000A4B2B1FBF8F008FB101100FB09F944EA4A
:10CDB0000141894504D9511801D289457BD80138F0
:10CDC00040EA0A40A1EB0901A0FB0C894945444611
:10CDD0004B4602D306D1C64504D20138B8EB0C0449
:10CDE00069EB0203002E5DD0BEEB040261EB030190
:10CDF00001FA05F522FA07F3F94000271D43C6E9B9
:10CE0000005149E73746304646E7C2F120009540D9
:10CE100001FA02F721FA00F34FEA154E24FA00F165
:10CE20001FFA85F894403943B3FBFEF00F0C0EFB5C
:10CE3000103300FB08FC47EA03439C4507D9EB1875
:10CE40002CBF012700279C4500D98FB30138A3EBE5
:10CE50000C0389B2B3FBFEF70EFB173307FB08FC8C
:10CE600041EA03418C4504D9691801D28C4525D883
:10CE7000013FA1EB0C0147EA00471DE7841A61EB73
:10CE800003030120994659E702382C443CE7ACF1F2
:10CE9000020C2B4426E7ACF1020C2B44E0E60238EE
:10CEA0002C44EFE63746F7E6AAF1020A114475E78B
:10CEB00002382B44CBE70238114481E7023F294472
:10CEC000D7E700BF704700BF4FEA410C7FEA6C5CB8
:10CED00002D150EA013C0AD14FEA430C7FEA6C5C74
:10CEE00002D152EA033C02D14FF0000070474FF0EC
:10CEF000010070474FEA410212F5001215D211D518
:10CF00006FF47873B3EB625212D94FEAC12343F046
:10CF1000004343EA505311F0004F23FA02F018BFC8
:10CF2000404270474FF00000704750EA013005D191
:10CF300011F0004008BF6FF0004070474FF0000054
:10CF4000704700BF10F8012B11F8013B012A28BFE0
:10CF50009A42F7D0D01A7047034613F8012B002AE3
:10CF6000FBD1181A0138704784B02DE9F041A0B008
:10CF700026AC84E80F008022DDE92867DDE926453C
:10CF800000216846BDF8B88022F09EF9AB238DF8E9
:10CF900000304FF61773ADF8023048F25503ADF884
:10CFA00004304FEA18238DF807309DF8BA3000227C
:10CFB0008DF809309DF8BB3030468DF80A309DF869
:10CFC000BC3039468DF80B309DF8BD308DF80880A7
:10CFD0008DF80C309DF8BE308DF80D300023FFF732
:10CFE0005DFD002877D007F100431F4657233946DF
:10CFF00030468DF80E30FFF779FD8DF80F00FFF702
:10D0000061FA02460B4630463946FFF71DF934A354
:10D01000D3E90023FFF7D0FAFFF768FD42F2107260
:10D02000B0FBF2F38DF8103002FB13036422B3FB64
:10D03000F2F002FB10338DF811008DF8123000224F
:10D04000002320462946FFF729FD002845D005F199
:10D0500000431D465323294620468DF81330FFF721
:10D0600045FD8DF81400FFF72DFA02460B462046C9
:10D070002946FFF7E9F81AA3D3E90023FFF79CFA42
:10D08000FFF734FD42F21072B0FBF2F38DF8153069
:10D0900002FB13036422B3FBF2F002FB10338DF8A2
:10D0A0001730882369468DF8193000238DF8160053
:10D0B00011F8012B9DF8180001330244182B8DF84C
:10D0C0001820F5D11A21684605F0DCF820B0BDE83B
:10D0D000F04104B07047452389E74E23BBE700BF0A
:10D0E0000000000080842E41114B124A0CA1D1E9AE
:10D0F00000019A6241F202429A852822C3E90401A2
:10D1000009A1D1E9000183F82E20C3E90201002220
:10D110004EF6602108481CF0E9B800BFAFF300806C
:10D12000F705F4C29D815C40D6011077F5AA364020
:10D1300008000220E4070B04B8860320000000006A
:10D140002DE9F0472DED068BACB007F0CFFF0323A0
:10D150004FF00000DC4C63F30700DC4BDC4DE41ABD
:10D16000C4F3C90464F38F10DA4920F05FF82B7818
:10D170006BB108F081F800234FF000002B700323FF
:10D1800063F3070064F38F10D34920F04FF8D34DB9
:10D190002B78002B00F0FA844FF0000A00239FED5B
:10D1A000C68BCF4ECF4FCDF878A0CDF87CA0ADF890
:10D1B0001230BDF81230B3F5C87FC0F0C2821F9A9A
:10D1C000C94BCDF850A01A60C84B0022159300231C
:10D1D000CDF858A0CDF85CA0CDF860A0CDF864A043
:10D1E000CDF868A0CDF86CA0CDF870A0CDF874A0F3
:10D1F000CDE920230023BE4ABE49BF48ADF8103018
:10D20000BDF810309DED157A07EE903AF8EEE77A0A
:10D21000F4EEC77AF1EE10FA00F11C839DED157A59
:10D22000DDED166AC6EE877ACDED167A9DED157A9C
:10D23000DDED176AC6EE877ACDED177A9DED157A8A
:10D24000DDED186AC6EE877ACDED187A169B9FED54
:10D25000AB8A1693179BA24A1793189BA149189360
:10D26000DDED157A78EE677AFCEEE77A17EE903A04
:10D27000A3489BB2ADF81030BDF81030C72B40F278
:10D2800037839DED157ADDED196AC6EE877ACDED0F
:10D29000197A9DED157ADDED1A6AC6EE877ACDED25
:10D2A0001A7A9DED157ADDED1B6AC6EE877ACDED13
:10D2B0001B7A199B9FED809B19931A9B1A931B9BBA
:10D2C0001B93DDED165A9DED196ADDED177A9DED84
:10D2D0001A5A67EE857ADDED186A45EE867A9DED7D
:10D2E0001B7A46EE877ACDED1C7A1698FFF70CF97B
:10D2F0009FED711B41EC100B00F0CEFF179857EC1F
:10D30000106BFFF701F99FED6C1B41EC100B00F067
:10D31000C3FF304653EC102B3946FEF797FF064605
:10D3200018980F46FFF7F0F89FED631B41EC100BC8
:10D3300000F0B2FF304653EC102B3946FEF786FF63
:10D34000064619980F46FFF7DFF89FED5B1B41EC8F
:10D35000100B00F0A1FF1A9859EC108BFFF7D4F8CE
:10D360009FED551B41EC100B00F096FF404653EC2F
:10D37000102B4946FEF76AFF80461B988946FFF747
:10D38000C3F89FED4D1B41EC100B00F085FF4046AC
:10D3900053EC102B4946FEF759FF32463B46FFF748
:10D3A0000BF9FFF7C3FB1D901C9E1D98FFF7ACF80F
:10D3B00041EC100B1CF06EFB53EC102B3046CDE90A
:10D3C0000023FFF7A1F8DDE90023FFF71FFA41EC86
:10D3D000100B1CF025FB3AA3D3E900238DED200BA5
:10D3E000DDE92001FFF7E8F8FFF7A0FB1490149B9C
:10D3F000444E454F33600023DFF81881CDF848A034
:10D40000CDF84CA0ADF80E30BDF80E30B3F5C87FA6
:10D41000C0F099821398FFF777F841EC100B1CF0DD
:10D4200039FB51EC100BFFF781FB00229FED372AEF
:10D43000374B8DF80B2018603368CDF820A0CDF85D
:10D4400024A0CDF828A0CDF82CA0CDF830A0CDF8A0
:10D4500034A0CDF838A0CDF83CA010931190F0EE98
:10D46000420AF2EE0E1A9FED2E1A9DED100A1EF0E2
:10D47000B1F99FED292A8DED0A0AF0EE421A9FEDCF
:10D48000231AF2EE0E0A9DED100A1EF0A3F99FED8D
:10D49000222A8DED0B0AB0EE421ADFED211ADFEDE4
:10D4A0001B0A9DED100A1EF095F99FED1E2A8DEDC9
:10D4B0000C0AF0EE420A37E00000000000000040D5
:10D4C00000000000DCA54C40C8030300400303003B
:10D4D000DFFE02206F1F0300801F0300CAFE022030
:10D4E000980D0220381D0220940D022000004842B1
:10D4F000B810022058200220F82F022000004843D4
:10D50000D82C0220F0450220185F022000002042A3
:10D51000F8450220B86E02200000A04200009643A9
:10D5200000000000000034435FED051A1FED041AEF
:10D530009DED110A1EF04EF91FED082A8DED0D0A22
:10D54000F0EE421A1FED091A5FED0D0A9DED110A6A
:10D550001EF040F91FED0F2A8DED0E0A9DED110A08
:10D560005FED111AB0EE421A5FED120A1EF032F9A9
:10D570008DED0F0A9DED0A7ADDED0D7AB4EEE77AB6
:10D58000F1EE10FA4CBF0A9B0D9BCB4A23939DED05
:10D590000A7ADDED0E7AB4EEE77AF1EE10FA4CBFBE
:10D5A0000A9B0E9B24939DED0A7ADDED0F7AB4EE73
:10D5B000E77AF1EE10FA4CBF0A9B0F9B25939DED85
:10D5C0000B7ADDED0D7AB4EEE77AF1EE10FA4CBF8E
:10D5D0000B9B0D9B26939DED0B7ADDED0E7AB4EE41
:10D5E000E77AF1EE10FA4CBF0B9B0E9B27939DED53
:10D5F0000B7ADDED0F7AB4EEE77AF1EE10FA4CBF5C
:10D600000B9B0F9B28939DED0C7ADDED0D7AB4EE0C
:10D61000E77AF1EE10FA4CBF0C9B0D9B29939DED20
:10D620000C7ADDED0E7AB4EEE77AF1EE10FA4CBF2B
:10D630000C9B0E9B2A939DED0C7ADDED0F7AB4EED8
:10D64000E77AF1EE10FA4CBF0C9B0F9B2B93002353
:10D650008DF80B309DF80B30082B40F2D1819DEDF9
:10D66000087ADDED096AC6EE877ACDED097A099B65
:10D67000924EC82200219248CDF814A03360CDF814
:10D6800018A0CDF81CA021F01FFE00239FED889B61
:10D690008C4FDFF858A2ADF80C30BDF80C30C72B1A
:10D6A00040F2E6819DED077A0023C7EE087A9FEDF0
:10D6B000809B834FCDED077AADF80C30BDF80C3070
:10D6C000C72B40F23682DDED067AC7EE887A17EE78
:10D6D000900AFEF719FF41EC100B1CF0DBF951EC3E
:10D6E000100BFFF723FAD6ED006A9FED777AF4EE80
:10D6F000C76A0590DDED057AF1EE10FA734BC3EDC4
:10D70000007A734B40F340829FED727AF4EEC77A51
:10D71000F1EE10FA40F1388201221A7000232B70CA
:10D7200007F08CFB03234FF000006B4963F3070005
:10D7300064F38F102CB0BDEC068BBDE8F0471FF0F2
:10D7400075BDBDF81230C72B54D8BDF81220634BFD
:10D7500003EB82031868FEF7D7FEB0EE481AF0EE2E
:10D76000681A41EC100B00F097FDBDF812205C4BDD
:10D7700059EC108B03EB82031868FEF7C5FEB0EE80
:10D78000481AF0EE681A41EC100B00F085FD404697
:10D7900053EC102B4946FEF759FD80468946BDF8EB
:10D7A0001220504B03EB82031868FEF7ADFEB0EE7B
:10D7B000481AF0EE681A41EC100B00F06DFD40467F
:10D7C00053EC102B4946FEF741FDFFF7AFF91E90D1
:10D7D0009DED1E7ADDED1F7AB4EEE77AF1EE10FAD8
:10D7E000C4BF1E9B1F93BDF8123001339BB2ADF82E
:10D7F0001230DEE4BDF81230C83B06EB8303186834
:10D80000FEF782FEB0EE481AF0EE681A41EC100BFB
:10D8100000F042FDBDF8123059EC108BC83B07EB0D
:10D8200083031868FEF770FEB0EE481AF0EE681A2F
:10D8300041EC100B00F030FD404653EC102B4946F4
:10D84000FEF704FDBDF812308046A3F1C8028946F8
:10D85000254BA7E7BDF81030DDED167A02EB830308
:10D8600093ED007A77EE877ACDED167ABDF8103019
:10D87000DDED177A01EB830393ED007A77EE877A7B
:10D88000CDED177ABDF81030DDED187A00EB83038B
:10D8900093ED007A77EE877ACDED187ABDF81030E7
:10D8A00001339BB2ADF81030AAE400BFAFF30080A3
:10D8B000000000000000004059850320F4450220CC
:10D8C0007C7E0220181A022000003442787E02205A
:10D8D000CBFE0220B81E053E911F0300B8100220A7
:10D8E00058200220F82F0220D82C0220B82902202C
:10D8F000BDF81030DDED197A02EB830393ED007A69
:10D9000077EE877ACDED197ABDF81030DDED1A7A11
:10D9100001EB830393ED007A77EE877ACDED1A7AE7
:10D92000BDF81030DDED1B7A00EB830393ED007A38
:10D9300077EE877ACDED1B7ABDF8103001339BB2BC
:10D94000ADF8103098E4BDF80E30C72B3ED8BDF8C6
:10D950000E20914B03EB82031868FEF7D5FDB0EE65
:10D96000491AF0EE691A41EC100B00F095FCB0EE8C
:10D9700040AAF0EE60AABDF80E20884B03EB8203AC
:10D980001868FEF7C1FDB0EE491AF0EE691A41ECD5
:10D99000100B00F081FC51EC1A0B53EC102BFEF72E
:10D9A00055FCFFF7C3F812909DED127ADDED137A66
:10D9B000B4EEE77AF1EE10FAC4BF129B1393BDF8F0
:10D9C0000E3001339BB2ADF80E301DE5BDF80E30C0
:10D9D000C83B07EB83031868FEF796FDB0EE491AC3
:10D9E000F0EE691A41EC100B00F056FCBDF80E3059
:10D9F000B0EE40AAF0EE60AAC83B08EB8303BFE795
:10DA00009DF80B302CA901EB830353ED096A9DF8B7
:10DA10000B3003EB430313449B78DBB2012B23D081
:10DA2000022B23D0032B0CBF3223002307EE903AA6
:10DA30009DED097AF8EEE77A07EEA67A8DED097A80
:10DA40009DF80B302CA901EB830353ED097A9DED72
:10DA5000087A77EE877ACDED087A9DF80B3001339E
:10DA6000DBB28DF80B30F5E50A23DFE71E23DDE797
:10DA7000BDF80C3007EB83031868FEF745FDB0EEE8
:10DA8000491AF0EE691A41EC100B00F005FCBDF8E4
:10DA90000C3059EC108B0AEB83031868FEF734FD49
:10DAA000B0EE491AF0EE691A41EC100B00F0F4FBED
:10DAB000404653EC102B4946FEF7C8FBBDF80C203E
:10DAC000374B804603EB820318688946FEF71CFD3E
:10DAD000B0EE491AF0EE691A41EC100B00F0DCFBD5
:10DAE000404653EC102B4946FEF7B0FB41EC100BBF
:10DAF0001BF0D0FF51EC100BFFF718F8BDF80C909D
:10DB0000DFF8A080BDF80C3008EB8909C9F80000E7
:10DB100008EB8308DDED077A98ED007A77EE877AD7
:10DB2000CDED077ABDF80C3001339BB2ADF80C3067
:10DB3000B3E5BDF80C30DDED077A07EB830393ED19
:10DB4000007A77EE677A17EE900AFEF7DDFCB0EE0A
:10DB5000491AF0EE691A41EC100B00F09DFB53ECF2
:10DB6000102B0698CDE90023FEF7CEFCDDE900235B
:10DB7000FEF76CFBFEF7DAFF0690BDF80C300133C0
:10DB80009BB2ADF80C3099E50022C6E52CB0BDEC97
:10DB9000068BBDE8F08700BF38620220D8710220F2
:10DBA000583902207C7E022037B51F4C204607F0F2
:10DBB0001FFD25882846FEF795FC17A3D3E900230F
:10DBC000FEF7FAFCFEF792FF84B24FF47A70174B1F
:10DBD000B4FBF0F01C80FEF785FC11A3D3E9002311
:10DBE000FEF7EAFCFEF782FF114B82B21A804FF07B
:10DBF000000003230F4963F307000F4B00925B1AE9
:10DC0000DB0863F38F102A4623460C491FF00EFBF6
:10DC100003B030BDAFF30080666666666666E63FB9
:10DC20003108AC1C5AA4484028D4022026D4022033
:10DC300024D4022040030300C8030300481F03004C
:10DC400084B02DE9F041A4B02AAC84E80F00802212
:10DC5000DDE92A67DDE92C45002104A821F034FB29
:10DC600000230022CDE90233304600233946FEF777
:10DC700015FF38B18022784904A821F081FC07F112
:10DC800000431F4639463046FEF730FF08228046E3
:10DC9000724B009000210DEB020021F057FC802216
:10DCA00002A904A821F06CFC80226D4904A821F08F
:10DCB00067FC4046FEF706FC02460B4630463946F6
:10DCC000FEF7C2FA62A3D3E90023FEF775FCFEF764
:10DCD0000DFF42F210778046B0FBF7F60822F3B250
:10DCE00007FB16864FF06408009300215D4B0DEB97
:10DCF000020021F02BFC802202A904A821F040FCA4
:10DD00000822B6FBF8F7574B00210DEB02000097F5
:10DD100021F01CFC802202A904A821F031FC082279
:10DD200008FB17664F4B00210DEB0200009621F017
:10DD30000DFC802202A904A821F022FC80224A497D
:10DD400004A821F01DFC0022002320462946FEF7EE
:10DD5000A5FE38B18022404904A821F011FC05F14C
:10DD600000431D4629462046FEF7C0FE082206460F
:10DD70003A4B009000210DEB020021F0E7FB02A9D5
:10DD8000802204A821F0FCFB8022354904A821F060
:10DD9000F7FB3046FEF796FB02460B462046294627
:10DDA000FEF752FA2AA3D3E90023FEF705FCFEF79B
:10DDB0009DFE42F210750646B0FBF5F40822E3B270
:10DDC00005FB1464642600930DEB0200254B002133
:10DDD00021F0BCFB02A9802204A821F0D1FBB4FBF6
:10DDE000F6F508221F4B0DEB02000095002121F0F3
:10DDF000ADFB02A9802204A821F0C2FB082206FB89
:10DE00001544184B0DEB02000094002121F09EFBFD
:10DE100002A9802204A821F0B3FB8022124904A8A1
:10DE200021F0AEFB8022114904A821F0A9FB802239
:10DE30000D4904A821F0A4FB04A8FFF78DF80146C2
:10DE400004A806F01FFC24B0BDE8F04104B0704700
:10DE50000000000080842E414D150300F83D0300B2
:10DE60009C3D0300470E0300A21F0300CDFE0220CD
:10DE7000F0B52DED028BA5B00021802204A821F081
:10DE800023FA09F0E5F8704B1978814200F0888098
:10DE90001870FEF727FB02460B4669A1D1E9000185
:10DEA000FEF7B4FC0022694BFEF7CEF902460B46A2
:10DEB00000206749FEF7AAFCFEF738FE08EE100ABC
:10DEC000FEF722FB8022CDE90001624B002104A86D
:10DED00021F03CFB604A212700251646EB195B1018
:10DEE0005CB202EBC303D3ED017AF4EE487AF1EEB3
:10DEF00010FA00F0A180F4EEC87AF1EE10FACBBF70
:10DF0000651C04F1FF376DB27FB2BD42E6DD631CD4
:10DF10009D4249D106EBC403D3ED017A77EEC87A6E
:10DF200017EE900AFEF7F0FA41EC100B1BF06EFDB5
:10DF300051EC100BFEF7FAFD06EBC503D3ED017AA9
:10DF400077EEC87A08EE900A17EE900AFEF7DCFA30
:10DF500041EC100B1BF05AFD51EC100BFEF7E6FDE7
:10DF600008EE100AFEF7D0FACDE9020118EE900A89
:10DF7000FEF7CAFA394BCDE900018022002104A83E
:10DF800021F0E4FAF4EEC88AF1EE10FA4FDD36F92A
:10DF90003500334B1A88904202D0188009F070F88F
:10DFA00025B0BDEC028BF0BD631E9F4242D106EB53
:10DFB000C403D3ED017A77EEC87A17EE900AFEF724
:10DFC000A3FA41EC100B1BF021FD51EC100BFEF7F6
:10DFD000ADFD06EBC703D3ED017A77EEC87A08EE04
:10DFE000900A17EE900AFEF78FFA41EC100B1BF027
:10DFF0000DFD51EC100BFEF799FD08EE100AFEF72F
:10E0000083FACDE9020118EE900AFEF77DFA154B6E
:10E01000CDE900018022002104A821F097FAF4EE56
:10E02000C88AF1EE10FA02DD36F93700B1E736F9A9
:10E030003400AEE71920ACE732F93400A9E700BF9D
:10E040000000000000E06F406BFF02200000F03F86
:10E0500000002440A321030018070300B32103009C
:10E0600052850320CC21030084B02DE9F041A4B0F7
:10E070002AAC84E80F008022DDE92A67DDE92C451F
:10E08000002104A821F020F900230022CDE9023369
:10E09000304600233946FEF701FD38B18022784929
:10E0A00004A821F06DFA07F100431F4639463046B7
:10E0B000FEF71CFD08228046724B009000210DEBFC
:10E0C000020021F043FA802202A904A821F058FAA4
:10E0D00080226D4904A821F053FA4046FEF7F2F978
:10E0E00002460B4630463946FEF7AEF862A3D3E946
:10E0F0000023FEF761FAFEF7F9FC42F21077804642
:10E10000B0FBF7F60822F3B207FB16864FF064085F
:10E11000009300215D4B0DEB020021F017FA8022E5
:10E1200002A904A821F02CFA0822B6FBF8F7574BF5
:10E1300000210DEB0200009721F008FA802202A9CD
:10E1400004A821F01DFA082208FB17664F4B002196
:10E150000DEB0200009621F0F9F9802202A904A833
:10E1600021F00EFA80224A4904A821F009FA00227F
:10E17000002320462946FEF791FC38B18022404911
:10E1800004A821F0FDF905F100431D46294620466B
:10E19000FEF7ACFC082206463A4B009000210DEB3E
:10E1A000020021F0D3F902A9802204A821F0E8F9A5
:10E1B0008022354904A821F0E3F93046FEF782F9C0
:10E1C00002460B4620462946FEF73EF82AA3D3E92D
:10E1D0000023FEF7F1F9FEF789FC42F210750646BE
:10E1E000B0FBF5F40822E3B205FB14646426009347
:10E1F0000DEB0200254B002121F0A8F902A9802295
:10E2000004A821F0BDF9B4FBF6F508221F4B0DEB75
:10E2100002000095002121F099F902A9802204A8AA
:10E2200021F0AEF9082206FB1544184B0DEB020055
:10E230000094002121F08AF902A9802204A821F08B
:10E240009FF98022124904A821F09AF980221149ED
:10E2500004A821F095F980220D4904A821F090F935
:10E2600004A8FEF779FE014604A806F031F924B0AF
:10E27000BDE8F04104B070470000000080842E41EA
:10E280004D150300F83D03009C3D0300470E0300BD
:10E29000A21F030016000320F8B52DED028B57ECEA
:10E2A000106B55EC114B00F037FB614BB0EE408A20
:10E2B000F0EE608A93F9003001332AD022462B46D3
:10E2C00020462946FEF700FE18BB32463B46304644
:10E2D0003946FEF7F9FD002844D1002200233046DC
:10E2E0003946FEF7D1FBD8B100220023204629464B
:10E2F000FEF7CAFB00283DD145EC104B1BF0D0FCCB
:10E3000038B12046294600220023FEF7C7FB00282B
:10E310005BD1B0EE480AF0EE680ABDEC028BF8BDA6
:10E32000B0EE480AF0EE680A1BF0BAFC58B30022BF
:10E33000002351EC180BFEF7A7FB0028E9D047ECAF
:10E34000106B1BF0ADFC0028E3D045EC104B1BF02C
:10E35000A7FC0028DDD01FF00DF922239FED2C8BA8
:10E360000360D6E72046294600220023FEF78CFBF7
:10E370000028CED09FED288BB0EE480AF0EE680A58
:10E38000BDEC028BF8BD47EC106B1BF089FC00283C
:10E39000CDD045EC104B1BF083FC0028C7D018EE05
:10E3A000100A53EC182B1946FEF78EFD18BB1FF010
:10E3B000E1F8222300223946036000233046FEF7AD
:10E3C0006DFB48B99FED168BA3E71FF0D3F821230F
:10E3D0009FED158B03609CE745EC104B1BF06AFC2E
:10E3E00022462B4651EC100BFEF74EFB0028E9D1DC
:10E3F0009FED0D8B8DE71FF0BDF82121002200233A
:10E40000016010461946FEF701FA41EC180B80E74F
:10E410000000000000000000000000000000F03FCD
:10E42000000000000000F07F000000000000F0FF8E
:10E4300076850320000000002DE9F84F55EC104BC5
:10E44000CD4925F000438B420CDDCC4818442346CF
:10E45000034340F0BD80002D40F3C9809FEDAA0B1F
:10E46000BDE8F88FC6498B4207DCC64A934200F3E9
:10E47000C2809FEDA70BBDE8F88F002DC0F2888108
:10E4800010EE102A2B460020BF49FDF7DDFE0022CA
:10E49000BE4B0026FEF790F804460D4645EC104BA7
:10E4A0001BF032FB204629469BA3D3E9002359ECFD
:10E4B000108BFEF781F89AA3D3E90023FDF7C6FE7F
:10E4C00022462B46FEF778F897A3D3E90023FDF701
:10E4D000BBFE22462B46FEF76FF895A3D3E9002337
:10E4E000FDF7B4FE22462B46FEF766F892A3D3E969
:10E4F0000023FDF7A9FE22462B46FEF75DF890A308
:10E50000D3E90023FDF7A2FE22462B46FEF754F87E
:10E5100082468B46204629468BA3D3E90023FEF78B
:10E520004BF88BA3D3E90023FDF78EFE22462B4642
:10E53000FEF742F888A3D3E90023FDF787FE2246C1
:10E540002B46FEF739F886A3D3E90023FDF77CFEBE
:10E5500022462B46FEF730F800228B4BFDF776FE65
:10E5600002460B4650465946FEF750F942464B4686
:10E57000FEF722F8324682468B464B4630464946E5
:10E58000FEF71AF802460B4620462946FDF75CFEC8
:10E5900004460D4632464B4640464946FDF756FE78
:10E5A00002460B4620462946FEF730F902460B4646
:10E5B00050465946FDF74AFE32464B46FDF746FEA9
:10E5C00002460B46FDF742FE41EC100BBDE8F88F0A
:10E5D00010EE102A2B4620462946FDF735FE02464E
:10E5E0000B46FEF713F941EC100BBDE8F88F9FEDD9
:10E5F0005E0BBDE8F88F10EE102A10EE100A2B46C5
:10E600002946FDF7D9FF06460F4643A3D3E9002369
:10E61000FDF7D2FF42A3D3E90023FDF717FE3246F0
:10E620003B46FDF7C9FF40A3D3E90023FDF70CFEED
:10E6300032463B46FDF7C0FF3DA3D3E90023FDF77B
:10E6400005FE32463B46FDF7B7FF3BA3D3E9002367
:10E65000FDF7FAFD32463B46FDF7AEFF38A3D3E99E
:10E660000023FDF7F3FD32463B46FDF7A5FF80464C
:10E6700089463046394634A3D3E90023FDF79CFF91
:10E6800033A3D3E90023FDF7DFFD32463B46FDF718
:10E6900093FF31A3D3E90023FDF7D8FD32463B4673
:10E6A000FDF78AFF2EA3D3E90023FDF7CDFD324607
:10E6B0003B46FDF781FF0022334BFDF7C7FD0246C5
:10E6C0000B4640464946FEF7A1F822462B46FDF789
:10E6D00073FF02460B4626A1D1E90001FDF7B4FD08
:10E6E00002460B4620462946FDF7AEFD02460B4684
:10E6F00007A1D1E90001FDF7A7FD41EC100BBDE832
:10E70000F88F00BFAFF300800000000000000000A1
:10E71000182D4454FB21F93F09F7FD0DE13D023F5F
:10E7200088B20175E0EF493F3B8F68B52882A43F6E
:10E730005544880E55C1C93F7D6FEB0312D6D43FB7
:10E74000555555555555C53F82922EB1C5B8B33F65
:10E7500059018D1B6C06E63FC88A599CE52A00408A
:10E760004B2D8A1C273A0340182D4454FB210940A5
:10E77000075C143326A6913CFFFFEF3F000010C05A
:10E78000FFFFDF3F0000603C0000F03F0000E03F83
:10E7900010EE100A294600225D4BFDF757FD0022BE
:10E7A0005C4BFDF709FF04460D4641A3D3E9002366
:10E7B000FDF702FF40A3D3E90023FDF747FD224602
:10E7C0002B46FDF7F9FE3EA3D3E90023FDF73CFD00
:10E7D00022462B46FDF7F0FE3BA3D3E90023FDF7CD
:10E7E00035FD22462B46FDF7E7FE39A3D3E900238A
:10E7F000FDF72AFD22462B46FDF7DEFE36A3D3E9C0
:10E800000023FDF723FD22462B46FDF7D5FE80466B
:10E81000894645EC104B1BF077F92046294630A37A
:10E82000D3E9002357EC106BFDF7C6FE2EA3D3E906
:10E830000023FDF709FD22462B46FDF7BDFE2CA364
:10E84000D3E90023FDF702FD22462B46FDF7B4FE77
:10E8500029A3D3E90023FDF7F7FC22462B46FDF759
:10E86000ABFE00222A4BFDF7F1FC02460B46404668
:10E870004946FDF7CBFF32463B46FDF79DFE20A300
:10E88000D3E90023FDF7E0FC32463B46FDF7DEFC12
:10E8900002460B46FDF7DAFC02460B461AA1D1E907
:10E8A0000001FDF7D1FC41EC100BBDE8F88F00BF73
:10E8B00009F7FD0DE13D023F88B20175E0EF493FE8
:10E8C0003B8F68B52882A43F5544880E55C1C93F87
:10E8D0007D6FEB0312D6D43F555555555555C53F61
:10E8E00082922EB1C5B8B33F59018D1B6C06E63F2D
:10E8F000C88A599CE52A00404B2D8A1C273A0340C0
:10E90000075C143326A6913C182D4454FB21094082
:10E910000000F03F0000E03F51EC110B2DE9F04FFB
:10E9200021F0004893B058EA000420D05C4C10EE6F
:10E9300010AA53EC102B23F000461F46A64211DC10
:10E94000894611EE10CA06D12AB1564813B0BDE867
:10E95000F04F00F061BD524CA04503DC0ED1BCF17C
:10E96000000F0BD0504B334453EA0A03EDD1002083
:10E970004E4941EC100B13B0BDE8F08F002F144648
:10E980001D46CDE9000144DB4FF0000BBCF1000F48
:10E990000FD1434B984557D0444B984567D0B9F1B8
:10E9A000804F00F0A984424B994502D1002F80F29C
:10E9B000F18445EC104B1BF029F851EC100BBAF127
:10E9C000000F08D127F04043384A934200F0958366
:10E9D000002E00F09283FB0F03F1FF3A5BEA0A037B
:10E9E0004CD0344B98456BDD03F10473984540F3EC
:10E9F0001184314B9E4240F39583B9F1000F40F3EF
:10EA0000958325A3D3E9002310461946FDF7D4FDCD
:10EA1000AFE72A4B984527DCA3F154739845B3DD43
:10EA20004FEA2853A3F2FF33142B40F36D84C3F154
:10EA300034032CFA03F202FA03F36345A4D102F083
:10EA40000102C2F1020BA1E7174B334453EA0A0358
:10EA50008DD0194B9E4240F39483B9F1000FC0F260
:10EA60006583DDE9000184E74FF0020B8EE7B9F121
:10EA7000000FC0F23984204629467AE722462B4609
:10EA800010461946FDF7E0FB02460B46FDF7BEFEB9
:10EA90006FE700BFAFF300809C7500883CE4377ED1
:10EAA0000000F07F6C0C0300000010C00000F03F7D
:10EAB0000000E03F0000E041FFFFEF3FFFFF3F436A
:10EAC000D34B3B40002B40F00C840022D14BFDF790
:10EAD00073FD6FF034050E463315CF4AC6F31306A7
:10EAE000CE4CA3F2FF33964244EA06041D440B9534
:10EAF00040F3EB83CA4B9E4240F32B840135A4F5CF
:10EB000080149FEDAD7B0B9500258DED087B9FED6F
:10EB1000AC7B8DED067B9FEDA87B8DED107B804659
:10EB2000A1462146DDE90623FDF78EFB06460F468A
:10EB300040462146DDE90623CDE90C89FDF786FB39
:10EB400002460B460020B549FDF760FE0A46014625
:10EB50001346CDE90E12024639463046FDF72CFD2C
:10EB60008046631089460024002043F0005302468B
:10EB700003F50023CDE902890294591904460D4694
:10EB80000B46CDE90489DDE9028940464946FDF797
:10EB900013FD02460B4630463946FDF755FB064647
:10EBA0000F4620462946DDE90623FDF74DFB0246C8
:10EBB0000B46DDE90C01FDF747FB42464B46FDF7EE
:10EBC000FBFC02460B4630463946FDF73DFBDDE9CE
:10EBD0000E23FDF7F1FCDDE90445CDE906012246EF
:10EBE0002B4620462946FDF7E7FC04460D4676A352
:10EBF000D3E90023FDF7E0FC75A3D3E90023FDF77B
:10EC000025FB22462B46FDF7D7FC73A3D3E900234F
:10EC1000FDF71CFB22462B46FDF7CEFC70A3D3E983
:10EC20000023FDF713FB22462B46FDF7C5FC6EA320
:10EC3000D3E90023FDF70AFB22462B46FDF7BCFC77
:10EC40006BA3D3E90023FDF701FB06460F462246DE
:10EC50002B4620462946FDF7AFFC02460B463046C0
:10EC60003946FDF7A9FC424604460D464B46DDE910
:10EC70000401FDF7EBFADDE90623FDF79DFC2246D2
:10EC80002B46FDF7E3FA424604460D464B46404606
:10EC90004946FDF791FC0022624BCDE90C01FDF7DE
:10ECA000D5FA22462B46FDF7D1FA02980F4649467F
:10ECB000064640463B463246FDF77EFC0022804633
:10ECC0008946584B30463946FDF7BEFADDE90C233C
:10ECD000FDF7BAFA02460B4620462946FDF7B4FA7C
:10ECE000DDE90423FDF768FC04460D4632463B4649
:10ECF000DDE90601FDF760FC02460B462046294689
:10ED0000FDF7A4FA04460D4602460B464046494626
:10ED1000FDF79CFA02980F46064637A3D3E9002375
:10ED2000FDF74AFC42464B46CDE9040130463946E0
:10ED3000FDF78AFA02460B4620462946FDF784FA7B
:10ED40002FA3D3E90023FDF737FC04460D463046D8
:10ED500039462DA3D3E90023FDF72EFC02460B46CE
:10ED600020462946FDF772FADDE91023FDF76EFA19
:10ED700006460F460B98FDF7B5FB3246804689469E
:10ED80003B46DDE90401FDF761FADDE90823FDF703
:10ED90005DFA42464B46FDF759FA029842464B4609
:10EDA00004460D46FDF750FADDE90823FDF74CFA5D
:10EDB000DDE9042338E000BF00000000000000008F
:10EDC000000000000000F03FEF4E454A287ECA3F99
:10EDD00065DBC9934A86CD3F01411DA96074D13FCF
:10EDE0004D268F515555D53FFFAB6FDBB66DDB3FE1
:10EDF000033333333333E33F000000E009C7EE3F12
:10EE0000FD033ADC09C7EE3FF5015B14E02F3EBE7F
:10EE10000000F07F000040438E9803000000F03FA8
:10EE200079B60B0000000840FDF70EFA0B460246CB
:10EE300039463046FDF708FA0BF1FF3353EA0A036F
:10EE4000CDE9020140F075819FEDD37B8DED047B10
:10EE5000DDE900AB52465B4650465946CDE90023FA
:10EE600000230093DDE9006732463B46FDF7ECF9ED
:10EE700022462B46FDF7A0FB8046894652465B465C
:10EE8000DDE90201FDF798FB02460B464046494684
:10EE9000FDF7DCF98B46824632463B462046294642
:10EEA000CDE902ABFDF788FB0B460246804689465A
:10EEB00050465946FDF7CAF9CF4B04460D469942D4
:10EEC0008B4640F33B81CD4B0B44034340F03382F0
:10EED000B3A3D3E90023DDE90201FDF7B7F9064644
:10EEE0000F4642464B4620462946FDF7ADF90246FD
:10EEF0000B4630463946FDF7EFFD002840F01B82F7
:10EF0000CBF30A534FF48012A3F2FE33BC4CBBF197
:10EF1000000F42FA03F34FF000005B44C3F30A52C0
:10EF2000C3F3130AA2F2FF324AF4801A44FA02F43D
:10EF3000C2F1140223EA04014AFA02FA02464046E8
:10EF40000B46B8BFCAF1000A4946FDF77DF90246F3
:10EF50000B46804689464FEA0A5BDDE90201FDF770
:10EF600075F90D46002429468FA3D3E900232046D6
:10EF7000FDF722FB424606460F464B4620462946F1
:10EF8000FDF762F902460B46DDE90201FDF75CF987
:10EF900087A3D3E90023FDF70FFB8046894620466F
:10EFA000294685A3D3E90023FDF706FB02460B465D
:10EFB00040464946FDF74AF904460D4602460B46CF
:10EFC00030463946FDF742F93246804689463B468F
:10EFD000FDF73AF902460B4620462946FDF734F97B
:10EFE000424606460F464B4640464946FDF7E4FA80
:10EFF00004460D4672A3D3E90023FDF7DDFA72A3A0
:10F00000D3E90023FDF720F922462B46FDF7D4FA79
:10F010006FA3D3E90023FDF719F922462B46FDF72C
:10F02000CBFA6DA3D3E90023FDF70EF922462B4658
:10F03000FDF7C2FA6AA3D3E90023FDF707F92246D8
:10F040002B46FDF7B9FA02460B4640464946FDF706
:10F05000FBF804460D4602460B4640464946FDF77E
:10F06000ABFA00224FF08043CDE90001204629464B
:10F07000FDF7EAF802460B46DDE90001FDF7C6FBA5
:10F08000324604460D463B4640464946FDF794FA53
:10F0900032463B46FDF7DAF802460B462046294643
:10F0A000FDF7D2F842464B46FDF7CEF802460B4636
:10F0B00000205449FDF7C8F88B4402460B46BBF5C7
:10F0C000801FC0F25F815946DDE90423FDF774FA21
:10F0D0004FE445EC104B1AF099FC51EC100BBAF1CF
:10F0E000000F7FF4CBAC27F04043464A934202D056
:10F0F000002E7FF4C3AC4FF0000BB9F1000F05DA1E
:10F1000002460B4600203F49FDF780FB002FBFF66B
:10F1100030AC3D4B334453EA0B0340F02A810246A6
:10F120000B46ADE4B9F1000FFFF66BAC00200021F7
:10F130001FE49FED2D7B8DED047B89E621F00043DC
:10F14000324EB34240F3EF80314B0B4403430AD1BC
:10F1500042464B46FDF778F8DDE90223FDF7B2FCA5
:10F1600000283FF4CDAEDDE9040121A3D3E900235B
:10F17000FDF722FA1EA3D3E90023FDF71DFAFFF7DE
:10F18000F8BBB9F1000FD1DADDE90034184604F11B
:10F190000041FFF7EEBB00BF000000000000F0BF21
:10F1A000FE822B654715973C00000000432EE63F8A
:10F1B000EF39FAFE422EE63F396CA80C615C20BEA6
:10F1C000D0A4BE726937663EF16BD2C541BDBB3E6D
:10F1D0002CDE25AF6A56113F93BDBE166CC1663F4B
:10F1E0003E5555555555C53F000000000000F03F05
:10F1F00059F3F8C21F6EA501FFFF8F40000070BFDA
:10F20000FFFF0F000000F03F000010C0FFCB904058
:10F2100000346F3F7C4B9E4284DD7C4B9E423FF727
:10F22000ECAB0022794BFDF70FF804460D4662A3C4
:10F23000D3E90023FDF7C0F98046894620462946D8
:10F240005FA3D3E90023FDF7B7F90022704BCDE9A6
:10F25000020120462946FDF7AFF902460B465AA1A6
:10F26000D1E90001FCF7F0FF22462B46FDF7A4F997
:10F2700002460B4600206749FCF7E6FF06460F46AC
:10F2800022462B4620462946FDF796F902460B46B4
:10F2900030463946FDF790F94DA3D3E90023FDF739
:10F2A0008BF902460B46DDE90201FCF7CDFF024671
:10F2B0000B4606460F4640464946FCF7C7FF00206E
:10F2C0000D46424604464B46AEE59FED437B002586
:10F2D0008DED087B8DED107B9FED417B8DED067BE9
:10F2E0001DE40025FFF7F8BB22462B4600204749C6
:10F2F000FDF78CFAFFF73DBB22462B4620462946F8
:10F30000FDF75AF9FFF735BBBCF1000F7FF4E1AE12
:10F31000C3F1140348FA03F202FA03F3434540D061
:10F32000E346FFF739BB3B4A934240DCDDE900236B
:10F330009346924616E6DDE904012BA3D3E90023A8
:10F34000FDF73AF928A3D3E90023FDF735F9FFF7D4
:10F3500010BB9FED277B4FF480258DED087B9FED43
:10F36000267B8DED107B9FED267B8DED067BFFF7D9
:10F37000D6BBBBF1010F7FF4FCAA01F10043194693
:10F38000FFF7F7BA504643EC102B00F04DF851EC64
:10F39000100B99E645EC104B13B0BDE8F04F1AF096
:10F3A000B3BB02F00102C2F1020BFFF7F5BA1B1565
:10F3B000A8E500BFAFF30080000000604715F73FED
:10F3C00044DF5DF80BAE543E555555555555D53F68
:10F3D000FE822B654715F73F00000000000000008B
:10F3E000000000000000F03F9C7500883CE4377E80
:10F3F0000000004003B8E23F06D0CF43EBFD4C3E97
:10F40000000000000000F83FFEFFEF3F0000F03F6B
:10F410000000D03F0000E03F9FED010B704700BFB0
:10F42000000000000000F87F38B553EC102BC3F348
:10F430000A511C46054681BB23F0004410EE101A09
:10F44000214329D03C4C194600223C4B10EE100AB7
:10F45000FDF7B2F8A54202460B4616DB0C46C1F397
:10F460000A513639294440F2FE70814221DC0029DC
:10F4700045DC11F1350F34DA4CF250318D4218DC95
:10F48000002B25A1D1E9000140DB23A3D3E9002310
:10F49000FDF792F841EC100B38BD40F2FF7081424D
:10F4A000E0D110EE100A1946FCF7D0FE41EC100B2B
:10F4B00038BD002B1AA1D1E9000107DB18A3D3E95D
:10F4C0000023FDF779F841EC100B38BD16A1D1E906
:10F4D000000113A3D3E90023FDF76EF841EC100BF4
:10F4E000F3E717483631204040EA01531046002226
:10F4F0001946144BFDF760F841EC100B38BD10486D
:10F50000204040EA015343EC102B38BD08A1D1E95B
:10F510000001BAE7AFF3008059F3F8C21F6EA501EE
:10F520009C7500883CE4377E9C7500883CE437FE7F
:10F5300059F3F8C21F6EA581B03CFFFF0000504395
:10F54000FFFF0F800000903C2DE9F04F476A99B013
:10F55000834608910D921493229E55EC104BCDE9F1
:10F56000004547B910201BF0FBFCCBF824000760D6
:10F57000C760C0E90177DBF82430196859B15A68CF
:10F580000123584693404A608B6020F0CCF9DBF8A9
:10F59000243000221A602B1EB7BF23F00043002343
:10F5A00001220193A8BF3360019CB14BB8BF326008
:10F5B000A3431AD142F20F73149A1360C4F31303D6
:10F5C000009A134300F04785239B53B9A94B23E0CE
:10F5D000A94B03930833239A1360039819B0BDE82D
:10F5E000F08FA44B03930333F5E79DED007B0022DE
:10F5F000002351EC170B8DED0E7BFDF745FA074606
:10F6000060B10123149A1360239B002B00F0208526
:10F610009A4B239A1360013B0393DEE7C4F30A5627
:10F6200016AA17A958469DED0E0B20F085FB8046C3
:10F63000002E7DD00F9BA6F2FF361597C3F3130360
:10F64000DDE90E4543F07F5545F4401500228C4B13
:10F6500020462946FCF7F8FD7FA3D3E90023FCF7F9
:10F66000ABFF7FA3D3E90023FCF7F0FD04460D4672
:10F670003046FCF737FF7CA3D3E90023FCF79CFF5F
:10F6800002460B4620462946FCF7E0FD04460D469F
:10F69000FDF730FC00228246002320462946FDF774
:10F6A000FDF948B15046FCF71DFF22462B46FDF7F9
:10F6B000EBF908B90AF1FF3ABAF1160F57D8714BB6
:10F6C00003EBCA03DDE90E01D3E90023FDF7E6F9F8
:10F6D00000284ED00AF1FF3A00231193169B9E1B7F
:10F6E000731E079349BFC6F101030023069300234D
:10F6F00054BF06930793BAF1000F3CDB079BCDF88C
:10F7000040A05344079300230993089B092B00F260
:10F710008D80052BC5BF043B002401240893089B62
:10F72000023B032B00F28D80DFE803F02F3C3A7E92
:10F73000DDE916631E4406F23240202811DDC0F1D7
:10F740004000009B844006F2124023FA00F0204360
:10F75000FCF7B8FE01230446A1F1F875013E1593AC
:10F7600074E7C0F12000009B03FA00F0F0E70123EA
:10F77000B3E71190B2E7069BA3EB0A030693CAF125
:10F780000003099300231093BFE700230C930D9B04
:10F79000002B59DC012399461A4604930D920CE084
:10F7A0000123F3E700230C930D9B534403F101095C
:10F7B00004934B46012BB8BF01230022DBF82450F1
:10F7C0006A60042202F114006968984240D95846E0
:10F7D00020F075F8DBF824302860B9F10E0F1B68B3
:10F7E000039300F2D480002C00F0D180BAF1000F16
:10F7F00066DD244A0AF00F034FEA2A1402EBC30322
:10F80000E20693ED007B8DED0A7B57D51E4B04F08D
:10F810000F040326D3E90823DDE90E01FCF7F6FF08
:10F82000CDE90001184D3EE00123BCE7012400238F
:10F830000C9408934FF0FF3300220493994612234F
:10F84000ACE701230C93F5E70D9B04939946B4E7CD
:10F85000013152006960B5E761436F63A787D23F0A
:10F86000B3C8608B288AC63FFB799F501344D33FAF
:10F870000000F07F154F03000C4F0300E448030025
:10F880000000F83F4006030018060300E30708D510
:10F890000136DDE90A01D5E90023FCF78DFECDE94B
:10F8A0000A0164100835002CF0D1DDE90A23DDE9F6
:10F8B0000001FCF7ABFFCDE900011AE00226B1E739
:10F8C00000F09F80CAF100049E4B9F4D022604F079
:10F8D0000F02241103EBC203DDE90E01D3E900237B
:10F8E000FCF76AFE0023CDE90001002C7ED1002B3D
:10F8F000E1D1119B002B00F086800022934BDDE9C3
:10F90000004520462946FDF7C9F800287BD0B9F10B
:10F91000000F78D0049B002B35DD0AF1FF33204621
:10F92000002229460A930136894BFCF745FE049CC8
:10F93000CDE900013046FCF7D5FDDDE90023FCF7F9
:10F940003BFE0022834BFCF781FC0646A1F1507779
:10F95000002C5CD10022804BDDE90001FCF774FC37
:10F9600032463B46CDE90001FDF7B6F8002840F0ED
:10F970008982324607F10043DDE90001FDF78EF888
:10F98000002840F07D82DDE90E34CDE90034179B7C
:10F99000002BC0F24C81BAF10E0F00F34881694B85
:10F9A00003EBCA0393ED007B0D9B002B8DED047BD5
:10F9B00080F2D680B9F1000F00F3D28040F05F8270
:10F9C0000022654B4C464E4651EC170BFCF7F4FDFC
:10F9D000DDE90023FDF776F8002840F03882039D2A
:10F9E00031230AF1010A05F8013B34E2E70705D5A6
:10F9F0000136D5E90023FCF7DFFD0123641008354B
:10FA000073E7022675E7CDF828A04C4692E74D4BE8
:10FA100003EBC40353E90201039B1C440C9B002B22
:10FA200046D002460B4600204C49FCF7EFFE32461A
:10FA30003B46FCF709FC039D06460F46DDE9000145
:10FA4000FDF758FA1290FCF74DFD02460B46DDE932
:10FA50000001FCF7F9FB129B3246303305F8013BFD
:10FA60003B46CDE90001FDF719F800285FD10020E1
:10FA70003649DDE90023FCF7E7FB32463B46FDF75C
:10FA80000DF8002840F0B280A5423FF47CAF002280
:10FA90002F4B30463946FCF78FFD002206460F46B5
:10FAA0002B4BDDE90001FCF787FDCDE90001C5E73F
:10FAB00032463B46FCF780FD2546039ECDE9120108
:10FAC000DDE90001FDF716FA0746FCF70BFD0246DB
:10FAD00030370B46DDE90001FCF7B6FB06F8017B89
:10FAE000A6424FF00002CDE9000125D11B4BDDE914
:10FAF0001201FCF7ABFB02460B46DDE90001FCF707
:10FB0000EBFF002872D100201449DDE91223FCF735
:10FB10009BFB02460B46DDE90001FCF7BFFF002816
:10FB20003FF431AF15F8013C6A1E302B02D0DDF8EE
:10FB300028A049E01546F5E7054BFCF73DFDCDE96A
:10FB40000001BDE740060300180603000000F03F77
:10FB50000000244000001C40000014400000E03F72
:10FB6000DDE90067039D30463946DDE90423FCF7F3
:10FB70004DFEFDF7BFF90446FCF7B4FCDDE90423B4
:10FB8000FCF71AFD0246304604F130060B463946B2
:10FB9000FCF75AFB05F8016B039E02460B46AE1BB1
:10FBA000B14537D1FCF752FB06460F46DDE9042389
:10FBB000FCF792FFC0B930463946DDE90423FCF773
:10FBC00063FF08B1E1070FD4414658461FF0ABFE72
:10FBD0000023149A2B700AF101031360239B002B5E
:10FBE0003FF4FBAC1D60F8E4CDF828A015F8012C1B
:10FBF0006B1E392A08D1039A9A4209D10A9A0399AD
:10FC000001320A9230220A701A7801321A708EE795
:10FC10001D46EBE700229D4BFCF7CEFC00220023A3
:10FC200006460F46FCF730FF00289CD0CCE70C9A24
:10FC3000002A00F0CB80089A012A00F3AE80159AC2
:10FC4000002A00F0A68003F23343099C069D069A21
:10FC5000012158461A440692079A1A4407921FF047
:10FC600006FF0646002D0CDD079B002B09DDAB428D
:10FC7000069AA8BF2B46D21AED1A0692079AD31AF3
:10FC80000793099BF3B10C9B002B00F0A380002C81
:10FC900010DD3146224658461BF06AF942460146BD
:10FCA000064658461FF0ECFE074641465846B84601
:10FCB0001FF039FE099B1A1B04D0414658461BF021
:10FCC00057F98046012158461FF0D1FE109B04468B
:10FCD000002B40F381801A46014658461BF048F934
:10FCE000089B0446012B7ADD0027236904EB83037C
:10FCF00018691FF06CFEC0F12000079B184410F03B
:10FD00001F0000F08B80C0F12003042B40F384809F
:10FD1000C0F11C00069B054403440693079B034463
:10FD20000793069B002B05DD41461A4658461FF0F7
:10FD300036FF8046079B002B05DD21461A465846B4
:10FD40001FF02DFF0446119B002B69D02146404631
:10FD50001FF078FF002863DA002341460A22584644
:10FD60001FF0F8FD0C9B0AF1FF3A8046002B00F0D3
:10FD70007981002331460A2258461FF0EBFD049B8F
:10FD80000646002B00F38A80089B022B40F38680F6
:10FD90004EE0169BC3F1360357E7099B09F1FF3488
:10FDA000A342B7BF099B1C1B0994E21ABFBF109B5B
:10FDB00000249B181093B9F1000FB3BF069B4B466C
:10FDC000069DA3EB0905B8BF002340E7099C069DEB
:10FDD0000C9E47E7099A70E7089B012B18DC009BF3
:10FDE000B3B9019BC3F31303A3B9019B23F00047ED
:10FDF0003F0D3F0537B1069B012701330693079B53
:10FE000001330793109B002B7FF46FAF012074E741
:10FE10000027F7E7009FF5E783D018461C3079E705
:10FE2000B9F1000F34DC089B022B31DDCDF81090C6
:10FE3000049B63B92146052258461FF08BFD0146FD
:10FE4000044640461FF0FEFE00283FF7C8AD0D9B5C
:10FE5000039D6FEA030A0027214658461FF063FD01
:10FE6000002E3FF4B1AE2FB1B74203D03946584609
:10FE70001FF059FD314658461FF055FDA4E60024F9
:10FE80002646E4E7DDF828A02646A8E50000244041
:10FE90000C9BCDF81090002B00F0EB80002D05DDC1
:10FEA00031462A4658461FF07AFE0646002F56D0A5
:10FEB000716858461FF003FD3269054606F10C01D2
:10FEC00002320C3092001FF0DFF901222946584619
:10FED0001FF065FE039B3746064603F10109DDE985
:10FEE000032313440993009B03F00103079309F1D3
:10FEF000FF332146404600931FF0DEFB034604908B
:10FF00003946404630330A931FF09CFE3246069035
:10FF1000214658461FF0B0FEC26805460A9B02BB48
:10FF2000014640461FF08EFE0A9B0246294658466F
:10FF30000C924D460A931FF0F6FC089B0C9A43EA7C
:10FF40000201079B0B430A9B0DD1392B27D0069A40
:10FF5000002A01DD049B3133009A13707CE73046A0
:10FF6000B8E70122E2E70699002904DB089801437B
:10FF7000079801431DD1002AEEDD41460122584673
:10FF800006931FF00CFE214680461FF05BFE002802
:10FF9000069B02DCE0D1DA07DED5392BDAD1392332
:10FFA000009A137015F8013C6A1E392B46D00133B4
:10FFB000D3E7002A03DD392BF1D00133CCE7099ACE
:10FFC00009F8013C914521D0414600230A225846B8
:10FFD0001FF0C0FCB74280464FF000034FF00A020A
:10FFE0003946584606D11FF0B5FC0746064609F1CA
:10FFF00001097CE71FF0AEFC3146074600230A22C8
:020000021000EC
:1000000058461FF0A7FC0646F1E7002741460122AB
:10001000584600931FF0C3FD214680461FF012FE94
:100020000028BFDC02D1009BDB07BBD415F8013CE4
:100030006A1E302B7FF410AF1546F7E7039B9342FF
:1000400004D10AF1010A3123039A86E71546A9E78C
:10005000134BFFF7E1BA239B002B7FF4B9AA114B96
:10006000FFF7DABA049B002B03DC089B022B3FF757
:10007000DFAE039D214640461FF01EFB039A00F1B0
:100080003003049905F8013BAA1A9142BDDD4146AF
:1000900000230A2258461FF05DFC8046EAE700BFB5
:1000A000E34803000C4F030008B501F0E7FD01F041
:1000B00045FF01F0DDF805F0C5FD01F065FC0648DF
:1000C00005F03EFB02F050FE044804F0BDFCBDE824
:1000D000084006F0A7BA00BF60090220240A0220E7
:1000E00010B54FF0FF334FF480520749074818F01E
:1000F000FFFCBDE810404FF0FF334FF4805204493D
:10010000044818F0F5BC00BFC0150320240A0220E3
:10011000C0250320600902200122014B1A7070479C
:100120003FD4022070B5C57881780135EDB20C2935
:100130000446C57004D841F2AA53CB40DB071ED455
:1001400001F0FD03042B24D11E2D09D901231944EC
:10015000C9B20C29E3701AD9A37023880133238014
:10016000616820681BF0C0F9154BE0711B78012B0A
:1001700001BF144AD36843F01803D36070BD1F2D2C
:10018000EED901231944C9B20D29C370E4D0A1707E
:10019000E6E7092BD8D0268830461BF091F90028D5
:1001A00014BF1D231C239D42DADD01231944C9B26B
:1001B0000C29E370EBD90136A3702680D0E700BF8D
:1001C00045FF02203485022010B5C3780446012B78
:1001D00010D9013BC370616820681BF085F91A4B88
:1001E000E0711B78012B01BF184AD36843F0180354
:1001F000D36010BD8378591EC9B20A290BD90C2BC4
:1002000018D84FF4A55222FA03F3DB0712D51E23A8
:10021000E370A170DFE740F2AB52CA40D207F0D5DD
:100220001F22012BC270F4D10388013B03800C23F1
:100230008370D0E720881BF043F9003018BF0120FD
:100240001C30E070E5E700BF45FF02203485022046
:100250002DE9F0414FF03C080646B1FBF8F40323CA
:100260004FF0000008FB141763F30700214A224BEC
:10027000E4B29B1ADB0863F38F10204923463A4609
:100280001CF0D4FF717918253944C9B23B2988BFC5
:10029000B1FBF8F3B4FBF5F584BF08FB131101348F
:1002A000337988BFE4B21C44E4B294BF71717171B8
:1002B000172C11D83471C5B9716830681BF014F966
:1002C0000F4BF0711B78012B01BF0E4AD36843F02E
:1002D0001803D360BDE8F0811822B4FBF2F302FBEF
:1002E000134401353471EDB2E5E73046FFF71AFFEC
:1002F000013DF8E74003030080030300B30E030051
:1003000045FF0220348502203C2238B5B1FBF2F3D0
:100310000546182402FB13114079C9B2421A8842DB
:10032000DBB2D2B238BF3C32B3FBF4F429793EBF22
:100330000133D2B2DBB26A719942A1EB0302D2B2AD
:1003400010D32A719CB9696828681BF0CDF80B4B53
:10035000E8711B78012B01BF094AD36843F01803E9
:10036000D36038BD18320134D2B2E4B2E9E728468E
:10037000013CFFF729FFE4B2E4E700BF45FF02209C
:1003800034850220044B1B78012B01BF034AD3683C
:1003900043F01C03D360704745FF022034850220E0
:1003A0002DE9F84359495A4A0B685A4D13604B6876
:1003B0005360594B1F78012F01BF584AD36843F04F
:1003C0000403D3608B790133DBB23B2B8B7151D9A2
:1003D0003C20B3FBF0F200FB12338B714B792E788B
:1003E0000133DBB246F002023B2B4B712A7041D93C
:1003F00000220B7946F006000133DBB2172B4A715D
:100400000B71287036D9CB7991F803900133DBB2A8
:100410008C78062B09F1010998BFCB715FFA89F935
:1004200088BFCA7146F00E030C2C0A7181F8039044
:100430002B7004D841F2AA53E340DB072BD404F01D
:10044000FD03042B3CD1B9F11E0F09D901231C4433
:10045000E4B246F01E020C2CCB708C702A7027D8A8
:1004600001222F4B97421A7001BF2C4AD36843F0E8
:100470001803D3602B7898073ED443F001032B7008
:100480002B781A0705D5012223F008032B70254B82
:100490001A70BDE8F883B9F11F0FE1D901231C449C
:1004A000E4B246F01E020D2CCB708C702A70D7D1AE
:1004B0008B700B8801330B8046F03E032B70CFE727
:1004C000092BC0D0B1F8008040461AF0F9FF00288F
:1004D00014BF1D231C239945C2DD01231C44E4B233
:1004E00046F01E020C2CCB708C702A70B8D9984440
:1004F0008B70A1F80080DFE723F0020343F00103D3
:10050000086849682B7000F0B9F9B9E7BCD302203C
:10051000C4D302203ED4022045FF022034850220AD
:1005200040D40220ECFE02204FF47A7201481146BA
:1005300018F0DCBE8C86032040F2B1732DE9F04741
:10054000244C064627889F4241D9012541F2AA5AE8
:10055000A946E17894F802800139A84517D840F2FD
:10056000B275BD422BD34FF4616063792279C3EB3E
:1005700003139B0000FB0233A2793046BDE8F0472D
:100580001344154A02FB013214491AF0F3B80C2D3A
:1005900009D809FA05F313EA0A0F06D113F4256FF7
:1005A0000BD15B0703D40135D7E71F31FBE7384692
:1005B0001AF086FF1C300144F5E71E31F3E72846A8
:1005C0001AF07EFF00F26D1001440135C9E7BDE865
:1005D000F08700BFBCD3022080510100F83D03002A
:1005E000104B07B59B7A012B0ED023B1022B12D0F2
:1005F00003B05DF804FB0C4A0C49D3780093937860
:1006000012881AF0B7F8F3E7074A13880093D378F3
:1006100092780749F5E7044A138800939378D278D3
:10062000F7E700BFCED30220BCD302203D0E03006B
:100630004C0E03000D4B82B000930D4B01930D4BFC
:100640001B7A1BB1012B05D002B070470A4902B0DA
:100650001EF0BBBF094B02AA1B790C2B94BF0023D1
:10066000012302EB830353F8081CF0E7C70E0300D5
:10067000CA0E0300CED3022096120300BCD3022080
:100680000D4B13B51B7A1BB1012B0AD002B010BD64
:100690000A4A0B4993790093537912791AF06AF850
:1006A000F4E7064B1A7999790C2A009188BF0C3A25
:1006B0005B790349F2E700BFCED30220BCD302200E
:1006C0005B0E030070B5254C9EB001AD06460FCC05
:1006D0000FC594E807000C3485E807000FCC08AD7F
:1006E0000FC594E8070085E807002022002116A81E
:1006F0001EF0EAFD1A4B0F931A4B10931A4B1193ED
:100700001A4B12931A4B13931A4B14931A4B1593BB
:100710001A4B5B7A012B04D083B1022B16D01EB08A
:1007200070BD174B1EAADB7902EB830353F8581CEC
:1007300030461EB0BDE870401EF047BF104B1EAAE9
:10074000DB7902EB830353F8741CF1E70C4B1EAA10
:10075000DB7902EB830353F83C1CE9E790040300C8
:100760006A0E0300750E0300800E0300890E03005D
:10077000940E03009F0E0300AA0E0300CED30220A6
:10078000BCD3022008B5094B1A786AB100221A704E
:10079000FFF706FE064B1B7833B9064B1B78012B7F
:1007A00002BF0222044B5A7208BD00BF3FD4022090
:1007B0005485032045FF022034850220012208B51C
:1007C000074B1A700023074A1370074A1370074A31
:1007D000137007481EF0B5FCBDE8084005F07CBF6B
:1007E0004FFF022041D4022045D4022043D40220EE
:1007F000E80A02200D4B01211A7882B10C4A1170CF
:1008000000220C491A700B78013BDBB20B7023B14C
:100810004FF4FA71084818F069BDFFF7CFBF0748D9
:10082000197001704FF47A71F4E700BF45D40220CB
:100830004FFF022043D40220E80A02204EFF02208C
:1008400001230521074A1370074A1370074A1170E4
:10085000074A1370074A137000224FF47A71064852
:1008600018F044BD47D4022041D4022043D40220D2
:1008700045D402204EFF0220E80A0220F3B402AB66
:1008800003E90300174B002218469DF804409DF829
:1008900005509DF80760197CC1B1597CA14215D162
:1008A000997CA94212D1062ED97C17D801F00107F4
:1008B00051B90023043200F8223001220A4B1A7089
:1008C00002B0F0BC1AF0BBBE002FF9D10132082AE9
:1008D00003F10403DFD102B0F0BC70470029F5D169
:1008E000E7E700BFCED302204BF40220012208B577
:1008F000074B1A700023074A1370074A1370074A00
:10090000137007481EF01DFCBDE8084005F0E4BE6A
:100910004FFF022044D4022045D4022043D40220B9
:10092000140B02200D4B01211A7882B10C4A117070
:1009300000220C491A700B78013BDBB20B7023B11B
:100940004FF4FA71084818F0D1BCFFF7CFBF074841
:10095000197001704FF47A71F4E700BF45D402209A
:100960004FFF022043D40220140B02204EFF02202E
:1009700001230A21074A1370074A1370074A1170AE
:10098000074A1370074A137000224FF47A71064821
:1009900018F0ACBC47D4022044D4022043D4022037
:1009A00045D402204EFF0220140B022008B500227D
:1009B000054906481EF0B9FBBDE80840002204497D
:1009C00004481EF0B2BB00BFF5070100E80A022090
:1009D00025090100140B0220034B1A781AB10022DA
:1009E0001A701AF033BE704742D4022070B51D460B
:1009F00014460E4B82181B88BDF810609A42C8BF7F
:100A00001C1A0B4B01EB05021B88C8BFA4B29A420B
:100A1000C4BF5D1AADB22B4622461AF04FFE3146D6
:100A200005FB04F0BDE8704000F078BB4E85032064
:100A30004C8503202DE9F04116461C4607468846A2
:100A4000144D01231AF03AFE2988304600F066FB67
:100A500023460122414638461AF030FE29882046B6
:100A600000F05CFB3246012308EB040138461AF023
:100A700025FE2988304600F051FB4146B81923462F
:100A800001221AF01BFE29882046BDE8F04100F043
:100A900045BB00BF508503202DE9F0431746804633
:100AA000ADF5805D81B089464FF4805200216846E3
:100AB0001EF00AFC39460822684601F09DF99DF8AF
:100AC00002309DF803609DF8054006EB03269DF873
:100AD0000430B6B204EB0324234BA4B21D8808EB08
:100AE0000603AB42D8BF3546204B09EB04021B88F6
:100AF000C4BFA5EB0805ADB29A42C4BFA3EB09047D
:100B0000A4B2234649462A4640461AF0D7FD6B0058
:100B10005C43B54228BF4FF4805308374FEA46097B
:100B200024B90DF5805D01B0BDE8F0839C4226BF7D
:100B3000A4EB03081C464FF000084FF4805200213C
:100B400068461EF0C1FB39462246684601F054F95A
:100B5000B542204669462CBF3F194F4400F008FBC0
:100B600023464446DCE700BF4E8503204C85032026
:100B70002DE9F04FADF61C1D0593664B154693F815
:100B800000B04FF400624FEA5B0A1AF0070718BF83
:100B9000012707EB1B171BFB07F680460C4646A8F0
:100BA00000211EF091FB00214FF4807206A81EF078
:100BB0008BFBA5F12001BBF1180FF6B2C9B278D0BA
:100BC000BBF1200F7DD0BBF1100F40F09580324675
:100BD00016FB01F101F5800106A801F00DF94E4B5D
:100BE0000BEB04011A880AEB080393424B4BA8BF96
:100BF000A2EB08021B88B4BF1FFA8AF292B2994294
:100C0000A8BF1B1B21464046B4BF1FFA8BF39BB203
:100C10001AF054FD002041460546B5426CD206ABA1
:100C200013F805C03E4B00F1080E1B881A0ADBB210
:100C300003933C4B02921B884A1C4FEA1329DBB2F8
:100C40000193354B1B880493324B93F800A093B269
:100C5000009346AB4FEA5A0A03EB40031CF0800FA7
:100C600034D0019983F800905970BDF80010049AAF
:100C70004FEA4C0C8A425FFA8CFC00F101002CD840
:100C800046A9400000F074FA244B01341B88A4B23A
:100C9000A34231D9B5FBF7F307FB1353013DFB1A10
:100CA0001D44EDB241464FF0000E0135EDB27046E5
:100CB000B3E716FB01F101F58001324601F2046150
:100CC0008AE7194B324606FB013185E70599002971
:100CD000CBD1029919700399C6E7009AA2EB080BD1
:100CE000D3450DD146A9400000F042FA0B4B013428
:100CF0001B88A4B2A342D5D80DF61C1DBDE8F08F09
:100D0000009A704502F10102009203F10203A5D19D
:100D1000CBE700BF558503204E8503204C8503207B
:100D2000CCD3022050850320081840002DE9F04F55
:100D3000ADF61C1D0593634B154693F800A04FF4C8
:100D400000621AF0070718BF012780460C4646A824
:100D500000211EF0B9FA00214FF4807206A81EF09F
:100D6000B3FA07EBDA072B0A03EB43011AFB07F68A
:100D7000EDB2C3EB0111A5F56E533F3B03EB41030D
:100D8000BAF1180FF6B29BB272D0BAF1200F72D03E
:100D9000BAF1100F40F0888032464B4903FB061130
:100DA00006A801F029F8494A0AEB080112881FFA3F
:100DB0008AF391424649A8BFA2EB08020988A244DF
:100DC000ACBF92B21A468A45A4BF091B8BB24046FB
:100DD00021461AF073FC002041460546B54263D215
:100DE00006AB13F805C03B4B00F1080E1B881A0A2E
:100DF000DBB20393384B02921B884A1C4FEA13293B
:100E0000DBB20193314B1B8804932E4B93F800A067
:100E100093B2009346AB03EB40031CF0800F2DD040
:100E2000019983F800905970BDF80010049A4FEAB8
:100E30004C0C8A425FFA8CFC00F1010025D846A9CF
:100E4000400000F095F9224B01341B88A4B2A34264
:100E50002AD9B5FBF7F307FB1353013DFB1A1D44D9
:100E6000EDB241464FF0000E0135EDB27046B5E7E8
:100E700032461A4992E7324619498FE70599002907
:100E8000D2D1029919700399CDE7009AA2EB080B11
:100E9000D3450DD146A9400000F06AF90C4B01344E
:100EA0001B88A4B2A342DCD80DF61C1DBDE8F08F50
:100EB000009A704502F10102009203F10203ACD1E5
:100EC000D2E700BF558503200C3040004E8503203B
:100ED0004C850320CCD3022050850320502E4400A3
:100EE000642A4D002DE9F0470E46044602440B44A7
:100EF000089D1D4F1FFA82F81FFA83F95FFA80FAE6
:100F00002A780AB9BDE8F087444521BF3B785446AA
:100F1000F618B6B20A2A04D154463B7801351E446D
:100F2000B6B24E45EED22A78002AEBD013060AD488
:100F3000204600233146FFF71BFE3878013504EBCD
:100F40005004A4B2DCE769780029D9D001EB022271
:100F50002046002392B23146FFF7E8FE387802358A
:100F60000444A4B2CCE700BF558503202DE9F84323
:100F700004460E461546DFF86080DFF86090154F96
:100F80002A780AB9BDE8F883B8F80030A342F9D945
:100F9000B9F80030B342F5D913060AD4002320462D
:100FA0003146FFF7E5FD3B78013504EB5304A4B26D
:100FB000E6E76B78002BE3D003EB02222046002308
:100FC00092B23146FFF7B2FE3B7802351C44A4B220
:100FD000D6E700BF558503204E8503204C850320AE
:100FE000002370B50B800D4616461380044648B1A9
:100FF000FBF7B2FF30B10B4B1B7899B231805B0825
:10100000227802B970BD120604D42A8801341A4429
:101010002A80F5E76278002AF2D02A8802340A444E
:101020002A80EDE755850320431E1F2B9CBF014BF3
:10103000187070475585032008B5084B1A781AB107
:1010400000221A7000F0BAF8054B1A782AB1002273
:101050001A70BDE8084000F0CBB808BD46D40220A5
:1010600047D402200122014B1A70704746D4022057
:101070000E4B0F4A10B5C3E900200E4A0120136041
:1010800000230D495060C1E900330C4BC3E9001047
:101090000B49086841680C680A49A047014620B11D
:1010A000BDE8104008481CF06AB810BD9C0B022037
:1010B00049D40220A40B0220700B0220780B0220DE
:1010C000980B0220800B0220AB0F0300024B18701C
:1010D0000120FFF7CDBF00BF49D4022010B5044660
:1010E000054B0022152118681AF0D4FA2046BDE8F5
:1010F0001040FFF7EBBF00BF6C0B022010B5044699
:10110000054B0122152118681AF0C4FA2046BDE8E3
:101110001040FFF7DBBF00BF6C0B0220F8B5124B8D
:101120000E4605460122152118681AF0B3FA370A4F
:10113000B5F5805F2A464FF0000428BF4FF4805277
:101140000A4B944203F1020307D16000FFF790FFBE
:10115000B5F5805F07D92D1BEAE703F8027C03F899
:10116000016C0134EDE7F8BD6C0B022049D402207C
:10117000104B70B5012204460E46186815211AF06E
:1011800089FAB4F5005F254628BF4FF40055334671
:10119000094A71198B4207D12846FFF769FFB4F558
:1011A000005F06D9641BECE713F8010B02F8010B92
:1011B000F0E770BD6C0B022049D4022010B50A4C38
:1011C00022787AB9094B0E2118681AF063FA2820A0
:1011D000FFF784FF1020FFF781FF78201AF058FAFC
:1011E0000123237010BD00BF548503206C0B022027
:1011F00010B51A4817F05AFE00280ADD4FF47A732A
:1012000080FB0301C30B53EA414302D013481DF096
:1012100098FF134B9B8963B1124A117811B10023D7
:10122000137005234FF47A71002259430B4818F0CC
:101230005DF80D4C237883B11120FFF74FFF782024
:101240001AF026FA2920FFF749FF084B01221868F7
:101250000E211AF01FFA0023237010BD400B02204C
:10126000CED3022048D40220548503206C0B0220E8
:1012700038B5A7481BF083FFA64814F0F9FFA64C29
:10128000206020B9BDE83840A4481BF078BF0E218B
:101290001AF00AFA172120681AF006FA18212068B5
:1012A0001AF002FA152120681AF0FEF912212068BE
:1012B0001AF0FAF90122122120681AF0EBF9984885
:1012C00014F0D6FF974B1860002840F00A8194492B
:1012D00095481BF054FF0122182120681AF0DAF912
:1012E0000A201AF0D5F90022182120681AF0D2F944
:1012F0000A201AF0CDF90122182120681AF0CAF943
:1013000078201AF0C5F91120FFF7E8FE78201AF0CE
:10131000BFF9FE20FFF7E2FEEF20FFF7DFFE3620E9
:10132000FFF7DCFE4820FFF7E9FE3A20FFF7D6FE84
:101330000520FFF7E3FE8620FFF7D0FE9820FFF799
:10134000DDFE8920FFF7CAFE0320FFF7D7FE8B20C2
:10135000FFF7C4FE8020FFF7D1FE8D20FFF7BEFE11
:101360003320FFF7CBFE8E20FFF7B8FE8F20FFF76C
:10137000C5FEE820FFF7B2FE1220FFF7BFFE0020F7
:10138000FFF7BCFEC320FFF7A9FE2020FFF7B6FE43
:10139000C420FFF7A3FE3020FFF7B0FEC920FFF7FF
:1013A0009DFE0820FFF7AAFEFF20FFF797FE6220B0
:1013B000FFF7A4FE9920FFF791FE3E20FFF79EFE67
:1013C0009D20FFF78BFE4B20FFF798FE9820FFF73C
:1013D00085FE3E20FFF792FE9C20FFF77FFE4B200C
:1013E000FFF78CFEF020FFF779FE1320FFF786FE53
:1013F0001420FFF783FE0720FFF780FE0520FFF78C
:101400007DFEF020FFF77AFE2920FFF777FEF1201E
:10141000FFF764FE3E20FFF771FE9220FFF76EFE9D
:101420009020FFF76BFE2120FFF768FE2320FFF7D7
:1014300065FE9F20FFF762FEF220FFF74FFE1320AC
:10144000FFF75CFE1420FFF759FE0720FFF756FE5A
:101450000520FFF753FEF020FFF750FE2920FFF78D
:101460004DFEF320FFF73AFE3E20FFF747FE9220A5
:10147000FFF744FE9020FFF741FE2120FFF73EFEDC
:101480002320FFF73BFE9F20FFF738FE1120FFF7D8
:1014900025FE78201AF0FCF82920FFF71FFE2C20EB
:1014A000FFF71CFE00201AF041F914201AF0F0F8A2
:1014B0002068002401220E211AF0ECF81B4B224672
:1014C0001B491C481C701DF030FE1B4B9B89F3B15F
:1014D0004FF47A7122465943BDE83840154817F059
:1014E00005BF4FF48073154D1548C5E90003094841
:1014F00014F0BEFE134B186018B913481BF03FFEE2
:10150000E9E617210022AB60C3E90112E3E638BD2A
:10151000400F03004A0F03006C0B0220510F030021
:101520006A0F0300980B0220700F030054850320FC
:1015300065100100400B0220CED30220800B022058
:1015400000093D008C0B0220890F0300012808B51B
:101550000FD0022812D0134B1B780BB1FFF72EF9D6
:10156000114B1B780BB1FFF7C1F9BDE8084005F03E
:10157000C7B80229EFD105F0C7FEECE7022905D173
:1015800001220A4B1A70E6E7094A09E00029E2D174
:10159000084B1970084B1A780123002AF4D0074A27
:1015A0001370D8E741D4022044D402204DFF02201A
:1015B00046D4022048D402205485032047D4022078
:1015C000024B02211878FFF7C1BF00BF240C022094
:1015D00038B5024600EA010503234FF000000C462F
:1015E00063F307001249134B5B1ADB08124963F3DC
:1015F0008F1023461BF01AFE002D14BF012100217D
:101600000E4B0F4A1C6011601C4615460BD0002281
:1016100041F288310B4817F069FE29782078BDE83F
:101620003840FFF793BF07481DF08BFDF5E700BF7B
:1016300040030300B8030300BA0F0300240C022088
:10164000280C0220EC0B022038B54FF02003EFF3FA
:10165000118483F31188BFF36F8F334817F098F824
:1016600068B94A23314A324932481BF088FD2E4975
:1016700031481BF084FD4A212C481BF0C6FD2F4D3C
:10168000294817F0A3F8286843685B69002B2ED11E
:1016900003234FF000002A4A63F30700294B2A492D
:1016A0009B1ADB0863F38F101BF0C0FD274B1A78E1
:1016B000002A2CD10122264926481A7017F03CFA3C
:1016C000194817F073F868B95D23184A2249194878
:1016D0001BF055FD144921481BF051FD5D211348B5
:1016E0001BF093FD84F31188BFF36F8F38BD002189
:1016F0001A22984701460028CAD1686843685B6986
:10170000002BC5D00F2298470028CFD0C0E74FF458
:10171000AC73134A134907481BF031FD4FF4AC7109
:101720000F481BF072FDCBE7340C0220DB0F0300E7
:10173000011003001610030033100300AC0B02204D
:1017400040030300B80303004B10030049F40220D8
:10175000CC0B0220DCD20220751003008C10030099
:1017600064100300E34803002DE9F74F0025DFF87C
:1017700014922C46A8464F464FF0010A6A4E59F87B
:10178000040B327943680021D3F808B001ABD84785
:10179000002844D003234FF00000644A63F307009D
:1017A000634B64499B1ADB0863F38F101BF03EFD0B
:1017B0000024614BD3E8EF2FC3E8E14F0029F9D1B2
:1017C0005E4B5F4D1A78002A40D12968A1420DD0A6
:1017D0005C4B1B6813B16140204698474FF0FF31C6
:1017E000594815F029FA584815F004FB2C6084B3C9
:1017F0000A225649564817F09FF968B103234FF063
:1018000000004A4A63F30700494B52499B1ADB0820
:1018100063F38F101BF00AFD03B0BDE8F08F7379FE
:1018200063B1012B08BF0025019B4BB955B90836A0
:10183000B8F1000FBDD14FF00108A0E70125F3E793
:10184000002DF4D10AFA08F31C43F0E700221A70C5
:10185000CCE74FF02003EFF3118583F31188BFF33A
:101860006F8F3D4816F094FF68B94A233B4A3C49C4
:101870003C481BF084FC38493B481BF080FC4A2163
:1018800036481BF0C2FC344816F0A0FF374B1A78DC
:10189000012A3BD100213868197043681B6933BBAA
:1018A0006FF085042C4816F081FF68B95D232B4A40
:1018B0002F492C481BF063FC27492E481BF05FFC86
:1018C0005D2126481BF0A1FC85F31188BFF36F8FC3
:1018D000002CA1D003234FF00000144A63F307004B
:1018E000134B25499B1ADB0863F38F1092E71A22EA
:1018F000984704460028D5D1786843681B69002BB7
:10190000CED021460F2298470446CBE740F213136E
:101910001A4A1B4913481BF032FC40F213111748B6
:101920001BF073FC0024BDE708070300400303001D
:10193000B8030300A1100300380C022056850320D1
:101940002C0C0220B40B0220B80B0220CC0B02207E
:10195000DCD20220B6100300340C0220DB0F03009F
:1019600001100300161003003310030049F4022095
:10197000751003008C100300D310030064100300E3
:10198000E3480300AC0B0220F8B54FF0000003233E
:101990006A4D63F307006A4B6A49ED1AC5F3C9053E
:1019A00065F38F101BF042FC674B684A1A60684869
:1019B0001DF0B5FA674814F05BFC674E306050B319
:1019C00043681A221C6800214FF48073A047044624
:1019D000002839D15F4814F04BFC7060D8B14368DF
:1019E00021461F680F224FF48073B847044658BB46
:1019F0003068436821461F681A224FF48173B84744
:101A0000044660B34FF00000032363F3070065F35F
:101A10008F10524920E003234FF0000063F30700CA
:101A200065F38F104E491BF001FC6FF01204032385
:101A30004FF0000063F3070065F38F102246BDE806
:101A4000F84048491BF0F2BB4FF000000323464921
:101A500063F3070065F38F101BF0E8FBE7E770689E
:101A6000436821461F680F224FF48173B84704462C
:101A70000028C7D1306843685B6913B321461A2236
:101A800098470446F8B9706843685B69CBB1214652
:101A90000F2298470446B0B9344F354B30687B600D
:101AA000344BBB604368DB6843B101223946984739
:101AB0000446B0B970684368DB686BB96FF08504A1
:101AC0000FE06FF085044FF00000032363F307007D
