:020000021000EC
:10C20000086D02201DD901008BBF0200A1D60100DC
:10C21000A1D60100A1D60100A1D60100A1D601003E
:10C22000A1D60100A1D60100A1D6010069D6010066
:10C23000A1D60100A1D60100A5D5010085D201003B
:10C24000BDD60100BDD60100BDD60100BDD601009E
:10C25000BDD60100BDD60100BDD60100BDD601008E
:10C26000BDD60100BDD60100BDD60100BDD601007E
:10C27000BDD60100BDD60100BDD60100BDD601006E
:10C28000BDD60100BDD60100BDD60100BDD601005E
:10C29000BDD60100BDD60100BDD60100BDD601004E
:10C2A000BDD60100BDD60100BDD60100BDD601003E
:10C2B00015EB01009FC30200BDD60100BDD60100F1
:10C2C000BDD60100BDD60100BDD60100BDD601001E
:10C2D000BDD60100BDD60100BDD60100BDD601000E
:10C2E000BDD60100BDD60100BDC30200BDD6010010
:10C2F000BDD60100BDD60100BDD60100BDD60100EE
:10C30000BDD60100BDD60100BDD60100BDD60100DD
:10C31000BDD60100BDD60100BDD60100BDD60100CD
:10C32000BDD60100BDD60100BDD60100BDD60100BD
:10C33000BDD60100BDD60100BDD60100BDD60100AD
:10C34000BDD6010000000000000000000000000059
:10C3500000000000000000000000000000000000DD
:10C3600000000000000000000000000000000000CD
:10C3700000000000000000000000000000000000BD
:10C3800000000000000000000000000000000000AD
:10C39000000000000000000000000000000000009D
:10C3A000000000000000000000000000000000008D
:10C3B000000000000000000000000000000000007D
:10C3C000000000000000000000000000000000006D
:10C3D000000000000000000000000000000000005D
:10C3E000000000000000000000000000000000004D
:10C3F000000000000000000000000000000000003D
:10C40000DEE61E284CBBCE8F025B00003C00000025
:10C41000102F01000100000000C2010000C2010055
:10C42000FFFF02910000000000000000000000007B
:0CC4300000000000000000000000000000
:10C43C0053B94AB9002908BF00281CBF4FF0FF317F
:10C44C004FF0FF3000F070B9ADF1080C6DE904CE7F
:10C45C0000F006F8DDF804E0DDE9022304B07047D3
:10C46C002DE9F04F099E04468946002B40F083804D
:10C47C008A42154645D9B2FA82F24AB1C2F1200776
:10C48C0001FA02F39540944020FA07F747EA0309B2
:10C49C004FEA154E230C1FFA85F8B9FBFEFC0EFB78
:10C4AC001C990CFB08F143EA094399420AD9EB1891
:10C4BC002CBF01200020994202D9002800F01D81D8
:10C4CC000CF1FF3C591AA3B2B1FBFEF00EFB10119C
:10C4DC0000FB08F843EA0144A04505D92C1902D207
:10C4EC00A04500F20E810138A4EB080440EA0C4090
:10C4FC0000271EB1D4400023C6E900433946BDE8ED
:10C50C00F08F002A51D0B2FA82F2002A40F0AF80AC
:10C51C00491B4FEA154E1FFA85F80127230CB1FB76
:10C52C00FEFC0EFB1C1108FB0CF043EA0143984285
:10C53C000AD9EB182CBF01210021984202D90029FD
:10C54C0000F0D7800CF1FF3C191AA3B2B1FBFEF03E
:10C55C000EFB101108FB00F843EA0144A04505D975
:10C56C002C1902D2A04500F2C1800138A4EB0804BA
:10C57C0040EA0C40BDE78B4208D9002E74D000274E
:10C58C00C6E9000138463946BDE8F08FB3FA83F7A7
:10C59C0067B98B42C0F0A480824240F2A180384639
:10C5AC00002EABD0C6E90049A8E7FFDEC7F1200595
:10C5BC00BB4002FA07FC01FA07F4EA4020FA05F83E
:10C5CC00E94000FA07FE1A4348EA04044FEA12480D
:10C5DC00200C1FFA82F9B1FBF8FA08FB1A110AFBBE
:10C5EC0009FB40EA01418B450AD951182CBF0123A4
:10C5FC0000238B4502D9002B00F088800AF1FF3A0A
:10C60C00A1EB0B01A4B2B1FBF8F008FB101100FB7D
:10C61C0009F944EA0141894504D9511801D28945E7
:10C62C007BD8013840EA0A40A1EB0901A0FB0C8938
:10C63C00494544464B4602D306D1C64504D201387F
:10C64C00B8EB0C0469EB0203002E5DD0BEEB0402C8
:10C65C0061EB030101FA05F522FA07F3F940002713
:10C66C001D43C6E9005149E73746304646E7C2F15B
:10C67C002000954001FA02F721FA00F34FEA154E1B
:10C68C0024FA00F11FFA85F894403943B3FBFEF00D
:10C69C000F0C0EFB103300FB08FC47EA03439C45D0
:10C6AC0007D9EB182CBF012700279C4500D98FB365
:10C6BC000138A3EB0C0389B2B3FBFEF70EFB173367
:10C6CC0007FB08FC41EA03418C4504D9691801D2E7
:10C6DC008C4525D8013FA1EB0C0147EA00471DE72B
:10C6EC00841A61EB03030120994659E702382C4464
:10C6FC003CE7ACF1020C2B4426E7ACF1020C2B44CA
:10C70C00E0E602382C44EFE63746F7E6AAF1020AD7
:10C71C00114475E702382B44CBE70238114481E70A
:10C72C00023F2944D7E700BF704700BF10F8012B28
:10C73C0011F8013B012A28BF9A42F7D0D01A704752
:10C74C00034613F8012B002AFBD1181A0138704745
:10C75C000140CA071CD51F4B1A68012A02D10022BE
:10C76C001A6015E01C4B1A68012A0FD11B4802688D
:10C77C00B2F5FA6F02DA6432026009E000221A6044
:10C78C0016480268C72A0BDD643AF5E7002AF7D091
:10C79C008B071DD50F4B1A6822B901221A6017E0BE
:10C7AC000122DDE70C4B1A68012A0FD10B490A68EC
:10C7BC00B2F5FA6F02DA64320A60704700221A602E
:10C7CC0006490A68C72AE8DD643AF5E7002AF7D07B
:10C7DC00704700BF080002204C7E0220487E0220D9
:10C7EC0008B512480FF043FB114B1B68012B114B82
:10C7FC001A6815D10132032AC8BF00221A601A68C0
:10C80C000D4B03EBC20153F83200496810F0D7F915
:10C81C000A4B19680022BDE8084009480DF004BD18
:10C82C000AB904221A601A68013AE7E700DC020030
:10C83C000800022010000220C8D60200487E022008
:10C84C001400022008B5124802F052FD014610B146
:10C85C0010480FF00CFB02F017FD014610B10E480A
:10C86C000FF005FB0F21002010F0A9F9014610B1C3
:10C87C000A480FF0FCFA002209490A4810F0CEFAD7
:10C88C00094B19680022BDE8084006480DF0CCBCE5
:10C89C005DC7010019DC020045DC02006EDC020001
:10C8AC00EDC7010014000220487E022010B5074895
:10C8BC000FF0DDFA06480BF04BF9064C206068B916
:10C8CC00BDE8104004480FF0D2BA00BF96DC02005D
:10C8DC00ABDC02000C000220B2DC020000210FF0E5
:10C8EC001DF80122002120680FF00EF800222068AC
:10C8FC0011460FF009F8012120680FF00FF8012202
:10C90C00206811460FF000F80022012120680EF07B
:10C91C00FBFF022120680FF001F8012202212068A0
:10C92C000EF0F2FF0022022120680EF0EDFF032131
:10C93C0020680EF0F3FF0122032120680EF0E4FFC3
:10C94C000022032120680EF0DFFF042120680EF086
:10C95C00E5FF0122042120680EF0D6FF00220421FD
:10C96C0020680EF0D1FF052120680EF0D7FF0122C0
:10C97C00052120680EF0C8FF0022052120680EF06A
:10C98C00C3FF062120680EF0C9FF01220621206892
:10C99C000EF0BAFF0022062120680EF0B5FF072129
:10C9AC0020680EF0BBFF0122072120680EF0ACFFBF
:10C9BC000022072120680EF0A7FF082120680EF046
:10C9CC00ADFF0122082120680EF09EFF00220821F5
:10C9DC0020680EF099FF092120680EF09FFF0122BC
:10C9EC00092120680EF090FF0022092120680EF02A
:10C9FC008BFF0A2120680EF091FF01220A2120688A
:10CA0C000EF082FF00220A2120680EF07DFF0B2120
:10CA1C0020680EF083FF01220B2120680EF074FFBA
:10CA2C0000220B2120680EF06FFF0C2120680EF005
:10CA3C0075FF01220C2120680EF066FF00220C21EC
:10CA4C0020680EF061FF0D2120680EF067FF0122B7
:10CA5C000D2120680EF058FF00220D2120680EF0E9
:10CA6C0053FF0E2120680EF059FF01220E21206881
:10CA7C000EF04AFF00220E2120680EF045FF0F2118
:10CA8C0020680EF04BFF01220F2120680EF03CFFB6
:10CA9C0000220F2120680EF037FF102120680EF0C5
:10CAAC003DFF0122102120680EF02EFF00221021E4
:10CABC0020680EF029FF112120680EF02FFF0122B3
:10CACC00112120680EF020FF0022112120680EF0A9
:10CADC001BFF122120680EF021FF01221221206879
:10CAEC000EF012FF0022122120680EF00DFF132110
:10CAFC0020680EF013FF0122132120680EF004FFB2
:10CB0C000022132120680EF0FFFE142120680EF085
:10CB1C0005FF0122142120680EF0F6FE00221421DC
:10CB2C0020680EF0F1FE152120680EF0F7FE0122B0
:10CB3C00152120680EF0E8FE0022152120680EF069
:10CB4C00E3FE162120680EF0E9FE01221621206872
:10CB5C000EF0DAFE0022162120680EF0D5FE172109
:10CB6C0020680EF0DBFE0122172120680EF0CCFEAF
:10CB7C000022172120680EF0C7FE182120680EF045
:10CB8C00CDFE0122182120680EF0BEFE00221821D5
:10CB9C0020680EF0B9FE192120680EF0BFFE0122AC
:10CBAC00192120680EF0B0FE0022192120680EF029
:10CBBC00ABFE1A2120680EF0B1FE01221A2120686A
:10CBCC000EF0A2FE00221A2120680EF09DFE1B2101
:10CBDC0020680EF0A3FE01221B2120680EF094FEAB
:10CBEC0000221B2120680EF08FFE1C2120680EF005
:10CBFC0095FE01221C2120680EF086FE00221C21CD
:10CC0C0020680EF081FE1D2120680EF087FE0122A7
:10CC1C001D2120680EF078FE00221D2120680EF0E8
:10CC2C0073FE1E2120680EF079FE01221E21206861
:10CC3C000EF06AFE00221E2120680EF065FE1F21F8
:10CC4C0020680EF06BFE01221F2120680EF05CFEA6
:10CC5C00206800221F210EF057FEBDE81040FFF7A0
:10CC6C00F1BD00BF2DE9F04F85B0837A00AF9B007A
:10CC7C00073303F4FF63ADEB030DEB464368064645
:10CC8C005C460120CBF80030814222D2307C8846B1
:10CC9C0010F00100154601D00EF061FE0446B8F10B
:10CCAC00000F1EDABC23504A504951480FF0DFF8F0
:10CCBC0050480FF0DCF8BC214B480FF01EF94FF038
:10CCCC00FF342146307C0EF053FE1437BD46BDE8D0
:10CCDC00F08F236801309B0823F0030344F8043FD2
:10CCEC00D2E75BF828302A4603FB05FA7B603368F1
:10CCFC0041463B6003EB0A09304607F10C030EF08A
:10CD0C0017FEFB681B6823FA00F0C3070DD4A3239E
:10CD1C00354A394936480FF0AAF8494637480FF0DA
:10CD2C00A6F8A32130480FF0E8F807F10C032A46C7
:10CD3C00414630460EF0FCFD0123FA6803FA00F080
:10CD4C001368396823EA000313600C23F26803FBB1
:10CD5C0008231A1D41F80A209A682146C9F80420B4
:10CD6C009A68C2F80090C3F80890307C0EF000FE70
:10CD7C00307C10F0010001D00EF0F1FD0446B8F14A
:10CD8C00000F9ED007F10C032A46414630460EF0A8
:10CD9C00CFFDFB680028B8BF03301B6820F00300F0
:10CDAC0023FA00F010F00F008BD1844625F0030A13
:10CDBC007A680AEB0003534332680130D118D1F87A
:10CDCC00049052F803E00428C9F800E0CEF804906F
:10CDDC0042F803C0C1F804C0EAD1002DB8BF033536
:10CDEC0008F1FF38AD105AE7CBDC020057E902001E
:10CDFC000EDD020050DD0200EFDC02002BDD020034
:10CE0C000B6801330B60014B1B681847507E0220E6
:10CE1C002DE9F04F85B00E9C9B46012CB8BF012428
:10CE2C00012B0CBF30232023164682468846012551
:10CE3C000A270022DFF86C900293B6FBF9F30193FA
:10CE4C000AB9B1451CD8019B414603F13000D047CB
:10CE5C0001220135019B013F09FB13660A23012FB7
:10CE6C00B9FBF3F9E9D1414606F13000D047BBF1EB
:10CE7C00030F02D1641B002C0EDC05B0BDE8F08F53
:10CE8C00BC42E7DBBBF1020FE4D8414602980392A7
:10CE9C000135D047039ADDE741462020D047013CBD
:10CEAC00E9E700BF00CA9A3B014B1860704700BF0E
:10CEBC00507E0220002307B50246019303480B461F
:10CECC0001A90EF064FE03B05DF804FB0DCE010069
:10CEDC004FF02002EFF3118382F31188BFF36F8FB1
:10CEEC000121044AC2F8401583F31188BFF36F8FF8
:10CEFC00002070470090034038B5054648B90C49EE
:10CF0C000C4811230C4A0EF0B2FF11210A480EF006
:10CF1C00F4FF0A4C22684AB1094906481223064A12
:10CF2C000EF0A5FF122104480EF0E7FF256038BD76
:10CF3C009BDD02000EDD020060DD020040000220DD
:10CF4C009FDD02000A4B70B5C6B204461B68304622
:10CF5C00984701280AD00A2C064D03D10D212868C8
:10CF6C000EF0D5FF314628680EF0D1FF204670BD7B
:10CF7C00547E02204400022010B5044C204601F0DF
:10CF8C0059F82046BDE81040FFF78EBF51CF010085
:10CF9C0008B504480AF0DCFD034B1860FFF7ECFF02
:10CFAC00002008BDB9DD02004400022010B50022AB
:10CFBC0004460121052000F0C5FB052000F0B2FB62
:10CFCC000222074B0020C3F818250322C3F80423C0
:10CFDC00A368C3E90000A368C3E9030010BD00BF48
:10CFEC000050004038B5CCB2012C054609D90B498C
:10CFFC000B4884230B4A0EF03AFF842109480EF0AB
:10D00C007CFF0C21AB6804FB01314B7A23B9087A05
:10D01C00B0FA80F0400938BD0220FCE75BDE02006C
:10D02C000EDD020020DE02002DE9F047CDB2012D0D
:10D03C000746144609D94A494A48FD234A4A0EF084
:10D04C0016FFFD2148480EF058FF3B68D7F80880C2
:10D05C00D3F80890002C59D14FF02003EFF3118A2C
:10D06C0083F31188BFF36F8F0C2303FB05831E7AA8
:10D07C000136F6B21E725EB93C493A484FF48773DA
:10D08C00394A0EF0F4FE4FF4877137480EF035FF35
:10D09C008AF31188BFF36F8F2CB30322344BC3F880
:10D0AC0008230C226A4308EB0203597A91B94FF01A
:10D0BC002000EFF3118C80F31188BFF36F8F216088
:10D0CC00586800283CD15C6048F802408CF3118809
:10D0DC00BFF36F8F0322264BC3F8042319B1D4E995
:10D0EC00013138469847012E0ED10C236B4359F869
:10D0FC00033043BB0C23012203FB0595AB7A03F1F0
:10D10C00804303F5A0431A60002027E063685BB9F5
:10D11C00184914484FF48173134A0EF0A8FE4FF4CB
:10D12C00817111480EF0E9FE0C236B4358F8033063
:10D13C009C4211D0002B8FD01B68002BF8D18BE7B1
:10D14C0004605C60C2E7384698470028D2D1294673
:10D15C0038460EF0E1FED7E76FF00F00BDE8F08720
:10D16C005BDE02000EDD020020DE02000EDE02009D
:10D17C0000500040C0DD02002DE9F041CCB2012C82
:10D18C00054609D9244925489923254A0EF06FFEF6
:10D19C00992123480EF0B1FE2B68AF68D3F80880B4
:10D1AC004FF02003EFF3118683F31188BFF36F8FD9
:10D1BC000C226243B9180B7A4BB3013BDBB20B72F6
:10D1CC0043BBBB5042444B605368DBB90C2201217A
:10D1DC0004FB0282D37A03F1804303F5A043196068
:10D1EC001389002203F1804303F5A0431A600C233A
:10D1FC00002004FB0374607286F31188BFF36F8FF9
:10D20C00BDE8F081284698470028DFD1EFE76FF0A2
:10D21C007700F1E70020EFE75BDE02000EDD020095
:10D22C0020DE020008B5104B1A6862B10F4AD2F822
:10D23C000423D10707D500220D481A608368597A58
:10D24C0009B90EF069FE0B4B1A6862B1074AD2F8A5
:10D25C000423920707D5002201211A600448BDE877
:10D26C0008400EF059BE08BD00510040005000406F
:10D27C00207F02200451004010B5064C064922467E
:10D28C00064817230EF0F3FD2046BDE81040172189
:10D29C000EF033BE8FDE020057E902000EDD0200F5
:10D2AC00002238B5224BC3F840214FF02003EFF396
:10D2BC00118583F31188BFF36F8F1E480CF0BAFAF7
:10D2CC0068B94A231C4A1D491D480EF0D0FD194966
:10D2DC001C480EF0CCFD4A2117480EF00EFE1548E6
:10D2EC000CF0C6FA124B184AD3F8044513681148CF
:10D2FC00E41A24F07F44234413600CF0A9FA68B9B3
:10D30C005D230D4A11490E480EF0B1FD0949104834
:10D31C000EF0ADFD5D2108480EF0EFFD85F3118890
:10D32C00BFF36F8F2046BDE838400CF055BE00BFF0
:10D33C000050014064000220C1DE0200E7DE020062
:10D34C000EDD0200FCDE02006000022014DF020091
:10D35C002BDF020070B515480AF0FAFB10B34368D6
:10D36C0001211B689847002401264FF480334FF4A9
:10D37C0000120F4D3146C5F80845C5F84065C5F893
:10D38C0004330C4B15201C600B4BC3F88021224638
:10D39C0000F0D8F9152000F0C5F92046074B1E60A7
:10D3AC002E6070BD4FF0FF30FBE700BF7FDE020048
:10D3BC00005001404051014000E100E008500140A4
:10D3CC0070B53A4CB0F1FF3F18BF04464FF0200344
:10D3DC00EFF3118583F31188BFF36F8F34480CF092
:10D3EC0029FA68B94A23334A334934480EF03FFDD1
:10D3FC002F4933480EF03BFD4A212E480EF07DFD9F
:10D40C002B480CF035FA2F4B284ED3F804252E4B15
:10D41C001B68D01A10F4000F20F07F412CD1601E35
:10D42C0020EAE070B042A8BF304601310844B04257
:10D43C0094BF1B189B199A1A22F07F42214923F0A2
:10D44C007F40022AC1F8400518D919480CF000FA9F
:10D45C0068B95D23174A1D4918480EF008FD144998
:10D46C001B480EF004FD5D2112480EF046FD85F3BD
:10D47C001188BFF36F8F70BD0020D6E7D1F804255B
:10D48C0014489A1A22F07F42541E844205D94FF454
:10D49C000012114BC3F80021D7E7012A02BF023357
:10D4AC0023F07F43C1F84035CFE700BFFEFFFF00FC
:10D4BC0064000220C1DE0200E7DE02000EDD020085
:10D4CC00FCDE0200005001406000022014DF02006C
:10D4DC002BDF0200FEFF7F0000E100E038B54FF0CB
:10D4EC002003EFF3118583F31188BFF36F8F1A4874
:10D4FC000CF0A0F968B94A23184A194919480EF0DA
:10D50C00B6FC154918480EF0B2FC4A2113480EF02F
:10D51C00F4FC11480CF0ACF9144B0F48D3F804454B
:10D52C00134B1B68E41A24F07F440CF091F968B992
:10D53C005D230A4A0F490B480EF099FC06490E4828
:10D54C000EF095FC5D2105480EF0D7FC85F3118893
:10D55C00BFF36F8F204638BD64000220C1DE02008D
:10D56C00E7DE02000EDD0200FCDE0200005001408E
:10D57C006000022014DF02002BDF020004488168E7
:10D58C00406A884203D003494FF080520A607047CA
:10D59C00544A022004ED00E02E498A684FF028001E
:10D5AC001044EFF3098C80E8F01F4FF010001EEAD6
:10D5BC00000F04D0D2F8AC0020F0040007E002F118
:10D5CC006C0080EC108AD2F8AC0050F00400C2F869
:10D5DC00AC00202080F31188BFF36F8F1E4F4FF0EB
:10D5EC0000664A6A8A603E60506E0023536680F380
:10D5FC001188D2F8AC0010F0040F05D10023E1EE35
:10D60C00103A5EF0100E05E02EF0100E02F16C00D8
:10D61C0090EC108AEFF3148323F0040383F3148843
:10D62C00BFF36F8F04B510460EF0B0FCBDE804409C
:10D63C0002F1280090E8F01F4FF0000080F30B88F7
:10D64C008CF3098802F1000004B50EF08EFCBDE8E5
:10D65C0004407047544A022004ED00E01EF0040F11
:10D66C000CBFEFF30880EFF30980816911F8021CFD
:10D67C000229FFD001B50EF07EFC01BD014910223C
:10D68C000A60704710ED00E0404080F3118830BF15
:10D69C00704700BFEFF30880EFF30981724601B5C4
:10D6AC0000F0BAF901BD00BF30BFFFF7FDBF00BFEE
:10D6BC0001B572B60B4A106A00281EBF0021116218
:10D6CC000FF094FA62B6EFF30580A0F110004FEA68
:10D6DC00C0000549014409C99847BDE80140034908
:10D6EC0008470000544A0220F4D3020089D50100F7
:10D6FC00094A0A49936809685866996608494B684B
:10D70C0043F080534B60002383F31188BFF36F8F7A
:10D71C009368986E704700BF544A022098DB020051
:10D72C0000ED00E043B2002B08DB012200F01F00EB
:10D73C0002FA00F0024A5B0942F82300704700BF6E
:10D74C0000E100E070B54C1C072C05460E460ED9C6
:10D75C005F23104A104911480EF089FB31461048DE
:10D76C0007220EF084FB5F210A480EF0C6FB6BB259
:10D77C00002BA8BF03F160434FEA4414B8BF094B18
:10D78C00E4B2ABBF03F5614305F00F0583F800432A
:10D79C005C5570BD40DF020076DF02000EDD02003A
:10D7AC0091DF020014ED00E008B572B6044B186A64
:10D7BC0018B100221A620FF019FA62B608BD00BF48
:10D7CC00544A02202DE9F7430D9E05460F2E88463C
:10D7DC0091461F4626D11E4B9F4227D10E9B4A468F
:10D7EC0000934146334628460FF098FA08EB09049B
:10D7FC00184AA4F1200323F0070322F001029A61D6
:10D80C000A9A1F605A600B9A9A600C9ADA604FF071
:10D81C008072DA61AB6400236B66C5F8AC3003B080
:10D82C00BDE8F08306F110031E2BD7D92D230A4A2D
:10D83C000A490B480EF01BFB31466FF00F030E220A
:10D84C0008480EF014FB2D2103480EF056FBC5E7DB
:10D85C00017C0200BDBE0200C6DF0200F8DF020040
:10D86C000EDD020085E00200F8B51F4606460D46A7
:10D87C0014460023E1EE103AEFF3148222F0040276
:10D88C0082F31488BFF36F8F00F0C0F90B4B2C445C
:10D89C0030469E6024F007040EF078FB85F30B886D
:10D8AC00384684F30988002163B681F31188BFF3ED
:10D8BC006F8F002200230EF0FBFA00BF544A0220A7
:10D8CC00114A08B5114B22F07F029A60BFF34F8FBB
:10D8DC00BFF36F8FD3F8882042F4A002C3F88820DE
:10D8EC004FF04042C3F83422BFF34F8FBFF36F8F1A
:10D8FC000023E1EE103A0AF097F90AF09FF900F0D4
:10D90C003BF90AF0D9F900BF00C2010000ED00E0BC
:10D91C000EF0FBFA202080F3118808484FF40061C8
:10D92C00401880F30988EFF314800221084380F338
:10D93C001488BFF36F8FFFF7C3FF0000486E0220FF
:10D94C000D4B9A6A9A6A9A6A920508D59A6B9A6AEA
:10D95C00120404D518B19A6A22F400429A6200208B
:10D96C00054B9A6A9A6AD20558BF9A6A9A6A42F427
:10D97C007F429A620870704700ED00E0094B9A6A8A
:10D98C009A6A986A9A6A9A6A9A6A9A6A9A6A10F46D
:10D99C0080106FEA02426FEA124218BF02209A62AC
:10D9AC00704700BF00ED00E0164B10B59A6A9A6AFA
:10D9BC009A6A0C46910708D55A6B9A6A120604D5D6
:10D9CC0018B19A6A22F080029A620E4B9A6A9A6A8D
:10D9DC009B6ADB060ED50C494FF49B730B4A0C4823
:10D9EC000EF045FA0B480EF042FA4FF49B710748C3
:10D9FC000EF083FA0020034A936A43F0FF0393620C
:10DA0C00207010BD00ED00E057E90200B6E0020006
:10DA1C000EDD0200F0E0020070B5414B9CB05C687A
:10DA2C000025C4F3080485F31188BFF36F8F02F04F
:10DA3C007F43B3F17F4F0ED1D3070CD4560604D4D9
:10DA4C00150705D40646012504E012F004051CD088
:10DA5C000E4600257EB940F2B133324A3249334882
:10DA6C000EF005FA32480EF002FA40F2B1312D48B0
:10DA7C000EF043FA002600238DF80730E31E032B2B
:10DA8C0047D8DFE803F0043E423B0646E2E7244B6E
:10DA9C00DA6A92073DD4DC6A14F0804408D028334B
:10DAAC001B78EBB101200DF10701FFF77DFF044658
:10DABC009DF8073093B96822314602A80FF032FA6C
:10DACC00099B45B3C3F3080222B96FEA53236FEAEB
:10DADC004323099302A920460EF04BFA1CB070BDEB
:10DAEC00144B1B782BB101200DF10701FFF728FF18
:10DAFC00DDE7114B1C88A4B2002CD9D0FFF73EFFF8
:10DB0C00D5E70DF107010020CFE70DF1070100204B
:10DB1C00ECE70024CCE723F4FF7323F00103D8E7F0
:10DB2C0000ED00E0B6E002002AE102000EDD02008A
:10DB3C003DE1020029ED00E02AED00E0044B5A69BA
:10DB4C0042F010025A615A6942F480625A6170477D
:10DB5C0000ED00E0BFF34F8F0549064BCA6802F495
:10DB6C00E0621343CB60BFF34F8F00BFFDE700BFF4
:10DB7C0000ED00E00400FA05002320210348C21840
:10DB8C000133412B82F80013F9D1704700E100E01A
:10DB9C0038B504464FF02003EFF3118583F3118859
:10DBAC00BFF36F8F037BDB070CD512492423124A7A
:10DBBC0012480EF05CF912480EF059F924210E4867
:10DBCC000EF09BF920460BF08BF90E4B9B68A34291
:10DBDC000BD10D4B5A68C2F3080212B92846FFF755
:10DBEC0087FD5A6842F080525A602846BDE838409A
:10DBFC000FF049B8BCE102007BE102000EDD02002F
:10DC0C00EAE10200544A022000ED00E010B50E4B90
:10DC1C0088B002930D4B0E4C03930E4B0E4A04939B
:10DC2C0002AB019301A82346012100F035F9002332
:10DC3C0007930A4B0121E41A05A80593069400F0FA
:10DC4C004FF908B010BD00BF00000220000000001A
:10DC5C000000042006000100000002200000022049
:10DC6C0010B50B680C7A23F01F0204F01F031A4343
:10DC7C00CB68640923F01F03044943EA440343F0CF
:10DC8C0001038860CA600B6110BD00BF90ED00E01D
:10DC9C002DE9F04F8046894614460027484D85B043
:10DCAC004F4507DA58F827305E68C6B31F2E05D8E3
:10DCBC006FF01504204605B0BDE8F08FF206F7D1E1
:10DCCC00D3F800A01AF01F0FF2D150460EF088F9CD
:10DCDC00834606EB0A0001380EF082F98345E7D142
:10DCEC001BF1160FE4D0631E5B45E1DBC5F808B0F1
:10DCFC00E86858F82710C5F808B02E6920F01F0006
:10DD0C00D1E900321A44984246F01F0602F1FF3A5C
:10DD1C0018D1564505D15FFA8BF00EF03FF901375B
:10DD2C00BEE7C5F808B0EB6822F01F0203F01F0332
:10DD3C001A43EA60E0B20EF031F910F1160FB7D0C9
:10DD4C00441CECE7C5F808B02A69013B23F01F031B
:10DD5C0002F01F0213435645E0B22B61EBD00EF0DC
:10DD6C001DF910F1160FA3D0C5F808B0EA689DF89C
:10DD7C000830013E62F304038DF808302B699DF8DE
:10DD8C0008205B0863F347128DF8082058F8272009
:10DD9C000130D2E900321344009323F01F031E44D8
:10DDAC00A6EB0A06C4B226F01F060F2C03963FF60C
:10DDBC007FAF20466946FFF753FF0134AFE700BF42
:10DDCC0090ED00E00522034B5A60BFF34F8FBFF379
:10DDDC006F8F704790ED00E0BFF35F8F0022014B17
:10DDEC005A60704790ED00E0F8B5214F3E68102E58
:10DDFC0013D940F22D131F4A1F4920480EF037F853
:10DE0C00102231461E480EF032F81A4840F22D11FD
:10DE1C000EF073F84FF0FF30F8BD0024FFF7DCFF75
:10DE2C00184D194A2A63A64219D1184B1E70FFF7D8
:10DE3C00C9FF2B68C3F30723102B0ED014494FF4E2
:10DE4C00A7730C4A0D480EF012F812480EF00FF89A
:10DE5C004FF4A77107480EF050F80020DCE7796802
:10DE6C00204601EB0411FFF7FBFE0134DBE700BF9A
:10DE7C0014D702008DE2020057E902000EDD020009
:10DE8C00CDE2020090ED00E0AAFF4400864B022098
:10DE9C0001E3020052E3020038B50C4C0D46227827
:10DEAC00FFF7F6FE207016300FD1F323084A09490C
:10DEBC0009480DF0DCFF294608480DF0D8FFBDE8F5
:10DECC003840F32102480EF018B838BD864B0220BA
:10DEDC008DE2020057E902000EDD020032E2020080
:10DEEC002DE9F74F2E4C894680460027A2464FF06D
:10DEFC00140B2C4D4F4502DB03B0BDE8F08FD8F866
:10DF0C0004300193002B46D0D8F80010084600913D
:10DF1C000EF066F8DDE900130646581801380EF0CD
:10DF2C005FF88642204A18D014235F436FF0150324
:10DF3C004AF8073040F203131C4A1D491D480DF0E6
:10DF4C0096FF49461C480DF092FF40F2031117480A
:10DF5C0003B0BDE8F04F0DF0D0BF16F1160F2660E0
:10DF6C00E8D01378B342E5DD0BFB07A3AE60AE60DF
:10DF7C00E868197B60F3040119732969187B490857
:10DF8C0061F347101873EB6823F01F0363602B6970
:10DF9C0023F01F0323610137143408F10C08A9E79F
:10DFAC006800022090ED00E0864B02208DE202001A
:10DFBC0057E902000EDD02005EE2020070B5164B5E
:10DFCC000C461D7806462B460021144A0F2B1DDDEE
:10DFDC00134951F8040BFFF743FE2A4621463046FD
:10DFEC00FFF756FE163015D14FF489730D4A0E49C2
:10DFFC000E480DF03CFF21460D480DF038FFBDE8F2
:10E00C0070404FF4897107480DF077BF9360116130
:10E01C000133DBE770BD00BF864B022090ED00E0C2
:10E02C00680002208DE2020057E902000EDD0200BA
:10E03C0005E20200014B1860704700BF5C7E0220B5
:10E04C00F8B506460D460024064FAC4208DA3B688C
:10E05C0098470A28305504F1010401D00D28F4D159
:10E06C002046F8BD587E0220F8B50E46094F441ED6
:10E07C00C0F101052B199E4201DC3046F8BD6378D6
:10E08C000A2B02D13B680D2098473B6814F8010F0E
:10E09C009847EFE75C7E022008B505210148FFF7A1
:10E0AC00E3FFFEE773E3020038B505464FF0FF319E
:10E0BC000B480DF0EEFE0B4A0B491468C1F10053EE
:10E0CC00254403F580239D422CBF4FF0FF34641888
:10E0DC00034838BF15600DF0D7FE204638BD00BF91
:10E0EC00CC7F02207C0002203C80022038B50D46FB
:10E0FC00044670B90B4940F211230B4A0B480DF042
:10E10C00B6FE0B480DF0B3FE40F2112106480DF09F
:10E11C00F4FE23680C33D3E8AF0F284100F0010064
:10E12C0038BD00BFB0E3020088E302000EDD020040
:10E13C00B6E3020010B5044670B90D4940F2E31382
:10E14C000C4A0D480DF093FE0C480DF090FE40F279
:10E15C00E31108480DF0D1FE23680C33D3E8EF2F00
:10E16C0042F00102C3E8E12F0029F7D110BD00BF36
:10E17C00B0E3020088E302000EDD0200B6E3020009
:10E18C0038B500210546FFF7B1FF28B92B682846A2
:10E19C009B7E1BB1FFF7CEFF002023E00DF04FFF5D
:10E1AC00C0B92B681B6973B90F4940F68F530F4ADE
:10E1BC000F480DF05CFE0F480DF059FE40F68F51E4
:10E1CC000A480DF09AFE2846FFF7B4FF28460DF0DA
:10E1DC003BFFE1E78368002BE3D0012128469847F9
:10E1EC000028DEDA38BD00BFB9E30200EAE3020022
:10E1FC000EDD0200B6E3020038B5074C074DAC4209
:10E20C0000D138BD23681B685B681BB11B680BB160
:10E21C00204698472034F2E700800220208002201C
:10E22C0038B5074C074DAC4200D138BD0321204610
:10E23C00FFF75CFF10B92046FFF7A2FF2034F2E78E
:10E24C00008002202080022070B5164684680D469E
:10E25C0061B922491C23224A22480DF008FE2248AB
:10E26C000DF005FE1C211E480DF047FE6B6863B9CE
:10E27C001E491D231A4A1B480DF0F9FD1C480DF0D0
:10E28C00F6FD1D2116480DF038FE23685BB1002207
:10E29C009D4213D12B685AB962682360954200D114
:10E2AC00636000232B6076B9002070BD0B46EFE74E
:10E2BC00136063689D4208BF6260F2E719681A46F2
:10E2CC000029F3D13EB123682B60606825600028DB
:10E2DC00EAD16560E9E76FF01500E6E75AE4020061
:10E2EC002DE402000EDD020063E4020072E4020081
:10E2FC0084E4020008B5034A034B40F2FF110348C3
:10E30C000CF022FB14E40200D3E40200E1E402006E
:10E31C001F2808B501D9FFF7EDFF064A02EB800074
:10E32C00D0F8003223F4403343EA0143C0F8003202
:10E33C0008BD00BF0025844008B5094B1A786AB99E
:10E34C000121312019700521FFF7FCF93120FFF76D
:10E35C00E9F94FF00042034BC3F80423002008BD39
:10E36C00874B0220001003402DE9F041036801F0B7
:10E37C001F049B680D461B794B4E44EA4314002343
:10E38C00D6F804238768D2B203F5A27156F821108F
:10E39C00C1F304218C426CD122FA03F1C90768D570
:10E3AC009A0002F1804202F54432D2F8101521F0A5
:10E3BC000101C2F81015012202FA03F3C6F8083362
:10E3CC0020460021FFF7A4FFB868E84010F00100D8
:10E3DC004DD0F868E84010F0010048D07869E8406A
:10E3EC0010F0010851D0BB69EB40DB0745D43B6909
:10E3FC00FA69EB4022FA05F503F0010305F001057B
:10E40C00AB4214BF01250225002101F5A27356F879
:10E41C00230010F0030032D18B0003F1804303F58D
:10E42C004433D3F81025240222F4473222F44072EC
:10E43C00C3F81025D3F8102504F4F85444EA054524
:10E44C00154301F14002920092B202F1804202F5B2
:10E45C004432C3F810551060D3F8102542F0010275
:10E46C00C3F81025012303FA01F1C6F80413BDE823
:10E47C00F0810133082B87D1A2E70325C4E70131D2
:10E48C000829C2D16FF01200F1E73B69FA69204606
:10E49C00534023FA05F515F0010F0CBF032102219F
:10E4AC00FFF736FF4046E2E7001003402DE9F74F37
:10E4BC008046856803F47040B0F5804F1E4640D00E
:10E4CC0009DCB0F5805F3ED0B0F5405F3DD090B137
:10E4DC006FF0150032E0B0F5E04F38D004DCB0F549
:10E4EC00A04FF5D1032006E0B0F5404F31D0B0F588
:10E4FC00504FEDD1072006F44077B7F5807F2AD036
:10E50C00A7F5007463426341012919BFD4B2A14637
:10E51C004FF01F0900244FF0010B06F0010C4FEADD
:10E52C004C0747EA0C0747EA0020DFF8A8A040EAAE
:10E53C00830706F00203A1450FD2002003B0BDE80B
:10E54C00F08F0220D7E70120D5E70420D3E7052080
:10E55C00D1E70620CFE70323D6E7D8F8002092684E
:10E56C00117904F01F0242EA41121F2A01DDFFF764
:10E57C00C1FE80324AF82270A9680BFA04F2002B13
:10E58C0025D01143A9606969B0064CBF1143914372
:10E59C006961A96970064CBF11439143A96129694E
:10E5AC0070074CBF114391432961E96930064CBF98
:10E5BC000A4321EA0202EA61214640460193FFF731
:10E5CC00D3FE0028BAD10134E4B2019BB3E721EAAF
:10E5DC000201D7E7002584402DE9F84F564B1E6801
:10E5EC009846002E5ED001274FF0000A534A9368DC
:10E5FC001268DC69D2F80890D3E902251540D3E9FA
:10E60C0005210A4325EA0205D9F800201B69126985
:10E61C005C40544025EA04049DBBC8F8005000231C
:10E62C0001201F464649474DD1F8042300FA03FC4C
:10E63C001CEA020F0DD055F8232052B103F5A2723B
:10E64C0051F8222045F82370C2F3042200FA02F29A
:10E65C0014430133082BE7D134BB86B101274FF0AB
:10E66C000008364B9D681B689E68D5E902341C4037
:10E67C00D5E90532134324EA0304002C42D1BDE84A
:10E68C00F88F3D420AD099F804300AF01F0000219F
:10E69C0040EA4310FFF73CFE25EA07050AF1010AA0
:10E6AC007F00B9E73446BAE7244BD3F80890D9F881
:10E6BC000050002DD1D098462F68DFF894A0DFF8D9
:10E6CC0094B0D9F80C30AA682340134215D06B686B
:10E6DC0073B959464FF4D27352461B480DF0C7FB21
:10E6EC001A480DF0C4FB4FF4D27150460DF005FCE6
:10E6FC006B682246294640469847002FADD03D46D0
:10E70C003F68DEE7274213D02B69EA6996F804C00C
:10E71C00534023FA08F313F0010F08F01F000CBF4D
:10E72C000321022140EA4C10FFF7F2FD24EA070412
:10E73C0008F101087F00A0E77C110340687F0220EC
:10E74C0000100340001103400EDD020084E40200BF
:10E75C009BE40200C7E40200024B0B600123136030
:10E76C00704700BFA000022070B50D4614460EF095
:10E77C0037FA2146064628460DF0E9FCF0B1B5FB08
:10E78C00F6F306FB1353CBB9B4FBF6F006FB1040C3
:10E79C00A0B9A64211D84FF0FF310A480AF096FFF3
:10E7AC000EF01EFA0646284609F06AF9A41B3544F9
:10E7BC00F9D104480AF040FF204670BD6FF01500F7
:10E7CC00FBE700BFA800022010B501220648114645
:10E7DC000EF08BFA0EF007FA044C20600EF000FAE3
:10E7EC006060002010BD00BFA8000220A000022025
:10E7FC00F8B50E461946304617461C460DF0A7FCD8
:10E80C00F8B146EA040515F003051AD1E4B14FF04E
:10E81C00FF310E480AF05AFF24F00304A54206EB20
:10E82C00050009D10A4AD2F80034DB07FBD50748AA
:10E83C000AF002FF0020F8BD795909F04DF90435B2
:10E84C00ECE76FF01500F6E72046F4E7A80002208D
:10E85C0000900340F0B54B79012B29D0032B24D128
:10E86C0010268B79032B20D1CC792CB1012C1CD107
:10E87C0003689B681B79C3B10A7912B1022A14D1BF
:10E88C000E2247F6122705680B68AD68BB422D684F
:10E89C0062D029D8B3F5965F61D014D8B3F5167F42
:10E8AC005FD007D8B3F5967F5ED06FF0850052E04D
:10E8BC000026D6E7B3F5966F59D0B3F5166FF4D1A1
:10E8CC004FF41D233CE0B3F5615F53D004D8B3F58E
:10E8DC00165FEAD1324B33E0B3F5964F4CD0B3F51B
:10E8EC00E14FE2D12F4B2BE0B3F5E13F46D012D8EC
:10E8FC004DF6C027BB4244D005D8B3F5164FD4D142
:10E90C004FF41D031CE0B3F5614F3DD0B3F5963FBA
:10E91C00CBD1254B14E0B3F5E12F38D008D8B3F5A3
:10E92C00613F37D0214FBB42BFD14FF0806307E02E
:10E93C00B3F5612F31D01E4FBB42B6D14FF080538F
:10E94C00C5F8243534438368224303C9C5F86C25C4
:10E95C0083E803000020F0BD4FF40003F0E7154BF3
:10E96C00EEE74FF41C33EBE74FF4A033E8E74FF43A
:10E97C009E23E5E7104BE3E7104BE1E74FF0EB7319
:10E98C00DEE74FF46503DBE74FF46B03D8E74FF09A
:10E99C00E863D5E74FF06C73D2E74FF07063CFE7C5
:10E9AC000050270000C0750000903A0190D0030081
:10E9BC0040420F0000B0130000F03A0000A04E00DF
:10E9CC0070B50646002201210820FEF7BBFE082088
:10E9DC00FEF7A8FE4FF000523368B5689B68032120
:10E9EC001C681A4B1D209A600022C3F87412C3F8DD
:10E9FC007022C4F80C051C20C4F814054FF00060FC
:10EA0C009860C3F86C12C3F868221B23C4F808354D
:10EA1C001A232946C4F810353046FFF71BFFA0B95E
:10EA2C000823C4F8003505F10C03C4F81001C4F830
:10EA3C0034350123AA68C4F8383592682360C4F8C9
:10EA4C004425C4F84805A360E36070BD00258440EC
:10EA5C0037B50D46144648B9104911481E23114AC2
:10EA6C000DF005FA1E210F480DF047FA4DB90E496D
:10EA7C000B481F230B4A0DF0FAF91F2109480DF022
:10EA8C003CFA01AA21462846F9F7ACFA019B9C42B4
:10EA9C0018BF6FF0150003B030BD00BF57E5020082
:10EAAC000EDD020027E502006AE50200002208B52F
:10EABC0011462A20FEF746FE02F0A8FE014B186014
:10EACC00002008BDC000022070B50D4B0D4C1A681B
:10EADC000A2500262346196881420ED051B1596887
:10EAEC00511AB142C4BF1C460E46013D03F1080346
:10EAFC00F1D12346013A18605A60184670BD00BF28
:10EB0C00C4000220D0000220684620F007018D4688
:10EB1C0019B50D4BD3E8EF2F0132C3E8E12F0029D3
:10EB2C00F8D107F02BF8094B1C683CB9FEF73CFEFA
:10EB3C00FEF724FDBDE8194085467047201D0AF0FC
:10EB4C007BFD2468F1E700BFC4000220C80002204E
:10EB5C002DE9F04F884689B00EF052F9D8F8003004
:10EB6C000646002B0F4603D10AF0B4FC3C206EE0A5
:10EB7C00BCBF4FF0FF33C8F800300122002102A8BF
:10EB8C000EF0B3F80DF1040A4FF02003EFF3118BE4
:10EB9C0083F31188BFF36F8F0AF048FDFFF794FFE2
:10EBAC00334943680A68894693424FF0000308D101
:10EBBC000193304B5A68002A4CD1C3E900AA0123B7
:10EBCC0000E042608BF31188BFF36F8F002B3DD0B8
:10EBDC00D8F8001002A80AF079FD4FF02003EFF3EB
:10EBEC00118B83F31188BFF36F8F0020214B1A68B0
:10EBFC0052B1524539D1019988BB5868196090427D
:10EC0C0000D15960002301930AF010FDFFF75CFF5F
:10EC1C00D9F8003043608BF31188BFF36F8FD8F8AD
:10EC2C000090B9F1FF3F11D00EF0EAF816EB090293
:10EC3C0047EBE973141A63EB0105002C75F1000323
:10EC4C00B8BF0024C8F80040002C8FD0002009B0B9
:10EC5C00BDE8F08FC2F800A0C3F804A0AFE70160D4
:10EC6C005968914208BF5860CCE710461268BFE75C
:10EC7C00C4000220C80002202D2810B5044600F064
:10EC8C00998041DC162809D029DC082806D009DC3B
:10EC9C00022803D0052801D001280CD10DF0C6F9AB
:10ECAC00046010BD0C28F9D001DC0928F5E70D280B
:10ECBC00F4D00E2865D04FF4A5735C4A5C495D48CE
:10ECCC000DF0D5F821465C480DF0D1F84FF4A57144
:10ECDC0056480DF012F90DF0A9F9584B54E02828BC
:10ECEC0000F09F8005DC232850D0252852D018280E
:10ECFC00D3E72A2856D051DB2B2857D02C28DAD131
:10ED0C000DF094F97C233FE03C286BD01DDC3328BC
:10ED1C005CD009DC302851D0322853D02F28CAD1EE
:10ED2C000DF084F96A232FE0362853D005DC342803
:10ED3C00C1D10DF07BF97E2326E038284ED039283E
:10ED4C00B9D10DF073F980231EE07D2856D00CDC70
:10ED5C0070284BD001DC69289FE772284AD07328B1
:10ED6C00A9D10DF063F977230EE07F284FD049DB52
:10ED7C00802851D081289ED10DF058F940F2D473DF
:10ED8C0002E00DF053F90E2303608AE70DF04EF903
:10ED9C000B23F9E70DF04AF92123F5E70DF046F9BD
:10EDAC006B23F1E70DF042F96D23EDE70DF03EF921
:10EDBC007B23E9E70DF03AF95F23E5E70DF036F92F
:10EDCC007023E1E70DF032F97323DDE70DF02EF936
:10EDDC007223D9E70DF02AF96823D5E70DF026F94F
:10EDEC007F23D1E70DF022F97423CDE70DF01EF946
:10EDFC007523C9E70DF01AF97823C5E70DF016F95C
:10EE0C008C23C1E70DF012F940F2D173BCE70DF081
:10EE1C000DF940F2D273B7E70DF008F940F2D37355
:10EE2C00B2E70DF003F97A23AEE700BF8AE50200E2
:10EE3C0057E902000EDD0200AEE50200ADBAADBA34
:10EE4C004FF08052014BC3F80021704700E100E005
:10EE5C004FF08052014BC3F88021704700E100E075
:10EE6C004FF00052014BC3F80021704700E100E065
:10EE7C004FF00052014BC3F88021704700E100E0D5
:10EE8C0008B50023074AC2E90033074AD2E8EF1F4E
:10EE9C00C2E8E03F0028F9D10DF0A4FABDE8084023
:10EEAC000DF095BAC8000220C4000220B0F58D7F89
:10EEBC003CD004DC012844D04FF0FF30704740F2C6
:10EECC000223984252D040F203239842F4D10139E4
:10EEDC001329F1D801A353F821F000BF85EF0100ED
:10EEEC0049EF010069EF01005BEF01006DEF0100DC
:10EEFC0071EF010075EF0100C5EE0100C5EE0100D8
:10EF0C00C5EE0100C5EE0100C5EE0100C5EE010025
:10EF1C00C5EE0100C5EE0100C5EE0100C5EE010015
:10EF2C00C5EE0100C5EE01005FEF010001390529B6
:10EF3C00C2D8DFE801F0031517190C210223136066
:10EF4C000AE0142905D0192905D00429B4D10423C9
:10EF5C00F5E71423F3E71160002070470323EEE775
:10EF6C000523ECE70623EAE70723E8E70229E5D0C7
:10EF7C000329F3D001299FD10123E0E70122034BA0
:10EF8C001860036802489A76FDF7B6BF200102208C
:10EF9C00D4D702002DE9F8430746884600240F4ECB
:10EFAC000F4D27FA04F328FA04F21A43D20705D4BA
:10EFBC000134042CF5D10020BDE8F88305EBC40224
:10EFCC0056F824001279416803F00103D1F804903B
:10EFDC000021C8470028EBD0EEE700BF90010220CB
:10EFEC0044D80200F8B54FF02003EFF3118683F3F9
:10EFFC001188BFF36F8F2A480AF01CFC68B94A23AA
:10F00C00284A294929480CF032FF254928480CF098
:10F01C002EFF4A2123480CF070FF21480AF028FCEF
:10F02C000024244D244F07EBC40355F8040B1A7924
:10F03C0043685B6933B3002198470134062C01D037
:10F04C000028F0D01D4B1A78FAB901221C491D4832
:10F05C001A700AF06FFD12480AF0FAFB68B95D23CA
:10F06C00104A194911480CF002FF0D4917480CF0D1
:10F07C00FEFE5D210B480CF040FF86F31188BFF3B8
:10F08C006F8FF8BD6FF08500D7E7F423104A114954
:10F09C0006480CF0ECFEF4210D480CF02EFFDAE7DC
:10F0AC00A0010220C1DE0200E7DE02000EDD02003C
:10F0BC00FCDE02002401022014D80200A84B02201E
:10F0CC005C0102209C4A022014DF02002BDF0200AC
:10F0DC00E2E5020057E902002DE9F3470024564F00
:10F0EC00DFF89C913E462546C84609EBC50356F809
:10F0FC00040B1A7943680021D3F808A001ABD04760
:10F10C0070B300244D4BD3E8EF2FC3E8E14F002937
:10F11C00F9D14B4BDFF86C911A78002A32D1D9F81F
:10F12C000060A64211D0474B66401B6813B13146B4
:10F13C00204698474FF0FF31434808F055FF434BAA
:10F14C001D68B5B9404809F02DF8C9F80040E4B184
:10F15C000A223F493F480AF0EDFC02B0BDE8F087B7
:10F16C00019B13B90123AB401C430135062DBCD1C7
:10F17C00C8E7043D002DE5D02B6831462046984762
:10F18C006D68DEE700221A70DFE74FF02003EFF323
:10F19C00118583F31188BFF36F8F2F480AF04AFB58
:10F1AC0068B94A232D4A2E492E480CF060FE2A4994
:10F1BC002D480CF05CFE4A2128480CF09EFE264897
:10F1CC000AF056FB294B1A78012A2AD100221A7010
:10F1DC0008EBC40357F8040B1A7943681B69EBB1AD
:10F1EC00002198470134062C01D00028F0D01A4891
:10F1FC000AF02EFB68B95D23184A1D4919480CF01A
:10F20C0036FE15491B480CF032FE5D2113480CF0FC
:10F21C0074FE85F31188BFF36F8F9EE76FF0850046
:10F22C00E0E7AA23144A15490E480CF020FEAA2147
:10F23C0011480CF062FEDAE724010220A40102203E
:10F24C00F87E02203C0102204001022054010220E1
:10F25C005C0102209C4A0220A0010220C1DE0200B7
:10F26C00E7DE02000EDD0200FCDE0200A84B0220ED
:10F27C0014DF02002BDF0200E2E5020057E9020076
:10F28C0014D8020088010220F8B500250E4C0F4E50
:10F29C00206808F05DFC46F8040B88B122794368BD
:10F2AC0000211F680123B847034658B90135042DC6
:10F2BC0004F10804ECD1BDE8F8400F21FFF76ABE59
:10F2CC006FF012031846F8BD44D8020090010220DA
:10F2DC00054BD3E8AF3F00B10360044811B102689D
:10F2EC005A400A6003607047A40102208C0102207E
:10F2FC002DE9F84F3F4B18603F4D404F40480DF003
:10F30C008FFCB9460026A846286808F021FC49F86D
:10F31C00040B00286AD02A79436800211C684FF43A
:10F32C008073A0470446B8B90136062E05F10805CE
:10F33C00EAD10546314E08EBC50356F8040B1A7991
:10F34C00436800211C684FF48173A0470135062DDA
:10F35C00044604D00028EED02046BDE8F88F0028E3
:10F36C00FAD1054681464FF0010BDFF890A008EB6F
:10F37C00C5035AF8040B1E7943685B6913B96FF027
:10F38C008504E9E732460021984704460028E3D17A
:10F39C0001350BFA06F6062D49EA0609E7D10646B1
:10F3AC00184D194BC5E9013957F8040B4368DB6854
:10F3BC00002BE4D001222946984704460028CBD1E3
:10F3CC000136062EF0D1114911480DF011FD012224
:10F3DC00104B0F491A70104822460AF0ABFB04463A
:10F3EC000028B9D10146FFF773FFB5E76FF012049F
:10F3FC00B2E700BF3C01022014D802002401022015
:10F40C00400102207C010220F1EF0100E5F0010037
:10F41C005C010220A84B02209C4A02202DE9F043FB
:10F42C000025214C214E54F8048CDFF8889085B0CF
:10F43C00A84503D8002005B0BDE8F083636A96E8C0
:10F44C0007001F6801AB83E807000C2219463846F9
:10F45C000DF05AFD90B98FB1636A21691B681A6966
:10F46C0091420BD19A69A169914207D8E169914205
:10F47C0004D962695B6932EA03030AD0276A67B16F
:10F48C000B480CF0F4FC404080F311884FF0040062
:10F49C0002DFE36801351C44CAE748460CF0E7FC80
:10F4AC00636A1F60F5E700BF3CC40100B0D60200E0
:10F4BC0020E6020049E6020020B150F8081B090CB6
:10F4CC0000F052B8704700BF014806F0D1BB00BF36
:10F4DC0064D80200002310B582B0019361B970B1F9
:10F4EC00044601AA092006F0FBFD18B9019B0BB1DB
:10F4FC000833236002B010BD0F2002B010BD0E20E7
:10F50C0002B010BD01F47043B3F5E04F0BD160B104
:10F51C00034630F8082C092042EA014143F8081D43
:10F52C00194606F0C5BD0F2070470E20704700BF6E
:10F53C0020B1A0F10801092006F004BE0E2070478E
:10F54C0018B10146092006F00FBF0E20704700BF0E
:10F55C0010B504460068FFF7F3FFA06818B1BDE8CA
:10F56C00104001F035B910BD30B53B4B85B01D686E
:10F57C00002D4CD048F20203994253D01CD948F2CA
:10F58C00030399425AD049F20103994247D100240E
:10F59C0043680268CDE90244CDE90023E869694675
:10F5AC0003685B68984701304ED020462B6843F4C3
:10F5BC0080332B6005B030BD48F2010399422ED147
:10F5CC00C368002B35D1286810F480003ED02B681E
:10F5DC009BB2012B05D12B681B0C1B0443F00203BF
:10F5EC002B601E4B1A7802F0FF01002A31D01C4A06
:10F5FC00117809B901211170002018702B6823F4BF
:10F60C0080032B602B6843F400032B60D2E7006867
:10F61C000028CFD0FFF794FF284605B030BD00205E
:10F62C0005B030BD2B6813F480030BD0C0680028E4
:10F63C00E4D00E2300206B6005B030BDC368012BF5
:10F64C00A5D1F6E71846B5E70220B3E70E236B60A9
:10F65C00B0E7034A1170CFE7AC010220A94B02209E
:10F66C00AA4B0220002310B50749084A084C094848
:10F67C00237003600B701360FFF726FF003018BF78
:10F68C000120404210BD00BFA94B0220A80102205E
:10F69C00AA4B0220AC01022000232DE9F04766287A
:10F6AC0082B0009372D1022989466FD140F20523B2
:10F6BC009A4292466AD1484F3D68002D7CD18046D3
:10F6CC00464A684606F072F8009B0646002B7DD031
:10F6DC002946042242483B600DF031FC009C29462F
:10F6EC00C4E90389C4F814A001A8FFF7F3FE0028AD
:10F6FC003CD101220421019B3A4D58739873D87365
:10F70C0058729872D87219722A701A732268184635
:10F71C0042F48002226047F20101FFF7F3FE38BB8E
:10F72C004FF400024FF0FF331146304606F0F0F86C
:10F73C00044610B3009A002E136843F40033136090
:10F74C00009A136823F480031360009A136823F45F
:10F75C000003136036DA002320463B604FF0FF367F
:10F76C00FFF78AFA304602B0BDE8F0870C24E1E7D7
:10F77C000198FFF7DDFE0524DCE7304606F03CF986
:10F78C0050B1446844B100234360D3E71620FFF71F
:10F79C0073FA4FF0FF36E5E7009A136843F4003331
:10F7AC001360009A136823F480031360009A1368A3
:10F7BC0023F400031360D5E70120FFF75DFA4FF047
:10F7CC00FF36CFE7304606F055F8C4E71820FFF7B0
:10F7DC0053FA4FF0FF36C5E7AC0102205DF501008E
:10F7EC00A8010220A94B02202DE9F04385B0002985
:10F7FC0068D0002A174665DD1D4680460E4606F089
:10F80C00FBF80446002863D04DBBE069AA070368E7
:10F81C00DB682DD59847013044D02368E06913F498
:10F82C00803341D0002123682A4623F4803323609F
:10F83C00CDE90211CDE90067036869469B689847DA
:10F84C000546E0690368DB689847013003D02368FC
:10F85C0043F480332360284605B0BDE8F08315F0EF
:10F86C000A0FD2D12D20FFF707FA4FF0FF35F2E740
:10F87C00226812F08059CDD19847431CCDD14FF45A
:10F88C008032236A1146002B08BF0346404606F01F
:10F89C003FF858B14FF0FF35FFF7EEF9284605B0A9
:10F8AC00BDE8F0832320F5E71D46CBE7404606F084
:10F8BC00A3F803460028B0D040680028ADD0C3F8A8
:10F8CC000490E7E71620FFF7D7F94FF0FF35C2E7B2
:10F8DC000920FFF7D1F94FF0FF35BCE72DE9F041D6
:10F8EC0082B000295ED0042A5CD11E4607460D4624
:10F8FC0006F082F80446002870D0E6B1B00767D550
:10F90C0023689B0360D500262368002123F4003371
:10F91C00236001A8D5F80080FFF7DCFD98B10C201E
:10F92C00236843F400332360FFF7A6F94FF0FF3050
:10F93C0002B0BDE8F0810368D900E1D403689A03F2
:10F94C0044D50126E0E70425019B47F20301C3F8E7
:10F95C000C8058729872D8721D721846FFF7D2FD3F
:10F96C008046B0B93EB92846236843F4003323607F
:10F97C0002B0BDE8F0814FF480324FF0FF331146F6
:10F98C00384605F0C5FF98B1236843F40033236073
:10F99C00CAE70198FFF7CCFD2368052043F4003338
:10F9AC002360C1E71620FFF767F94FF0FF30BFE780
:10F9BC00384606F021F803460028D4D040680028C9
:10F9CC00D1D0C3F80480DFE77320ADE70920ABE7A3
:10F9DC002D20FFF751F94FF0FF30A9E70920FFF771
:10F9EC004BF94FF0FF30A3E7F0B5012985B068D093
:10F9FC001E4640F20523994240F095800746154675
:10FA0C0005F0FAFF0446002800F0B280012D19D051
:10FA1C00022D10D02A25036823F480032360236869
:10FA2C00284623F400032360FFF726F94FF0FF3537
:10FA3C00284605B0F0BD16B10A9B012B49D02368AE
:10FA4C001625E9E7002EFAD00A9B042BF7D10021EA
:10FA5C0003A8FFF73FFD054600286AD1039808224A
:10FA6C0029460C300DF06BFA039831460A9A0C308B
:10FA7C000DF058FA0823039847F2020103724572FD
:10FA8C008572C572236843F480032360FFF73AFD47
:10FA9C00002851D14FF400024FF0FF331146384685
:10FAAC0005F036FF054600283BD1384605F0A4FF8B
:10FABC0000284FD04368002B4CD000221D464260DA
:10FACC002FE00A9C009405F0BFFF0546284605B0C0
:10FADC00F0BD002103A83578FFF7FCFC48BB012DD5
:10FAEC0008BF264B4FF0040208BF1D70002303987B
:10FAFC0047F201014372C5608372C37202722368BC
:10FB0C0043F480032360FFF7FDFC0646A0B94FF4D5
:10FB1C0000024FF0FF331146384605F0F9FE05465A
:10FB2C0080B1236878E72A20FFF7A6F84FF0FF355D
:10FB3C007EE723680C256FE70398FFF7F9FC052592
:10FB4C00236869E7384605F057FF40B1456835B181
:10FB5C004660E6E73146042209480DF0E3F92368D4
:10FB6C0023F480032360236823F4000323605FE7FE
:10FB7C000920FFF781F84FF0FF3559E7A94B022018
:10FB8C00A8010220F0B5012983B0089E30D01F4691
:10FB9C0040F20523994234D1154605F02DFF00287B
:10FBAC0037D0012D15D0022D0BD187B3336873B329
:10FBBC000023012218461A4909783970326003B0C3
:10FBCC00F0BD0920FFF758F84FF0FF33184603B08B
:10FBDC00F0BDE7B13368032B19D93846042211491B
:10FBEC000DF0A0F9002304221846326003B0F0BDDA
:10FBFC00009605F06BFF03460028E3D1184603B0CE
:10FC0C00F0BD2A20FFF738F84FF0FF33DEE716205F
:10FC1C00D8E70920FFF730F84FF0FF33D6E700BFE5
:10FC2C00AA4B0220A801022010B5044605F0E4FE00
:10FC3C0038B1204605F01EFE0023054A1846136015
:10FC4C0010BD0920FFF718F84FF0FF3010BD00BFB2
:10FC5C00AC010220006804F0F1B900BF2DE9F041BD
:10FC6C0082B0089C002C5BD10F4615469846064680
:10FC7C0005F0C2FE0446B8F1000F2BD1002855D078
:10FC8C0003689B0352D50368294623F400330360B1
:10FC9C00036801A843F40013236004F0A5F908BB22
:10FCAC000422019B1A7258729872D872DE60FDB9E8
:10FCBC001846012104F0ACF948BB4FF40032304631
:10FCCC0011464FF0FF3305F023FE60B9284602B011
:10FCDC00BDE8F08160B303682D20FEF7CDFF4FF037
:10FCEC00FF30F4E70C20236843F400332360F4E77F
:10FCFC00394618682A460DF015F90121019804F0CF
:10FD0C0087F90028D9D0019B186804F097F901985D
:10FD1C0004F08CF92368232043F400332360DCE7E0
:10FD2C003820FEF7A9FF4FF0FF30D0E71620D4E7BC
:10FD3C002D20D2E704F052B92DE9F041002682B013
:10FD4C00022900963ED1804617466846204A0C464A
:10FD5C0005F02CFD009B05460BB3C3E903845F61E2
:10FD6C00314601A804F040F950BB0422019B052147
:10FD7C0058729872D8721A72DD60184604F048F9FD
:10FD8C0088B9224621464FF0FF33284605F0C0FDC6
:10FD9C00044660B9009A136843F400331360284694
:10FDAC0002B0BDE8F081019804F040F92324284604
:10FDBC0005F060FD2046FEF75FFF4FF0FF35EEE7E4
:10FDCC000C24F4E72920FEF757FF4FF0FF35E6E748
:10FDDC0061FC0100F0B583B0064605F00DFE00286D
:10FDEC003DD00D2307680360036804469B031FD4B2
:10FDFC00002101A804F0F8F820BB0422019B062185
:10FE0C0058729872D8721A72DE60184604F000F9B3
:10FE1C00D0B90E224FF0FF331146304605F078FD75
:10FE2C000546A8B9304605F025FD284603B0F0BDBF
:10FE3C000368002123F40033036001A804F0D4F814
:10FE4C000028DAD00C2503E0019804F0EFF8232504
:10FE5C0027602846FEF710FF4FF0FF35E5E7162523
:10FE6C00F7E700BF2DE9F04184B0884615461E46E1
:10FE7C00074605F0C1FD002843D000230446CDE918
:10FE8C000085CDE902332EBB16F002050DD028E01B
:10FE9C00CDB94FF48032236A1146002B08BF4FF0C6
:10FEAC00FF33384605F034FD05462368E06923F43A
:10FEBC0080332360036832469B6869469847B0F1EB
:10FECC000008E5DB15B12846FEF7D6FE404604B027
:10FEDC00BDE8F08116F00A0FD6D12D254FF0FF3872
:10FEEC00F1E72368E06923F480332360036832462A
:10FEFC009B6869469847B0F1FF3F8046E6D12325C1
:10FF0C00E1E716254FF0FF38DDE700BF05F0DEBD59
:10FF1C0005F09ABD70B5064684B0C0680D4605F074
:10FF2C006BFD044648B303689BB2012B1FD00368DA
:10FF3C009BB20D2B29D003689BB2022B2DD0033D15
:10FF4C00012D17D8002573683268CDE90255CDE92B
:10FF5C000023E069694603685B689847013019D053
:10FF6C002846236843F48033236004B070BD022D0F
:10FF7C00E5D10560002004B070BD30680028F9D0D0
:10FF8C0004F05CF8204604B070BD022DD7D10E23CE
:10FF9C000360EFE7022004B070BD03689B02CED56E
:10FFAC00022DCCD1036823F400130360036843F4DF
:10FFBC0000330360DEE700BF50F8081B090C01F0AA
:10FFCC0025B900BF014805F053BE00BF74D802002C
:10FFDC00002310B582B0019358B1044601AA062043
:10FFEC0006F07EF818B9019B0BB10833236002B000
:04FFFC0010BD07200D
:020000022000DC
:1000000002B010BD11F4704F0BD160B1034630F84F
:10001000082C062042EA014143F8081D194606F063
:100020004DB80F2070470720704700BF20B1A0F1E6
:100030000801062006F08CB80720704718B1014669
:10004000062006F097B90720704700BF2DE9F04F52
:10005000DFF8CCC083B000900CF13C0BDCF808302A
:100060002BB1DCF80020009C1078A04206D00CF1E7
:100070000C0CE345F2D103B0BDE8F08FDCF804A02E
:1000800003EB0A08C245F2D25368CDF804C0D64645
:100090009C46D2F810909789AEEB0A00DFB3B9F80E
:1000A000022090421CD36546002409F1040303E0BA
:1000B0005A880433824215D833F8046C0134A742BD
:1000C00002FB0655A0EB02001E46F1D10020814242
:1000D0000DD00EF1010EF045DED1DDF804C0C6E70B
:1000E00065464E46338800FB03508142F1D1BEF590
:1000F000007FDDF804C0BAD00123084A4FEA5E1140
:1001000052F821000EF01F0E03FA0EFE4EEA000018
:1001100042F82100AFE73846D9E700BFB00102201E
:10012000F4010220002850D06D4BD3F88820904273
:100130004BD82DE9F04FD3F88CB083B0BBF1000F52
:1001400054D00BF1FF32914600264FF01208654F54
:1001500001920BF1110E06EB090253F838400132FF
:10016000520804EB440C02F1120153F8315057F8D5
:100170002CA053F83E4003EBC80CDCF804C005EBA0
:10018000450504EB4404DAF810A057F8255057F859
:1001900024403AF82CA003EBC10103EBCE0C4968D4
:1001A0002D692469DCF804C0504535F8215034F835
:1001B0002C1015D9884211D2A84208D9561CB14535
:1001C000C0F0878002F11308C5E70020704702F1F4
:1001D000FF394E457DD802F1110EBCE709F1010649
:1001E000B34507D0102E01D0B34508D8002003B086
:1001F000BDE8F08F019A102A18BF1646F6D0DFF836
:10020000E8C003EBC608D8E9242402EB420257F801
:10021000223007EB8202D2F804E01D69002C56D090
:100220002A467046A40005EB040951880432914522
:100230000844FAD12919B1F802A08244824518D99C
:1002400041095CF8212000F01F0422FA04F919F09A
:10025000010F07D013E05CF8212022FA04F919F00D
:10026000010F0CD1013082454FEA501100F01F04FC
:10027000F1D101365E4508F10808C4D3B6E701267E
:1002800006FA04F49E8922EA0402A0EB0E004CF860
:1002900021205C68002EA9D06A88824211D80021F2
:1002A0002B1D03E05A88043382420AD833F8045CD9
:1002B00001318E4202FB0544A0EB02001D46F1D144
:1002C00094E72B8800FB034003B0BDE8F08F704635
:1002D000B0E7BBF1100F08BF0F2690D086E700BF34
:1002E00030020220F4010220B001022000284CD08C
:1002F0006B4B1A68904248D82DE9F04F5F6883B085
:100300000097002F51D07A1E964600214FF0010C25
:10031000644C019201EB0E02013253F83C5052083A
:1003200002F1010805EB450553F8379054F825A074
:1003300053F8386009EB490503EBCC09D9F8049070
:1003400006EB4606DAF810A054F8266054F825505B
:100350003AF829A003EBC80B03EBC7093669DBF8B1
:1003600004B02D69D9F80490504536F82B6035F863
:10037000295013D9A84210D2B04208D9C6454146E7
:10038000C0F0878008F1010CC4E70020704702F13B
:10039000FF3E71457DD81746BCE73946009A8A4230
:1003A00007D0102901D08A4208D8002003B0BDE848
:1003B000F08F019A102A18BF1146F6D0DFF8E8C076
:1003C000DDF8009003EBC108D8E9022602EB4202F7
:1003D00054F8223004EB8202D2F804E01F69002EA8
:1003E00055D03A467046B60007EB060A55880432E7
:1003F00092452844FAD1BD19B5F802B0834483452B
:1004000018D945095CF8252000F01F0622FA06FAE3
:100410001AF0010F07D013E05CF8252022FA06FA43
:100420001AF0010F0CD1013083454FEA501500F04E
:100430001F06F1D10131494508F10808C4D3B4E7DA
:100440000121B1409E8922EA0102A0EB0E004CF886
:1004500025205C68002EA8D07A88824211D800211D
:100460003B1D03E05A88043382420AD833F8045C07
:1004700001318E42A0EB020002FB05441F46F1D180
:1004800093E73B8800FB034003B0BDE8F08F704664
:10049000B1E7009A102A08BF0F218FD085E700BF6F
:1004A00030020220F4010220B001022070B50022C7
:1004B00001253348510950F8214002F01F0305FA85
:1004C00003F301322343B2F5007F40F82130F1D12C
:1004D00000242C4B21463C222B481C600CF035FD9F
:1004E00010210522294B2A4EC3E90044D9605961E5
:1004F000D9615962D9625963D9635964D96459651C
:10050000D9655966D9665967D9679A601A619A613F
:100510001A629A621A639A631A649A641A659A65EF
:100520001A669A661A679A67C3E92021C3E92244CA
:10053000C3E92421C3E92621C3E92821C3E92A21EB
:10054000C3E92C21C3E92E21C3E93021C3E93221BB
:10055000C3E93421C3E93621C3E93821C3E93A218B
:10056000C3E93C21C3E93E21C3F80411C3F80021CB
:10057000C3F80C11C3F808212046357070BD00BFC8
:10058000B0010220F0010220F4010220300202201A
:10059000AB4B02202DE9F04F874B87B01B78002B27
:1005A00000F08C8028B321B30B78DFF8188203EBBE
:1005B000031308EBC3035B68B1F80CC06344102B52
:1005C00011D84FF0000A89467C4B7D4F1B684FEADB
:1005D0008C0E0093B96891B10AF1010ABAF1050FC6
:1005E00007F10C07F6D148F2071B584607B0BDE8E3
:1005F000F08F48F20E1B584607B0BDE8F08FBCF1F3
:10060000000F61D00D460C46D9F810300EEB030BED
:100610005A8833F8046B15449B4502FB0644F7D116
:10062000D9F80830A342D7D3009B2B44B3F5007F01
:10063000D2D2634C0AEB4A029200C0F800A0A01884
:1006400044F80290009A8B46C0E9012599F80120F0
:100650005A48012A0360C8D0B9F80C30002BC4D026
:100660000025CDF80490CDF80CA0CDF814B0019B76
:100670001F781A693B0103EB0709009308EBC903D4
:10068000596832F82540029139BB039ADD609A60BF
:10069000009B3B441F4608EBC3014B6858F83720CA
:1006A000013394424B6012D9019B48F837409B8933
:1006B00001359D42DBD3DDF814B096E748F2081B04
:1006C000584607B0BDE8F08F009B6546AEE7019B3A
:1006D00001359B89AB42CAD8EDE7002601F1FF3A0C
:1006E000049506EB0A0009EB06020132013058F8C6
:1006F00032C04008324D09EB000109EB0A03013119
:1007000001330CEB4C0C58F831E055F82CB058F88C
:1007100033C008EBC2020EEB4E0E0CEB4C0CDBF8B8
:1007200010B0526855F82EE055F82CC008EBC10106
:1007300008EBC3033BF82220DEF810E04968DCF840
:1007400010C05B6894423EF821103CF823302DD94C
:100750009C422DD28C4224D9461CB245C1D21026CF
:10076000049D029AB24211D9009B3B441A4433447F
:1007700008EBC20A08EBC309082251460AEB020043
:10078000AAF1080A0CF0D4FBD145F5D1009B0399DE
:100790003B443344013308EBC30248F8331055603F
:1007A00076E700F1FF3A56459BD9D8E7049DD8E794
:1007B000049D0AF10106D4E7AB4B0220F0010220B0
:1007C000F401022030020220034B1B780BB1FFF72B
:1007D0008DBD1846704700BFAB4B0220044B1B7801
:1007E00023B118B101460020FFF730BC704700BFAD
:1007F000AB4B0220034B1B780BB1FFF793BC1846A1
:10080000704700BFAB4B0220044B1B7823B118B1DB
:1008100001460120FFF71ABC704700BFAB4B022016
:1008200050F8081B090C04F035BD00BF014805F065
:1008300025BA00BF84D80200002310B582B001930E
:1008400058B1044601AA042005F050FC18B9019BD8
:100850000BB10833236002B010BD072002B010BDF9
:1008600001F47043B3F5E04F0BD160B1034630F8AB
:10087000082C042042EA014143F8081D194605F0FE
:100880001DBC0F2070470720704700BF20B1A0F1AA
:100890000801042005F05CBC0720704718B1014630
:1008A000042005F067BD0720704700BF2DE9F04721
:1008B0000C460B68464F23F400330B600B68C600F0
:1008C00023F480130B6007EB060A82B0DAF80430D9
:1008D000896947F281020546D4F8008003F0D2FB13
:1008E00000286FD0DAF804208146002A5FD1394B06
:1008F000711903EB8101242209F114000CF018FB9B
:10090000D9F8083049462433C9F8083022684346EC
:10091000120C120442F00A022260204647F28102C1
:1009200003F0D0FB034670B92368DB000FD44FF00F
:10093000FF334FF6FF720B21284603F0D7FB034627
:1009400050B1C4F80080184602B0BDE8F0877323A8
:10095000184602B0BDE8F0874FF080624FF0FF33D9
:100960001146284603F0C2FB034630BB57F835005A
:1009700038B10193FFF732FF019B3E44736047F8A3
:1009800035301846226822F0806222602268120CFC
:10099000120442F00C022260226842F4003222600B
:1009A000226842F48012226002B0BDE8F08757F856
:1009B000351000680CF0BCFA99E7732BC3D0C4F86B
:1009C0000080C0E70C23184602B0BDE8F08700BFE6
:1009D00084040220400302200020704738B54B1EDB
:1009E000012B08D8144662B101292DD0B2F5877FBA
:1009F00008BF02220DD02920FEF744F94FF0FF3541
:100A000020E001290BBF012202224FF482744FF42F
:100A1000877403F097FB051E1BDB0F4B05EBC5002E
:100A200003EB800024220D490CF082FA284604F0E2
:100A3000E9FF0368446123F480130360036823F42F
:100A400000330360284638BDB2F5827FD3D10A4611
:100A5000DFE74FF0FF35F5E74003022094D80200AE
:100A600038B5044604F0CEFF80B10B4D55F8340084
:100A700038B1FFF7B3FE002305EBC40245F834306C
:100A800053602046BDE8384003F00EBC0920FEF755
:100A9000F9F84FF0FF3038BD840402202DE9F0470B
:100AA0000D46DDE9088916461F46044604F0AAFFF4
:100AB00000283BD003689BB20C2B39D003689BB253
:100AC0000B2B11D1204B04EBC40413F82430022B60
:100AD00038D00369012B14BF39202A20FEF7D2F841
:100AE0004FF0FF30BDE8F0870369012B0BD0022BDC
:100AF00001D03920F2E703689BB2022B07D00368CC
:100B00009BB2042B03D003689BB2052BF1D10E4B93
:100B100004EBC40213F82230022BEAD1014620462E
:100B2000FFF7C4FE002803D0D8DCD9E70920D5E7B9
:100B3000CDE908893B46324629462046BDE8F047C4
:100B400003F022BC2320C9E7400302202DE9F0472F
:100B50000D46DDE9088916461F46044604F052FF9B
:100B6000002838D003689BB20C2B0FD003689BB2CF
:100B70000D2B0BD00369012B1AD0022B10D0232090
:100B8000FEF780F84FF0FF30BDE8F087CDE9088927
:100B90003B46324629462046BDE8F04703F06CBD8F
:100BA00003689BB2022B07D003689BB2042B03D0CF
:100BB00003689BB2052BE2D1084B04EBC40213F887
:100BC0002230022BDBD101462046FFF76FFE0028C2
:100BD000DCD0D5DCD6E70920D2E700BF40030220F5
:100BE0002DE9F84F0C461746064604F00BFF002887
:100BF0006DD0036805469BB2022B5AD121463A4676
:100C0000304603F027FF0446002848D1F700DFF8FC
:100C1000C480BB1918F82330012B02D02046BDE850
:100C2000F88FDFF8B4B047F281020BEB070ADAF86D
:100C30000430A969304603F025FA8146002844D0E3
:100C4000DAF80420002A3AD1B91908EB81012422EC
:100C500009F114000CF06CF9D9F808304946243336
:100C6000C9F808302A680423120C120442F00A0260
:100C70002A60284647F2810203F024FAE8B92B687B
:100C8000DB0018D430464FF0FF334FF6FF720B21D4
:100C900003F02CFA0028C1D0042304462B60002C5A
:100CA000BCDD20464FF0FF34FDF7ECFF2046BDE8E9
:100CB000F88F2D24F5E77324F3E70446EFE75BF89C
:100CC000361000680CF034F9BEE70C24E9E709247B
:100CD000E7E700BF4003022084040220F8B50E4677
:100CE0001746044604F08EFEE8B1134B04EBC40231
:100CF00013F82230022B1CD1036805469BB2022B4D
:100D000003D003689BB2042B13D13A4631462046E8
:100D100003F0E6FD10B1002806DCF8BD29462046A8
:100D2000FFF7C4FDF7E70920FDF7ACFF4FF0FF30F8
:100D3000F8BD2D20F8E700BF400302202DE9F04F59
:100D400083B00191054604F05DFE002879D0036967
:100D50000446012B73D103689BB2042B5FD0236838
:100D60009BB20B2B6BD1EE00374F731917F8233062
:100D7000012B64D10122DFF8D4907319EE0007F83B
:100D8000232009EB0608A169D8F8043047F2810254
:100D90002846D4F800A003F075F9834600284CD00B
:100DA000D8F80420002A42D1711907EB81012422CE
:100DB0000BF114000CF0BCF8DBF808205946243283
:100DC000CBF8082022685346120C120442F00A02A3
:100DD0002260204647F2810203F074F968B9236863
:100DE000DB000FD44FF0FF334FF6FF720B21284684
:100DF00003F07CF970B1C4F800A0002803DC03B054
:100E0000BDE8F08F7320FDF73DFF4FF0FF3003B0DA
:100E1000BDE8F08F0199284603F0BCFEEDE7EE0037
:100E2000094F731917F82330022B98D1A2E759F80C
:100E3000351000680CF07CF8B6E70C20E3E72D20B5
:100E4000E1E70920DFE700BF40030220840402201D
:100E5000F8B50C4616461F46054604F0D3FD00289B
:100E60003BD0006880B2062837D121463B46324647
:100E7000284603F005FF044618B1002C2EDC20465E
:100E8000F8BD284604F0BEFD0368184F23F4003374
:100E90000360036805EBC50523F480130646036071
:100EA00007EB8501242238460CF042F802233B7000
:100EB000336820461B0C1B0443F00B0333604FF6D2
:100EC000FF724FF0FF330C2103F010F904460028A5
:100ED000D5D0002003F0E8F9CFE7092420464FF0F1
:100EE000FF34FDF7CFFE2046F8BD00BF40030220CF
:100EF0002DE9F041B1F58D7F069E1ED11F460546B6
:100F0000002B00F08C80904604F07CFD00287BD004
:100F10000468A4B2022C07D003689BB2042B03D050
:100F200003689BB2052B6FD108F1FF32042A7CD8ED
:100F3000DFE802F0244E32410700BDE8F04103F043
:100F4000D7BF3B4C54F8350038B1FFF747FC0022BF
:100F500004EBC50344F835205A6030464EB3FFF722
:100F600033FC44F83500002857D004EBC504324662
:100F7000394666600BF0DCFF00201AE0042E4AD1EF
:100F80003868002839D0012845D12A4A05EBC50424
:100F900002F8240000200CE0012E3CD13A78002019
:100FA000003218BF0122234B05EBC50403EB840478
:100FB0006270BDE8F081042E2DD13A68022A2AD849
:100FC0001C4B05EBC50403EB8404A2700020F0E782
:100FD0005FEA960C1FD016F003041CD105EBC50583
:100FE000AD00144B281D18442B443246394683F873
:100FF00003C00BF09DFF2046DBE702210D4A05EB05
:10100000C50402F82410D4E70920FDF73BFE4FF099
:10101000FF30BDE8F0811620F7E70C20F5E70E2041
:10102000FDF730FE4FF0FF30C3E72A20EDE700BFA9
:1010300084040220400302202DE9F041B1F58D7FA8
:10104000069F12D11D466BB167B10646144604F0E7
:10105000D9FC00284FD0013C032C52D8DFE804F023
:10106000392115090E20BDE8F081BDE8F04103F0FB
:10107000FBBF3B68042B3CD1234B06EBC60603EBBE
:101080008606B37800202B60EDE73B68012B30D15A
:101090001D4B06EBC60603EB8606737800202B700B
:1010A000E1E706EBC60618493B68B6008A1913F05B
:1010B0000304D07821D19B08834228BF03469A00BD
:1010C000DBB1043631443A6028460BF031FF20464C
:1010D000C9E73B68042B0CD10B4B06EBC60613F893
:1010E00026300020A3F10103B3FA83F35B092B60E0
:1010F000B9E71620B7E70920B5E70028F9D138602D
:10110000B1E72A20AFE700BF40030220F8B548F25C
:101110008105AB420C4662D049F282018B42064601
:101120002ED048F202018B4201D00120F8BD002CE4
:10113000FBD06369B3F5827F02D0B3F5877FF4D12A
:10114000236823F0005323605569002D56D123688E
:101150001B0C1B0443F0050323602368DA000DD544
:101160002B4B06EBC60213F82230022B06D1304679
:101170002146FFF79BFB08B1732842D10020F8BD40
:10118000002CFBD023689BB20B2BF7D11569002DE7
:1011900034D1236843F0806323602368DB00EDD5FE
:1011A0001C4F57F8300030B1FFF718FB07EBC603B0
:1011B00047F836505D602368002023F08063236089
:1011C00023681B0C1B0443F00C032360236843F4C7
:1011D00000332360236843F480132360F8BD0029A3
:1011E000CCD00B689BB20A2BC8D1506938B90B68B8
:1011F0001B0C1B0443F00B030B60F8BD284602F0E8
:1012000037FF60602368002043F480232360F8BD2B
:10121000400302208404022008B5084AC1681288ED
:101220000346B2EB114F05D0006810B1FEF706FF80
:10123000002008BD024A0120136008BD7C4B02203B
:10124000D0040220002310B508480949094A0A4C75
:1012500003800B6013602360FEF7BAFE10B9012310
:10126000236010BD4FF0FF3010BD00BF7C4B02204B
:10127000D0040220CC040220C404022008B5074B8D
:101280001A68012A03D102221A60054808BD01200C
:10129000FDF7F8FC4FF0FF3008BD00BFC40402208A
:1012A00032547649F0B5324C83B023689A1E012A35
:1012B00057D8032B04D001230020236003B0F0BDD6
:1012C00000216846FEF78AFE034600283DD104212E
:1012D000284E009832880172013292B2110441F016
:1012E0000601254DC160037143718371C37143725F
:1012F0008372C372062132802B60FEF783FED8B959
:101300004FF0FF3302AE274646F8043D04E0314675
:101310003846FDF723FCF0B928680028F7D00569A6
:10132000FEF784FE002DC6D0144B08201D60FDF78B
:10133000A9FC4FF0FF30C1E7009803681BB11846C5
:10134000FEF77CFE0098FEF771FE0C20FDF79AFC7C
:101350004FF0FF30B2E73C20FDF794FC4FF0FF3038
:10136000ACE70120FDF78EFC4FF0FF30A6E700BF91
:10137000C40402207C4B0220D0040220C8040220B6
:101380002DE9F047644E0F46316815468A1E012A42
:1013900082B000F2B480002F00F0A580002D00F094
:1013A000A280002B40F0B1800A9B002B40F0A1806E
:1013B00002294FD0E84640462946FEF70FFE064672
:1013C00040B10C20FDF75EFC4FF0FF35284602B01F
:1013D000BDE8F087009B394618682A460BF0A8FD47
:1013E00004214E4C00982388456001339BB21A04B7
:1013F00023800A434A4CC26046728672C6720172EA
:101400002660FEF7FFFD002863D14FF0FF3302AEE8
:10141000414F46F8043D04E031463846FDF79EFB57
:1014200078B920680028F7D00469FEF7FFFD002C8A
:10143000CCD03C4B08201C604FF0FF35FDF722FC60
:10144000C4E74FF0FF353C20FDF71CFC284602B0F6
:10145000BDE8F087E84619464046FEF7BFFD024664
:101460000028AED14FF0080C2C492F480B88046897
:10147000013300989BB20B801B0443F0030304610B
:10148000274CC360027142718271C27142728272D2
:10149000C27280F808C003212260FEF7B3FDC0B914
:1014A0004FF0FF330DF1080949F8043DB24605E05D
:1014B00049465046FDF752FB0028C2D1206800285B
:1014C000F6D00469FEF7B2FD002CB2D103233360DD
:1014D00071E7009803681BB11846FEF7AFFD00984E
:1014E000FEF7A4FD6DE71620FDF7CCFB4FF0FF35AE
:1014F0006CE73820FDF7C6FB4FF0FF3566E70120AB
:10150000FDF7C0FB4FF0FF3560E72D20FDF7BAFB7C
:101510004FF0FF355AE700BFC40402207C4B022085
:10152000D0040220C8040220CC040220F0B54648B2
:1015300083B000680238012877D840F20320814246
:101540006DD1043A032A5CD8DFE802F04B024E5119
:101550000724254600216846FEF740FD0346002883
:1015600038D10427394E009832882946013292B288
:1015700044EA0245364CC560037143718371C371FF
:1015800043728372C372077232802360FEF73AFDA2
:10159000B8B94FF0FF3302AD2B4E45F8043D05E0DE
:1015A00029463046FDF7DAFA002831D120680028B4
:1015B000F6D00469FEF73AFD002C3CD1204603B07A
:1015C000F0BD009803681BB11846FEF737FD009880
:1015D000FEF72CFD0C20FDF755FB4FF0FF3003B05C
:1015E000F0BD05242546B5E708242546B2E7B3B18A
:1015F000089A042A13D100201A68164B1A6003B007
:10160000F0BD2A20FDF73EFB4FF0FF3003B0F0BDE8
:101610003C20FDF737FB4FF0FF3003B0F0BD162044
:10162000FDF730FB4FF0FF30C9E70120FDF72AFB43
:101630004FF0FF30C3E7084B08201C60FDF722FB8A
:101640004FF0FF30BBE700BFC40402207C4B0220F8
:10165000D0040220CC040220C804022040F203205F
:101660002DE9F041814282B0089E40F0AE801D46D7
:10167000002B00F0AA80002E00F0A7805E4B1B68B4
:10168000023B012B00F2A780013A132A79D8DFE848
:1016900002F0175F78787878727878787878787848
:1016A00078787878780A3368042B40F08E800022AE
:1016B0001046524B19681A60296002B0BDE8F081EB
:1016C0003368242B40F081800124A0460021684625
:1016D000FEF784FC002846D14949009B0A88B8F1EE
:1016E000030F02F1010292B244EA024418710A8027
:1016F000DC6058719871D8714BD004210022414FA1
:101700009960184641463A60FEF77CFC00284DD1AE
:101710004FF0FF3302AC44F8043DDFF8DC8005E015
:1017200021464046FDF71AFA002837D139680029CA
:10173000F6D00C69002C54D13268143128460BF0D5
:10174000F7FB3868FEF772FC204602B0BDE8F08176
:101750003368042B39D1022400216846A046FEF7E5
:101760003DFC0028B8D00C20FDF78CFA4FF0FF307C
:1017700002B0BDE8F0813368042B26D10924A046CD
:10178000A4E72A20FDF77EFA4FF0FF3002B0BDE853
:10179000F0811D4A082112681A61AFE73C20FDF76D
:1017A00071FA4FF0FF3002B0BDE8F0810098036895
:1017B0001BB11846FEF742FC0098FEF737FC0C20E0
:1017C000FDF760FA4FF0FF30D2E71620FDF75AFA26
:1017D0004FF0FF3071E70120FDF754FA4FF0FF3072
:1017E0006BE7064B08201C60FDF74CFA3868FEF7E3
:1017F0001DFC4FF0FF3060E7C4040220C804022043
:101800007C4B0220D0040220CC040220704700BF91
:1018100008B5FFF7FBFF08BD10B5064C23782BB9C0
:1018200000F018F808B90123237010BD4FF0FF3005
:1018300010BD00BFAC4B02200FB408B52D20FDF742
:1018400021FABDE808404FF0FF3004B0704700BFF8
:10185000FFF7DEBFF0B593B0FEF728FE00284CD1AD
:10186000284901A8FEF796FE002846D1FDF70EFB99
:1018700004F0FAF9002840D120234FF480410822D7
:101880004FF4405C204F214E039305930793204D66
:1018900009910D911F4C2049204BCDE910000DEB13
:1018A0000200CDF82CC0CDE90E22029704960695D1
:1018B00008940A910C9300F0E9FB08B113B0F0BD55
:1018C00003F06EFFC8B9FEF73BFAB0B902F022FC94
:1018D00098B9FFF781F880B9FFF7B4FC68B901F057
:1018E000E9F950B905F094FC38B9FDF7C1FE0030B4
:1018F00018BF0120404213B0F0BD4FF0FF3013B0CD
:10190000F0BD00BF10DA02000000012040000120FD
:101910002000012060700120600001206030012063
:1019200005282AD008B514D90A2816D066281FD150
:1019300040F202239A4235D040F205239A4235D034
:1019400040F201239A422FD02B20FDF79BF9002073
:1019500008BD012816D002280AD1B2F5837F1AD219
:10196000B2F5827F1AD2013A012AEDD8104808BD9B
:101970001620FDF787F9002008BD03290D4818BF80
:101980000020704740F203239A4209D0B2F5017F4C
:10199000DAD1094808BDB2F5877FD5D1074808BD1F
:1019A000074808BD074808BD074808BD074808BDE7
:1019B000E0D80200D0D9020080D9020008D9020084
:1019C00030D9020058D90200B8D80200A8D90200C4
:1019D00038B5054604F016F8044660B92C4B9D4214
:1019E0002FD02B0C2B4A1B0493423DD02A4B9D42F7
:1019F00049D12A4838BDC3684269052B36D011D970
:101A00000A2B13D0662B1ED140F202239A422BD010
:101A100040F205239A422FD040F201239A421ED170
:101A20001F4838BD012B13D0022B0CD1B2F5837F98
:101A300024D2B2F5827F24D2013A012A0FD8194864
:101A400038BD194838BD1620FDF71CF9002038BDF7
:101A500040F203239A42F4D0B2F5017FC9D02B2083
:101A6000FDF710F9002038BD104838BD0369104853
:101A7000032B18BF002038BD0E4838BDB2F5877F54
:101A8000EDD10D4838BD0920FDF7FCF8204638BDE2
:101A90003254764900009A784354764980D902003E
:101AA000B8D80200E0D8020030D9020058D90200AC
:101AB000D0D90200A8D9020008D9020003F0D6BA92
:101AC00003F0CABB2DE9F04342EAE27283B0009210
:101AD000002848D04B1E082B45D8804605460024D8
:101AE00000EBC107AB88286803F0030301A943F0AA
:101AF0001C0603F095FF019B0835334025F8023C96
:101B000003B10134AF42EDD19CBB69464046FDF7BD
:101B100025F8074608B13C281DD1C1460026B9F872
:101B20000430D9F8000003F0030301A943F01C04BA
:101B300003F076FF019B09F10809234029F8023CD4
:101B400003B101364D45EAD10EB9002FDDD0304644
:101B500003B0BDE8F0832320FDF794F84FF0FF3089
:101B600003B0BDE8F0831620FDF78CF84FF0FF308E
:101B7000EEE72046ECE700BF08B5064B984203D0DD
:101B8000BDE8084003F0D6BF2D20FDF77BF84FF0ED
:101B9000FF3008BD32547649014B1860704700BFD2
:101BA000E0040220F0B56C4B83B01B78002B00F0F2
:101BB000AD806A4B1C68A26863689A422DD04BF6D0
:101BC000EF63ADF8003023786E468DF8043063681B
:101BD00005219A422ABF27699F1ABF1A9A4294BFC9
:101BE0000025E568BFB288BF5B1B304688BF9DB249
:101BF000ADF802700AF007FCBDF80210A0680AF008
:101C000002FCA36822691F44974208BFE368A760EB
:101C100008BFA360002D40F08D80514B1C68A26866
:101C200063689A422CD04BF6EF63ADF8003023780E
:101C30006E468DF80430636805219A422ABF2769F1
:101C40009F1ABF1A9A4294BF0025E568BFB288BFA9
:101C50005B1B304688BF9DB2ADF802700AF0D3FB23
:101C6000BDF80210A0680AF0CEFBA36822691F44E9
:101C7000974208BFE368A76008BFA360002D48D162
:101C8000384B1C68A26863689A422BD04BF6EF630E
:101C9000ADF8003023786E468DF804306368052176
:101CA0009A422ABF27699F1ABF1A9A4294BF0025F9
:101CB000E568BFB288BF5B1B304688BF9DB2ADF8F8
:101CC00002700AF0A0FBBDF80210A0680AF09BFBAE
