:020000040000FA
:10000000900A00207D1000008F3A0000CD0F000004
:10001000CD0F0000CD0F0000CD0F0000CD0F000070
:10002000CD0F0000CD0F0000CD0F0000BD0E000071
:10003000CD0F0000CD0F0000690E00008D390000CB
:100040003D1000003D1000003D1000003D1000007C
:100050003D1000003D1000003D1000003D1000006C
:100060003D1000003D1000003D1000003D1000005C
:100070003D1000003D1000003D1000003D1000004C
:100080003D1000003D1000003D1000003D1000003C
:100090003D1000003D1000003D1000003D1000002C
:1000A0003D1000003D1000003D1000003D1000001C
:1000B0003D1000003D1000003D1000003D1000000C
:1000C0003D1000003D1000003D1000003D100000FC
:1000D0003D1000003D1000003D1000003D100000EC
:1000E0003D1000003D1000003D1000003D100000DC
:1000F0003D1000003D1000003D1000003D100000CC
:100100003D1000003D1000003D1000003D100000BB
:100110003D1000003D1000003D1000003D100000AB
:100120003D1000003D1000003D1000003D1000009B
:100130003D1000003D1000003D1000003D1000008B
:100140003D10000000000000000000000000000062
:10015000000000000000000000000000000000009F
:10016000000000000000000000000000000000008F
:10017000000000000000000000000000000000007F
:10018000000000000000000000000000000000006F
:10019000000000000000000000000000000000005F
:1001A000000000000000000000000000000000004F
:1001B000000000000000000000000000000000003F
:1001C000000000000000000000000000000000002F
:1001D000000000000000000000000000000000001F
:1001E000000000000000000000000000000000000F
:1001F00000000000000000000000000000000000FF
:10020000DEE61E284CBBCE8F025B00003C000000E7
:10021000008000000100000000000000000000005D
:10022000FFFF02910000000000000000000000003D
:1002300000000000000000000000000053B94AB9AF
:10024000002908BF00281CBF4FF0FF314FF0FF30DE
:1002500000F070B9ADF1080C6DE904CE00F006F8BD
:10026000DDF804E0DDE9022304B070472DE9F04F2A
:10027000099E04468946002B40F083808A42154639
:1002800045D9B2FA82F24AB1C2F1200701FA02F36B
:100290009540944020FA07F747EA03094FEA154EC4
:1002A000230C1FFA85F8B9FBFEFC0EFB1C990CFB16
:1002B00008F143EA094399420AD9EB182CBF0120FF
:1002C0000020994202D9002800F01D810CF1FF3C6A
:1002D000591AA3B2B1FBFEF00EFB101100FB08F897
:1002E00043EA0144A04505D92C1902D2A04500F2E9
:1002F0000E810138A4EB080440EA0C4000271EB12F
:10030000D4400023C6E900433946BDE8F08F002AF7
:1003100051D0B2FA82F2002A40F0AF80491B4FEA76
:10032000154E1FFA85F80127230CB1FBFEFC0EFBCE
:100330001C1108FB0CF043EA014398420AD9EB1860
:100340002CBF01210021984202D9002900F0D7805A
:100350000CF1FF3C191AA3B2B1FBFEF00EFB101119
:1003600008FB00F843EA0144A04505D92C1902D244
:10037000A04500F2C1800138A4EB080440EA0C401B
:10038000BDE78B4208D9002E74D00027C6E90001D2
:1003900038463946BDE8F08FB3FA83F767B98B4228
:1003A000C0F0A480824240F2A1803846002EABD03B
:1003B000C6E90049A8E7FFDEC7F12005BB4002FA05
:1003C00007FC01FA07F4EA4020FA05F8E94000FAD0
:1003D00007FE1A4348EA04044FEA1248200C1FFAA9
:1003E00082F9B1FBF8FA08FB1A110AFB09FB40EA93
:1003F00001418B450AD951182CBF012300238B459D
:1004000002D9002B00F088800AF1FF3AA1EB0B0122
:10041000A4B2B1FBF8F008FB101100FB09F944EAA3
:100420000141894504D9511801D289457BD8013849
:1004300040EA0A40A1EB0901A0FB0C89494544466A
:100440004B4602D306D1C64504D20138B8EB0C04A2
:1004500069EB0203002E5DD0BEEB040261EB0301E9
:1004600001FA05F522FA07F3F94000271D43C6E912
:10047000005149E73746304646E7C2F12000954033
:1004800001FA02F721FA00F34FEA154E24FA00F1BF
:100490001FFA85F894403943B3FBFEF00F0C0EFBB6
:1004A000103300FB08FC47EA03439C4507D9EB18CF
:1004B0002CBF012700279C4500D98FB30138A3EB3F
:1004C0000C0389B2B3FBFEF70EFB173307FB08FCE6
:1004D00041EA03418C4504D9691801D28C4525D8DD
:1004E000013FA1EB0C0147EA00471DE7841A61EBCD
:1004F00003030120994659E702382C443CE7ACF14C
:10050000020C2B4426E7ACF1020C2B44E0E6023847
:100510002C44EFE63746F7E6AAF1020A114475E7E4
:1005200002382B44CBE70238114481E7023F2944CB
:10053000D7E700BF704700BF2DE9E04F2746A04630
:10054000A146A246A346A4462DED108B4FF0000510
:1005500045EC185B45EC195A45EC1A5A45EC1B5A08
:1005600045EC1C5A45EC1D5A45EC1E5A45EC1F5AE9
:10057000F1EE105A4FF66076C0F6FF763540E1EEA8
:10058000105A84F3008825462646A447BDEC108BFC
:10059000BDE8E08F0B6801330B60014B1B68184707
:1005A000D01300202DE9F04F85B00E9C9B46012C06
:1005B000B8BF0124012B0CBF3023202316468246EE
:1005C000884601250A270022DFF86C900293B6FBCB
:1005D000F9F301930AB9B1451CD8019B414603F1D7
:1005E0003000D04701220135019B013F09FB136612
:1005F0000A23012FB9FBF3F9E9D1414606F1300096
:10060000D047BBF1030F02D1641B002C0EDC05B0F8
:10061000BDE8F08FBC42E7DBBBF1020FE4D84146F6
:10062000029803920135D047039ADDE74146202026
:10063000D047013CE9E700BF00CA9A3B002307B559
:100640000246019303480B4601A902F01CFF03B0C8
:100650005DF804FB950500004FF02002EFF31183D5
:1006600082F31188BFF36F8F0121044AC2F840154D
:1006700083F31188BFF36F8F002070470090035001
:1006800008B5114B1A686AB14FF05022D2F8042312
:10069000D10707D500220D481A608368597A09B935
:1006A00003F0C4F80A4B1A686AB14FF05022D2F82E
:1006B0000423920707D5002201211A600348BDE8F0
:1006C000084003F0B3B808BD00510050701400207A
:1006D0000451005000220D4BC3F840214FF020027E
:1006E000EFF3118182F31188BFF36F8F084AD3F8BB
:1006F00004051368C01A20F07F400344136081F39F
:100700001188BFF36F8F01F011BF00BF005001507F
:100710002000002070B5154801F04CF910B3436873
:1007200001211B689847002401264FF480334FF4C1
:1007300000120F4D3146C5F80845C5F84065C5F8AB
:1007400004330C4B15201C600B4BC3F88021224650
:1007500000F0D4FB152000F0C1FB2046074B1E60C3
:100760002E6070BD4FF0FF30FBE700BF0445000076
:10077000005001504051015000E100E0085001508C
:1007800070B5254CB0F1FF3F08BF20464FF0200365
:10079000EFF3118583F31188BFF36F8F1F4BD3F8ED
:1007A00004151F4B1B68CA1A22F07F4612021AD486
:1007B000421E22EAE272A242A8BF2246701C1044E6
:1007C000A04294BF18181819411A21F07F41134A0A
:1007D00020F07F430229C2F8403506D985F31188FD
:1007E000BFF36F8F70BD0022E8E7D2F804350D49E2
:1007F000C31A23F07F435C1E8C4205D94FF40012CC
:10080000094BC3F80021E9E7012B02BF023020F0B9
:100810007F40C2F84005E1E7FEFFFF0000500150B5
:1008200020000020FEFF7F0000E100E04FF02002EA
:10083000EFF3118382F31188BFF36F8F064AD2F86A
:100840000405064A1268801A20F07F4083F311885D
:10085000BFF36F8F704700BF005001502000002091
:10086000F7B500281C460D4614BF4FF400534FF453
:100870000043204E954232D302FB03F0013A009030
:100880004B431D4802F06FFF1C4B14F0100F1C4926
:100890001C4808BF194602F066FF14F0040F14BF8D
:1008A00072212D21184802F05EFF14F0020F14BFD0
:1008B00077212D21144802F056FF14F0010F0CBFD0
:1008C0002D217821104802F04EFF6C210E4802F0D5
:1008D0004AFF0E4803B0BDE8F04002F044BF28B123
:1008E00005F5E07746F827400135C3E705F5C07701
:1008F000F8E700BF0030005063430000574300009A
:100900004E4300006D4400007D430000B9460000E6
:1009100008B543B2002B0CDB012200F01F018A4016
:100920005B091049203341F82320BFF34F8FBFF3F9
:100930006F8F830003F1A04303F540533128D3F8B0
:10094000002806D0002A07DA02F00302023A012A40
:1009500002D8054AC3F80028002103F067F80020F8
:1009600008BD00BF00E100E00001008030B54FF499
:1009700040444CF2040585B04FF440412C4802F04D
:10098000F2FE21682B4802F0EEFE29682A4802F0A8
:10099000EAFE10220021684603F010F92368684639
:1009A0000093029400F056FE012000F083FE002028
:1009B00000F06CFE002000F091FE0121002000F00C
:1009C000ABFE00F09FFE2C681C4802F0CCFE082015
:1009D000FFF79EFF24F00104BFF34F8FBFF36F8F2B
:1009E000640864002046214622462346B7EE000AEA
:1009F000F7EE000AB7EE001AF7EE001AB7EE002A7B
:100A0000F7EE002AB7EE003AF7EE003AB7EE004AEA
:100A1000F7EE004AB7EE005AF7EE005AB7EE006A5A
:100A2000F7EE006AB7EE007AF7EE007AFFF784FD82
:100A3000844400009B440000B0440000CE44000009
:100A40002DE9F8433B4802F08EFE002140F21713D7
:100A500008460122FFF704FF40F20713202201217C
:100A60000020FFF7FDFE344802F07DFE334B344A90
:100A7000C3F3C431C3F30E03C3F50043C3F34313FD
:100A8000C2F80015C2F80435D2F80015D2F80425D2
:100A90002C48520102F067FE274802F064FE02F083
:100AA00077FF014610B1284802F05DFE0024274878
:100AB00002F059FE40F21713082200210120FFF72F
:100AC000CFFE1F4D40F20713202208210120FFF71F
:100AD000C7FE194802F047FEC5F880441C4802F0E2
:100AE00042FE1C4FC5F8C044DFF87C801A4DDFF889
:100AF0007C906E792A68002E14BF3B4643462146FF
:100B0000484602F030FE66B91448013402F02BFE6C
:100B10001B2C05F10805ECD10748BDE8F84302F0AD
:100B200022BE2879FFF7F4FE08B10D48EDE70D4825
:100B3000EBE700BF8B430000B9460000E07F0000F8
:100B400000300050AF430000F54300002544000092
:100B50004744000080430000FC4000007044000057
:100B6000774400007F4400005B43000063440000C2
:100B700010B500284BD0002A49D0264B99423CD9C9
:100B8000541803F61D239C423AD802F0EDFF0020D2
:100B9000BDE81040714672467346B7EE000AF7EEA4
:100BA000000AB7EE001AF7EE001AB7EE002AF7EEC9
:100BB000002AB7EE003AF7EE003AB7EE004AF7EE39
:100BC000004AB7EE005AF7EE005AB7EE006AF7EEA9
:100BD000006AB7EE007AF7EE007A8EF3008C10B45C
:100BE000F1EE10CA4FF66074C0F6FF740CEA040C04
:100BF000E1EE10CA10BCF4467447074B994203D982
:100C0000064B54189C42C0D94FF0FF30C0E76FF03C
:100C10001500BDE70302FF002F01FF003801FF00B0
:100C20002DE9F04F834685B08946002951D0002731
:100C3000DFF8B0A0DFF8B08001AE5AF8044B98E8B6
:100C400007005C4486E807000C223146204602F08B
:100C500064FF054608B9002C3ED10137052FECD1C1
:100C60006FF00D05284605B0B7EE000AF7EE000A52
:100C7000B7EE001AF7EE001AB7EE002AF7EE002AD8
:100C8000B7EE003AF7EE003AB7EE004AF7EE004A48
:100C9000B7EE005AF7EE005AB7EE006AF7EE006AB8
:100CA000B7EE007ABDE8F04F714672467346F7EE34
:100CB000007A8EF3008C10B4F1EE10CA4FF6607417
:100CC000C0F6FF740CEA040CE1EE10CA10BCF44646
:100CD00074476FF01505C5E73C222146484602F0EF
:100CE00043FFBFE7D4410000AC400000014801F0E1
:100CF0008BBE00BFE841000008B530B143683BB18E
:100D0000006801F049F8002008BD6FF4E040FBE7FF
:100D10000048F9E7EA8FFFFF38B5044618B90B4BD6
:100D20000B485B689847656855B115F00205206867
:100D300007D10146074800F08FFF2560002363605C
:100D400038BD1422002102F039FFF7E71414002007
:100D5000FD4500002400002010B5044618B9134BCF
:100D600013485B6898476368BBB92368ABB94FF019
:100D7000FF3221460F4800F043FF08B923681BB932
:100D80000A4B0D485B68984714220021206802F046
:100D900015FF636843F002036360206802F069FF97
:100DA000636843F00103636010BD00BF14140020AA
:100DB000FD450000240000202346000008B558B17E
:100DC000436863B100684FF0FF3100F073FF054BDB
:100DD000002818BF184608BD6FF4E040FBE7024842
:100DE000F9E700BFE98FFFFFEA8FFFFF08B506496B
:100DF00040231422054802F021FFBDE808400449C1
:100E0000044801F039BE00BF40000020240000204B
:100E100000420000F041000004488168406A8842B6
:100E200003D003494FF080520A6070472C0600201F
:100E300004ED00E0094A0A49936809685866996612
:100E400008494B6843F080534B60002383F31188BB
:100E5000BFF36F8F9368986E704700BF2C06002019
:100E60005042000000ED00E012498A684FF028006F
:100E70001044EFF3098C80E8F01F202080F31188E4
:100E8000BFF36F8F0C4F4FF000664A6A8A603E6076
:100E9000506E0023536680F3118804B5104602F0AB
:100EA000FDFDBDE8044002F1280090E8F01F8CF33E
:100EB000098870472C06002004ED00E01EF0040FA6
:100EC0000CBFEFF30880EFF30980816911F8021C71
:100ED0000229FFD001B502F0D6FD01BD43B2002BBF
:100EE00008DB012200F01F0002FA00F0024A5B0951
:100EF00042F82300704700BF00E100E043B2002B3E
:100F000001F10101A8BF03F160434FEA4111B8BFED
:100F1000054BC9B2ABBF03F5614300F00F0083F886
:100F200000131954704700BF14ED00E073B51E465E
:100F30000A9B05460093099B8C1802F02FFF0B4A71
:100F4000A4F1200323F0070322F001029A61069A1C
:100F50001E605A60079A9A60089ADA604FF08072B1
:100F6000DA61AB6400236B6602B070BD81370000AC
:100F7000F8B51E4605460C4617460023E1EE103A2A
:100F800000F0D6F90A4B3C4428469D6024F0070443
:100F900002F084FD304684F30988002163B681F3B2
:100FA0001188BFF36F8F0022002302F0E9FB00BF1E
:100FB0002C060020014910220A60704710ED00E065
:100FC000404080F3118830BF704700BFEFF30880C6
:100FD000EFF30981724601B500F0D2F801BD00BF00
:100FE00030BFFFF7FDBF00BF114A08B5114B22F01B
:100FF0007F029A60BFF34F8FBFF36F8FD3F88820C3
:1010000042F4A002C3F888200B4A536823F04043FF
:101010005360BFF34F8FBFF36F8F0023E1EE103AA1
:1010200000F008FD00F010FD00F050F900F03EFD6A
:101030000000000000ED00E030EF00E001B572B606
:101040000B4A106A00281EBF0021116202F0F4FD55
:1010500062B6EFF30580A0F110004FEAC000054929
:10106000014409C99847BDE8014003490847000009
:101070002C060020443E0000190E000002F08BFBFD
:10108000202080F3118808484FF40061401880F355
:101090000988EFF314800221084380F31488BFF31A
:1010A0006F8FFFF7A1FF0000D00B00200C4B9A6A56
:1010B0009A6A9A6A920708D55A6B9A6A120604D5F8
:1010C00018B19A6A22F080029A620020044B9A6A50
:1010D0009A6A9A6A9A6A42F0FF029A6208707047A6
:1010E00000ED00E00D4B9A6A9A6A9A6A920508D55B
:1010F0009A6B9A6A120404D518B19A6A22F40042D3
:101100009A620020054B9A6A9A6AD20558BF9A6A79
:101110009A6A42F47F429A620870704700ED00E0DC
:10112000074B00209A6A9A6A9A6A9A6A9A6A9A6A35
:101130009A6A9A6A6FEA02426FEA12429A627047AA
:1011400000ED00E00D4B9A695A695A69D0070FD437
:101150005A6991070CD45A69520709D45A69100781
:1011600006D45A69D10603D45A69920658BF5A69FF
:101170005A6942F0FF025A61704700BFD0ED00E0AB
:10118000F0B5414B8BB05B680025C3F3080385F3D2
:101190001188BFF36F8F02F07F44B4F17F4F1ED1EF
:1011A00012F001041AD0560602F0080467D482F047
:1011B0000402C2F3800564B1EFF389860022033B89
:1011C0008DF80720042B4BD8DFE803F00B4C50417F
:1011D0004800EFF38886F1E70E46EFE725462E46F6
:1011E000ECE7294BDA6A92073AD4DC6A14F08044BF
:1011F00008D028331B78EBB101200DF10701FFF770
:1012000055FF04469DF8073093B92022314602A8C5
:1012100002F0AAFC099B6DB3C3F3080222B96FEA7E
:1012200053236FEA4323099302A9204602F029FCC5
:101230000BB0F0BD154B1B782BB101200DF1070150
:10124000FFF750FFDDE7124B1F88BFB217B1FFF762
:1012500067FFD6E70F4B5C69002CD3D0FFF772FF16
:101260000024CFE70DF107010020C8E70DF10701C9
:101270000020E5E723F4FF7323F00103D3E7002CFC
:10128000AAD10646012599E700ED00E029ED00E02E
:101290002AED00E0D0ED00E0024A536943F010036C
:1012A0005361704700ED00E0BFF34F8F0549064BD7
:1012B000CA6802F4E0621343CB60BFF34F8F00BFF4
:1012C000FDE700BF00ED00E00400FA050023202147
:1012D0000348C2180133412B82F80013F9D170473B
:1012E00000E100E038B505464FF02003EFF311842C
:1012F00083F31188BFF36F8F00F0F0FE0A4B9B68F9
:10130000AB420BD1094B5A68C2F3080212B920460E
:10131000FFF790FD5A6842F080525A602046BDE8BF
:10132000384002F0C1BC00BF2C06002000ED00E0F8
:1013300010B50E4B88B002930D4B0E4C03930E4B21
:101340000E4A049302AB019301A82346012100F049
:1013500003F9002307930A4B0121E41A05A805931A
:10136000069400F003F908B010BD00BF0000002093
:101370000000000000000120060001000000002025
:101380000000002010B50B680C7A23F01F0204F057
:101390001F031A43CB68640923F01F03044943EA7F
:1013A000440343F001038860CA600B6110BD00BFB5
:1013B00090ED00E02DE9F04F804689461446002765
:1013C000484D85B04F4507DA58F827305E68C6B3F8
:1013D0001F2E05D86FF01504204605B0BDE8F08F2C
:1013E000F206F7D1D3F800A01AF01F0FF2D1504641
:1013F00002F07EFB834606EB0A00013802F078FB20
:101400008345E7D11BF1160FE4D0631E5B45E1DB9A
:10141000C5F808B0E86858F82710C5F808B02E6974
:1014200020F01F00D1E900321A44984246F01F060E
:1014300002F1FF3A18D1564505D15FFA8BF002F060
:1014400035FB0137BEE7C5F808B0EB6822F01F0294
:1014500003F01F031A43EA60E0B202F027FB10F129
:10146000160FB7D0441CECE7C5F808B02A69013B59
:1014700023F01F0302F01F0213435645E0B22B6115
:10148000EBD002F013FB10F1160FA3D0C5F808B093
:10149000EA689DF80830013E62F304038DF80830D5
:1014A0002B699DF808205B0863F347128DF808202C
:1014B00058F827200130D2E900321344009323F07A
:1014C0001F031E44A6EB0A06C4B226F01F060F2C0B
:1014D00003963FF67FAF20466946FFF753FF01347E
:1014E000AFE700BF90ED00E00522034B5A60BFF369
:1014F0004F8FBFF36F8F704790ED00E0BFF35F8FAA
:101500000022014B5A60704790ED00E070B50E4D1F
:101510002E68102E15D80024FFF7F0FF0B4B0C4A55
:101520001A63A64205D10B4B1E70FFF7DDFF0020AA
:1015300070BD6968204601EB0411FFF723FF0134F9
:10154000EFE74FF0FF30F3E71442000090ED00E0CA
:10155000AAFF44008806002010B5034C2278FFF74C
:1015600029FF207010BD00BF880600202DE9F74F2D
:10157000254C8A4680460027A1464FF0140B234D88
:1015800057451ADAD8F804300193002B36D0D8F832
:1015900000100846009102F0ABFADDE900130646A0
:1015A0005818013802F0A4FA8642194A08D01423C8
:1015B0005F436FF0150349F8073003B0BDE8F08FC3
:1015C00016F1160F2660F8D01378B342F5DD0BFB49
:1015D0000793AE60AE60E868197B60F3040119738D
:1015E0002969187B490861F347101873EB6823F0E9
:1015F0001F0363602B6923F01F0323610137143439
:1016000008F10C08BCE700BF4005002090ED00E0A9
:101610008806002070B50C4B0E461C780546234604
:1016200000210A4A0F2B0BDD094951F8040BFFF783
:10163000A9FE224631462846BDE87040FFF7BABEF3
:10164000936011610133EDE78806002090ED00E022
:101650004005002082680C4B9A60036883F38888F9
:10166000436883F38988027B02F00101EFF39483DE
:1016700023F00303920748BF43F0020309B143F08C
:10168000010383F39488704700ED02E0084AD368B1
:1016900048B123F400531B041B0C43F0BF6343F415
:1016A0000033D36070479BB243F40053F5E700BFAB
:1016B00000ED00E0084AD36840B19BB243F4804398
:1016C00043F0BF6343F40033D360704723F4804397
:1016D0001B041B0CF4E700BF00ED00E0084AD368D0
:1016E00040B19BB243F0080343F0BF6343F40033BF
:1016F000D360704723F008031B041B0CF4E700BF02
:1017000000ED00E0034AD2F88C3043F44063C2F8A5
:101710008C30704700ED00E0084B1A6818B142F0B9
:1017200001021A60704722F001021A601A6811B1B2
:1017300042F00202F5E722F00202F2E7D0ED00E00B
:101740002DE9F0430025214C214E54F8048CDFF89C
:10175000889085B0A84503D8002005B0BDE8F08387
:10176000636A96E807001F6801AB83E807000C2254
:101770001946384602F0D1F990B98FB1636A2169F0
:101780001B681A6991420BD19A69A169914207D8E5
:10179000E169914204D962695B6932EA03030AD0C4
:1017A000276A67B10B4801F0DEFF404080F31188E3
:1017B0004FF0040002DFE36801351C44CAE74846E5
:1017C00001F0D1FF636A1F60F5E700BF3C02000033
:1017D000B84000005F46000088460000064B1868CD
:1017E000043B1B68092B05D1013801288CBF002060
:1017F00001207047002070473401FF00054B186836
:10180000043B1B68092B03D1431E584258417047C3
:10181000002070473401FF004E4A08B5136843F0BA
:1018200002031360FFF7DAFF30B14FF050230022BC
:10183000C3F81421C3F81821FFF7E0FF30B10123EA
:10184000454A1360A2F63822C2F87835434B1B682C
:10185000092B07D1424B1B68022B02BF0122414BCF
:10186000C3F87825FFF7CAFF10B10E223E4B1A606D
:10187000FFF7B4FF20B100223C4B1A6001225A60EE
:101880000022D30003F57F03D3F80013013108D001
:10189000D3F800130132D3F80433B2F5807F0B6024
:1018A000EFD1334BDA69D1073BD5324B1946D3F828
:1018B0000024012AFBD1C3F80425D1F80034012B00
:1018C000FBD12B4BDA69D20708D5DA69294922F016
:1018D0000102DA61D1F80024012AFBD11A6A01322F
:1018E0000AD11A6A22F0FF0242F020021A62214A4B
:1018F000D2F80034012BFBD100221E4BC3F8042583
:10190000D3F80024012AFBD1BFF34F8F1A491B4B98
:10191000CA6802F4E0621343CB60BFF34F8F00BF8D
:10192000FDE71B6A0133C0D0134BD3F88C2042F47F
:101930004062C3F88C20D3F8882042F47002C3F8C8
:101940008820BFF34F8FBFF36F8F0D4B0D4A1A6086
:1019500008BD00BFD0ED00E0384A00503001FF0064
:101960003401FF0000400050E4AE03500C4700502B
:101970000080FF000090035000ED00E00400FA0535
:10198000F41300200090D00370B50026084B53F8E4
:101990002040013053F82050A54200D870BD236884
:1019A00020465B68984700B166600C34F4E700BFDE
:1019B0003C420000104B70B505461E460F4C9C4241
:1019C00004D10E4CB44209D1002412E062681AB16D
:1019D00022681268AA420CD00C34F0E763680BB995
:1019E0000C34EFE723682846196802F08AF80028CB
:1019F000F6D1204670BD00BFA01400204014002086
:101A000008B50B4D4FF02002EFF3118382F31188DC
:101A1000BFF36F8F02F0E7F9012104460228D8BF17
:101A2000084602F0F0F92C62FFF7CAFAEAE700BFB5
:101A30002C0600200248034A0021121A02F0BEB808
:101A4000000000208C06002008B50648064A074919
:101A5000121A02F089F8BDE80840054A054906480F
:101A600002F082B8D013002004150020D4460000F4
:101A700000000000D446000000000020012208B54C
:101A8000084B02201A70FFF77FFF0320FFF77CFF4F
:101A900000F076FC01F09AFC034A137B23F001036B
:101AA000137308BD89060020C005002080B5374BA0
:101AB000A2B083F308880025E023354C012784F881
:101AC0002230E57725766576A576E576636A314E30
:101AD00043F4E0236362636A43F400236362A56313
:101AE000FFF7DAFBFFF766FA4FF0FF33A362E3621A
:101AF00007AB6C222946184602F060F8264C8DF898
:101B00002970A0602846FFF73FFF3846FFF73CFFEB
:101B100000F0E8FB214B66624FF48062CDE904736C
:101B2000CDE902551E4BCDE900551E49304600F067
:101B30000FFC737B23F0040213F01B0F727304D1AC
:101B4000B36913B9304600F019FA174B0122059317
:101B50000F23CDE903320023144DCDE90133009367
:101B60004FF4A072124B1349284600F0F1FB6B7B37
:101B7000E56023F004036B730F4B4FF48062C4E9FC
:101B800006330849064B0348FFF7F2F9D01300204B
:101B900000ED00E0C00500202C060020C646000035
:101BA0007D1A000090060020CB460000540500205E
:101BB000011A0000900A00204406002070B50E4B68
:101BC0000E4CA34201D3002070BDD3E9030141EACA
:101BD000000212F003020BD19D685A61AA4201D1A2
:101BE0001C33EEE75E6901320E6059610144F5E78E
:101BF0006FF01500E8E700BFA0140020A01400203B
:101C000010B513460C464FF02002EFF3118182F31A
:101C10001188BFF36F8F42695AB122601368436124
:101C2000836901338361002081F31188BFF36F8FD3
:101C30000DE01BB923606FF00B00F5E70246044886
:101C400000F0FAFA18B9034B9B685B69236010BD7A
:101C50008A0600202C06002070B504460D464FF081
:101C60002003EFF3118683F31188BFF36F8F02F027
:101C700068F880B100212A6881664261427BD20601
:101C800003D183690BB900F079F93146BDE87040A2
:101C9000074801F0FEBF2B6862691A602B68636118
:101CA000A369013BA36186F31188BFF36F8F70BDF9
:101CB0008A060020F8B504460F464FF02003EFF3E4
:101CC000118583F31188BFF36F8FC26830495AB111
:101CD00080688E68B04215D0B7B985F31188BFF31C
:101CE0006F8F6FF00F000CE08B6893F90E3023615B
:101CF0008B680132E260A36085F31188BFF36F8FB8
:101D00000020F8BD2369F2E790F90E3096F90E1025
:101D10009942A8BF194621EAE17199422BDA00F0F5
:101D20009FFA06463B46224629461A4800F084FAA6
:101D30000028E6D04FF02003EFF3118583F31188DC
:101D4000BFF36F8F236821699C4207D033B193F9A9
:101D50000E309942A8BF194621EAE171A06890F9B6
:101D60000E30994209D16EB129460A4801F091FF1F
:101D70006FF00A00C5E70026D4E700F071FA0028EA
:101D8000F2D1F0E785F31188BFF36F8FF0E700BF62
:101D90002C0600208A06002038B583680446002BF4
:101DA0003BD0214A926893423AD1DA7B013ADA7306
:101DB000C368012B05D0013BC36000F0C3F80020CD
:101DC00038BD4FF02003EFF3118583F31188BFF383
:101DD0006F8F0169806890F90E30994201D000F050
:101DE0003FFA204601F0ADFFA06080B190F90E20CF
:101DF000226100228266427BD20603D183690BB93D
:101E000000F0BCF82946094801F043FFD5E7E0603F
:101E100085F31188BFF36F8FCFE76FF01500CFE721
:101E20004FF0FF30CCE700BF2C0600208A060020D0
:101E300010B5084C23685BB1FEF7F8FC2368064A2E
:101E4000184410610021BDE81040184601F0DBBFC6
:101E500010BD00BF640600202C060020F8B50D461A
:101E60004FF02003EFF3118483F31188BFF36F8FDA
:101E70004FF4004140F2E73600270022E1FB006703
:101E8000094B30461A6139464FF47A720023FEF747
:101E9000D5F9064B1860064B1D60FFF7C9FF84F3A8
:101EA0001188BFF36F8FF8BD2C0600206406002058
:101EB000600600204FF02003EFF3118183F31188B7
:101EC000BFF36F8F044B9A68D37B013BD37381F3CD
:101ED0001188BFF36F8F70472C060020094B03F168
:101EE0002802824205D19B688B4202D14B7BDB06E4
:101EF00006D1D1E9003213605A600023C1E90033F2
:101F0000704700BF2C06002038B50D4C024604F186
:101F1000280001F0DFFE054600B9E568A3684AB96C
:101F20005A7BD20606D1AA6922B9DA897F2A01D959
:101F3000636238BD9D4201D0FFF77AFF6562F8E722
:101F40002C06002010B54FF02003EFF3118483F32B
:101F50001188BFF36F8F084B00209A68D37B013341
:101F6000D373FFF7D1FF84F31188BFF36F8FBDE800
:101F7000104001F0A5BE00BF2C060020F8B54FF0C0
:101F80002003EFF3118483F31188BFF36F8F154A99
:101F9000114651F8283F8B421DD0E3B1D66A90F923
:101FA0000E5093F90E70AF4210DD5A68C0E900324E
:101FB00010605860437B63F07F0343730020FFF79A
:101FC000A3FF84F31188BFF36F8FF8BDB34202D033
:101FD0001B68002BE5D1D36A01604360D36A1860A7
:101FE000D062E7E72C060020F8B504464FF0200346
:101FF000EFF3118583F31188BFF36F8F90F90D30E4
:10200000002B03DA01461848FFF768FF174A02F170
:102010002801D2E90A308B421FD0F3B194F90E6047
:1020200093F90E70B74213DD5968C4E900310C60B2
:102030005C60637B906863F07F036373031B5842AB
:102040005841FFF761FF85F31188BFF36F8FF8BD2B
:10205000984202D01B68002BE2D1C4E90010D36A79
:102060001C60D462E5E700BF540600202C06002067
:10207000154A164938B50C689368A342144603D133
:10208000BDE83840FFF7D4BE00250D60104909684F
:10209000B9B1D9897F2914D80E4993F90E5009682E
:1020A0008D420EDB0C498B420BD0996949B91169FD
:1020B000814203DC1846FFF797FFE1E7091A116137
:1020C00038BD00232361FBE72C0600205C060020BE
:1020D000640600206006002054050020036D70B5E2
:1020E000044603B1984704F1180001F066FE4FF072
:1020F0002003EFF3118583F31188BFF36F8F204620
:1021000001F0BEFD0646D8B194F90D30002B07DA78
:1021100021461248FFF7E2FE637B03F07F036373FF
:102120000F4B9868021B50425041FFF7EDFE637B56
:1021300043F00803637385F31188BFF36F8F70BD9D
:10214000637B9B07F3D52146A068FFF7C7FE637B3F
:10215000A66023F002036373E9E700BF5406002082
:102160002C06002038B504464FF02003EFF311850C
:1021700083F31188BFF36F8F90F90D30002B07DACE
:1021800001460948FFF7AAFE637B03F07F036373F0
:10219000064B9868031B58425841FFF7B5FE85F37C
:1021A0001188BFF36F8F38BD540600202C06002025
:1021B00070B504460D461646FFF7D4FF637B43F027
:1021C000020363737DB12B68A5609D4229D043B3A0
:1021D00094F90E2093F90E1091421CDD5A68C4E95F
:1021E000003214605C60731C22D04FF4004540F252
:1021F000E730002126EAE6764FF47A72C5FB060145
:102200000023FEF71BF80B49421C04F11800BDE83F
:10221000704000F049B969688B4202D01B68002BFE
:10222000D8D16B68256063606B681C606C60DAE70E
:1022300070BD00BFE13C000010B50C461146064AD7
:102240009068064A10601A46FFF7B2FF2046BDE8C4
:102250001040FEF7EFBD00BF2C0600205C060020FA
:102260002DE9F84304464FF02003EFF3118983F37F
:102270001188BFF36F8F01F003FD4EB2804660B34B
:10228000174D214605F128073846FFF727FEAB6AB0
:10229000A673BB422A4619D0C3B1E96A93F90E006E
:1022A000B0420EDD5A68C4E9003214605C6001205F
:1022B000FFF72AFE89F31188BFF36F8F4046BDE810
:1022C000F883994202D01B68002BE7D1D36A2760BC
:1022D0006360D36A1C60D462E9E7A673EAE700BFD3
:1022E0002C0600200021044B084603F12802C3E914
:1022F0000A22FFF7B3BD00BF2C060020014B9868EF
:10230000704700BF2C06002010B54FF02002EFF3FD
:10231000118482F31188BFF36F8F427B510704D47D
:1023200084F31188BFF36F8F10BD22F0040112F007
:102330001B0F417303D183690BB9FFF71FFE2146C1
:10234000BDE81040014801F0A4BC00BF8A0600208F
:1023500030B587B00E9D044604950D9D03950C9DE8
:1023600002950B9D01950A9D0095FEF7DFFD034B3D
:102370009B6803B11B6E236607B030BD2C0600209E
:102380002DE9F04F284E294DB04687B0B54205F1F2
:10239000300410D3FFF78EFD4FF4004940F2E736CA
:1023A0000027224CDFF888A0444521D307B0BDE8C0
:1023B000F04FFFF7C7BD54F8043C059354F8103CA8
:1023C000049354F8143C039354F8183C029354F8C3
:1023D0001C3C019354F8203C009354E90A2354E92F
:1023E0000C01FFF7B5FF54F8303CDD642546CDE71E
:1023F000616A4B1C04D0256821B92846FFF784FF89
:102400003034D1E7B346BC46E9FB01BC4FF47A72E5
:10241000002358466146FDF711FF5146421C05F165
:10242000180000F041F8EBE7A0140020A0140020F1
:10243000E13C0000034B1B680BB9FEF7F7B9002025
:10244000704700BF68060020036840B1074A526821
:10245000904204D01BB19A6881680A449A6042682D
:1024600013605A600023C0E900337047F81300205E
:102470000B4B10B51C689C4208BF0024FFF7DAFF25
:1024800054B1A368181A20EAE070064B1B6913B117
:102490009842A8BF184610BD6FF00040F5E700BF96
:1024A000F81300202C06002070B504461646C160C3
:1024B0004FF02003EFF3118583F31188BFF36F8F83
:1024C000FFF7B8FF012EACBF80190130164BA0609A
:1024D0001A689A4201D05E6832B95A682360626015
:1024E0005A6814605C600AE09068A168884215DD53
:1024F000411A91605168C4E900210C6054601A6867
:102500009A4206D0944204D1FFF7B2FF0021FEF7B1
:1025100037F985F31188BFF36F8F70BD091A9642A2
:10252000A160DAD01268D7E7F81300202DE9F04B4C
:102530000446FFF79DFD4FF02003EFF3118583F371
:102540001188BFF36F8F214F214EB846DFF884907A
:102550003460D9F8004032684C45D7E900BC05D05A
:1025600024B1A368934214DD9B1AA36000241BEBE3
:1025700002004CEBE271C8E900013460FFF778FF1C
:102580002146FEF7FDF885F31188BFF36F8FBDE894
:10259000F08B1BEB03004CEBE371D31A3360002389
:1025A000C7E90001A3602046FFF74EFF85F31188BD
:1025B000BFF36F8FE36898474FF02003EFF3118567
:1025C00083F31188BFF36F8FC3E700BF00000020C3
:1025D00068060020F813002038B5074C074DAC42C0
:1025E00001D3002038BD04F114032046C4E90533AB
:1025F00000F0F3FE1C34F2E7A0140020A014002029
:1026000001F09BBA0A46002101F0D8BA10B5114872
:1026100000F048F800B110BD0F4800F043F8002862
:10262000F9D10E4C204600F03DF80028F3D10C4BB8
:102630000C481C6000F036F801460028EBD100F091
:102640002DF8044608B1204610BD00F051F8204690
:10265000FAE700BF0C14002000140020081400202A
:10266000101400200414002008B5084800F024F8D5
:10267000074800F021F8074800F01EF8064800F06F
:102680001BF8BDE8084000F00BB800BF0C14002098
:1026900000140020081400200414002000207047BB
:1026A000704700BF08B5034B02681B681068984765
:1026B000002008BD1C14002008B5034B02685B68AD
:1026C00010689847002008BD1C1400200268024BC7
:1026D00010689B68184700BF1C14002008B5034B06
:1026E0000268DB6810689847002008BD1C140020B1
:1026F00070B5094C094D2069AB68984718B1084B73
:1027000008485B6898470021074AEB681160206918
:10271000BDE87040184700BF2C1400201C14002096
:1027200014140020544200006C060020F8B51A4C26
:102730001A4D0746AB6820699847E8B9184E3368C8
:102740007FB93BB90120174A1749C2F800050A684A
:10275000002AFCD101333360EB68206998470020E0
:10276000F8BD002BF8D0012B08D0013B3360206965
:10277000EB6898470020F3E70C48F8BD0A4A136855
:10278000002BFCD1074A6FF07E40C2F8003500F004
:1027900021F83368E9E700BF2C1400201C14002046
:1027A0006C0600200000845010198450E98FFFFF50
:1027B0000020704700207047430503D54FF0FF32DB
:1027C000024B1A60024B1860704700BF081184501A
:1027D000081A8450014B1860704700BF041A8450D7
:1027E00008B100F003B84FF475007047024607487F
:1027F00003681342FCD021B1054B06481B680B60EF
:102800000360054B00201A60704700BF001A845017
:102810000411845008118450081A845000F0A0B8A4
:1028200030B129B100230144037001308142FBD152
:10283000704700BF2DE9F041ADF51A7D0F460592B6
:102840000021144612A84FF408721E4601F0B6F992
:10285000002308A819462822069301F0AFF9002F9B
:102860003CD0002E3AD0002C38D0042106A8FFF727
:10287000C9FE08A82821FFF7C5FE08A800F032F815
:1028800078B14FF0FF3512A84FF40871FFF7C8FF79
:1028900006A80421FFF7C4FF28460DF51A7DBDE800
:1028A000F08112AB0DF11C080390CDE901630246E3
:1028B00005AB08A9CDF8008006A800F0E9FC0028C7
:1028C000DFD13368A342DCD3D8F8001005460831C5
:1028D00038462246FFF794FE3460D4E74FF0FF35C8
:1028E000DAE700BF1C2330B583B002A941F8043DEC
:1028F000044600F0B1F90546D8B9019B1C2B1BD149
:10290000D4E9003201210033E16118BF01230AB18B
:1029100043F00203A26832B9E268AAB9C4E90832F6
:102920003BB90D4D09E0E26843F0040362B9C4E924
:102930000832284603B030BD084D20461C21FFF761
:1029400061FE284603B030BD0022284643F008034C
:10295000C4E9083203B030BD0E0CF000370CF000B3
:1029600010B50C4C236813B10B4B1B686BB900F00E
:1029700031F938B10138062896BF084B084853F89A
:10298000200010BD0122044B1A60012300202360A7
:1029900010BD00BF700600207406002074420000C5
:1029A000FE8FFFFF10B5094C23681BB101230020E7
:1029B000236010BD00F07CF80028F7D0013806280D
:1029C00096BF034B034853F8200010BD700600204B
:1029D00074420000FE8FFFFFBFF34F8F0549064B87
:1029E000CA6802F4E0621343CB60BFF34F8F00BFAD
:1029F000FDE700BF00ED00E00400FA05014B5B6855
:102A0000184700BF14140020024BD0E90012C3E99C
:102A10000012704714140020704700BF10B5044620
:102A200020B1BFF35F8F0020206010BD0348FFF787
:102A3000E5FFBFF35F8F0020206010BDB4420000AF
:102A400010B5044610B10023236010BD0248FFF703
:102A5000D5FF0023236010BD9042000050B1012239
:102A6000D0E8EF3FC0E8E12F0029F9D1012BF7D0E2
:102A7000BFF35F8F0020704770B40B4B0668C268CD
:102A8000D0E90154C3E90242C3E90065D1E9030278
:102A90000E68064BD1E90154C3E90065C3E9024061
:102AA0001A6170BC704700BF1C1400202C14002059
:102AB00010B5FFF77DFE70B9FFF7A8FD80B9FFF7ED
:102AC00035FE80B9114B1B681B0EF02B0DD0062470
:102AD000FFF770FE00E00324FFF7C6FD204610BD9F
:102AE0000424204610BD0024F2E7094A094B12686D
:102AF0009A4201D00724EBE70120FFF717FE0028D8
:102B0000F1D1054B04461860E8E700BF281984504E
:102B1000241A84500000E0200C1A845030B5ADF522
:102B2000157D4FF4087200210CA801F047F800232E
:102B300002A819462822019301F040F802A8FFF7E5
:102B4000D1FE18B105200DF5157D30BD1C4D4FF09F
:102B5000FF312868FFF7BAFD0446F0B90020FFF7FF
:102B6000E5FDB0B90CAA02A901A800F0D5FB044606
:102B70000120FFF7DBFDF0B92868FFF7AFFD10B1CA
:102B80001048FFF73BFF2046002CDBD10DF5157DEB
:102B900030BD0D48FFF732FFE4E70C48FFF72EFF8A
:102BA000012CDBD12868FFF799FD0028CAD0054821
:102BB000FFF724FFC6E70648FFF720FFDCE700BF6A
:102BC00010140020EC42000004430000D442000036
:102BD0002443000008B5FFF7EBFD18B1FFF744FDF3
:102BE000032008BDFFF712FD68B9FFF79FFD60B92C
:102BF000154B1B681B0EF02B12D0FFF7DBFDFFF708
:102C000033FD062008BD042008BDFFF7D3FDFFF704
:102C10002BFDFFF783FF00280CBF0020052008BD17
:102C20000A4A0B4B12689A4205D0FFF7C3FDFFF723
:102C30001BFD072008BD0120FFF778FD0028E4D127
:102C4000044B1860E5E700BF28198450241A84500B
:102C50000000E0200C1A845018B111B10B681C2B35
:102C600001D0012070474FF47F033A4AD3F8101C7B
:102C700091425AD0D3F8102C013256D0D3F8102CF0
:102C80004FF47F030260D3F8141C334A91425ED0A4
:102C9000D3F8142C01325AD0D3F8142C4FF47F03FC
:102CA0004260D3F8182C12F5947F4DD0D3F8182C2D
:102CB000013249D0D3F8182C4FF47F038260D3F847
:102CC0001C1C264A91423CD0D3F81C2C013238D02F
:102CD000D3F81C2C4FF47F03C260D3F8002C703261
:102CE0002DD0D3F8002C013229D0D3F8002C4FF48A
:102CF0007F030261D3F8042CAF321ED0D3F8042C2A
:102D000001321AD0D3F8042C4FF47F034261D3F878
:102D1000081C134A91420BD0D3F8082C013207D07B
:102D2000D3F8083C83610020704740F6FC02A7E717
:102D300040F237338361002070475122E4E790224C
:102D4000D5E742F60412C5E740F6D862B4E742F28E
:102D5000D002A3E7FCF8FFFFD020FFFF0429FFFF0C
:102D600037F3FFFFA8B32DE9F0414C1EB4F5047F03
:102D70002CD25BB352B34FF0000CC900E646654657
:102D800064464F1E03F1FF380CE0AB4216D08E456F
:102D900001D10CF1010CA84516D00134BC4205F15B
:102DA000010518D8610950F8211004F01F06F14000
:102DB0001F2E18BF01F00101002CE6D10025A84507
:102DC0008E464FF0010CE8D16245E6D20348BDE8DB
:102DD000F081024870470020BDE8F081370CF10017
:102DE0002DE9F04F8FB00D46DDE9194183460029EA
:102DF00057D12969039100211C60189B1960002A92
:102E000000F02281814A824B11686A6A1B689A42EB
:102E100057D10A2955D19BF803300693039904230F
:102E200008467C4A0293A2FB00029208CB0002EB08
:102E3000420204F10800A1EB4202013BDFF8D0910D
:102E4000DFF800A2049000920593189B039C1C607D
:102E5000002C00F0CC800026049F00F0A9FA00238B
:102E60000793069BBBF1000F3AD0002D34D053BB23
:102E70005B000693BBF1000F36D0002D34D0E3B1D8
:102E800006A9284600F084FA002800F07D81624BF4
:102E9000984212D0009000F08BFA00980FB0BDE875
:102EA000F08F4FF47F01D1F80C0C01300CBF4FF4C0
:102EB0000471D1F80C1C03919DE72B6A73B9564835
:102EC000E8E75648E6E706A9284600F061FA68B147
:102ED000534B9842DED0069B082BC9D15148D9E705
:102EE000082BFBD05B0006934F48D3E72946069892
:102EF00000F030FA0028EBD1069B082B00F00E8181
:102F0000042B00F03181A3F10203B3FA83F35B09D0
:102F1000019301231946454A136042F8843C434B10
:102F200019606B6AC9F80030D9F800206B6A9A42C0
:102F3000F5D14FF000084FF0FF30CAF80080FFF7DE
:102F40003BFC3B4A3B4B40461A60FFF743FC0A22DE
:102F5000019839492D4B08601A602A69A8F1553843
:102F6000A8FB02126B6A120903EB4303DB0303FBAA
:102F700002F3324A9B0913600123CAF80030069914
:102F8000DBF800200B0243EA016322F07F42134387
:102F9000CBF8003007A800F0CDF9002898D1284BD5
:102FA000A8FB04281A681433089253F8102CB6EBC7
:102FB000980F099253F80C2C0A9253F8082C0B9294
:102FC00053F8042C0C921B680D9301D1009B9BB904
:102FD0003846182208A9FFF713FB183C18370136AA
:102FE000002C7FF43AAF049B002B40F09A80002322
:102FF000189A1360069B6FE71A46384608A9E41A28
:10300000FFF7FEFA009B1F44E9E700BF3811845028
:1030100030118450ABAAAAAA310CF100300CF10097
:10302000020CF100320CF100350CF100C411845097
:10303000FEFFFF0F001184500C118450D8118450F2
:10304000141184502C118450BBF1000F3FF44CAF8D
:10305000002D3FF449AF01230EA941F8203DCBF8E4
:103060000020284600F094F900287FF413AF294689
:10307000069800F06FF900287FF40CAF069F082F28
:1030800000F0EB80042F00F0EA80A7F10207B7FA06
:1030900087F77F0901221646734B74491A60184658
:1030A0000A60943B06606A6A1A6019686A6A91420B
:1030B000F8D14FF000086E4B4FF0FF30C3F800809E
:1030C000FFF77AFB6B4B6C4A40461A60FFF782FBB6
:1030D0000A226A496A4B0F601A601A992B69012902
:1030E0006A6A00F0B1806749A1FB03131B09012143
:1030F00002EB4202D20303FB02F3634A9B09136013
:103100005B4B19600699DBF800200B0243EA016370
:1031100022F07F421343CBF800307FE60323019374
:10312000F7E6039BB3F5047F3FF661AFDDE9047C6E
:10313000204623466E6904E00120013363451446AE
:1031400015D85A0957F8222003F01F01CA401F2939
:1031500018BF02F00102002BEED0A242ECD10130E8
:103160008642EAD149480BE002230193D1E64FF4AD
:103170008063DDE90310AA69FFF7F4FD00285DD044
:103180000023189A1360A3E62946069800F0E2F897
:1031900000287FF47CAE069C082C51D0042C51D022
:1031A000A4F10204B4FA84F4640901231E4619460A
:1031B0002D4A136042F8843C2B4B19606B6AC9F8A6
:1031C0000030D9F800206B6A9A42F5D100274FF001
:1031D000FF30CAF80070FFF7EFFA264B264A384650
:1031E0001A60FFF7F7FA0A222449254B0C601A608F
:1031F0002A6924496B6AA1FB021203EB43031209FB
:10320000DB0303FB02F3204A9B091360CAF800604A
:10321000069BDBF800101A0242EA036321F07F42AA
:103220001A43130A03F47F03134323F07F43CBF8BD
:103230000030029B013B02937FF407AE002029E699
:103240000324B2E70224B0E74FF47F03D3F80C1C49
:10325000013106D0D3F80C3C45E703271AE70227D3
:1032600018E7162343E700BFC4118450401184506F
:103270002C11845000118450FEFFFF0F0C1184505C
:1032800038118450ABAAAAAAD8118450360CF10088
:103290002DE9F0431B4C85B00746DDE90D56884605
:1032A00020684FF0FF319146FFF710FA28BB00204D
:1032B000FFF73CFAE8B90023CDE9005602934A46ED
:1032C000414638460C9BFFF78BFD05460120FFF772
:1032D0002DFA50B92068FFF701FA10B10A48FFF73C
:1032E0008DFB284605B0BDE8F0830848FFF786FB54
:1032F000F0E70748FFF782FBDDE70648FFF77EFBB4
:10330000D5E700BF10140020EC4200002443000069
:1033100004430000D442000010B5012486B005AB80
:10332000CDE901240093002204ABFFF759FD06B05C
:1033300010BD00BF08B501464FF48060FFF750FA9A
:1033400000230249024A0B60136008BDC811845073
:103350002C1184500138072815D8DFE800F0100C34
:10336000140814141404CB6800204B6270478B6857
:1033700000204B6270474B6800204B6270470B681F
:1033800000204B6270470148704700BF310CF100CC
:103390000B6802E0082B0B6006D8026A13424FEA62
:1033A0004303F7D00020704700487047310CF1000C
:1033B00000230449044A0B604FF480601360FFF758
:1033C000FBB900BF2C118450C411845008B5FDF71F
:1033D00037FBBDE80840FDF7C9BAFF232DE9F04FE0
:1033E0004668C372324600234FF00C090789016812
:1033F00006FB07FC90F80A806144984505DC002331
:1034000019468F4220DCBDE8F08FBCFBF2F509FBCA
:1034100003FED0F80CA0202D0AEB0E0404F1040BDF
:10342000C4E901BB05D8C372920822F0030201333C
:10343000E3E715F11F0448BF05F13E0464114AF8A3
:103440000E1001EB8401EFE7C268056802F1040C7D
:10345000EC1845F803C09568013165609568334400
:103460002C609460CDE70020704770B50D4604468F
:103470004520A04729465220A04729462346BDE8BB
:103480007040522018472DE9F04F4FF000080646D3
:103490000F461C464FF0FF3AC14645468BB002929C
:1034A000029B187810B90BB0BDE8F08F45B92528FC
:1034B00000F04B813946B047029B01330293EFE79E
:1034C00064286DD019D839280AD831285FD22D2820
:1034D00000F0418130284BD0252807D1394632E110
:1034E000582800F0BB80632800F02A813946252047
:1034F000B047029B3946187825E1702800F0A48077
:1035000011D869284CD06C2805D1B8F16C0F2AD19C
:103510004FF04C08D0E76828E8D1B8F1680F22D105
:103520004FF04808C8E7752872D018D87328DDD145
:1035300054F8045BAB465B461BF8010B002840F0D7
:10354000FC80B9F1030F40F00C815D1BAAEB05056F
:10355000002D49DD39462020B047013DF8E77828A5
:103560007CD07A28C2D1B8F1000FBFD18046A3E742
:10357000BAF1000F0EDAB9F1000F00F0EF80A0F100
:10358000300AB9F1000F08BF4FF0020994E7BAF111
:10359000000FF4DB0A2303FB0A0AAAF1300AF0E762
:1035A000B8F17A0F02D154F8045B20E0B8F16C0F47
:1035B000F9D0B8F14C0FF6D1073424F00704F4E841
:1035C000022312F10041069143F10001079100210D
:1035D000DDE906BC4FF0FF30614508BF584505D214
:1035E00039463046FFF741FF002565E71546002DB7
:1035F00005DA39462D20B0476D420AF1FF3A4B46B5
:103600002A46CDF800A039463046FCF7CBFFEBE761
:10361000B8F17A0F02D154F8042B11E0B8F16C0F15
:10362000F9D0B8F14C0FF6D100214FF0FF3007343C
:1036300024F00704F4E80223994208BF9042CFD354
:10364000CDF800A04B46DEE739463020B04739467A
:103650007820B0474FF0080A4FF00109029B1B7811
:10366000702B04D154F8043B049300230DE0B8F10F
:103670006C0FF7D0B8F14C0FF4D1073424F00703E6
:103680001C4654F8082B5B680492002110224FF06E
:10369000400B03910591ABF1040B0498CBF1200C86
:1036A000ABF1200120FA0BF003FA0CFC40EA0C000D
:1036B00023FA01F1084310F00F0006D1059911B962
:1036C000BBF1000F22D1302103E009288CBF572124
:1036D0003021084440B2394608930592B047039B15
:1036E000059A01330393089BBBF1000F23D1B9F175
:1036F000030F7FF479AF039BC3EB4A05002D7FF7DF
:1037000073AF39462020B047013DF7E7511E92457F
:10371000089107DBB9F1010F06D139463020099332
:10372000B047099B089AB6E7B9F1020FFAD109939D
:1037300039462020F4E70595ADE73946B047FAE66B
:10374000394654F8040BB0474EE7A846A9464FF057
:10375000FF3A0125B0E64FF00309ADE64FF001094D
:10376000AAE60546A8E60FB407B504A951F8040B6C
:103770000191FCF763FF03B05DF804EB04B0704700
:10378000044608B5084611461A46A047FEF7B6FD9E
:10379000FDF7A8FD7047FEF73FB80C228368C9B259
:1037A00002FB01314B7A23B9087AB0FA80F0400964
:1037B0007047022070470268F8B59768CCB28668F7
:1037C0004FF02003EFF3118583F31188BFF36F8F60
:1037D0000C226243B1180B7A1BB3013BDBB20B72B4
:1037E00013BBB3503A444B605368B3B90C23012167
:1037F00003FB0473DA7A1B8902F150221160002264
:1038000003F150231A600C21002001FB0464607254
:1038100085F31188BFF36F8FF8BD98470028E5D175
:10382000F1E76FF04400F3E70020F1E738B50C242E
:103830008368054604FB0134012363724FF02003C3
:10384000EFF3118183F31188BFF36F8F23682BB1DE
:1038500060681A688342226008BF626081F3118841
:10386000BFF36F8F03B938BDD3E9012128469047D4
:10387000E4E703682DE9F041D0F808C005469F68E9
:10388000CEB24AB10C2373435CF803309A425CD049
:1038900013B11B68002BF9D14FF02003EFF3118017
:1038A00083F31188BFF36F8F0C2171430CEB01037D
:1038B0001C7A0134E4B21C7280F31188BFF36F8F5D
:1038C00032B34FF050204FF0030EC0F808E3587A9F
:1038D000A0B94FF0200EEFF311888EF31188BFF3DB
:1038E0006F8F1060D3F804E0BEF1000F20D15A6052
:1038F0004CF8012088F31188BFF36F8F4FF05023ED
:103900000321C3F8041318B1D2E9013128469847BE
:10391000012C0BD10C237343FB586BB90C230122F0
:1039200003FB0676B37A03F150231A6000200EE001
:10393000CEF800205A60DDE7284698470028EDD1F0
:1039400031462846FFF772FFF0E76FF00F00BDE841
:10395000F0810022FFF78DBF10B50022044601213F
:103960000520FDF7CBFA0520FDF7B8FA4FF05023FC
:103970000222C3F8182503220020C3F80423A368F9
:10398000C3E90000A368C3E9030010BD7047704796
:10399000002307B501A88DF80430FEF73FFF03B000
:1039A0005DF804FB902908B5134639D10A46014653
:1039B0000020FEF73FFFBDE808407146724673469F
:1039C000B7EE000AF7EE000AB7EE001AF7EE001A9B
:1039D000B7EE002AF7EE002AB7EE003AF7EE003A0B
:1039E000B7EE004AF7EE004AB7EE005AF7EE005A7B
:1039F000B7EE006AF7EE006AB7EE007AF7EE007AEB
:103A00008EF3008C10B4F1EE10CA4FF66074C0F65D
:103A1000FF740CEA040CE1EE10CA10BCF4467447C3
:103A20006FF01500C7E7FEE7FDF7D0BA43B2A9B1C2
:103A3000002B12DB01215B099B0003F1604303F5BE
:103A40006143D3F8802200F01F0001FA00F022EA5F
:103A50000002C3F88022D3F880327047002BFCDBD1
:103A600001225B099B0003F1604303F56143D3F836
:103A7000801200F01F0002FA00F00843C3F8800231
:103A8000E9E700F0CAB80146006800F0C6B808B51A
:103A9000FDF7A6FABDE80840FDF7BEB907B500215D
:103AA00001A8FDF7B7FD03B05DF804FB30B50B6866
:103AB00085B04C689DF808200D89013C0093498928
:103AC00023F01F03234465F3040261F3471223F03C
:103AD0001F030F288DF808200393044605D8694674
:103AE000FDF750FC204605B030BD6FF01504F9E736
:103AF00040E800F313F4803FD8B208BF6FF0150020
:103B000070470138013910F8013F11F8012F934235
:103B100001D1002BF7D1981A704710B55AB101396D
:103B2000841810F8012B11F8013FA04201D09A42ED
:103B3000F7D0D01A10BD1046FCE7431A934210B5D7
:103B400000EB020308D3024601399A420BD011F868
:103B5000014F02F8014BF8E70A4412F8014D8A427E
:103B600003F8014DF9D110BDF0B581EA0004A507B5
:103B700003460BD0013B0A4491421AD1F0BD002A02
:103B8000FCD011F8014B013A03F8014B9C07F6D128
:103B90009508AC001E1F0F19B94205D16FF003063E
:103BA000234406FB0522E5E751F804CB46F804CF91
:103BB000F2E711F8014B03F8014FDDE7034670B55A
:103BC000C9B29C0710D141EA012444EA0445940893
:103BD00003EB8406B3420DD16FF0030505FB04240B
:103BE0001C44A34209D170BD002AFCD003F8011B7C
:103BF000013AE6E743F8045BECE703F8011BF0E762
:103C000008B50020FDF750FB08B5FDF76FF8FDF78C
:103C1000EDF8BDE80840FEF7C5BE70B505460E4696
:103C2000FEF76CFB314604462846FFF7E9FF2046C5
:103C3000BDE87040FDF756BBFFF7A9BE30B50024C4
:103C4000846141EA020414F00304C0E90232016114
:103C50000CD14461A34203D1C0E90000002030BD73
:103C6000456901340D6041611144F3E76FF01500BF
:103C7000F5E703460020C3E90033C3E902007047BB
:103C8000437BDB0603BF8069B0FA80F04009002067
:103C9000704721B9EFF3058008B9FDF7CBB881F380
:103CA0001188BFF36F8F7047034620B9EFF3058289
:103CB0000AB9FDF7BFB883F31188BFF36F8F704760
:103CC0004FF02003EFF3118083F31188BFF36F8F60
:103CD000FFF7EABF0368984214BF184600207047F8
:103CE00050F8103C70B50446A0F11805CBB14FF068
:103CF0002003EFF3118683F31188BFF36F8F2946FA
:103D000050F8100CFEF7EAF814F80B3C23F002030D
:103D100004F80B3C86F31188BFF36F8F002344F83F
:103D2000103C14F80B3C284623F0140304F80B3C19
:103D3000FFF7A6FF20B12846BDE87040FEF71EB988
:103D400070BD38B54FF02003EFF3118283F3118873
:103D5000BFF36F8FFFF7BEFF044682F31188BFF3F6
:103D60006F8FC8B14FF02003EFF3118583F31188F3
:103D7000BFF36F8F01468068FEF7B0F8637B23F0D6
:103D80000203637385F31188BFF36F8F002304F17F
:103D90001800A36000F011F8204638BD10B5029C51
:103DA0008373047300230424C3734473C0E906338C
:103DB000C0E91333C0E9161210BD10B54FF0200250
:103DC000EFF3118482F31188BFF36F8F03683BB167
:103DD000FEF73AFB002084F31188BFF36F8F10BD0C
:103DE0006FF01500F7E710B54FF02003EFF31184E3
:103DF00083F31188BFF36F8FFEF73AFB84F31188CA
:103E0000BFF36F8F10BD70B504460E464FF0200310
:103E1000EFF3118583F31188BFF36F8FFEF728FB53
:103E2000012805DDA04203DD31462046FCF7A8FC51
:103E300085F31188BFF36F8F70BD704730C4FF7F6B
:103E40000100000000000000293A0000000000000E
:103E5000293A000000000000293A0000000000009C
:103E6000293A000000000000293A0000000000008C
:103E70008106000000000000293A00000000000058
:103E8000293A000000000000293A0000000000006C
:103E9000293A000000000000293A0000000000005C
:103EA000293A000000000000293A0000000000004C
:103EB000293A000000000000293A0000000000003C
:103EC000293A000000000000293A0000000000002C
:103ED000293A000000000000293A0000000000001C
:103EE000293A000000000000293A0000000000000C
:103EF000D506000000000000293A00000000000084
:103F0000293A000000000000293A000000000000EB
:103F1000293A000000000000293A000000000000DB
:103F2000293A000000000000293A000000000000CB
:103F3000293A000000000000293A000000000000BB
:103F4000293A000000000000293A000000000000AB
:103F5000293A000000000000293A0000000000009B
:103F6000293A000000000000293A0000000000008B
:103F7000293A000000000000293A0000000000007B
:103F8000293A000000000000293A0000000000006B
:103F9000293A000000000000293A0000000000005B
:103FA000293A000000000000293A0000000000004B
:103FB000293A000000000000293A0000000000003B
:103FC000293A000000000000293A0000000000002B
:103FD000293A000000000000293A0000000000001B
:103FE000293A000000000000293A0000000000000B
:103FF000293A000000000000293A000000000000FB
:10400000293A000000000000293A000000000000EA
:10401000293A000000000000293A000000000000DA
:10402000293A000000000000293A000000000000CA
:10403000293A000000000000293A000000000000BA
:10404000293A000000000000293A00005643000011
:104050005906000000000000044500005939000026
:10406000E440000044430000150700000000000089
:10407000564300000D1500000000000056430000EC
:104080004117000000000000BB460000093C000092
:104090000000000056430000BD1B000000000000AF
:1040A00056430000D925000000000000DEE61E286F
:1040B0004CBBCE8F025B0000DEE61E28EAAC45B8A2
:1040C000025B0000DEE61E284CBBCE8F025B0000C8
:1040D00053390000B73700007338000000000000BB
:1040E0009B370000000000000000000000010004F9
:1040F00000000000000000000401080CF94400006A
:104100004201000000450000050100000A450000D2
:104110001401000013450000150100001C450000BB
:10412000390100002545000009010000304500006C
:104130000A0000003B4500000A0100004545000060
:104140000B0100004F4500000F0100005A45000020
:1041500010010000654500001101000070450000DD
:104160000E0100007A450000210100008345000097
:10417000220100008C45000023010000954500004D
:10418000240100009E45000018010000A645000023
:1041900028010000AE4500002A010000B6450000DD
:1041A0003A010000BE4500002C010000C645000099
:1041B0001C010000CF4500001D010000D845000093
:1041C00017010000E245000031010000EE4500004B
:1041D00004010000000000000002000000040000D4
:1041E000000800000010000000000000273A000056
:1041F000590D0000190D0000BD0D0000F90C000064
:10420000EC130020D4130020E41300200000000071
:10421000DC130020020000001C420000000000002F
:104220005046000006000000E0FF0F0000000020E4
:104230005846000021000000E0FF0020401400204C
:104240007C14002088140020A0140020A01400205A
:10425000F5FFFFFF436F756C64206E6F74206C6F09
:10426000636B20706F7765722073617665206D7562
:1042700074657800FF8FFFFFFF8FFFFFFE8FFFFF4A
:10428000FE8FFFFFFD8FFFFFFC8FFFFFFC8FFFFF07
:1042900043616E277420696E697469616C697A651F
:1042A000206D757465782C20776173204E554C4CC9
:1042B0000D0A000043616E277420756E6C6F636B8E
:1042C000206D757465782C20776173204E554C4CA9
:1042D0000D0A00004661696C20746F20616371757E
:1042E000697265206D757465780A00004661696CB5
:1042F00020746F2072656C65617365206D757465DF
:10430000780A00004661696C20746F20696E6372E0
:104310006561736520504D20636F756E7465720A18
:10432000000000004661696C20746F206465637250
:104330006561736520504D20636F756E7465720AF8
:10434000000000007379735F636C6F636B005365EB
:10435000637572650909004E6F6E2D536563757242
:1043600065090025303275202530327520307825DA
:1043700030357820307825303578200900256300E5
:104380004E6F6E2D53656375726500466C61736880
:1043900020726567696F6E730909446F6D61696E9C
:1043A00009095065726D697373696F6E730A004E07
:1043B0006F6E2D7365637572652063616C6C6162ED
:1043C0006C6520726567696F6E203020706C616368
:1043D000656420696E20666C617368207265676928
:1043E0006F6E20256420776974682073697A652070
:1043F00025642E0A00436F756C64206E6F7420690B
:104400006E697469616C697A65207365637572653C
:104410002073657276696365732028657272202542
:1044200064292E0A005352414D20726567696F6EF0
:104430000909446F6D61696E09095065726D697390
:1044400073696F6E730A0050657269706865726196
:104450006C0909446F6D61696E0909537461747563
:10446000730A002530327520252D323173257300F3
:1044700009534B49500A00094552524F520A00094C
:104480004F4B0A0053504D3A204E5320696D6167DF
:104490006520617420307825780A0053504D3A2009
:1044A0004E53204D535020617420307825780A00F7
:1044B00053504D3A204E53207265736574207665D3
:1044C00063746F7220617420307825780A0053502D
:1044D0004D3A207072657061726520746F206A7544
:1044E0006D7020746F204E6F6E2D5365637572650D
:1044F00020696D6167652E0A004E52465F5030009C
:104500004E52465F434C4F434B004E52465F52540F
:104510004330004E52465F52544331004E52465F84
:104520004E564D43004E52465F5541525445310060
:104530004E52465F554152544532004E52465F54EA
:1045400057494D32004E52465F5350494D33004E4D
:1045500052465F54494D455230004E52465F5449D1
:104560004D455231004E52465F54494D455232003E
:104570004E52465F5341414443004E52465F5057AE
:104580004D30004E52465F50574D31004E52465FFF
:1045900050574D32004E52465F50574D33004E52E9
:1045A000465F574454004E52465F493253004E52C4
:1045B000465F495043004E52465F564D43004E52AF
:1045C000465F465055004E52465F45475531004EB6
:1045D00052465F45475532004E52465F445050495F
:1045E00043004E52465F4750494F544531004E52AA
:1045F000465F524547554C41544F5253006D7574B8
:1046000065785F696E69742063616C6C656420779E
:10461000697468204E554C4C20706172616D6574F0
:10462000657200436F756C64206E6F7420616C6CF2
:104630006F63617465206D75746578206265666F5F
:10464000726520696E697469616C697A696E670068
:10465000464C4153485F30005352414D5F30004556
:1046600052524F523A2043616E6E6F742066756CE1
:1046700066696C6C204558545F41504920726571E1
:10468000756573742E0D0A005741524E494E473AD4
:10469000204F7074696F6E616C204558545F4150B3
:1046A000492072657175657374206E6F742066752C
:1046B0006C66696C6C65642E0D0A0048575F434355
:1046C0003331305F30006D61696E0069646C650084
:1046D0000000000067340000B41400200100000056
:1046E000C814002001000000DC14002001000000BC
:1046F000F0140020010000000090D003F813002007
:10470000F8130020301400203C1400203414002042
:104710002C1400200814002000000000D9290000FB
:10472000412A0000192A00005D2A00001D2A00000D
:10473000840600207806002080060020000000008B
:104740007C0600204C40000000000000000000003B
:10475000944000000000000000000000A0400000A5
:104760000000000000000000704000000000000099
:104770000000000058400000D04000000800002069
:1047800064400000000000000000000088400000BD
:1047900000000000000000007C400000000000005D
:1047A00000000000A0140020A01400200000000061
:1047B000000000000F000000B4140020B41400201A
:1047C00000000000000000000F000000C8140020DE
:1047D000C814002000000000000000000F000000CE
:1047E000DC140020DC1400200000000000000000A9
:1047F0000F000000F0140020F01400200000000062
:10480000000000000F000000FFFFFFFFFFFFFFFFA1
:10481000FFFFFFFFFFFFFFFFFFFFFFFFFFFFFFFFA8
:104820000000000000000000000000000000000088
:104830000000000000000000000000000000000078
:104840000000000000000000000000000000000068
:107FE0007FE97FE9F8F7C4BD7FE97FE9F8F718BEBC
:107FF0007FE97FE9FBF7D6BC00000000000000002D
:10C00000802F032021540100878802005550010031
:10C010005550010055500100555001005550010088
:10C020005550010055500100555001001D500100B0
:10C030005550010055500100594F0100894A010037
:10C0400071500100715001007150010071500100E8
:10C0500071500100715001007150010071500100D8
:10C0600071500100715001007150010071500100C8
:10C0700071500100715001007150010071500100B8
:10C0800071500100715001007150010071500100A8
:10C090007150010071500100715001007150010098
:10C0A0007150010071500100715001007150010088
:10C0B00099730100078E0200715001007150010058
:10C0C0007150010071500100715001007150010068
:10C0D0007150010071500100715001007150010058
:10C0E0007150010071500100258E02007150010055
:10C0F0007150010071500100715001007150010038
:10C100007150010071500100715001007150010027
:10C110007150010071500100715001007150010017
:10C120007150010071500100715001007150010007
:10C1300071500100715001007150010071500100F7
:10C14000715001000000000000000000000000002D
:10C1500000000000000000000000000000000000DF
:10C1600000000000000000000000000000000000CF
:10C1700000000000000000000000000000000000BF
:10C1800000000000000000000000000000000000AF
:10C19000000000000000000000000000000000009F
:10C1A000000000000000000000000000000000008F
:10C1B000000000000000000000000000000000007F
:10C1C000000000000000000000000000000000006F
:10C1D000000000000000000000000000000000005F
:10C1E000000000000000000000000000000000004F
:10C1F000000000000000000000000000000000003F
:10C20000DEE61E284CBBCE8F025B00003C00000027
:10C21000483702000100000000C0000000C000001C
:10C22000FFFF02910000000000000000000000007D
:10C23000000000000000000000000000FFFFFFFF02
:10C2400081F0004102E000BF83F0004330B54FEAC7
:10C2500041044FEA430594EA050F08BF90EA020F34
:10C260001FBF54EA000C55EA020C7FEA645C7FEAC7
:10C27000655C00F0E2804FEA5454D4EB5555B8BFEA
:10C280006D420CDD2C4480EA020281EA030382EA5B
:10C29000000083EA010180EA020281EA0303362DED
:10C2A00088BF30BD11F0004F4FEA01314FF4801CC0
:10C2B0004CEA113102D0404261EB410113F0004FD2
:10C2C0004FEA03334CEA133302D0524263EB430389
:10C2D00094EA050F00F0A780A4F10104D5F1200E27
:10C2E0000DDB02FA0EFC22FA05F2801841F1000182
:10C2F00003FA0EF2801843FA05F359410EE0A5F156
:10C3000020050EF1200E012A03FA0EFC28BF4CF086
:10C31000020C43FA05F3C01851EBE37101F000453C
:10C3200007D54FF0000EDCF1000C7EEB00006EEB49
:10C330000101B1F5801F1BD3B1F5001F0CD34908D3
:10C340005FEA30004FEA3C0C04F101044FEA44522A
:10C3500012F5800F80F09A80BCF1004F08BF5FEAB1
:10C36000500C50F1000041EB045141EA050130BD91
:10C370005FEA4C0C404141EB010111F4801FA4F134
:10C380000104E9D191F0000F04BF01460020B1FA89
:10C3900081F308BF2033A3F10B03B3F120020CDAC1
:10C3A0000C3208DD02F1140CC2F10C0201FA0CF09F
:10C3B00021FA02F10CE002F11402D8BFC2F1200C04
:10C3C00001FA02F120FA0CFCDCBF41EA0C019040BA
:10C3D000E41AA2BF01EB0451294330BD6FEA040403
:10C3E0001F3C1CDA0C340EDC04F11404C4F12002EE
:10C3F00020FA04F001FA02F340EA030021FA04F300
:10C4000045EA030130BDC4F10C04C4F1200220FA56
:10C4100002F001FA04F340EA0300294630BD21FA94
:10C4200004F0294630BD94F0000F83F4801306BF5A
:10C4300081F480110134013D4EE77FEA645C18BF4E
:10C440007FEA655C29D094EA050F08BF90EA020FE5
:10C4500005D054EA000C04BF1946104630BD91EADD
:10C46000030F1EBF0021002030BD5FEA545C05D1E0
:10C470004000494128BF41F0004130BD14F580041F
:10C480003CBF01F5801130BD01F0004545F0FE4193
:10C4900041F470014FF0000030BD7FEA645C1ABFC8
:10C4A000194610467FEA655C1CBF0B46024650EAFF
:10C4B000013406BF52EA033591EA030F41F400212B
:10C4C00030BD00BF90F0000F04BF0021704730B5B1
:10C4D0004FF4806404F132044FF000054FF0000186
:10C4E00050E700BF90F0000F04BF0021704730B547
:10C4F0004FF4806404F1320410F0004548BF40421C
:10C500004FF000013EE700BF42004FEAE2014FEA70
:10C5100031014FEA02701FBF12F07F4393F07F4F4B
:10C5200081F06051704732F07F4208BF704793F04E
:10C530007F4F04BF41F40021704730B54FF4607461
:10C5400001F0004521F000411CE700BF50EA010264
:10C5500008BF704730B54FF000050AE050EA01020D
:10C5600008BF704730B511F0004502D5404261EB7D
:10C5700041014FF4806404F132045FEA915C3FF4BE
:10C58000D8AE4FF003025FEADC0C18BF03325FEA5B
:10C59000DC0C18BF033202EBDC02C2F1200300FA0C
:10C5A00003FC20FA02F001FA03FE40EA0E0021FA31
:10C5B00002F11444BDE600BF70B54FF0FF0C4CF41F
:10C5C000E06C1CEA11541DBF1CEA135594EA0C0FD1
:10C5D00095EA0C0F00F0DEF82C4481EA030621EA0C
:10C5E0004C5123EA4C5350EA013518BF52EA033547
:10C5F00041F4801143F4801338D0A0FB02CE4FF0F9
:10C600000005E1FB02E506F00042E0FB03E54FF028
:10C610000006E1FB03569CF0000F18BF4EF0010E20
:10C62000A4F1FF04B6F5007F64F5407404D25FEA1C
:10C630004E0E6D4146EB060642EAC62141EA5551CF
:10C640004FEAC52040EA5E504FEACE2EB4F1FD0C11
:10C6500088BFBCF5E06F1ED8BEF1004F08BF5FEA8F
:10C66000500E50F1000041EB045170BD06F0004641
:10C6700046EA010140EA020081EA0301B4EB5C04EE
:10C68000C2BFD4EB0C0541EA045170BD41F48011E6
:10C690004FF0000E013C00F3AB8014F1360FDEBF0B
:10C6A000002001F0004170BDC4F10004203C35DAE7
:10C6B0000C341BDC04F11404C4F1200500FA05F36A
:10C6C00020FA04F001FA05F240EA020001F000420B
:10C6D00021F0004110EBD37021FA04F642EB060181
:10C6E0005EEA430E08BF20EAD37070BDC4F10C04AB
:10C6F000C4F1200500FA04F320FA05F001FA04F26F
:10C7000040EA020001F0004110EBD37041F100015A
:10C710005EEA430E08BF20EAD37070BDC4F1200565
:10C7200000FA05F24EEA020E20FA04F301FA05F2CD
:10C7300043EA020321FA04F001F0004121FA04F275
:10C7400020EA020000EBD3705EEA430E08BF20EA45
:10C75000D37070BD94F0000F0FD101F0004640007F
:10C7600041EB010111F4801F08BF013CF7D041EA01
:10C77000060195F0000F18BF704703F00046520005
:10C7800043EB030313F4801F08BF013DF7D043EAD6
:10C790000603704794EA0C0F0CEA135518BF95EA8C
:10C7A0000C0F0CD050EA410618BF52EA4306D1D113
:10C7B00081EA030101F000414FF0000070BD50EA32
:10C7C000410606BF1046194652EA430619D094EABC
:10C7D0000C0F02D150EA013613D195EA0C0F05D1A6
:10C7E00052EA03361CBF104619460AD181EA0301FA
:10C7F00001F0004141F0FE4141F470014FF00000B2
:10C8000070BD41F0FE4141F4780170BD70B54FF04C
:10C81000FF0C4CF4E06C1CEA11541DBF1CEA1355CC
:10C8200094EA0C0F95EA0C0F00F0A7F8A4EB0504AE
:10C8300081EA030E52EA03354FEA013100F08880A5
:10C840004FEA03334FF0805545EA131343EA12636E
:10C850004FEA022245EA111545EA10654FEA002623
:10C860000EF000419D4208BF964244F1FD0404F5DC
:10C87000407402D25B084FEA3202B61A65EB030538
:10C880005B084FEA32024FF480104FF4002CB6EBF5
:10C89000020E75EB030E22BFB61A754640EA0C0075
:10C8A0005B084FEA3202B6EB020E75EB030E22BFB5
:10C8B000B61A754640EA5C005B084FEA3202B6EBF6
:10C8C000020E75EB030E22BFB61A754640EA9C00B5
:10C8D0005B084FEA3202B6EB020E75EB030E22BF85
:10C8E000B61A754640EADC0055EA060E18D04FEA43
:10C8F000051545EA16754FEA06164FEAC30343EAE3
:10C9000052734FEAC2025FEA1C1CC0D111F4801FAF
:10C910000BD141EA00014FF000004FF0004CB6E7A8
:10C9200011F4801F04BF01430020B4F1FD0C88BF47
:10C93000BCF5E06F3FF6AFAEB5EB030C04BFB6EB52
:10C94000020C5FEA500C50F1000041EB045170BD45
:10C950000EF0004E4EEA113114EB5C04C2BFD4EB72
:10C960000C0541EA045170BD41F480114FF0000EF6
:10C97000013C90E645EA060E8DE60CEA135594EA72
:10C980000C0F08BF95EA0C0F3FF43BAF94EA0C0F75
:10C990000AD150EA01347FF434AF95EA0C0F7FF4EA
:10C9A00025AF104619462CE795EA0C0F06D152EA3E
:10C9B00003353FF4FDAE1046194622E750EA410622
:10C9C00018BF52EA43067FF4C5AE50EA41047FF433
:10C9D0000DAF52EA43057FF4EBAE12E74FF0FF3C98
:10C9E00006E000BF4FF0010C02E000BF4FF0010C69
:10C9F0004DF804CD4FEA410C7FEA6C5C4FEA430CE2
:10CA000018BF7FEA6C5C1BD001B050EA410C0CBF30
:10CA100052EA430C91EA030F02BF90EA020F002092
:10CA2000704710F1000F91EA030F58BF994208BFF9
:10CA300090422CBFD8176FEAE37040F001007047B6
:10CA40004FEA410C7FEA6C5C02D150EA013C07D10D
:10CA50004FEA430C7FEA6C5CD6D152EA033CD3D058
:10CA60005DF8040B704700BF8446104662468C4652
:10CA70001946634600E000BF01B5FFF7B7FF002885
:10CA800048BF10F1000F01BD4DF808EDFFF7F4FFAE
:10CA90000CBF012000205DF808FB00BF4DF808ED39
:10CAA000FFF7EAFF34BF012000205DF808FB00BF5C
:10CAB0004DF808EDFFF7E0FF94BF012000205DF87E
:10CAC00008FB00BF4DF808EDFFF7CEFF94BF012033
:10CAD00000205DF808FB00BF4DF808EDFFF7C4FF2C
:10CAE00034BF012000205DF808FB00BF4A0011D2CE
:10CAF00012F5001211D20DD56FF47873B3EB6252B8
:10CB00000ED44FEAC12343F0004343EA505323FAC3
:10CB100002F070474FF00000704750EA013002D138
:10CB20004FF0FF3070474FF0000070474FEA41026E
:10CB3000B2F1E04324BFB3F5001CDCF1FE5C0DD97B
:10CB400001F0004C4FEAC0024CEA5070B2F1004FC5
:10CB500040EB830008BF20F00100704711F0804FC8
:10CB600021D113F13872BCBF01F00040704741F48D
:10CB700080114FEA5252C2F11802C2F1200C10FA91
:10CB80000CF320FA02F018BF40F001004FEAC12375
:10CB90004FEAD32303FA0CFC40EA0C0023FA02F319
:10CBA0004FEA4303CCE77FEA625307D150EA0133EF
:10CBB0001EBF4FF0FE4040F44000704701F00040BF
:10CBC00040F0FE4040F40000704700BF53B94AB93E
:10CBD000002908BF00281CBF4FF0FF314FF0FF3085
:10CBE00000F070B9ADF1080C6DE904CE00F006F864
:10CBF000DDF804E0DDE9022304B070472DE9F04FD1
:10CC0000099E04468946002B40F083808A421546DF
:10CC100045D9B2FA82F24AB1C2F1200701FA02F311
:10CC20009540944020FA07F747EA03094FEA154E6A
:10CC3000230C1FFA85F8B9FBFEFC0EFB1C990CFBBC
:10CC400008F143EA094399420AD9EB182CBF0120A5
:10CC50000020994202D9002800F01D810CF1FF3C10
:10CC6000591AA3B2B1FBFEF00EFB101100FB08F83D
:10CC700043EA0144A04505D92C1902D2A04500F28F
:10CC80000E810138A4EB080440EA0C4000271EB1D5
:10CC9000D4400023C6E900433946BDE8F08F002A9E
:10CCA00051D0B2FA82F2002A40F0AF80491B4FEA1D
:10CCB000154E1FFA85F80127230CB1FBFEFC0EFB75
:10CCC0001C1108FB0CF043EA014398420AD9EB1807
:10CCD0002CBF01210021984202D9002900F0D78001
:10CCE0000CF1FF3C191AA3B2B1FBFEF00EFB1011C0
:10CCF00008FB00F843EA0144A04505D92C1902D2EB
:10CD0000A04500F2C1800138A4EB080440EA0C40C1
:10CD1000BDE78B4208D9002E74D00027C6E9000178
:10CD200038463946BDE8F08FB3FA83F767B98B42CE
:10CD3000C0F0A480824240F2A1803846002EABD0E1
:10CD4000C6E90049A8E7FFDEC7F12005BB4002FAAB
:10CD500007FC01FA07F4EA4020FA05F8E94000FA76
:10CD600007FE1A4348EA04044FEA1248200C1FFA4F
:10CD700082F9B1FBF8FA08FB1A110AFB09FB40EA39
:10CD800001418B450AD951182CBF012300238B4543
:10CD900002D9002B00F088800AF1FF3AA1EB0B01C9
:10CDA000A4B2B1FBF8F008FB101100FB09F944EA4A
:10CDB0000141894504D9511801D289457BD80138F0
:10CDC00040EA0A40A1EB0901A0FB0C894945444611
:10CDD0004B4602D306D1C64504D20138B8EB0C0449
:10CDE00069EB0203002E5DD0BEEB040261EB030190
:10CDF00001FA05F522FA07F3F94000271D43C6E9B9
:10CE0000005149E73746304646E7C2F120009540D9
:10CE100001FA02F721FA00F34FEA154E24FA00F165
:10CE20001FFA85F894403943B3FBFEF00F0C0EFB5C
:10CE3000103300FB08FC47EA03439C4507D9EB1875
:10CE40002CBF012700279C4500D98FB30138A3EBE5
:10CE50000C0389B2B3FBFEF70EFB173307FB08FC8C
:10CE600041EA03418C4504D9691801D28C4525D883
:10CE7000013FA1EB0C0147EA00471DE7841A61EB73
:10CE800003030120994659E702382C443CE7ACF1F2
:10CE9000020C2B4426E7ACF1020C2B44E0E60238EE
:10CEA0002C44EFE63746F7E6AAF1020A114475E78B
:10CEB00002382B44CBE70238114481E7023F294472
:10CEC000D7E700BF704700BF4FEA410C7FEA6C5CB8
:10CED00002D150EA013C0AD14FEA430C7FEA6C5C74
:10CEE00002D152EA033C02D14FF0000070474FF0EC
:10CEF000010070474FEA410212F5001215D211D518
:10CF00006FF47873B3EB625212D94FEAC12343F046
:10CF1000004343EA505311F0004F23FA02F018BFC8
:10CF2000404270474FF00000704750EA013005D191
:10CF300011F0004008BF6FF0004070474FF0000054
:10CF4000704700BF10F8012B11F8013B012A28BFE0
:10CF50009A42F7D0D01A7047034613F8012B002AE3
:10CF6000FBD1181A013870470F4B104A0AA1D1E9BA
:10CF700000019A6241F202429A852822C3E9040123
:10CF800007A1D1E90001C3E90201002083F82E20A6
:10CF900004F066BBAFF30080F705F4C29D815C40EE
:10CFA000D6011077F5AA364000000220E4070B04F2
:10CFB0002DE9F0472DED068BACB004F07DFF032387
:10CFC0004FF00000DC4C63F30700DC4BDC4DE41A4F
:10CFD000C4F3C90464F38F10DA491BF0F9FA2B7813
:10CFE0006BB105F02FF800234FF000002B700323E6
:10CFF00063F3070064F38F10D3491BF0E9FAD34DB4
:10D000002B78002B00F0FA844FF0000A00239FEDEC
:10D01000C68BCF4ECF4FCDF878A0CDF87CA0ADF821
:10D020001230BDF81230B3F5C87FC0F0C2821F9A2B
:10D03000C94BCDF850A01A60C84B002215930023AD
:10D04000CDF858A0CDF85CA0CDF860A0CDF864A0D4
:10D05000CDF868A0CDF86CA0CDF870A0CDF874A084
:10D06000CDE920230023BE4ABE49BF48ADF81030A9
:10D07000BDF810309DED157A07EE903AF8EEE77A9C
:10D08000F4EEC77AF1EE10FA00F11C839DED157AEB
:10D09000DDED166AC6EE877ACDED167A9DED157A2E
:10D0A000DDED176AC6EE877ACDED177A9DED157A1C
:10D0B000DDED186AC6EE877ACDED187A169B9FEDE6
:10D0C000AB8A1693179BA24A1793189BA1491893F2
:10D0D000DDED157A78EE677AFCEEE77A17EE903A96
:10D0E000A3489BB2ADF81030BDF81030C72B40F20A
:10D0F00037839DED157ADDED196AC6EE877ACDEDA1
:10D10000197A9DED157ADDED1A6AC6EE877ACDEDB6
:10D110001A7A9DED157ADDED1B6AC6EE877ACDEDA4
:10D120001B7A199B9FED809B19931A9B1A931B9B4B
:10D130001B93DDED165A9DED196ADDED177A9DED15
:10D140001A5A67EE857ADDED186A45EE867A9DED0E
:10D150001B7A46EE877ACDED1C7A1698FFF7D4F944
:10D160009FED711B41EC100B00F0A2FC179857ECDF
:10D17000106BFFF7C9F99FED6C1B41EC100B00F031
:10D1800097FC304653EC102B3946FFF75FF8064604
:10D1900018980F46FFF7B8F99FED631B41EC100B91
:10D1A00000F086FC304653EC102B3946FFF74EF862
:10D1B000064619980F46FFF7A7F99FED5B1B41EC58
:10D1C000100B00F075FC1A9859EC108BFFF79CF9C6
:10D1D0009FED551B41EC100B00F06AFC404653ECF0
:10D1E000102B4946FFF732F880461B988946FFF717
:10D1F0008BF99FED4D1B41EC100B00F059FC4046A4
:10D2000053EC102B4946FFF721F832463B46FFF717
:10D21000D3F9FFF78BFC1D901C9E1D98FFF774F946
:10D2200041EC100B17F0ECFD53EC102B3046CDE920
:10D230000023FFF769F9DDE90023FFF7E7FA41EC86
:10D24000100B17F0A3FD3AA3D3E900238DED200BBB
:10D25000DDE92001FFF7B0F9FFF768FC1490149B9B
:10D26000444E454F33600023DFF81881CDF848A0C5
